{
  "contractName": "AbstractBondingStub",
  "abi": [
    {
      "inputs": [
        {
          "internalType": "address",
          "name": "registryAddress",
          "type": "address"
        },
        {
          "internalType": "address",
          "name": "stakingInfoAddress",
          "type": "address"
        },
        {
          "internalType": "address",
          "name": "_bondTokenAddress",
          "type": "address"
        }
      ],
      "payable": false,
      "stateMutability": "nonpayable",
      "type": "constructor"
    },
    {
      "anonymous": false,
      "inputs": [
        {
          "indexed": true,
          "internalType": "address",
          "name": "operator",
          "type": "address"
        },
        {
          "indexed": true,
          "internalType": "address",
          "name": "holder",
          "type": "address"
        },
        {
          "indexed": true,
          "internalType": "address",
          "name": "sortitionPool",
          "type": "address"
        },
        {
          "indexed": false,
          "internalType": "uint256",
          "name": "referenceID",
          "type": "uint256"
        },
        {
          "indexed": false,
          "internalType": "uint256",
          "name": "amount",
          "type": "uint256"
        }
      ],
      "name": "BondCreated",
      "type": "event"
    },
    {
      "anonymous": false,
      "inputs": [
        {
          "indexed": true,
          "internalType": "address",
          "name": "operator",
          "type": "address"
        },
        {
          "indexed": true,
          "internalType": "uint256",
          "name": "referenceID",
          "type": "uint256"
        },
        {
          "indexed": false,
          "internalType": "address",
          "name": "newHolder",
          "type": "address"
        },
        {
          "indexed": false,
          "internalType": "uint256",
          "name": "newReferenceID",
          "type": "uint256"
        }
      ],
      "name": "BondReassigned",
      "type": "event"
    },
    {
      "anonymous": false,
      "inputs": [
        {
          "indexed": true,
          "internalType": "address",
          "name": "operator",
          "type": "address"
        },
        {
          "indexed": true,
          "internalType": "uint256",
          "name": "referenceID",
          "type": "uint256"
        }
      ],
      "name": "BondReleased",
      "type": "event"
    },
    {
      "anonymous": false,
      "inputs": [
        {
          "indexed": true,
          "internalType": "address",
          "name": "operator",
          "type": "address"
        },
        {
          "indexed": true,
          "internalType": "uint256",
          "name": "referenceID",
          "type": "uint256"
        },
        {
          "indexed": false,
          "internalType": "address",
          "name": "destination",
          "type": "address"
        },
        {
          "indexed": false,
          "internalType": "uint256",
          "name": "amount",
          "type": "uint256"
        }
      ],
      "name": "BondSeized",
      "type": "event"
    },
    {
      "anonymous": false,
      "inputs": [
        {
          "indexed": true,
          "internalType": "address",
          "name": "operator",
          "type": "address"
        },
        {
          "indexed": true,
          "internalType": "address",
          "name": "beneficiary",
          "type": "address"
        },
        {
          "indexed": false,
          "internalType": "uint256",
          "name": "amount",
          "type": "uint256"
        }
      ],
      "name": "UnbondedValueDeposited",
      "type": "event"
    },
    {
      "anonymous": false,
      "inputs": [
        {
          "indexed": true,
          "internalType": "address",
          "name": "operator",
          "type": "address"
        },
        {
          "indexed": true,
          "internalType": "address",
          "name": "beneficiary",
          "type": "address"
        },
        {
          "indexed": false,
          "internalType": "uint256",
          "name": "amount",
          "type": "uint256"
        }
      ],
      "name": "UnbondedValueWithdrawn",
      "type": "event"
    },
    {
      "constant": false,
      "inputs": [
        {
          "internalType": "address",
          "name": "_operator",
          "type": "address"
        },
        {
          "internalType": "address",
          "name": "_poolAddress",
          "type": "address"
        }
      ],
      "name": "authorizeSortitionPoolContract",
      "outputs": [],
      "payable": false,
      "stateMutability": "nonpayable",
      "type": "function"
    },
    {
      "constant": true,
      "inputs": [
        {
          "internalType": "address",
          "name": "operator",
          "type": "address"
        },
        {
          "internalType": "address",
          "name": "bondCreator",
          "type": "address"
        },
        {
          "internalType": "address",
          "name": "authorizedSortitionPool",
          "type": "address"
        }
      ],
      "name": "availableUnbondedValue",
      "outputs": [
        {
          "internalType": "uint256",
          "name": "",
          "type": "uint256"
        }
      ],
      "payable": false,
      "stateMutability": "view",
      "type": "function"
    },
    {
      "constant": true,
      "inputs": [
        {
          "internalType": "address",
          "name": "operator",
          "type": "address"
        },
        {
          "internalType": "address",
          "name": "holder",
          "type": "address"
        },
        {
          "internalType": "uint256",
          "name": "referenceID",
          "type": "uint256"
        }
      ],
      "name": "bondAmount",
      "outputs": [
        {
          "internalType": "uint256",
          "name": "",
          "type": "uint256"
        }
      ],
      "payable": false,
      "stateMutability": "view",
      "type": "function"
    },
    {
      "constant": true,
      "inputs": [],
      "name": "bondTokenAddress",
      "outputs": [
        {
          "internalType": "address",
          "name": "",
          "type": "address"
        }
      ],
      "payable": false,
      "stateMutability": "view",
      "type": "function"
    },
    {
      "constant": false,
      "inputs": [
        {
          "internalType": "address",
          "name": "operator",
          "type": "address"
        },
        {
          "internalType": "address",
          "name": "holder",
          "type": "address"
        },
        {
          "internalType": "uint256",
          "name": "referenceID",
          "type": "uint256"
        },
        {
          "internalType": "uint256",
          "name": "amount",
          "type": "uint256"
        },
        {
          "internalType": "address",
          "name": "authorizedSortitionPool",
          "type": "address"
        }
      ],
      "name": "createBond",
      "outputs": [],
      "payable": false,
      "stateMutability": "nonpayable",
      "type": "function"
    },
    {
      "constant": false,
      "inputs": [
        {
          "internalType": "address",
          "name": "_operator",
          "type": "address"
        },
        {
          "internalType": "address",
          "name": "_poolAddress",
          "type": "address"
        }
      ],
      "name": "deauthorizeSortitionPoolContract",
      "outputs": [],
      "payable": false,
      "stateMutability": "nonpayable",
      "type": "function"
    },
    {
      "constant": false,
      "inputs": [
        {
          "internalType": "address",
          "name": "operator",
          "type": "address"
        },
        {
          "internalType": "uint256",
          "name": "_amount",
          "type": "uint256"
        }
      ],
      "name": "deposit",
      "outputs": [],
      "payable": false,
      "stateMutability": "nonpayable",
      "type": "function"
    },
    {
      "constant": false,
      "inputs": [
        {
          "internalType": "address",
          "name": "operator",
          "type": "address"
        },
        {
          "internalType": "uint256",
          "name": "_amount",
          "type": "uint256"
        },
        {
          "internalType": "address",
          "name": "_source",
          "type": "address"
        }
      ],
      "name": "depositFor",
      "outputs": [],
      "payable": false,
      "stateMutability": "nonpayable",
      "type": "function"
    },
    {
      "constant": false,
      "inputs": [
        {
          "internalType": "address",
          "name": "operator",
          "type": "address"
        },
        {
          "internalType": "uint256",
          "name": "referenceID",
          "type": "uint256"
        }
      ],
      "name": "freeBond",
      "outputs": [],
      "payable": false,
      "stateMutability": "nonpayable",
      "type": "function"
    },
    {
      "constant": true,
      "inputs": [
        {
          "internalType": "address",
          "name": "_operator",
          "type": "address"
        },
        {
          "internalType": "address",
          "name": "_poolAddress",
          "type": "address"
        }
      ],
      "name": "hasSecondaryAuthorization",
      "outputs": [
        {
          "internalType": "bool",
          "name": "",
          "type": "bool"
        }
      ],
      "payable": false,
      "stateMutability": "view",
      "type": "function"
    },
    {
      "constant": false,
      "inputs": [
        {
          "internalType": "address",
          "name": "operator",
          "type": "address"
        },
        {
          "internalType": "uint256",
          "name": "referenceID",
          "type": "uint256"
        },
        {
          "internalType": "address",
          "name": "newHolder",
          "type": "address"
        },
        {
          "internalType": "uint256",
          "name": "newReferenceID",
          "type": "uint256"
        }
      ],
      "name": "reassignBond",
      "outputs": [],
      "payable": false,
      "stateMutability": "nonpayable",
      "type": "function"
    },
    {
      "constant": false,
      "inputs": [
        {
          "internalType": "address",
          "name": "operator",
          "type": "address"
        },
        {
          "internalType": "uint256",
          "name": "referenceID",
          "type": "uint256"
        },
        {
          "internalType": "uint256",
          "name": "amount",
          "type": "uint256"
        },
        {
          "internalType": "address",
          "name": "destination",
          "type": "address"
        }
      ],
      "name": "seizeBond",
      "outputs": [],
      "payable": false,
      "stateMutability": "nonpayable",
      "type": "function"
    },
    {
      "constant": true,
      "inputs": [
        {
          "internalType": "address",
          "name": "",
          "type": "address"
        }
      ],
      "name": "unbondedValue",
      "outputs": [
        {
          "internalType": "uint256",
          "name": "",
          "type": "uint256"
        }
      ],
      "payable": false,
      "stateMutability": "view",
      "type": "function"
    },
    {
      "constant": false,
      "inputs": [
        {
          "internalType": "uint256",
          "name": "amount",
          "type": "uint256"
        },
        {
          "internalType": "address",
          "name": "operator",
          "type": "address"
        }
      ],
      "name": "withdraw",
      "outputs": [],
      "payable": false,
      "stateMutability": "nonpayable",
      "type": "function"
    },
    {
      "constant": false,
      "inputs": [
        {
          "internalType": "uint256",
          "name": "amount",
          "type": "uint256"
        },
        {
          "internalType": "address",
          "name": "operator",
          "type": "address"
        }
      ],
      "name": "withdrawBondExposed",
      "outputs": [],
      "payable": false,
      "stateMutability": "nonpayable",
      "type": "function"
    },
    {
      "constant": true,
      "inputs": [
        {
          "internalType": "address",
          "name": "_operator",
          "type": "address"
        },
        {
          "internalType": "address",
          "name": "_operatorContract",
          "type": "address"
        }
      ],
      "name": "isAuthorizedForOperator",
      "outputs": [
        {
          "internalType": "bool",
          "name": "",
          "type": "bool"
        }
      ],
      "payable": false,
      "stateMutability": "view",
      "type": "function"
    },
    {
      "constant": true,
      "inputs": [
        {
          "internalType": "address",
          "name": "_operator",
          "type": "address"
        }
      ],
      "name": "authorizerOf",
      "outputs": [
        {
          "internalType": "address",
          "name": "",
          "type": "address"
        }
      ],
      "payable": false,
      "stateMutability": "view",
      "type": "function"
    },
    {
      "constant": true,
      "inputs": [
        {
          "internalType": "address",
          "name": "_operator",
          "type": "address"
        }
      ],
      "name": "beneficiaryOf",
      "outputs": [
        {
          "internalType": "address payable",
          "name": "",
          "type": "address"
        }
      ],
      "payable": false,
      "stateMutability": "view",
      "type": "function"
    }
  ],
  "bytecode": "0x608060405234801561001057600080fd5b50604051612b95380380612b958339818101604052606081101561003357600080fd5b81019080805190602001909291908051906020019092919080519060200190929190505050828181600160006101000a81548173ffffffffffffffffffffffffffffffffffffffff021916908373ffffffffffffffffffffffffffffffffffffffff160217905550806000806101000a81548173ffffffffffffffffffffffffffffffffffffffff021916908373ffffffffffffffffffffffffffffffffffffffff160217905550505081600560006101000a81548173ffffffffffffffffffffffffffffffffffffffff021916908373ffffffffffffffffffffffffffffffffffffffff160217905550505050612a65806101306000396000f3fe608060405234801561001057600080fd5b50600436106101155760003560e01c80637ab3cf93116100a2578063c578617411610071578063c578617414610662578063c8820f6c146106c6578063d20a62fc14610734578063ef1f9661146107cc578063fb1677b11461084857610115565b80637ab3cf93146104ca578063972f245714610518578063ba7bffd314610590578063be7153631461061457610115565b806342bcb965116100e957806342bcb9651461028e578063446f0f9e1461032657806347e7ef24146103a85780635823cfad146103f657806378f011c11461044e57610115565b8062f714ce1461011a5780630b102471146101685780630cb0a677146101cc5780631133fd2c14610244575b600080fd5b6101666004803603604081101561013057600080fd5b8101908080359060200190929190803573ffffffffffffffffffffffffffffffffffffffff1690602001909291905050506108cc565b005b6101ca6004803603604081101561017e57600080fd5b81019080803573ffffffffffffffffffffffffffffffffffffffff169060200190929190803573ffffffffffffffffffffffffffffffffffffffff16906020019092919050505061093a565b005b610242600480360360808110156101e257600080fd5b81019080803573ffffffffffffffffffffffffffffffffffffffff1690602001909291908035906020019092919080359060200190929190803573ffffffffffffffffffffffffffffffffffffffff169060200190929190505050610a7c565b005b61024c610e08565b604051808273ffffffffffffffffffffffffffffffffffffffff1673ffffffffffffffffffffffffffffffffffffffff16815260200191505060405180910390f35b610310600480360360608110156102a457600080fd5b81019080803573ffffffffffffffffffffffffffffffffffffffff169060200190929190803573ffffffffffffffffffffffffffffffffffffffff169060200190929190803573ffffffffffffffffffffffffffffffffffffffff169060200190929190505050610e2d565b6040518082815260200191505060405180910390f35b6103926004803603606081101561033c57600080fd5b81019080803573ffffffffffffffffffffffffffffffffffffffff169060200190929190803573ffffffffffffffffffffffffffffffffffffffff16906020019092919080359060200190929190505050610f85565b6040518082815260200191505060405180910390f35b6103f4600480360360408110156103be57600080fd5b81019080803573ffffffffffffffffffffffffffffffffffffffff1690602001909291908035906020019092919050505061103d565b005b6104386004803603602081101561040c57600080fd5b81019080803573ffffffffffffffffffffffffffffffffffffffff16906020019092919050505061144e565b6040518082815260200191505060405180910390f35b6104b06004803603604081101561046457600080fd5b81019080803573ffffffffffffffffffffffffffffffffffffffff169060200190929190803573ffffffffffffffffffffffffffffffffffffffff169060200190929190505050611466565b604051808215151515815260200191505060405180910390f35b610516600480360360408110156104e057600080fd5b81019080803573ffffffffffffffffffffffffffffffffffffffff169060200190929190803590602001909291905050506114fa565b005b61058e6004803603608081101561052e57600080fd5b81019080803573ffffffffffffffffffffffffffffffffffffffff16906020019092919080359060200190929190803573ffffffffffffffffffffffffffffffffffffffff16906020019092919080359060200190929190505050611732565b005b6105d2600480360360208110156105a657600080fd5b81019080803573ffffffffffffffffffffffffffffffffffffffff169060200190929190505050611a2e565b604051808273ffffffffffffffffffffffffffffffffffffffff1673ffffffffffffffffffffffffffffffffffffffff16815260200191505060405180910390f35b6106606004803603604081101561062a57600080fd5b8101908080359060200190929190803573ffffffffffffffffffffffffffffffffffffffff169060200190929190505050611b11565b005b6106c46004803603604081101561067857600080fd5b81019080803573ffffffffffffffffffffffffffffffffffffffff169060200190929190803573ffffffffffffffffffffffffffffffffffffffff169060200190929190505050611b1f565b005b610732600480360360608110156106dc57600080fd5b81019080803573ffffffffffffffffffffffffffffffffffffffff16906020019092919080359060200190929190803573ffffffffffffffffffffffffffffffffffffffff169060200190929190505050611c61565b005b6107ca600480360360a081101561074a57600080fd5b81019080803573ffffffffffffffffffffffffffffffffffffffff169060200190929190803573ffffffffffffffffffffffffffffffffffffffff1690602001909291908035906020019092919080359060200190929190803573ffffffffffffffffffffffffffffffffffffffff169060200190929190505050612073565b005b61082e600480360360408110156107e257600080fd5b81019080803573ffffffffffffffffffffffffffffffffffffffff169060200190929190803573ffffffffffffffffffffffffffffffffffffffff169060200190929190505050612356565b604051808215151515815260200191505060405180910390f35b61088a6004803603602081101561085e57600080fd5b81019080803573ffffffffffffffffffffffffffffffffffffffff16906020019092919050505061246e565b604051808273ffffffffffffffffffffffffffffffffffffffff1673ffffffffffffffffffffffffffffffffffffffff16815260200191505060405180910390f35b6040517f08c379a00000000000000000000000000000000000000000000000000000000081526004018080602001828103825260118152602001807f61627374726163742066756e6374696f6e00000000000000000000000000000081525060200191505060405180910390fd5b3373ffffffffffffffffffffffffffffffffffffffff1661095a8361246e565b73ffffffffffffffffffffffffffffffffffffffff16146109e3576040517f08c379a000000000000000000000000000000000000000000000000000000000815260040180806020018281038252600e8152602001807f4e6f7420617574686f72697a656400000000000000000000000000000000000081525060200191505060405180910390fd5b6000600460008473ffffffffffffffffffffffffffffffffffffffff1673ffffffffffffffffffffffffffffffffffffffff16815260200190815260200160002060008373ffffffffffffffffffffffffffffffffffffffff1673ffffffffffffffffffffffffffffffffffffffff16815260200190815260200160002060006101000a81548160ff0219169083151502179055505050565b60008211610ad5576040517f08c379a000000000000000000000000000000000000000000000000000000000815260040180806020018281038252602c815260200180612a05602c913960400191505060405180910390fd5b60003390506000858286604051602001808473ffffffffffffffffffffffffffffffffffffffff1673ffffffffffffffffffffffffffffffffffffffff1660601b81526014018373ffffffffffffffffffffffffffffffffffffffff1673ffffffffffffffffffffffffffffffffffffffff1660601b815260140182815260200193505050506040516020818303038152906040528051906020012090508360036000838152602001908152602001600020541015610bdf576040517f08c379a00000000000000000000000000000000000000000000000000000000081526004018080602001828103825260298152602001806129dc6029913960400191505060405180910390fd5b60008060009054906101000a900473ffffffffffffffffffffffffffffffffffffffff169050610c2b85600360008581526020019081526020016000205461255190919063ffffffff16565b600360008481526020019081526020016000208190555060008173ffffffffffffffffffffffffffffffffffffffff1663a9059cbb86886040518363ffffffff1660e01b8152600401808373ffffffffffffffffffffffffffffffffffffffff1673ffffffffffffffffffffffffffffffffffffffff16815260200182815260200192505050602060405180830381600087803b158015610ccb57600080fd5b505af1158015610cdf573d6000803e3d6000fd5b505050506040513d6020811015610cf557600080fd5b8101908080519060200190929190505050905080610d7b576040517f08c379a000000000000000000000000000000000000000000000000000000000815260040180806020018281038252600f8152602001807f5472616e73666572206661696c6564000000000000000000000000000000000081525060200191505060405180910390fd5b868873ffffffffffffffffffffffffffffffffffffffff167ff8e947b47b515d01aa96426822ddcf23a08f42d8c2dbfd65e674ba824f5513828789604051808373ffffffffffffffffffffffffffffffffffffffff1673ffffffffffffffffffffffffffffffffffffffff1681526020018281526020019250505060405180910390a35050505050505050565b6000809054906101000a900473ffffffffffffffffffffffffffffffffffffffff1681565b6000600160009054906101000a900473ffffffffffffffffffffffffffffffffffffffff1673ffffffffffffffffffffffffffffffffffffffff166384d57689846040518263ffffffff1660e01b8152600401808273ffffffffffffffffffffffffffffffffffffffff1673ffffffffffffffffffffffffffffffffffffffff16815260200191505060206040518083038186803b158015610ece57600080fd5b505afa158015610ee2573d6000803e3d6000fd5b505050506040513d6020811015610ef857600080fd5b81019080805190602001909291905050508015610f1b5750610f1a8484612356565b5b8015610f2d5750610f2c8483611466565b5b15610f7957600260008573ffffffffffffffffffffffffffffffffffffffff1673ffffffffffffffffffffffffffffffffffffffff168152602001908152602001600020549050610f7e565b600090505b9392505050565b600080848484604051602001808473ffffffffffffffffffffffffffffffffffffffff1673ffffffffffffffffffffffffffffffffffffffff1660601b81526014018373ffffffffffffffffffffffffffffffffffffffff1673ffffffffffffffffffffffffffffffffffffffff1660601b8152601401828152602001935050505060405160208183030381529060405280519060200120905060036000828152602001908152602001600020549150509392505050565b600061104883611a2e565b9050600073ffffffffffffffffffffffffffffffffffffffff168173ffffffffffffffffffffffffffffffffffffffff1614156110d0576040517f08c379a00000000000000000000000000000000000000000000000000000000081526004018080602001828103825260288152602001806129b46028913960400191505060405180910390fd5b60008060009054906101000a900473ffffffffffffffffffffffffffffffffffffffff169050828173ffffffffffffffffffffffffffffffffffffffff1663dd62ed3e86306040518363ffffffff1660e01b8152600401808373ffffffffffffffffffffffffffffffffffffffff1673ffffffffffffffffffffffffffffffffffffffff1681526020018273ffffffffffffffffffffffffffffffffffffffff1673ffffffffffffffffffffffffffffffffffffffff1681526020019250505060206040518083038186803b1580156111a857600080fd5b505afa1580156111bc573d6000803e3d6000fd5b505050506040513d60208110156111d257600080fd5b81019080805190602001909291905050501015611257576040517f08c379a00000000000000000000000000000000000000000000000000000000081526004018080602001828103825260148152602001807f416c6c6f77616e636520697320746f6f206c6f7700000000000000000000000081525060200191505060405180910390fd5b8073ffffffffffffffffffffffffffffffffffffffff166323b872dd8530866040518463ffffffff1660e01b8152600401808473ffffffffffffffffffffffffffffffffffffffff1673ffffffffffffffffffffffffffffffffffffffff1681526020018373ffffffffffffffffffffffffffffffffffffffff1673ffffffffffffffffffffffffffffffffffffffff1681526020018281526020019350505050602060405180830381600087803b15801561131257600080fd5b505af1158015611326573d6000803e3d6000fd5b505050506040513d602081101561133c57600080fd5b8101908080519060200190929190505050506113a083600260008773ffffffffffffffffffffffffffffffffffffffff1673ffffffffffffffffffffffffffffffffffffffff168152602001908152602001600020546125da90919063ffffffff16565b600260008673ffffffffffffffffffffffffffffffffffffffff1673ffffffffffffffffffffffffffffffffffffffff168152602001908152602001600020819055508173ffffffffffffffffffffffffffffffffffffffff168473ffffffffffffffffffffffffffffffffffffffff167ffd586a32ad24d585b1f7b36ee48e66304ad7627b48b39a0ab1d8a3e84741ea2a856040518082815260200191505060405180910390a350505050565b60026020528060005260406000206000915090505481565b6000600460008473ffffffffffffffffffffffffffffffffffffffff1673ffffffffffffffffffffffffffffffffffffffff16815260200190815260200160002060008373ffffffffffffffffffffffffffffffffffffffff1673ffffffffffffffffffffffffffffffffffffffff16815260200190815260200160002060009054906101000a900460ff16905092915050565b60003390506000838284604051602001808473ffffffffffffffffffffffffffffffffffffffff1673ffffffffffffffffffffffffffffffffffffffff1660601b81526014018373ffffffffffffffffffffffffffffffffffffffff1673ffffffffffffffffffffffffffffffffffffffff1660601b815260140182815260200193505050506040516020818303038152906040528051906020012090506000600360008381526020019081526020016000205411611621576040517f08c379a000000000000000000000000000000000000000000000000000000000815260040180806020018281038252600e8152602001807f426f6e64206e6f7420666f756e6400000000000000000000000000000000000081525060200191505060405180910390fd5b600060036000838152602001908152602001600020549050600060036000848152602001908152602001600020819055506116a481600260008873ffffffffffffffffffffffffffffffffffffffff1673ffffffffffffffffffffffffffffffffffffffff168152602001908152602001600020546125da90919063ffffffff16565b600260008773ffffffffffffffffffffffffffffffffffffffff1673ffffffffffffffffffffffffffffffffffffffff16815260200190815260200160002081905550838573ffffffffffffffffffffffffffffffffffffffff167f60b8ef4216791426b3d7acfb0b6d11a400872350afd70a3ce5ebf62bea7cb0d460405160405180910390a35050505050565b60003390506000858286604051602001808473ffffffffffffffffffffffffffffffffffffffff1673ffffffffffffffffffffffffffffffffffffffff1660601b81526014018373ffffffffffffffffffffffffffffffffffffffff1673ffffffffffffffffffffffffffffffffffffffff1660601b815260140182815260200193505050506040516020818303038152906040528051906020012090506000600360008381526020019081526020016000205411611859576040517f08c379a000000000000000000000000000000000000000000000000000000000815260040180806020018281038252600e8152602001807f426f6e64206e6f7420666f756e6400000000000000000000000000000000000081525060200191505060405180910390fd5b6000868585604051602001808473ffffffffffffffffffffffffffffffffffffffff1673ffffffffffffffffffffffffffffffffffffffff1660601b81526014018373ffffffffffffffffffffffffffffffffffffffff1673ffffffffffffffffffffffffffffffffffffffff1660601b81526014018281526020019350505050604051602081830303815290604052805190602001209050600060036000838152602001908152602001600020541461195e576040517f08c379a000000000000000000000000000000000000000000000000000000000815260040180806020018281038252602f815260200180612985602f913960400191505060405180910390fd5b6003600083815260200190815260200160002054600360008381526020019081526020016000208190555060006003600084815260200190815260200160002081905550858773ffffffffffffffffffffffffffffffffffffffff167fb1d917176802bfbc813f2d82e745526029a4ccf0ea98d14e7a09a08703595b1e8787604051808373ffffffffffffffffffffffffffffffffffffffff1673ffffffffffffffffffffffffffffffffffffffff1681526020018281526020019250505060405180910390a350505050505050565b6000600560009054906101000a900473ffffffffffffffffffffffffffffffffffffffff1673ffffffffffffffffffffffffffffffffffffffff1663ba7bffd3836040518263ffffffff1660e01b8152600401808273ffffffffffffffffffffffffffffffffffffffff1673ffffffffffffffffffffffffffffffffffffffff16815260200191505060206040518083038186803b158015611acf57600080fd5b505afa158015611ae3573d6000803e3d6000fd5b505050506040513d6020811015611af957600080fd5b81019080805190602001909291905050509050919050565b611b1b8282612662565b5050565b3373ffffffffffffffffffffffffffffffffffffffff16611b3f8361246e565b73ffffffffffffffffffffffffffffffffffffffff1614611bc8576040517f08c379a000000000000000000000000000000000000000000000000000000000815260040180806020018281038252600e8152602001807f4e6f7420617574686f72697a656400000000000000000000000000000000000081525060200191505060405180910390fd5b6001600460008473ffffffffffffffffffffffffffffffffffffffff1673ffffffffffffffffffffffffffffffffffffffff16815260200190815260200160002060008373ffffffffffffffffffffffffffffffffffffffff1673ffffffffffffffffffffffffffffffffffffffff16815260200190815260200160002060006101000a81548160ff0219169083151502179055505050565b6000611c6c84611a2e565b9050600073ffffffffffffffffffffffffffffffffffffffff168173ffffffffffffffffffffffffffffffffffffffff161415611cf4576040517f08c379a00000000000000000000000000000000000000000000000000000000081526004018080602001828103825260288152602001806129b46028913960400191505060405180910390fd5b60008060009054906101000a900473ffffffffffffffffffffffffffffffffffffffff169050838173ffffffffffffffffffffffffffffffffffffffff1663dd62ed3e85306040518363ffffffff1660e01b8152600401808373ffffffffffffffffffffffffffffffffffffffff1673ffffffffffffffffffffffffffffffffffffffff1681526020018273ffffffffffffffffffffffffffffffffffffffff1673ffffffffffffffffffffffffffffffffffffffff1681526020019250505060206040518083038186803b158015611dcc57600080fd5b505afa158015611de0573d6000803e3d6000fd5b505050506040513d6020811015611df657600080fd5b81019080805190602001909291905050501015611e7b576040517f08c379a000000000000000000000000000000000000000000000000000000000815260040180806020018281038252601f8152602001807f416c6c6f77616e6365206f66205f736f7572636520697320746f6f206c6f770081525060200191505060405180910390fd5b8073ffffffffffffffffffffffffffffffffffffffff166323b872dd8430876040518463ffffffff1660e01b8152600401808473ffffffffffffffffffffffffffffffffffffffff1673ffffffffffffffffffffffffffffffffffffffff1681526020018373ffffffffffffffffffffffffffffffffffffffff1673ffffffffffffffffffffffffffffffffffffffff1681526020018281526020019350505050602060405180830381600087803b158015611f3657600080fd5b505af1158015611f4a573d6000803e3d6000fd5b505050506040513d6020811015611f6057600080fd5b810190808051906020019092919050505050611fc484600260008873ffffffffffffffffffffffffffffffffffffffff1673ffffffffffffffffffffffffffffffffffffffff168152602001908152602001600020546125da90919063ffffffff16565b600260008773ffffffffffffffffffffffffffffffffffffffff1673ffffffffffffffffffffffffffffffffffffffff168152602001908152602001600020819055508173ffffffffffffffffffffffffffffffffffffffff168573ffffffffffffffffffffffffffffffffffffffff167ffd586a32ad24d585b1f7b36ee48e66304ad7627b48b39a0ab1d8a3e84741ea2a866040518082815260200191505060405180910390a35050505050565b8161207f863384610e2d565b10156120f3576040517f08c379a000000000000000000000000000000000000000000000000000000000815260040180806020018281038252601b8152602001807f496e73756666696369656e7420756e626f6e6465642076616c7565000000000081525060200191505060405180910390fd5b6000858585604051602001808473ffffffffffffffffffffffffffffffffffffffff1673ffffffffffffffffffffffffffffffffffffffff1660601b81526014018373ffffffffffffffffffffffffffffffffffffffff1673ffffffffffffffffffffffffffffffffffffffff1660601b8152601401828152602001935050505060405160208183030381529060405280519060200120905060006003600083815260200190815260200160002054146121f8576040517f08c379a000000000000000000000000000000000000000000000000000000000815260040180806020018281038252602f815260200180612985602f913960400191505060405180910390fd5b61224a83600260008973ffffffffffffffffffffffffffffffffffffffff1673ffffffffffffffffffffffffffffffffffffffff1681526020019081526020016000205461255190919063ffffffff16565b600260008873ffffffffffffffffffffffffffffffffffffffff1673ffffffffffffffffffffffffffffffffffffffff168152602001908152602001600020819055506122b38360036000848152602001908152602001600020546125da90919063ffffffff16565b60036000838152602001908152602001600020819055508173ffffffffffffffffffffffffffffffffffffffff168573ffffffffffffffffffffffffffffffffffffffff168773ffffffffffffffffffffffffffffffffffffffff167fa5543d8e139d9ab4342d5c4f6ec1bff5a97f9a52d71f7ffe9845b94f1449fc918787604051808381526020018281526020019250505060405180910390a4505050505050565b6000600560009054906101000a900473ffffffffffffffffffffffffffffffffffffffff1673ffffffffffffffffffffffffffffffffffffffff1663ef1f966184846040518363ffffffff1660e01b8152600401808373ffffffffffffffffffffffffffffffffffffffff1673ffffffffffffffffffffffffffffffffffffffff1681526020018273ffffffffffffffffffffffffffffffffffffffff1673ffffffffffffffffffffffffffffffffffffffff1681526020019250505060206040518083038186803b15801561242b57600080fd5b505afa15801561243f573d6000803e3d6000fd5b505050506040513d602081101561245557600080fd5b8101908080519060200190929190505050905092915050565b6000600560009054906101000a900473ffffffffffffffffffffffffffffffffffffffff1673ffffffffffffffffffffffffffffffffffffffff1663fb1677b1836040518263ffffffff1660e01b8152600401808273ffffffffffffffffffffffffffffffffffffffff1673ffffffffffffffffffffffffffffffffffffffff16815260200191505060206040518083038186803b15801561250f57600080fd5b505afa158015612523573d6000803e3d6000fd5b505050506040513d602081101561253957600080fd5b81019080805190602001909291905050509050919050565b6000828211156125c9576040517f08c379a000000000000000000000000000000000000000000000000000000000815260040180806020018281038252601e8152602001807f536166654d6174683a207375627472616374696f6e206f766572666c6f77000081525060200191505060405180910390fd5b600082840390508091505092915050565b600080828401905083811015612658576040517f08c379a000000000000000000000000000000000000000000000000000000000815260040180806020018281038252601b8152602001807f536166654d6174683a206164646974696f6e206f766572666c6f77000000000081525060200191505060405180910390fd5b8091505092915050565b81600260008373ffffffffffffffffffffffffffffffffffffffff1673ffffffffffffffffffffffffffffffffffffffff168152602001908152602001600020541015612717576040517f08c379a000000000000000000000000000000000000000000000000000000000815260040180806020018281038252601b8152602001807f496e73756666696369656e7420756e626f6e6465642076616c7565000000000081525060200191505060405180910390fd5b61276982600260008473ffffffffffffffffffffffffffffffffffffffff1673ffffffffffffffffffffffffffffffffffffffff1681526020019081526020016000205461255190919063ffffffff16565b600260008373ffffffffffffffffffffffffffffffffffffffff1673ffffffffffffffffffffffffffffffffffffffff1681526020019081526020016000208190555060006127b782611a2e565b905060008060009054906101000a900473ffffffffffffffffffffffffffffffffffffffff16905060008173ffffffffffffffffffffffffffffffffffffffff1663a9059cbb84876040518363ffffffff1660e01b8152600401808373ffffffffffffffffffffffffffffffffffffffff1673ffffffffffffffffffffffffffffffffffffffff16815260200182815260200192505050602060405180830381600087803b15801561286857600080fd5b505af115801561287c573d6000803e3d6000fd5b505050506040513d602081101561289257600080fd5b8101908080519060200190929190505050905080612918576040517f08c379a000000000000000000000000000000000000000000000000000000000815260040180806020018281038252600f8152602001807f5472616e73666572206661696c6564000000000000000000000000000000000081525060200191505060405180910390fd5b8273ffffffffffffffffffffffffffffffffffffffff168473ffffffffffffffffffffffffffffffffffffffff167f5ebf1d16423ab39117c0ca9327215b5bcd423aaf7042044c87248a4423d252d9876040518082815260200191505060405180910390a3505050505056fe5265666572656e6365204944206e6f7420756e6971756520666f7220686f6c64657220616e64206f70657261746f7242656e6566696369617279206e6f7420646566696e656420666f7220746865206f70657261746f7252657175657374656420616d6f756e742069732067726561746572207468616e2074686520626f6e6452657175657374656420616d6f756e742073686f756c642062652067726561746572207468616e207a65726fa265627a7a723158204770c5b48cc30af322f5aeac33a802890fc5f31451076236369e6c9e00fb197164736f6c63430005110032",
  "source": "pragma solidity 0.5.17;\n\nimport \"../../contracts/AbstractBonding.sol\";\n\nimport \"./StakingInfoStub.sol\";\n\ncontract AbstractBondingStub is AbstractBonding {\n    StakingInfoStub stakingInfoStub;\n\n    constructor(\n        address registryAddress,\n        address stakingInfoAddress,\n        address _bondTokenAddress\n    ) public AbstractBonding(registryAddress, _bondTokenAddress) {\n        stakingInfoStub = StakingInfoStub(stakingInfoAddress);\n    }\n\n    function withdraw(uint256 amount, address operator) public {\n        revert(\"abstract function\");\n    }\n\n    function withdrawBondExposed(uint256 amount, address operator) public {\n        withdrawBond(amount, operator);\n    }\n\n    function isAuthorizedForOperator(\n        address _operator,\n        address _operatorContract\n    ) public view returns (bool) {\n        return\n            stakingInfoStub.isAuthorizedForOperator(\n                _operator,\n                _operatorContract\n            );\n    }\n\n    function authorizerOf(address _operator) public view returns (address) {\n        return stakingInfoStub.authorizerOf(_operator);\n    }\n\n    function beneficiaryOf(address _operator)\n        public\n        view\n        returns (address payable)\n    {\n        return stakingInfoStub.beneficiaryOf(_operator);\n    }\n}\n",
  "sourcePath": "/home/kowal/Projects/sovryn/keep-ecdsa/solidity/contracts/test/AbstractBondingStub.sol",
  "compiler": {
    "name": "solc",
    "version": "0.5.17+commit.d19bba13.Emscripten.clang"
  },
  "schemaVersion": "3.0.22",
  "updatedAt": "2021-01-29T17:36:47.958Z",
  "devdoc": {
    "methods": {
      "authorizeSortitionPoolContract(address,address)": {
        "details": "Only operator's authorizer can call this function."
      },
      "availableUnbondedValue(address,address,address)": {
        "details": "Implements function expected by sortition pools' IBonding interface.",
        "params": {
          "authorizedSortitionPool": "Address of authorized sortition pool.",
          "bondCreator": "Address authorized to create a bond.",
          "operator": "Address of the operator."
        },
        "return": "Amount of authorized wei deposit available for bonding."
      },
      "bondAmount(address,address,uint256)": {
        "params": {
          "holder": "Address of the holder of the bond.",
          "operator": "Address of the operator.",
          "referenceID": "Reference ID of the bond."
        },
        "return": "Amount of wei in the selected bond."
      },
      "createBond(address,address,uint256,uint256,address)": {
        "details": "Function can be executed only by authorized contract. Reference ID should be unique for holder and operator.",
        "params": {
          "amount": "Value to bond in wei.",
          "authorizedSortitionPool": "Address of authorized sortition pool.",
          "holder": "Address of the holder of the bond.",
          "operator": "Address of the operator to bond.",
          "referenceID": "Reference ID used to track the bond by holder."
        }
      },
      "deauthorizeSortitionPoolContract(address,address)": {
        "details": "Only operator's authorizer can call this function."
      },
      "deposit(address,uint256)": {
        "params": {
          "operator": "Address of the operator."
        }
      },
      "freeBond(address,uint256)": {
        "details": "Function requires that caller is the holder of the bond which is being released.",
        "params": {
          "operator": "Address of the bonded operator.",
          "referenceID": "Reference ID of the bond."
        }
      },
      "hasSecondaryAuthorization(address,address)": {
        "details": "See authorizeSortitionPoolContract."
      },
      "reassignBond(address,uint256,address,uint256)": {
        "details": "Function requires that a caller is the current holder of the bond which is being reassigned.",
        "params": {
          "newHolder": "Address of the new holder of the bond.",
          "newReferenceID": "New reference ID to register the bond.",
          "operator": "Address of the bonded operator.",
          "referenceID": "Reference ID of the bond."
        }
      },
      "seizeBond(address,uint256,uint256,address)": {
        "details": "Function requires that a caller is the holder of the bond which is being seized.",
        "params": {
          "amount": "Amount to be seized.",
          "destination": "Address to send the amount to.",
          "operator": "Address of the bonded operator.",
          "referenceID": "Reference ID of the bond."
        }
      }
    }
  },
  "userdoc": {
    "methods": {
      "authorizeSortitionPoolContract(address,address)": {
        "notice": "Authorizes sortition pool for the provided operator. Operator's authorizers need to authorize individual sortition pools per application since they may be interested in participating only in a subset of keep types used by the given application."
      },
      "availableUnbondedValue(address,address,address)": {
        "notice": "Returns the amount of wei the operator has made available for bonding and that is still unbounded. If the operator doesn't exist or bond creator is not authorized as an operator contract or it is not authorized by the operator or there is no secondary authorization for the provided sortition pool, function returns 0."
      },
      "bondAmount(address,address,uint256)": {
        "notice": "Returns value of wei bonded for the operator."
      },
      "createBond(address,address,uint256,uint256,address)": {
        "notice": "Create bond for the given operator, holder, reference and amount."
      },
      "deauthorizeSortitionPoolContract(address,address)": {
        "notice": "Deauthorizes sortition pool for the provided operator. Authorizer may deauthorize individual sortition pool in case the operator should no longer be eligible for work selection and the application represented by the sortition pool should no longer be eligible to create bonds for the operator."
      },
      "deposit(address,uint256)": {
        "notice": "Add the provided value to operator's pool available for bonding."
      },
      "freeBond(address,uint256)": {
        "notice": "Releases the bond and moves the bond value to the operator's unbounded value pool."
      },
      "hasSecondaryAuthorization(address,address)": {
        "notice": "Checks if the sortition pool has been authorized for the provided operator by its authorizer."
      },
      "reassignBond(address,uint256,address,uint256)": {
        "notice": "Reassigns a bond to a new holder under a new reference."
      },
      "seizeBond(address,uint256,uint256,address)": {
        "notice": "Seizes the bond by moving some or all of the locked bond to the provided destination address."
      }
    }
  }
}