{
  "contractName": "BondedECDSAKeepVendorImplV2Stub",
  "abi": [
    {
      "constant": true,
      "inputs": [],
      "name": "version",
      "outputs": [
        {
          "internalType": "string",
          "name": "",
          "type": "string"
        }
      ],
      "payable": false,
      "stateMutability": "view",
      "type": "function"
    },
    {
      "constant": false,
      "inputs": [
        {
          "internalType": "bool",
          "name": "shouldFail",
          "type": "bool"
        }
      ],
      "name": "initialize",
      "outputs": [],
      "payable": false,
      "stateMutability": "nonpayable",
      "type": "function"
    },
    {
      "constant": true,
      "inputs": [],
      "name": "initialized",
      "outputs": [
        {
          "internalType": "bool",
          "name": "",
          "type": "bool"
        }
      ],
      "payable": false,
      "stateMutability": "view",
      "type": "function"
    }
  ],
  "bytecode": "0x608060405234801561001057600080fd5b50610328806100206000396000f3fe608060405234801561001057600080fd5b50600436106100415760003560e01c8063158ef93e1461004657806354fd4d5014610068578063d53a822f146100eb575b600080fd5b61004e61011b565b604051808215151515815260200191505060405180910390f35b61007061016d565b6040518080602001828103825283818151815260200191508051906020019080838360005b838110156100b0578082015181840152602081019050610095565b50505050905090810190601f1680156100dd5780820380516001836020036101000a031916815260200191505b509250505060405180910390f35b6101196004803603602081101561010157600080fd5b810190808035151590602001909291905050506101aa565b005b60008060405180807f426f6e64656445434453414b65657056656e646f72496d706c56320000000000815250601b019050908152602001604051809103902060009054906101000a900460ff16905090565b60606040518060400160405280600281526020017f5632000000000000000000000000000000000000000000000000000000000000815250905090565b6101b261011b565b15610225576040517f08c379a00000000000000000000000000000000000000000000000000000000081526004018080602001828103825260208152602001807f436f6e747261637420697320616c726561647920696e697469616c697a65642e81525060200191505060405180910390fd5b6001600060405180807f426f6e64656445434453414b65657056656e646f72496d706c56320000000000815250601b019050908152602001604051809103902060006101000a81548160ff02191690831515021790555080156102f0576040517f08c379a00000000000000000000000000000000000000000000000000000000081526004018080602001828103825260158152602001807f496e697469616c697a6174696f6e206661696c6564000000000000000000000081525060200191505060405180910390fd5b5056fea265627a7a723158209141dcd336521e7a647546d62c9a890a75bed806b4e3ea4b72e0d5c66ee71f8964736f6c63430005110032",
  "source": "pragma solidity 0.5.17;\n\n/// @title Bonded ECDSA Keep Vendor Implementation V2 Stub\n/// @dev This contract is for testing purposes only.\ncontract BondedECDSAKeepVendorImplV2Stub {\n    mapping(string => bool) internal _initialized;\n\n    function version() public view returns (string memory) {\n        return \"V2\";\n    }\n\n    function initialize(bool shouldFail) public {\n        require(!initialized(), \"Contract is already initialized.\");\n        _initialized[\"BondedECDSAKeepVendorImplV2\"] = true;\n\n        require(!shouldFail, \"Initialization failed\");\n    }\n\n    function initialized() public view returns (bool) {\n        return _initialized[\"BondedECDSAKeepVendorImplV2\"];\n    }\n}\n",
  "sourcePath": "/home/kowal/Projects/sovryn/keep-ecdsa/solidity/contracts/test/BondedECDSAKeepVendorImplV2Stub.sol",
  "compiler": {
    "name": "solc",
    "version": "0.5.17+commit.d19bba13.Emscripten.clang"
  },
  "schemaVersion": "3.0.22",
  "updatedAt": "2021-01-29T17:35:44.328Z",
  "devdoc": {
    "details": "This contract is for testing purposes only.",
    "methods": {},
    "title": "Bonded ECDSA Keep Vendor Implementation V2 Stub"
  },
  "userdoc": {
    "methods": {}
  }
}