{
  "contractName": "BondedECDSAKeepVendorImplV1",
  "abi": [
    {
      "inputs": [],
      "payable": false,
      "stateMutability": "nonpayable",
      "type": "constructor"
    },
    {
      "anonymous": false,
      "inputs": [
        {
          "indexed": false,
          "internalType": "address",
          "name": "factory",
          "type": "address"
        }
      ],
      "name": "FactoryUpgradeCompleted",
      "type": "event"
    },
    {
      "anonymous": false,
      "inputs": [
        {
          "indexed": false,
          "internalType": "address",
          "name": "factory",
          "type": "address"
        },
        {
          "indexed": false,
          "internalType": "uint256",
          "name": "timestamp",
          "type": "uint256"
        }
      ],
      "name": "FactoryUpgradeStarted",
      "type": "event"
    },
    {
      "constant": true,
      "inputs": [],
      "name": "factoryUpgradeTimeDelay",
      "outputs": [
        {
          "internalType": "uint256",
          "name": "",
          "type": "uint256"
        }
      ],
      "payable": false,
      "stateMutability": "view",
      "type": "function"
    },
    {
      "constant": false,
      "inputs": [
        {
          "internalType": "address",
          "name": "registryAddress",
          "type": "address"
        },
        {
          "internalType": "address payable",
          "name": "factory",
          "type": "address"
        }
      ],
      "name": "initialize",
      "outputs": [],
      "payable": false,
      "stateMutability": "nonpayable",
      "type": "function"
    },
    {
      "constant": true,
      "inputs": [],
      "name": "initialized",
      "outputs": [
        {
          "internalType": "bool",
          "name": "",
          "type": "bool"
        }
      ],
      "payable": false,
      "stateMutability": "view",
      "type": "function"
    },
    {
      "constant": false,
      "inputs": [
        {
          "internalType": "address payable",
          "name": "_factory",
          "type": "address"
        }
      ],
      "name": "upgradeFactory",
      "outputs": [],
      "payable": false,
      "stateMutability": "nonpayable",
      "type": "function"
    },
    {
      "constant": false,
      "inputs": [],
      "name": "completeFactoryUpgrade",
      "outputs": [],
      "payable": false,
      "stateMutability": "nonpayable",
      "type": "function"
    },
    {
      "constant": true,
      "inputs": [],
      "name": "selectFactory",
      "outputs": [
        {
          "internalType": "address payable",
          "name": "",
          "type": "address"
        }
      ],
      "payable": false,
      "stateMutability": "view",
      "type": "function"
    }
  ],
  "bytecode": "0x608060405234801561001057600080fd5b506001600060405180807f426f6e64656445434453414b65657056656e646f72496d706c56310000000000815250601b019050908152602001604051809103902060006101000a81548160ff021916908315150217905550610f38806100776000396000f3fe608060405234801561001057600080fd5b50600436106100625760003560e01c8063158ef93e146100675780633fd1919914610089578063485cc955146100d357806353d52a5f1461013757806369e367b51461017b578063b58006e314610185575b600080fd5b61006f6101a3565b604051808215151515815260200191505060405180910390f35b6100916101f5565b604051808273ffffffffffffffffffffffffffffffffffffffff1673ffffffffffffffffffffffffffffffffffffffff16815260200191505060405180910390f35b610135600480360360408110156100e957600080fd5b81019080803573ffffffffffffffffffffffffffffffffffffffff169060200190929190803573ffffffffffffffffffffffffffffffffffffffff1690602001909291905050506102e3565b005b6101796004803603602081101561014d57600080fd5b81019080803573ffffffffffffffffffffffffffffffffffffffff16906020019092919050505061058b565b005b610183610bbf565b005b61018d610df9565b6040518082815260200191505060405180910390f35b60008060405180807f426f6e64656445434453414b65657056656e646f72496d706c56310000000000815250601b019050908152602001604051809103902060009054906101000a900460ff16905090565b60008073ffffffffffffffffffffffffffffffffffffffff16600360009054906101000a900473ffffffffffffffffffffffffffffffffffffffff1673ffffffffffffffffffffffffffffffffffffffff1614156102bb576040517f08c379a000000000000000000000000000000000000000000000000000000000815260040180806020018281038252601e8152602001807f4b65657020666163746f7279206973206e6f742072656769737465726564000081525060200191505060405180910390fd5b600360009054906101000a900473ffffffffffffffffffffffffffffffffffffffff16905090565b600073ffffffffffffffffffffffffffffffffffffffff168273ffffffffffffffffffffffffffffffffffffffff161415610386576040517f08c379a000000000000000000000000000000000000000000000000000000000815260040180806020018281038252601a8152602001807f496e636f7272656374207265676973747279206164647265737300000000000081525060200191505060405180910390fd5b600073ffffffffffffffffffffffffffffffffffffffff168173ffffffffffffffffffffffffffffffffffffffff161415610429576040517f08c379a00000000000000000000000000000000000000000000000000000000081526004018080602001828103825260198152602001807f496e636f727265637420666163746f727920616464726573730000000000000081525060200191505060405180910390fd5b6104316101a3565b156104a4576040517f08c379a00000000000000000000000000000000000000000000000000000000081526004018080602001828103825260208152602001807f436f6e747261637420697320616c726561647920696e697469616c697a65642e81525060200191505060405180910390fd5b6001600060405180807f426f6e64656445434453414b65657056656e646f72496d706c56310000000000815250601b019050908152602001604051809103902060006101000a81548160ff02191690831515021790555081600160006101000a81548173ffffffffffffffffffffffffffffffffffffffff021916908373ffffffffffffffffffffffffffffffffffffffff16021790555080600360006101000a81548173ffffffffffffffffffffffffffffffffffffffff021916908373ffffffffffffffffffffffffffffffffffffffff160217905550620151806002819055505050565b600073ffffffffffffffffffffffffffffffffffffffff16600160009054906101000a900473ffffffffffffffffffffffffffffffffffffffff1673ffffffffffffffffffffffffffffffffffffffff161415610633576040517f08c379a0000000000000000000000000000000000000000000000000000000008152600401808060200182810382526026815260200180610ebd6026913960400191505060405180910390fd5b6000600160009054906101000a900473ffffffffffffffffffffffffffffffffffffffff1673ffffffffffffffffffffffffffffffffffffffff166363dc5fcf306040518263ffffffff1660e01b8152600401808273ffffffffffffffffffffffffffffffffffffffff1673ffffffffffffffffffffffffffffffffffffffff16815260200191505060206040518083038186803b1580156106d457600080fd5b505afa1580156106e8573d6000803e3d6000fd5b505050506040513d60208110156106fe57600080fd5b810190808051906020019092919050505090503373ffffffffffffffffffffffffffffffffffffffff168173ffffffffffffffffffffffffffffffffffffffff1614610795576040517f08c379a0000000000000000000000000000000000000000000000000000000008152600401808060200182810382526028815260200180610e956028913960400191505060405180910390fd5b600073ffffffffffffffffffffffffffffffffffffffff168273ffffffffffffffffffffffffffffffffffffffff161415610838576040517f08c379a00000000000000000000000000000000000000000000000000000000081526004018080602001828103825260198152602001807f496e636f727265637420666163746f727920616464726573730000000000000081525060200191505060405180910390fd5b610840610dff565b156108f1578173ffffffffffffffffffffffffffffffffffffffff16600460009054906101000a900473ffffffffffffffffffffffffffffffffffffffff1673ffffffffffffffffffffffffffffffffffffffff1614156108ec576040517f08c379a0000000000000000000000000000000000000000000000000000000008152600401808060200182810382526021815260200180610ee36021913960400191505060405180910390fd5b6109b6565b8173ffffffffffffffffffffffffffffffffffffffff16600360009054906101000a900473ffffffffffffffffffffffffffffffffffffffff1673ffffffffffffffffffffffffffffffffffffffff1614156109b5576040517f08c379a000000000000000000000000000000000000000000000000000000000815260040180806020018281038252601a8152602001807f466163746f727920616c7265616479207265676973746572656400000000000081525060200191505060405180910390fd5b5b600160009054906101000a900473ffffffffffffffffffffffffffffffffffffffff1673ffffffffffffffffffffffffffffffffffffffff166384d57689836040518263ffffffff1660e01b8152600401808273ffffffffffffffffffffffffffffffffffffffff1673ffffffffffffffffffffffffffffffffffffffff16815260200191505060206040518083038186803b158015610a5557600080fd5b505afa158015610a69573d6000803e3d6000fd5b505050506040513d6020811015610a7f57600080fd5b8101908080519060200190929190505050610b02576040517f08c379a00000000000000000000000000000000000000000000000000000000081526004018080602001828103825260208152602001807f466163746f727920636f6e7472616374206973206e6f7420617070726f76656481525060200191505060405180910390fd5b81600460006101000a81548173ffffffffffffffffffffffffffffffffffffffff021916908373ffffffffffffffffffffffffffffffffffffffff1602179055506000429050806005819055507f7ba46fad67d21f155bf83249e984870391cc0ae4a7c24b904d4cf3026d7949968382604051808373ffffffffffffffffffffffffffffffffffffffff1673ffffffffffffffffffffffffffffffffffffffff1681526020018281526020019250505060405180910390a1505050565b610bc7610dff565b610c39576040517f08c379a00000000000000000000000000000000000000000000000000000000081526004018080602001828103825260158152602001807f55706772616465206e6f7420696e69746961746564000000000000000000000081525060200191505060405180910390fd5b600254610c5160055442610e0b90919063ffffffff16565b1015610cc5576040517f08c379a00000000000000000000000000000000000000000000000000000000081526004018080602001828103825260118152602001807f54696d6572206e6f7420656c617073656400000000000000000000000000000081525060200191505060405180910390fd5b600460009054906101000a900473ffffffffffffffffffffffffffffffffffffffff16600360006101000a81548173ffffffffffffffffffffffffffffffffffffffff021916908373ffffffffffffffffffffffffffffffffffffffff1602179055506000600460006101000a81548173ffffffffffffffffffffffffffffffffffffffff021916908373ffffffffffffffffffffffffffffffffffffffff16021790555060006005819055507ffdc9bc4a18331f66f4014c6040c30e2246393f7c34d95c1dfb6004d28dd659a5600360009054906101000a900473ffffffffffffffffffffffffffffffffffffffff16604051808273ffffffffffffffffffffffffffffffffffffffff1673ffffffffffffffffffffffffffffffffffffffff16815260200191505060405180910390a1565b60025481565b60008060055411905090565b600082821115610e83576040517f08c379a000000000000000000000000000000000000000000000000000000000815260040180806020018281038252601e8152602001807f536166654d6174683a207375627472616374696f6e206f766572666c6f77000081525060200191505060405180910390fd5b60008284039050809150509291505056fe43616c6c6572206973206e6f74206f70657261746f7220636f6e74726163742075706772616465724b65657052656769737472792061646472657373206973206e6f742072656769737465726564466163746f7279207570677261646520616c726561647920696e69746961746564a265627a7a72315820a0f2768fdef4911cdcda89e42ec371ead93e21b7fa192ba9f4a854c9616728dc64736f6c63430005110032",
  "source": "/**\n▓▓▌ ▓▓ ▐▓▓ ▓▓▓▓▓▓▓▓▓▓▌▐▓▓▓▓▓▓▓▓▓▓▓▓▓▓▓▓▓▓ ▓▓▓▓▓▓▓▓▓▓▓▓▓▓▓▓▓▓ ▓▓▓▓▓▓▓▓▓▓▓▓▓▓▓▓▓▄\n▓▓▓▓▓▓▓▓▓▓ ▓▓▓▓▓▓▓▓▓▓▌▐▓▓▓▓▓▓▓▓▓▓▓▓▓▓▓▓▓▓ ▓▓▓▓▓▓▓▓▓▓▓▓▓▓▓▓▓▓ ▓▓▓▓▓▓▓▓▓▓▓▓▓▓▓▓▓▓▓\n  ▓▓▓▓▓▓    ▓▓▓▓▓▓▓▀    ▐▓▓▓▓▓▓    ▐▓▓▓▓▓   ▓▓▓▓▓▓     ▓▓▓▓▓   ▐▓▓▓▓▓▌   ▐▓▓▓▓▓▓\n  ▓▓▓▓▓▓▄▄▓▓▓▓▓▓▓▀      ▐▓▓▓▓▓▓▄▄▄▄         ▓▓▓▓▓▓▄▄▄▄         ▐▓▓▓▓▓▌   ▐▓▓▓▓▓▓\n  ▓▓▓▓▓▓▓▓▓▓▓▓▓▀        ▐▓▓▓▓▓▓▓▓▓▓         ▓▓▓▓▓▓▓▓▓▓▌        ▐▓▓▓▓▓▓▓▓▓▓▓▓▓▓▓▓\n  ▓▓▓▓▓▓▀▀▓▓▓▓▓▓▄       ▐▓▓▓▓▓▓▀▀▀▀         ▓▓▓▓▓▓▀▀▀▀         ▐▓▓▓▓▓▓▓▓▓▓▓▓▓▓▀\n  ▓▓▓▓▓▓   ▀▓▓▓▓▓▓▄     ▐▓▓▓▓▓▓     ▓▓▓▓▓   ▓▓▓▓▓▓     ▓▓▓▓▓   ▐▓▓▓▓▓▌\n▓▓▓▓▓▓▓▓▓▓ █▓▓▓▓▓▓▓▓▓ ▐▓▓▓▓▓▓▓▓▓▓▓▓▓▓▓▓▓▓ ▓▓▓▓▓▓▓▓▓▓▓▓▓▓▓▓▓▓  ▓▓▓▓▓▓▓▓▓▓\n▓▓▓▓▓▓▓▓▓▓ ▓▓▓▓▓▓▓▓▓▓ ▐▓▓▓▓▓▓▓▓▓▓▓▓▓▓▓▓▓▓ ▓▓▓▓▓▓▓▓▓▓▓▓▓▓▓▓▓▓  ▓▓▓▓▓▓▓▓▓▓\n\n                           Trust math, not hardware.\n*/\n\npragma solidity 0.5.17;\n\nimport \"./api/IBondedECDSAKeepVendor.sol\";\n\nimport \"@keep-network/keep-core/contracts/KeepRegistry.sol\";\n\nimport \"openzeppelin-solidity/contracts/math/SafeMath.sol\";\n\n/// @title Bonded ECDSA Keep Vendor\n/// @notice The contract is used to obtain a new Bonded ECDSA keep factory.\ncontract BondedECDSAKeepVendorImplV1 is IBondedECDSAKeepVendor {\n    using SafeMath for uint256;\n\n    // Mapping to store new implementation versions that inherit from\n    // this contract.\n    mapping(string => bool) internal _initialized;\n\n    // KeepRegistry contract with a list of approved factories (operator contracts)\n    // and upgraders.\n    KeepRegistry internal registry;\n\n    // Upgrade time delay defines a waiting period for factory address upgrade.\n    // When new factory upgrade is initialized it has to wait this period\n    // before the change can take effect on the currently registered facotry\n    // address.\n    uint256 public factoryUpgradeTimeDelay;\n\n    // Address of ECDSA keep factory.\n    address payable keepFactory;\n\n    // Address of a new ECDSA keep factory in update process.\n    address payable newKeepFactory;\n\n    // Timestamp of the moment when factory upgrade process has started.\n    uint256 factoryUpgradeInitiatedTimestamp;\n\n    event FactoryUpgradeStarted(address factory, uint256 timestamp);\n    event FactoryUpgradeCompleted(address factory);\n\n    constructor() public {\n        // Mark as already initialized to block the direct usage of the contract\n        // after deployment. The contract is intended to be called via proxy, so\n        // setting this value will not affect the clones usage.\n        _initialized[\"BondedECDSAKeepVendorImplV1\"] = true;\n    }\n\n    /// @notice Initializes Keep Vendor contract implementation.\n    /// @param registryAddress Keep registry contract linked to this contract.\n    /// @param factory Keep factory contract registered initially in the vendor\n    /// contract.\n    function initialize(address registryAddress, address payable factory)\n        public\n    {\n        require(registryAddress != address(0), \"Incorrect registry address\");\n        require(factory != address(0), \"Incorrect factory address\");\n\n        require(!initialized(), \"Contract is already initialized.\");\n        _initialized[\"BondedECDSAKeepVendorImplV1\"] = true;\n\n        registry = KeepRegistry(registryAddress);\n        keepFactory = factory;\n\n        factoryUpgradeTimeDelay = 1 days;\n    }\n\n    /// @notice Checks if this contract is initialized.\n    function initialized() public view returns (bool) {\n        return _initialized[\"BondedECDSAKeepVendorImplV1\"];\n    }\n\n    /// @notice Starts new ECDSA keep factory upgrade.\n    /// @dev Registers a new ECDSA keep factory. Address cannot be zero\n    /// and cannot be the same that is currently registered. It is a first part\n    /// of the two-step factory upgrade process. The function emits an event\n    /// containing the new factory address and current block timestamp.\n    /// @param _factory ECDSA keep factory address.\n    function upgradeFactory(address payable _factory)\n        public\n        onlyOperatorContractUpgrader\n    {\n        require(_factory != address(0), \"Incorrect factory address\");\n\n        if (isUpgradeInitiated()) {\n            require(\n                newKeepFactory != _factory,\n                \"Factory upgrade already initiated\"\n            );\n        } else {\n            require(keepFactory != _factory, \"Factory already registered\");\n        }\n\n        require(\n            registry.isApprovedOperatorContract(_factory),\n            \"Factory contract is not approved\"\n        );\n\n        newKeepFactory = _factory;\n\n        /* solium-disable-next-line security/no-block-members */\n        uint256 timestamp = block.timestamp;\n\n        factoryUpgradeInitiatedTimestamp = timestamp;\n\n        emit FactoryUpgradeStarted(_factory, timestamp);\n    }\n\n    /// @notice Finalizes ECDSA keep factory upgrade.\n    /// @dev It is the second part of the two-step factory upgrade process.\n    /// The function can be called after factory upgrade time delay period\n    /// has passed since the new factory upgrade. It emits an event\n    /// containing the new factory address.\n    function completeFactoryUpgrade() public {\n        require(isUpgradeInitiated(), \"Upgrade not initiated\");\n\n        require(\n            /* solium-disable-next-line security/no-block-members */\n            block.timestamp.sub(factoryUpgradeInitiatedTimestamp) >=\n                factoryUpgradeTimeDelay,\n            \"Timer not elapsed\"\n        );\n\n        keepFactory = newKeepFactory;\n        newKeepFactory = address(0);\n        factoryUpgradeInitiatedTimestamp = 0;\n\n        emit FactoryUpgradeCompleted(keepFactory);\n    }\n\n    /// @notice Selects the latest ECDSA keep factory.\n    /// @return ECDSA keep factory address.\n    function selectFactory() public view returns (address payable) {\n        require(keepFactory != address(0), \"Keep factory is not registered\");\n        return keepFactory;\n    }\n\n    function isUpgradeInitiated() internal view returns (bool) {\n        return factoryUpgradeInitiatedTimestamp > 0;\n    }\n\n    /// @dev Throws if called by any account other than the operator contract\n    /// upgrader authorized for this service contract.\n    modifier onlyOperatorContractUpgrader() {\n        require(\n            address(registry) != address(0),\n            \"KeepRegistry address is not registered\"\n        );\n\n        address operatorContractUpgrader = registry.operatorContractUpgraderFor(\n            address(this)\n        );\n        require(\n            operatorContractUpgrader == msg.sender,\n            \"Caller is not operator contract upgrader\"\n        );\n        _;\n    }\n}\n",
  "sourcePath": "/home/kowal/Projects/sovryn/keep-ecdsa/solidity/contracts/BondedECDSAKeepVendorImplV1.sol",
  "compiler": {
    "name": "solc",
    "version": "0.5.17+commit.d19bba13.Emscripten.clang"
  },
  "schemaVersion": "3.0.22",
  "updatedAt": "2021-02-01T13:36:19.396Z",
  "networkType": "ethereum",
  "devdoc": {
    "methods": {
      "completeFactoryUpgrade()": {
        "details": "It is the second part of the two-step factory upgrade process. The function can be called after factory upgrade time delay period has passed since the new factory upgrade. It emits an event containing the new factory address."
      },
      "initialize(address,address)": {
        "params": {
          "factory": "Keep factory contract registered initially in the vendor contract.",
          "registryAddress": "Keep registry contract linked to this contract."
        }
      },
      "selectFactory()": {
        "return": "ECDSA keep factory address."
      },
      "upgradeFactory(address)": {
        "details": "Registers a new ECDSA keep factory. Address cannot be zero and cannot be the same that is currently registered. It is a first part of the two-step factory upgrade process. The function emits an event containing the new factory address and current block timestamp.",
        "params": {
          "_factory": "ECDSA keep factory address."
        }
      }
    },
    "title": "Bonded ECDSA Keep Vendor"
  },
  "userdoc": {
    "methods": {
      "completeFactoryUpgrade()": {
        "notice": "Finalizes ECDSA keep factory upgrade."
      },
      "initialize(address,address)": {
        "notice": "Initializes Keep Vendor contract implementation."
      },
      "initialized()": {
        "notice": "Checks if this contract is initialized."
      },
      "selectFactory()": {
        "notice": "Selects the latest ECDSA keep factory."
      },
      "upgradeFactory(address)": {
        "notice": "Starts new ECDSA keep factory upgrade."
      }
    },
    "notice": "The contract is used to obtain a new Bonded ECDSA keep factory."
  }
}