{
  "contractName": "BondedECDSAKeep",
  "abi": [
    {
      "anonymous": false,
      "inputs": [
        {
          "indexed": true,
          "internalType": "address",
          "name": "submittingMember",
          "type": "address"
        },
        {
          "indexed": false,
          "internalType": "bytes",
          "name": "conflictingPublicKey",
          "type": "bytes"
        }
      ],
      "name": "ConflictingPublicKeySubmitted",
      "type": "event"
    },
    {
      "anonymous": false,
      "inputs": [
        {
          "indexed": true,
          "internalType": "address",
          "name": "token",
          "type": "address"
        },
        {
          "indexed": false,
          "internalType": "uint256",
          "name": "amount",
          "type": "uint256"
        }
      ],
      "name": "ERC20RewardDistributed",
      "type": "event"
    },
    {
      "anonymous": false,
      "inputs": [
        {
          "indexed": false,
          "internalType": "uint256",
          "name": "amount",
          "type": "uint256"
        }
      ],
      "name": "ETHRewardDistributed",
      "type": "event"
    },
    {
      "anonymous": false,
      "inputs": [],
      "name": "KeepClosed",
      "type": "event"
    },
    {
      "anonymous": false,
      "inputs": [],
      "name": "KeepTerminated",
      "type": "event"
    },
    {
      "anonymous": false,
      "inputs": [
        {
          "indexed": false,
          "internalType": "bytes",
          "name": "publicKey",
          "type": "bytes"
        }
      ],
      "name": "PublicKeyPublished",
      "type": "event"
    },
    {
      "anonymous": false,
      "inputs": [
        {
          "indexed": true,
          "internalType": "bytes32",
          "name": "digest",
          "type": "bytes32"
        }
      ],
      "name": "SignatureRequested",
      "type": "event"
    },
    {
      "anonymous": false,
      "inputs": [
        {
          "indexed": true,
          "internalType": "bytes32",
          "name": "digest",
          "type": "bytes32"
        },
        {
          "indexed": false,
          "internalType": "bytes32",
          "name": "r",
          "type": "bytes32"
        },
        {
          "indexed": false,
          "internalType": "bytes32",
          "name": "s",
          "type": "bytes32"
        },
        {
          "indexed": false,
          "internalType": "uint8",
          "name": "recoveryID",
          "type": "uint8"
        }
      ],
      "name": "SignatureSubmitted",
      "type": "event"
    },
    {
      "anonymous": false,
      "inputs": [],
      "name": "SlashingFailed",
      "type": "event"
    },
    {
      "constant": true,
      "inputs": [],
      "name": "bondTokenAddress",
      "outputs": [
        {
          "internalType": "address",
          "name": "",
          "type": "address"
        }
      ],
      "payable": false,
      "stateMutability": "view",
      "type": "function"
    },
    {
      "constant": true,
      "inputs": [],
      "name": "checkBondAmount",
      "outputs": [
        {
          "internalType": "uint256",
          "name": "",
          "type": "uint256"
        }
      ],
      "payable": false,
      "stateMutability": "view",
      "type": "function"
    },
    {
      "constant": true,
      "inputs": [
        {
          "internalType": "uint8",
          "name": "_v",
          "type": "uint8"
        },
        {
          "internalType": "bytes32",
          "name": "_r",
          "type": "bytes32"
        },
        {
          "internalType": "bytes32",
          "name": "_s",
          "type": "bytes32"
        },
        {
          "internalType": "bytes32",
          "name": "_signedDigest",
          "type": "bytes32"
        },
        {
          "internalType": "bytes",
          "name": "_preimage",
          "type": "bytes"
        }
      ],
      "name": "checkSignatureFraud",
      "outputs": [
        {
          "internalType": "bool",
          "name": "_isFraud",
          "type": "bool"
        }
      ],
      "payable": false,
      "stateMutability": "view",
      "type": "function"
    },
    {
      "constant": true,
      "inputs": [],
      "name": "digest",
      "outputs": [
        {
          "internalType": "bytes32",
          "name": "",
          "type": "bytes32"
        }
      ],
      "payable": false,
      "stateMutability": "view",
      "type": "function"
    },
    {
      "constant": true,
      "inputs": [
        {
          "internalType": "bytes32",
          "name": "",
          "type": "bytes32"
        }
      ],
      "name": "digests",
      "outputs": [
        {
          "internalType": "uint256",
          "name": "",
          "type": "uint256"
        }
      ],
      "payable": false,
      "stateMutability": "view",
      "type": "function"
    },
    {
      "constant": false,
      "inputs": [
        {
          "internalType": "address",
          "name": "_tokenAddress",
          "type": "address"
        },
        {
          "internalType": "uint256",
          "name": "_value",
          "type": "uint256"
        }
      ],
      "name": "distributeERC20Reward",
      "outputs": [],
      "payable": false,
      "stateMutability": "nonpayable",
      "type": "function"
    },
    {
      "constant": false,
      "inputs": [],
      "name": "distributeETHReward",
      "outputs": [],
      "payable": true,
      "stateMutability": "payable",
      "type": "function"
    },
    {
      "constant": true,
      "inputs": [
        {
          "internalType": "address",
          "name": "_member",
          "type": "address"
        }
      ],
      "name": "getMemberETHBalance",
      "outputs": [
        {
          "internalType": "uint256",
          "name": "",
          "type": "uint256"
        }
      ],
      "payable": false,
      "stateMutability": "view",
      "type": "function"
    },
    {
      "constant": true,
      "inputs": [],
      "name": "getMembers",
      "outputs": [
        {
          "internalType": "address[]",
          "name": "",
          "type": "address[]"
        }
      ],
      "payable": false,
      "stateMutability": "view",
      "type": "function"
    },
    {
      "constant": true,
      "inputs": [],
      "name": "getOpenedTimestamp",
      "outputs": [
        {
          "internalType": "uint256",
          "name": "",
          "type": "uint256"
        }
      ],
      "payable": false,
      "stateMutability": "view",
      "type": "function"
    },
    {
      "constant": true,
      "inputs": [],
      "name": "getOwner",
      "outputs": [
        {
          "internalType": "address",
          "name": "",
          "type": "address"
        }
      ],
      "payable": false,
      "stateMutability": "view",
      "type": "function"
    },
    {
      "constant": true,
      "inputs": [],
      "name": "getPublicKey",
      "outputs": [
        {
          "internalType": "bytes",
          "name": "",
          "type": "bytes"
        }
      ],
      "payable": false,
      "stateMutability": "view",
      "type": "function"
    },
    {
      "constant": true,
      "inputs": [],
      "name": "honestThreshold",
      "outputs": [
        {
          "internalType": "uint256",
          "name": "",
          "type": "uint256"
        }
      ],
      "payable": false,
      "stateMutability": "view",
      "type": "function"
    },
    {
      "constant": true,
      "inputs": [],
      "name": "isActive",
      "outputs": [
        {
          "internalType": "bool",
          "name": "",
          "type": "bool"
        }
      ],
      "payable": false,
      "stateMutability": "view",
      "type": "function"
    },
    {
      "constant": true,
      "inputs": [
        {
          "internalType": "bytes32",
          "name": "_digest",
          "type": "bytes32"
        }
      ],
      "name": "isAwaitingSignature",
      "outputs": [
        {
          "internalType": "bool",
          "name": "",
          "type": "bool"
        }
      ],
      "payable": false,
      "stateMutability": "view",
      "type": "function"
    },
    {
      "constant": true,
      "inputs": [],
      "name": "isClosed",
      "outputs": [
        {
          "internalType": "bool",
          "name": "",
          "type": "bool"
        }
      ],
      "payable": false,
      "stateMutability": "view",
      "type": "function"
    },
    {
      "constant": true,
      "inputs": [],
      "name": "isTerminated",
      "outputs": [
        {
          "internalType": "bool",
          "name": "",
          "type": "bool"
        }
      ],
      "payable": false,
      "stateMutability": "view",
      "type": "function"
    },
    {
      "constant": true,
      "inputs": [],
      "name": "memberStake",
      "outputs": [
        {
          "internalType": "uint256",
          "name": "",
          "type": "uint256"
        }
      ],
      "payable": false,
      "stateMutability": "view",
      "type": "function"
    },
    {
      "constant": true,
      "inputs": [
        {
          "internalType": "uint256",
          "name": "",
          "type": "uint256"
        }
      ],
      "name": "members",
      "outputs": [
        {
          "internalType": "address",
          "name": "",
          "type": "address"
        }
      ],
      "payable": false,
      "stateMutability": "view",
      "type": "function"
    },
    {
      "constant": true,
      "inputs": [],
      "name": "owner",
      "outputs": [
        {
          "internalType": "address",
          "name": "",
          "type": "address"
        }
      ],
      "payable": false,
      "stateMutability": "view",
      "type": "function"
    },
    {
      "constant": true,
      "inputs": [],
      "name": "publicKey",
      "outputs": [
        {
          "internalType": "bytes",
          "name": "",
          "type": "bytes"
        }
      ],
      "payable": false,
      "stateMutability": "view",
      "type": "function"
    },
    {
      "constant": false,
      "inputs": [
        {
          "internalType": "uint256",
          "name": "_amount",
          "type": "uint256"
        }
      ],
      "name": "returnPartialSignerBonds",
      "outputs": [],
      "payable": false,
      "stateMutability": "nonpayable",
      "type": "function"
    },
    {
      "constant": false,
      "inputs": [],
      "name": "seizeSignerBonds",
      "outputs": [],
      "payable": false,
      "stateMutability": "nonpayable",
      "type": "function"
    },
    {
      "constant": false,
      "inputs": [
        {
          "internalType": "bytes32",
          "name": "_digest",
          "type": "bytes32"
        }
      ],
      "name": "sign",
      "outputs": [],
      "payable": false,
      "stateMutability": "nonpayable",
      "type": "function"
    },
    {
      "constant": false,
      "inputs": [
        {
          "internalType": "bytes",
          "name": "_publicKey",
          "type": "bytes"
        }
      ],
      "name": "submitPublicKey",
      "outputs": [],
      "payable": false,
      "stateMutability": "nonpayable",
      "type": "function"
    },
    {
      "constant": false,
      "inputs": [
        {
          "internalType": "bytes32",
          "name": "_r",
          "type": "bytes32"
        },
        {
          "internalType": "bytes32",
          "name": "_s",
          "type": "bytes32"
        },
        {
          "internalType": "uint8",
          "name": "_recoveryID",
          "type": "uint8"
        }
      ],
      "name": "submitSignature",
      "outputs": [],
      "payable": false,
      "stateMutability": "nonpayable",
      "type": "function"
    },
    {
      "constant": false,
      "inputs": [
        {
          "internalType": "uint8",
          "name": "_v",
          "type": "uint8"
        },
        {
          "internalType": "bytes32",
          "name": "_r",
          "type": "bytes32"
        },
        {
          "internalType": "bytes32",
          "name": "_s",
          "type": "bytes32"
        },
        {
          "internalType": "bytes32",
          "name": "_signedDigest",
          "type": "bytes32"
        },
        {
          "internalType": "bytes",
          "name": "_preimage",
          "type": "bytes"
        }
      ],
      "name": "submitSignatureFraud",
      "outputs": [
        {
          "internalType": "bool",
          "name": "_isFraud",
          "type": "bool"
        }
      ],
      "payable": false,
      "stateMutability": "nonpayable",
      "type": "function"
    },
    {
      "constant": false,
      "inputs": [
        {
          "internalType": "address",
          "name": "_member",
          "type": "address"
        }
      ],
      "name": "withdraw",
      "outputs": [],
      "payable": false,
      "stateMutability": "nonpayable",
      "type": "function"
    },
    {
      "constant": false,
      "inputs": [
        {
          "internalType": "address",
          "name": "_owner",
          "type": "address"
        },
        {
          "internalType": "address[]",
          "name": "_members",
          "type": "address[]"
        },
        {
          "internalType": "uint256",
          "name": "_honestThreshold",
          "type": "uint256"
        },
        {
          "internalType": "uint256",
          "name": "_memberStake",
          "type": "uint256"
        },
        {
          "internalType": "uint256",
          "name": "_stakeLockDuration",
          "type": "uint256"
        },
        {
          "internalType": "address",
          "name": "_tokenStaking",
          "type": "address"
        },
        {
          "internalType": "address",
          "name": "_keepBonding",
          "type": "address"
        },
        {
          "internalType": "address payable",
          "name": "_keepFactory",
          "type": "address"
        }
      ],
      "name": "initialize",
      "outputs": [],
      "payable": false,
      "stateMutability": "nonpayable",
      "type": "function"
    },
    {
      "constant": false,
      "inputs": [],
      "name": "closeKeep",
      "outputs": [],
      "payable": false,
      "stateMutability": "nonpayable",
      "type": "function"
    }
  ],
  "bytecode": "0x608060405234801561001057600080fd5b506146ab806100206000396000f3fe6080604052600436106101cd5760003560e01c8063893d20e8116100f7578063c36bc45611610095578063d5cc8b0f11610064578063d5cc8b0f14610b2f578063dc3d6da814610b94578063f15d1a9014610bbf578063f4c2b4c114610c88576101cd565b8063c36bc45614610a47578063c9de240d14610a82578063cb7cf18714610aad578063d1cc997614610b00576101cd565b8063a15c3bbb116100d1578063a15c3bbb14610870578063abd14f3714610887578063bf9c83011461090d578063c2b6b58c14610a18576101cd565b8063893d20e8146107565780638da5cb5b146107ad5780639eab525314610804576101cd565b806352a82b651161016f5780636806db1f1161013e5780636806db1f1461053a578063799cd3331461056557806379a80491146105a05780637df2b35714610704576101cd565b806352a82b65146103a95780635a89f810146103d45780635daf08ca1461042f57806363ffab31146104aa576101cd565b806322f3e2d4116101ab57806322f3e2d41461028f5780632930e170146102be5780632e334452146102c857806351cff8d914610358576101cd565b806301ac4293146101d257806307acd5cb146102215780631133fd2c14610238575b600080fd5b3480156101de57600080fd5b5061020b600480360360208110156101f557600080fd5b8101908080359060200190929190505050610cb3565b6040518082815260200191505060405180910390f35b34801561022d57600080fd5b50610236610ccb565b005b34801561024457600080fd5b5061024d611105565b604051808273ffffffffffffffffffffffffffffffffffffffff1673ffffffffffffffffffffffffffffffffffffffff16815260200191505060405180910390f35b34801561029b57600080fd5b506102a461112b565b604051808215151515815260200191505060405180910390f35b6102c661115a565b005b3480156102d457600080fd5b506102dd611388565b6040518080602001828103825283818151815260200191508051906020019080838360005b8381101561031d578082015181840152602081019050610302565b50505050905090810190601f16801561034a5780820380516001836020036101000a031916815260200191505b509250505060405180910390f35b34801561036457600080fd5b506103a76004803603602081101561037b57600080fd5b81019080803573ffffffffffffffffffffffffffffffffffffffff16906020019092919050505061142a565b005b3480156103b557600080fd5b506103be611612565b6040518082815260200191505060405180910390f35b3480156103e057600080fd5b5061042d600480360360408110156103f757600080fd5b81019080803573ffffffffffffffffffffffffffffffffffffffff16906020019092919080359060200190929190505050611618565b005b34801561043b57600080fd5b506104686004803603602081101561045257600080fd5b8101908080359060200190929190505050611835565b604051808273ffffffffffffffffffffffffffffffffffffffff1673ffffffffffffffffffffffffffffffffffffffff16815260200191505060405180910390f35b3480156104b657600080fd5b506104bf611871565b6040518080602001828103825283818151815260200191508051906020019080838360005b838110156104ff5780820151818401526020810190506104e4565b50505050905090810190601f16801561052c5780820380516001836020036101000a031916815260200191505b509250505060405180910390f35b34801561054657600080fd5b5061054f61190f565b6040518082815260200191505060405180910390f35b34801561057157600080fd5b5061059e6004803603602081101561058857600080fd5b8101908080359060200190929190505050611915565b005b3480156105ac57600080fd5b5061070260048036036101008110156105c457600080fd5b81019080803573ffffffffffffffffffffffffffffffffffffffff1690602001909291908035906020019064010000000081111561060157600080fd5b82018360208201111561061357600080fd5b8035906020019184602083028401116401000000008311171561063557600080fd5b919080806020026020016040519081016040528093929190818152602001838360200280828437600081840152601f19601f820116905080830192505050505050509192919290803590602001909291908035906020019092919080359060200190929190803573ffffffffffffffffffffffffffffffffffffffff169060200190929190803573ffffffffffffffffffffffffffffffffffffffff169060200190929190803573ffffffffffffffffffffffffffffffffffffffff169060200190929190505050611baf565b005b34801561071057600080fd5b506107546004803603606081101561072757600080fd5b810190808035906020019092919080359060200190929190803560ff169060200190929190505050611d56565b005b34801561076257600080fd5b5061076b6121c4565b604051808273ffffffffffffffffffffffffffffffffffffffff1673ffffffffffffffffffffffffffffffffffffffff16815260200191505060405180910390f35b3480156107b957600080fd5b506107c26121ed565b604051808273ffffffffffffffffffffffffffffffffffffffff1673ffffffffffffffffffffffffffffffffffffffff16815260200191505060405180910390f35b34801561081057600080fd5b50610819612212565b6040518080602001828103825283818151815260200191508051906020019060200280838360005b8381101561085c578082015181840152602081019050610841565b505050509050019250505060405180910390f35b34801561087c57600080fd5b506108856122a0565b005b34801561089357600080fd5b5061090b600480360360208110156108aa57600080fd5b81019080803590602001906401000000008111156108c757600080fd5b8201836020820111156108d957600080fd5b803590602001918460018302840111640100000000831117156108fb57600080fd5b90919293919293905050506123ee565b005b34801561091957600080fd5b506109fe600480360360a081101561093057600080fd5b81019080803560ff1690602001909291908035906020019092919080359060200190929190803590602001909291908035906020019064010000000081111561097857600080fd5b82018360208201111561098a57600080fd5b803590602001918460018302840111640100000000831117156109ac57600080fd5b91908080601f016020809104026020016040519081016040528093929190818152602001838380828437600081840152601f19601f82011690508083019250505050505050919291929050505061296e565b604051808215151515815260200191505060405180910390f35b348015610a2457600080fd5b50610a2d612c5e565b604051808215151515815260200191505060405180910390f35b348015610a5357600080fd5b50610a8060048036036020811015610a6a57600080fd5b8101908080359060200190929190505050612c8e565b005b348015610a8e57600080fd5b50610a97612fb9565b6040518082815260200191505060405180910390f35b348015610ab957600080fd5b50610ae660048036036020811015610ad057600080fd5b8101908080359060200190929190505050612fbf565b604051808215151515815260200191505060405180910390f35b348015610b0c57600080fd5b50610b15612fdd565b604051808215151515815260200191505060405180910390f35b348015610b3b57600080fd5b50610b7e60048036036020811015610b5257600080fd5b81019080803573ffffffffffffffffffffffffffffffffffffffff16906020019092919050505061300c565b6040518082815260200191505060405180910390f35b348015610ba057600080fd5b50610ba9613055565b6040518082815260200191505060405180910390f35b348015610bcb57600080fd5b50610c6e600480360360a0811015610be257600080fd5b81019080803560ff16906020019092919080359060200190929190803590602001909291908035906020019092919080359060200190640100000000811115610c2a57600080fd5b820183602082011115610c3c57600080fd5b80359060200191846001830284011164010000000083111715610c5e57600080fd5b90919293919293905050506131eb565b604051808215151515815260200191505060405180910390f35b348015610c9457600080fd5b50610c9d6133bf565b6040518082815260200191505060405180910390f35b60066020528060005260406000206000915090505481565b3373ffffffffffffffffffffffffffffffffffffffff166000809054906101000a900473ffffffffffffffffffffffffffffffffffffffff1673ffffffffffffffffffffffffffffffffffffffff1614610d8d576040517f08c379a000000000000000000000000000000000000000000000000000000000815260040180806020018281038252601c8152602001807f43616c6c6572206973206e6f7420746865206b656570206f776e65720000000081525060200191505060405180910390fd5b610d9561112b565b610e07576040517f08c379a00000000000000000000000000000000000000000000000000000000081526004018080602001828103825260128152602001807f4b656570206973206e6f7420616374697665000000000000000000000000000081525060200191505060405180910390fd5b610e0f6133c9565b60008090505b600280549050811015611102576000600c60019054906101000a900473ffffffffffffffffffffffffffffffffffffffff1673ffffffffffffffffffffffffffffffffffffffff1663446f0f9e60028481548110610e6f57fe5b9060005260206000200160009054906101000a900473ffffffffffffffffffffffffffffffffffffffff16303073ffffffffffffffffffffffffffffffffffffffff166040518463ffffffff1660e01b8152600401808473ffffffffffffffffffffffffffffffffffffffff1673ffffffffffffffffffffffffffffffffffffffff1681526020018373ffffffffffffffffffffffffffffffffffffffff1673ffffffffffffffffffffffffffffffffffffffff168152602001828152602001935050505060206040518083038186803b158015610f4c57600080fd5b505afa158015610f60573d6000803e3d6000fd5b505050506040513d6020811015610f7657600080fd5b81019080805190602001909291905050509050600c60019054906101000a900473ffffffffffffffffffffffffffffffffffffffff1673ffffffffffffffffffffffffffffffffffffffff16630cb0a67760028481548110610fd457fe5b9060005260206000200160009054906101000a900473ffffffffffffffffffffffffffffffffffffffff163073ffffffffffffffffffffffffffffffffffffffff16846000809054906101000a900473ffffffffffffffffffffffffffffffffffffffff166040518563ffffffff1660e01b8152600401808573ffffffffffffffffffffffffffffffffffffffff1673ffffffffffffffffffffffffffffffffffffffff1681526020018481526020018381526020018273ffffffffffffffffffffffffffffffffffffffff1673ffffffffffffffffffffffffffffffffffffffff168152602001945050505050600060405180830381600087803b1580156110dc57600080fd5b505af11580156110f0573d6000803e3d6000fd5b50505050508080600101915050610e15565b50565b600160009054906101000a900473ffffffffffffffffffffffffffffffffffffffff1681565b600080600281111561113957fe5b600c60009054906101000a900460ff16600281111561115457fe5b14905090565b60006002805490509050600061117982346133db90919063ffffffff16565b9050600081116111f1576040517f08c379a000000000000000000000000000000000000000000000000000000000815260040180806020018281038252601f8152602001807f4469766964656e642076616c7565206d757374206265206e6f6e2d7a65726f0081525060200191505060405180910390fd5b60008090505b600183038161ffff16101561129b5781600a600060028461ffff168154811061121c57fe5b9060005260206000200160009054906101000a900473ffffffffffffffffffffffffffffffffffffffff1673ffffffffffffffffffffffffffffffffffffffff1673ffffffffffffffffffffffffffffffffffffffff1681526020019081526020016000206000828254019250508190555080806001019150506111f7565b5060006112b1833461346a90919063ffffffff16565b90506112c681836134f490919063ffffffff16565b600a6000600260018703815481106112da57fe5b9060005260206000200160009054906101000a900473ffffffffffffffffffffffffffffffffffffffff1673ffffffffffffffffffffffffffffffffffffffff1673ffffffffffffffffffffffffffffffffffffffff168152602001908152602001600020600082825401925050819055507fa9e4160b29b5c7db7fa61c512c4b45e7c3451c3331537f065a3417778cea5096346040518082815260200191505060405180910390a1505050565b606060048054600181600116156101000203166002900480601f0160208091040260200160405190810160405280929190818152602001828054600181600116156101000203166002900480156114205780601f106113f557610100808354040283529160200191611420565b820191906000526020600020905b81548152906001019060200180831161140357829003601f168201915b5050505050905090565b6000600a60008373ffffffffffffffffffffffffffffffffffffffff1673ffffffffffffffffffffffffffffffffffffffff168152602001908152602001600020549050600081116114e4576040517f08c379a00000000000000000000000000000000000000000000000000000000081526004018080602001828103825260148152602001807f4e6f2066756e647320746f20776974686472617700000000000000000000000081525060200191505060405180910390fd5b6000600a60008473ffffffffffffffffffffffffffffffffffffffff1673ffffffffffffffffffffffffffffffffffffffff1681526020019081526020016000208190555060006115348361357c565b73ffffffffffffffffffffffffffffffffffffffff168260405180600001905060006040518083038185875af1925050503d8060008114611591576040519150601f19603f3d011682016040523d82523d6000602084013e611596565b606091505b505090508061160d576040517f08c379a000000000000000000000000000000000000000000000000000000000815260040180806020018281038252600f8152602001807f5472616e73666572206661696c6564000000000000000000000000000000000081525060200191505060405180910390fd5b505050565b60055481565b600082905060006002805490509050600061163c82856133db90919063ffffffff16565b9050600081116116b4576040517f08c379a000000000000000000000000000000000000000000000000000000000815260040180806020018281038252601f8152602001807f4469766964656e642076616c7565206d757374206265206e6f6e2d7a65726f0081525060200191505060405180910390fd5b60008090505b600183038161ffff161015611746576117393361171160028461ffff16815481106116e157fe5b9060005260206000200160009054906101000a900473ffffffffffffffffffffffffffffffffffffffff1661357c565b848773ffffffffffffffffffffffffffffffffffffffff1661365f909392919063ffffffff16565b80806001019150506116ba565b50600061175c838661346a90919063ffffffff16565b90506117df336117a56002600187038154811061177557fe5b9060005260206000200160009054906101000a900473ffffffffffffffffffffffffffffffffffffffff1661357c565b6117b884866134f490919063ffffffff16565b8773ffffffffffffffffffffffffffffffffffffffff1661365f909392919063ffffffff16565b8573ffffffffffffffffffffffffffffffffffffffff167fb69f5873bb2e9e1cc495d5c23d2995010c3b5cdd1756e3cada2bc3f2150902cc866040518082815260200191505060405180910390a2505050505050565b6002818154811061184257fe5b906000526020600020016000915054906101000a900473ffffffffffffffffffffffffffffffffffffffff1681565b60048054600181600116156101000203166002900480601f0160208091040260200160405190810160405280929190818152602001828054600181600116156101000203166002900480156119075780601f106118dc57610100808354040283529160200191611907565b820191906000526020600020905b8154815290600101906020018083116118ea57829003601f168201915b505050505081565b60035481565b3373ffffffffffffffffffffffffffffffffffffffff166000809054906101000a900473ffffffffffffffffffffffffffffffffffffffff1673ffffffffffffffffffffffffffffffffffffffff16146119d7576040517f08c379a000000000000000000000000000000000000000000000000000000000815260040180806020018281038252601c8152602001807f43616c6c6572206973206e6f7420746865206b656570206f776e65720000000081525060200191505060405180910390fd5b6119df61112b565b611a51576040517f08c379a00000000000000000000000000000000000000000000000000000000081526004018080602001828103825260128152602001807f4b656570206973206e6f7420616374697665000000000000000000000000000081525060200191505060405180910390fd5b600060048054600181600116156101000203166002900490501415611ade576040517f08c379a000000000000000000000000000000000000000000000000000000000815260040180806020018281038252601a8152602001807f5075626c6963206b657920776173206e6f74207365742079657400000000000081525060200191505060405180910390fd5b611ae6613765565b15611b59576040517f08c379a000000000000000000000000000000000000000000000000000000000815260040180806020018281038252600e8152602001807f5369676e6572206973206275737900000000000000000000000000000000000081525060200191505060405180910390fd5b4260088190555043600660008381526020019081526020016000208190555080600581905550807f34f611bedd4f8c135323bbfc4921e3f6e4feb7eef591036eed6af5462e6cfab060405160405180910390a250565b60008173ffffffffffffffffffffffffffffffffffffffff16631133fd2c6040518163ffffffff1660e01b815260040160206040518083038186803b158015611bf757600080fd5b505afa158015611c0b573d6000803e3d6000fd5b505050506040513d6020811015611c2157600080fd5b81019080805190602001909291905050509050611c418989898685613772565b85600d8190555083600e60006101000a81548173ffffffffffffffffffffffffffffffffffffffff021916908373ffffffffffffffffffffffffffffffffffffffff160217905550600e60009054906101000a900473ffffffffffffffffffffffffffffffffffffffff1673ffffffffffffffffffffffffffffffffffffffff1663a590ae36836040518263ffffffff1660e01b8152600401808273ffffffffffffffffffffffffffffffffffffffff1673ffffffffffffffffffffffffffffffffffffffff168152602001915050600060405180830381600087803b158015611d2a57600080fd5b505af1158015611d3e573d6000803e3d6000fd5b50505050611d4b85613922565b505050505050505050565b611def336002805480602002602001604051908101604052809291908181526020018280548015611ddc57602002820191906000526020600020905b8160009054906101000a900473ffffffffffffffffffffffffffffffffffffffff1673ffffffffffffffffffffffffffffffffffffffff1681526020019060010190808311611d92575b5050505050613a3e90919063ffffffff16565b611e61576040517f08c379a000000000000000000000000000000000000000000000000000000000815260040180806020018281038252601d8152602001807f43616c6c6572206973206e6f7420746865206b656570206d656d62657200000081525060200191505060405180910390fd5b611e69613765565b611edb576040517f08c379a00000000000000000000000000000000000000000000000000000000081526004018080602001828103825260188152602001807f4e6f74206177616974696e672061207369676e6174757265000000000000000081525060200191505060405180910390fd5b60048160ff1610611f37576040517f08c379a00000000000000000000000000000000000000000000000000000000081526004018080602001828103825260278152602001806145b66027913960400191505060405180910390fd5b7f7fffffffffffffffffffffffffffffff5d576e7357a4501ddfe92f46681b20a08260001c1115611fb3576040517f08c379a000000000000000000000000000000000000000000000000000000000815260040180806020018281038252604c815260200180614601604c913960600191505060405180910390fd5b600081601b019050600160055482868660405160008152602001604052604051808581526020018460ff1660ff1681526020018381526020018281526020019450505050506020604051602081039080840390855afa15801561201a573d6000803e3d6000fd5b5050506020604051035173ffffffffffffffffffffffffffffffffffffffff166120dd60048054600181600116156101000203166002900480601f0160208091040260200160405190810160405280929190818152602001828054600181600116156101000203166002900480156120d35780601f106120a8576101008083540402835291602001916120d3565b820191906000526020600020905b8154815290600101906020018083116120b657829003601f168201915b5050505050613ab9565b73ffffffffffffffffffffffffffffffffffffffff1614612166576040517f08c379a00000000000000000000000000000000000000000000000000000000081526004018080602001828103825260118152602001807f496e76616c6964207369676e617475726500000000000000000000000000000081525060200191505060405180910390fd5b60006008819055506005547fb19546e9e0b503d103dd4ae295f4d526e9115adf7c902ead329b1f2404efd35f858585604051808481526020018381526020018260ff1660ff168152602001935050505060405180910390a250505050565b60008060009054906101000a900473ffffffffffffffffffffffffffffffffffffffff16905090565b6000809054906101000a900473ffffffffffffffffffffffffffffffffffffffff1681565b6060600280548060200260200160405190810160405280929190818152602001828054801561229657602002820191906000526020600020905b8160009054906101000a900473ffffffffffffffffffffffffffffffffffffffff1673ffffffffffffffffffffffffffffffffffffffff168152602001906001019080831161224c575b5050505050905090565b3373ffffffffffffffffffffffffffffffffffffffff166000809054906101000a900473ffffffffffffffffffffffffffffffffffffffff1673ffffffffffffffffffffffffffffffffffffffff1614612362576040517f08c379a000000000000000000000000000000000000000000000000000000000815260040180806020018281038252601c8152602001807f43616c6c6572206973206e6f7420746865206b656570206f776e65720000000081525060200191505060405180910390fd5b61236a61112b565b6123dc576040517f08c379a00000000000000000000000000000000000000000000000000000000081526004018080602001828103825260128152602001807f4b656570206973206e6f7420616374697665000000000000000000000000000081525060200191505060405180910390fd5b6123e4613acd565b6123ec613c1b565b565b61248733600280548060200260200160405190810160405280929190818152602001828054801561247457602002820191906000526020600020905b8160009054906101000a900473ffffffffffffffffffffffffffffffffffffffff1673ffffffffffffffffffffffffffffffffffffffff168152602001906001019080831161242a575b5050505050613a3e90919063ffffffff16565b6124f9576040517f08c379a000000000000000000000000000000000000000000000000000000000815260040180806020018281038252601d8152602001807f43616c6c6572206973206e6f7420746865206b656570206d656d62657200000081525060200191505060405180910390fd5b61250233613d2e565b15612558576040517f08c379a00000000000000000000000000000000000000000000000000000000081526004018080602001828103825260258152602001806145916025913960400191505060405180910390fd5b604082829050146125d1576040517f08c379a00000000000000000000000000000000000000000000000000000000081526004018080602001828103825260208152602001807f5075626c6963206b6579206d757374206265203634206279746573206c6f6e6781525060200191505060405180910390fd5b8181600960003373ffffffffffffffffffffffffffffffffffffffff1673ffffffffffffffffffffffffffffffffffffffff168152602001908152602001600020919061261f9291906143e6565b50600080905060008090505b6002805490508110156128e05783836040518083838082843780830192505050925050506040518091039020600960006002848154811061266857fe5b9060005260206000200160009054906101000a900473ffffffffffffffffffffffffffffffffffffffff1673ffffffffffffffffffffffffffffffffffffffff1673ffffffffffffffffffffffffffffffffffffffff16815260200190815260200160002060405180828054600181600116156101000203166002900480156127285780601f10612706576101008083540402835291820191612728565b820191906000526020600020905b815481529060010190602001808311612714575b50509150506040518091039020146128ca5761277a6002828154811061274a57fe5b9060005260206000200160009054906101000a900473ffffffffffffffffffffffffffffffffffffffff16613d2e565b156128c5573373ffffffffffffffffffffffffffffffffffffffff167f99d98e35ad6445ac964c46a75c7f748e8f390ebdca5a924cd8f92d674fa34ff760096000600285815481106127c857fe5b9060005260206000200160009054906101000a900473ffffffffffffffffffffffffffffffffffffffff1673ffffffffffffffffffffffffffffffffffffffff1673ffffffffffffffffffffffffffffffffffffffff16815260200190815260200160002060405180806020018281038252838181546001816001161561010002031660029004815260200191508054600181600116156101000203166002900480156128b65780601f1061288b576101008083540402835291602001916128b6565b820191906000526020600020905b81548152906001019060200180831161289957829003601f168201915b50509250505060405180910390a25b6128d3565b81806001019250505b808060010191505061262b565b5060028054905081146128f3575061296a565b8282600491906129049291906143e6565b507ff62bba8b270bef3e8d0fcebc1f86567664da8ccbd03e8509d6231cc8d63f4b31838360405180806020018281038252848482818152602001925080828437600081840152601f19601f820116905080830192505050935050505060405180910390a1505b5050565b600080600480546001816001161561010002031660029004905014156129fc576040517f08c379a000000000000000000000000000000000000000000000000000000000815260040180806020018281038252601a8152602001807f5075626c6963206b657920776173206e6f74207365742079657400000000000081525060200191505060405180910390fd5b60006002836040518082805190602001908083835b60208310612a345780518252602082019150602081019050602083039250612a11565b6001836020036101000a038019825116818451168082178552505050505050905001915050602060405180830381855afa158015612a76573d6000803e3d6000fd5b5050506040513d6020811015612a8b57600080fd5b81019080805190602001909291905050509050808414612af6576040517f08c379a00000000000000000000000000000000000000000000000000000000081526004018080602001828103825260388152602001806145596038913960400191505060405180910390fd5b600060018589898960405160008152602001604052604051808581526020018460ff1660ff1681526020018381526020018281526020019450505050506020604051602081039080840390855afa158015612b55573d6000803e3d6000fd5b5050506020604051035173ffffffffffffffffffffffffffffffffffffffff16612c1860048054600181600116156101000203166002900480601f016020809104026020016040519081016040528092919081815260200182805460018160011615610100020316600290048015612c0e5780601f10612be357610100808354040283529160200191612c0e565b820191906000526020600020905b815481529060010190602001808311612bf157829003601f168201915b5050505050613ab9565b73ffffffffffffffffffffffffffffffffffffffff16149050808015612c51575060006006600087815260200190815260200160002054145b9250505095945050505050565b600060016002811115612c6d57fe5b600c60009054906101000a900460ff166002811115612c8857fe5b14905090565b600060028054905090506000612cad82846133db90919063ffffffff16565b905060008111612d08576040517f08c379a00000000000000000000000000000000000000000000000000000000081526004018080602001828103825260248152602001806145dd6024913960400191505060405180910390fd5b60008090505b600183038161ffff161015612e5a57600c60019054906101000a900473ffffffffffffffffffffffffffffffffffffffff1673ffffffffffffffffffffffffffffffffffffffff1663c8820f6c60028361ffff1681548110612d6c57fe5b9060005260206000200160009054906101000a900473ffffffffffffffffffffffffffffffffffffffff1684336040518463ffffffff1660e01b8152600401808473ffffffffffffffffffffffffffffffffffffffff1673ffffffffffffffffffffffffffffffffffffffff1681526020018381526020018273ffffffffffffffffffffffffffffffffffffffff1673ffffffffffffffffffffffffffffffffffffffff1681526020019350505050600060405180830381600087803b158015612e3557600080fd5b505af1158015612e49573d6000803e3d6000fd5b505050508080600101915050612d0e565b506000612e70838561346a90919063ffffffff16565b9050600c60019054906101000a900473ffffffffffffffffffffffffffffffffffffffff1673ffffffffffffffffffffffffffffffffffffffff1663c8820f6c60026001860381548110612ec057fe5b9060005260206000200160009054906101000a900473ffffffffffffffffffffffffffffffffffffffff16612efe84866134f490919063ffffffff16565b336040518463ffffffff1660e01b8152600401808473ffffffffffffffffffffffffffffffffffffffff1673ffffffffffffffffffffffffffffffffffffffff1681526020018381526020018273ffffffffffffffffffffffffffffffffffffffff1673ffffffffffffffffffffffffffffffffffffffff1681526020019350505050600060405180830381600087803b158015612f9b57600080fd5b505af1158015612faf573d6000803e3d6000fd5b5050505050505050565b600d5481565b6000612fc9613765565b8015612fd6575081600554145b9050919050565b6000600280811115612feb57fe5b600c60009054906101000a900460ff16600281111561300657fe5b14905090565b6000600a60008373ffffffffffffffffffffffffffffffffffffffff1673ffffffffffffffffffffffffffffffffffffffff168152602001908152602001600020549050919050565b6000806000905060008090505b6002805490508110156131e357600c60019054906101000a900473ffffffffffffffffffffffffffffffffffffffff1673ffffffffffffffffffffffffffffffffffffffff1663446f0f9e600283815481106130ba57fe5b9060005260206000200160009054906101000a900473ffffffffffffffffffffffffffffffffffffffff16303073ffffffffffffffffffffffffffffffffffffffff166040518463ffffffff1660e01b8152600401808473ffffffffffffffffffffffffffffffffffffffff1673ffffffffffffffffffffffffffffffffffffffff1681526020018373ffffffffffffffffffffffffffffffffffffffff1673ffffffffffffffffffffffffffffffffffffffff168152602001828152602001935050505060206040518083038186803b15801561319757600080fd5b505afa1580156131ab573d6000803e3d6000fd5b505050506040513d60208110156131c157600080fd5b8101908080519060200190929190505050820191508080600101915050613062565b508091505090565b60006131f561112b565b613267576040517f08c379a00000000000000000000000000000000000000000000000000000000081526004018080602001828103825260128152602001807f4b656570206973206e6f7420616374697665000000000000000000000000000081525060200191505060405180910390fd5b60006132ba8888888888888080601f016020809104026020016040519081016040528093929190818152602001838380828437600081840152601f19601f8201169050808301925050505050505061296e565b90508061332f576040517f08c379a000000000000000000000000000000000000000000000000000000000815260040180806020018281038252601b8152602001807f5369676e6174757265206973206e6f74206672617564756c656e74000000000081525060200191505060405180910390fd5b600b8484604051808383808284378083019250505092505050908152602001604051809103902060009054906101000a900460ff166133b157613370613d8e565b6001600b8585604051808383808284378083019250505092505050908152602001604051809103902060006101000a81548160ff0219169083151502179055505b809150509695505050505050565b6000600754905090565b6133d1613fa9565b6133d9613c1b565b565b6000808211613452576040517f08c379a000000000000000000000000000000000000000000000000000000000815260040180806020018281038252601a8152602001807f536166654d6174683a206469766973696f6e206279207a65726f00000000000081525060200191505060405180910390fd5b600082848161345d57fe5b0490508091505092915050565b6000808214156134e2576040517f08c379a00000000000000000000000000000000000000000000000000000000081526004018080602001828103825260188152602001807f536166654d6174683a206d6f64756c6f206279207a65726f000000000000000081525060200191505060405180910390fd5b8183816134eb57fe5b06905092915050565b600080828401905083811015613572576040517f08c379a000000000000000000000000000000000000000000000000000000000815260040180806020018281038252601b8152602001807f536166654d6174683a206164646974696f6e206f766572666c6f77000000000081525060200191505060405180910390fd5b8091505092915050565b6000600e60009054906101000a900473ffffffffffffffffffffffffffffffffffffffff1673ffffffffffffffffffffffffffffffffffffffff1663ba7bffd3836040518263ffffffff1660e01b8152600401808273ffffffffffffffffffffffffffffffffffffffff1673ffffffffffffffffffffffffffffffffffffffff16815260200191505060206040518083038186803b15801561361d57600080fd5b505afa158015613631573d6000803e3d6000fd5b505050506040513d602081101561364757600080fd5b81019080805190602001909291905050509050919050565b61375f848573ffffffffffffffffffffffffffffffffffffffff166323b872dd905060e01b858585604051602401808473ffffffffffffffffffffffffffffffffffffffff1673ffffffffffffffffffffffffffffffffffffffff1681526020018373ffffffffffffffffffffffffffffffffffffffff1673ffffffffffffffffffffffffffffffffffffffff1681526020018281526020019350505050604051602081830303815290604052907bffffffffffffffffffffffffffffffffffffffffffffffffffffffff19166020820180517bffffffffffffffffffffffffffffffffffffffffffffffffffffffff8381831617835250505050613fb3565b50505050565b6000806008541415905090565b600c60159054906101000a900460ff16156137f5576040517f08c379a000000000000000000000000000000000000000000000000000000000815260040180806020018281038252601c8152602001807f436f6e747261637420616c726561647920696e697469616c697a65640000000081525060200191505060405180910390fd5b846000806101000a81548173ffffffffffffffffffffffffffffffffffffffff021916908373ffffffffffffffffffffffffffffffffffffffff160217905550836002908051906020019061384b929190614466565b508260038190555080600160006101000a81548173ffffffffffffffffffffffffffffffffffffffff021916908373ffffffffffffffffffffffffffffffffffffffff1602179055506000600c60006101000a81548160ff021916908360028111156138b357fe5b02179055506001600c60156101000a81548160ff0219169083151502179055504260078190555081600c60016101000a81548173ffffffffffffffffffffffffffffffffffffffff021916908373ffffffffffffffffffffffffffffffffffffffff1602179055505050505050565b60008090505b600280549050811015613a3a57600e60009054906101000a900473ffffffffffffffffffffffffffffffffffffffff1673ffffffffffffffffffffffffffffffffffffffff166321e1625e6002838154811061398057fe5b9060005260206000200160009054906101000a900473ffffffffffffffffffffffffffffffffffffffff16846040518363ffffffff1660e01b8152600401808373ffffffffffffffffffffffffffffffffffffffff1673ffffffffffffffffffffffffffffffffffffffff16815260200182815260200192505050600060405180830381600087803b158015613a1557600080fd5b505af1158015613a29573d6000803e3d6000fd5b505050508080600101915050613928565b5050565b600080600090505b8351811015613aad57838181518110613a5b57fe5b602002602001015173ffffffffffffffffffffffffffffffffffffffff168373ffffffffffffffffffffffffffffffffffffffff161415613aa0576001915050613ab3565b8080600101915050613a46565b50600090505b92915050565b6000818051906020012060001c9050919050565b3373ffffffffffffffffffffffffffffffffffffffff166000809054906101000a900473ffffffffffffffffffffffffffffffffffffffff1673ffffffffffffffffffffffffffffffffffffffff1614613b8f576040517f08c379a000000000000000000000000000000000000000000000000000000000815260040180806020018281038252601c8152602001807f43616c6c6572206973206e6f7420746865206b656570206f776e65720000000081525060200191505060405180910390fd5b613b9761112b565b613c09576040517f08c379a00000000000000000000000000000000000000000000000000000000081526004018080602001828103825260128152602001807f4b656570206973206e6f7420616374697665000000000000000000000000000081525060200191505060405180910390fd5b613c116141fe565b613c19614250565b565b60008090505b600280549050811015613d2b57600e60009054906101000a900473ffffffffffffffffffffffffffffffffffffffff1673ffffffffffffffffffffffffffffffffffffffff16634a1ce59960028381548110613c7957fe5b9060005260206000200160009054906101000a900473ffffffffffffffffffffffffffffffffffffffff166040518263ffffffff1660e01b8152600401808273ffffffffffffffffffffffffffffffffffffffff1673ffffffffffffffffffffffffffffffffffffffff168152602001915050600060405180830381600087803b158015613d0657600080fd5b505af1158015613d1a573d6000803e3d6000fd5b505050508080600101915050613c21565b50565b600080600960008473ffffffffffffffffffffffffffffffffffffffff1673ffffffffffffffffffffffffffffffffffffffff16815260200190815260200160002080546001816001161561010002031660029004905014159050919050565b6000600e60009054906101000a900473ffffffffffffffffffffffffffffffffffffffff1673ffffffffffffffffffffffffffffffffffffffff16600d54600260405160240180838152602001806020018281038252838181548152602001915080548015613e5257602002820191906000526020600020905b8160009054906101000a900473ffffffffffffffffffffffffffffffffffffffff1673ffffffffffffffffffffffffffffffffffffffff1681526020019060010190808311613e08575b505093505050506040516020818303038152906040527f8e49aa7a000000000000000000000000000000000000000000000000000000007bffffffffffffffffffffffffffffffffffffffffffffffffffffffff19166020820180517bffffffffffffffffffffffffffffffffffffffffffffffffffffffff83818316178352505050506040518082805190602001908083835b60208310613f095780518252602082019150602081019050602083039250613ee6565b6001836020036101000a0380198251168184511680821785525050505050509050019150506000604051808303816000865af19150503d8060008114613f6b576040519150601f19603f3d011682016040523d82523d6000602084013e613f70565b606091505b5050905080613fa6577f9caa8d499152520a1b3e11b41d51a51e5d1699294ebccdb9de0faa824dba8aae60405160405180910390a15b50565b613fb1614381565b565b613fd28273ffffffffffffffffffffffffffffffffffffffff166143d3565b614044576040517f08c379a000000000000000000000000000000000000000000000000000000000815260040180806020018281038252601f8152602001807f5361666545524332303a2063616c6c20746f206e6f6e2d636f6e74726163740081525060200191505060405180910390fd5b600060608373ffffffffffffffffffffffffffffffffffffffff16836040518082805190602001908083835b602083106140935780518252602082019150602081019050602083039250614070565b6001836020036101000a0380198251168184511680821785525050505050509050019150506000604051808303816000865af19150503d80600081146140f5576040519150601f19603f3d011682016040523d82523d6000602084013e6140fa565b606091505b509150915081614172576040517f08c379a00000000000000000000000000000000000000000000000000000000081526004018080602001828103825260208152602001807f5361666545524332303a206c6f772d6c6576656c2063616c6c206661696c656481525060200191505060405180910390fd5b6000815111156141f85780806020019051602081101561419157600080fd5b81019080805190602001909291905050506141f7576040517f08c379a000000000000000000000000000000000000000000000000000000000815260040180806020018281038252602a81526020018061464d602a913960400191505060405180910390fd5b5b50505050565b6001600c60006101000a81548160ff0219169083600281111561421d57fe5b02179055507f400fd7ee62b209afddce9dfbca204b2124c135597dff0ac92e9844e2b08927f660405160405180910390a1565b60008090505b60028054905081101561437e57600c60019054906101000a900473ffffffffffffffffffffffffffffffffffffffff1673ffffffffffffffffffffffffffffffffffffffff16637ab3cf93600283815481106142ae57fe5b9060005260206000200160009054906101000a900473ffffffffffffffffffffffffffffffffffffffff163073ffffffffffffffffffffffffffffffffffffffff166040518363ffffffff1660e01b8152600401808373ffffffffffffffffffffffffffffffffffffffff1673ffffffffffffffffffffffffffffffffffffffff16815260200182815260200192505050600060405180830381600087803b15801561435957600080fd5b505af115801561436d573d6000803e3d6000fd5b505050508080600101915050614256565b50565b6002600c60006101000a81548160ff021916908360028111156143a057fe5b02179055507f39f530c1293a870138e53618b826819a76f1fe86b5d500ba4622f9e8354a846a60405160405180910390a1565b600080823b905060008111915050919050565b828054600181600116156101000203166002900490600052602060002090601f016020900481019282601f1061442757803560ff1916838001178555614455565b82800160010185558215614455579182015b82811115614454578235825591602001919060010190614439565b5b50905061446291906144f0565b5090565b8280548282559060005260206000209081019282156144df579160200282015b828111156144de5782518260006101000a81548173ffffffffffffffffffffffffffffffffffffffff021916908373ffffffffffffffffffffffffffffffffffffffff16021790555091602001919060010190614486565b5b5090506144ec9190614515565b5090565b61451291905b8082111561450e5760008160009055506001016144f6565b5090565b90565b61455591905b8082111561455157600081816101000a81549073ffffffffffffffffffffffffffffffffffffffff02191690555060010161451b565b5090565b9056fe5369676e65642064696765737420646f6573206e6f74206d61746368207368613235362068617368206f662074686520707265696d6167654d656d62657220616c7265616479207375626d69747465642061207075626c6963206b65795265636f76657279204944206d757374206265206f6e65206f66207b302c20312c20322c20337d5061727469616c207369676e657220626f6e64206d757374206265206e6f6e2d7a65726f4d616c6c6561626c65207369676e6174757265202d20732073686f756c6420626520696e20746865206c6f772068616c66206f6620736563703235366b312063757276652773206f726465725361666545524332303a204552433230206f7065726174696f6e20646964206e6f742073756363656564a265627a7a7231582093d086c35c4fca499396d627646c5cf513542967fa9b3f9aed603900475c2c7064736f6c63430005110032",
  "source": "/**\n     \n   \n                            \n                             \n                           \n                           \n                          \n     \n     \n\n                           Trust math, not hardware.\n*/\n\npragma solidity 0.5.17;\n\nimport \"./AbstractBondedECDSAKeep.sol\";\nimport \"./BondedECDSAKeepFactory.sol\";\n\nimport \"@keep-network/keep-core/contracts/TokenStaking.sol\";\n\n/// @title Bonded ECDSA Keep\n/// @notice ECDSA keep with additional signer bond requirement.\n/// @dev This contract is used as a master contract for clone factory in\n/// BondedECDSAKeepFactory as per EIP-1167.\ncontract BondedECDSAKeep is AbstractBondedECDSAKeep {\n    // Stake that was required from each keep member on keep creation.\n    // The value is used for keep members slashing.\n    uint256 public memberStake;\n\n    // Emitted when KEEP token slashing failed when submitting signature\n    // fraud proof. In practice, this situation should never happen but we want\n    // to be very explicit in this contract and protect the owner that even if\n    // it happens, the transaction submitting fraud proof is not going to fail\n    // and keep owner can seize and liquidate bonds in the same transaction.\n    event SlashingFailed();\n\n    TokenStaking tokenStaking;\n\n    /// @notice Initialization function.\n    /// @dev We use clone factory to create new keep. That is why this contract\n    /// doesn't have a constructor. We provide keep parameters for each instance\n    /// function after cloning instances from the master contract.\n    /// @param _owner Address of the keep owner.\n    /// @param _members Addresses of the keep members.\n    /// @param _honestThreshold Minimum number of honest keep members.\n    /// @param _memberStake Stake required from each keep member.\n    /// @param _stakeLockDuration Stake lock duration in seconds.\n    /// @param _tokenStaking Address of the TokenStaking contract.\n    /// @param _keepBonding Address of the KeepBonding contract.\n    /// @param _keepFactory Address of the BondedECDSAKeepFactory that created\n    /// this keep.\n    function initialize(\n        address _owner,\n        address[] memory _members,\n        uint256 _honestThreshold,\n        uint256 _memberStake,\n        uint256 _stakeLockDuration,\n        address _tokenStaking,\n        address _keepBonding,\n        address payable _keepFactory\n    ) public {\n        address _bondTokenAddress =\n            BondedECDSAKeepFactory(_keepFactory).bondTokenAddress();\n\n        super.initialize(\n            _owner,\n            _members,\n            _honestThreshold,\n            _keepBonding,\n            _bondTokenAddress\n        );\n\n        memberStake = _memberStake;\n        tokenStaking = TokenStaking(_tokenStaking);\n\n        tokenStaking.claimDelegatedAuthority(_keepFactory);\n\n        lockMemberStakes(_stakeLockDuration);\n    }\n\n    /// @notice Closes keep when owner decides that they no longer need it.\n    /// Releases bonds to the keep members. Keep can be closed only when\n    /// there is no signing in progress or requested signing process has timed out.\n    /// @dev The function can be called only by the owner of the keep and only\n    /// if the keep has not been already closed.\n    function closeKeep() public onlyOwner onlyWhenActive {\n        super.closeKeep();\n        unlockMemberStakes();\n    }\n\n    /// @notice Terminates the keep.\n    function terminateKeep() internal {\n        super.terminateKeep();\n        unlockMemberStakes();\n    }\n\n    function slashForSignatureFraud() internal {\n        /* solium-disable-next-line */\n        (bool success, ) =\n            address(tokenStaking).call(\n                abi.encodeWithSignature(\n                    \"slash(uint256,address[])\",\n                    memberStake,\n                    members\n                )\n            );\n\n        // Should never happen but we want to protect the owner and make sure the\n        // fraud submission transaction does not fail so that the owner can\n        // seize and liquidate bonds in the same transaction.\n        if (!success) {\n            emit SlashingFailed();\n        }\n    }\n\n    /// @notice Creates locks on members' token stakes.\n    /// @param _stakeLockDuration Stake lock duration in seconds.\n    function lockMemberStakes(uint256 _stakeLockDuration) internal {\n        for (uint256 i = 0; i < members.length; i++) {\n            tokenStaking.lockStake(members[i], _stakeLockDuration);\n        }\n    }\n\n    /// @notice Releases locks the keep had previously placed on the members'\n    /// token stakes.\n    function unlockMemberStakes() internal {\n        for (uint256 i = 0; i < members.length; i++) {\n            tokenStaking.unlockStake(members[i]);\n        }\n    }\n\n    /// @notice Gets the beneficiary for the specified member address.\n    /// @param _member Member address.\n    /// @return Beneficiary address.\n    function beneficiaryOf(address _member)\n        internal\n        view\n        returns (address payable)\n    {\n        return tokenStaking.beneficiaryOf(_member);\n    }\n}\n",
  "sourcePath": "/home/kowal/Projects/sovryn/keep-ecdsa/solidity/contracts/BondedECDSAKeep.sol",
  "compiler": {
    "name": "solc",
    "version": "0.5.17+commit.d19bba13.Emscripten.clang"
  },
  "schemaVersion": "3.0.22",
  "updatedAt": "2021-02-01T13:33:05.553Z",
  "networkType": "ethereum",
  "devdoc": {
    "details": "This contract is used as a master contract for clone factory in BondedECDSAKeepFactory as per EIP-1167.",
    "methods": {
      "checkBondAmount()": {
        "return": "The amount of the keep's ETH bond in wei."
      },
      "checkSignatureFraud(uint8,bytes32,bytes32,bytes32,bytes)": {
        "details": "The function expects the signed digest to be calculated as a sha256 hash of the preimage: `sha256(_preimage))`. The digest is verified against the preimage to ensure the security of the ECDSA protocol. Verifying just the signature and the digest is not enough and leaves the possibility of the the existential forgery. If digest and preimage verification fails the function reverts. Reverts if a public key has not been set for the keep yet.",
        "params": {
          "_preimage": "Preimage of the hashed message.",
          "_r": "R part of ECDSA signature.",
          "_s": "S part of ECDSA signature.",
          "_signedDigest": "Digest for the provided signature. Result of hashing the preimage with sha256.",
          "_v": "Signature's header byte: `27 + recoveryID`."
        },
        "return": "True if fraud, false otherwise."
      },
      "closeKeep()": {
        "details": "The function can be called only by the owner of the keep and only if the keep has not been already closed."
      },
      "distributeERC20Reward(address,uint256)": {
        "details": "This works with any ERC20 token that implements a transferFrom function similar to the interface imported here from OpenZeppelin. This function only has authority over pre-approved token amount. We don't explicitly check for allowance, SafeMath subtraction overflow is enough protection. If the value cannot be divided evenly across the signers, it submits the remainder to the last keep signer.",
        "params": {
          "_tokenAddress": "Address of the ERC20 token to distribute.",
          "_value": "Amount of ERC20 token to distribute."
        }
      },
      "distributeETHReward()": {
        "details": "Only the value passed to this function is distributed. This function does not transfer the value to beneficiaries accounts; instead it holds the value in the contract until withdraw function is called for the specific signer."
      },
      "getMemberETHBalance(address)": {
        "params": {
          "_member": "Keep member address."
        },
        "return": "Current balance in wei."
      },
      "getMembers()": {
        "return": "List of the keep members' addresses."
      },
      "getOpenedTimestamp()": {
        "return": "Timestamp the keep was opened at."
      },
      "getOwner()": {
        "return": "Address of the keep owner."
      },
      "getPublicKey()": {
        "return": "Keep's ECDSA public key."
      },
      "initialize(address,address[],uint256,uint256,uint256,address,address,address)": {
        "details": "We use clone factory to create new keep. That is why this contract doesn't have a constructor. We provide keep parameters for each instance function after cloning instances from the master contract.",
        "params": {
          "_honestThreshold": "Minimum number of honest keep members.",
          "_keepBonding": "Address of the KeepBonding contract.",
          "_keepFactory": "Address of the BondedECDSAKeepFactory that created this keep.",
          "_memberStake": "Stake required from each keep member.",
          "_members": "Addresses of the keep members.",
          "_owner": "Address of the keep owner.",
          "_stakeLockDuration": "Stake lock duration in seconds.",
          "_tokenStaking": "Address of the TokenStaking contract."
        }
      },
      "isActive()": {
        "return": "true if the keep is active, false otherwise."
      },
      "isAwaitingSignature(bytes32)": {
        "details": "Validates if the signing is currently in progress and compares provided digest with the one for which the latest signature was requested.",
        "params": {
          "_digest": "Digest for which to check if signature is being awaited."
        },
        "return": "True if the digest is currently expected to be signed, else false."
      },
      "isClosed()": {
        "return": "true if the keep is closed, false otherwise."
      },
      "isTerminated()": {
        "return": "true if the keep has been terminated, false otherwise."
      },
      "sign(bytes32)": {
        "details": "Only one signing process can be in progress at a time.",
        "params": {
          "_digest": "Digest to be signed."
        }
      },
      "submitPublicKey(bytes)": {
        "details": "Public key is published successfully if all members submit the same value. In case of conflicts with others members submissions it will emit `ConflictingPublicKeySubmitted` event. When all submitted keys match it will store the key as keep's public key and emit a `PublicKeyPublished` event.",
        "params": {
          "_publicKey": "Signer's public key."
        }
      },
      "submitSignature(bytes32,bytes32,uint8)": {
        "details": "Fails if signature has not been requested or a signature has already been submitted. Validates s value to ensure it's in the lower half of the secp256k1 curve's order.",
        "params": {
          "_r": "Calculated signature's R value.",
          "_recoveryID": "Calculated signature's recovery ID (one of {0, 1, 2, 3}).",
          "_s": "Calculated signature's S value."
        }
      },
      "submitSignatureFraud(uint8,bytes32,bytes32,bytes32,bytes)": {
        "details": "The function expects the signed digest to be calculated as a sha256 hash of the preimage: `sha256(_preimage))`. The function reverts if the signature is not fraudulent. The function does not revert if KEEP slashing failed but emits an event instead. In practice, KEEP slashing should never fail.",
        "params": {
          "_preimage": "Preimage of the hashed message.",
          "_r": "R part of ECDSA signature.",
          "_s": "S part of ECDSA signature.",
          "_signedDigest": "Digest for the provided signature. Result of hashing the preimage with sha256.",
          "_v": "Signature's header byte: `27 + recoveryID`."
        },
        "return": "True if fraud, error otherwise."
      },
      "withdraw(address)": {
        "params": {
          "_member": "Keep member address."
        }
      }
    },
    "title": "Bonded ECDSA Keep"
  },
  "userdoc": {
    "methods": {
      "checkBondAmount()": {
        "notice": "Returns the amount of the keep's ETH bond in wei."
      },
      "checkSignatureFraud(uint8,bytes32,bytes32,bytes32,bytes)": {
        "notice": "Checks a fraud proof for a valid signature from this keep that was not first approved via a call to sign."
      },
      "closeKeep()": {
        "notice": "Closes keep when owner decides that they no longer need it. Releases bonds to the keep members. Keep can be closed only when there is no signing in progress or requested signing process has timed out."
      },
      "distributeERC20Reward(address,uint256)": {
        "notice": "Distributes ERC20 reward evenly across all keep signer beneficiaries."
      },
      "distributeETHReward()": {
        "notice": "Distributes ETH reward evenly across all keep signer beneficiaries. If the value cannot be divided evenly across all signers, it sends the remainder to the last keep signer."
      },
      "getMemberETHBalance(address)": {
        "notice": "Gets current amount of ETH hold in the keep for the member."
      },
      "getMembers()": {
        "notice": "Returns members of the keep."
      },
      "getOpenedTimestamp()": {
        "notice": "Gets the timestamp the keep was opened at."
      },
      "getOwner()": {
        "notice": "Gets the owner of the keep."
      },
      "getPublicKey()": {
        "notice": "Returns keep's ECDSA public key."
      },
      "initialize(address,address[],uint256,uint256,uint256,address,address,address)": {
        "notice": "Initialization function."
      },
      "isActive()": {
        "notice": "Returns true if the keep is active."
      },
      "isAwaitingSignature(bytes32)": {
        "notice": "Checks if keep is currently awaiting a signature for the given digest."
      },
      "isClosed()": {
        "notice": "Returns true if the keep is closed and members no longer support this keep."
      },
      "isTerminated()": {
        "notice": "Returns true if the keep has been terminated. Keep is terminated when bonds are seized and members no longer support this keep."
      },
      "returnPartialSignerBonds(uint256)": {
        "notice": "Returns partial signer's ETH bonds to the pool as an unbounded value. This function is called after bonds have been seized and processed by the privileged application after calling seizeSignerBonds function. It is entirely up to the application if a part of signers' bonds is returned. The application may decide for that but may also decide to seize bonds and do not return anything."
      },
      "seizeSignerBonds()": {
        "notice": "Seizes the signers' ETH bonds. After seizing bonds keep is closed so it will no longer respond to signing requests. Bonds can be seized only when there is no signing in progress or requested signing process has timed out. This function seizes all of signers' bonds. The application may decide to return part of bonds later after they are processed using returnPartialSignerBonds function."
      },
      "sign(bytes32)": {
        "notice": "Calculates a signature over provided digest by the keep."
      },
      "submitPublicKey(bytes)": {
        "notice": "Submits a public key to the keep."
      },
      "submitSignature(bytes32,bytes32,uint8)": {
        "notice": "Submits a signature calculated for the given digest."
      },
      "submitSignatureFraud(uint8,bytes32,bytes32,bytes32,bytes)": {
        "notice": "Submits a fraud proof for a valid signature from this keep that was not first approved via a call to sign. If fraud is detected it tries to slash members' KEEP tokens. For each keep member tries slashing amount equal to the member stake set by the factory when keep was created."
      },
      "withdraw(address)": {
        "notice": "Withdraws amount of ether hold in the keep for the member. The value is sent to the beneficiary of the specific member."
      }
    },
    "notice": "ECDSA keep with additional signer bond requirement."
  }
}