{
  "contractName": "BondedECDSAKeepVendor",
  "abi": [
    {
      "inputs": [
        {
          "internalType": "address",
          "name": "_implementationAddress",
          "type": "address"
        },
        {
          "internalType": "bytes",
          "name": "_data",
          "type": "bytes"
        }
      ],
      "payable": false,
      "stateMutability": "nonpayable",
      "type": "constructor"
    },
    {
      "anonymous": false,
      "inputs": [
        {
          "indexed": false,
          "internalType": "address",
          "name": "implementation",
          "type": "address"
        }
      ],
      "name": "UpgradeCompleted",
      "type": "event"
    },
    {
      "anonymous": false,
      "inputs": [
        {
          "indexed": false,
          "internalType": "address",
          "name": "implementation",
          "type": "address"
        },
        {
          "indexed": false,
          "internalType": "uint256",
          "name": "timestamp",
          "type": "uint256"
        }
      ],
      "name": "UpgradeStarted",
      "type": "event"
    },
    {
      "payable": true,
      "stateMutability": "payable",
      "type": "fallback"
    },
    {
      "constant": true,
      "inputs": [
        {
          "internalType": "address",
          "name": "",
          "type": "address"
        }
      ],
      "name": "initializationData",
      "outputs": [
        {
          "internalType": "bytes",
          "name": "",
          "type": "bytes"
        }
      ],
      "payable": false,
      "stateMutability": "view",
      "type": "function"
    },
    {
      "constant": false,
      "inputs": [
        {
          "internalType": "address",
          "name": "_newImplementation",
          "type": "address"
        },
        {
          "internalType": "bytes",
          "name": "_data",
          "type": "bytes"
        }
      ],
      "name": "upgradeTo",
      "outputs": [],
      "payable": false,
      "stateMutability": "nonpayable",
      "type": "function"
    },
    {
      "constant": false,
      "inputs": [],
      "name": "completeUpgrade",
      "outputs": [],
      "payable": false,
      "stateMutability": "nonpayable",
      "type": "function"
    },
    {
      "constant": true,
      "inputs": [],
      "name": "implementation",
      "outputs": [
        {
          "internalType": "address",
          "name": "",
          "type": "address"
        }
      ],
      "payable": false,
      "stateMutability": "view",
      "type": "function"
    },
    {
      "constant": true,
      "inputs": [],
      "name": "upgradeTimeDelay",
      "outputs": [
        {
          "internalType": "uint256",
          "name": "_upgradeTimeDelay",
          "type": "uint256"
        }
      ],
      "payable": false,
      "stateMutability": "view",
      "type": "function"
    },
    {
      "constant": true,
      "inputs": [],
      "name": "newImplementation",
      "outputs": [
        {
          "internalType": "address",
          "name": "_newImplementation",
          "type": "address"
        }
      ],
      "payable": false,
      "stateMutability": "view",
      "type": "function"
    },
    {
      "constant": true,
      "inputs": [],
      "name": "upgradeInitiatedTimestamp",
      "outputs": [
        {
          "internalType": "uint256",
          "name": "_upgradeInitiatedTimestamp",
          "type": "uint256"
        }
      ],
      "payable": false,
      "stateMutability": "view",
      "type": "function"
    },
    {
      "constant": true,
      "inputs": [],
      "name": "admin",
      "outputs": [
        {
          "internalType": "address",
          "name": "adm",
          "type": "address"
        }
      ],
      "payable": false,
      "stateMutability": "view",
      "type": "function"
    },
    {
      "constant": false,
      "inputs": [
        {
          "internalType": "address",
          "name": "_newAdmin",
          "type": "address"
        }
      ],
      "name": "updateAdmin",
      "outputs": [],
      "payable": false,
      "stateMutability": "nonpayable",
      "type": "function"
    }
  ],
  "bytecode": "0x60806040523480156200001157600080fd5b50604051620016ff380380620016ff833981810160405260408110156200003757600080fd5b8101908080519060200190929190805160405193929190846401000000008211156200006257600080fd5b838201915060208201858111156200007957600080fd5b82518660018202830111640100000000821117156200009757600080fd5b8083526020830192505050908051906020019080838360005b83811015620000cd578082015181840152602081019050620000b0565b50505050905090810190601f168015620000fb5780820380516001836020036101000a031916815260200191505b506040525050506200016c7f360894a13ba1a3210667c828492db98dca3e2076cc3735a920a3ca505d382bbc60001b6040518060400160405280601c81526020017f656970313936372e70726f78792e696d706c656d656e746174696f6e00000000815250620003a460201b60201c565b620001d67fb53127684a568b3173ae13b9f8a6016e243e63b6e8ee1178d6a717850b5d610360001b6040518060400160405280601381526020017f656970313936372e70726f78792e61646d696e00000000000000000000000000815250620003a460201b60201c565b620002247f3ca583dafde9ce8bdb41fe825f85984a83b08ecf90ffaccbc4b049e8d870356360001b6040518060600160405280603581526020016200166b60359139620003a460201b60201c565b620002727f4e06287250f0fdd90b4a096f346c06d4e706d470a14747ab56a0156d48a6883f60001b6040518060600160405280603a8152602001620016a0603a9139620003a460201b60201c565b620002c07f0816e8d9eeb2554df0d0b7edc58e2d957e6ce18adf92c138b50dd78a420bebaf60001b6040518060600160405280603e81526020016200162d603e9139620003a460201b60201c565b600073ffffffffffffffffffffffffffffffffffffffff168273ffffffffffffffffffffffffffffffffffffffff16141562000348576040517f08c379a0000000000000000000000000000000000000000000000000000000008152600401808060200182810382526025815260200180620016da6025913960400191505060405180910390fd5b6000815111156200036657620003658282620003c260201b60201c565b5b62000377826200053260201b60201c565b6200038b620151806200056160201b60201c565b6200039c336200059060201b60201c565b5050620005bf565b6001818051906020012060001c0360001b8214620003be57fe5b5050565b600060608373ffffffffffffffffffffffffffffffffffffffff16836040518082805190602001908083835b60208310620004135780518252602082019150602081019050602083039250620003ee565b6001836020036101000a038019825116818451168082178552505050505050905001915050600060405180830381855af49150503d806000811462000475576040519150601f19603f3d011682016040523d82523d6000602084013e6200047a565b606091505b50915091508181906200052b576040517f08c379a00000000000000000000000000000000000000000000000000000000081526004018080602001828103825283818151815260200191508051906020019080838360005b83811015620004ef578082015181840152602081019050620004d2565b50505050905090810190601f1680156200051d5780820380516001836020036101000a031916815260200191505b509250505060405180910390fd5b5050505050565b60007f360894a13ba1a3210667c828492db98dca3e2076cc3735a920a3ca505d382bbc60001b90508181555050565b60007f3ca583dafde9ce8bdb41fe825f85984a83b08ecf90ffaccbc4b049e8d870356360001b90508181555050565b60007fb53127684a568b3173ae13b9f8a6016e243e63b6e8ee1178d6a717850b5d610360001b90508181555050565b61105e80620005cf6000396000f3fe6080604052600436106100865760003560e01c80638b677b03116100595780638b677b03146102b05780639260315b146103075780639513152614610332578063e2f273bd1461035d578063f851a440146103ae57610086565b80630f51d40d146100905780634d0556671461015a5780635c60da1b146101715780636fbc15e9146101c8575b61008e610405565b005b34801561009c57600080fd5b506100df600480360360208110156100b357600080fd5b81019080803573ffffffffffffffffffffffffffffffffffffffff16906020019092919050505061041f565b6040518080602001828103825283818151815260200191508051906020019080838360005b8381101561011f578082015181840152602081019050610104565b50505050905090810190601f16801561014c5780820380516001836020036101000a031916815260200191505b509250505060405180910390f35b34801561016657600080fd5b5061016f6104cf565b005b34801561017d57600080fd5b50610186610800565b604051808273ffffffffffffffffffffffffffffffffffffffff1673ffffffffffffffffffffffffffffffffffffffff16815260200191505060405180910390f35b3480156101d457600080fd5b506102ae600480360360408110156101eb57600080fd5b81019080803573ffffffffffffffffffffffffffffffffffffffff1690602001909291908035906020019064010000000081111561022857600080fd5b82018360208201111561023a57600080fd5b8035906020019184600183028401116401000000008311171561025c57600080fd5b91908080601f016020809104026020016040519081016040528093929190818152602001838380828437600081840152601f19601f82011690508083019250505050505050919291929050505061080f565b005b3480156102bc57600080fd5b506102c5610aa3565b604051808273ffffffffffffffffffffffffffffffffffffffff1673ffffffffffffffffffffffffffffffffffffffff16815260200191505060405180910390f35b34801561031357600080fd5b5061031c610ad4565b6040518082815260200191505060405180910390f35b34801561033e57600080fd5b50610347610b05565b6040518082815260200191505060405180910390f35b34801561036957600080fd5b506103ac6004803603602081101561038057600080fd5b81019080803573ffffffffffffffffffffffffffffffffffffffff169060200190929190505050610b36565b005b3480156103ba57600080fd5b506103c3610bea565b604051808273ffffffffffffffffffffffffffffffffffffffff1673ffffffffffffffffffffffffffffffffffffffff16815260200191505060405180910390f35b61040d610c1b565b61041d610418610c1d565b610c4e565b565b60006020528060005260406000206000915090508054600181600116156101000203166002900480601f0160208091040260200160405190810160405280929190818152602001828054600181600116156101000203166002900480156104c75780601f1061049c576101008083540402835291602001916104c7565b820191906000526020600020905b8154815290600101906020018083116104aa57829003601f168201915b505050505081565b6104d7610bea565b73ffffffffffffffffffffffffffffffffffffffff163373ffffffffffffffffffffffffffffffffffffffff1614610577576040517f08c379a00000000000000000000000000000000000000000000000000000000081526004018080602001828103825260178152602001807f43616c6c6572206973206e6f74207468652061646d696e00000000000000000081525060200191505060405180910390fd5b6000610581610b05565b116105f4576040517f08c379a00000000000000000000000000000000000000000000000000000000081526004018080602001828103825260158152602001807f55706772616465206e6f7420696e69746961746564000000000000000000000081525060200191505060405180910390fd5b6105fc610ad4565b610616610607610b05565b42610c7490919063ffffffff16565b101561068a576040517f08c379a00000000000000000000000000000000000000000000000000000000081526004018080602001828103825260118152602001807f54696d6572206e6f7420656c617073656400000000000000000000000000000081525060200191505060405180910390fd5b6000610694610aa3565b905061069f81610cfd565b60606000808373ffffffffffffffffffffffffffffffffffffffff1673ffffffffffffffffffffffffffffffffffffffff1681526020019081526020016000208054600181600116156101000203166002900480601f0160208091040260200160405190810160405280929190818152602001828054600181600116156101000203166002900480156107735780601f1061074857610100808354040283529160200191610773565b820191906000526020600020905b81548152906001019060200180831161075657829003601f168201915b5050505050905060008151111561078f5761078e8282610d2c565b5b6107996000610e94565b7f2711ef8a6ba82dd467437054855e6edfc6424d0fb0127992b419c20f2d2e114e82604051808273ffffffffffffffffffffffffffffffffffffffff1673ffffffffffffffffffffffffffffffffffffffff16815260200191505060405180910390a15050565b600061080a610c1d565b905090565b610817610bea565b73ffffffffffffffffffffffffffffffffffffffff163373ffffffffffffffffffffffffffffffffffffffff16146108b7576040517f08c379a00000000000000000000000000000000000000000000000000000000081526004018080602001828103825260178152602001807f43616c6c6572206973206e6f74207468652061646d696e00000000000000000081525060200191505060405180910390fd5b60006108c1610c1d565b9050600073ffffffffffffffffffffffffffffffffffffffff168373ffffffffffffffffffffffffffffffffffffffff161415610949576040517f08c379a00000000000000000000000000000000000000000000000000000000081526004018080602001828103825260258152602001806110056025913960400191505060405180910390fd5b8073ffffffffffffffffffffffffffffffffffffffff168373ffffffffffffffffffffffffffffffffffffffff1614156109ce576040517f08c379a000000000000000000000000000000000000000000000000000000000815260040180806020018281038252603e815260200180610fc7603e913960400191505060405180910390fd5b816000808573ffffffffffffffffffffffffffffffffffffffff1673ffffffffffffffffffffffffffffffffffffffff1681526020019081526020016000209080519060200190610a20929190610f21565b50610a2a83610ec3565b610a3342610e94565b7fe3ab72cd1d043aea9afd3c48aae4ee8f59a80381fec6c69ca502e2fb4b4f5c5a8342604051808373ffffffffffffffffffffffffffffffffffffffff1673ffffffffffffffffffffffffffffffffffffffff1681526020018281526020019250505060405180910390a1505050565b6000807f4e06287250f0fdd90b4a096f346c06d4e706d470a14747ab56a0156d48a6883f60001b9050805491505090565b6000807f3ca583dafde9ce8bdb41fe825f85984a83b08ecf90ffaccbc4b049e8d870356360001b9050805491505090565b6000807f0816e8d9eeb2554df0d0b7edc58e2d957e6ce18adf92c138b50dd78a420bebaf60001b9050805491505090565b610b3e610bea565b73ffffffffffffffffffffffffffffffffffffffff163373ffffffffffffffffffffffffffffffffffffffff1614610bde576040517f08c379a00000000000000000000000000000000000000000000000000000000081526004018080602001828103825260178152602001807f43616c6c6572206973206e6f74207468652061646d696e00000000000000000081525060200191505060405180910390fd5b610be781610ef2565b50565b6000807fb53127684a568b3173ae13b9f8a6016e243e63b6e8ee1178d6a717850b5d610360001b9050805491505090565b565b6000807f360894a13ba1a3210667c828492db98dca3e2076cc3735a920a3ca505d382bbc60001b9050805491505090565b3660008037600080366000845af43d6000803e8060008114610c6f573d6000f35b3d6000fd5b600082821115610cec576040517f08c379a000000000000000000000000000000000000000000000000000000000815260040180806020018281038252601e8152602001807f536166654d6174683a207375627472616374696f6e206f766572666c6f77000081525060200191505060405180910390fd5b600082840390508091505092915050565b60007f360894a13ba1a3210667c828492db98dca3e2076cc3735a920a3ca505d382bbc60001b90508181555050565b600060608373ffffffffffffffffffffffffffffffffffffffff16836040518082805190602001908083835b60208310610d7b5780518252602082019150602081019050602083039250610d58565b6001836020036101000a038019825116818451168082178552505050505050905001915050600060405180830381855af49150503d8060008114610ddb576040519150601f19603f3d011682016040523d82523d6000602084013e610de0565b606091505b5091509150818190610e8d576040517f08c379a00000000000000000000000000000000000000000000000000000000081526004018080602001828103825283818151815260200191508051906020019080838360005b83811015610e52578082015181840152602081019050610e37565b50505050905090810190601f168015610e7f5780820380516001836020036101000a031916815260200191505b509250505060405180910390fd5b5050505050565b60007f0816e8d9eeb2554df0d0b7edc58e2d957e6ce18adf92c138b50dd78a420bebaf60001b90508181555050565b60007f4e06287250f0fdd90b4a096f346c06d4e706d470a14747ab56a0156d48a6883f60001b90508181555050565b60007fb53127684a568b3173ae13b9f8a6016e243e63b6e8ee1178d6a717850b5d610360001b90508181555050565b828054600181600116156101000203166002900490600052602060002090601f016020900481019282601f10610f6257805160ff1916838001178555610f90565b82800160010185558215610f90579182015b82811115610f8f578251825591602001919060010190610f74565b5b509050610f9d9190610fa1565b5090565b610fc391905b80821115610fbf576000816000905550600101610fa7565b5090565b9056fe496d706c656d656e746174696f6e2061646472657373206d75737420626520646966666572656e742066726f6d207468652063757272656e74206f6e652e496d706c656d656e746174696f6e20616464726573732063616e2774206265207a65726f2ea265627a7a72315820cb7034e91d820e3317f46b1bb6f269f0d36bb9b75c681de42d7d9bf6f32f94ca64736f6c634300051100326e6574776f726b2e6b6565702e626f6e646564656364736176656e646f722e70726f78792e75706772616465496e6974696174656454696d657374616d706e6574776f726b2e6b6565702e626f6e646564656364736176656e646f722e70726f78792e7570677261646554696d6544656c61796e6574776f726b2e6b6565702e626f6e646564656364736176656e646f722e70726f78792e75706772616465496d706c656d656e746174696f6e496d706c656d656e746174696f6e20616464726573732063616e2774206265207a65726f2e",
  "source": "/**\n▓▓▌ ▓▓ ▐▓▓ ▓▓▓▓▓▓▓▓▓▓▌▐▓▓▓▓▓▓▓▓▓▓▓▓▓▓▓▓▓▓ ▓▓▓▓▓▓▓▓▓▓▓▓▓▓▓▓▓▓ ▓▓▓▓▓▓▓▓▓▓▓▓▓▓▓▓▓▄\n▓▓▓▓▓▓▓▓▓▓ ▓▓▓▓▓▓▓▓▓▓▌▐▓▓▓▓▓▓▓▓▓▓▓▓▓▓▓▓▓▓ ▓▓▓▓▓▓▓▓▓▓▓▓▓▓▓▓▓▓ ▓▓▓▓▓▓▓▓▓▓▓▓▓▓▓▓▓▓▓\n  ▓▓▓▓▓▓    ▓▓▓▓▓▓▓▀    ▐▓▓▓▓▓▓    ▐▓▓▓▓▓   ▓▓▓▓▓▓     ▓▓▓▓▓   ▐▓▓▓▓▓▌   ▐▓▓▓▓▓▓\n  ▓▓▓▓▓▓▄▄▓▓▓▓▓▓▓▀      ▐▓▓▓▓▓▓▄▄▄▄         ▓▓▓▓▓▓▄▄▄▄         ▐▓▓▓▓▓▌   ▐▓▓▓▓▓▓\n  ▓▓▓▓▓▓▓▓▓▓▓▓▓▀        ▐▓▓▓▓▓▓▓▓▓▓         ▓▓▓▓▓▓▓▓▓▓▌        ▐▓▓▓▓▓▓▓▓▓▓▓▓▓▓▓▓\n  ▓▓▓▓▓▓▀▀▓▓▓▓▓▓▄       ▐▓▓▓▓▓▓▀▀▀▀         ▓▓▓▓▓▓▀▀▀▀         ▐▓▓▓▓▓▓▓▓▓▓▓▓▓▓▀\n  ▓▓▓▓▓▓   ▀▓▓▓▓▓▓▄     ▐▓▓▓▓▓▓     ▓▓▓▓▓   ▓▓▓▓▓▓     ▓▓▓▓▓   ▐▓▓▓▓▓▌\n▓▓▓▓▓▓▓▓▓▓ █▓▓▓▓▓▓▓▓▓ ▐▓▓▓▓▓▓▓▓▓▓▓▓▓▓▓▓▓▓ ▓▓▓▓▓▓▓▓▓▓▓▓▓▓▓▓▓▓  ▓▓▓▓▓▓▓▓▓▓\n▓▓▓▓▓▓▓▓▓▓ ▓▓▓▓▓▓▓▓▓▓ ▐▓▓▓▓▓▓▓▓▓▓▓▓▓▓▓▓▓▓ ▓▓▓▓▓▓▓▓▓▓▓▓▓▓▓▓▓▓  ▓▓▓▓▓▓▓▓▓▓\n\n                           Trust math, not hardware.\n*/\n\npragma solidity 0.5.17;\n\nimport \"openzeppelin-solidity/contracts/math/SafeMath.sol\";\nimport \"@openzeppelin/upgrades/contracts/upgradeability/Proxy.sol\";\n\n/// @title Proxy contract for Bonded ECDSA Keep vendor.\ncontract BondedECDSAKeepVendor is Proxy {\n    using SafeMath for uint256;\n\n    /// @dev Storage slot with the admin of the contract.\n    /// This is the keccak-256 hash of \"eip1967.proxy.admin\" subtracted by 1, and is\n    /// validated in the constructor.\n    bytes32\n        internal constant ADMIN_SLOT = 0xb53127684a568b3173ae13b9f8a6016e243e63b6e8ee1178d6a717850b5d6103;\n\n    /// @dev Storage slot with the address of the current implementation.\n    /// This is the keccak-256 hash of \"eip1967.proxy.implementation\" subtracted by 1, and is\n    /// validated in the constructor.\n    bytes32\n        internal constant IMPLEMENTATION_SLOT = 0x360894a13ba1a3210667c828492db98dca3e2076cc3735a920a3ca505d382bbc;\n\n    /// @dev Storage slot with the upgrade time delay. Upgrade time delay defines a\n    /// period for implementation upgrade.\n    /// This is the keccak-256 hash of \"network.keep.bondedecdsavendor.proxy.upgradeTimeDelay\"\n    /// subtracted by 1, and is validated in the constructor.\n    bytes32\n        internal constant UPGRADE_TIME_DELAY_SLOT = 0x3ca583dafde9ce8bdb41fe825f85984a83b08ecf90ffaccbc4b049e8d8703563;\n\n    /// @dev Storage slot with the new implementation address.\n    /// This is the keccak-256 hash of \"network.keep.bondedecdsavendor.proxy.upgradeImplementation\"\n    /// subtracted by 1, and is validated in the constructor.\n    bytes32\n        internal constant UPGRADE_IMPLEMENTATION_SLOT = 0x4e06287250f0fdd90b4a096f346c06d4e706d470a14747ab56a0156d48a6883f;\n\n    /// @dev Storage slot with the implementation address upgrade initiation.\n    /// This is the keccak-256 hash of \"network.keep.bondedecdsavendor.proxy.upgradeInitiatedTimestamp\"\n    /// subtracted by 1, and is validated in the constructor.\n    bytes32\n        internal constant UPGRADE_INIT_TIMESTAMP_SLOT = 0x0816e8d9eeb2554df0d0b7edc58e2d957e6ce18adf92c138b50dd78a420bebaf;\n\n    /// @notice Details of initialization data to be called on the second step\n    /// of upgrade.\n    /// @dev Mapping is stored at position calculated with keccak256 of the entry\n    /// details, hence it should be protected from clashing with implementation's\n    /// fields.\n    mapping(address => bytes) public initializationData;\n\n    event UpgradeStarted(address implementation, uint256 timestamp);\n    event UpgradeCompleted(address implementation);\n\n    constructor(address _implementationAddress, bytes memory _data) public {\n        assertSlot(IMPLEMENTATION_SLOT, \"eip1967.proxy.implementation\");\n        assertSlot(ADMIN_SLOT, \"eip1967.proxy.admin\");\n        assertSlot(\n            UPGRADE_TIME_DELAY_SLOT,\n            \"network.keep.bondedecdsavendor.proxy.upgradeTimeDelay\"\n        );\n        assertSlot(\n            UPGRADE_IMPLEMENTATION_SLOT,\n            \"network.keep.bondedecdsavendor.proxy.upgradeImplementation\"\n        );\n        assertSlot(\n            UPGRADE_INIT_TIMESTAMP_SLOT,\n            \"network.keep.bondedecdsavendor.proxy.upgradeInitiatedTimestamp\"\n        );\n\n        require(\n            _implementationAddress != address(0),\n            \"Implementation address can't be zero.\"\n        );\n\n        if (_data.length > 0) {\n            initializeImplementation(_implementationAddress, _data);\n        }\n\n        setImplementation(_implementationAddress);\n\n        setUpgradeTimeDelay(1 days);\n\n        setAdmin(msg.sender);\n    }\n\n    /// @notice Starts upgrade of the current vendor implementation.\n    /// @dev It is the first part of the two-step implementation address update\n    /// process. The function emits an event containing the new value and current\n    /// block timestamp.\n    /// @param _newImplementation Address of the new vendor implementation contract.\n    /// @param _data Delegate call data for implementation initialization.\n    function upgradeTo(address _newImplementation, bytes memory _data)\n        public\n        onlyAdmin\n    {\n        address currentImplementation = _implementation();\n        require(\n            _newImplementation != address(0),\n            \"Implementation address can't be zero.\"\n        );\n        require(\n            _newImplementation != currentImplementation,\n            \"Implementation address must be different from the current one.\"\n        );\n\n        initializationData[_newImplementation] = _data;\n\n        setNewImplementation(_newImplementation);\n\n        setUpgradeInitiatedTimestamp(block.timestamp);\n\n        emit UpgradeStarted(_newImplementation, block.timestamp);\n    }\n\n    /// @notice Finalizes implementation address upgrade.\n    /// @dev It is the second part of the two-step implementation address update\n    /// process. The function emits an event containing the new implementation\n    /// address. It can be called after upgrade time delay period has passed since\n    /// upgrade initiation.\n    function completeUpgrade() public onlyAdmin {\n        require(upgradeInitiatedTimestamp() > 0, \"Upgrade not initiated\");\n\n        require(\n            block.timestamp.sub(upgradeInitiatedTimestamp()) >=\n                upgradeTimeDelay(),\n            \"Timer not elapsed\"\n        );\n\n        address _newImplementation = newImplementation();\n\n        setImplementation(_newImplementation);\n\n        bytes memory data = initializationData[_newImplementation];\n        if (data.length > 0) {\n            initializeImplementation(_newImplementation, data);\n        }\n\n        setUpgradeInitiatedTimestamp(0);\n\n        emit UpgradeCompleted(_newImplementation);\n    }\n\n    /// @notice Gets the address of the current vendor implementation.\n    /// @return Address of the current implementation.\n    function implementation() public view returns (address) {\n        return _implementation();\n    }\n\n    /// @notice Initializes implementation contract.\n    /// @dev Delegates a call to the implementation with provided data. It is\n    /// expected that data contains details of function to be called.\n    /// This function uses delegatecall to a input-controlled function id and\n    /// contract address. This is safe because both _implementation and _data\n    /// an be set only by the admin of this contract in upgradeTo and constructor.\n    /// @param _implementationAddress Address of the new vendor implementation\n    /// contract.\n    /// @param _data Delegate call data for implementation initialization.\n    function initializeImplementation(\n        address _implementationAddress,\n        bytes memory _data\n    ) internal {\n        /* solium-disable-next-line security/no-low-level-calls */\n        (bool success, bytes memory returnData) = _implementationAddress\n            .delegatecall(_data);\n\n        require(success, string(returnData));\n    }\n\n    /// @notice Asserts correct slot for provided key.\n    /// @dev To avoid clashing with implementation's fields the proxy contract\n    /// defines its' fields on specific slots. Slot is calculated as hash of a string\n    /// subtracted by 1 to reduce chances of a possible attack. For details see\n    /// EIP-1967.\n    function assertSlot(bytes32 slot, bytes memory key) internal pure {\n        assert(slot == bytes32(uint256(keccak256(key)) - 1));\n    }\n\n    /* solium-disable function-order */\n\n    /// @dev Returns the current implementation. Implements function from `Proxy`\n    /// contract.\n    /// @return Address of the current implementation\n    function _implementation() internal view returns (address impl) {\n        bytes32 slot = IMPLEMENTATION_SLOT;\n        /* solium-disable-next-line */\n        assembly {\n            impl := sload(slot)\n        }\n    }\n\n    /// @notice Sets the address of the current implementation.\n    /// @param _implementationAddress Address representing the new\n    /// implementation to be set.\n    function setImplementation(address _implementationAddress) internal {\n        bytes32 slot = IMPLEMENTATION_SLOT;\n        /* solium-disable-next-line */\n        assembly {\n            sstore(slot, _implementationAddress)\n        }\n    }\n\n    function upgradeTimeDelay()\n        public\n        view\n        returns (uint256 _upgradeTimeDelay)\n    {\n        bytes32 position = UPGRADE_TIME_DELAY_SLOT;\n        /* solium-disable-next-line */\n        assembly {\n            _upgradeTimeDelay := sload(position)\n        }\n    }\n\n    function setUpgradeTimeDelay(uint256 _upgradeTimeDelay) internal {\n        bytes32 position = UPGRADE_TIME_DELAY_SLOT;\n        /* solium-disable-next-line */\n        assembly {\n            sstore(position, _upgradeTimeDelay)\n        }\n    }\n\n    function newImplementation()\n        public\n        view\n        returns (address _newImplementation)\n    {\n        bytes32 position = UPGRADE_IMPLEMENTATION_SLOT;\n        /* solium-disable-next-line */\n        assembly {\n            _newImplementation := sload(position)\n        }\n    }\n\n    function setNewImplementation(address _newImplementation) internal {\n        bytes32 position = UPGRADE_IMPLEMENTATION_SLOT;\n        /* solium-disable-next-line */\n        assembly {\n            sstore(position, _newImplementation)\n        }\n    }\n\n    function upgradeInitiatedTimestamp()\n        public\n        view\n        returns (uint256 _upgradeInitiatedTimestamp)\n    {\n        bytes32 position = UPGRADE_INIT_TIMESTAMP_SLOT;\n        /* solium-disable-next-line */\n        assembly {\n            _upgradeInitiatedTimestamp := sload(position)\n        }\n    }\n\n    function setUpgradeInitiatedTimestamp(uint256 _upgradeInitiatedTimestamp)\n        internal\n    {\n        bytes32 position = UPGRADE_INIT_TIMESTAMP_SLOT;\n        /* solium-disable-next-line */\n        assembly {\n            sstore(position, _upgradeInitiatedTimestamp)\n        }\n    }\n\n    /// @notice The admin slot.\n    /// @return The contract owner's address.\n    function admin() public view returns (address adm) {\n        bytes32 slot = ADMIN_SLOT;\n        /* solium-disable-next-line */\n        assembly {\n            adm := sload(slot)\n        }\n    }\n\n    /// @notice Sets the address of the proxy admin.\n    /// @dev Function can be called only by the current admin.\n    /// @param _newAdmin Address of the new proxy admin.\n    function updateAdmin(address _newAdmin) public onlyAdmin {\n        setAdmin(_newAdmin);\n    }\n\n    /// @dev Sets the address of the proxy admin.\n    /// @param _newAdmin Address of the new proxy admin.\n    function setAdmin(address _newAdmin) internal {\n        bytes32 slot = ADMIN_SLOT;\n        /* solium-disable-next-line */\n        assembly {\n            sstore(slot, _newAdmin)\n        }\n    }\n\n    /// @dev Throws if called by any account other than the contract owner.\n    modifier onlyAdmin() {\n        require(msg.sender == admin(), \"Caller is not the admin\");\n        _;\n    }\n}\n",
  "sourcePath": "/home/kowal/Projects/sovryn/keep-ecdsa/solidity/contracts/BondedECDSAKeepVendor.sol",
  "compiler": {
    "name": "solc",
    "version": "0.5.17+commit.d19bba13.Emscripten.clang"
  },
  "schemaVersion": "3.0.22",
  "updatedAt": "2021-02-01T13:36:19.378Z",
  "networkType": "ethereum",
  "devdoc": {
    "methods": {
      "admin()": {
        "return": "The contract owner's address."
      },
      "completeUpgrade()": {
        "details": "It is the second part of the two-step implementation address update process. The function emits an event containing the new implementation address. It can be called after upgrade time delay period has passed since upgrade initiation."
      },
      "implementation()": {
        "return": "Address of the current implementation."
      },
      "updateAdmin(address)": {
        "details": "Function can be called only by the current admin.",
        "params": {
          "_newAdmin": "Address of the new proxy admin."
        }
      },
      "upgradeTo(address,bytes)": {
        "details": "It is the first part of the two-step implementation address update process. The function emits an event containing the new value and current block timestamp.",
        "params": {
          "_data": "Delegate call data for implementation initialization.",
          "_newImplementation": "Address of the new vendor implementation contract."
        }
      }
    },
    "title": "Proxy contract for Bonded ECDSA Keep vendor."
  },
  "userdoc": {
    "methods": {
      "admin()": {
        "notice": "The admin slot."
      },
      "completeUpgrade()": {
        "notice": "Finalizes implementation address upgrade."
      },
      "implementation()": {
        "notice": "Gets the address of the current vendor implementation."
      },
      "updateAdmin(address)": {
        "notice": "Sets the address of the proxy admin."
      },
      "upgradeTo(address,bytes)": {
        "notice": "Starts upgrade of the current vendor implementation."
      }
    }
  }
}