{
  "contractName": "BondedSortitionPoolFactory",
  "abi": [
    {
      "constant": false,
      "inputs": [
        {
          "internalType": "contract IStaking",
          "name": "stakingContract",
          "type": "address"
        },
        {
          "internalType": "contract IBonding",
          "name": "bondingContract",
          "type": "address"
        },
        {
          "internalType": "uint256",
          "name": "minimumStake",
          "type": "uint256"
        },
        {
          "internalType": "uint256",
          "name": "initialMinimumBond",
          "type": "uint256"
        },
        {
          "internalType": "uint256",
          "name": "poolWeightDivisor",
          "type": "uint256"
        }
      ],
      "name": "createSortitionPool",
      "outputs": [
        {
          "internalType": "address",
          "name": "",
          "type": "address"
        }
      ],
      "payable": false,
      "stateMutability": "nonpayable",
      "type": "function"
    }
  ],
  "bytecode": "0x608060405234801561001057600080fd5b50612f78806100206000396000f3fe608060405234801561001057600080fd5b506004361061002b5760003560e01c80635638557814610030575b600080fd5b6100b0600480360360a081101561004657600080fd5b81019080803573ffffffffffffffffffffffffffffffffffffffff169060200190929190803573ffffffffffffffffffffffffffffffffffffffff1690602001909291908035906020019092919080359060200190929190803590602001909291905050506100f2565b604051808273ffffffffffffffffffffffffffffffffffffffff1673ffffffffffffffffffffffffffffffffffffffff16815260200191505060405180910390f35b6000858585858533604051610106906101df565b808773ffffffffffffffffffffffffffffffffffffffff1673ffffffffffffffffffffffffffffffffffffffff1681526020018673ffffffffffffffffffffffffffffffffffffffff1673ffffffffffffffffffffffffffffffffffffffff1681526020018581526020018481526020018381526020018273ffffffffffffffffffffffffffffffffffffffff1673ffffffffffffffffffffffffffffffffffffffff1681526020019650505050505050604051809103906000f0801580156101d3573d6000803e3d6000fd5b50905095945050505050565b612d57806101ed8339019056fe608060405234801561001057600080fd5b50604051612d57380380612d57833981810160405260c081101561003357600080fd5b81019080805190602001909291908051906020019092919080519060200190929190805190602001909291908051906020019092919080519060200190929190505050600080819055506000600481905550600084116100fb576040517f08c379a000000000000000000000000000000000000000000000000000000000815260040180806020018281038252601c8152602001807f4d696e696d756d207374616b652063616e6e6f74206265207a65726f0000000081525060200191505060405180910390fd5b6040518060e001604052808773ffffffffffffffffffffffffffffffffffffffff1681526020018581526020018673ffffffffffffffffffffffffffffffffffffffff168152602001848152602001600081526020018381526020018273ffffffffffffffffffffffffffffffffffffffff16815250600760008201518160000160006101000a81548173ffffffffffffffffffffffffffffffffffffffff021916908373ffffffffffffffffffffffffffffffffffffffff1602179055506020820151816001015560408201518160020160006101000a81548173ffffffffffffffffffffffffffffffffffffffff021916908373ffffffffffffffffffffffffffffffffffffffff160217905550606082015181600301556080820151816004015560a0820151816005015560c08201518160060160006101000a81548173ffffffffffffffffffffffffffffffffffffffff021916908373ffffffffffffffffffffffffffffffffffffffff160217905550905050505050505050612acf806102886000396000f3fe608060405234801561001057600080fd5b50600436106100ea5760003560e01c806396c82e571161008c578063ce6fe19811610066578063ce6fe198146103ee578063e686440f1461040c578063e7bfd89914610468578063f7186ce014610486576100ea565b806396c82e57146102d3578063a2cca6a2146102f1578063b476685614610392576100ea565b806347a15f5a116100c857806347a15f5a146101a55780635757ed5b146101c35780636b1906f81461021b578063811918c414610277576100ea565b80631ae0e73d146100ef5780631c5b07621461013357806334ce30f014610177575b600080fd5b6101316004803603602081101561010557600080fd5b81019080803573ffffffffffffffffffffffffffffffffffffffff1690602001909291905050506104e2565b005b6101756004803603602081101561014957600080fd5b81019080803573ffffffffffffffffffffffffffffffffffffffff16906020019092919050505061057c565b005b6101a36004803603602081101561018d57600080fd5b810190808035906020019092919050505061063c565b005b6101ad6106f2565b6040518082815260200191505060405180910390f35b610205600480360360208110156101d957600080fd5b81019080803573ffffffffffffffffffffffffffffffffffffffff1690602001909291905050506106ff565b6040518082815260200191505060405180910390f35b61025d6004803603602081101561023157600080fd5b81019080803573ffffffffffffffffffffffffffffffffffffffff169060200190929190505050610759565b604051808215151515815260200191505060405180910390f35b6102b96004803603602081101561028d57600080fd5b81019080803573ffffffffffffffffffffffffffffffffffffffff16906020019092919050505061076e565b604051808215151515815260200191505060405180910390f35b6102db610830565b6040518082815260200191505060405180910390f35b61033b6004803603608081101561030757600080fd5b8101908080359060200190929190803590602001909291908035906020019092919080359060200190929190505050610842565b6040518080602001828103825283818151815260200191508051906020019060200280838360005b8381101561037e578082015181840152602081019050610363565b505050509050019250505060405180910390f35b6103d4600480360360208110156103a857600080fd5b81019080803573ffffffffffffffffffffffffffffffffffffffff16906020019092919050505061091b565b604051808215151515815260200191505060405180910390f35b6103f661092f565b6040518082815260200191505060405180910390f35b61044e6004803603602081101561042257600080fd5b81019080803573ffffffffffffffffffffffffffffffffffffffff169060200190929190505050610938565b604051808215151515815260200191505060405180910390f35b610470610954565b6040518082815260200191505060405180910390f35b6104c86004803603602081101561049c57600080fd5b81019080803573ffffffffffffffffffffffffffffffffffffffff169060200190929190505050610974565b604051808215151515815260200191505060405180910390f35b60006104ed82610989565b905060008111610565576040517f08c379a00000000000000000000000000000000000000000000000000000000081526004018080602001828103825260158152602001807f4f70657261746f72206e6f7420656c696769626c65000000000000000000000081525060200191505060405180910390fd5b61056e82610c5d565b6105788282610c6b565b5050565b600061058782610989565b90506000610594836106ff565b90508082141561060c576040517f08c379a000000000000000000000000000000000000000000000000000000000815260040180806020018281038252601b8152602001807f4f70657261746f7220616c726561647920757020746f2064617465000000000081525060200191505060405180910390fd5b600082141561062c5761061e83610d4a565b61062783610dde565b610637565b6106368383610dec565b5b505050565b600760060160009054906101000a900473ffffffffffffffffffffffffffffffffffffffff1673ffffffffffffffffffffffffffffffffffffffff163373ffffffffffffffffffffffffffffffffffffffff16146106e5576040517f08c379a0000000000000000000000000000000000000000000000000000000008152600401808060200182810382526028815260200180612a236028913960400191505060405180910390fd5b8060076003018190555050565b6000600760030154905090565b60008061070b83610e74565b90506000811415610720576000915050610754565b600061072b82610ebd565b9050600061074b6002600084815260200190815260200160002054610eea565b90508093505050505b919050565b60008061076583610e74565b14159050919050565b600061077982610974565b6107eb576040517f08c379a000000000000000000000000000000000000000000000000000000000815260040180806020018281038252601b8152602001807f4f70657261746f72206973206e6f7420696e2074686520706f6f6c000000000081525060200191505060405180910390fd5b60006107f683610e74565b9050600061080382610ebd565b905060006002600083815260200190815260200160002054905061082681610f0b565b9350505050919050565b600061083d600054610f2d565b905090565b606061084c6128a0565b6108568484610fa9565b90508060c0015173ffffffffffffffffffffffffffffffffffffffff163373ffffffffffffffffffffffffffffffffffffffff16146108fd576040517f08c379a000000000000000000000000000000000000000000000000000000000815260040180806020018281038252601c8152602001807f4f6e6c79206f776e6572206d61792073656c6563742067726f7570730000000081525060200191505060405180910390fd5b600081905061090f8787836001611129565b92505050949350505050565b60008061092783610989565b119050919050565b6000600a905090565b6000610943826106ff565b61094c83610989565b149050919050565b600080600454905060006109686005611453565b90508082039250505090565b60008061098083610e74565b14159050919050565b600080600760060160009054906101000a900473ffffffffffffffffffffffffffffffffffffffff1690506000600760020160009054906101000a900473ffffffffffffffffffffffffffffffffffffffff1673ffffffffffffffffffffffffffffffffffffffff166342bcb9658584306040518463ffffffff1660e01b8152600401808473ffffffffffffffffffffffffffffffffffffffff1673ffffffffffffffffffffffffffffffffffffffff1681526020018373ffffffffffffffffffffffffffffffffffffffff1673ffffffffffffffffffffffffffffffffffffffff1681526020018273ffffffffffffffffffffffffffffffffffffffff1673ffffffffffffffffffffffffffffffffffffffff168152602001935050505060206040518083038186803b158015610ac057600080fd5b505afa158015610ad4573d6000803e3d6000fd5b505050506040513d6020811015610aea57600080fd5b81019080805190602001909291905050509050600760030154811015610b1557600092505050610c58565b6000600760000160009054906101000a900473ffffffffffffffffffffffffffffffffffffffff1673ffffffffffffffffffffffffffffffffffffffff1663afff33ef86856040518363ffffffff1660e01b8152600401808373ffffffffffffffffffffffffffffffffffffffff1673ffffffffffffffffffffffffffffffffffffffff1681526020018273ffffffffffffffffffffffffffffffffffffffff1673ffffffffffffffffffffffffffffffffffffffff1681526020019250505060206040518083038186803b158015610bed57600080fd5b505afa158015610c01573d6000803e3d6000fd5b505050506040513d6020811015610c1757600080fd5b81019080805190602001909291905050509050600760010154811015610c435760009350505050610c58565b6007600501548181610c5157fe5b0493505050505b919050565b610c68816001611461565b50565b610c7482610759565b15610cca576040517f08c379a000000000000000000000000000000000000000000000000000000000815260040180806020018281038252602a815260200180612a71602a913960400191505060405180910390fd5b6000610cd46114dd565b90506000610ce38443856115a2565b9050610cf2828260005461161b565b600081905550610d018261171f565b600360008673ffffffffffffffffffffffffffffffffffffffff1673ffffffffffffffffffffffffffffffffffffffff1681526020019081526020016000208190555050505050565b6000610d5582610e74565b90506000811415610db1576040517f08c379a0000000000000000000000000000000000000000000000000000000008152600401808060200182810382526026815260200180612a4b6026913960400191505060405180910390fd5b6000610dbc82610ebd565b9050610dca8160005461174b565b600081905550610dd9836117fe565b505050565b610de9816000611461565b50565b610df582610759565b610e4a576040517f08c379a0000000000000000000000000000000000000000000000000000000008152600401808060200182810382526026815260200180612a4b6026913960400191505060405180910390fd5b6000610e5583610e74565b90506000610e6282610ebd565b9050610e6e8184611846565b50505050565b6000600360008373ffffffffffffffffffffffffffffffffffffffff1673ffffffffffffffffffffffffffffffffffffffff168152602001908152602001600020549050919050565b60007f80000000000000000000000000000000000000000000000000000000000000001982169050919050565b60006001600360020a61010081610efd57fe5b0460020a0382169050919050565b600080610f178361189e565b9050610f2161092f565b81014311915050919050565b60006001600360020a61010081610f4057fe5b0460020a03821690506000600360020a61010081610f5a57fe5b0483901c90505b6000811115610fa0576001600360020a61010081610f7b57fe5b0460020a03811682019150600360020a61010081610f9557fe5b0481901c9050610f61565b81915050919050565b610fb16128a0565b60076040518060e00160405290816000820160009054906101000a900473ffffffffffffffffffffffffffffffffffffffff1673ffffffffffffffffffffffffffffffffffffffff1673ffffffffffffffffffffffffffffffffffffffff168152602001600182015481526020016002820160009054906101000a900473ffffffffffffffffffffffffffffffffffffffff1673ffffffffffffffffffffffffffffffffffffffff1673ffffffffffffffffffffffffffffffffffffffff1681526020016003820154815260200160048201548152602001600582015481526020016006820160009054906101000a900473ffffffffffffffffffffffffffffffffffffffff1673ffffffffffffffffffffffffffffffffffffffff1673ffffffffffffffffffffffffffffffffffffffff168152505090508181608001511461110057818160800181815250505b828160200151146111205782816020018181525050826007600101819055505b80905092915050565b6060600080549050600080905061113e61291f565b611147886118d4565b9050611151612939565b6111648861115e86610f2d565b8b611906565b90505b8882602001515110156114325761117d8161195d565b60008061118e836000015187611ad8565b9150915060006002600084815260200190815260200160002054905060006111b582611c1d565b905060006111c283610eea565b90506111cc612978565b6111d784898f611c2d565b9050600060048111156111e657fe5b816000015160048111156111f657fe5b14156112505761120f8389611fb790919063ffffffff16565b8b1561122b5761122a8583896120939092919063ffffffff16565b5b6112458e896020015151896120bf9092919063ffffffff16565b505050505050611167565b6001600481111561125d57fe5b8160000151600481111561126d57fe5b1415611293576112888583896120939092919063ffffffff16565b505050505050611167565b600260048111156112a057fe5b816000015160048111156112b057fe5b14156112fb576112ce858360008a61215b909392919063ffffffff16565b6112d8868b61174b565b9950600198506112e7836117fe565b6112f083610dde565b505050505050611167565b6003600481111561130857fe5b8160000151600481111561131857fe5b141561136b5761133f866113398360200151876121a090919063ffffffff16565b8c61161b565b995060019850611360858383602001518a61215b909392919063ffffffff16565b505050505050611167565b60048081111561137757fe5b8160000151600481111561138757fe5b1415611427576113ae866113a88360200151876121a090919063ffffffff16565b8c61161b565b9950600198506113c78389611fb790919063ffffffff16565b6113e2858383602001518a61215b909392919063ffffffff16565b8b1561140257611401858260200151896120939092919063ffffffff16565b5b61141c8e896020015151896120bf9092919063ffffffff16565b505050505050611167565b505050505050611167565b821561144057836000819055505b8160200151945050505050949350505050565b600081805490509050919050565b60008090505b61146f6121dc565b8110156114d85781600660008573ffffffffffffffffffffffffffffffffffffffff1673ffffffffffffffffffffffffffffffffffffffff1681526020019081526020016000206000838152602001908152602001600020819055508080600101915050611467565b505050565b600080600454905060006007600360020a0a6001830110905080156115105760018201600481905550819250505061159f565b600061151a6121e5565b90508061158f576040517f08c379a000000000000000000000000000000000000000000000000000000000815260040180806020018281038252600c8152602001807f506f6f6c2069732066756c6c000000000000000000000000000000000000000081525060200191505060405180910390fd5b61159960056121f8565b93505050505b90565b6000808460601b6bffffffffffffffffffffffff191660001c905060006001600360020a610100816115d057fe5b0460020a03841690506000600360020a610100816115ea57fe5b046001600360020a610100816115fc57fe5b0460600360020a038716901b9050818184171793505050509392505050565b600080600080600061162c87610eea565b905086600260008a81526020019081526020016000208190555060008890506000600790505b600281106116f057611663826122b6565b955061166e826122c9565b91506001600082815260200190815260200160002060008381526020019081526020016000205494506116ac8684876122d79092919063ffffffff16565b935083600160008381526020019081526020016000206000848152602001908152602001600020819055506116e084610f2d565b9250808060019003915050611652565b506116fa816122b6565b94506117118583896122d79092919063ffffffff16565b955050505050509392505050565b60007f800000000000000000000000000000000000000000000000000000000000000082179050919050565b600080600160045403905060008185149050600061176b8660008761161b565b9050811561177f57826004819055506117f2565b600573__StackLib______________________________63d2c5b1239091886040518363ffffffff1660e01b8152600401808381526020018281526020019250505060006040518083038186803b1580156117d957600080fd5b505af41580156117ed573d6000803e3d6000fd5b505050505b80935050505092915050565b6000600360008373ffffffffffffffffffffffffffffffffffffffff1673ffffffffffffffffffffffffffffffffffffffff1681526020019081526020016000208190555050565b6000600260008481526020019081526020016000205490508161186882610eea565b1461189957600061188283836121a090919063ffffffff16565b9050611891848260005461161b565b600081905550505b505050565b60006001600360020a610100816118b157fe5b0460600360020a03600360020a610100816118c857fe5b0483901c169050919050565b6118dc61291f565b60606118e78361233c565b9050604051806040016040528084815260200182815250915050919050565b61190e612939565b6040518060c00160405280600081526020016000815260200185815260200184815260200184815260200161194284612361565b8152509050611953818560006120bf565b8090509392505050565b600081608001519050600081116119dc576040517f08c379a000000000000000000000000000000000000000000000000000000000815260040180806020018281038252601c8152602001807f4e6f7420656e6f756768206f70657261746f727320696e20706f6f6c0000000081525060200191505060405180910390fd5b60006119e782612393565b905060006119fc82856040015160001c6123d1565b90505b828110611ab157836040015130604051602001808381526020018273ffffffffffffffffffffffffffffffffffffffff1673ffffffffffffffffffffffffffffffffffffffff1660601b8152601401807f67656e65726174650000000000000000000000000000000000000000000000008152506008019250505060405160208183030381529060405280519060200120846040018181525050611aaa82856040015160001c6123d1565b90506119ff565b80846020018181525050611ac9818560a001516123e5565b84600001818152505050505050565b6000806000849050600084905060008090506000611af583610f2d565b8810611b69576040517f08c379a00000000000000000000000000000000000000000000000000000000081526004018080602001828103825260148152602001807f496e64657820657863656564732077656967687400000000000000000000000081525060200191505060405180910390fd5b611b7c848461245890919063ffffffff16565b80955081925050506000600290505b60078111611bf757611ba682846124d790919063ffffffff16565b9250600160008281526020019081526020016000206000848152602001908152602001600020549350611be2858561245890919063ffffffff16565b80965081935050508080600101915050611b8b565b50611c0b81836124d790919063ffffffff16565b95508388039450505050509250929050565b60008160001b60601c9050919050565b611c35612978565b611c3d6128a0565b8290506000611c4b86611c1d565b90506000611c5887610eea565b9050611c6387610f0b565b611c9357604051806040016040528060016004811115611c7f57fe5b815260200160008152509350505050611fb0565b60008360c0015190506000846040015173ffffffffffffffffffffffffffffffffffffffff166342bcb9658584306040518463ffffffff1660e01b8152600401808473ffffffffffffffffffffffffffffffffffffffff1673ffffffffffffffffffffffffffffffffffffffff1681526020018373ffffffffffffffffffffffffffffffffffffffff1673ffffffffffffffffffffffffffffffffffffffff1681526020018273ffffffffffffffffffffffffffffffffffffffff1673ffffffffffffffffffffffffffffffffffffffff168152602001935050505060206040518083038186803b158015611d8757600080fd5b505afa158015611d9b573d6000803e3d6000fd5b505050506040513d6020811015611db157600080fd5b810190808051906020019092919050505090508460600151811015611dfe57604051806040016040528060026004811115611de857fe5b8152602001600081525095505050505050611fb0565b8460800151811015611e3857604051806040016040528060016004811115611e2257fe5b8152602001600081525095505050505050611fb0565b6000856000015173ffffffffffffffffffffffffffffffffffffffff1663afff33ef86856040518363ffffffff1660e01b8152600401808373ffffffffffffffffffffffffffffffffffffffff1673ffffffffffffffffffffffffffffffffffffffff1681526020018273ffffffffffffffffffffffffffffffffffffffff1673ffffffffffffffffffffffffffffffffffffffff1681526020019250505060206040518083038186803b158015611eef57600080fd5b505afa158015611f03573d6000803e3d6000fd5b505050506040513d6020811015611f1957600080fd5b8101908080519060200190929190505050905060008660a001518281611f3b57fe5b04905084811080611f4f5750866020015182105b15611f8457604051806040016040528060026004811115611f6c57fe5b81526020016000815250975050505050505050611fb0565b604051806040016040528060006004811115611f9c57fe5b815260200160008152509750505050505050505b9392505050565b6000826020015151905060008360000151905080821061207f57808214612046576040517f08c379a000000000000000000000000000000000000000000000000000000000815260040180806020018281038252601f8152602001807f4172726179206c656e677468206578636565647320616c6c6f636174696f6e0081525060200191505060405180910390fd5b600060028302905060606120598261233c565b90506120698187602001516124f1565b8086602001819052508186600001818152505050505b61208d84602001518461252c565b50505050565b808360800181815103915081815250506120ba8360a001516120b58484612547565b61259f565b505050565b818130604051602001808481526020018381526020018273ffffffffffffffffffffffffffffffffffffffff1673ffffffffffffffffffffffffffffffffffffffff1660601b8152601401807f7265736565640000000000000000000000000000000000000000000000000000815250600601935050505060405160208183030381529060405280519060200120836040018181525050505050565b6000828203905060008285019050818660800151018660800181815250508186606001510186606001818152505061219881838860a00151612623565b505050505050565b60006001600360020a610100816121b357fe5b0460020a0382166001600360020a610100816121cb57fe5b0460020a0319841617905092915050565b60006001905090565b6000806121f26005611453565b11905090565b600080828054905011612273576040517f08c379a000000000000000000000000000000000000000000000000000000000815260040180806020018281038252601f8152602001807f4e6f2076616c756520746f20706f702c20617272617920697320656d7074790081525060200191505060405180910390fd5b60008260018480549050038154811061228857fe5b90600052602060002001549050600183818180549050039150816122ac919061299d565b5080915050919050565b60006001600360020a0382169050919050565b6000600382901c9050919050565b600080600360020a610100816122e957fe5b04840290506000816001600360020a6101008161230257fe5b0460020a03901b19861690506000826001600360020a6101008161232257fe5b0460020a038616901b905080821793505050509392505050565b6060600060206001840102905060405191506000825280820160405281915050919050565b6123696129c9565b6060612374836126b1565b9050604051806040016040528084815260200182815250915050919050565b6000806001600360020a610100816123a757fe5b040390505b82816001901b106123c5578080600190039150506123ac565b60018101915050919050565b60006001836001901b038216905092915050565b600082905060008090505b82602001515181101561244e5760008360200151828151811061240f57fe5b60200260200101519050612422816126d6565b831061243a5761243181610eea565b83019250612440565b5061244e565b5080806001019150506123f0565b5080905092915050565b600080829050600084905060006001600360020a6101008161247657fe5b0460020a03821690505b8083106124c85780830392508380600101945050600360020a610100816124a357fe5b0482901c91506001600360020a610100816124ba57fe5b0460020a0382169050612480565b83839350935050509250929050565b60006001600360020a038216600384901b17905092915050565b80516020810281845260208401818101602085015b818310156125235780518352602083019250602081019050612506565b50505050505050565b81516001810180602002808501848152828652505050505050565b600080600360020a6101008161255957fe5b046001600360020a6101008161256b57fe5b0460020a038516901b905060006001600360020a6101008161258957fe5b0460020a03841690508082179250505092915050565b600081905060008090505b83602001515181101561260a576000846020015182815181106125c957fe5b60200260200101519050808310156125fc5782856020015183815181106125ec57fe5b6020026020010181815250508092505b5080806001019150506125aa565b5061261e818461270990919063ffffffff16565b505050565b6000816020015151905060008090505b818110156126aa5760008360200151828151811061264d57fe5b602002602001015190506000612662826126d6565b90508681111561269b576000868201905061267d83826127e5565b8660200151858151811061268d57fe5b602002602001018181525050505b50508080600101915050612633565b5050505050565b6060600060206001840102905060405191506000825280820160405281915050919050565b60006001600360020a610100816126e957fe5b0460020a03600360020a610100816126fd57fe5b0483901c169050919050565b600082602001515190506000836000015190508082106127d157808214612798576040517f08c379a000000000000000000000000000000000000000000000000000000000815260040180806020018281038252601f8152602001807f4172726179206c656e677468206578636565647320616c6c6f636174696f6e0081525060200191505060405180910390fd5b600060028302905060606127ab826126b1565b90506127bb81876020015161284a565b8086602001819052508186600001818152505050505b6127df846020015184612885565b50505050565b600080600360020a610100816127f757fe5b046001600360020a6101008161280957fe5b0460020a038416901b905080600360020a6101008161282457fe5b046001600360020a6101008161283657fe5b0460020a03901b1985161791505092915050565b80516020810281845260208401818101602085015b8183101561287c578051835260208301925060208101905061285f565b50505050505050565b81516001810180602002808501848152828652505050505050565b6040518060e00160405280600073ffffffffffffffffffffffffffffffffffffffff16815260200160008152602001600073ffffffffffffffffffffffffffffffffffffffff168152602001600081526020016000815260200160008152602001600073ffffffffffffffffffffffffffffffffffffffff1681525090565b604051806040016040528060008152602001606081525090565b6040518060c0016040528060008152602001600081526020016000801916815260200160008152602001600081526020016129726129e3565b81525090565b60405180604001604052806000600481111561299057fe5b8152602001600081525090565b8154818355818111156129c4578183600052602060002091820191016129c391906129fd565b5b505050565b604051806040016040528060008152602001606081525090565b604051806040016040528060008152602001606081525090565b612a1f91905b80821115612a1b576000816000905550600101612a03565b5090565b9056fe4f6e6c79206f776e6572206d617920757064617465206d696e696d756d20626f6e642076616c75654f70657261746f72206973206e6f74207265676973746572656420696e2074686520706f6f6c4f70657261746f7220697320616c7265616479207265676973746572656420696e2074686520706f6f6ca265627a7a72315820e31f4b5d81175a399f93e6f2204d4ac7832d72cfb02877a6ad4e8f484d1838f264736f6c63430005110032a265627a7a723158202135f9dedacb90a3017e6c71d433bcadfe87bccafad00fbc76b724281077e13564736f6c63430005110032",
  "source": "pragma solidity 0.5.17;\n\nimport \"./BondedSortitionPool.sol\";\nimport \"./api/IBonding.sol\";\nimport \"./api/IStaking.sol\";\n\n/// @title Bonded Sortition Pool Factory\n/// @notice Factory for the creation of new bonded sortition pools.\ncontract BondedSortitionPoolFactory {\n  /// @notice Creates a new bonded sortition pool instance.\n  /// @return Address of the new bonded sortition pool contract instance.\n  function createSortitionPool(\n    IStaking stakingContract,\n    IBonding bondingContract,\n    uint256 minimumStake,\n    uint256 initialMinimumBond,\n    uint256 poolWeightDivisor\n  ) public returns (address) {\n    return\n      address(\n        new BondedSortitionPool(\n          stakingContract,\n          bondingContract,\n          minimumStake,\n          initialMinimumBond,\n          poolWeightDivisor,\n          msg.sender\n        )\n      );\n  }\n}\n",
  "sourcePath": "@keep-network/sortition-pools/contracts/BondedSortitionPoolFactory.sol",
  "compiler": {
    "name": "solc",
    "version": "0.5.17+commit.d19bba13.Emscripten.clang"
  },
  "schemaVersion": "3.3.4",
  "updatedAt": "2021-04-13T14:32:09.279Z",
  "networkType": "ethereum",
  "devdoc": {
    "methods": {
      "createSortitionPool(address,address,uint256,uint256,uint256)": {
        "return": "Address of the new bonded sortition pool contract instance."
      }
    },
    "title": "Bonded Sortition Pool Factory"
  },
  "userdoc": {
    "methods": {
      "createSortitionPool(address,address,uint256,uint256,uint256)": {
        "notice": "Creates a new bonded sortition pool instance."
      }
    },
    "notice": "Factory for the creation of new bonded sortition pools."
  }
}