{
  "contractName": "BondedECDSAKeepFactoryVendorStub",
  "abi": [
    {
      "inputs": [
        {
          "internalType": "address",
          "name": "masterBondedECDSAKeepAddress",
          "type": "address"
        },
        {
          "internalType": "address",
          "name": "sortitionPoolFactory",
          "type": "address"
        },
        {
          "internalType": "address",
          "name": "tokenStaking",
          "type": "address"
        },
        {
          "internalType": "address",
          "name": "keepBonding",
          "type": "address"
        },
        {
          "internalType": "address",
          "name": "randomBeacon",
          "type": "address"
        },
        {
          "internalType": "address",
          "name": "_bondTokenAddress",
          "type": "address"
        }
      ],
      "payable": false,
      "stateMutability": "nonpayable",
      "type": "constructor"
    },
    {
      "anonymous": false,
      "inputs": [
        {
          "indexed": true,
          "internalType": "address",
          "name": "keepAddress",
          "type": "address"
        },
        {
          "indexed": false,
          "internalType": "address[]",
          "name": "members",
          "type": "address[]"
        },
        {
          "indexed": true,
          "internalType": "address",
          "name": "owner",
          "type": "address"
        },
        {
          "indexed": true,
          "internalType": "address",
          "name": "application",
          "type": "address"
        },
        {
          "indexed": false,
          "internalType": "uint256",
          "name": "honestThreshold",
          "type": "uint256"
        }
      ],
      "name": "BondedECDSAKeepCreated",
      "type": "event"
    },
    {
      "anonymous": false,
      "inputs": [
        {
          "indexed": true,
          "internalType": "address",
          "name": "application",
          "type": "address"
        },
        {
          "indexed": false,
          "internalType": "address",
          "name": "sortitionPool",
          "type": "address"
        }
      ],
      "name": "SortitionPoolCreated",
      "type": "event"
    },
    {
      "payable": true,
      "stateMutability": "payable",
      "type": "fallback"
    },
    {
      "constant": false,
      "inputs": [
        {
          "internalType": "uint256",
          "name": "_relayEntry",
          "type": "uint256"
        }
      ],
      "name": "__beaconCallback",
      "outputs": [],
      "payable": false,
      "stateMutability": "nonpayable",
      "type": "function"
    },
    {
      "constant": false,
      "inputs": [
        {
          "internalType": "address",
          "name": "_delegatedAuthorityRecipient",
          "type": "address"
        }
      ],
      "name": "__isRecognized",
      "outputs": [
        {
          "internalType": "bool",
          "name": "",
          "type": "bool"
        }
      ],
      "payable": false,
      "stateMutability": "nonpayable",
      "type": "function"
    },
    {
      "constant": true,
      "inputs": [
        {
          "internalType": "address",
          "name": "_operator",
          "type": "address"
        }
      ],
      "name": "balanceOf",
      "outputs": [
        {
          "internalType": "uint256",
          "name": "",
          "type": "uint256"
        }
      ],
      "payable": false,
      "stateMutability": "view",
      "type": "function"
    },
    {
      "constant": true,
      "inputs": [],
      "name": "bondTokenAddress",
      "outputs": [
        {
          "internalType": "address",
          "name": "",
          "type": "address"
        }
      ],
      "payable": false,
      "stateMutability": "view",
      "type": "function"
    },
    {
      "constant": true,
      "inputs": [],
      "name": "callbackGas",
      "outputs": [
        {
          "internalType": "uint256",
          "name": "",
          "type": "uint256"
        }
      ],
      "payable": false,
      "stateMutability": "view",
      "type": "function"
    },
    {
      "constant": false,
      "inputs": [
        {
          "internalType": "address",
          "name": "_application",
          "type": "address"
        }
      ],
      "name": "createSortitionPool",
      "outputs": [
        {
          "internalType": "address",
          "name": "",
          "type": "address"
        }
      ],
      "payable": false,
      "stateMutability": "nonpayable",
      "type": "function"
    },
    {
      "constant": true,
      "inputs": [
        {
          "internalType": "uint256",
          "name": "index",
          "type": "uint256"
        }
      ],
      "name": "getKeepAtIndex",
      "outputs": [
        {
          "internalType": "address",
          "name": "",
          "type": "address"
        }
      ],
      "payable": false,
      "stateMutability": "view",
      "type": "function"
    },
    {
      "constant": true,
      "inputs": [],
      "name": "getKeepCount",
      "outputs": [
        {
          "internalType": "uint256",
          "name": "",
          "type": "uint256"
        }
      ],
      "payable": false,
      "stateMutability": "view",
      "type": "function"
    },
    {
      "constant": true,
      "inputs": [
        {
          "internalType": "address",
          "name": "_keep",
          "type": "address"
        }
      ],
      "name": "getKeepOpenedTimestamp",
      "outputs": [
        {
          "internalType": "uint256",
          "name": "",
          "type": "uint256"
        }
      ],
      "payable": false,
      "stateMutability": "view",
      "type": "function"
    },
    {
      "constant": true,
      "inputs": [
        {
          "internalType": "address",
          "name": "_application",
          "type": "address"
        }
      ],
      "name": "getSortitionPool",
      "outputs": [
        {
          "internalType": "address",
          "name": "",
          "type": "address"
        }
      ],
      "payable": false,
      "stateMutability": "view",
      "type": "function"
    },
    {
      "constant": true,
      "inputs": [
        {
          "internalType": "address",
          "name": "_application",
          "type": "address"
        }
      ],
      "name": "getSortitionPoolWeight",
      "outputs": [
        {
          "internalType": "uint256",
          "name": "",
          "type": "uint256"
        }
      ],
      "payable": false,
      "stateMutability": "view",
      "type": "function"
    },
    {
      "constant": true,
      "inputs": [],
      "name": "groupSelectionSeed",
      "outputs": [
        {
          "internalType": "uint256",
          "name": "",
          "type": "uint256"
        }
      ],
      "payable": false,
      "stateMutability": "view",
      "type": "function"
    },
    {
      "constant": true,
      "inputs": [
        {
          "internalType": "address",
          "name": "_operator",
          "type": "address"
        }
      ],
      "name": "hasMinimumStake",
      "outputs": [
        {
          "internalType": "bool",
          "name": "",
          "type": "bool"
        }
      ],
      "payable": false,
      "stateMutability": "view",
      "type": "function"
    },
    {
      "constant": true,
      "inputs": [
        {
          "internalType": "address",
          "name": "_operator",
          "type": "address"
        }
      ],
      "name": "isOperatorAuthorized",
      "outputs": [
        {
          "internalType": "bool",
          "name": "",
          "type": "bool"
        }
      ],
      "payable": false,
      "stateMutability": "view",
      "type": "function"
    },
    {
      "constant": true,
      "inputs": [
        {
          "internalType": "address",
          "name": "_operator",
          "type": "address"
        },
        {
          "internalType": "address",
          "name": "_application",
          "type": "address"
        }
      ],
      "name": "isOperatorEligible",
      "outputs": [
        {
          "internalType": "bool",
          "name": "",
          "type": "bool"
        }
      ],
      "payable": false,
      "stateMutability": "view",
      "type": "function"
    },
    {
      "constant": true,
      "inputs": [
        {
          "internalType": "address",
          "name": "_operator",
          "type": "address"
        },
        {
          "internalType": "address",
          "name": "_application",
          "type": "address"
        }
      ],
      "name": "isOperatorRegistered",
      "outputs": [
        {
          "internalType": "bool",
          "name": "",
          "type": "bool"
        }
      ],
      "payable": false,
      "stateMutability": "view",
      "type": "function"
    },
    {
      "constant": true,
      "inputs": [
        {
          "internalType": "address",
          "name": "_operator",
          "type": "address"
        },
        {
          "internalType": "address",
          "name": "_application",
          "type": "address"
        }
      ],
      "name": "isOperatorUpToDate",
      "outputs": [
        {
          "internalType": "bool",
          "name": "",
          "type": "bool"
        }
      ],
      "payable": false,
      "stateMutability": "view",
      "type": "function"
    },
    {
      "constant": true,
      "inputs": [
        {
          "internalType": "uint256",
          "name": "",
          "type": "uint256"
        }
      ],
      "name": "keeps",
      "outputs": [
        {
          "internalType": "address",
          "name": "",
          "type": "address"
        }
      ],
      "payable": false,
      "stateMutability": "view",
      "type": "function"
    },
    {
      "constant": true,
      "inputs": [],
      "name": "masterKeepAddress",
      "outputs": [
        {
          "internalType": "address",
          "name": "",
          "type": "address"
        }
      ],
      "payable": false,
      "stateMutability": "view",
      "type": "function"
    },
    {
      "constant": true,
      "inputs": [],
      "name": "minimumBond",
      "outputs": [
        {
          "internalType": "uint256",
          "name": "",
          "type": "uint256"
        }
      ],
      "payable": false,
      "stateMutability": "view",
      "type": "function"
    },
    {
      "constant": true,
      "inputs": [],
      "name": "newEntryFeeEstimate",
      "outputs": [
        {
          "internalType": "uint256",
          "name": "",
          "type": "uint256"
        }
      ],
      "payable": false,
      "stateMutability": "view",
      "type": "function"
    },
    {
      "constant": true,
      "inputs": [],
      "name": "newGroupSelectionSeedFee",
      "outputs": [
        {
          "internalType": "uint256",
          "name": "",
          "type": "uint256"
        }
      ],
      "payable": false,
      "stateMutability": "view",
      "type": "function"
    },
    {
      "constant": true,
      "inputs": [],
      "name": "openKeepFeeEstimate",
      "outputs": [
        {
          "internalType": "uint256",
          "name": "",
          "type": "uint256"
        }
      ],
      "payable": false,
      "stateMutability": "view",
      "type": "function"
    },
    {
      "constant": true,
      "inputs": [],
      "name": "poolStakeWeightDivisor",
      "outputs": [
        {
          "internalType": "uint256",
          "name": "",
          "type": "uint256"
        }
      ],
      "payable": false,
      "stateMutability": "view",
      "type": "function"
    },
    {
      "constant": false,
      "inputs": [
        {
          "internalType": "address",
          "name": "_application",
          "type": "address"
        }
      ],
      "name": "registerMemberCandidate",
      "outputs": [],
      "payable": false,
      "stateMutability": "nonpayable",
      "type": "function"
    },
    {
      "constant": false,
      "inputs": [],
      "name": "requestNewGroupSelectionSeed",
      "outputs": [],
      "payable": true,
      "stateMutability": "payable",
      "type": "function"
    },
    {
      "constant": true,
      "inputs": [],
      "name": "reseedPool",
      "outputs": [
        {
          "internalType": "uint256",
          "name": "",
          "type": "uint256"
        }
      ],
      "payable": false,
      "stateMutability": "view",
      "type": "function"
    },
    {
      "constant": false,
      "inputs": [
        {
          "internalType": "uint256",
          "name": "_minimumBondableValue",
          "type": "uint256"
        },
        {
          "internalType": "uint256",
          "name": "_groupSize",
          "type": "uint256"
        },
        {
          "internalType": "uint256",
          "name": "_honestThreshold",
          "type": "uint256"
        }
      ],
      "name": "setMinimumBondableValue",
      "outputs": [],
      "payable": false,
      "stateMutability": "nonpayable",
      "type": "function"
    },
    {
      "constant": false,
      "inputs": [
        {
          "internalType": "address",
          "name": "_operator",
          "type": "address"
        },
        {
          "internalType": "address",
          "name": "_application",
          "type": "address"
        }
      ],
      "name": "updateOperatorStatus",
      "outputs": [],
      "payable": false,
      "stateMutability": "nonpayable",
      "type": "function"
    },
    {
      "constant": false,
      "inputs": [
        {
          "internalType": "uint256",
          "name": "_groupSize",
          "type": "uint256"
        },
        {
          "internalType": "uint256",
          "name": "_honestThreshold",
          "type": "uint256"
        },
        {
          "internalType": "address",
          "name": "_owner",
          "type": "address"
        },
        {
          "internalType": "uint256",
          "name": "_bond",
          "type": "uint256"
        }
      ],
      "name": "openKeep",
      "outputs": [
        {
          "internalType": "address",
          "name": "",
          "type": "address"
        }
      ],
      "payable": true,
      "stateMutability": "payable",
      "type": "function"
    },
    {
      "constant": false,
      "inputs": [
        {
          "internalType": "uint256",
          "name": "_groupSize",
          "type": "uint256"
        },
        {
          "internalType": "uint256",
          "name": "_honestThreshold",
          "type": "uint256"
        },
        {
          "internalType": "address",
          "name": "_owner",
          "type": "address"
        },
        {
          "internalType": "uint256",
          "name": "_bond",
          "type": "uint256"
        },
        {
          "internalType": "uint256",
          "name": "_stakeLockDuration",
          "type": "uint256"
        }
      ],
      "name": "openKeep",
      "outputs": [
        {
          "internalType": "address",
          "name": "keepAddress",
          "type": "address"
        }
      ],
      "payable": true,
      "stateMutability": "payable",
      "type": "function"
    },
    {
      "constant": true,
      "inputs": [],
      "name": "calculateKeepAddress",
      "outputs": [
        {
          "internalType": "address",
          "name": "",
          "type": "address"
        }
      ],
      "payable": false,
      "stateMutability": "view",
      "type": "function"
    }
  ],
  "bytecode": "0x608060405234801561001057600080fd5b506040516137fd3803806137fd833981810160405260c081101561003357600080fd5b810190808051906020019092919080519060200190929190805190602001909291908051906020019092919080519060200190929190805190602001909291905050508585858585858186806000806101000a81548173ffffffffffffffffffffffffffffffffffffffff021916908373ffffffffffffffffffffffffffffffffffffffff16021790555050600160038190555080600460006101000a81548173ffffffffffffffffffffffffffffffffffffffff021916908373ffffffffffffffffffffffffffffffffffffffff1602179055507f4574c8c75d6e88acd28f7e467dac97b5c60c3838d9dad993900bdf402152228e6006819055505084600860006101000a81548173ffffffffffffffffffffffffffffffffffffffff021916908373ffffffffffffffffffffffffffffffffffffffff16021790555080600b60006101000a81548173ffffffffffffffffffffffffffffffffffffffff021916908373ffffffffffffffffffffffffffffffffffffffff16021790555083600960006101000a81548173ffffffffffffffffffffffffffffffffffffffff021916908373ffffffffffffffffffffffffffffffffffffffff16021790555082600a60006101000a81548173ffffffffffffffffffffffffffffffffffffffff021916908373ffffffffffffffffffffffffffffffffffffffff1602179055505050505050505050505050506135ae8061024f6000396000f3fe6080604052600436106101e35760003560e01c806392ae584a11610102578063b7a6f48311610095578063d14fede111610064578063d14fede114610b9a578063d870c03414610bff578063ebcbb39f14610c68578063eca4a80d14610ccd576101e3565b8063b7a6f483146109eb578063b8ee915614610a74578063bc2c289f14610ac3578063ca050cfd14610aee576101e3565b8063a5a53fb5116100d1578063a5a53fb51461093f578063a5b310551461096a578063aa7517e114610995578063b2dc7593146109c0576101e3565b806392ae584a146107a9578063a10132ad146107fa578063a23af33014610825578063a3c28a13146108ae576101e3565b8063514899851161017a57806367450a911161014957806367450a91146105fc57806370a082311461069e57806379a382e9146107035780638701af421461072e576101e3565b806351489985146104885780635b0d5b8e146104b35780635c1c07101461053c5780635cef8417146105a5576101e3565b8063356e0728116101b6578063356e07281461036257806336c2a0001461039d578063384004001461040657806347b6930514610431576101e3565b806309211ceb146101f55780631133fd2c14610286578063202bb9f0146102dd57806321f74e5614610358575b34600560008282540192505081905550005b34801561020157600080fd5b506102446004803603602081101561021857600080fd5b81019080803573ffffffffffffffffffffffffffffffffffffffff169060200190929190505050610d3e565b604051808273ffffffffffffffffffffffffffffffffffffffff1673ffffffffffffffffffffffffffffffffffffffff16815260200191505060405180910390f35b34801561029257600080fd5b5061029b610e8b565b604051808273ffffffffffffffffffffffffffffffffffffffff1673ffffffffffffffffffffffffffffffffffffffff16815260200191505060405180910390f35b3480156102e957600080fd5b506103166004803603602081101561030057600080fd5b8101908080359060200190929190505050610eb1565b604051808273ffffffffffffffffffffffffffffffffffffffff1673ffffffffffffffffffffffffffffffffffffffff16815260200191505060405180910390f35b610360610f6c565b005b34801561036e57600080fd5b5061039b6004803603602081101561038557600080fd5b81019080803590602001909291905050506111fe565b005b3480156103a957600080fd5b506103ec600480360360208110156103c057600080fd5b81019080803573ffffffffffffffffffffffffffffffffffffffff1690602001909291905050506112cb565b604051808215151515815260200191505060405180910390f35b34801561041257600080fd5b5061041b6113e2565b6040518082815260200191505060405180910390f35b34801561043d57600080fd5b506104466114c4565b604051808273ffffffffffffffffffffffffffffffffffffffff1673ffffffffffffffffffffffffffffffffffffffff16815260200191505060405180910390f35b34801561049457600080fd5b5061049d6114f5565b6040518082815260200191505060405180910390f35b3480156104bf57600080fd5b50610522600480360360408110156104d657600080fd5b81019080803573ffffffffffffffffffffffffffffffffffffffff169060200190929190803573ffffffffffffffffffffffffffffffffffffffff1690602001909291905050506115ac565b604051808215151515815260200191505060405180910390f35b34801561054857600080fd5b5061058b6004803603602081101561055f57600080fd5b81019080803573ffffffffffffffffffffffffffffffffffffffff169060200190929190505050611770565b604051808215151515815260200191505060405180910390f35b3480156105b157600080fd5b506105ba611887565b604051808273ffffffffffffffffffffffffffffffffffffffff1673ffffffffffffffffffffffffffffffffffffffff16815260200191505060405180910390f35b61065c6004803603608081101561061257600080fd5b810190808035906020019092919080359060200190929190803573ffffffffffffffffffffffffffffffffffffffff169060200190929190803590602001909291905050506118ac565b604051808273ffffffffffffffffffffffffffffffffffffffff1673ffffffffffffffffffffffffffffffffffffffff16815260200191505060405180910390f35b3480156106aa57600080fd5b506106ed600480360360208110156106c157600080fd5b81019080803573ffffffffffffffffffffffffffffffffffffffff1690602001909291905050506118c0565b6040518082815260200191505060405180910390f35b34801561070f57600080fd5b506107186119a3565b6040518082815260200191505060405180910390f35b34801561073a57600080fd5b506107676004803603602081101561075157600080fd5b81019080803590602001909291905050506119a9565b604051808273ffffffffffffffffffffffffffffffffffffffff1673ffffffffffffffffffffffffffffffffffffffff16815260200191505060405180910390f35b3480156107b557600080fd5b506107f8600480360360208110156107cc57600080fd5b81019080803573ffffffffffffffffffffffffffffffffffffffff1690602001909291905050506119e5565b005b34801561080657600080fd5b5061080f611b50565b6040518082815260200191505060405180910390f35b34801561083157600080fd5b506108946004803603604081101561084857600080fd5b81019080803573ffffffffffffffffffffffffffffffffffffffff169060200190929190803573ffffffffffffffffffffffffffffffffffffffff169060200190929190505050611b56565b604051808215151515815260200191505060405180910390f35b3480156108ba57600080fd5b506108fd600480360360208110156108d157600080fd5b81019080803573ffffffffffffffffffffffffffffffffffffffff169060200190929190505050611c21565b604051808273ffffffffffffffffffffffffffffffffffffffff1673ffffffffffffffffffffffffffffffffffffffff16815260200191505060405180910390f35b34801561094b57600080fd5b50610954611e90565b6040518082815260200191505060405180910390f35b34801561097657600080fd5b5061097f611e9c565b6040518082815260200191505060405180910390f35b3480156109a157600080fd5b506109aa611ea2565b6040518082815260200191505060405180910390f35b3480156109cc57600080fd5b506109d5611eaf565b6040518082815260200191505060405180910390f35b3480156109f757600080fd5b50610a5a60048036036040811015610a0e57600080fd5b81019080803573ffffffffffffffffffffffffffffffffffffffff169060200190929190803573ffffffffffffffffffffffffffffffffffffffff169060200190929190505050611ebc565b604051808215151515815260200191505060405180910390f35b348015610a8057600080fd5b50610ac160048036036060811015610a9757600080fd5b81019080803590602001909291908035906020019092919080359060200190929190505050612080565b005b348015610acf57600080fd5b50610ad8612107565b6040518082815260200191505060405180910390f35b610b58600480360360a0811015610b0457600080fd5b810190808035906020019092919080359060200190929190803573ffffffffffffffffffffffffffffffffffffffff1690602001909291908035906020019092919080359060200190929190505050612116565b604051808273ffffffffffffffffffffffffffffffffffffffff1673ffffffffffffffffffffffffffffffffffffffff16815260200191505060405180910390f35b348015610ba657600080fd5b50610be960048036036020811015610bbd57600080fd5b81019080803573ffffffffffffffffffffffffffffffffffffffff169060200190929190505050612a43565b6040518082815260200191505060405180910390f35b348015610c0b57600080fd5b50610c4e60048036036020811015610c2257600080fd5b81019080803573ffffffffffffffffffffffffffffffffffffffff169060200190929190505050612a8c565b604051808215151515815260200191505060405180910390f35b348015610c7457600080fd5b50610cb760048036036020811015610c8b57600080fd5b81019080803573ffffffffffffffffffffffffffffffffffffffff169060200190929190505050612ad7565b6040518082815260200191505060405180910390f35b348015610cd957600080fd5b50610d3c60048036036040811015610cf057600080fd5b81019080803573ffffffffffffffffffffffffffffffffffffffff169060200190929190803573ffffffffffffffffffffffffffffffffffffffff169060200190929190505050612b69565b005b60008073ffffffffffffffffffffffffffffffffffffffff16600760008473ffffffffffffffffffffffffffffffffffffffff1673ffffffffffffffffffffffffffffffffffffffff16815260200190815260200160002060009054906101000a900473ffffffffffffffffffffffffffffffffffffffff1673ffffffffffffffffffffffffffffffffffffffff161415610e24576040517f08c379a000000000000000000000000000000000000000000000000000000000815260040180806020018281038252602181526020018061350c6021913960400191505060405180910390fd5b600760008373ffffffffffffffffffffffffffffffffffffffff1673ffffffffffffffffffffffffffffffffffffffff16815260200190815260200160002060009054906101000a900473ffffffffffffffffffffffffffffffffffffffff169050919050565b600b60009054906101000a900473ffffffffffffffffffffffffffffffffffffffff1681565b60006001805490508210610f2d576040517f08c379a000000000000000000000000000000000000000000000000000000000815260040180806020018281038252600e8152602001807f4f7574206f6620626f756e64732e00000000000000000000000000000000000081525060200191505060405180910390fd5b60018281548110610f3a57fe5b9060005260206000200160009054906101000a900473ffffffffffffffffffffffffffffffffffffffff169050919050565b600160036000828254019250508190555060006003549050610f9934600554612c0d90919063ffffffff16565b6005819055506000600460009054906101000a900473ffffffffffffffffffffffffffffffffffffffff1673ffffffffffffffffffffffffffffffffffffffff1663d13f13916175306040518263ffffffff1660e01b81526004018082815260200191505060206040518083038186803b15801561101657600080fd5b505afa15801561102a573d6000803e3d6000fd5b505050506040513d602081101561104057600080fd5b810190808051906020019092919050505090508060055410156110ae576040517f08c379a00000000000000000000000000000000000000000000000000000000081526004018080602001828103825260228152602001806135586022913960400191505060405180910390fd5b6110c381600554612c9590919063ffffffff16565b600581905550600060606110d683612d1e565b915091508161118157806040517f08c379a00000000000000000000000000000000000000000000000000000000081526004018080602001828103825283818151815260200191508051906020019080838360005b8381101561114657808201518184015260208101905061112b565b50505050905090810190601f1680156111735780820380516001836020036101000a031916815260200191505b509250505060405180910390fd5b50505060035481146111fb576040517f08c379a000000000000000000000000000000000000000000000000000000000815260040180806020018281038252601f8152602001807f5265656e7472616e637947756172643a207265656e7472616e742063616c6c0081525060200191505060405180910390fd5b50565b3373ffffffffffffffffffffffffffffffffffffffff16600460009054906101000a900473ffffffffffffffffffffffffffffffffffffffff1673ffffffffffffffffffffffffffffffffffffffff16146112c1576040517f08c379a000000000000000000000000000000000000000000000000000000000815260040180806020018281038252601f8152602001807f43616c6c6572206973206e6f74207468652072616e646f6d20626561636f6e0081525060200191505060405180910390fd5b8060068190555050565b6000600960009054906101000a900473ffffffffffffffffffffffffffffffffffffffff1673ffffffffffffffffffffffffffffffffffffffff1663ef1f966183306040518363ffffffff1660e01b8152600401808373ffffffffffffffffffffffffffffffffffffffff1673ffffffffffffffffffffffffffffffffffffffff1681526020018273ffffffffffffffffffffffffffffffffffffffff1673ffffffffffffffffffffffffffffffffffffffff1681526020019250505060206040518083038186803b1580156113a057600080fd5b505afa1580156113b4573d6000803e3d6000fd5b505050506040513d60208110156113ca57600080fd5b81019080805190602001909291905050509050919050565b600080600460009054906101000a900473ffffffffffffffffffffffffffffffffffffffff1673ffffffffffffffffffffffffffffffffffffffff1663d13f13916175306040518263ffffffff1660e01b81526004018082815260200191505060206040518083038186803b15801561145a57600080fd5b505afa15801561146e573d6000803e3d6000fd5b505050506040513d602081101561148457600080fd5b810190808051906020019092919050505090506005548111156114bb576114b660055482612c9590919063ffffffff16565b6114be565b60005b91505090565b6000803073ffffffffffffffffffffffffffffffffffffffff16905064e8d4a5100081816114ee57fe5b0691505090565b6000600460009054906101000a900473ffffffffffffffffffffffffffffffffffffffff1673ffffffffffffffffffffffffffffffffffffffff1663d13f13916175306040518263ffffffff1660e01b81526004018082815260200191505060206040518083038186803b15801561156c57600080fd5b505afa158015611580573d6000803e3d6000fd5b505050506040513d602081101561159657600080fd5b8101908080519060200190929190505050905090565b60008073ffffffffffffffffffffffffffffffffffffffff16600760008473ffffffffffffffffffffffffffffffffffffffff1673ffffffffffffffffffffffffffffffffffffffff16815260200190815260200160002060009054906101000a900473ffffffffffffffffffffffffffffffffffffffff1673ffffffffffffffffffffffffffffffffffffffff16141561164a576000905061176a565b6000600760008473ffffffffffffffffffffffffffffffffffffffff1673ffffffffffffffffffffffffffffffffffffffff16815260200190815260200160002060009054906101000a900473ffffffffffffffffffffffffffffffffffffffff1690508073ffffffffffffffffffffffffffffffffffffffff1663b4766856856040518263ffffffff1660e01b8152600401808273ffffffffffffffffffffffffffffffffffffffff1673ffffffffffffffffffffffffffffffffffffffff16815260200191505060206040518083038186803b15801561172b57600080fd5b505afa15801561173f573d6000803e3d6000fd5b505050506040513d602081101561175557600080fd5b81019080805190602001909291905050509150505b92915050565b6000600960009054906101000a900473ffffffffffffffffffffffffffffffffffffffff1673ffffffffffffffffffffffffffffffffffffffff166310a63ec083306040518363ffffffff1660e01b8152600401808373ffffffffffffffffffffffffffffffffffffffff1673ffffffffffffffffffffffffffffffffffffffff1681526020018273ffffffffffffffffffffffffffffffffffffffff1673ffffffffffffffffffffffffffffffffffffffff1681526020019250505060206040518083038186803b15801561184557600080fd5b505afa158015611859573d6000803e3d6000fd5b505050506040513d602081101561186f57600080fd5b81019080805190602001909291905050509050919050565b6000809054906101000a900473ffffffffffffffffffffffffffffffffffffffff1681565b60006118b66114c4565b9050949350505050565b6000600960009054906101000a900473ffffffffffffffffffffffffffffffffffffffff1673ffffffffffffffffffffffffffffffffffffffff166370a08231836040518263ffffffff1660e01b8152600401808273ffffffffffffffffffffffffffffffffffffffff1673ffffffffffffffffffffffffffffffffffffffff16815260200191505060206040518083038186803b15801561196157600080fd5b505afa158015611975573d6000803e3d6000fd5b505050506040513d602081101561198b57600080fd5b81019080805190602001909291905050509050919050565b60065481565b600181815481106119b657fe5b906000526020600020016000915054906101000a900473ffffffffffffffffffffffffffffffffffffffff1681565b60006119f082610d3e565b905060003390508173ffffffffffffffffffffffffffffffffffffffff1663f7186ce0826040518263ffffffff1660e01b8152600401808273ffffffffffffffffffffffffffffffffffffffff1673ffffffffffffffffffffffffffffffffffffffff16815260200191505060206040518083038186803b158015611a7457600080fd5b505afa158015611a88573d6000803e3d6000fd5b505050506040513d6020811015611a9e57600080fd5b8101908080519060200190929190505050611b4b578173ffffffffffffffffffffffffffffffffffffffff16631ae0e73d826040518263ffffffff1660e01b8152600401808273ffffffffffffffffffffffffffffffffffffffff1673ffffffffffffffffffffffffffffffffffffffff168152602001915050600060405180830381600087803b158015611b3257600080fd5b505af1158015611b46573d6000803e3d6000fd5b505050505b505050565b61753081565b6000611b628383612ec4565b73ffffffffffffffffffffffffffffffffffffffff1663e686440f846040518263ffffffff1660e01b8152600401808273ffffffffffffffffffffffffffffffffffffffff1673ffffffffffffffffffffffffffffffffffffffff16815260200191505060206040518083038186803b158015611bde57600080fd5b505afa158015611bf2573d6000803e3d6000fd5b505050506040513d6020811015611c0857600080fd5b8101908080519060200190929190505050905092915050565b60008073ffffffffffffffffffffffffffffffffffffffff16600760008473ffffffffffffffffffffffffffffffffffffffff1673ffffffffffffffffffffffffffffffffffffffff16815260200190815260200160002060009054906101000a900473ffffffffffffffffffffffffffffffffffffffff1673ffffffffffffffffffffffffffffffffffffffff1614611d23576040517f08c379a000000000000000000000000000000000000000000000000000000000815260040180806020018281038252601d8152602001807f536f72746974696f6e20706f6f6c20616c72656164792065786973747300000081525060200191505060405180910390fd5b6000611d2e83612f8d565b905080600760008573ffffffffffffffffffffffffffffffffffffffff1673ffffffffffffffffffffffffffffffffffffffff16815260200190815260200160002060006101000a81548173ffffffffffffffffffffffffffffffffffffffff021916908373ffffffffffffffffffffffffffffffffffffffff1602179055508273ffffffffffffffffffffffffffffffffffffffff167f693c68cd964926544cbaee02b00d9352aa98c6de2484515e8bd74130c005e6af82604051808273ffffffffffffffffffffffffffffffffffffffff1673ffffffffffffffffffffffffffffffffffffffff16815260200191505060405180910390a2600760008473ffffffffffffffffffffffffffffffffffffffff1673ffffffffffffffffffffffffffffffffffffffff16815260200190815260200160002060009054906101000a900473ffffffffffffffffffffffffffffffffffffffff16915050919050565b670de0b6b3a764000081565b60055481565b6801158e460913d0000081565b6000600180549050905090565b60008073ffffffffffffffffffffffffffffffffffffffff16600760008473ffffffffffffffffffffffffffffffffffffffff1673ffffffffffffffffffffffffffffffffffffffff16815260200190815260200160002060009054906101000a900473ffffffffffffffffffffffffffffffffffffffff1673ffffffffffffffffffffffffffffffffffffffff161415611f5a576000905061207a565b6000600760008473ffffffffffffffffffffffffffffffffffffffff1673ffffffffffffffffffffffffffffffffffffffff16815260200190815260200160002060009054906101000a900473ffffffffffffffffffffffffffffffffffffffff1690508073ffffffffffffffffffffffffffffffffffffffff16636b1906f8856040518263ffffffff1660e01b8152600401808273ffffffffffffffffffffffffffffffffffffffff1673ffffffffffffffffffffffffffffffffffffffff16815260200191505060206040518083038186803b15801561203b57600080fd5b505afa15801561204f573d6000803e3d6000fd5b505050506040513d602081101561206557600080fd5b81019080805190602001909291905050509150505b92915050565b600061208c84846131b5565b905061209733610d3e565b73ffffffffffffffffffffffffffffffffffffffff166334ce30f0826040518263ffffffff1660e01b815260040180828152602001915050600060405180830381600087803b1580156120e957600080fd5b505af11580156120fd573d6000803e3d6000fd5b5050505050505050565b60006121116114f5565b905090565b6000600160036000828254019250508190555060006003549050600087116121a6576040517f08c379a000000000000000000000000000000000000000000000000000000000815260040180806020018281038252601f8152602001807f4d696e696d756d207369676e696e672067726f75702073697a6520697320310081525060200191505060405180910390fd5b601087111561221d576040517f08c379a00000000000000000000000000000000000000000000000000000000081526004018080602001828103825260208152602001807f4d6178696d756d207369676e696e672067726f75702073697a6520697320313681525060200191505060405180910390fd5b60008611612276576040517f08c379a00000000000000000000000000000000000000000000000000000000081526004018080602001828103825260278152602001806134e56027913960400191505060405180910390fd5b868611156122cf576040517f08c379a00000000000000000000000000000000000000000000000000000000081526004018080602001828103825260358152602001806134876035913960400191505060405180910390fd5b600033905060006122df82610d3e565b905060006122ed878b6131b5565b905060008111612348576040517f08c379a00000000000000000000000000000000000000000000000000000000081526004018080602001828103825260298152602001806134bc6029913960400191505060405180910390fd5b612350612107565b3410156123a8576040517f08c379a000000000000000000000000000000000000000000000000000000000815260040180806020018281038252602b81526020018061345c602b913960400191505060405180910390fd5b6000600960009054906101000a900473ffffffffffffffffffffffffffffffffffffffff1673ffffffffffffffffffffffffffffffffffffffff1663ec5ffac26040518163ffffffff1660e01b815260040160206040518083038186803b15801561241257600080fd5b505afa158015612426573d6000803e3d6000fd5b505050506040513d602081101561243c57600080fd5b8101908080519060200190929190505050905060608373ffffffffffffffffffffffffffffffffffffffff1663a2cca6a28d60065460001b85876040518563ffffffff1660e01b815260040180858152602001848152602001838152602001828152602001945050505050600060405180830381600087803b1580156124c157600080fd5b505af11580156124d5573d6000803e3d6000fd5b505050506040513d6000823e3d601f19601f8201168201806040525060208110156124ff57600080fd5b810190808051604051939291908464010000000082111561251f57600080fd5b8382019150602082018581111561253557600080fd5b825186602082028301116401000000008211171561255257600080fd5b8083526020830192505050908051906020019060200280838360005b8381101561258957808201518184015260208101905061256e565b5050505090500160405250505090506125a06131f7565b6125a8613287565b96508673ffffffffffffffffffffffffffffffffffffffff166379a804918b838e868d600960009054906101000a900473ffffffffffffffffffffffffffffffffffffffff16600a60009054906101000a900473ffffffffffffffffffffffffffffffffffffffff16306040518963ffffffff1660e01b8152600401808973ffffffffffffffffffffffffffffffffffffffff1673ffffffffffffffffffffffffffffffffffffffff168152602001806020018881526020018781526020018681526020018573ffffffffffffffffffffffffffffffffffffffff1673ffffffffffffffffffffffffffffffffffffffff1681526020018473ffffffffffffffffffffffffffffffffffffffff1673ffffffffffffffffffffffffffffffffffffffff1681526020018373ffffffffffffffffffffffffffffffffffffffff1673ffffffffffffffffffffffffffffffffffffffff168152602001828103825289818151815260200191508051906020019060200280838360005b8381101561273e578082015181840152602081019050612723565b505050509050019950505050505050505050600060405180830381600087803b15801561276a57600080fd5b505af115801561277e573d6000803e3d6000fd5b5050505060008090505b8c8110156128f757600a60009054906101000a900473ffffffffffffffffffffffffffffffffffffffff1673ffffffffffffffffffffffffffffffffffffffff1663d20a62fc8383815181106127da57fe5b60200260200101518a8b73ffffffffffffffffffffffffffffffffffffffff16888a6040518663ffffffff1660e01b8152600401808673ffffffffffffffffffffffffffffffffffffffff1673ffffffffffffffffffffffffffffffffffffffff1681526020018573ffffffffffffffffffffffffffffffffffffffff1673ffffffffffffffffffffffffffffffffffffffff1681526020018481526020018381526020018273ffffffffffffffffffffffffffffffffffffffff1673ffffffffffffffffffffffffffffffffffffffff16815260200195505050505050600060405180830381600087803b1580156128d257600080fd5b505af11580156128e6573d6000803e3d6000fd5b505050508080600101915050612788565b508473ffffffffffffffffffffffffffffffffffffffff168a73ffffffffffffffffffffffffffffffffffffffff168873ffffffffffffffffffffffffffffffffffffffff167f7c030f3f8c902fa5a59193f1e3c08ae7245fc0e3b7ab290b6a9548a57a46ac60848f6040518080602001838152602001828103825284818151815260200191508051906020019060200280838360005b838110156129a957808201518184015260208101905061298e565b50505050905001935050505060405180910390a450505050506003548114612a39576040517f08c379a000000000000000000000000000000000000000000000000000000000815260040180806020018281038252601f8152602001807f5265656e7472616e637947756172643a207265656e7472616e742063616c6c0081525060200191505060405180910390fd5b5095945050505050565b6000600260008373ffffffffffffffffffffffffffffffffffffffff1673ffffffffffffffffffffffffffffffffffffffff168152602001908152602001600020549050919050565b600080600260008473ffffffffffffffffffffffffffffffffffffffff1673ffffffffffffffffffffffffffffffffffffffff16815260200190815260200160002054119050919050565b6000612ae282610d3e565b73ffffffffffffffffffffffffffffffffffffffff166396c82e576040518163ffffffff1660e01b815260040160206040518083038186803b158015612b2757600080fd5b505afa158015612b3b573d6000803e3d6000fd5b505050506040513d6020811015612b5157600080fd5b81019080805190602001909291905050509050919050565b612b738282612ec4565b73ffffffffffffffffffffffffffffffffffffffff16631c5b0762836040518263ffffffff1660e01b8152600401808273ffffffffffffffffffffffffffffffffffffffff1673ffffffffffffffffffffffffffffffffffffffff168152602001915050600060405180830381600087803b158015612bf157600080fd5b505af1158015612c05573d6000803e3d6000fd5b505050505050565b600080828401905083811015612c8b576040517f08c379a000000000000000000000000000000000000000000000000000000000815260040180806020018281038252601b8152602001807f536166654d6174683a206164646974696f6e206f766572666c6f77000000000081525060200191505060405180910390fd5b8091505092915050565b600082821115612d0d576040517f08c379a000000000000000000000000000000000000000000000000000000000815260040180806020018281038252601e8152602001807f536166654d6174683a207375627472616374696f6e206f766572666c6f77000081525060200191505060405180910390fd5b600082840390508091505092915050565b60006060600460009054906101000a900473ffffffffffffffffffffffffffffffffffffffff1673ffffffffffffffffffffffffffffffffffffffff168330617530604051602401808373ffffffffffffffffffffffffffffffffffffffff1673ffffffffffffffffffffffffffffffffffffffff168152602001828152602001925050506040516020818303038152906040527fe1f95890000000000000000000000000000000000000000000000000000000007bffffffffffffffffffffffffffffffffffffffffffffffffffffffff19166020820180517bffffffffffffffffffffffffffffffffffffffffffffffffffffffff83818316178352505050506040518082805190602001908083835b60208310612e535780518252602082019150602081019050602083039250612e30565b6001836020036101000a03801982511681845116808217855250505050505090500191505060006040518083038185875af1925050503d8060008114612eb5576040519150601f19603f3d011682016040523d82523d6000602084013e612eba565b606091505b5091509150915091565b6000612ed08383611ebc565b612f25576040517f08c379a000000000000000000000000000000000000000000000000000000000815260040180806020018281038252602b81526020018061352d602b913960400191505060405180910390fd5b600760008373ffffffffffffffffffffffffffffffffffffffff1673ffffffffffffffffffffffffffffffffffffffff16815260200190815260200160002060009054906101000a900473ffffffffffffffffffffffffffffffffffffffff16905092915050565b6000600860009054906101000a900473ffffffffffffffffffffffffffffffffffffffff1673ffffffffffffffffffffffffffffffffffffffff166356385578600960009054906101000a900473ffffffffffffffffffffffffffffffffffffffff16600a60009054906101000a900473ffffffffffffffffffffffffffffffffffffffff16600960009054906101000a900473ffffffffffffffffffffffffffffffffffffffff1673ffffffffffffffffffffffffffffffffffffffff1663ec5ffac26040518163ffffffff1660e01b815260040160206040518083038186803b15801561307b57600080fd5b505afa15801561308f573d6000803e3d6000fd5b505050506040513d60208110156130a557600080fd5b81019080805190602001909291905050506801158e460913d00000670de0b6b3a76400006040518663ffffffff1660e01b8152600401808673ffffffffffffffffffffffffffffffffffffffff1673ffffffffffffffffffffffffffffffffffffffff1681526020018573ffffffffffffffffffffffffffffffffffffffff1673ffffffffffffffffffffffffffffffffffffffff16815260200184815260200183815260200182815260200195505050505050602060405180830381600087803b15801561317357600080fd5b505af1158015613187573d6000803e3d6000fd5b505050506040513d602081101561319d57600080fd5b81019080805190602001909291905050509050919050565b60006131ef826131e160016131d38688612c0d90919063ffffffff16565b612c9590919063ffffffff16565b61336290919063ffffffff16565b905092915050565b60065430604051602001808381526020018273ffffffffffffffffffffffffffffffffffffffff1673ffffffffffffffffffffffffffffffffffffffff1660601b8152601401925050506040516020818303038152906040528051906020012060001c600681905550600061326b34612d1e565b5090508061328457346005600082825401925050819055505b50565b60006132b36000809054906101000a900473ffffffffffffffffffffffffffffffffffffffff166133f1565b905060018190806001815401808255809150509060018203906000526020600020016000909192909190916101000a81548173ffffffffffffffffffffffffffffffffffffffff021916908373ffffffffffffffffffffffffffffffffffffffff1602179055505042600260008373ffffffffffffffffffffffffffffffffffffffff1673ffffffffffffffffffffffffffffffffffffffff1681526020019081526020016000208190555090565b60008082116133d9576040517f08c379a000000000000000000000000000000000000000000000000000000000815260040180806020018281038252601a8152602001807f536166654d6174683a206469766973696f6e206279207a65726f00000000000081525060200191505060405180910390fd5b60008284816133e457fe5b0490508091505092915050565b6000808260601b90506040517f3d602d80600a3d3981f3363d3d373d3d3d363d7300000000000000000000000081528160148201527f5af43d82803e903d91602b57fd5bf3000000000000000000000000000000000060288201526037816000f09250505091905056fe496e73756666696369656e74207061796d656e7420666f72206f70656e696e672061206e6577206b656570486f6e657374207468726573686f6c64206d757374206265206c657373206f7220657175616c207468652067726f75702073697a65426f6e6420706572206d656d626572206d7573742062652067726561746572207468616e207a65726f486f6e657374207468726573686f6c64206d7573742062652067726561746572207468616e20304e6f20706f6f6c20666f756e6420666f7220746865206170706c69636174696f6e4f70657261746f72206e6f74207265676973746572656420666f7220746865206170706c69636174696f6e4e6f7420656e6f7567682066756e647320746f207472696767657220726573656564a265627a7a7231582061634b1c1a84392d73901e04f29b5b7c9318d8735d128b186efeaad13d987aee64736f6c63430005110032",
  "source": "pragma solidity 0.5.17;\n\nimport \"../../contracts/BondedECDSAKeepFactory.sol\";\n\n/// @title Bonded ECDSA Keep Factory Stub for vendor testing\n/// @dev This contract is for testing purposes only.\ncontract BondedECDSAKeepFactoryVendorStub is BondedECDSAKeepFactory {\n    constructor(\n        address masterBondedECDSAKeepAddress,\n        address sortitionPoolFactory,\n        address tokenStaking,\n        address keepBonding,\n        address randomBeacon,\n        address _bondTokenAddress\n    )\n        public\n        BondedECDSAKeepFactory(\n            masterBondedECDSAKeepAddress,\n            sortitionPoolFactory,\n            tokenStaking,\n            keepBonding,\n            randomBeacon,\n            _bondTokenAddress\n        )\n    {}\n\n    // @dev Returns calculated keep address.\n    function openKeep(\n        uint256 _groupSize,\n        uint256 _honestThreshold,\n        address _owner,\n        uint256 _bond\n    ) public payable returns (address) {\n        _groupSize;\n        _honestThreshold;\n        _owner;\n        _bond;\n\n        return calculateKeepAddress();\n    }\n\n    /// @dev Calculates an address for a keep based on the address of the factory.\n    /// We need it to have predictable addresses for factories verification.\n    function calculateKeepAddress() public view returns (address) {\n        uint256 factoryAddressInt = uint256(address(this));\n        return address(factoryAddressInt % 1000000000000);\n    }\n}\n",
  "sourcePath": "/home/kowal/Projects/sovryn/keep-ecdsa/solidity/contracts/test/BondedECDSAKeepFactoryVendorStub.sol",
  "compiler": {
    "name": "solc",
    "version": "0.5.17+commit.d19bba13.Emscripten.clang"
  },
  "schemaVersion": "3.0.22",
  "updatedAt": "2021-01-29T17:36:47.964Z",
  "devdoc": {
    "details": "This contract is for testing purposes only.",
    "methods": {
      "__beaconCallback(uint256)": {
        "details": "The function is expected to be called in a callback by the random beacon.",
        "params": {
          "_relayEntry": "Beacon output."
        }
      },
      "__isRecognized(address)": {
        "params": {
          "_delegatedAuthorityRecipient": "Address of the delegated authority recipient."
        },
        "return": "True if provided address is recognized delegated token staking authority for this factory contract."
      },
      "balanceOf(address)": {
        "params": {
          "_operator": "The operator to query the balance of."
        },
        "return": "An uint256 representing the amount staked by the passed operator."
      },
      "calculateKeepAddress()": {
        "details": "Calculates an address for a keep based on the address of the factory. We need it to have predictable addresses for factories verification."
      },
      "createSortitionPool(address)": {
        "details": "Emits an event after sortition pool creation.",
        "params": {
          "_application": "Address of the application."
        },
        "return": "Address of the created sortition pool contract."
      },
      "getKeepAtIndex(uint256)": {
        "return": "The address of the keep at the given index."
      },
      "getKeepCount()": {
        "details": "Checks the size of the keeps array.",
        "return": "The number of keeps opened so far."
      },
      "getKeepOpenedTimestamp(address)": {
        "return": "Timestamp the given keep was opened at or 0 if this keep was not created by this factory."
      },
      "getSortitionPool(address)": {
        "details": "Reverts if sortition does not exist for the application.",
        "params": {
          "_application": "Address of the application."
        },
        "return": "Address of the sortition pool contract."
      },
      "getSortitionPoolWeight(address)": {
        "details": "Reverts if sortition does not exits for the application.",
        "params": {
          "_application": "Address of the application."
        },
        "return": "The sum of all registered operators' weights in the pool. Reverts if sortition pool for the application does not exist."
      },
      "hasMinimumStake(address)": {
        "params": {
          "_operator": "operator's address"
        },
        "return": "True if has enough active stake to participate in the network, false otherwise."
      },
      "isOperatorAuthorized(address)": {
        "params": {
          "_operator": "operator's address"
        },
        "return": "True if the factory has access to the staked token balance of the provided operator and can slash that stake. False otherwise."
      },
      "isOperatorEligible(address,address)": {
        "params": {
          "_application": "Customer application address.",
          "_operator": "Operator's address."
        }
      },
      "isOperatorRegistered(address,address)": {
        "params": {
          "_application": "Customer application address.",
          "_operator": "Operator's address."
        },
        "return": "True if operator is already registered in the candidates pool, false otherwise."
      },
      "isOperatorUpToDate(address,address)": {
        "params": {
          "_application": "Customer application address.",
          "_operator": "Operator's address."
        }
      },
      "newEntryFeeEstimate()": {
        "return": "Uint256 estimate."
      },
      "openKeep(uint256,uint256,address,uint256,uint256)": {
        "details": "Selects a list of signers for the keep based on provided parameters. A caller of this function is expected to be an application for which member candidates were registered in a pool.",
        "params": {
          "_bond": "Value of ETH bond required from the keep in wei.",
          "_groupSize": "Number of signers in the keep.",
          "_honestThreshold": "Minimum number of honest keep signers.",
          "_owner": "Address of the keep owner.",
          "_stakeLockDuration": "Stake lock duration in seconds."
        },
        "return": "Created keep address."
      },
      "openKeepFeeEstimate()": {
        "return": "Uint256 estimate."
      },
      "registerMemberCandidate(address)": {
        "details": "If caller is already registered it returns without any changes.",
        "params": {
          "_application": "Address of the application."
        }
      },
      "setMinimumBondableValue(uint256,uint256,uint256)": {
        "params": {
          "_groupSize": "Number of signers in the keep.",
          "_honestThreshold": "Minimum number of honest keep signers.",
          "_minimumBondableValue": "The minimum bond value the application requires from a single keep."
        }
      },
      "updateOperatorStatus(address,address)": {
        "params": {
          "_application": "Customer application address.",
          "_operator": "Operator's address."
        }
      }
    },
    "title": "Bonded ECDSA Keep Factory Stub for vendor testing"
  },
  "userdoc": {
    "methods": {
      "__beaconCallback(uint256)": {
        "notice": "Sets a new group selection seed value."
      },
      "__isRecognized(address)": {
        "notice": "Verifies if delegates authority recipient is valid address recognized by the factory for token staking authority delegation."
      },
      "balanceOf(address)": {
        "notice": "Gets the stake balance of the specified operator."
      },
      "createSortitionPool(address)": {
        "notice": "Creates new sortition pool for the application."
      },
      "getKeepAtIndex(uint256)": {
        "notice": "Gets a specific keep address at a given index."
      },
      "getKeepCount()": {
        "notice": "Gets how many keeps have been opened by this contract."
      },
      "getKeepOpenedTimestamp(address)": {
        "notice": "Gets the opened timestamp of the given keep."
      },
      "getSortitionPool(address)": {
        "notice": "Gets the sortition pool address for the given application."
      },
      "getSortitionPoolWeight(address)": {
        "notice": "Gets the total weight of operators in the sortition pool for the given application."
      },
      "hasMinimumStake(address)": {
        "notice": "Checks if the specified account has enough active stake to become network operator and that this contract has been authorized for potential slashing.     /// Having the required minimum of active stake makes the operator eligible to join the network. If the active stake is not currently undelegating, operator is also eligible for work selection. "
      },
      "isOperatorAuthorized(address)": {
        "notice": "Checks if the factory has the authorization to operate on stake represented by the provided operator. "
      },
      "isOperatorEligible(address,address)": {
        "notice": "Checks if given operator is eligible for the given application."
      },
      "isOperatorRegistered(address,address)": {
        "notice": "Checks if operator is registered as a candidate for the given customer application."
      },
      "isOperatorUpToDate(address,address)": {
        "notice": "Checks if operator's details in the member candidates pool are up to date for the given application. If not update operator status function should be called by the one who is monitoring the status."
      },
      "newEntryFeeEstimate()": {
        "notice": "Gets a fee estimate for a new random entry."
      },
      "newGroupSelectionSeedFee()": {
        "notice": "Calculates the fee requestor has to pay to reseed the factory for signer selection. Depending on how much value is stored in the reseed pool and the price of a new relay entry, returned value may vary."
      },
      "openKeep(uint256,uint256,address,uint256,uint256)": {
        "notice": "Opens a new ECDSA keep."
      },
      "openKeepFeeEstimate()": {
        "notice": "Gets a fee estimate for opening a new keep."
      },
      "registerMemberCandidate(address)": {
        "notice": "Register caller as a candidate to be selected as keep member for the provided customer application."
      },
      "requestNewGroupSelectionSeed()": {
        "notice": "Reseeds the value used for a signer selection. Requires enough payment to be passed. The required payment can be calculated using reseedFee function. Factory is automatically triggering reseeding after opening a new keep but the reseed can be also triggered at any moment using this function."
      },
      "setMinimumBondableValue(uint256,uint256,uint256)": {
        "notice": "Sets the minimum bondable value required from the operator to join the sortition pool of the given application. It is up to the application to specify a reasonable minimum bond for operators trying to join the pool to prevent griefing by operators joining without enough bondable value."
      },
      "updateOperatorStatus(address,address)": {
        "notice": "Invokes update of operator's details in the member candidates pool for the given application"
      }
    }
  }
}