{
  "contractName": "BondedECDSAKeepFactoryStub",
  "abi": [
    {
      "inputs": [
        {
          "internalType": "address",
          "name": "masterBondedECDSAKeepAddress",
          "type": "address"
        },
        {
          "internalType": "address",
          "name": "sortitionPoolFactory",
          "type": "address"
        },
        {
          "internalType": "address",
          "name": "tokenStaking",
          "type": "address"
        },
        {
          "internalType": "address",
          "name": "keepBonding",
          "type": "address"
        },
        {
          "internalType": "address",
          "name": "randomBeacon",
          "type": "address"
        },
        {
          "internalType": "address",
          "name": "_bondTokenAddress",
          "type": "address"
        }
      ],
      "payable": false,
      "stateMutability": "nonpayable",
      "type": "constructor"
    },
    {
      "anonymous": false,
      "inputs": [
        {
          "indexed": true,
          "internalType": "address",
          "name": "keepAddress",
          "type": "address"
        },
        {
          "indexed": false,
          "internalType": "address[]",
          "name": "members",
          "type": "address[]"
        },
        {
          "indexed": true,
          "internalType": "address",
          "name": "owner",
          "type": "address"
        },
        {
          "indexed": true,
          "internalType": "address",
          "name": "application",
          "type": "address"
        },
        {
          "indexed": false,
          "internalType": "uint256",
          "name": "honestThreshold",
          "type": "uint256"
        }
      ],
      "name": "BondedECDSAKeepCreated",
      "type": "event"
    },
    {
      "anonymous": false,
      "inputs": [
        {
          "indexed": true,
          "internalType": "address",
          "name": "application",
          "type": "address"
        },
        {
          "indexed": false,
          "internalType": "address",
          "name": "sortitionPool",
          "type": "address"
        }
      ],
      "name": "SortitionPoolCreated",
      "type": "event"
    },
    {
      "payable": true,
      "stateMutability": "payable",
      "type": "fallback"
    },
    {
      "constant": false,
      "inputs": [
        {
          "internalType": "uint256",
          "name": "_relayEntry",
          "type": "uint256"
        }
      ],
      "name": "__beaconCallback",
      "outputs": [],
      "payable": false,
      "stateMutability": "nonpayable",
      "type": "function"
    },
    {
      "constant": false,
      "inputs": [
        {
          "internalType": "address",
          "name": "_delegatedAuthorityRecipient",
          "type": "address"
        }
      ],
      "name": "__isRecognized",
      "outputs": [
        {
          "internalType": "bool",
          "name": "",
          "type": "bool"
        }
      ],
      "payable": false,
      "stateMutability": "nonpayable",
      "type": "function"
    },
    {
      "constant": true,
      "inputs": [
        {
          "internalType": "address",
          "name": "_operator",
          "type": "address"
        }
      ],
      "name": "balanceOf",
      "outputs": [
        {
          "internalType": "uint256",
          "name": "",
          "type": "uint256"
        }
      ],
      "payable": false,
      "stateMutability": "view",
      "type": "function"
    },
    {
      "constant": true,
      "inputs": [],
      "name": "bondTokenAddress",
      "outputs": [
        {
          "internalType": "address",
          "name": "",
          "type": "address"
        }
      ],
      "payable": false,
      "stateMutability": "view",
      "type": "function"
    },
    {
      "constant": true,
      "inputs": [],
      "name": "callbackGas",
      "outputs": [
        {
          "internalType": "uint256",
          "name": "",
          "type": "uint256"
        }
      ],
      "payable": false,
      "stateMutability": "view",
      "type": "function"
    },
    {
      "constant": false,
      "inputs": [
        {
          "internalType": "address",
          "name": "_application",
          "type": "address"
        }
      ],
      "name": "createSortitionPool",
      "outputs": [
        {
          "internalType": "address",
          "name": "",
          "type": "address"
        }
      ],
      "payable": false,
      "stateMutability": "nonpayable",
      "type": "function"
    },
    {
      "constant": true,
      "inputs": [
        {
          "internalType": "uint256",
          "name": "index",
          "type": "uint256"
        }
      ],
      "name": "getKeepAtIndex",
      "outputs": [
        {
          "internalType": "address",
          "name": "",
          "type": "address"
        }
      ],
      "payable": false,
      "stateMutability": "view",
      "type": "function"
    },
    {
      "constant": true,
      "inputs": [],
      "name": "getKeepCount",
      "outputs": [
        {
          "internalType": "uint256",
          "name": "",
          "type": "uint256"
        }
      ],
      "payable": false,
      "stateMutability": "view",
      "type": "function"
    },
    {
      "constant": true,
      "inputs": [
        {
          "internalType": "address",
          "name": "_keep",
          "type": "address"
        }
      ],
      "name": "getKeepOpenedTimestamp",
      "outputs": [
        {
          "internalType": "uint256",
          "name": "",
          "type": "uint256"
        }
      ],
      "payable": false,
      "stateMutability": "view",
      "type": "function"
    },
    {
      "constant": true,
      "inputs": [
        {
          "internalType": "address",
          "name": "_application",
          "type": "address"
        }
      ],
      "name": "getSortitionPool",
      "outputs": [
        {
          "internalType": "address",
          "name": "",
          "type": "address"
        }
      ],
      "payable": false,
      "stateMutability": "view",
      "type": "function"
    },
    {
      "constant": true,
      "inputs": [
        {
          "internalType": "address",
          "name": "_application",
          "type": "address"
        }
      ],
      "name": "getSortitionPoolWeight",
      "outputs": [
        {
          "internalType": "uint256",
          "name": "",
          "type": "uint256"
        }
      ],
      "payable": false,
      "stateMutability": "view",
      "type": "function"
    },
    {
      "constant": true,
      "inputs": [],
      "name": "groupSelectionSeed",
      "outputs": [
        {
          "internalType": "uint256",
          "name": "",
          "type": "uint256"
        }
      ],
      "payable": false,
      "stateMutability": "view",
      "type": "function"
    },
    {
      "constant": true,
      "inputs": [
        {
          "internalType": "address",
          "name": "_operator",
          "type": "address"
        }
      ],
      "name": "hasMinimumStake",
      "outputs": [
        {
          "internalType": "bool",
          "name": "",
          "type": "bool"
        }
      ],
      "payable": false,
      "stateMutability": "view",
      "type": "function"
    },
    {
      "constant": true,
      "inputs": [
        {
          "internalType": "address",
          "name": "_operator",
          "type": "address"
        }
      ],
      "name": "isOperatorAuthorized",
      "outputs": [
        {
          "internalType": "bool",
          "name": "",
          "type": "bool"
        }
      ],
      "payable": false,
      "stateMutability": "view",
      "type": "function"
    },
    {
      "constant": true,
      "inputs": [
        {
          "internalType": "address",
          "name": "_operator",
          "type": "address"
        },
        {
          "internalType": "address",
          "name": "_application",
          "type": "address"
        }
      ],
      "name": "isOperatorEligible",
      "outputs": [
        {
          "internalType": "bool",
          "name": "",
          "type": "bool"
        }
      ],
      "payable": false,
      "stateMutability": "view",
      "type": "function"
    },
    {
      "constant": true,
      "inputs": [
        {
          "internalType": "address",
          "name": "_operator",
          "type": "address"
        },
        {
          "internalType": "address",
          "name": "_application",
          "type": "address"
        }
      ],
      "name": "isOperatorRegistered",
      "outputs": [
        {
          "internalType": "bool",
          "name": "",
          "type": "bool"
        }
      ],
      "payable": false,
      "stateMutability": "view",
      "type": "function"
    },
    {
      "constant": true,
      "inputs": [
        {
          "internalType": "address",
          "name": "_operator",
          "type": "address"
        },
        {
          "internalType": "address",
          "name": "_application",
          "type": "address"
        }
      ],
      "name": "isOperatorUpToDate",
      "outputs": [
        {
          "internalType": "bool",
          "name": "",
          "type": "bool"
        }
      ],
      "payable": false,
      "stateMutability": "view",
      "type": "function"
    },
    {
      "constant": true,
      "inputs": [
        {
          "internalType": "uint256",
          "name": "",
          "type": "uint256"
        }
      ],
      "name": "keeps",
      "outputs": [
        {
          "internalType": "address",
          "name": "",
          "type": "address"
        }
      ],
      "payable": false,
      "stateMutability": "view",
      "type": "function"
    },
    {
      "constant": true,
      "inputs": [],
      "name": "masterKeepAddress",
      "outputs": [
        {
          "internalType": "address",
          "name": "",
          "type": "address"
        }
      ],
      "payable": false,
      "stateMutability": "view",
      "type": "function"
    },
    {
      "constant": true,
      "inputs": [],
      "name": "minimumBond",
      "outputs": [
        {
          "internalType": "uint256",
          "name": "",
          "type": "uint256"
        }
      ],
      "payable": false,
      "stateMutability": "view",
      "type": "function"
    },
    {
      "constant": true,
      "inputs": [],
      "name": "newEntryFeeEstimate",
      "outputs": [
        {
          "internalType": "uint256",
          "name": "",
          "type": "uint256"
        }
      ],
      "payable": false,
      "stateMutability": "view",
      "type": "function"
    },
    {
      "constant": true,
      "inputs": [],
      "name": "newGroupSelectionSeedFee",
      "outputs": [
        {
          "internalType": "uint256",
          "name": "",
          "type": "uint256"
        }
      ],
      "payable": false,
      "stateMutability": "view",
      "type": "function"
    },
    {
      "constant": false,
      "inputs": [
        {
          "internalType": "uint256",
          "name": "_groupSize",
          "type": "uint256"
        },
        {
          "internalType": "uint256",
          "name": "_honestThreshold",
          "type": "uint256"
        },
        {
          "internalType": "address",
          "name": "_owner",
          "type": "address"
        },
        {
          "internalType": "uint256",
          "name": "_bond",
          "type": "uint256"
        },
        {
          "internalType": "uint256",
          "name": "_stakeLockDuration",
          "type": "uint256"
        }
      ],
      "name": "openKeep",
      "outputs": [
        {
          "internalType": "address",
          "name": "keepAddress",
          "type": "address"
        }
      ],
      "payable": true,
      "stateMutability": "payable",
      "type": "function"
    },
    {
      "constant": true,
      "inputs": [],
      "name": "openKeepFeeEstimate",
      "outputs": [
        {
          "internalType": "uint256",
          "name": "",
          "type": "uint256"
        }
      ],
      "payable": false,
      "stateMutability": "view",
      "type": "function"
    },
    {
      "constant": true,
      "inputs": [],
      "name": "poolStakeWeightDivisor",
      "outputs": [
        {
          "internalType": "uint256",
          "name": "",
          "type": "uint256"
        }
      ],
      "payable": false,
      "stateMutability": "view",
      "type": "function"
    },
    {
      "constant": false,
      "inputs": [
        {
          "internalType": "address",
          "name": "_application",
          "type": "address"
        }
      ],
      "name": "registerMemberCandidate",
      "outputs": [],
      "payable": false,
      "stateMutability": "nonpayable",
      "type": "function"
    },
    {
      "constant": false,
      "inputs": [],
      "name": "requestNewGroupSelectionSeed",
      "outputs": [],
      "payable": true,
      "stateMutability": "payable",
      "type": "function"
    },
    {
      "constant": true,
      "inputs": [],
      "name": "reseedPool",
      "outputs": [
        {
          "internalType": "uint256",
          "name": "",
          "type": "uint256"
        }
      ],
      "payable": false,
      "stateMutability": "view",
      "type": "function"
    },
    {
      "constant": false,
      "inputs": [
        {
          "internalType": "uint256",
          "name": "_minimumBondableValue",
          "type": "uint256"
        },
        {
          "internalType": "uint256",
          "name": "_groupSize",
          "type": "uint256"
        },
        {
          "internalType": "uint256",
          "name": "_honestThreshold",
          "type": "uint256"
        }
      ],
      "name": "setMinimumBondableValue",
      "outputs": [],
      "payable": false,
      "stateMutability": "nonpayable",
      "type": "function"
    },
    {
      "constant": false,
      "inputs": [
        {
          "internalType": "address",
          "name": "_operator",
          "type": "address"
        },
        {
          "internalType": "address",
          "name": "_application",
          "type": "address"
        }
      ],
      "name": "updateOperatorStatus",
      "outputs": [],
      "payable": false,
      "stateMutability": "nonpayable",
      "type": "function"
    },
    {
      "constant": false,
      "inputs": [
        {
          "internalType": "uint256",
          "name": "_groupSelectionSeed",
          "type": "uint256"
        }
      ],
      "name": "initialGroupSelectionSeed",
      "outputs": [],
      "payable": false,
      "stateMutability": "nonpayable",
      "type": "function"
    },
    {
      "constant": true,
      "inputs": [],
      "name": "getGroupSelectionSeed",
      "outputs": [
        {
          "internalType": "uint256",
          "name": "",
          "type": "uint256"
        }
      ],
      "payable": false,
      "stateMutability": "view",
      "type": "function"
    },
    {
      "constant": false,
      "inputs": [
        {
          "internalType": "address",
          "name": "_owner",
          "type": "address"
        },
        {
          "internalType": "address[]",
          "name": "_members",
          "type": "address[]"
        },
        {
          "internalType": "uint256",
          "name": "_creationTimestamp",
          "type": "uint256"
        }
      ],
      "name": "stubOpenKeep",
      "outputs": [
        {
          "internalType": "address",
          "name": "keepAddress",
          "type": "address"
        }
      ],
      "payable": false,
      "stateMutability": "nonpayable",
      "type": "function"
    },
    {
      "constant": false,
      "inputs": [
        {
          "internalType": "uint256",
          "name": "_numberOfKeeps",
          "type": "uint256"
        },
        {
          "internalType": "uint256",
          "name": "_firstKeepCreationTimestamp",
          "type": "uint256"
        }
      ],
      "name": "stubBatchOpenFakeKeeps",
      "outputs": [],
      "payable": false,
      "stateMutability": "nonpayable",
      "type": "function"
    }
  ],
  "bytecode": "0x608060405234801561001057600080fd5b50604051613c76380380613c76833981810160405260c081101561003357600080fd5b810190808051906020019092919080519060200190929190805190602001909291908051906020019092919080519060200190929190805190602001909291905050508585858585858186806000806101000a81548173ffffffffffffffffffffffffffffffffffffffff021916908373ffffffffffffffffffffffffffffffffffffffff16021790555050600160038190555080600460006101000a81548173ffffffffffffffffffffffffffffffffffffffff021916908373ffffffffffffffffffffffffffffffffffffffff1602179055507f4574c8c75d6e88acd28f7e467dac97b5c60c3838d9dad993900bdf402152228e6006819055505084600860006101000a81548173ffffffffffffffffffffffffffffffffffffffff021916908373ffffffffffffffffffffffffffffffffffffffff16021790555080600b60006101000a81548173ffffffffffffffffffffffffffffffffffffffff021916908373ffffffffffffffffffffffffffffffffffffffff16021790555083600960006101000a81548173ffffffffffffffffffffffffffffffffffffffff021916908373ffffffffffffffffffffffffffffffffffffffff16021790555082600a60006101000a81548173ffffffffffffffffffffffffffffffffffffffff021916908373ffffffffffffffffffffffffffffffffffffffff160217905550505050505050505050505050613a278061024f6000396000f3fe6080604052600436106101f95760003560e01c8063a10132ad1161010d578063b8ee9156116100a0578063ca050cfd1161006f578063ca050cfd14610be5578063d14fede114610c91578063d870c03414610cf6578063ebcbb39f14610d5f578063eca4a80d14610dc4576101f9565b8063b8ee915614610a01578063bc2c289f14610a50578063beeea17314610a7b578063c3cbd0ce14610baa576101f9565b8063a5b31055116100dc578063a5b31055146108f7578063aa7517e114610922578063b2dc75931461094d578063b7a6f48314610978576101f9565b8063a10132ad14610787578063a23af330146107b2578063a3c28a131461083b578063a5a53fb5146108cc576101f9565b806351489985116101905780635cef84171161015f5780635cef8417146105d457806370a082311461062b57806379a382e9146106905780638701af42146106bb57806392ae584a14610736576101f9565b8063514899851461048c5780635b0d5b8e146104b75780635b8c2d41146105405780635c1c07101461056b576101f9565b806321f74e56116101cc57806321f74e56146103b3578063356e0728146103bd57806336c2a000146103f85780633840040014610461576101f9565b806309211ceb1461020b57806309d876601461029c5780631133fd2c146102e1578063202bb9f014610338575b34600560008282540192505081905550005b34801561021757600080fd5b5061025a6004803603602081101561022e57600080fd5b81019080803573ffffffffffffffffffffffffffffffffffffffff169060200190929190505050610e35565b604051808273ffffffffffffffffffffffffffffffffffffffff1673ffffffffffffffffffffffffffffffffffffffff16815260200191505060405180910390f35b3480156102a857600080fd5b506102df600480360360408110156102bf57600080fd5b810190808035906020019092919080359060200190929190505050610f82565b005b3480156102ed57600080fd5b506102f6611076565b604051808273ffffffffffffffffffffffffffffffffffffffff1673ffffffffffffffffffffffffffffffffffffffff16815260200191505060405180910390f35b34801561034457600080fd5b506103716004803603602081101561035b57600080fd5b810190808035906020019092919050505061109c565b604051808273ffffffffffffffffffffffffffffffffffffffff1673ffffffffffffffffffffffffffffffffffffffff16815260200191505060405180910390f35b6103bb611157565b005b3480156103c957600080fd5b506103f6600480360360208110156103e057600080fd5b81019080803590602001909291905050506113e9565b005b34801561040457600080fd5b506104476004803603602081101561041b57600080fd5b81019080803573ffffffffffffffffffffffffffffffffffffffff1690602001909291905050506114b6565b604051808215151515815260200191505060405180910390f35b34801561046d57600080fd5b506104766115cd565b6040518082815260200191505060405180910390f35b34801561049857600080fd5b506104a16116af565b6040518082815260200191505060405180910390f35b3480156104c357600080fd5b50610526600480360360408110156104da57600080fd5b81019080803573ffffffffffffffffffffffffffffffffffffffff169060200190929190803573ffffffffffffffffffffffffffffffffffffffff169060200190929190505050611766565b604051808215151515815260200191505060405180910390f35b34801561054c57600080fd5b5061055561192a565b6040518082815260200191505060405180910390f35b34801561057757600080fd5b506105ba6004803603602081101561058e57600080fd5b81019080803573ffffffffffffffffffffffffffffffffffffffff169060200190929190505050611934565b604051808215151515815260200191505060405180910390f35b3480156105e057600080fd5b506105e9611a4b565b604051808273ffffffffffffffffffffffffffffffffffffffff1673ffffffffffffffffffffffffffffffffffffffff16815260200191505060405180910390f35b34801561063757600080fd5b5061067a6004803603602081101561064e57600080fd5b81019080803573ffffffffffffffffffffffffffffffffffffffff169060200190929190505050611a70565b6040518082815260200191505060405180910390f35b34801561069c57600080fd5b506106a5611b53565b6040518082815260200191505060405180910390f35b3480156106c757600080fd5b506106f4600480360360208110156106de57600080fd5b8101908080359060200190929190505050611b59565b604051808273ffffffffffffffffffffffffffffffffffffffff1673ffffffffffffffffffffffffffffffffffffffff16815260200191505060405180910390f35b34801561074257600080fd5b506107856004803603602081101561075957600080fd5b81019080803573ffffffffffffffffffffffffffffffffffffffff169060200190929190505050611b95565b005b34801561079357600080fd5b5061079c611d00565b6040518082815260200191505060405180910390f35b3480156107be57600080fd5b50610821600480360360408110156107d557600080fd5b81019080803573ffffffffffffffffffffffffffffffffffffffff169060200190929190803573ffffffffffffffffffffffffffffffffffffffff169060200190929190505050611d06565b604051808215151515815260200191505060405180910390f35b34801561084757600080fd5b5061088a6004803603602081101561085e57600080fd5b81019080803573ffffffffffffffffffffffffffffffffffffffff169060200190929190505050611dd1565b604051808273ffffffffffffffffffffffffffffffffffffffff1673ffffffffffffffffffffffffffffffffffffffff16815260200191505060405180910390f35b3480156108d857600080fd5b506108e1612040565b6040518082815260200191505060405180910390f35b34801561090357600080fd5b5061090c61204c565b6040518082815260200191505060405180910390f35b34801561092e57600080fd5b50610937612052565b6040518082815260200191505060405180910390f35b34801561095957600080fd5b5061096261205f565b6040518082815260200191505060405180910390f35b34801561098457600080fd5b506109e76004803603604081101561099b57600080fd5b81019080803573ffffffffffffffffffffffffffffffffffffffff169060200190929190803573ffffffffffffffffffffffffffffffffffffffff16906020019092919050505061206c565b604051808215151515815260200191505060405180910390f35b348015610a0d57600080fd5b50610a4e60048036036060811015610a2457600080fd5b81019080803590602001909291908035906020019092919080359060200190929190505050612230565b005b348015610a5c57600080fd5b50610a656122b7565b6040518082815260200191505060405180910390f35b348015610a8757600080fd5b50610b6860048036036060811015610a9e57600080fd5b81019080803573ffffffffffffffffffffffffffffffffffffffff16906020019092919080359060200190640100000000811115610adb57600080fd5b820183602082011115610aed57600080fd5b80359060200191846020830284011164010000000083111715610b0f57600080fd5b919080806020026020016040519081016040528093929190818152602001838360200280828437600081840152601f19601f820116905080830192505050505050509192919290803590602001909291905050506122c6565b604051808273ffffffffffffffffffffffffffffffffffffffff1673ffffffffffffffffffffffffffffffffffffffff16815260200191505060405180910390f35b348015610bb657600080fd5b50610be360048036036020811015610bcd57600080fd5b8101908080359060200190929190505050612585565b005b610c4f600480360360a0811015610bfb57600080fd5b810190808035906020019092919080359060200190929190803573ffffffffffffffffffffffffffffffffffffffff169060200190929190803590602001909291908035906020019092919050505061258f565b604051808273ffffffffffffffffffffffffffffffffffffffff1673ffffffffffffffffffffffffffffffffffffffff16815260200191505060405180910390f35b348015610c9d57600080fd5b50610ce060048036036020811015610cb457600080fd5b81019080803573ffffffffffffffffffffffffffffffffffffffff169060200190929190505050612ebc565b6040518082815260200191505060405180910390f35b348015610d0257600080fd5b50610d4560048036036020811015610d1957600080fd5b81019080803573ffffffffffffffffffffffffffffffffffffffff169060200190929190505050612f05565b604051808215151515815260200191505060405180910390f35b348015610d6b57600080fd5b50610dae60048036036020811015610d8257600080fd5b81019080803573ffffffffffffffffffffffffffffffffffffffff169060200190929190505050612f50565b6040518082815260200191505060405180910390f35b348015610dd057600080fd5b50610e3360048036036040811015610de757600080fd5b81019080803573ffffffffffffffffffffffffffffffffffffffff169060200190929190803573ffffffffffffffffffffffffffffffffffffffff169060200190929190505050612fe2565b005b60008073ffffffffffffffffffffffffffffffffffffffff16600760008473ffffffffffffffffffffffffffffffffffffffff1673ffffffffffffffffffffffffffffffffffffffff16815260200190815260200160002060009054906101000a900473ffffffffffffffffffffffffffffffffffffffff1673ffffffffffffffffffffffffffffffffffffffff161415610f1b576040517f08c379a00000000000000000000000000000000000000000000000000000000081526004018080602001828103825260218152602001806139856021913960400191505060405180910390fd5b600760008373ffffffffffffffffffffffffffffffffffffffff1673ffffffffffffffffffffffffffffffffffffffff16815260200190815260200160002060009054906101000a900473ffffffffffffffffffffffffffffffffffffffff169050919050565b60008090505b82811015611071576000610fa5824261308690919063ffffffff16565b905060018190806001815401808255809150509060018203906000526020600020016000909192909190916101000a81548173ffffffffffffffffffffffffffffffffffffffff021916908373ffffffffffffffffffffffffffffffffffffffff16021790555050611020828461308690919063ffffffff16565b600260008373ffffffffffffffffffffffffffffffffffffffff1673ffffffffffffffffffffffffffffffffffffffff16815260200190815260200160002081905550508080600101915050610f88565b505050565b600b60009054906101000a900473ffffffffffffffffffffffffffffffffffffffff1681565b60006001805490508210611118576040517f08c379a000000000000000000000000000000000000000000000000000000000815260040180806020018281038252600e8152602001807f4f7574206f6620626f756e64732e00000000000000000000000000000000000081525060200191505060405180910390fd5b6001828154811061112557fe5b9060005260206000200160009054906101000a900473ffffffffffffffffffffffffffffffffffffffff169050919050565b6001600360008282540192505081905550600060035490506111843460055461308690919063ffffffff16565b6005819055506000600460009054906101000a900473ffffffffffffffffffffffffffffffffffffffff1673ffffffffffffffffffffffffffffffffffffffff1663d13f13916175306040518263ffffffff1660e01b81526004018082815260200191505060206040518083038186803b15801561120157600080fd5b505afa158015611215573d6000803e3d6000fd5b505050506040513d602081101561122b57600080fd5b81019080805190602001909291905050509050806005541015611299576040517f08c379a00000000000000000000000000000000000000000000000000000000081526004018080602001828103825260228152602001806139d16022913960400191505060405180910390fd5b6112ae8160055461310e90919063ffffffff16565b600581905550600060606112c183613197565b915091508161136c57806040517f08c379a00000000000000000000000000000000000000000000000000000000081526004018080602001828103825283818151815260200191508051906020019080838360005b83811015611331578082015181840152602081019050611316565b50505050905090810190601f16801561135e5780820380516001836020036101000a031916815260200191505b509250505060405180910390fd5b50505060035481146113e6576040517f08c379a000000000000000000000000000000000000000000000000000000000815260040180806020018281038252601f8152602001807f5265656e7472616e637947756172643a207265656e7472616e742063616c6c0081525060200191505060405180910390fd5b50565b3373ffffffffffffffffffffffffffffffffffffffff16600460009054906101000a900473ffffffffffffffffffffffffffffffffffffffff1673ffffffffffffffffffffffffffffffffffffffff16146114ac576040517f08c379a000000000000000000000000000000000000000000000000000000000815260040180806020018281038252601f8152602001807f43616c6c6572206973206e6f74207468652072616e646f6d20626561636f6e0081525060200191505060405180910390fd5b8060068190555050565b6000600960009054906101000a900473ffffffffffffffffffffffffffffffffffffffff1673ffffffffffffffffffffffffffffffffffffffff1663ef1f966183306040518363ffffffff1660e01b8152600401808373ffffffffffffffffffffffffffffffffffffffff1673ffffffffffffffffffffffffffffffffffffffff1681526020018273ffffffffffffffffffffffffffffffffffffffff1673ffffffffffffffffffffffffffffffffffffffff1681526020019250505060206040518083038186803b15801561158b57600080fd5b505afa15801561159f573d6000803e3d6000fd5b505050506040513d60208110156115b557600080fd5b81019080805190602001909291905050509050919050565b600080600460009054906101000a900473ffffffffffffffffffffffffffffffffffffffff1673ffffffffffffffffffffffffffffffffffffffff1663d13f13916175306040518263ffffffff1660e01b81526004018082815260200191505060206040518083038186803b15801561164557600080fd5b505afa158015611659573d6000803e3d6000fd5b505050506040513d602081101561166f57600080fd5b810190808051906020019092919050505090506005548111156116a6576116a16005548261310e90919063ffffffff16565b6116a9565b60005b91505090565b6000600460009054906101000a900473ffffffffffffffffffffffffffffffffffffffff1673ffffffffffffffffffffffffffffffffffffffff1663d13f13916175306040518263ffffffff1660e01b81526004018082815260200191505060206040518083038186803b15801561172657600080fd5b505afa15801561173a573d6000803e3d6000fd5b505050506040513d602081101561175057600080fd5b8101908080519060200190929190505050905090565b60008073ffffffffffffffffffffffffffffffffffffffff16600760008473ffffffffffffffffffffffffffffffffffffffff1673ffffffffffffffffffffffffffffffffffffffff16815260200190815260200160002060009054906101000a900473ffffffffffffffffffffffffffffffffffffffff1673ffffffffffffffffffffffffffffffffffffffff1614156118045760009050611924565b6000600760008473ffffffffffffffffffffffffffffffffffffffff1673ffffffffffffffffffffffffffffffffffffffff16815260200190815260200160002060009054906101000a900473ffffffffffffffffffffffffffffffffffffffff1690508073ffffffffffffffffffffffffffffffffffffffff1663b4766856856040518263ffffffff1660e01b8152600401808273ffffffffffffffffffffffffffffffffffffffff1673ffffffffffffffffffffffffffffffffffffffff16815260200191505060206040518083038186803b1580156118e557600080fd5b505afa1580156118f9573d6000803e3d6000fd5b505050506040513d602081101561190f57600080fd5b81019080805190602001909291905050509150505b92915050565b6000600654905090565b6000600960009054906101000a900473ffffffffffffffffffffffffffffffffffffffff1673ffffffffffffffffffffffffffffffffffffffff166310a63ec083306040518363ffffffff1660e01b8152600401808373ffffffffffffffffffffffffffffffffffffffff1673ffffffffffffffffffffffffffffffffffffffff1681526020018273ffffffffffffffffffffffffffffffffffffffff1673ffffffffffffffffffffffffffffffffffffffff1681526020019250505060206040518083038186803b158015611a0957600080fd5b505afa158015611a1d573d6000803e3d6000fd5b505050506040513d6020811015611a3357600080fd5b81019080805190602001909291905050509050919050565b6000809054906101000a900473ffffffffffffffffffffffffffffffffffffffff1681565b6000600960009054906101000a900473ffffffffffffffffffffffffffffffffffffffff1673ffffffffffffffffffffffffffffffffffffffff166370a08231836040518263ffffffff1660e01b8152600401808273ffffffffffffffffffffffffffffffffffffffff1673ffffffffffffffffffffffffffffffffffffffff16815260200191505060206040518083038186803b158015611b1157600080fd5b505afa158015611b25573d6000803e3d6000fd5b505050506040513d6020811015611b3b57600080fd5b81019080805190602001909291905050509050919050565b60065481565b60018181548110611b6657fe5b906000526020600020016000915054906101000a900473ffffffffffffffffffffffffffffffffffffffff1681565b6000611ba082610e35565b905060003390508173ffffffffffffffffffffffffffffffffffffffff1663f7186ce0826040518263ffffffff1660e01b8152600401808273ffffffffffffffffffffffffffffffffffffffff1673ffffffffffffffffffffffffffffffffffffffff16815260200191505060206040518083038186803b158015611c2457600080fd5b505afa158015611c38573d6000803e3d6000fd5b505050506040513d6020811015611c4e57600080fd5b8101908080519060200190929190505050611cfb578173ffffffffffffffffffffffffffffffffffffffff16631ae0e73d826040518263ffffffff1660e01b8152600401808273ffffffffffffffffffffffffffffffffffffffff1673ffffffffffffffffffffffffffffffffffffffff168152602001915050600060405180830381600087803b158015611ce257600080fd5b505af1158015611cf6573d6000803e3d6000fd5b505050505b505050565b61753081565b6000611d12838361333d565b73ffffffffffffffffffffffffffffffffffffffff1663e686440f846040518263ffffffff1660e01b8152600401808273ffffffffffffffffffffffffffffffffffffffff1673ffffffffffffffffffffffffffffffffffffffff16815260200191505060206040518083038186803b158015611d8e57600080fd5b505afa158015611da2573d6000803e3d6000fd5b505050506040513d6020811015611db857600080fd5b8101908080519060200190929190505050905092915050565b60008073ffffffffffffffffffffffffffffffffffffffff16600760008473ffffffffffffffffffffffffffffffffffffffff1673ffffffffffffffffffffffffffffffffffffffff16815260200190815260200160002060009054906101000a900473ffffffffffffffffffffffffffffffffffffffff1673ffffffffffffffffffffffffffffffffffffffff1614611ed3576040517f08c379a000000000000000000000000000000000000000000000000000000000815260040180806020018281038252601d8152602001807f536f72746974696f6e20706f6f6c20616c72656164792065786973747300000081525060200191505060405180910390fd5b6000611ede83613406565b905080600760008573ffffffffffffffffffffffffffffffffffffffff1673ffffffffffffffffffffffffffffffffffffffff16815260200190815260200160002060006101000a81548173ffffffffffffffffffffffffffffffffffffffff021916908373ffffffffffffffffffffffffffffffffffffffff1602179055508273ffffffffffffffffffffffffffffffffffffffff167f693c68cd964926544cbaee02b00d9352aa98c6de2484515e8bd74130c005e6af82604051808273ffffffffffffffffffffffffffffffffffffffff1673ffffffffffffffffffffffffffffffffffffffff16815260200191505060405180910390a2600760008473ffffffffffffffffffffffffffffffffffffffff1673ffffffffffffffffffffffffffffffffffffffff16815260200190815260200160002060009054906101000a900473ffffffffffffffffffffffffffffffffffffffff16915050919050565b670de0b6b3a764000081565b60055481565b6801158e460913d0000081565b6000600180549050905090565b60008073ffffffffffffffffffffffffffffffffffffffff16600760008473ffffffffffffffffffffffffffffffffffffffff1673ffffffffffffffffffffffffffffffffffffffff16815260200190815260200160002060009054906101000a900473ffffffffffffffffffffffffffffffffffffffff1673ffffffffffffffffffffffffffffffffffffffff16141561210a576000905061222a565b6000600760008473ffffffffffffffffffffffffffffffffffffffff1673ffffffffffffffffffffffffffffffffffffffff16815260200190815260200160002060009054906101000a900473ffffffffffffffffffffffffffffffffffffffff1690508073ffffffffffffffffffffffffffffffffffffffff16636b1906f8856040518263ffffffff1660e01b8152600401808273ffffffffffffffffffffffffffffffffffffffff1673ffffffffffffffffffffffffffffffffffffffff16815260200191505060206040518083038186803b1580156121eb57600080fd5b505afa1580156121ff573d6000803e3d6000fd5b505050506040513d602081101561221557600080fd5b81019080805190602001909291905050509150505b92915050565b600061223c848461362e565b905061224733610e35565b73ffffffffffffffffffffffffffffffffffffffff166334ce30f0826040518263ffffffff1660e01b815260040180828152602001915050600060405180830381600087803b15801561229957600080fd5b505af11580156122ad573d6000803e3d6000fd5b5050505050505050565b60006122c16116af565b905090565b60006122f26000809054906101000a900473ffffffffffffffffffffffffffffffffffffffff16613670565b905060008190508073ffffffffffffffffffffffffffffffffffffffff166379a8049186866000806000600960009054906101000a900473ffffffffffffffffffffffffffffffffffffffff16600a60009054906101000a900473ffffffffffffffffffffffffffffffffffffffff16306040518963ffffffff1660e01b8152600401808973ffffffffffffffffffffffffffffffffffffffff1673ffffffffffffffffffffffffffffffffffffffff168152602001806020018881526020018781526020018681526020018573ffffffffffffffffffffffffffffffffffffffff1673ffffffffffffffffffffffffffffffffffffffff1681526020018473ffffffffffffffffffffffffffffffffffffffff1673ffffffffffffffffffffffffffffffffffffffff1681526020018373ffffffffffffffffffffffffffffffffffffffff1673ffffffffffffffffffffffffffffffffffffffff168152602001828103825289818151815260200191508051906020019060200280838360005b8381101561248f578082015181840152602081019050612474565b505050509050019950505050505050505050600060405180830381600087803b1580156124bb57600080fd5b505af11580156124cf573d6000803e3d6000fd5b5050505060018290806001815401808255809150509060018203906000526020600020016000909192909190916101000a81548173ffffffffffffffffffffffffffffffffffffffff021916908373ffffffffffffffffffffffffffffffffffffffff1602179055505082600260008473ffffffffffffffffffffffffffffffffffffffff1673ffffffffffffffffffffffffffffffffffffffff16815260200190815260200160002081905550509392505050565b8060068190555050565b60006001600360008282540192505081905550600060035490506000871161261f576040517f08c379a000000000000000000000000000000000000000000000000000000000815260040180806020018281038252601f8152602001807f4d696e696d756d207369676e696e672067726f75702073697a6520697320310081525060200191505060405180910390fd5b6010871115612696576040517f08c379a00000000000000000000000000000000000000000000000000000000081526004018080602001828103825260208152602001807f4d6178696d756d207369676e696e672067726f75702073697a6520697320313681525060200191505060405180910390fd5b600086116126ef576040517f08c379a000000000000000000000000000000000000000000000000000000000815260040180806020018281038252602781526020018061395e6027913960400191505060405180910390fd5b86861115612748576040517f08c379a00000000000000000000000000000000000000000000000000000000081526004018080602001828103825260358152602001806139006035913960400191505060405180910390fd5b6000339050600061275882610e35565b90506000612766878b61362e565b9050600081116127c1576040517f08c379a00000000000000000000000000000000000000000000000000000000081526004018080602001828103825260298152602001806139356029913960400191505060405180910390fd5b6127c96122b7565b341015612821576040517f08c379a000000000000000000000000000000000000000000000000000000000815260040180806020018281038252602b8152602001806138d5602b913960400191505060405180910390fd5b6000600960009054906101000a900473ffffffffffffffffffffffffffffffffffffffff1673ffffffffffffffffffffffffffffffffffffffff1663ec5ffac26040518163ffffffff1660e01b815260040160206040518083038186803b15801561288b57600080fd5b505afa15801561289f573d6000803e3d6000fd5b505050506040513d60208110156128b557600080fd5b8101908080519060200190929190505050905060608373ffffffffffffffffffffffffffffffffffffffff1663a2cca6a28d60065460001b85876040518563ffffffff1660e01b815260040180858152602001848152602001838152602001828152602001945050505050600060405180830381600087803b15801561293a57600080fd5b505af115801561294e573d6000803e3d6000fd5b505050506040513d6000823e3d601f19601f82011682018060405250602081101561297857600080fd5b810190808051604051939291908464010000000082111561299857600080fd5b838201915060208201858111156129ae57600080fd5b82518660208202830111640100000000821117156129cb57600080fd5b8083526020830192505050908051906020019060200280838360005b83811015612a025780820151818401526020810190506129e7565b505050509050016040525050509050612a196136da565b612a2161376a565b96508673ffffffffffffffffffffffffffffffffffffffff166379a804918b838e868d600960009054906101000a900473ffffffffffffffffffffffffffffffffffffffff16600a60009054906101000a900473ffffffffffffffffffffffffffffffffffffffff16306040518963ffffffff1660e01b8152600401808973ffffffffffffffffffffffffffffffffffffffff1673ffffffffffffffffffffffffffffffffffffffff168152602001806020018881526020018781526020018681526020018573ffffffffffffffffffffffffffffffffffffffff1673ffffffffffffffffffffffffffffffffffffffff1681526020018473ffffffffffffffffffffffffffffffffffffffff1673ffffffffffffffffffffffffffffffffffffffff1681526020018373ffffffffffffffffffffffffffffffffffffffff1673ffffffffffffffffffffffffffffffffffffffff168152602001828103825289818151815260200191508051906020019060200280838360005b83811015612bb7578082015181840152602081019050612b9c565b505050509050019950505050505050505050600060405180830381600087803b158015612be357600080fd5b505af1158015612bf7573d6000803e3d6000fd5b5050505060008090505b8c811015612d7057600a60009054906101000a900473ffffffffffffffffffffffffffffffffffffffff1673ffffffffffffffffffffffffffffffffffffffff1663d20a62fc838381518110612c5357fe5b60200260200101518a8b73ffffffffffffffffffffffffffffffffffffffff16888a6040518663ffffffff1660e01b8152600401808673ffffffffffffffffffffffffffffffffffffffff1673ffffffffffffffffffffffffffffffffffffffff1681526020018573ffffffffffffffffffffffffffffffffffffffff1673ffffffffffffffffffffffffffffffffffffffff1681526020018481526020018381526020018273ffffffffffffffffffffffffffffffffffffffff1673ffffffffffffffffffffffffffffffffffffffff16815260200195505050505050600060405180830381600087803b158015612d4b57600080fd5b505af1158015612d5f573d6000803e3d6000fd5b505050508080600101915050612c01565b508473ffffffffffffffffffffffffffffffffffffffff168a73ffffffffffffffffffffffffffffffffffffffff168873ffffffffffffffffffffffffffffffffffffffff167f7c030f3f8c902fa5a59193f1e3c08ae7245fc0e3b7ab290b6a9548a57a46ac60848f6040518080602001838152602001828103825284818151815260200191508051906020019060200280838360005b83811015612e22578082015181840152602081019050612e07565b50505050905001935050505060405180910390a450505050506003548114612eb2576040517f08c379a000000000000000000000000000000000000000000000000000000000815260040180806020018281038252601f8152602001807f5265656e7472616e637947756172643a207265656e7472616e742063616c6c0081525060200191505060405180910390fd5b5095945050505050565b6000600260008373ffffffffffffffffffffffffffffffffffffffff1673ffffffffffffffffffffffffffffffffffffffff168152602001908152602001600020549050919050565b600080600260008473ffffffffffffffffffffffffffffffffffffffff1673ffffffffffffffffffffffffffffffffffffffff16815260200190815260200160002054119050919050565b6000612f5b82610e35565b73ffffffffffffffffffffffffffffffffffffffff166396c82e576040518163ffffffff1660e01b815260040160206040518083038186803b158015612fa057600080fd5b505afa158015612fb4573d6000803e3d6000fd5b505050506040513d6020811015612fca57600080fd5b81019080805190602001909291905050509050919050565b612fec828261333d565b73ffffffffffffffffffffffffffffffffffffffff16631c5b0762836040518263ffffffff1660e01b8152600401808273ffffffffffffffffffffffffffffffffffffffff1673ffffffffffffffffffffffffffffffffffffffff168152602001915050600060405180830381600087803b15801561306a57600080fd5b505af115801561307e573d6000803e3d6000fd5b505050505050565b600080828401905083811015613104576040517f08c379a000000000000000000000000000000000000000000000000000000000815260040180806020018281038252601b8152602001807f536166654d6174683a206164646974696f6e206f766572666c6f77000000000081525060200191505060405180910390fd5b8091505092915050565b600082821115613186576040517f08c379a000000000000000000000000000000000000000000000000000000000815260040180806020018281038252601e8152602001807f536166654d6174683a207375627472616374696f6e206f766572666c6f77000081525060200191505060405180910390fd5b600082840390508091505092915050565b60006060600460009054906101000a900473ffffffffffffffffffffffffffffffffffffffff1673ffffffffffffffffffffffffffffffffffffffff168330617530604051602401808373ffffffffffffffffffffffffffffffffffffffff1673ffffffffffffffffffffffffffffffffffffffff168152602001828152602001925050506040516020818303038152906040527fe1f95890000000000000000000000000000000000000000000000000000000007bffffffffffffffffffffffffffffffffffffffffffffffffffffffff19166020820180517bffffffffffffffffffffffffffffffffffffffffffffffffffffffff83818316178352505050506040518082805190602001908083835b602083106132cc57805182526020820191506020810190506020830392506132a9565b6001836020036101000a03801982511681845116808217855250505050505090500191505060006040518083038185875af1925050503d806000811461332e576040519150601f19603f3d011682016040523d82523d6000602084013e613333565b606091505b5091509150915091565b6000613349838361206c565b61339e576040517f08c379a000000000000000000000000000000000000000000000000000000000815260040180806020018281038252602b8152602001806139a6602b913960400191505060405180910390fd5b600760008373ffffffffffffffffffffffffffffffffffffffff1673ffffffffffffffffffffffffffffffffffffffff16815260200190815260200160002060009054906101000a900473ffffffffffffffffffffffffffffffffffffffff16905092915050565b6000600860009054906101000a900473ffffffffffffffffffffffffffffffffffffffff1673ffffffffffffffffffffffffffffffffffffffff166356385578600960009054906101000a900473ffffffffffffffffffffffffffffffffffffffff16600a60009054906101000a900473ffffffffffffffffffffffffffffffffffffffff16600960009054906101000a900473ffffffffffffffffffffffffffffffffffffffff1673ffffffffffffffffffffffffffffffffffffffff1663ec5ffac26040518163ffffffff1660e01b815260040160206040518083038186803b1580156134f457600080fd5b505afa158015613508573d6000803e3d6000fd5b505050506040513d602081101561351e57600080fd5b81019080805190602001909291905050506801158e460913d00000670de0b6b3a76400006040518663ffffffff1660e01b8152600401808673ffffffffffffffffffffffffffffffffffffffff1673ffffffffffffffffffffffffffffffffffffffff1681526020018573ffffffffffffffffffffffffffffffffffffffff1673ffffffffffffffffffffffffffffffffffffffff16815260200184815260200183815260200182815260200195505050505050602060405180830381600087803b1580156135ec57600080fd5b505af1158015613600573d6000803e3d6000fd5b505050506040513d602081101561361657600080fd5b81019080805190602001909291905050509050919050565b60006136688261365a600161364c868861308690919063ffffffff16565b61310e90919063ffffffff16565b61384590919063ffffffff16565b905092915050565b6000808260601b90506040517f3d602d80600a3d3981f3363d3d373d3d3d363d7300000000000000000000000081528160148201527f5af43d82803e903d91602b57fd5bf3000000000000000000000000000000000060288201526037816000f092505050919050565b60065430604051602001808381526020018273ffffffffffffffffffffffffffffffffffffffff1673ffffffffffffffffffffffffffffffffffffffff1660601b8152601401925050506040516020818303038152906040528051906020012060001c600681905550600061374e34613197565b5090508061376757346005600082825401925050819055505b50565b60006137966000809054906101000a900473ffffffffffffffffffffffffffffffffffffffff16613670565b905060018190806001815401808255809150509060018203906000526020600020016000909192909190916101000a81548173ffffffffffffffffffffffffffffffffffffffff021916908373ffffffffffffffffffffffffffffffffffffffff1602179055505042600260008373ffffffffffffffffffffffffffffffffffffffff1673ffffffffffffffffffffffffffffffffffffffff1681526020019081526020016000208190555090565b60008082116138bc576040517f08c379a000000000000000000000000000000000000000000000000000000000815260040180806020018281038252601a8152602001807f536166654d6174683a206469766973696f6e206279207a65726f00000000000081525060200191505060405180910390fd5b60008284816138c757fe5b049050809150509291505056fe496e73756666696369656e74207061796d656e7420666f72206f70656e696e672061206e6577206b656570486f6e657374207468726573686f6c64206d757374206265206c657373206f7220657175616c207468652067726f75702073697a65426f6e6420706572206d656d626572206d7573742062652067726561746572207468616e207a65726f486f6e657374207468726573686f6c64206d7573742062652067726561746572207468616e20304e6f20706f6f6c20666f756e6420666f7220746865206170706c69636174696f6e4f70657261746f72206e6f74207265676973746572656420666f7220746865206170706c69636174696f6e4e6f7420656e6f7567682066756e647320746f207472696767657220726573656564a265627a7a7231582023d3e110a8275ac185882dd14d66c561aa211e0e686c231f37bc36cbe0b19b9864736f6c63430005110032",
  "source": "pragma solidity 0.5.17;\n\nimport \"../../contracts/BondedECDSAKeepFactory.sol\";\n\n/// @title Bonded ECDSA Keep Factory Stub\n/// @dev This contract is for testing purposes only.\ncontract BondedECDSAKeepFactoryStub is BondedECDSAKeepFactory {\n    constructor(\n        address masterBondedECDSAKeepAddress,\n        address sortitionPoolFactory,\n        address tokenStaking,\n        address keepBonding,\n        address randomBeacon,\n        address _bondTokenAddress\n    )\n        public\n        BondedECDSAKeepFactory(\n            masterBondedECDSAKeepAddress,\n            sortitionPoolFactory,\n            tokenStaking,\n            keepBonding,\n            randomBeacon,\n            _bondTokenAddress\n        )\n    {}\n\n    function initialGroupSelectionSeed(uint256 _groupSelectionSeed) public {\n        groupSelectionSeed = _groupSelectionSeed;\n    }\n\n    function getGroupSelectionSeed() public view returns (uint256) {\n        return groupSelectionSeed;\n    }\n\n    /// @notice Opens a new ECDSA keep.\n    /// @param _owner Address of the keep owner.\n    /// @param _members Keep members.\n    /// @param _creationTimestamp Keep creation timestamp.\n    ///\n    /// @return Created keep address.\n    function stubOpenKeep(\n        address _owner,\n        address[] memory _members,\n        uint256 _creationTimestamp\n    ) public returns (address keepAddress) {\n        keepAddress = createClone(masterKeepAddress);\n        BondedECDSAKeep keep = BondedECDSAKeep(keepAddress);\n        keep.initialize(\n            _owner,\n            _members,\n            0,\n            0,\n            0,\n            address(tokenStaking),\n            address(keepBonding),\n            address(this)\n        );\n        keeps.push(keepAddress);\n        keepOpenedTimestamp[keepAddress] = _creationTimestamp;\n    }\n\n    /// @notice Mocks opening `_numberOfKeeps` with the opening timestamp of\n    /// the first keep starting at `_firstKeepCreationTimestamp`.\n    /// IMPORTANT! This function does not actually create new keep instances!\n    /// It would not be possible to create 100 keeps in one block because of\n    /// gas limits.\n    function stubBatchOpenFakeKeeps(\n        uint256 _numberOfKeeps,\n        uint256 _firstKeepCreationTimestamp\n    ) public {\n        for (uint256 i = 0; i < _numberOfKeeps; i++) {\n            address keepAddress = address(block.timestamp.add(i));\n            keeps.push(keepAddress);\n            keepOpenedTimestamp[keepAddress] = _firstKeepCreationTimestamp.add(\n                i\n            );\n        }\n    }\n}\n",
  "sourcePath": "/home/kowal/Projects/sovryn/keep-ecdsa/solidity/contracts/test/BondedECDSAKeepFactoryStub.sol",
  "compiler": {
    "name": "solc",
    "version": "0.5.17+commit.d19bba13.Emscripten.clang"
  },
  "schemaVersion": "3.0.22",
  "updatedAt": "2021-01-29T17:36:47.962Z",
  "devdoc": {
    "details": "This contract is for testing purposes only.",
    "methods": {
      "__beaconCallback(uint256)": {
        "details": "The function is expected to be called in a callback by the random beacon.",
        "params": {
          "_relayEntry": "Beacon output."
        }
      },
      "__isRecognized(address)": {
        "params": {
          "_delegatedAuthorityRecipient": "Address of the delegated authority recipient."
        },
        "return": "True if provided address is recognized delegated token staking authority for this factory contract."
      },
      "balanceOf(address)": {
        "params": {
          "_operator": "The operator to query the balance of."
        },
        "return": "An uint256 representing the amount staked by the passed operator."
      },
      "createSortitionPool(address)": {
        "details": "Emits an event after sortition pool creation.",
        "params": {
          "_application": "Address of the application."
        },
        "return": "Address of the created sortition pool contract."
      },
      "getKeepAtIndex(uint256)": {
        "return": "The address of the keep at the given index."
      },
      "getKeepCount()": {
        "details": "Checks the size of the keeps array.",
        "return": "The number of keeps opened so far."
      },
      "getKeepOpenedTimestamp(address)": {
        "return": "Timestamp the given keep was opened at or 0 if this keep was not created by this factory."
      },
      "getSortitionPool(address)": {
        "details": "Reverts if sortition does not exist for the application.",
        "params": {
          "_application": "Address of the application."
        },
        "return": "Address of the sortition pool contract."
      },
      "getSortitionPoolWeight(address)": {
        "details": "Reverts if sortition does not exits for the application.",
        "params": {
          "_application": "Address of the application."
        },
        "return": "The sum of all registered operators' weights in the pool. Reverts if sortition pool for the application does not exist."
      },
      "hasMinimumStake(address)": {
        "params": {
          "_operator": "operator's address"
        },
        "return": "True if has enough active stake to participate in the network, false otherwise."
      },
      "isOperatorAuthorized(address)": {
        "params": {
          "_operator": "operator's address"
        },
        "return": "True if the factory has access to the staked token balance of the provided operator and can slash that stake. False otherwise."
      },
      "isOperatorEligible(address,address)": {
        "params": {
          "_application": "Customer application address.",
          "_operator": "Operator's address."
        }
      },
      "isOperatorRegistered(address,address)": {
        "params": {
          "_application": "Customer application address.",
          "_operator": "Operator's address."
        },
        "return": "True if operator is already registered in the candidates pool, false otherwise."
      },
      "isOperatorUpToDate(address,address)": {
        "params": {
          "_application": "Customer application address.",
          "_operator": "Operator's address."
        }
      },
      "newEntryFeeEstimate()": {
        "return": "Uint256 estimate."
      },
      "openKeep(uint256,uint256,address,uint256,uint256)": {
        "details": "Selects a list of signers for the keep based on provided parameters. A caller of this function is expected to be an application for which member candidates were registered in a pool.",
        "params": {
          "_bond": "Value of ETH bond required from the keep in wei.",
          "_groupSize": "Number of signers in the keep.",
          "_honestThreshold": "Minimum number of honest keep signers.",
          "_owner": "Address of the keep owner.",
          "_stakeLockDuration": "Stake lock duration in seconds."
        },
        "return": "Created keep address."
      },
      "openKeepFeeEstimate()": {
        "return": "Uint256 estimate."
      },
      "registerMemberCandidate(address)": {
        "details": "If caller is already registered it returns without any changes.",
        "params": {
          "_application": "Address of the application."
        }
      },
      "setMinimumBondableValue(uint256,uint256,uint256)": {
        "params": {
          "_groupSize": "Number of signers in the keep.",
          "_honestThreshold": "Minimum number of honest keep signers.",
          "_minimumBondableValue": "The minimum bond value the application requires from a single keep."
        }
      },
      "stubOpenKeep(address,address[],uint256)": {
        "params": {
          "_creationTimestamp": "Keep creation timestamp. ",
          "_members": "Keep members.",
          "_owner": "Address of the keep owner."
        },
        "return": "Created keep address."
      },
      "updateOperatorStatus(address,address)": {
        "params": {
          "_application": "Customer application address.",
          "_operator": "Operator's address."
        }
      }
    },
    "title": "Bonded ECDSA Keep Factory Stub"
  },
  "userdoc": {
    "methods": {
      "__beaconCallback(uint256)": {
        "notice": "Sets a new group selection seed value."
      },
      "__isRecognized(address)": {
        "notice": "Verifies if delegates authority recipient is valid address recognized by the factory for token staking authority delegation."
      },
      "balanceOf(address)": {
        "notice": "Gets the stake balance of the specified operator."
      },
      "createSortitionPool(address)": {
        "notice": "Creates new sortition pool for the application."
      },
      "getKeepAtIndex(uint256)": {
        "notice": "Gets a specific keep address at a given index."
      },
      "getKeepCount()": {
        "notice": "Gets how many keeps have been opened by this contract."
      },
      "getKeepOpenedTimestamp(address)": {
        "notice": "Gets the opened timestamp of the given keep."
      },
      "getSortitionPool(address)": {
        "notice": "Gets the sortition pool address for the given application."
      },
      "getSortitionPoolWeight(address)": {
        "notice": "Gets the total weight of operators in the sortition pool for the given application."
      },
      "hasMinimumStake(address)": {
        "notice": "Checks if the specified account has enough active stake to become network operator and that this contract has been authorized for potential slashing.     /// Having the required minimum of active stake makes the operator eligible to join the network. If the active stake is not currently undelegating, operator is also eligible for work selection. "
      },
      "isOperatorAuthorized(address)": {
        "notice": "Checks if the factory has the authorization to operate on stake represented by the provided operator. "
      },
      "isOperatorEligible(address,address)": {
        "notice": "Checks if given operator is eligible for the given application."
      },
      "isOperatorRegistered(address,address)": {
        "notice": "Checks if operator is registered as a candidate for the given customer application."
      },
      "isOperatorUpToDate(address,address)": {
        "notice": "Checks if operator's details in the member candidates pool are up to date for the given application. If not update operator status function should be called by the one who is monitoring the status."
      },
      "newEntryFeeEstimate()": {
        "notice": "Gets a fee estimate for a new random entry."
      },
      "newGroupSelectionSeedFee()": {
        "notice": "Calculates the fee requestor has to pay to reseed the factory for signer selection. Depending on how much value is stored in the reseed pool and the price of a new relay entry, returned value may vary."
      },
      "openKeep(uint256,uint256,address,uint256,uint256)": {
        "notice": "Opens a new ECDSA keep."
      },
      "openKeepFeeEstimate()": {
        "notice": "Gets a fee estimate for opening a new keep."
      },
      "registerMemberCandidate(address)": {
        "notice": "Register caller as a candidate to be selected as keep member for the provided customer application."
      },
      "requestNewGroupSelectionSeed()": {
        "notice": "Reseeds the value used for a signer selection. Requires enough payment to be passed. The required payment can be calculated using reseedFee function. Factory is automatically triggering reseeding after opening a new keep but the reseed can be also triggered at any moment using this function."
      },
      "setMinimumBondableValue(uint256,uint256,uint256)": {
        "notice": "Sets the minimum bondable value required from the operator to join the sortition pool of the given application. It is up to the application to specify a reasonable minimum bond for operators trying to join the pool to prevent griefing by operators joining without enough bondable value."
      },
      "stubBatchOpenFakeKeeps(uint256,uint256)": {
        "notice": "Mocks opening `_numberOfKeeps` with the opening timestamp of the first keep starting at `_firstKeepCreationTimestamp`. IMPORTANT! This function does not actually create new keep instances! It would not be possible to create 100 keeps in one block because of gas limits."
      },
      "stubOpenKeep(address,address[],uint256)": {
        "notice": "Opens a new ECDSA keep."
      },
      "updateOperatorStatus(address,address)": {
        "notice": "Invokes update of operator's details in the member candidates pool for the given application"
      }
    }
  }
}