{
  "contractName": "BondedECDSAKeepCloneFactory",
  "abi": [
    {
      "inputs": [
        {
          "internalType": "address",
          "name": "_masterBondedECDSAKeepAddress",
          "type": "address"
        }
      ],
      "payable": false,
      "stateMutability": "nonpayable",
      "type": "constructor"
    },
    {
      "anonymous": false,
      "inputs": [
        {
          "indexed": false,
          "internalType": "address",
          "name": "keepAddress",
          "type": "address"
        }
      ],
      "name": "BondedECDSAKeepCreated",
      "type": "event"
    },
    {
      "constant": true,
      "inputs": [],
      "name": "bondTokenAddress",
      "outputs": [
        {
          "internalType": "address",
          "name": "",
          "type": "address"
        }
      ],
      "payable": false,
      "stateMutability": "view",
      "type": "function"
    },
    {
      "constant": true,
      "inputs": [],
      "name": "masterBondedECDSAKeepAddress",
      "outputs": [
        {
          "internalType": "address",
          "name": "",
          "type": "address"
        }
      ],
      "payable": false,
      "stateMutability": "view",
      "type": "function"
    },
    {
      "constant": true,
      "inputs": [],
      "name": "membersSlashed",
      "outputs": [
        {
          "internalType": "bool",
          "name": "",
          "type": "bool"
        }
      ],
      "payable": false,
      "stateMutability": "view",
      "type": "function"
    },
    {
      "constant": true,
      "inputs": [],
      "name": "minimumStake",
      "outputs": [
        {
          "internalType": "uint256",
          "name": "",
          "type": "uint256"
        }
      ],
      "payable": false,
      "stateMutability": "view",
      "type": "function"
    },
    {
      "constant": false,
      "inputs": [
        {
          "internalType": "address",
          "name": "_owner",
          "type": "address"
        },
        {
          "internalType": "address[]",
          "name": "_members",
          "type": "address[]"
        },
        {
          "internalType": "uint256",
          "name": "_honestThreshold",
          "type": "uint256"
        },
        {
          "internalType": "uint256",
          "name": "_minimumStake",
          "type": "uint256"
        },
        {
          "internalType": "uint256",
          "name": "_stakeLockDuration",
          "type": "uint256"
        },
        {
          "internalType": "address",
          "name": "_tokenStaking",
          "type": "address"
        },
        {
          "internalType": "address",
          "name": "_keepBonding",
          "type": "address"
        },
        {
          "internalType": "address payable",
          "name": "_keepFactory",
          "type": "address"
        },
        {
          "internalType": "address",
          "name": "_bondTokenAddress",
          "type": "address"
        }
      ],
      "name": "newKeep",
      "outputs": [
        {
          "internalType": "address",
          "name": "keepAddress",
          "type": "address"
        }
      ],
      "payable": true,
      "stateMutability": "payable",
      "type": "function"
    }
  ],
  "bytecode": "0x6080604052692a5a058fc295ed00000060005534801561001e57600080fd5b506040516107933803806107938339818101604052602081101561004157600080fd5b810190808051906020019092919050505080600160006101000a81548173ffffffffffffffffffffffffffffffffffffffff021916908373ffffffffffffffffffffffffffffffffffffffff160217905550506106f0806100a36000396000f3fe60806040526004361061004a5760003560e01c80631133fd2c1461004f5780634e33fb84146100a6578063532edfc5146100fd578063e7e4b7a614610275578063ec5ffac2146102a4575b600080fd5b34801561005b57600080fd5b506100646102cf565b604051808273ffffffffffffffffffffffffffffffffffffffff1673ffffffffffffffffffffffffffffffffffffffff16815260200191505060405180910390f35b3480156100b257600080fd5b506100bb6102f5565b604051808273ffffffffffffffffffffffffffffffffffffffff1673ffffffffffffffffffffffffffffffffffffffff16815260200191505060405180910390f35b610233600480360361012081101561011457600080fd5b81019080803573ffffffffffffffffffffffffffffffffffffffff1690602001909291908035906020019064010000000081111561015157600080fd5b82018360208201111561016357600080fd5b8035906020019184602083028401116401000000008311171561018557600080fd5b9091929391929390803590602001909291908035906020019092919080359060200190929190803573ffffffffffffffffffffffffffffffffffffffff169060200190929190803573ffffffffffffffffffffffffffffffffffffffff169060200190929190803573ffffffffffffffffffffffffffffffffffffffff169060200190929190803573ffffffffffffffffffffffffffffffffffffffff16906020019092919050505061031b565b604051808273ffffffffffffffffffffffffffffffffffffffff1673ffffffffffffffffffffffffffffffffffffffff16815260200191505060405180910390f35b34801561028157600080fd5b5061028a6105b6565b604051808215151515815260200191505060405180910390f35b3480156102b057600080fd5b506102b96105c9565b6040518082815260200191505060405180910390f35b600260009054906101000a900473ffffffffffffffffffffffffffffffffffffffff1681565b600160009054906101000a900473ffffffffffffffffffffffffffffffffffffffff1681565b6000610348600160009054906101000a900473ffffffffffffffffffffffffffffffffffffffff166105cf565b9050610376600160009054906101000a900473ffffffffffffffffffffffffffffffffffffffff1682610639565b61037c57fe5b81600260006101000a81548173ffffffffffffffffffffffffffffffffffffffff021916908373ffffffffffffffffffffffffffffffffffffffff16021790555060008190508073ffffffffffffffffffffffffffffffffffffffff166379a804918d8d8d8d8d8d8d8d8d6040518a63ffffffff1660e01b8152600401808a73ffffffffffffffffffffffffffffffffffffffff1673ffffffffffffffffffffffffffffffffffffffff168152602001806020018881526020018781526020018681526020018573ffffffffffffffffffffffffffffffffffffffff1673ffffffffffffffffffffffffffffffffffffffff1681526020018473ffffffffffffffffffffffffffffffffffffffff1673ffffffffffffffffffffffffffffffffffffffff1681526020018373ffffffffffffffffffffffffffffffffffffffff1673ffffffffffffffffffffffffffffffffffffffff16815260200182810382528a8a82818152602001925060200280828437600081840152601f19601f8201169050808301925050509a5050505050505050505050600060405180830381600087803b15801561052c57600080fd5b505af1158015610540573d6000803e3d6000fd5b505050507f8c371310c70820e485c28dd33fc602dd9747527633e16d33e5f002f8b9b6061b82604051808273ffffffffffffffffffffffffffffffffffffffff1673ffffffffffffffffffffffffffffffffffffffff16815260200191505060405180910390a1509a9950505050505050505050565b600260149054906101000a900460ff1681565b60005481565b6000808260601b90506040517f3d602d80600a3d3981f3363d3d373d3d3d363d7300000000000000000000000081528160148201527f5af43d82803e903d91602b57fd5bf3000000000000000000000000000000000060288201526037816000f092505050919050565b6000808360601b90506040517f363d3d373d3d3d363d7300000000000000000000000000000000000000000000815281600a8201527f5af43d82803e903d91602b57fd5bf30000000000000000000000000000000000601e82015260408101602d600082873c600d810151600d8301511481518351141693505050509291505056fea265627a7a723158205f98d4fe0a776cab5cd67eed8962b6230850557989e490598d66f8dfa941918d64736f6c63430005110032",
  "source": "pragma solidity 0.5.17;\n\nimport \"../../contracts/BondedECDSAKeep.sol\";\nimport \"../../contracts/CloneFactory.sol\";\n\n/// @title Bonded ECDSA Keep Factory Stub using clone factory.\n/// @dev This contract is for testing purposes only.\ncontract BondedECDSAKeepCloneFactory is CloneFactory {\n    uint256 public minimumStake = 200000 * 1e18;\n\n    address public masterBondedECDSAKeepAddress;\n    address public bondTokenAddress;\n    bool public membersSlashed;\n\n    constructor(address _masterBondedECDSAKeepAddress) public {\n        masterBondedECDSAKeepAddress = _masterBondedECDSAKeepAddress;\n    }\n\n    event BondedECDSAKeepCreated(address keepAddress);\n\n    function newKeep(\n        address _owner,\n        address[] calldata _members,\n        uint256 _honestThreshold,\n        uint256 _minimumStake,\n        uint256 _stakeLockDuration,\n        address _tokenStaking,\n        address _keepBonding,\n        address payable _keepFactory,\n        address _bondTokenAddress\n    ) external payable returns (address keepAddress) {\n        keepAddress = createClone(masterBondedECDSAKeepAddress);\n        assert(isClone(masterBondedECDSAKeepAddress, keepAddress));\n        bondTokenAddress = _bondTokenAddress;\n        BondedECDSAKeep keep = BondedECDSAKeep(keepAddress);\n        keep.initialize(\n            _owner,\n            _members,\n            _honestThreshold,\n            _minimumStake,\n            _stakeLockDuration,\n            _tokenStaking,\n            _keepBonding,\n            _keepFactory\n        );\n\n        emit BondedECDSAKeepCreated(keepAddress);\n    }\n}\n",
  "sourcePath": "/home/kowal/Projects/sovryn/keep-ecdsa/solidity/contracts/test/BondedECDSAKeepCloneFactoryStub.sol",
  "compiler": {
    "name": "solc",
    "version": "0.5.17+commit.d19bba13.Emscripten.clang"
  },
  "schemaVersion": "3.0.22",
  "updatedAt": "2021-01-29T17:36:47.960Z",
  "devdoc": {
    "details": "This contract is for testing purposes only.",
    "methods": {},
    "title": "Bonded ECDSA Keep Factory Stub using clone factory."
  },
  "userdoc": {
    "methods": {}
  }
}