{
  "contractName": "BondedECDSAKeepFactory",
  "abi": [
    {
      "inputs": [
        {
          "internalType": "address",
          "name": "_masterBondedECDSAKeepAddress",
          "type": "address"
        },
        {
          "internalType": "address",
          "name": "_sortitionPoolFactory",
          "type": "address"
        },
        {
          "internalType": "address",
          "name": "_tokenStaking",
          "type": "address"
        },
        {
          "internalType": "address",
          "name": "_keepBonding",
          "type": "address"
        },
        {
          "internalType": "address",
          "name": "_randomBeacon",
          "type": "address"
        },
        {
          "internalType": "address",
          "name": "_bondTokenAddress",
          "type": "address"
        }
      ],
      "payable": false,
      "stateMutability": "nonpayable",
      "type": "constructor"
    },
    {
      "anonymous": false,
      "inputs": [
        {
          "indexed": true,
          "internalType": "address",
          "name": "keepAddress",
          "type": "address"
        },
        {
          "indexed": false,
          "internalType": "address[]",
          "name": "members",
          "type": "address[]"
        },
        {
          "indexed": true,
          "internalType": "address",
          "name": "owner",
          "type": "address"
        },
        {
          "indexed": true,
          "internalType": "address",
          "name": "application",
          "type": "address"
        },
        {
          "indexed": false,
          "internalType": "uint256",
          "name": "honestThreshold",
          "type": "uint256"
        }
      ],
      "name": "BondedECDSAKeepCreated",
      "type": "event"
    },
    {
      "anonymous": false,
      "inputs": [
        {
          "indexed": true,
          "internalType": "address",
          "name": "application",
          "type": "address"
        },
        {
          "indexed": false,
          "internalType": "address",
          "name": "sortitionPool",
          "type": "address"
        }
      ],
      "name": "SortitionPoolCreated",
      "type": "event"
    },
    {
      "payable": true,
      "stateMutability": "payable",
      "type": "fallback"
    },
    {
      "constant": false,
      "inputs": [
        {
          "internalType": "uint256",
          "name": "_relayEntry",
          "type": "uint256"
        }
      ],
      "name": "__beaconCallback",
      "outputs": [],
      "payable": false,
      "stateMutability": "nonpayable",
      "type": "function"
    },
    {
      "constant": true,
      "inputs": [],
      "name": "bondTokenAddress",
      "outputs": [
        {
          "internalType": "address",
          "name": "",
          "type": "address"
        }
      ],
      "payable": false,
      "stateMutability": "view",
      "type": "function"
    },
    {
      "constant": true,
      "inputs": [],
      "name": "callbackGas",
      "outputs": [
        {
          "internalType": "uint256",
          "name": "",
          "type": "uint256"
        }
      ],
      "payable": false,
      "stateMutability": "view",
      "type": "function"
    },
    {
      "constant": false,
      "inputs": [
        {
          "internalType": "address",
          "name": "_application",
          "type": "address"
        }
      ],
      "name": "createSortitionPool",
      "outputs": [
        {
          "internalType": "address",
          "name": "",
          "type": "address"
        }
      ],
      "payable": false,
      "stateMutability": "nonpayable",
      "type": "function"
    },
    {
      "constant": true,
      "inputs": [
        {
          "internalType": "uint256",
          "name": "index",
          "type": "uint256"
        }
      ],
      "name": "getKeepAtIndex",
      "outputs": [
        {
          "internalType": "address",
          "name": "",
          "type": "address"
        }
      ],
      "payable": false,
      "stateMutability": "view",
      "type": "function"
    },
    {
      "constant": true,
      "inputs": [],
      "name": "getKeepCount",
      "outputs": [
        {
          "internalType": "uint256",
          "name": "",
          "type": "uint256"
        }
      ],
      "payable": false,
      "stateMutability": "view",
      "type": "function"
    },
    {
      "constant": true,
      "inputs": [
        {
          "internalType": "address",
          "name": "_keep",
          "type": "address"
        }
      ],
      "name": "getKeepOpenedTimestamp",
      "outputs": [
        {
          "internalType": "uint256",
          "name": "",
          "type": "uint256"
        }
      ],
      "payable": false,
      "stateMutability": "view",
      "type": "function"
    },
    {
      "constant": true,
      "inputs": [
        {
          "internalType": "address",
          "name": "_application",
          "type": "address"
        }
      ],
      "name": "getSortitionPool",
      "outputs": [
        {
          "internalType": "address",
          "name": "",
          "type": "address"
        }
      ],
      "payable": false,
      "stateMutability": "view",
      "type": "function"
    },
    {
      "constant": true,
      "inputs": [
        {
          "internalType": "address",
          "name": "_application",
          "type": "address"
        }
      ],
      "name": "getSortitionPoolWeight",
      "outputs": [
        {
          "internalType": "uint256",
          "name": "",
          "type": "uint256"
        }
      ],
      "payable": false,
      "stateMutability": "view",
      "type": "function"
    },
    {
      "constant": true,
      "inputs": [],
      "name": "groupSelectionSeed",
      "outputs": [
        {
          "internalType": "uint256",
          "name": "",
          "type": "uint256"
        }
      ],
      "payable": false,
      "stateMutability": "view",
      "type": "function"
    },
    {
      "constant": true,
      "inputs": [
        {
          "internalType": "address",
          "name": "_operator",
          "type": "address"
        },
        {
          "internalType": "address",
          "name": "_application",
          "type": "address"
        }
      ],
      "name": "isOperatorEligible",
      "outputs": [
        {
          "internalType": "bool",
          "name": "",
          "type": "bool"
        }
      ],
      "payable": false,
      "stateMutability": "view",
      "type": "function"
    },
    {
      "constant": true,
      "inputs": [
        {
          "internalType": "address",
          "name": "_operator",
          "type": "address"
        },
        {
          "internalType": "address",
          "name": "_application",
          "type": "address"
        }
      ],
      "name": "isOperatorRegistered",
      "outputs": [
        {
          "internalType": "bool",
          "name": "",
          "type": "bool"
        }
      ],
      "payable": false,
      "stateMutability": "view",
      "type": "function"
    },
    {
      "constant": true,
      "inputs": [
        {
          "internalType": "address",
          "name": "_operator",
          "type": "address"
        },
        {
          "internalType": "address",
          "name": "_application",
          "type": "address"
        }
      ],
      "name": "isOperatorUpToDate",
      "outputs": [
        {
          "internalType": "bool",
          "name": "",
          "type": "bool"
        }
      ],
      "payable": false,
      "stateMutability": "view",
      "type": "function"
    },
    {
      "constant": true,
      "inputs": [
        {
          "internalType": "uint256",
          "name": "",
          "type": "uint256"
        }
      ],
      "name": "keeps",
      "outputs": [
        {
          "internalType": "address",
          "name": "",
          "type": "address"
        }
      ],
      "payable": false,
      "stateMutability": "view",
      "type": "function"
    },
    {
      "constant": true,
      "inputs": [],
      "name": "masterKeepAddress",
      "outputs": [
        {
          "internalType": "address",
          "name": "",
          "type": "address"
        }
      ],
      "payable": false,
      "stateMutability": "view",
      "type": "function"
    },
    {
      "constant": true,
      "inputs": [],
      "name": "minimumBond",
      "outputs": [
        {
          "internalType": "uint256",
          "name": "",
          "type": "uint256"
        }
      ],
      "payable": false,
      "stateMutability": "view",
      "type": "function"
    },
    {
      "constant": true,
      "inputs": [],
      "name": "newEntryFeeEstimate",
      "outputs": [
        {
          "internalType": "uint256",
          "name": "",
          "type": "uint256"
        }
      ],
      "payable": false,
      "stateMutability": "view",
      "type": "function"
    },
    {
      "constant": true,
      "inputs": [],
      "name": "newGroupSelectionSeedFee",
      "outputs": [
        {
          "internalType": "uint256",
          "name": "",
          "type": "uint256"
        }
      ],
      "payable": false,
      "stateMutability": "view",
      "type": "function"
    },
    {
      "constant": true,
      "inputs": [],
      "name": "poolStakeWeightDivisor",
      "outputs": [
        {
          "internalType": "uint256",
          "name": "",
          "type": "uint256"
        }
      ],
      "payable": false,
      "stateMutability": "view",
      "type": "function"
    },
    {
      "constant": false,
      "inputs": [
        {
          "internalType": "address",
          "name": "_application",
          "type": "address"
        }
      ],
      "name": "registerMemberCandidate",
      "outputs": [],
      "payable": false,
      "stateMutability": "nonpayable",
      "type": "function"
    },
    {
      "constant": false,
      "inputs": [],
      "name": "requestNewGroupSelectionSeed",
      "outputs": [],
      "payable": true,
      "stateMutability": "payable",
      "type": "function"
    },
    {
      "constant": true,
      "inputs": [],
      "name": "reseedPool",
      "outputs": [
        {
          "internalType": "uint256",
          "name": "",
          "type": "uint256"
        }
      ],
      "payable": false,
      "stateMutability": "view",
      "type": "function"
    },
    {
      "constant": false,
      "inputs": [
        {
          "internalType": "address",
          "name": "_operator",
          "type": "address"
        },
        {
          "internalType": "address",
          "name": "_application",
          "type": "address"
        }
      ],
      "name": "updateOperatorStatus",
      "outputs": [],
      "payable": false,
      "stateMutability": "nonpayable",
      "type": "function"
    },
    {
      "constant": false,
      "inputs": [
        {
          "internalType": "uint256",
          "name": "_minimumBondableValue",
          "type": "uint256"
        },
        {
          "internalType": "uint256",
          "name": "_groupSize",
          "type": "uint256"
        },
        {
          "internalType": "uint256",
          "name": "_honestThreshold",
          "type": "uint256"
        }
      ],
      "name": "setMinimumBondableValue",
      "outputs": [],
      "payable": false,
      "stateMutability": "nonpayable",
      "type": "function"
    },
    {
      "constant": false,
      "inputs": [
        {
          "internalType": "uint256",
          "name": "_groupSize",
          "type": "uint256"
        },
        {
          "internalType": "uint256",
          "name": "_honestThreshold",
          "type": "uint256"
        },
        {
          "internalType": "address",
          "name": "_owner",
          "type": "address"
        },
        {
          "internalType": "uint256",
          "name": "_bond",
          "type": "uint256"
        },
        {
          "internalType": "uint256",
          "name": "_stakeLockDuration",
          "type": "uint256"
        }
      ],
      "name": "openKeep",
      "outputs": [
        {
          "internalType": "address",
          "name": "keepAddress",
          "type": "address"
        }
      ],
      "payable": true,
      "stateMutability": "payable",
      "type": "function"
    },
    {
      "constant": false,
      "inputs": [
        {
          "internalType": "address",
          "name": "_delegatedAuthorityRecipient",
          "type": "address"
        }
      ],
      "name": "__isRecognized",
      "outputs": [
        {
          "internalType": "bool",
          "name": "",
          "type": "bool"
        }
      ],
      "payable": false,
      "stateMutability": "nonpayable",
      "type": "function"
    },
    {
      "constant": true,
      "inputs": [],
      "name": "openKeepFeeEstimate",
      "outputs": [
        {
          "internalType": "uint256",
          "name": "",
          "type": "uint256"
        }
      ],
      "payable": false,
      "stateMutability": "view",
      "type": "function"
    },
    {
      "constant": true,
      "inputs": [
        {
          "internalType": "address",
          "name": "_operator",
          "type": "address"
        }
      ],
      "name": "hasMinimumStake",
      "outputs": [
        {
          "internalType": "bool",
          "name": "",
          "type": "bool"
        }
      ],
      "payable": false,
      "stateMutability": "view",
      "type": "function"
    },
    {
      "constant": true,
      "inputs": [
        {
          "internalType": "address",
          "name": "_operator",
          "type": "address"
        }
      ],
      "name": "isOperatorAuthorized",
      "outputs": [
        {
          "internalType": "bool",
          "name": "",
          "type": "bool"
        }
      ],
      "payable": false,
      "stateMutability": "view",
      "type": "function"
    },
    {
      "constant": true,
      "inputs": [
        {
          "internalType": "address",
          "name": "_operator",
          "type": "address"
        }
      ],
      "name": "balanceOf",
      "outputs": [
        {
          "internalType": "uint256",
          "name": "",
          "type": "uint256"
        }
      ],
      "payable": false,
      "stateMutability": "view",
      "type": "function"
    }
  ],
  "bytecode": "0x608060405234801561001057600080fd5b5060405161369d38038061369d833981810160405260c081101561003357600080fd5b810190808051906020019092919080519060200190929190805190602001909291908051906020019092919080519060200190929190805190602001909291905050508186806000806101000a81548173ffffffffffffffffffffffffffffffffffffffff021916908373ffffffffffffffffffffffffffffffffffffffff16021790555050600160038190555080600460006101000a81548173ffffffffffffffffffffffffffffffffffffffff021916908373ffffffffffffffffffffffffffffffffffffffff1602179055507f4574c8c75d6e88acd28f7e467dac97b5c60c3838d9dad993900bdf402152228e6006819055505084600860006101000a81548173ffffffffffffffffffffffffffffffffffffffff021916908373ffffffffffffffffffffffffffffffffffffffff16021790555080600b60006101000a81548173ffffffffffffffffffffffffffffffffffffffff021916908373ffffffffffffffffffffffffffffffffffffffff16021790555083600960006101000a81548173ffffffffffffffffffffffffffffffffffffffff021916908373ffffffffffffffffffffffffffffffffffffffff16021790555082600a60006101000a81548173ffffffffffffffffffffffffffffffffffffffff021916908373ffffffffffffffffffffffffffffffffffffffff16021790555050505050505061345a806102436000396000f3fe6080604052600436106101cd5760003560e01c8063a10132ad116100f7578063b7a6f48311610095578063d14fede111610064578063d14fede114610a8b578063d870c03414610af0578063ebcbb39f14610b59578063eca4a80d14610bbe576101cd565b8063b7a6f483146108dc578063b8ee915614610965578063bc2c289f146109b4578063ca050cfd146109df576101cd565b8063a5a53fb5116100d1578063a5a53fb514610830578063a5b310551461085b578063aa7517e114610886578063b2dc7593146108b1576101cd565b8063a10132ad146106eb578063a23af33014610716578063a3c28a131461079f576101cd565b8063514899851161016f57806370a082311161013e57806370a082311461058f57806379a382e9146105f45780638701af421461061f57806392ae584a1461069a576101cd565b8063514899851461041b5780635b0d5b8e146104465780635c1c0710146104cf5780635cef841714610538576101cd565b806321f74e56116101ab57806321f74e5614610342578063356e07281461034c57806336c2a0001461038757806338400400146103f0576101cd565b806309211ceb146101df5780631133fd2c14610270578063202bb9f0146102c7575b34600560008282540192505081905550005b3480156101eb57600080fd5b5061022e6004803603602081101561020257600080fd5b81019080803573ffffffffffffffffffffffffffffffffffffffff169060200190929190505050610c2f565b604051808273ffffffffffffffffffffffffffffffffffffffff1673ffffffffffffffffffffffffffffffffffffffff16815260200191505060405180910390f35b34801561027c57600080fd5b50610285610d7c565b604051808273ffffffffffffffffffffffffffffffffffffffff1673ffffffffffffffffffffffffffffffffffffffff16815260200191505060405180910390f35b3480156102d357600080fd5b50610300600480360360208110156102ea57600080fd5b8101908080359060200190929190505050610da2565b604051808273ffffffffffffffffffffffffffffffffffffffff1673ffffffffffffffffffffffffffffffffffffffff16815260200191505060405180910390f35b61034a610e5d565b005b34801561035857600080fd5b506103856004803603602081101561036f57600080fd5b81019080803590602001909291905050506110ef565b005b34801561039357600080fd5b506103d6600480360360208110156103aa57600080fd5b81019080803573ffffffffffffffffffffffffffffffffffffffff1690602001909291905050506111bc565b604051808215151515815260200191505060405180910390f35b3480156103fc57600080fd5b506104056112d3565b6040518082815260200191505060405180910390f35b34801561042757600080fd5b506104306113b5565b6040518082815260200191505060405180910390f35b34801561045257600080fd5b506104b56004803603604081101561046957600080fd5b81019080803573ffffffffffffffffffffffffffffffffffffffff169060200190929190803573ffffffffffffffffffffffffffffffffffffffff16906020019092919050505061146c565b604051808215151515815260200191505060405180910390f35b3480156104db57600080fd5b5061051e600480360360208110156104f257600080fd5b81019080803573ffffffffffffffffffffffffffffffffffffffff169060200190929190505050611630565b604051808215151515815260200191505060405180910390f35b34801561054457600080fd5b5061054d611747565b604051808273ffffffffffffffffffffffffffffffffffffffff1673ffffffffffffffffffffffffffffffffffffffff16815260200191505060405180910390f35b34801561059b57600080fd5b506105de600480360360208110156105b257600080fd5b81019080803573ffffffffffffffffffffffffffffffffffffffff16906020019092919050505061176c565b6040518082815260200191505060405180910390f35b34801561060057600080fd5b5061060961184f565b6040518082815260200191505060405180910390f35b34801561062b57600080fd5b506106586004803603602081101561064257600080fd5b8101908080359060200190929190505050611855565b604051808273ffffffffffffffffffffffffffffffffffffffff1673ffffffffffffffffffffffffffffffffffffffff16815260200191505060405180910390f35b3480156106a657600080fd5b506106e9600480360360208110156106bd57600080fd5b81019080803573ffffffffffffffffffffffffffffffffffffffff169060200190929190505050611891565b005b3480156106f757600080fd5b506107006119fc565b6040518082815260200191505060405180910390f35b34801561072257600080fd5b506107856004803603604081101561073957600080fd5b81019080803573ffffffffffffffffffffffffffffffffffffffff169060200190929190803573ffffffffffffffffffffffffffffffffffffffff169060200190929190505050611a02565b604051808215151515815260200191505060405180910390f35b3480156107ab57600080fd5b506107ee600480360360208110156107c257600080fd5b81019080803573ffffffffffffffffffffffffffffffffffffffff169060200190929190505050611acd565b604051808273ffffffffffffffffffffffffffffffffffffffff1673ffffffffffffffffffffffffffffffffffffffff16815260200191505060405180910390f35b34801561083c57600080fd5b50610845611d3c565b6040518082815260200191505060405180910390f35b34801561086757600080fd5b50610870611d48565b6040518082815260200191505060405180910390f35b34801561089257600080fd5b5061089b611d4e565b6040518082815260200191505060405180910390f35b3480156108bd57600080fd5b506108c6611d5b565b6040518082815260200191505060405180910390f35b3480156108e857600080fd5b5061094b600480360360408110156108ff57600080fd5b81019080803573ffffffffffffffffffffffffffffffffffffffff169060200190929190803573ffffffffffffffffffffffffffffffffffffffff169060200190929190505050611d68565b604051808215151515815260200191505060405180910390f35b34801561097157600080fd5b506109b26004803603606081101561098857600080fd5b81019080803590602001909291908035906020019092919080359060200190929190505050611f2c565b005b3480156109c057600080fd5b506109c9611fb3565b6040518082815260200191505060405180910390f35b610a49600480360360a08110156109f557600080fd5b810190808035906020019092919080359060200190929190803573ffffffffffffffffffffffffffffffffffffffff1690602001909291908035906020019092919080359060200190929190505050611fc2565b604051808273ffffffffffffffffffffffffffffffffffffffff1673ffffffffffffffffffffffffffffffffffffffff16815260200191505060405180910390f35b348015610a9757600080fd5b50610ada60048036036020811015610aae57600080fd5b81019080803573ffffffffffffffffffffffffffffffffffffffff1690602001909291905050506128ef565b6040518082815260200191505060405180910390f35b348015610afc57600080fd5b50610b3f60048036036020811015610b1357600080fd5b81019080803573ffffffffffffffffffffffffffffffffffffffff169060200190929190505050612938565b604051808215151515815260200191505060405180910390f35b348015610b6557600080fd5b50610ba860048036036020811015610b7c57600080fd5b81019080803573ffffffffffffffffffffffffffffffffffffffff169060200190929190505050612983565b6040518082815260200191505060405180910390f35b348015610bca57600080fd5b50610c2d60048036036040811015610be157600080fd5b81019080803573ffffffffffffffffffffffffffffffffffffffff169060200190929190803573ffffffffffffffffffffffffffffffffffffffff169060200190929190505050612a15565b005b60008073ffffffffffffffffffffffffffffffffffffffff16600760008473ffffffffffffffffffffffffffffffffffffffff1673ffffffffffffffffffffffffffffffffffffffff16815260200190815260200160002060009054906101000a900473ffffffffffffffffffffffffffffffffffffffff1673ffffffffffffffffffffffffffffffffffffffff161415610d15576040517f08c379a00000000000000000000000000000000000000000000000000000000081526004018080602001828103825260218152602001806133b86021913960400191505060405180910390fd5b600760008373ffffffffffffffffffffffffffffffffffffffff1673ffffffffffffffffffffffffffffffffffffffff16815260200190815260200160002060009054906101000a900473ffffffffffffffffffffffffffffffffffffffff169050919050565b600b60009054906101000a900473ffffffffffffffffffffffffffffffffffffffff1681565b60006001805490508210610e1e576040517f08c379a000000000000000000000000000000000000000000000000000000000815260040180806020018281038252600e8152602001807f4f7574206f6620626f756e64732e00000000000000000000000000000000000081525060200191505060405180910390fd5b60018281548110610e2b57fe5b9060005260206000200160009054906101000a900473ffffffffffffffffffffffffffffffffffffffff169050919050565b600160036000828254019250508190555060006003549050610e8a34600554612ab990919063ffffffff16565b6005819055506000600460009054906101000a900473ffffffffffffffffffffffffffffffffffffffff1673ffffffffffffffffffffffffffffffffffffffff1663d13f13916175306040518263ffffffff1660e01b81526004018082815260200191505060206040518083038186803b158015610f0757600080fd5b505afa158015610f1b573d6000803e3d6000fd5b505050506040513d6020811015610f3157600080fd5b81019080805190602001909291905050509050806005541015610f9f576040517f08c379a00000000000000000000000000000000000000000000000000000000081526004018080602001828103825260228152602001806134046022913960400191505060405180910390fd5b610fb481600554612b4190919063ffffffff16565b60058190555060006060610fc783612bca565b915091508161107257806040517f08c379a00000000000000000000000000000000000000000000000000000000081526004018080602001828103825283818151815260200191508051906020019080838360005b8381101561103757808201518184015260208101905061101c565b50505050905090810190601f1680156110645780820380516001836020036101000a031916815260200191505b509250505060405180910390fd5b50505060035481146110ec576040517f08c379a000000000000000000000000000000000000000000000000000000000815260040180806020018281038252601f8152602001807f5265656e7472616e637947756172643a207265656e7472616e742063616c6c0081525060200191505060405180910390fd5b50565b3373ffffffffffffffffffffffffffffffffffffffff16600460009054906101000a900473ffffffffffffffffffffffffffffffffffffffff1673ffffffffffffffffffffffffffffffffffffffff16146111b2576040517f08c379a000000000000000000000000000000000000000000000000000000000815260040180806020018281038252601f8152602001807f43616c6c6572206973206e6f74207468652072616e646f6d20626561636f6e0081525060200191505060405180910390fd5b8060068190555050565b6000600960009054906101000a900473ffffffffffffffffffffffffffffffffffffffff1673ffffffffffffffffffffffffffffffffffffffff1663ef1f966183306040518363ffffffff1660e01b8152600401808373ffffffffffffffffffffffffffffffffffffffff1673ffffffffffffffffffffffffffffffffffffffff1681526020018273ffffffffffffffffffffffffffffffffffffffff1673ffffffffffffffffffffffffffffffffffffffff1681526020019250505060206040518083038186803b15801561129157600080fd5b505afa1580156112a5573d6000803e3d6000fd5b505050506040513d60208110156112bb57600080fd5b81019080805190602001909291905050509050919050565b600080600460009054906101000a900473ffffffffffffffffffffffffffffffffffffffff1673ffffffffffffffffffffffffffffffffffffffff1663d13f13916175306040518263ffffffff1660e01b81526004018082815260200191505060206040518083038186803b15801561134b57600080fd5b505afa15801561135f573d6000803e3d6000fd5b505050506040513d602081101561137557600080fd5b810190808051906020019092919050505090506005548111156113ac576113a760055482612b4190919063ffffffff16565b6113af565b60005b91505090565b6000600460009054906101000a900473ffffffffffffffffffffffffffffffffffffffff1673ffffffffffffffffffffffffffffffffffffffff1663d13f13916175306040518263ffffffff1660e01b81526004018082815260200191505060206040518083038186803b15801561142c57600080fd5b505afa158015611440573d6000803e3d6000fd5b505050506040513d602081101561145657600080fd5b8101908080519060200190929190505050905090565b60008073ffffffffffffffffffffffffffffffffffffffff16600760008473ffffffffffffffffffffffffffffffffffffffff1673ffffffffffffffffffffffffffffffffffffffff16815260200190815260200160002060009054906101000a900473ffffffffffffffffffffffffffffffffffffffff1673ffffffffffffffffffffffffffffffffffffffff16141561150a576000905061162a565b6000600760008473ffffffffffffffffffffffffffffffffffffffff1673ffffffffffffffffffffffffffffffffffffffff16815260200190815260200160002060009054906101000a900473ffffffffffffffffffffffffffffffffffffffff1690508073ffffffffffffffffffffffffffffffffffffffff1663b4766856856040518263ffffffff1660e01b8152600401808273ffffffffffffffffffffffffffffffffffffffff1673ffffffffffffffffffffffffffffffffffffffff16815260200191505060206040518083038186803b1580156115eb57600080fd5b505afa1580156115ff573d6000803e3d6000fd5b505050506040513d602081101561161557600080fd5b81019080805190602001909291905050509150505b92915050565b6000600960009054906101000a900473ffffffffffffffffffffffffffffffffffffffff1673ffffffffffffffffffffffffffffffffffffffff166310a63ec083306040518363ffffffff1660e01b8152600401808373ffffffffffffffffffffffffffffffffffffffff1673ffffffffffffffffffffffffffffffffffffffff1681526020018273ffffffffffffffffffffffffffffffffffffffff1673ffffffffffffffffffffffffffffffffffffffff1681526020019250505060206040518083038186803b15801561170557600080fd5b505afa158015611719573d6000803e3d6000fd5b505050506040513d602081101561172f57600080fd5b81019080805190602001909291905050509050919050565b6000809054906101000a900473ffffffffffffffffffffffffffffffffffffffff1681565b6000600960009054906101000a900473ffffffffffffffffffffffffffffffffffffffff1673ffffffffffffffffffffffffffffffffffffffff166370a08231836040518263ffffffff1660e01b8152600401808273ffffffffffffffffffffffffffffffffffffffff1673ffffffffffffffffffffffffffffffffffffffff16815260200191505060206040518083038186803b15801561180d57600080fd5b505afa158015611821573d6000803e3d6000fd5b505050506040513d602081101561183757600080fd5b81019080805190602001909291905050509050919050565b60065481565b6001818154811061186257fe5b906000526020600020016000915054906101000a900473ffffffffffffffffffffffffffffffffffffffff1681565b600061189c82610c2f565b905060003390508173ffffffffffffffffffffffffffffffffffffffff1663f7186ce0826040518263ffffffff1660e01b8152600401808273ffffffffffffffffffffffffffffffffffffffff1673ffffffffffffffffffffffffffffffffffffffff16815260200191505060206040518083038186803b15801561192057600080fd5b505afa158015611934573d6000803e3d6000fd5b505050506040513d602081101561194a57600080fd5b81019080805190602001909291905050506119f7578173ffffffffffffffffffffffffffffffffffffffff16631ae0e73d826040518263ffffffff1660e01b8152600401808273ffffffffffffffffffffffffffffffffffffffff1673ffffffffffffffffffffffffffffffffffffffff168152602001915050600060405180830381600087803b1580156119de57600080fd5b505af11580156119f2573d6000803e3d6000fd5b505050505b505050565b61753081565b6000611a0e8383612d70565b73ffffffffffffffffffffffffffffffffffffffff1663e686440f846040518263ffffffff1660e01b8152600401808273ffffffffffffffffffffffffffffffffffffffff1673ffffffffffffffffffffffffffffffffffffffff16815260200191505060206040518083038186803b158015611a8a57600080fd5b505afa158015611a9e573d6000803e3d6000fd5b505050506040513d6020811015611ab457600080fd5b8101908080519060200190929190505050905092915050565b60008073ffffffffffffffffffffffffffffffffffffffff16600760008473ffffffffffffffffffffffffffffffffffffffff1673ffffffffffffffffffffffffffffffffffffffff16815260200190815260200160002060009054906101000a900473ffffffffffffffffffffffffffffffffffffffff1673ffffffffffffffffffffffffffffffffffffffff1614611bcf576040517f08c379a000000000000000000000000000000000000000000000000000000000815260040180806020018281038252601d8152602001807f536f72746974696f6e20706f6f6c20616c72656164792065786973747300000081525060200191505060405180910390fd5b6000611bda83612e39565b905080600760008573ffffffffffffffffffffffffffffffffffffffff1673ffffffffffffffffffffffffffffffffffffffff16815260200190815260200160002060006101000a81548173ffffffffffffffffffffffffffffffffffffffff021916908373ffffffffffffffffffffffffffffffffffffffff1602179055508273ffffffffffffffffffffffffffffffffffffffff167f693c68cd964926544cbaee02b00d9352aa98c6de2484515e8bd74130c005e6af82604051808273ffffffffffffffffffffffffffffffffffffffff1673ffffffffffffffffffffffffffffffffffffffff16815260200191505060405180910390a2600760008473ffffffffffffffffffffffffffffffffffffffff1673ffffffffffffffffffffffffffffffffffffffff16815260200190815260200160002060009054906101000a900473ffffffffffffffffffffffffffffffffffffffff16915050919050565b670de0b6b3a764000081565b60055481565b6801158e460913d0000081565b6000600180549050905090565b60008073ffffffffffffffffffffffffffffffffffffffff16600760008473ffffffffffffffffffffffffffffffffffffffff1673ffffffffffffffffffffffffffffffffffffffff16815260200190815260200160002060009054906101000a900473ffffffffffffffffffffffffffffffffffffffff1673ffffffffffffffffffffffffffffffffffffffff161415611e065760009050611f26565b6000600760008473ffffffffffffffffffffffffffffffffffffffff1673ffffffffffffffffffffffffffffffffffffffff16815260200190815260200160002060009054906101000a900473ffffffffffffffffffffffffffffffffffffffff1690508073ffffffffffffffffffffffffffffffffffffffff16636b1906f8856040518263ffffffff1660e01b8152600401808273ffffffffffffffffffffffffffffffffffffffff1673ffffffffffffffffffffffffffffffffffffffff16815260200191505060206040518083038186803b158015611ee757600080fd5b505afa158015611efb573d6000803e3d6000fd5b505050506040513d6020811015611f1157600080fd5b81019080805190602001909291905050509150505b92915050565b6000611f388484613061565b9050611f4333610c2f565b73ffffffffffffffffffffffffffffffffffffffff166334ce30f0826040518263ffffffff1660e01b815260040180828152602001915050600060405180830381600087803b158015611f9557600080fd5b505af1158015611fa9573d6000803e3d6000fd5b5050505050505050565b6000611fbd6113b5565b905090565b600060016003600082825401925050819055506000600354905060008711612052576040517f08c379a000000000000000000000000000000000000000000000000000000000815260040180806020018281038252601f8152602001807f4d696e696d756d207369676e696e672067726f75702073697a6520697320310081525060200191505060405180910390fd5b60108711156120c9576040517f08c379a00000000000000000000000000000000000000000000000000000000081526004018080602001828103825260208152602001807f4d6178696d756d207369676e696e672067726f75702073697a6520697320313681525060200191505060405180910390fd5b60008611612122576040517f08c379a00000000000000000000000000000000000000000000000000000000081526004018080602001828103825260278152602001806133916027913960400191505060405180910390fd5b8686111561217b576040517f08c379a00000000000000000000000000000000000000000000000000000000081526004018080602001828103825260358152602001806133336035913960400191505060405180910390fd5b6000339050600061218b82610c2f565b90506000612199878b613061565b9050600081116121f4576040517f08c379a00000000000000000000000000000000000000000000000000000000081526004018080602001828103825260298152602001806133686029913960400191505060405180910390fd5b6121fc611fb3565b341015612254576040517f08c379a000000000000000000000000000000000000000000000000000000000815260040180806020018281038252602b815260200180613308602b913960400191505060405180910390fd5b6000600960009054906101000a900473ffffffffffffffffffffffffffffffffffffffff1673ffffffffffffffffffffffffffffffffffffffff1663ec5ffac26040518163ffffffff1660e01b815260040160206040518083038186803b1580156122be57600080fd5b505afa1580156122d2573d6000803e3d6000fd5b505050506040513d60208110156122e857600080fd5b8101908080519060200190929190505050905060608373ffffffffffffffffffffffffffffffffffffffff1663a2cca6a28d60065460001b85876040518563ffffffff1660e01b815260040180858152602001848152602001838152602001828152602001945050505050600060405180830381600087803b15801561236d57600080fd5b505af1158015612381573d6000803e3d6000fd5b505050506040513d6000823e3d601f19601f8201168201806040525060208110156123ab57600080fd5b81019080805160405193929190846401000000008211156123cb57600080fd5b838201915060208201858111156123e157600080fd5b82518660208202830111640100000000821117156123fe57600080fd5b8083526020830192505050908051906020019060200280838360005b8381101561243557808201518184015260208101905061241a565b50505050905001604052505050905061244c6130a3565b612454613133565b96508673ffffffffffffffffffffffffffffffffffffffff166379a804918b838e868d600960009054906101000a900473ffffffffffffffffffffffffffffffffffffffff16600a60009054906101000a900473ffffffffffffffffffffffffffffffffffffffff16306040518963ffffffff1660e01b8152600401808973ffffffffffffffffffffffffffffffffffffffff1673ffffffffffffffffffffffffffffffffffffffff168152602001806020018881526020018781526020018681526020018573ffffffffffffffffffffffffffffffffffffffff1673ffffffffffffffffffffffffffffffffffffffff1681526020018473ffffffffffffffffffffffffffffffffffffffff1673ffffffffffffffffffffffffffffffffffffffff1681526020018373ffffffffffffffffffffffffffffffffffffffff1673ffffffffffffffffffffffffffffffffffffffff168152602001828103825289818151815260200191508051906020019060200280838360005b838110156125ea5780820151818401526020810190506125cf565b505050509050019950505050505050505050600060405180830381600087803b15801561261657600080fd5b505af115801561262a573d6000803e3d6000fd5b5050505060008090505b8c8110156127a357600a60009054906101000a900473ffffffffffffffffffffffffffffffffffffffff1673ffffffffffffffffffffffffffffffffffffffff1663d20a62fc83838151811061268657fe5b60200260200101518a8b73ffffffffffffffffffffffffffffffffffffffff16888a6040518663ffffffff1660e01b8152600401808673ffffffffffffffffffffffffffffffffffffffff1673ffffffffffffffffffffffffffffffffffffffff1681526020018573ffffffffffffffffffffffffffffffffffffffff1673ffffffffffffffffffffffffffffffffffffffff1681526020018481526020018381526020018273ffffffffffffffffffffffffffffffffffffffff1673ffffffffffffffffffffffffffffffffffffffff16815260200195505050505050600060405180830381600087803b15801561277e57600080fd5b505af1158015612792573d6000803e3d6000fd5b505050508080600101915050612634565b508473ffffffffffffffffffffffffffffffffffffffff168a73ffffffffffffffffffffffffffffffffffffffff168873ffffffffffffffffffffffffffffffffffffffff167f7c030f3f8c902fa5a59193f1e3c08ae7245fc0e3b7ab290b6a9548a57a46ac60848f6040518080602001838152602001828103825284818151815260200191508051906020019060200280838360005b8381101561285557808201518184015260208101905061283a565b50505050905001935050505060405180910390a4505050505060035481146128e5576040517f08c379a000000000000000000000000000000000000000000000000000000000815260040180806020018281038252601f8152602001807f5265656e7472616e637947756172643a207265656e7472616e742063616c6c0081525060200191505060405180910390fd5b5095945050505050565b6000600260008373ffffffffffffffffffffffffffffffffffffffff1673ffffffffffffffffffffffffffffffffffffffff168152602001908152602001600020549050919050565b600080600260008473ffffffffffffffffffffffffffffffffffffffff1673ffffffffffffffffffffffffffffffffffffffff16815260200190815260200160002054119050919050565b600061298e82610c2f565b73ffffffffffffffffffffffffffffffffffffffff166396c82e576040518163ffffffff1660e01b815260040160206040518083038186803b1580156129d357600080fd5b505afa1580156129e7573d6000803e3d6000fd5b505050506040513d60208110156129fd57600080fd5b81019080805190602001909291905050509050919050565b612a1f8282612d70565b73ffffffffffffffffffffffffffffffffffffffff16631c5b0762836040518263ffffffff1660e01b8152600401808273ffffffffffffffffffffffffffffffffffffffff1673ffffffffffffffffffffffffffffffffffffffff168152602001915050600060405180830381600087803b158015612a9d57600080fd5b505af1158015612ab1573d6000803e3d6000fd5b505050505050565b600080828401905083811015612b37576040517f08c379a000000000000000000000000000000000000000000000000000000000815260040180806020018281038252601b8152602001807f536166654d6174683a206164646974696f6e206f766572666c6f77000000000081525060200191505060405180910390fd5b8091505092915050565b600082821115612bb9576040517f08c379a000000000000000000000000000000000000000000000000000000000815260040180806020018281038252601e8152602001807f536166654d6174683a207375627472616374696f6e206f766572666c6f77000081525060200191505060405180910390fd5b600082840390508091505092915050565b60006060600460009054906101000a900473ffffffffffffffffffffffffffffffffffffffff1673ffffffffffffffffffffffffffffffffffffffff168330617530604051602401808373ffffffffffffffffffffffffffffffffffffffff1673ffffffffffffffffffffffffffffffffffffffff168152602001828152602001925050506040516020818303038152906040527fe1f95890000000000000000000000000000000000000000000000000000000007bffffffffffffffffffffffffffffffffffffffffffffffffffffffff19166020820180517bffffffffffffffffffffffffffffffffffffffffffffffffffffffff83818316178352505050506040518082805190602001908083835b60208310612cff5780518252602082019150602081019050602083039250612cdc565b6001836020036101000a03801982511681845116808217855250505050505090500191505060006040518083038185875af1925050503d8060008114612d61576040519150601f19603f3d011682016040523d82523d6000602084013e612d66565b606091505b5091509150915091565b6000612d7c8383611d68565b612dd1576040517f08c379a000000000000000000000000000000000000000000000000000000000815260040180806020018281038252602b8152602001806133d9602b913960400191505060405180910390fd5b600760008373ffffffffffffffffffffffffffffffffffffffff1673ffffffffffffffffffffffffffffffffffffffff16815260200190815260200160002060009054906101000a900473ffffffffffffffffffffffffffffffffffffffff16905092915050565b6000600860009054906101000a900473ffffffffffffffffffffffffffffffffffffffff1673ffffffffffffffffffffffffffffffffffffffff166356385578600960009054906101000a900473ffffffffffffffffffffffffffffffffffffffff16600a60009054906101000a900473ffffffffffffffffffffffffffffffffffffffff16600960009054906101000a900473ffffffffffffffffffffffffffffffffffffffff1673ffffffffffffffffffffffffffffffffffffffff1663ec5ffac26040518163ffffffff1660e01b815260040160206040518083038186803b158015612f2757600080fd5b505afa158015612f3b573d6000803e3d6000fd5b505050506040513d6020811015612f5157600080fd5b81019080805190602001909291905050506801158e460913d00000670de0b6b3a76400006040518663ffffffff1660e01b8152600401808673ffffffffffffffffffffffffffffffffffffffff1673ffffffffffffffffffffffffffffffffffffffff1681526020018573ffffffffffffffffffffffffffffffffffffffff1673ffffffffffffffffffffffffffffffffffffffff16815260200184815260200183815260200182815260200195505050505050602060405180830381600087803b15801561301f57600080fd5b505af1158015613033573d6000803e3d6000fd5b505050506040513d602081101561304957600080fd5b81019080805190602001909291905050509050919050565b600061309b8261308d600161307f8688612ab990919063ffffffff16565b612b4190919063ffffffff16565b61320e90919063ffffffff16565b905092915050565b60065430604051602001808381526020018273ffffffffffffffffffffffffffffffffffffffff1673ffffffffffffffffffffffffffffffffffffffff1660601b8152601401925050506040516020818303038152906040528051906020012060001c600681905550600061311734612bca565b5090508061313057346005600082825401925050819055505b50565b600061315f6000809054906101000a900473ffffffffffffffffffffffffffffffffffffffff1661329d565b905060018190806001815401808255809150509060018203906000526020600020016000909192909190916101000a81548173ffffffffffffffffffffffffffffffffffffffff021916908373ffffffffffffffffffffffffffffffffffffffff1602179055505042600260008373ffffffffffffffffffffffffffffffffffffffff1673ffffffffffffffffffffffffffffffffffffffff1681526020019081526020016000208190555090565b6000808211613285576040517f08c379a000000000000000000000000000000000000000000000000000000000815260040180806020018281038252601a8152602001807f536166654d6174683a206469766973696f6e206279207a65726f00000000000081525060200191505060405180910390fd5b600082848161329057fe5b0490508091505092915050565b6000808260601b90506040517f3d602d80600a3d3981f3363d3d373d3d3d363d7300000000000000000000000081528160148201527f5af43d82803e903d91602b57fd5bf3000000000000000000000000000000000060288201526037816000f09250505091905056fe496e73756666696369656e74207061796d656e7420666f72206f70656e696e672061206e6577206b656570486f6e657374207468726573686f6c64206d757374206265206c657373206f7220657175616c207468652067726f75702073697a65426f6e6420706572206d656d626572206d7573742062652067726561746572207468616e207a65726f486f6e657374207468726573686f6c64206d7573742062652067726561746572207468616e20304e6f20706f6f6c20666f756e6420666f7220746865206170706c69636174696f6e4f70657261746f72206e6f74207265676973746572656420666f7220746865206170706c69636174696f6e4e6f7420656e6f7567682066756e647320746f207472696767657220726573656564a265627a7a723158200f7e9dbd2fd8fdb923db13d99c52a1f3d48597d7e5141ffcb6be10b2b894601064736f6c63430005110032",
  "source": "/**\n     \n   \n                            \n                             \n                           \n                           \n                          \n     \n     \n\n                           Trust math, not hardware.\n*/\n\npragma solidity 0.5.17;\n\nimport \"./BondedECDSAKeep.sol\";\nimport \"./KeepBonding.sol\";\nimport \"./api/IBondedECDSAKeepFactory.sol\";\nimport \"./KeepCreator.sol\";\nimport \"./GroupSelectionSeed.sol\";\nimport \"./CandidatesPools.sol\";\n\nimport \"@keep-network/sortition-pools/contracts/api/IStaking.sol\";\nimport \"@keep-network/sortition-pools/contracts/api/IBonding.sol\";\nimport \"@keep-network/sortition-pools/contracts/BondedSortitionPool.sol\";\nimport \"@keep-network/sortition-pools/contracts/BondedSortitionPoolFactory.sol\";\n\nimport {\n    AuthorityDelegator,\n    TokenStaking\n} from \"@keep-network/keep-core/contracts/TokenStaking.sol\";\nimport \"@keep-network/keep-core/contracts/utils/AddressArrayUtils.sol\";\n\nimport \"openzeppelin-solidity/contracts/math/SafeMath.sol\";\n\n/// @title Bonded ECDSA Keep Factory\n/// @notice Contract creating bonded ECDSA keeps.\n/// @dev We avoid redeployment of bonded ECDSA keep contract by using the clone factory.\n/// Proxy delegates calls to sortition pool and therefore does not affect contract's\n/// state. This means that we only need to deploy the bonded ECDSA keep contract\n/// once. The factory provides clean state for every new bonded ECDSA keep clone.\ncontract BondedECDSAKeepFactory is\n    IBondedECDSAKeepFactory,\n    KeepCreator,\n    AuthorityDelegator,\n    GroupSelectionSeed,\n    CandidatesPools\n{\n    using AddressArrayUtils for address[];\n    using SafeMath for uint256;\n\n    // Notification that a new keep has been created.\n    event BondedECDSAKeepCreated(\n        address indexed keepAddress,\n        address[] members,\n        address indexed owner,\n        address indexed application,\n        uint256 honestThreshold\n    );\n\n    BondedSortitionPoolFactory sortitionPoolFactory;\n    TokenStaking tokenStaking;\n    KeepBonding keepBonding;\n\n    // Sortition pool is created with a minimum bond of 20 ETH to avoid\n    // small operators joining and griefing future selections before the\n    // minimum bond is set to the right value by the application.\n    //\n    // Anyone can create a sortition pool for an application with the default\n    // minimum bond value but the application can change this value later, at\n    // any point.\n    uint256 public constant minimumBond = 20e18; // 20 ETH\n\n    // Signer candidates in bonded sortition pool are weighted by their eligible\n    // stake divided by a constant divisor. The divisor is set to 1 KEEP so that\n    // all KEEPs in eligible stake matter when calculating operator's eligible\n    // weight for signer selection.\n    uint256 public constant poolStakeWeightDivisor = 1e18;\n    address public bondTokenAddress;\n\n    constructor(\n        address _masterBondedECDSAKeepAddress,\n        address _sortitionPoolFactory,\n        address _tokenStaking,\n        address _keepBonding,\n        address _randomBeacon,\n        address _bondTokenAddress\n    )\n        public\n        KeepCreator(_masterBondedECDSAKeepAddress)\n        GroupSelectionSeed(_randomBeacon)\n    {\n        sortitionPoolFactory = BondedSortitionPoolFactory(\n            _sortitionPoolFactory\n        );\n        bondTokenAddress = _bondTokenAddress;\n        tokenStaking = TokenStaking(_tokenStaking);\n        keepBonding = KeepBonding(_keepBonding);\n    }\n\n    /// @notice Sets the minimum bondable value required from the operator to\n    /// join the sortition pool of the given application. It is up to the\n    /// application to specify a reasonable minimum bond for operators trying to\n    /// join the pool to prevent griefing by operators joining without enough\n    /// bondable value.\n    /// @param _minimumBondableValue The minimum bond value the application\n    /// requires from a single keep.\n    /// @param _groupSize Number of signers in the keep.\n    /// @param _honestThreshold Minimum number of honest keep signers.\n    function setMinimumBondableValue(\n        uint256 _minimumBondableValue,\n        uint256 _groupSize,\n        uint256 _honestThreshold\n    ) external {\n        uint256 memberBond = bondPerMember(_minimumBondableValue, _groupSize);\n        BondedSortitionPool(getSortitionPool(msg.sender))\n            .setMinimumBondableValue(memberBond);\n    }\n\n    /// @notice Opens a new ECDSA keep.\n    /// @dev Selects a list of signers for the keep based on provided parameters.\n    /// A caller of this function is expected to be an application for which\n    /// member candidates were registered in a pool.\n    /// @param _groupSize Number of signers in the keep.\n    /// @param _honestThreshold Minimum number of honest keep signers.\n    /// @param _owner Address of the keep owner.\n    /// @param _bond Value of ETH bond required from the keep in wei.\n    /// @param _stakeLockDuration Stake lock duration in seconds.\n    /// @return Created keep address.\n    function openKeep(\n        uint256 _groupSize,\n        uint256 _honestThreshold,\n        address _owner,\n        uint256 _bond,\n        uint256 _stakeLockDuration\n    ) external payable nonReentrant returns (address keepAddress) {\n        require(_groupSize > 0, \"Minimum signing group size is 1\");\n        require(_groupSize <= 16, \"Maximum signing group size is 16\");\n        require(\n            _honestThreshold > 0,\n            \"Honest threshold must be greater than 0\"\n        );\n        require(\n            _honestThreshold <= _groupSize,\n            \"Honest threshold must be less or equal the group size\"\n        );\n\n        address application = msg.sender;\n        address pool = getSortitionPool(application);\n\n        uint256 memberBond = bondPerMember(_bond, _groupSize);\n        require(memberBond > 0, \"Bond per member must be greater than zero\");\n\n        require(\n            msg.value >= openKeepFeeEstimate(),\n            \"Insufficient payment for opening a new keep\"\n        );\n\n        uint256 minimumStake = tokenStaking.minimumStake();\n\n        address[] memory members =\n            BondedSortitionPool(pool).selectSetGroup(\n                _groupSize,\n                bytes32(groupSelectionSeed),\n                minimumStake,\n                memberBond\n            );\n\n        newGroupSelectionSeed();\n\n        // createKeep sets keepOpenedTimestamp value for newly created keep which\n        // is required to be set before calling `keep.initialize` function as it\n        // is used to determine token staking delegation authority recognition\n        // in `__isRecognized` function.\n        keepAddress = createKeep();\n\n        BondedECDSAKeep(keepAddress).initialize(\n            _owner,\n            members,\n            _honestThreshold,\n            minimumStake,\n            _stakeLockDuration,\n            address(tokenStaking),\n            address(keepBonding),\n            address(this)\n        );\n\n        for (uint256 i = 0; i < _groupSize; i++) {\n            keepBonding.createBond(\n                members[i],\n                keepAddress,\n                uint256(keepAddress),\n                memberBond,\n                pool\n            );\n        }\n\n        emit BondedECDSAKeepCreated(\n            keepAddress,\n            members,\n            _owner,\n            application,\n            _honestThreshold\n        );\n    }\n\n    /// @notice Verifies if delegates authority recipient is valid address recognized\n    /// by the factory for token staking authority delegation.\n    /// @param _delegatedAuthorityRecipient Address of the delegated authority\n    /// recipient.\n    /// @return True if provided address is recognized delegated token staking\n    /// authority for this factory contract.\n    function __isRecognized(address _delegatedAuthorityRecipient)\n        external\n        returns (bool)\n    {\n        return keepOpenedTimestamp[_delegatedAuthorityRecipient] > 0;\n    }\n\n    /// @notice Gets a fee estimate for opening a new keep.\n    /// @return Uint256 estimate.\n    function openKeepFeeEstimate() public view returns (uint256) {\n        return newEntryFeeEstimate();\n    }\n\n    /// @notice Checks if the specified account has enough active stake to become\n    /// network operator and that this contract has been authorized for potential\n    /// slashing.\n    ///\n    /// Having the required minimum of active stake makes the operator eligible\n    /// to join the network. If the active stake is not currently undelegating,\n    /// operator is also eligible for work selection.\n    ///\n    /// @param _operator operator's address\n    /// @return True if has enough active stake to participate in the network,\n    /// false otherwise.\n    function hasMinimumStake(address _operator) public view returns (bool) {\n        return tokenStaking.hasMinimumStake(_operator, address(this));\n    }\n\n    /// @notice Checks if the factory has the authorization to operate on stake\n    /// represented by the provided operator.\n    ///\n    /// @param _operator operator's address\n    /// @return True if the factory has access to the staked token balance of\n    /// the provided operator and can slash that stake. False otherwise.\n    function isOperatorAuthorized(address _operator)\n        public\n        view\n        returns (bool)\n    {\n        return tokenStaking.isAuthorizedForOperator(_operator, address(this));\n    }\n\n    /// @notice Gets the stake balance of the specified operator.\n    /// @param _operator The operator to query the balance of.\n    /// @return An uint256 representing the amount staked by the passed operator.\n    function balanceOf(address _operator) public view returns (uint256) {\n        return tokenStaking.balanceOf(_operator);\n    }\n\n    function newSortitionPool(address _application) internal returns (address) {\n        return\n            sortitionPoolFactory.createSortitionPool(\n                IStaking(address(tokenStaking)),\n                IBonding(address(keepBonding)),\n                tokenStaking.minimumStake(),\n                minimumBond,\n                poolStakeWeightDivisor\n            );\n    }\n\n    /// @notice Calculates bond requirement per member performing the necessary\n    /// rounding.\n    /// @param _keepBond The bond required from a keep.\n    /// @param _groupSize Number of signers in the keep.\n    /// @return Bond value required from each keep member.\n    function bondPerMember(uint256 _keepBond, uint256 _groupSize)\n        internal\n        pure\n        returns (uint256)\n    {\n        // In Solidity, division rounds towards zero (down) and dividing\n        // '_bond' by '_groupSize' can leave a remainder. Even though, a remainder\n        // is very small, we want to avoid this from happening and memberBond is\n        // rounded up by: `(bond + groupSize - 1 ) / groupSize`\n        // Ex. (100 + 3 - 1) / 3 = 34\n        return (_keepBond.add(_groupSize).sub(1)).div(_groupSize);\n    }\n}\n",
  "sourcePath": "/Users/konrad/Desktop/rumble/fin/local-setup/keep-ecdsa/solidity/contracts/BondedECDSAKeepFactory.sol",
  "compiler": {
    "name": "solc",
    "version": "0.5.17+commit.d19bba13.Emscripten.clang"
  },
  "schemaVersion": "3.3.4",
  "updatedAt": "2021-04-30T09:26:06.779Z",
  "networkType": "ethereum",
  "devdoc": {
    "details": "We avoid redeployment of bonded ECDSA keep contract by using the clone factory. Proxy delegates calls to sortition pool and therefore does not affect contract's state. This means that we only need to deploy the bonded ECDSA keep contract once. The factory provides clean state for every new bonded ECDSA keep clone.",
    "methods": {
      "__beaconCallback(uint256)": {
        "details": "The function is expected to be called in a callback by the random beacon.",
        "params": {
          "_relayEntry": "Beacon output."
        }
      },
      "__isRecognized(address)": {
        "params": {
          "_delegatedAuthorityRecipient": "Address of the delegated authority recipient."
        },
        "return": "True if provided address is recognized delegated token staking authority for this factory contract."
      },
      "balanceOf(address)": {
        "params": {
          "_operator": "The operator to query the balance of."
        },
        "return": "An uint256 representing the amount staked by the passed operator."
      },
      "createSortitionPool(address)": {
        "details": "Emits an event after sortition pool creation.",
        "params": {
          "_application": "Address of the application."
        },
        "return": "Address of the created sortition pool contract."
      },
      "getKeepAtIndex(uint256)": {
        "return": "The address of the keep at the given index."
      },
      "getKeepCount()": {
        "details": "Checks the size of the keeps array.",
        "return": "The number of keeps opened so far."
      },
      "getKeepOpenedTimestamp(address)": {
        "return": "Timestamp the given keep was opened at or 0 if this keep was not created by this factory."
      },
      "getSortitionPool(address)": {
        "details": "Reverts if sortition does not exist for the application.",
        "params": {
          "_application": "Address of the application."
        },
        "return": "Address of the sortition pool contract."
      },
      "getSortitionPoolWeight(address)": {
        "details": "Reverts if sortition does not exits for the application.",
        "params": {
          "_application": "Address of the application."
        },
        "return": "The sum of all registered operators' weights in the pool. Reverts if sortition pool for the application does not exist."
      },
      "hasMinimumStake(address)": {
        "params": {
          "_operator": "operator's address"
        },
        "return": "True if has enough active stake to participate in the network, false otherwise."
      },
      "isOperatorAuthorized(address)": {
        "params": {
          "_operator": "operator's address"
        },
        "return": "True if the factory has access to the staked token balance of the provided operator and can slash that stake. False otherwise."
      },
      "isOperatorEligible(address,address)": {
        "params": {
          "_application": "Customer application address.",
          "_operator": "Operator's address."
        }
      },
      "isOperatorRegistered(address,address)": {
        "params": {
          "_application": "Customer application address.",
          "_operator": "Operator's address."
        },
        "return": "True if operator is already registered in the candidates pool, false otherwise."
      },
      "isOperatorUpToDate(address,address)": {
        "params": {
          "_application": "Customer application address.",
          "_operator": "Operator's address."
        }
      },
      "newEntryFeeEstimate()": {
        "return": "Uint256 estimate."
      },
      "openKeep(uint256,uint256,address,uint256,uint256)": {
        "details": "Selects a list of signers for the keep based on provided parameters. A caller of this function is expected to be an application for which member candidates were registered in a pool.",
        "params": {
          "_bond": "Value of ETH bond required from the keep in wei.",
          "_groupSize": "Number of signers in the keep.",
          "_honestThreshold": "Minimum number of honest keep signers.",
          "_owner": "Address of the keep owner.",
          "_stakeLockDuration": "Stake lock duration in seconds."
        },
        "return": "Created keep address."
      },
      "openKeepFeeEstimate()": {
        "return": "Uint256 estimate."
      },
      "registerMemberCandidate(address)": {
        "details": "If caller is already registered it returns without any changes.",
        "params": {
          "_application": "Address of the application."
        }
      },
      "setMinimumBondableValue(uint256,uint256,uint256)": {
        "params": {
          "_groupSize": "Number of signers in the keep.",
          "_honestThreshold": "Minimum number of honest keep signers.",
          "_minimumBondableValue": "The minimum bond value the application requires from a single keep."
        }
      },
      "updateOperatorStatus(address,address)": {
        "params": {
          "_application": "Customer application address.",
          "_operator": "Operator's address."
        }
      }
    },
    "title": "Bonded ECDSA Keep Factory"
  },
  "userdoc": {
    "methods": {
      "__beaconCallback(uint256)": {
        "notice": "Sets a new group selection seed value."
      },
      "__isRecognized(address)": {
        "notice": "Verifies if delegates authority recipient is valid address recognized by the factory for token staking authority delegation."
      },
      "balanceOf(address)": {
        "notice": "Gets the stake balance of the specified operator."
      },
      "createSortitionPool(address)": {
        "notice": "Creates new sortition pool for the application."
      },
      "getKeepAtIndex(uint256)": {
        "notice": "Gets a specific keep address at a given index."
      },
      "getKeepCount()": {
        "notice": "Gets how many keeps have been opened by this contract."
      },
      "getKeepOpenedTimestamp(address)": {
        "notice": "Gets the opened timestamp of the given keep."
      },
      "getSortitionPool(address)": {
        "notice": "Gets the sortition pool address for the given application."
      },
      "getSortitionPoolWeight(address)": {
        "notice": "Gets the total weight of operators in the sortition pool for the given application."
      },
      "hasMinimumStake(address)": {
        "notice": "Checks if the specified account has enough active stake to become network operator and that this contract has been authorized for potential slashing.     /// Having the required minimum of active stake makes the operator eligible to join the network. If the active stake is not currently undelegating, operator is also eligible for work selection. "
      },
      "isOperatorAuthorized(address)": {
        "notice": "Checks if the factory has the authorization to operate on stake represented by the provided operator. "
      },
      "isOperatorEligible(address,address)": {
        "notice": "Checks if given operator is eligible for the given application."
      },
      "isOperatorRegistered(address,address)": {
        "notice": "Checks if operator is registered as a candidate for the given customer application."
      },
      "isOperatorUpToDate(address,address)": {
        "notice": "Checks if operator's details in the member candidates pool are up to date for the given application. If not update operator status function should be called by the one who is monitoring the status."
      },
      "newEntryFeeEstimate()": {
        "notice": "Gets a fee estimate for a new random entry."
      },
      "newGroupSelectionSeedFee()": {
        "notice": "Calculates the fee requestor has to pay to reseed the factory for signer selection. Depending on how much value is stored in the reseed pool and the price of a new relay entry, returned value may vary."
      },
      "openKeep(uint256,uint256,address,uint256,uint256)": {
        "notice": "Opens a new ECDSA keep."
      },
      "openKeepFeeEstimate()": {
        "notice": "Gets a fee estimate for opening a new keep."
      },
      "registerMemberCandidate(address)": {
        "notice": "Register caller as a candidate to be selected as keep member for the provided customer application."
      },
      "requestNewGroupSelectionSeed()": {
        "notice": "Reseeds the value used for a signer selection. Requires enough payment to be passed. The required payment can be calculated using reseedFee function. Factory is automatically triggering reseeding after opening a new keep but the reseed can be also triggered at any moment using this function."
      },
      "setMinimumBondableValue(uint256,uint256,uint256)": {
        "notice": "Sets the minimum bondable value required from the operator to join the sortition pool of the given application. It is up to the application to specify a reasonable minimum bond for operators trying to join the pool to prevent griefing by operators joining without enough bondable value."
      },
      "updateOperatorStatus(address,address)": {
        "notice": "Invokes update of operator's details in the member candidates pool for the given application"
      }
    },
    "notice": "Contract creating bonded ECDSA keeps."
  }
}