{
  "contractName": "BondedECDSAKeepStub",
  "abi": [
    {
      "anonymous": false,
      "inputs": [
        {
          "indexed": true,
          "internalType": "address",
          "name": "submittingMember",
          "type": "address"
        },
        {
          "indexed": false,
          "internalType": "bytes",
          "name": "conflictingPublicKey",
          "type": "bytes"
        }
      ],
      "name": "ConflictingPublicKeySubmitted",
      "type": "event"
    },
    {
      "anonymous": false,
      "inputs": [
        {
          "indexed": true,
          "internalType": "address",
          "name": "token",
          "type": "address"
        },
        {
          "indexed": false,
          "internalType": "uint256",
          "name": "amount",
          "type": "uint256"
        }
      ],
      "name": "ERC20RewardDistributed",
      "type": "event"
    },
    {
      "anonymous": false,
      "inputs": [
        {
          "indexed": false,
          "internalType": "uint256",
          "name": "amount",
          "type": "uint256"
        }
      ],
      "name": "ETHRewardDistributed",
      "type": "event"
    },
    {
      "anonymous": false,
      "inputs": [],
      "name": "KeepClosed",
      "type": "event"
    },
    {
      "anonymous": false,
      "inputs": [],
      "name": "KeepTerminated",
      "type": "event"
    },
    {
      "anonymous": false,
      "inputs": [
        {
          "indexed": false,
          "internalType": "bytes",
          "name": "publicKey",
          "type": "bytes"
        }
      ],
      "name": "PublicKeyPublished",
      "type": "event"
    },
    {
      "anonymous": false,
      "inputs": [
        {
          "indexed": true,
          "internalType": "bytes32",
          "name": "digest",
          "type": "bytes32"
        }
      ],
      "name": "SignatureRequested",
      "type": "event"
    },
    {
      "anonymous": false,
      "inputs": [
        {
          "indexed": true,
          "internalType": "bytes32",
          "name": "digest",
          "type": "bytes32"
        },
        {
          "indexed": false,
          "internalType": "bytes32",
          "name": "r",
          "type": "bytes32"
        },
        {
          "indexed": false,
          "internalType": "bytes32",
          "name": "s",
          "type": "bytes32"
        },
        {
          "indexed": false,
          "internalType": "uint8",
          "name": "recoveryID",
          "type": "uint8"
        }
      ],
      "name": "SignatureSubmitted",
      "type": "event"
    },
    {
      "anonymous": false,
      "inputs": [],
      "name": "SlashingFailed",
      "type": "event"
    },
    {
      "constant": true,
      "inputs": [],
      "name": "bondTokenAddress",
      "outputs": [
        {
          "internalType": "address",
          "name": "",
          "type": "address"
        }
      ],
      "payable": false,
      "stateMutability": "view",
      "type": "function"
    },
    {
      "constant": true,
      "inputs": [],
      "name": "checkBondAmount",
      "outputs": [
        {
          "internalType": "uint256",
          "name": "",
          "type": "uint256"
        }
      ],
      "payable": false,
      "stateMutability": "view",
      "type": "function"
    },
    {
      "constant": true,
      "inputs": [
        {
          "internalType": "uint8",
          "name": "_v",
          "type": "uint8"
        },
        {
          "internalType": "bytes32",
          "name": "_r",
          "type": "bytes32"
        },
        {
          "internalType": "bytes32",
          "name": "_s",
          "type": "bytes32"
        },
        {
          "internalType": "bytes32",
          "name": "_signedDigest",
          "type": "bytes32"
        },
        {
          "internalType": "bytes",
          "name": "_preimage",
          "type": "bytes"
        }
      ],
      "name": "checkSignatureFraud",
      "outputs": [
        {
          "internalType": "bool",
          "name": "_isFraud",
          "type": "bool"
        }
      ],
      "payable": false,
      "stateMutability": "view",
      "type": "function"
    },
    {
      "constant": false,
      "inputs": [],
      "name": "closeKeep",
      "outputs": [],
      "payable": false,
      "stateMutability": "nonpayable",
      "type": "function"
    },
    {
      "constant": true,
      "inputs": [],
      "name": "digest",
      "outputs": [
        {
          "internalType": "bytes32",
          "name": "",
          "type": "bytes32"
        }
      ],
      "payable": false,
      "stateMutability": "view",
      "type": "function"
    },
    {
      "constant": true,
      "inputs": [
        {
          "internalType": "bytes32",
          "name": "",
          "type": "bytes32"
        }
      ],
      "name": "digests",
      "outputs": [
        {
          "internalType": "uint256",
          "name": "",
          "type": "uint256"
        }
      ],
      "payable": false,
      "stateMutability": "view",
      "type": "function"
    },
    {
      "constant": false,
      "inputs": [
        {
          "internalType": "address",
          "name": "_tokenAddress",
          "type": "address"
        },
        {
          "internalType": "uint256",
          "name": "_value",
          "type": "uint256"
        }
      ],
      "name": "distributeERC20Reward",
      "outputs": [],
      "payable": false,
      "stateMutability": "nonpayable",
      "type": "function"
    },
    {
      "constant": false,
      "inputs": [],
      "name": "distributeETHReward",
      "outputs": [],
      "payable": true,
      "stateMutability": "payable",
      "type": "function"
    },
    {
      "constant": true,
      "inputs": [
        {
          "internalType": "address",
          "name": "_member",
          "type": "address"
        }
      ],
      "name": "getMemberETHBalance",
      "outputs": [
        {
          "internalType": "uint256",
          "name": "",
          "type": "uint256"
        }
      ],
      "payable": false,
      "stateMutability": "view",
      "type": "function"
    },
    {
      "constant": true,
      "inputs": [],
      "name": "getMembers",
      "outputs": [
        {
          "internalType": "address[]",
          "name": "",
          "type": "address[]"
        }
      ],
      "payable": false,
      "stateMutability": "view",
      "type": "function"
    },
    {
      "constant": true,
      "inputs": [],
      "name": "getOpenedTimestamp",
      "outputs": [
        {
          "internalType": "uint256",
          "name": "",
          "type": "uint256"
        }
      ],
      "payable": false,
      "stateMutability": "view",
      "type": "function"
    },
    {
      "constant": true,
      "inputs": [],
      "name": "getOwner",
      "outputs": [
        {
          "internalType": "address",
          "name": "",
          "type": "address"
        }
      ],
      "payable": false,
      "stateMutability": "view",
      "type": "function"
    },
    {
      "constant": true,
      "inputs": [],
      "name": "getPublicKey",
      "outputs": [
        {
          "internalType": "bytes",
          "name": "",
          "type": "bytes"
        }
      ],
      "payable": false,
      "stateMutability": "view",
      "type": "function"
    },
    {
      "constant": true,
      "inputs": [],
      "name": "honestThreshold",
      "outputs": [
        {
          "internalType": "uint256",
          "name": "",
          "type": "uint256"
        }
      ],
      "payable": false,
      "stateMutability": "view",
      "type": "function"
    },
    {
      "constant": false,
      "inputs": [
        {
          "internalType": "address",
          "name": "_owner",
          "type": "address"
        },
        {
          "internalType": "address[]",
          "name": "_members",
          "type": "address[]"
        },
        {
          "internalType": "uint256",
          "name": "_honestThreshold",
          "type": "uint256"
        },
        {
          "internalType": "uint256",
          "name": "_memberStake",
          "type": "uint256"
        },
        {
          "internalType": "uint256",
          "name": "_stakeLockDuration",
          "type": "uint256"
        },
        {
          "internalType": "address",
          "name": "_tokenStaking",
          "type": "address"
        },
        {
          "internalType": "address",
          "name": "_keepBonding",
          "type": "address"
        },
        {
          "internalType": "address payable",
          "name": "_keepFactory",
          "type": "address"
        }
      ],
      "name": "initialize",
      "outputs": [],
      "payable": false,
      "stateMutability": "nonpayable",
      "type": "function"
    },
    {
      "constant": true,
      "inputs": [],
      "name": "isActive",
      "outputs": [
        {
          "internalType": "bool",
          "name": "",
          "type": "bool"
        }
      ],
      "payable": false,
      "stateMutability": "view",
      "type": "function"
    },
    {
      "constant": true,
      "inputs": [
        {
          "internalType": "bytes32",
          "name": "_digest",
          "type": "bytes32"
        }
      ],
      "name": "isAwaitingSignature",
      "outputs": [
        {
          "internalType": "bool",
          "name": "",
          "type": "bool"
        }
      ],
      "payable": false,
      "stateMutability": "view",
      "type": "function"
    },
    {
      "constant": true,
      "inputs": [],
      "name": "isClosed",
      "outputs": [
        {
          "internalType": "bool",
          "name": "",
          "type": "bool"
        }
      ],
      "payable": false,
      "stateMutability": "view",
      "type": "function"
    },
    {
      "constant": true,
      "inputs": [],
      "name": "isTerminated",
      "outputs": [
        {
          "internalType": "bool",
          "name": "",
          "type": "bool"
        }
      ],
      "payable": false,
      "stateMutability": "view",
      "type": "function"
    },
    {
      "constant": true,
      "inputs": [],
      "name": "memberStake",
      "outputs": [
        {
          "internalType": "uint256",
          "name": "",
          "type": "uint256"
        }
      ],
      "payable": false,
      "stateMutability": "view",
      "type": "function"
    },
    {
      "constant": true,
      "inputs": [
        {
          "internalType": "uint256",
          "name": "",
          "type": "uint256"
        }
      ],
      "name": "members",
      "outputs": [
        {
          "internalType": "address",
          "name": "",
          "type": "address"
        }
      ],
      "payable": false,
      "stateMutability": "view",
      "type": "function"
    },
    {
      "constant": true,
      "inputs": [],
      "name": "owner",
      "outputs": [
        {
          "internalType": "address",
          "name": "",
          "type": "address"
        }
      ],
      "payable": false,
      "stateMutability": "view",
      "type": "function"
    },
    {
      "constant": true,
      "inputs": [],
      "name": "publicKey",
      "outputs": [
        {
          "internalType": "bytes",
          "name": "",
          "type": "bytes"
        }
      ],
      "payable": false,
      "stateMutability": "view",
      "type": "function"
    },
    {
      "constant": false,
      "inputs": [
        {
          "internalType": "uint256",
          "name": "_amount",
          "type": "uint256"
        }
      ],
      "name": "returnPartialSignerBonds",
      "outputs": [],
      "payable": false,
      "stateMutability": "nonpayable",
      "type": "function"
    },
    {
      "constant": false,
      "inputs": [],
      "name": "seizeSignerBonds",
      "outputs": [],
      "payable": false,
      "stateMutability": "nonpayable",
      "type": "function"
    },
    {
      "constant": false,
      "inputs": [
        {
          "internalType": "bytes32",
          "name": "_digest",
          "type": "bytes32"
        }
      ],
      "name": "sign",
      "outputs": [],
      "payable": false,
      "stateMutability": "nonpayable",
      "type": "function"
    },
    {
      "constant": false,
      "inputs": [
        {
          "internalType": "bytes",
          "name": "_publicKey",
          "type": "bytes"
        }
      ],
      "name": "submitPublicKey",
      "outputs": [],
      "payable": false,
      "stateMutability": "nonpayable",
      "type": "function"
    },
    {
      "constant": false,
      "inputs": [
        {
          "internalType": "bytes32",
          "name": "_r",
          "type": "bytes32"
        },
        {
          "internalType": "bytes32",
          "name": "_s",
          "type": "bytes32"
        },
        {
          "internalType": "uint8",
          "name": "_recoveryID",
          "type": "uint8"
        }
      ],
      "name": "submitSignature",
      "outputs": [],
      "payable": false,
      "stateMutability": "nonpayable",
      "type": "function"
    },
    {
      "constant": false,
      "inputs": [
        {
          "internalType": "uint8",
          "name": "_v",
          "type": "uint8"
        },
        {
          "internalType": "bytes32",
          "name": "_r",
          "type": "bytes32"
        },
        {
          "internalType": "bytes32",
          "name": "_s",
          "type": "bytes32"
        },
        {
          "internalType": "bytes32",
          "name": "_signedDigest",
          "type": "bytes32"
        },
        {
          "internalType": "bytes",
          "name": "_preimage",
          "type": "bytes"
        }
      ],
      "name": "submitSignatureFraud",
      "outputs": [
        {
          "internalType": "bool",
          "name": "_isFraud",
          "type": "bool"
        }
      ],
      "payable": false,
      "stateMutability": "nonpayable",
      "type": "function"
    },
    {
      "constant": false,
      "inputs": [
        {
          "internalType": "address",
          "name": "_member",
          "type": "address"
        }
      ],
      "name": "withdraw",
      "outputs": [],
      "payable": false,
      "stateMutability": "nonpayable",
      "type": "function"
    },
    {
      "constant": false,
      "inputs": [],
      "name": "publicMarkAsClosed",
      "outputs": [],
      "payable": false,
      "stateMutability": "nonpayable",
      "type": "function"
    },
    {
      "constant": false,
      "inputs": [],
      "name": "publicMarkAsTerminated",
      "outputs": [],
      "payable": false,
      "stateMutability": "nonpayable",
      "type": "function"
    },
    {
      "constant": true,
      "inputs": [
        {
          "internalType": "bytes",
          "name": "preimage",
          "type": "bytes"
        }
      ],
      "name": "isFradulentPreimageSet",
      "outputs": [
        {
          "internalType": "bool",
          "name": "",
          "type": "bool"
        }
      ],
      "payable": false,
      "stateMutability": "view",
      "type": "function"
    },
    {
      "constant": false,
      "inputs": [
        {
          "internalType": "uint256",
          "name": "stake",
          "type": "uint256"
        }
      ],
      "name": "setMemberStake",
      "outputs": [],
      "payable": false,
      "stateMutability": "nonpayable",
      "type": "function"
    }
  ],
  "bytecode": "0x608060405234801561001057600080fd5b506148be806100206000396000f3fe6080604052600436106101f95760003560e01c80637df2b3571161010d578063c36bc456116100a0578063d5cc8b0f1161006f578063d5cc8b0f14610c8d578063da85460b14610cf2578063dc3d6da814610d09578063f15d1a9014610d34578063f4c2b4c114610dfd576101f9565b8063c36bc45614610ba5578063c9de240d14610be0578063cb7cf18714610c0b578063d1cc997614610c5e576101f9565b8063a15c3bbb116100dc578063a15c3bbb146109ce578063abd14f37146109e5578063bf9c830114610a6b578063c2b6b58c14610b76576101f9565b80637df2b35714610862578063893d20e8146108b45780638da5cb5b1461090b5780639eab525314610962576101f9565b80634420e5b7116101905780635daf08ca1161015f5780635daf08ca1461058d57806363ffab31146106085780636806db1f14610698578063799cd333146106c357806379a80491146106fe576101f9565b80634420e5b71461049f57806351cff8d9146104b657806352a82b65146105075780635a89f81014610532576101f9565b806322f3e2d4116101cc57806322f3e2d41461039b5780632930e170146103ca5780632e334452146103d457806331ede73e14610464576101f9565b806301ac4293146101fe57806307acd5cb1461024d5780631133fd2c146102645780631b54103b146102bb575b600080fd5b34801561020a57600080fd5b506102376004803603602081101561022157600080fd5b8101908080359060200190929190505050610e28565b6040518082815260200191505060405180910390f35b34801561025957600080fd5b50610262610e40565b005b34801561027057600080fd5b5061027961127a565b604051808273ffffffffffffffffffffffffffffffffffffffff1673ffffffffffffffffffffffffffffffffffffffff16815260200191505060405180910390f35b3480156102c757600080fd5b50610381600480360360208110156102de57600080fd5b81019080803590602001906401000000008111156102fb57600080fd5b82018360208201111561030d57600080fd5b8035906020019184600183028401116401000000008311171561032f57600080fd5b91908080601f016020809104026020016040519081016040528093929190818152602001838380828437600081840152601f19601f8201169050808301925050505050505091929192905050506112a0565b604051808215151515815260200191505060405180910390f35b3480156103a757600080fd5b506103b0611320565b604051808215151515815260200191505060405180910390f35b6103d261134f565b005b3480156103e057600080fd5b506103e961157d565b6040518080602001828103825283818151815260200191508051906020019080838360005b8381101561042957808201518184015260208101905061040e565b50505050905090810190601f1680156104565780820380516001836020036101000a031916815260200191505b509250505060405180910390f35b34801561047057600080fd5b5061049d6004803603602081101561048757600080fd5b810190808035906020019092919050505061161f565b005b3480156104ab57600080fd5b506104b4611629565b005b3480156104c257600080fd5b50610505600480360360208110156104d957600080fd5b81019080803573ffffffffffffffffffffffffffffffffffffffff169060200190929190505050611633565b005b34801561051357600080fd5b5061051c61181b565b6040518082815260200191505060405180910390f35b34801561053e57600080fd5b5061058b6004803603604081101561055557600080fd5b81019080803573ffffffffffffffffffffffffffffffffffffffff16906020019092919080359060200190929190505050611821565b005b34801561059957600080fd5b506105c6600480360360208110156105b057600080fd5b8101908080359060200190929190505050611a3e565b604051808273ffffffffffffffffffffffffffffffffffffffff1673ffffffffffffffffffffffffffffffffffffffff16815260200191505060405180910390f35b34801561061457600080fd5b5061061d611a7a565b6040518080602001828103825283818151815260200191508051906020019080838360005b8381101561065d578082015181840152602081019050610642565b50505050905090810190601f16801561068a5780820380516001836020036101000a031916815260200191505b509250505060405180910390f35b3480156106a457600080fd5b506106ad611b18565b6040518082815260200191505060405180910390f35b3480156106cf57600080fd5b506106fc600480360360208110156106e657600080fd5b8101908080359060200190929190505050611b1e565b005b34801561070a57600080fd5b50610860600480360361010081101561072257600080fd5b81019080803573ffffffffffffffffffffffffffffffffffffffff1690602001909291908035906020019064010000000081111561075f57600080fd5b82018360208201111561077157600080fd5b8035906020019184602083028401116401000000008311171561079357600080fd5b919080806020026020016040519081016040528093929190818152602001838360200280828437600081840152601f19601f820116905080830192505050505050509192919290803590602001909291908035906020019092919080359060200190929190803573ffffffffffffffffffffffffffffffffffffffff169060200190929190803573ffffffffffffffffffffffffffffffffffffffff169060200190929190803573ffffffffffffffffffffffffffffffffffffffff169060200190929190505050611db8565b005b34801561086e57600080fd5b506108b26004803603606081101561088557600080fd5b810190808035906020019092919080359060200190929190803560ff169060200190929190505050611f5f565b005b3480156108c057600080fd5b506108c96123cd565b604051808273ffffffffffffffffffffffffffffffffffffffff1673ffffffffffffffffffffffffffffffffffffffff16815260200191505060405180910390f35b34801561091757600080fd5b506109206123f6565b604051808273ffffffffffffffffffffffffffffffffffffffff1673ffffffffffffffffffffffffffffffffffffffff16815260200191505060405180910390f35b34801561096e57600080fd5b5061097761241b565b6040518080602001828103825283818151815260200191508051906020019060200280838360005b838110156109ba57808201518184015260208101905061099f565b505050509050019250505060405180910390f35b3480156109da57600080fd5b506109e36124a9565b005b3480156109f157600080fd5b50610a6960048036036020811015610a0857600080fd5b8101908080359060200190640100000000811115610a2557600080fd5b820183602082011115610a3757600080fd5b80359060200191846001830284011164010000000083111715610a5957600080fd5b90919293919293905050506125f7565b005b348015610a7757600080fd5b50610b5c600480360360a0811015610a8e57600080fd5b81019080803560ff16906020019092919080359060200190929190803590602001909291908035906020019092919080359060200190640100000000811115610ad657600080fd5b820183602082011115610ae857600080fd5b80359060200191846001830284011164010000000083111715610b0a57600080fd5b91908080601f016020809104026020016040519081016040528093929190818152602001838380828437600081840152601f19601f820116905080830192505050505050509192919290505050612b77565b604051808215151515815260200191505060405180910390f35b348015610b8257600080fd5b50610b8b612e67565b604051808215151515815260200191505060405180910390f35b348015610bb157600080fd5b50610bde60048036036020811015610bc857600080fd5b8101908080359060200190929190505050612e97565b005b348015610bec57600080fd5b50610bf56131c2565b6040518082815260200191505060405180910390f35b348015610c1757600080fd5b50610c4460048036036020811015610c2e57600080fd5b81019080803590602001909291905050506131c8565b604051808215151515815260200191505060405180910390f35b348015610c6a57600080fd5b50610c736131e6565b604051808215151515815260200191505060405180910390f35b348015610c9957600080fd5b50610cdc60048036036020811015610cb057600080fd5b81019080803573ffffffffffffffffffffffffffffffffffffffff169060200190929190505050613215565b6040518082815260200191505060405180910390f35b348015610cfe57600080fd5b50610d0761325e565b005b348015610d1557600080fd5b50610d1e613268565b6040518082815260200191505060405180910390f35b348015610d4057600080fd5b50610de3600480360360a0811015610d5757600080fd5b81019080803560ff16906020019092919080359060200190929190803590602001909291908035906020019092919080359060200190640100000000811115610d9f57600080fd5b820183602082011115610db157600080fd5b80359060200191846001830284011164010000000083111715610dd357600080fd5b90919293919293905050506133fe565b604051808215151515815260200191505060405180910390f35b348015610e0957600080fd5b50610e126135d2565b6040518082815260200191505060405180910390f35b60066020528060005260406000206000915090505481565b3373ffffffffffffffffffffffffffffffffffffffff166000809054906101000a900473ffffffffffffffffffffffffffffffffffffffff1673ffffffffffffffffffffffffffffffffffffffff1614610f02576040517f08c379a000000000000000000000000000000000000000000000000000000000815260040180806020018281038252601c8152602001807f43616c6c6572206973206e6f7420746865206b656570206f776e65720000000081525060200191505060405180910390fd5b610f0a611320565b610f7c576040517f08c379a00000000000000000000000000000000000000000000000000000000081526004018080602001828103825260128152602001807f4b656570206973206e6f7420616374697665000000000000000000000000000081525060200191505060405180910390fd5b610f846135dc565b60008090505b600280549050811015611277576000600c60019054906101000a900473ffffffffffffffffffffffffffffffffffffffff1673ffffffffffffffffffffffffffffffffffffffff1663446f0f9e60028481548110610fe457fe5b9060005260206000200160009054906101000a900473ffffffffffffffffffffffffffffffffffffffff16303073ffffffffffffffffffffffffffffffffffffffff166040518463ffffffff1660e01b8152600401808473ffffffffffffffffffffffffffffffffffffffff1673ffffffffffffffffffffffffffffffffffffffff1681526020018373ffffffffffffffffffffffffffffffffffffffff1673ffffffffffffffffffffffffffffffffffffffff168152602001828152602001935050505060206040518083038186803b1580156110c157600080fd5b505afa1580156110d5573d6000803e3d6000fd5b505050506040513d60208110156110eb57600080fd5b81019080805190602001909291905050509050600c60019054906101000a900473ffffffffffffffffffffffffffffffffffffffff1673ffffffffffffffffffffffffffffffffffffffff16630cb0a6776002848154811061114957fe5b9060005260206000200160009054906101000a900473ffffffffffffffffffffffffffffffffffffffff163073ffffffffffffffffffffffffffffffffffffffff16846000809054906101000a900473ffffffffffffffffffffffffffffffffffffffff166040518563ffffffff1660e01b8152600401808573ffffffffffffffffffffffffffffffffffffffff1673ffffffffffffffffffffffffffffffffffffffff1681526020018481526020018381526020018273ffffffffffffffffffffffffffffffffffffffff1673ffffffffffffffffffffffffffffffffffffffff168152602001945050505050600060405180830381600087803b15801561125157600080fd5b505af1158015611265573d6000803e3d6000fd5b50505050508080600101915050610f8a565b50565b600160009054906101000a900473ffffffffffffffffffffffffffffffffffffffff1681565b6000600b826040518082805190602001908083835b602083106112d857805182526020820191506020810190506020830392506112b5565b6001836020036101000a038019825116818451168082178552505050505050905001915050908152602001604051809103902060009054906101000a900460ff169050919050565b600080600281111561132e57fe5b600c60009054906101000a900460ff16600281111561134957fe5b14905090565b60006002805490509050600061136e82346135ee90919063ffffffff16565b9050600081116113e6576040517f08c379a000000000000000000000000000000000000000000000000000000000815260040180806020018281038252601f8152602001807f4469766964656e642076616c7565206d757374206265206e6f6e2d7a65726f0081525060200191505060405180910390fd5b60008090505b600183038161ffff1610156114905781600a600060028461ffff168154811061141157fe5b9060005260206000200160009054906101000a900473ffffffffffffffffffffffffffffffffffffffff1673ffffffffffffffffffffffffffffffffffffffff1673ffffffffffffffffffffffffffffffffffffffff1681526020019081526020016000206000828254019250508190555080806001019150506113ec565b5060006114a6833461367d90919063ffffffff16565b90506114bb818361370790919063ffffffff16565b600a6000600260018703815481106114cf57fe5b9060005260206000200160009054906101000a900473ffffffffffffffffffffffffffffffffffffffff1673ffffffffffffffffffffffffffffffffffffffff1673ffffffffffffffffffffffffffffffffffffffff168152602001908152602001600020600082825401925050819055507fa9e4160b29b5c7db7fa61c512c4b45e7c3451c3331537f065a3417778cea5096346040518082815260200191505060405180910390a1505050565b606060048054600181600116156101000203166002900480601f0160208091040260200160405190810160405280929190818152602001828054600181600116156101000203166002900480156116155780601f106115ea57610100808354040283529160200191611615565b820191906000526020600020905b8154815290600101906020018083116115f857829003601f168201915b5050505050905090565b80600d8190555050565b61163161378f565b565b6000600a60008373ffffffffffffffffffffffffffffffffffffffff1673ffffffffffffffffffffffffffffffffffffffff168152602001908152602001600020549050600081116116ed576040517f08c379a00000000000000000000000000000000000000000000000000000000081526004018080602001828103825260148152602001807f4e6f2066756e647320746f20776974686472617700000000000000000000000081525060200191505060405180910390fd5b6000600a60008473ffffffffffffffffffffffffffffffffffffffff1673ffffffffffffffffffffffffffffffffffffffff16815260200190815260200160002081905550600061173d836137e1565b73ffffffffffffffffffffffffffffffffffffffff168260405180600001905060006040518083038185875af1925050503d806000811461179a576040519150601f19603f3d011682016040523d82523d6000602084013e61179f565b606091505b5050905080611816576040517f08c379a000000000000000000000000000000000000000000000000000000000815260040180806020018281038252600f8152602001807f5472616e73666572206661696c6564000000000000000000000000000000000081525060200191505060405180910390fd5b505050565b60055481565b600082905060006002805490509050600061184582856135ee90919063ffffffff16565b9050600081116118bd576040517f08c379a000000000000000000000000000000000000000000000000000000000815260040180806020018281038252601f8152602001807f4469766964656e642076616c7565206d757374206265206e6f6e2d7a65726f0081525060200191505060405180910390fd5b60008090505b600183038161ffff16101561194f576119423361191a60028461ffff16815481106118ea57fe5b9060005260206000200160009054906101000a900473ffffffffffffffffffffffffffffffffffffffff166137e1565b848773ffffffffffffffffffffffffffffffffffffffff166138c4909392919063ffffffff16565b80806001019150506118c3565b506000611965838661367d90919063ffffffff16565b90506119e8336119ae6002600187038154811061197e57fe5b9060005260206000200160009054906101000a900473ffffffffffffffffffffffffffffffffffffffff166137e1565b6119c1848661370790919063ffffffff16565b8773ffffffffffffffffffffffffffffffffffffffff166138c4909392919063ffffffff16565b8573ffffffffffffffffffffffffffffffffffffffff167fb69f5873bb2e9e1cc495d5c23d2995010c3b5cdd1756e3cada2bc3f2150902cc866040518082815260200191505060405180910390a2505050505050565b60028181548110611a4b57fe5b906000526020600020016000915054906101000a900473ffffffffffffffffffffffffffffffffffffffff1681565b60048054600181600116156101000203166002900480601f016020809104026020016040519081016040528092919081815260200182805460018160011615610100020316600290048015611b105780601f10611ae557610100808354040283529160200191611b10565b820191906000526020600020905b815481529060010190602001808311611af357829003601f168201915b505050505081565b60035481565b3373ffffffffffffffffffffffffffffffffffffffff166000809054906101000a900473ffffffffffffffffffffffffffffffffffffffff1673ffffffffffffffffffffffffffffffffffffffff1614611be0576040517f08c379a000000000000000000000000000000000000000000000000000000000815260040180806020018281038252601c8152602001807f43616c6c6572206973206e6f7420746865206b656570206f776e65720000000081525060200191505060405180910390fd5b611be8611320565b611c5a576040517f08c379a00000000000000000000000000000000000000000000000000000000081526004018080602001828103825260128152602001807f4b656570206973206e6f7420616374697665000000000000000000000000000081525060200191505060405180910390fd5b600060048054600181600116156101000203166002900490501415611ce7576040517f08c379a000000000000000000000000000000000000000000000000000000000815260040180806020018281038252601a8152602001807f5075626c6963206b657920776173206e6f74207365742079657400000000000081525060200191505060405180910390fd5b611cef6139ca565b15611d62576040517f08c379a000000000000000000000000000000000000000000000000000000000815260040180806020018281038252600e8152602001807f5369676e6572206973206275737900000000000000000000000000000000000081525060200191505060405180910390fd5b4260088190555043600660008381526020019081526020016000208190555080600581905550807f34f611bedd4f8c135323bbfc4921e3f6e4feb7eef591036eed6af5462e6cfab060405160405180910390a250565b60008173ffffffffffffffffffffffffffffffffffffffff16631133fd2c6040518163ffffffff1660e01b815260040160206040518083038186803b158015611e0057600080fd5b505afa158015611e14573d6000803e3d6000fd5b505050506040513d6020811015611e2a57600080fd5b81019080805190602001909291905050509050611e4a89898986856139d7565b85600d8190555083600e60006101000a81548173ffffffffffffffffffffffffffffffffffffffff021916908373ffffffffffffffffffffffffffffffffffffffff160217905550600e60009054906101000a900473ffffffffffffffffffffffffffffffffffffffff1673ffffffffffffffffffffffffffffffffffffffff1663a590ae36836040518263ffffffff1660e01b8152600401808273ffffffffffffffffffffffffffffffffffffffff1673ffffffffffffffffffffffffffffffffffffffff168152602001915050600060405180830381600087803b158015611f3357600080fd5b505af1158015611f47573d6000803e3d6000fd5b50505050611f5485613b87565b505050505050505050565b611ff8336002805480602002602001604051908101604052809291908181526020018280548015611fe557602002820191906000526020600020905b8160009054906101000a900473ffffffffffffffffffffffffffffffffffffffff1673ffffffffffffffffffffffffffffffffffffffff1681526020019060010190808311611f9b575b5050505050613ca390919063ffffffff16565b61206a576040517f08c379a000000000000000000000000000000000000000000000000000000000815260040180806020018281038252601d8152602001807f43616c6c6572206973206e6f7420746865206b656570206d656d62657200000081525060200191505060405180910390fd5b6120726139ca565b6120e4576040517f08c379a00000000000000000000000000000000000000000000000000000000081526004018080602001828103825260188152602001807f4e6f74206177616974696e672061207369676e6174757265000000000000000081525060200191505060405180910390fd5b60048160ff1610612140576040517f08c379a00000000000000000000000000000000000000000000000000000000081526004018080602001828103825260278152602001806147c96027913960400191505060405180910390fd5b7f7fffffffffffffffffffffffffffffff5d576e7357a4501ddfe92f46681b20a08260001c11156121bc576040517f08c379a000000000000000000000000000000000000000000000000000000000815260040180806020018281038252604c815260200180614814604c913960600191505060405180910390fd5b600081601b019050600160055482868660405160008152602001604052604051808581526020018460ff1660ff1681526020018381526020018281526020019450505050506020604051602081039080840390855afa158015612223573d6000803e3d6000fd5b5050506020604051035173ffffffffffffffffffffffffffffffffffffffff166122e660048054600181600116156101000203166002900480601f0160208091040260200160405190810160405280929190818152602001828054600181600116156101000203166002900480156122dc5780601f106122b1576101008083540402835291602001916122dc565b820191906000526020600020905b8154815290600101906020018083116122bf57829003601f168201915b5050505050613d1e565b73ffffffffffffffffffffffffffffffffffffffff161461236f576040517f08c379a00000000000000000000000000000000000000000000000000000000081526004018080602001828103825260118152602001807f496e76616c6964207369676e617475726500000000000000000000000000000081525060200191505060405180910390fd5b60006008819055506005547fb19546e9e0b503d103dd4ae295f4d526e9115adf7c902ead329b1f2404efd35f858585604051808481526020018381526020018260ff1660ff168152602001935050505060405180910390a250505050565b60008060009054906101000a900473ffffffffffffffffffffffffffffffffffffffff16905090565b6000809054906101000a900473ffffffffffffffffffffffffffffffffffffffff1681565b6060600280548060200260200160405190810160405280929190818152602001828054801561249f57602002820191906000526020600020905b8160009054906101000a900473ffffffffffffffffffffffffffffffffffffffff1673ffffffffffffffffffffffffffffffffffffffff1681526020019060010190808311612455575b5050505050905090565b3373ffffffffffffffffffffffffffffffffffffffff166000809054906101000a900473ffffffffffffffffffffffffffffffffffffffff1673ffffffffffffffffffffffffffffffffffffffff161461256b576040517f08c379a000000000000000000000000000000000000000000000000000000000815260040180806020018281038252601c8152602001807f43616c6c6572206973206e6f7420746865206b656570206f776e65720000000081525060200191505060405180910390fd5b612573611320565b6125e5576040517f08c379a00000000000000000000000000000000000000000000000000000000081526004018080602001828103825260128152602001807f4b656570206973206e6f7420616374697665000000000000000000000000000081525060200191505060405180910390fd5b6125ed613d32565b6125f5613e80565b565b61269033600280548060200260200160405190810160405280929190818152602001828054801561267d57602002820191906000526020600020905b8160009054906101000a900473ffffffffffffffffffffffffffffffffffffffff1673ffffffffffffffffffffffffffffffffffffffff1681526020019060010190808311612633575b5050505050613ca390919063ffffffff16565b612702576040517f08c379a000000000000000000000000000000000000000000000000000000000815260040180806020018281038252601d8152602001807f43616c6c6572206973206e6f7420746865206b656570206d656d62657200000081525060200191505060405180910390fd5b61270b33613f93565b15612761576040517f08c379a00000000000000000000000000000000000000000000000000000000081526004018080602001828103825260258152602001806147a46025913960400191505060405180910390fd5b604082829050146127da576040517f08c379a00000000000000000000000000000000000000000000000000000000081526004018080602001828103825260208152602001807f5075626c6963206b6579206d757374206265203634206279746573206c6f6e6781525060200191505060405180910390fd5b8181600960003373ffffffffffffffffffffffffffffffffffffffff1673ffffffffffffffffffffffffffffffffffffffff16815260200190815260200160002091906128289291906145f9565b50600080905060008090505b600280549050811015612ae95783836040518083838082843780830192505050925050506040518091039020600960006002848154811061287157fe5b9060005260206000200160009054906101000a900473ffffffffffffffffffffffffffffffffffffffff1673ffffffffffffffffffffffffffffffffffffffff1673ffffffffffffffffffffffffffffffffffffffff16815260200190815260200160002060405180828054600181600116156101000203166002900480156129315780601f1061290f576101008083540402835291820191612931565b820191906000526020600020905b81548152906001019060200180831161291d575b5050915050604051809103902014612ad3576129836002828154811061295357fe5b9060005260206000200160009054906101000a900473ffffffffffffffffffffffffffffffffffffffff16613f93565b15612ace573373ffffffffffffffffffffffffffffffffffffffff167f99d98e35ad6445ac964c46a75c7f748e8f390ebdca5a924cd8f92d674fa34ff760096000600285815481106129d157fe5b9060005260206000200160009054906101000a900473ffffffffffffffffffffffffffffffffffffffff1673ffffffffffffffffffffffffffffffffffffffff1673ffffffffffffffffffffffffffffffffffffffff1681526020019081526020016000206040518080602001828103825283818154600181600116156101000203166002900481526020019150805460018160011615610100020316600290048015612abf5780601f10612a9457610100808354040283529160200191612abf565b820191906000526020600020905b815481529060010190602001808311612aa257829003601f168201915b50509250505060405180910390a25b612adc565b81806001019250505b8080600101915050612834565b506002805490508114612afc5750612b73565b828260049190612b0d9291906145f9565b507ff62bba8b270bef3e8d0fcebc1f86567664da8ccbd03e8509d6231cc8d63f4b31838360405180806020018281038252848482818152602001925080828437600081840152601f19601f820116905080830192505050935050505060405180910390a1505b5050565b60008060048054600181600116156101000203166002900490501415612c05576040517f08c379a000000000000000000000000000000000000000000000000000000000815260040180806020018281038252601a8152602001807f5075626c6963206b657920776173206e6f74207365742079657400000000000081525060200191505060405180910390fd5b60006002836040518082805190602001908083835b60208310612c3d5780518252602082019150602081019050602083039250612c1a565b6001836020036101000a038019825116818451168082178552505050505050905001915050602060405180830381855afa158015612c7f573d6000803e3d6000fd5b5050506040513d6020811015612c9457600080fd5b81019080805190602001909291905050509050808414612cff576040517f08c379a000000000000000000000000000000000000000000000000000000000815260040180806020018281038252603881526020018061476c6038913960400191505060405180910390fd5b600060018589898960405160008152602001604052604051808581526020018460ff1660ff1681526020018381526020018281526020019450505050506020604051602081039080840390855afa158015612d5e573d6000803e3d6000fd5b5050506020604051035173ffffffffffffffffffffffffffffffffffffffff16612e2160048054600181600116156101000203166002900480601f016020809104026020016040519081016040528092919081815260200182805460018160011615610100020316600290048015612e175780601f10612dec57610100808354040283529160200191612e17565b820191906000526020600020905b815481529060010190602001808311612dfa57829003601f168201915b5050505050613d1e565b73ffffffffffffffffffffffffffffffffffffffff16149050808015612e5a575060006006600087815260200190815260200160002054145b9250505095945050505050565b600060016002811115612e7657fe5b600c60009054906101000a900460ff166002811115612e9157fe5b14905090565b600060028054905090506000612eb682846135ee90919063ffffffff16565b905060008111612f11576040517f08c379a00000000000000000000000000000000000000000000000000000000081526004018080602001828103825260248152602001806147f06024913960400191505060405180910390fd5b60008090505b600183038161ffff16101561306357600c60019054906101000a900473ffffffffffffffffffffffffffffffffffffffff1673ffffffffffffffffffffffffffffffffffffffff1663c8820f6c60028361ffff1681548110612f7557fe5b9060005260206000200160009054906101000a900473ffffffffffffffffffffffffffffffffffffffff1684336040518463ffffffff1660e01b8152600401808473ffffffffffffffffffffffffffffffffffffffff1673ffffffffffffffffffffffffffffffffffffffff1681526020018381526020018273ffffffffffffffffffffffffffffffffffffffff1673ffffffffffffffffffffffffffffffffffffffff1681526020019350505050600060405180830381600087803b15801561303e57600080fd5b505af1158015613052573d6000803e3d6000fd5b505050508080600101915050612f17565b506000613079838561367d90919063ffffffff16565b9050600c60019054906101000a900473ffffffffffffffffffffffffffffffffffffffff1673ffffffffffffffffffffffffffffffffffffffff1663c8820f6c600260018603815481106130c957fe5b9060005260206000200160009054906101000a900473ffffffffffffffffffffffffffffffffffffffff16613107848661370790919063ffffffff16565b336040518463ffffffff1660e01b8152600401808473ffffffffffffffffffffffffffffffffffffffff1673ffffffffffffffffffffffffffffffffffffffff1681526020018381526020018273ffffffffffffffffffffffffffffffffffffffff1673ffffffffffffffffffffffffffffffffffffffff1681526020019350505050600060405180830381600087803b1580156131a457600080fd5b505af11580156131b8573d6000803e3d6000fd5b5050505050505050565b600d5481565b60006131d26139ca565b80156131df575081600554145b9050919050565b60006002808111156131f457fe5b600c60009054906101000a900460ff16600281111561320f57fe5b14905090565b6000600a60008373ffffffffffffffffffffffffffffffffffffffff1673ffffffffffffffffffffffffffffffffffffffff168152602001908152602001600020549050919050565b613266613ff3565b565b6000806000905060008090505b6002805490508110156133f657600c60019054906101000a900473ffffffffffffffffffffffffffffffffffffffff1673ffffffffffffffffffffffffffffffffffffffff1663446f0f9e600283815481106132cd57fe5b9060005260206000200160009054906101000a900473ffffffffffffffffffffffffffffffffffffffff16303073ffffffffffffffffffffffffffffffffffffffff166040518463ffffffff1660e01b8152600401808473ffffffffffffffffffffffffffffffffffffffff1673ffffffffffffffffffffffffffffffffffffffff1681526020018373ffffffffffffffffffffffffffffffffffffffff1673ffffffffffffffffffffffffffffffffffffffff168152602001828152602001935050505060206040518083038186803b1580156133aa57600080fd5b505afa1580156133be573d6000803e3d6000fd5b505050506040513d60208110156133d457600080fd5b8101908080519060200190929190505050820191508080600101915050613275565b508091505090565b6000613408611320565b61347a576040517f08c379a00000000000000000000000000000000000000000000000000000000081526004018080602001828103825260128152602001807f4b656570206973206e6f7420616374697665000000000000000000000000000081525060200191505060405180910390fd5b60006134cd8888888888888080601f016020809104026020016040519081016040528093929190818152602001838380828437600081840152601f19601f82011690508083019250505050505050612b77565b905080613542576040517f08c379a000000000000000000000000000000000000000000000000000000000815260040180806020018281038252601b8152602001807f5369676e6174757265206973206e6f74206672617564756c656e74000000000081525060200191505060405180910390fd5b600b8484604051808383808284378083019250505092505050908152602001604051809103902060009054906101000a900460ff166135c457613583614045565b6001600b8585604051808383808284378083019250505092505050908152602001604051809103902060006101000a81548160ff0219169083151502179055505b809150509695505050505050565b6000600754905090565b6135e4614260565b6135ec613e80565b565b6000808211613665576040517f08c379a000000000000000000000000000000000000000000000000000000000815260040180806020018281038252601a8152602001807f536166654d6174683a206469766973696f6e206279207a65726f00000000000081525060200191505060405180910390fd5b600082848161367057fe5b0490508091505092915050565b6000808214156136f5576040517f08c379a00000000000000000000000000000000000000000000000000000000081526004018080602001828103825260188152602001807f536166654d6174683a206d6f64756c6f206279207a65726f000000000000000081525060200191505060405180910390fd5b8183816136fe57fe5b06905092915050565b600080828401905083811015613785576040517f08c379a000000000000000000000000000000000000000000000000000000000815260040180806020018281038252601b8152602001807f536166654d6174683a206164646974696f6e206f766572666c6f77000000000081525060200191505060405180910390fd5b8091505092915050565b6002600c60006101000a81548160ff021916908360028111156137ae57fe5b02179055507f39f530c1293a870138e53618b826819a76f1fe86b5d500ba4622f9e8354a846a60405160405180910390a1565b6000600e60009054906101000a900473ffffffffffffffffffffffffffffffffffffffff1673ffffffffffffffffffffffffffffffffffffffff1663ba7bffd3836040518263ffffffff1660e01b8152600401808273ffffffffffffffffffffffffffffffffffffffff1673ffffffffffffffffffffffffffffffffffffffff16815260200191505060206040518083038186803b15801561388257600080fd5b505afa158015613896573d6000803e3d6000fd5b505050506040513d60208110156138ac57600080fd5b81019080805190602001909291905050509050919050565b6139c4848573ffffffffffffffffffffffffffffffffffffffff166323b872dd905060e01b858585604051602401808473ffffffffffffffffffffffffffffffffffffffff1673ffffffffffffffffffffffffffffffffffffffff1681526020018373ffffffffffffffffffffffffffffffffffffffff1673ffffffffffffffffffffffffffffffffffffffff1681526020018281526020019350505050604051602081830303815290604052907bffffffffffffffffffffffffffffffffffffffffffffffffffffffff19166020820180517bffffffffffffffffffffffffffffffffffffffffffffffffffffffff838183161783525050505061426a565b50505050565b6000806008541415905090565b600c60159054906101000a900460ff1615613a5a576040517f08c379a000000000000000000000000000000000000000000000000000000000815260040180806020018281038252601c8152602001807f436f6e747261637420616c726561647920696e697469616c697a65640000000081525060200191505060405180910390fd5b846000806101000a81548173ffffffffffffffffffffffffffffffffffffffff021916908373ffffffffffffffffffffffffffffffffffffffff1602179055508360029080519060200190613ab0929190614679565b508260038190555080600160006101000a81548173ffffffffffffffffffffffffffffffffffffffff021916908373ffffffffffffffffffffffffffffffffffffffff1602179055506000600c60006101000a81548160ff02191690836002811115613b1857fe5b02179055506001600c60156101000a81548160ff0219169083151502179055504260078190555081600c60016101000a81548173ffffffffffffffffffffffffffffffffffffffff021916908373ffffffffffffffffffffffffffffffffffffffff1602179055505050505050565b60008090505b600280549050811015613c9f57600e60009054906101000a900473ffffffffffffffffffffffffffffffffffffffff1673ffffffffffffffffffffffffffffffffffffffff166321e1625e60028381548110613be557fe5b9060005260206000200160009054906101000a900473ffffffffffffffffffffffffffffffffffffffff16846040518363ffffffff1660e01b8152600401808373ffffffffffffffffffffffffffffffffffffffff1673ffffffffffffffffffffffffffffffffffffffff16815260200182815260200192505050600060405180830381600087803b158015613c7a57600080fd5b505af1158015613c8e573d6000803e3d6000fd5b505050508080600101915050613b8d565b5050565b600080600090505b8351811015613d1257838181518110613cc057fe5b602002602001015173ffffffffffffffffffffffffffffffffffffffff168373ffffffffffffffffffffffffffffffffffffffff161415613d05576001915050613d18565b8080600101915050613cab565b50600090505b92915050565b6000818051906020012060001c9050919050565b3373ffffffffffffffffffffffffffffffffffffffff166000809054906101000a900473ffffffffffffffffffffffffffffffffffffffff1673ffffffffffffffffffffffffffffffffffffffff1614613df4576040517f08c379a000000000000000000000000000000000000000000000000000000000815260040180806020018281038252601c8152602001807f43616c6c6572206973206e6f7420746865206b656570206f776e65720000000081525060200191505060405180910390fd5b613dfc611320565b613e6e576040517f08c379a00000000000000000000000000000000000000000000000000000000081526004018080602001828103825260128152602001807f4b656570206973206e6f7420616374697665000000000000000000000000000081525060200191505060405180910390fd5b613e76613ff3565b613e7e6144b5565b565b60008090505b600280549050811015613f9057600e60009054906101000a900473ffffffffffffffffffffffffffffffffffffffff1673ffffffffffffffffffffffffffffffffffffffff16634a1ce59960028381548110613ede57fe5b9060005260206000200160009054906101000a900473ffffffffffffffffffffffffffffffffffffffff166040518263ffffffff1660e01b8152600401808273ffffffffffffffffffffffffffffffffffffffff1673ffffffffffffffffffffffffffffffffffffffff168152602001915050600060405180830381600087803b158015613f6b57600080fd5b505af1158015613f7f573d6000803e3d6000fd5b505050508080600101915050613e86565b50565b600080600960008473ffffffffffffffffffffffffffffffffffffffff1673ffffffffffffffffffffffffffffffffffffffff16815260200190815260200160002080546001816001161561010002031660029004905014159050919050565b6001600c60006101000a81548160ff0219169083600281111561401257fe5b02179055507f400fd7ee62b209afddce9dfbca204b2124c135597dff0ac92e9844e2b08927f660405160405180910390a1565b6000600e60009054906101000a900473ffffffffffffffffffffffffffffffffffffffff1673ffffffffffffffffffffffffffffffffffffffff16600d5460026040516024018083815260200180602001828103825283818154815260200191508054801561410957602002820191906000526020600020905b8160009054906101000a900473ffffffffffffffffffffffffffffffffffffffff1673ffffffffffffffffffffffffffffffffffffffff16815260200190600101908083116140bf575b505093505050506040516020818303038152906040527f8e49aa7a000000000000000000000000000000000000000000000000000000007bffffffffffffffffffffffffffffffffffffffffffffffffffffffff19166020820180517bffffffffffffffffffffffffffffffffffffffffffffffffffffffff83818316178352505050506040518082805190602001908083835b602083106141c0578051825260208201915060208101905060208303925061419d565b6001836020036101000a0380198251168184511680821785525050505050509050019150506000604051808303816000865af19150503d8060008114614222576040519150601f19603f3d011682016040523d82523d6000602084013e614227565b606091505b505090508061425d577f9caa8d499152520a1b3e11b41d51a51e5d1699294ebccdb9de0faa824dba8aae60405160405180910390a15b50565b61426861378f565b565b6142898273ffffffffffffffffffffffffffffffffffffffff166145e6565b6142fb576040517f08c379a000000000000000000000000000000000000000000000000000000000815260040180806020018281038252601f8152602001807f5361666545524332303a2063616c6c20746f206e6f6e2d636f6e74726163740081525060200191505060405180910390fd5b600060608373ffffffffffffffffffffffffffffffffffffffff16836040518082805190602001908083835b6020831061434a5780518252602082019150602081019050602083039250614327565b6001836020036101000a0380198251168184511680821785525050505050509050019150506000604051808303816000865af19150503d80600081146143ac576040519150601f19603f3d011682016040523d82523d6000602084013e6143b1565b606091505b509150915081614429576040517f08c379a00000000000000000000000000000000000000000000000000000000081526004018080602001828103825260208152602001807f5361666545524332303a206c6f772d6c6576656c2063616c6c206661696c656481525060200191505060405180910390fd5b6000815111156144af5780806020019051602081101561444857600080fd5b81019080805190602001909291905050506144ae576040517f08c379a000000000000000000000000000000000000000000000000000000000815260040180806020018281038252602a815260200180614860602a913960400191505060405180910390fd5b5b50505050565b60008090505b6002805490508110156145e357600c60019054906101000a900473ffffffffffffffffffffffffffffffffffffffff1673ffffffffffffffffffffffffffffffffffffffff16637ab3cf936002838154811061451357fe5b9060005260206000200160009054906101000a900473ffffffffffffffffffffffffffffffffffffffff163073ffffffffffffffffffffffffffffffffffffffff166040518363ffffffff1660e01b8152600401808373ffffffffffffffffffffffffffffffffffffffff1673ffffffffffffffffffffffffffffffffffffffff16815260200182815260200192505050600060405180830381600087803b1580156145be57600080fd5b505af11580156145d2573d6000803e3d6000fd5b5050505080806001019150506144bb565b50565b600080823b905060008111915050919050565b828054600181600116156101000203166002900490600052602060002090601f016020900481019282601f1061463a57803560ff1916838001178555614668565b82800160010185558215614668579182015b8281111561466757823582559160200191906001019061464c565b5b5090506146759190614703565b5090565b8280548282559060005260206000209081019282156146f2579160200282015b828111156146f15782518260006101000a81548173ffffffffffffffffffffffffffffffffffffffff021916908373ffffffffffffffffffffffffffffffffffffffff16021790555091602001919060010190614699565b5b5090506146ff9190614728565b5090565b61472591905b80821115614721576000816000905550600101614709565b5090565b90565b61476891905b8082111561476457600081816101000a81549073ffffffffffffffffffffffffffffffffffffffff02191690555060010161472e565b5090565b9056fe5369676e65642064696765737420646f6573206e6f74206d61746368207368613235362068617368206f662074686520707265696d6167654d656d62657220616c7265616479207375626d69747465642061207075626c6963206b65795265636f76657279204944206d757374206265206f6e65206f66207b302c20312c20322c20337d5061727469616c207369676e657220626f6e64206d757374206265206e6f6e2d7a65726f4d616c6c6561626c65207369676e6174757265202d20732073686f756c6420626520696e20746865206c6f772068616c66206f6620736563703235366b312063757276652773206f726465725361666545524332303a204552433230206f7065726174696f6e20646964206e6f742073756363656564a265627a7a72315820cba040da48086ee41c8a85cd680ec5230674fe43f1c1a25ac1efe7104edb638964736f6c63430005110032",
  "source": "pragma solidity 0.5.17;\n\nimport \"../../contracts/BondedECDSAKeep.sol\";\n\n\n/// @title Bonded ECDSA Keep Stub\n/// @dev This contract is for testing purposes only.\ncontract BondedECDSAKeepStub is BondedECDSAKeep {\n    function publicMarkAsClosed() public {\n        markAsClosed();\n    }\n\n    function publicMarkAsTerminated() public {\n        markAsTerminated();\n    }\n\n    function isFradulentPreimageSet(bytes memory preimage) public view returns (bool) {\n        return fraudulentPreimages[preimage];\n    }\n\n    function setMemberStake(uint256 stake) public {\n        memberStake = stake;\n    }\n}\n",
  "sourcePath": "/Users/konrad/Desktop/rumble/fin/local-setup/keep-ecdsa/solidity/contracts/test/BondedECDSAKeepStub.sol",
  "compiler": {
    "name": "solc",
    "version": "0.5.17+commit.d19bba13.Emscripten.clang"
  },
  "schemaVersion": "3.3.4",
  "updatedAt": "2021-04-30T08:59:51.154Z",
  "devdoc": {
    "details": "This contract is for testing purposes only.",
    "methods": {
      "checkBondAmount()": {
        "return": "The amount of the keep's ETH bond in wei."
      },
      "checkSignatureFraud(uint8,bytes32,bytes32,bytes32,bytes)": {
        "details": "The function expects the signed digest to be calculated as a sha256 hash of the preimage: `sha256(_preimage))`. The digest is verified against the preimage to ensure the security of the ECDSA protocol. Verifying just the signature and the digest is not enough and leaves the possibility of the the existential forgery. If digest and preimage verification fails the function reverts. Reverts if a public key has not been set for the keep yet.",
        "params": {
          "_preimage": "Preimage of the hashed message.",
          "_r": "R part of ECDSA signature.",
          "_s": "S part of ECDSA signature.",
          "_signedDigest": "Digest for the provided signature. Result of hashing the preimage with sha256.",
          "_v": "Signature's header byte: `27 + recoveryID`."
        },
        "return": "True if fraud, false otherwise."
      },
      "closeKeep()": {
        "details": "The function can be called only by the owner of the keep and only if the keep has not been already closed."
      },
      "distributeERC20Reward(address,uint256)": {
        "details": "This works with any ERC20 token that implements a transferFrom function similar to the interface imported here from OpenZeppelin. This function only has authority over pre-approved token amount. We don't explicitly check for allowance, SafeMath subtraction overflow is enough protection. If the value cannot be divided evenly across the signers, it submits the remainder to the last keep signer.",
        "params": {
          "_tokenAddress": "Address of the ERC20 token to distribute.",
          "_value": "Amount of ERC20 token to distribute."
        }
      },
      "distributeETHReward()": {
        "details": "Only the value passed to this function is distributed. This function does not transfer the value to beneficiaries accounts; instead it holds the value in the contract until withdraw function is called for the specific signer."
      },
      "getMemberETHBalance(address)": {
        "params": {
          "_member": "Keep member address."
        },
        "return": "Current balance in wei."
      },
      "getMembers()": {
        "return": "List of the keep members' addresses."
      },
      "getOpenedTimestamp()": {
        "return": "Timestamp the keep was opened at."
      },
      "getOwner()": {
        "return": "Address of the keep owner."
      },
      "getPublicKey()": {
        "return": "Keep's ECDSA public key."
      },
      "initialize(address,address[],uint256,uint256,uint256,address,address,address)": {
        "details": "We use clone factory to create new keep. That is why this contract doesn't have a constructor. We provide keep parameters for each instance function after cloning instances from the master contract.",
        "params": {
          "_honestThreshold": "Minimum number of honest keep members.",
          "_keepBonding": "Address of the KeepBonding contract.",
          "_keepFactory": "Address of the BondedECDSAKeepFactory that created this keep.",
          "_memberStake": "Stake required from each keep member.",
          "_members": "Addresses of the keep members.",
          "_owner": "Address of the keep owner.",
          "_stakeLockDuration": "Stake lock duration in seconds.",
          "_tokenStaking": "Address of the TokenStaking contract."
        }
      },
      "isActive()": {
        "return": "true if the keep is active, false otherwise."
      },
      "isAwaitingSignature(bytes32)": {
        "details": "Validates if the signing is currently in progress and compares provided digest with the one for which the latest signature was requested.",
        "params": {
          "_digest": "Digest for which to check if signature is being awaited."
        },
        "return": "True if the digest is currently expected to be signed, else false."
      },
      "isClosed()": {
        "return": "true if the keep is closed, false otherwise."
      },
      "isTerminated()": {
        "return": "true if the keep has been terminated, false otherwise."
      },
      "sign(bytes32)": {
        "details": "Only one signing process can be in progress at a time.",
        "params": {
          "_digest": "Digest to be signed."
        }
      },
      "submitPublicKey(bytes)": {
        "details": "Public key is published successfully if all members submit the same value. In case of conflicts with others members submissions it will emit `ConflictingPublicKeySubmitted` event. When all submitted keys match it will store the key as keep's public key and emit a `PublicKeyPublished` event.",
        "params": {
          "_publicKey": "Signer's public key."
        }
      },
      "submitSignature(bytes32,bytes32,uint8)": {
        "details": "Fails if signature has not been requested or a signature has already been submitted. Validates s value to ensure it's in the lower half of the secp256k1 curve's order.",
        "params": {
          "_r": "Calculated signature's R value.",
          "_recoveryID": "Calculated signature's recovery ID (one of {0, 1, 2, 3}).",
          "_s": "Calculated signature's S value."
        }
      },
      "submitSignatureFraud(uint8,bytes32,bytes32,bytes32,bytes)": {
        "details": "The function expects the signed digest to be calculated as a sha256 hash of the preimage: `sha256(_preimage))`. The function reverts if the signature is not fraudulent. The function does not revert if KEEP slashing failed but emits an event instead. In practice, KEEP slashing should never fail.",
        "params": {
          "_preimage": "Preimage of the hashed message.",
          "_r": "R part of ECDSA signature.",
          "_s": "S part of ECDSA signature.",
          "_signedDigest": "Digest for the provided signature. Result of hashing the preimage with sha256.",
          "_v": "Signature's header byte: `27 + recoveryID`."
        },
        "return": "True if fraud, error otherwise."
      },
      "withdraw(address)": {
        "params": {
          "_member": "Keep member address."
        }
      }
    },
    "title": "Bonded ECDSA Keep Stub"
  },
  "userdoc": {
    "methods": {
      "checkBondAmount()": {
        "notice": "Returns the amount of the keep's ETH bond in wei."
      },
      "checkSignatureFraud(uint8,bytes32,bytes32,bytes32,bytes)": {
        "notice": "Checks a fraud proof for a valid signature from this keep that was not first approved via a call to sign."
      },
      "closeKeep()": {
        "notice": "Closes keep when owner decides that they no longer need it. Releases bonds to the keep members. Keep can be closed only when there is no signing in progress or requested signing process has timed out."
      },
      "distributeERC20Reward(address,uint256)": {
        "notice": "Distributes ERC20 reward evenly across all keep signer beneficiaries."
      },
      "distributeETHReward()": {
        "notice": "Distributes ETH reward evenly across all keep signer beneficiaries. If the value cannot be divided evenly across all signers, it sends the remainder to the last keep signer."
      },
      "getMemberETHBalance(address)": {
        "notice": "Gets current amount of ETH hold in the keep for the member."
      },
      "getMembers()": {
        "notice": "Returns members of the keep."
      },
      "getOpenedTimestamp()": {
        "notice": "Gets the timestamp the keep was opened at."
      },
      "getOwner()": {
        "notice": "Gets the owner of the keep."
      },
      "getPublicKey()": {
        "notice": "Returns keep's ECDSA public key."
      },
      "initialize(address,address[],uint256,uint256,uint256,address,address,address)": {
        "notice": "Initialization function."
      },
      "isActive()": {
        "notice": "Returns true if the keep is active."
      },
      "isAwaitingSignature(bytes32)": {
        "notice": "Checks if keep is currently awaiting a signature for the given digest."
      },
      "isClosed()": {
        "notice": "Returns true if the keep is closed and members no longer support this keep."
      },
      "isTerminated()": {
        "notice": "Returns true if the keep has been terminated. Keep is terminated when bonds are seized and members no longer support this keep."
      },
      "returnPartialSignerBonds(uint256)": {
        "notice": "Returns partial signer's ETH bonds to the pool as an unbounded value. This function is called after bonds have been seized and processed by the privileged application after calling seizeSignerBonds function. It is entirely up to the application if a part of signers' bonds is returned. The application may decide for that but may also decide to seize bonds and do not return anything."
      },
      "seizeSignerBonds()": {
        "notice": "Seizes the signers' ETH bonds. After seizing bonds keep is closed so it will no longer respond to signing requests. Bonds can be seized only when there is no signing in progress or requested signing process has timed out. This function seizes all of signers' bonds. The application may decide to return part of bonds later after they are processed using returnPartialSignerBonds function."
      },
      "sign(bytes32)": {
        "notice": "Calculates a signature over provided digest by the keep."
      },
      "submitPublicKey(bytes)": {
        "notice": "Submits a public key to the keep."
      },
      "submitSignature(bytes32,bytes32,uint8)": {
        "notice": "Submits a signature calculated for the given digest."
      },
      "submitSignatureFraud(uint8,bytes32,bytes32,bytes32,bytes)": {
        "notice": "Submits a fraud proof for a valid signature from this keep that was not first approved via a call to sign. If fraud is detected it tries to slash members' KEEP tokens. For each keep member tries slashing amount equal to the member stake set by the factory when keep was created."
      },
      "withdraw(address)": {
        "notice": "Withdraws amount of ether hold in the keep for the member. The value is sent to the beneficiary of the specific member."
      }
    }
  }
}