{
  "contractName": "BondedECDSAKeepVendorImplV1Stub",
  "abi": [
    {
      "anonymous": false,
      "inputs": [
        {
          "indexed": false,
          "internalType": "address",
          "name": "factory",
          "type": "address"
        }
      ],
      "name": "FactoryUpgradeCompleted",
      "type": "event"
    },
    {
      "anonymous": false,
      "inputs": [
        {
          "indexed": false,
          "internalType": "address",
          "name": "factory",
          "type": "address"
        },
        {
          "indexed": false,
          "internalType": "uint256",
          "name": "timestamp",
          "type": "uint256"
        }
      ],
      "name": "FactoryUpgradeStarted",
      "type": "event"
    },
    {
      "constant": false,
      "inputs": [],
      "name": "completeFactoryUpgrade",
      "outputs": [],
      "payable": false,
      "stateMutability": "nonpayable",
      "type": "function"
    },
    {
      "constant": true,
      "inputs": [],
      "name": "factoryUpgradeTimeDelay",
      "outputs": [
        {
          "internalType": "uint256",
          "name": "",
          "type": "uint256"
        }
      ],
      "payable": false,
      "stateMutability": "view",
      "type": "function"
    },
    {
      "constant": false,
      "inputs": [
        {
          "internalType": "address",
          "name": "registryAddress",
          "type": "address"
        },
        {
          "internalType": "address payable",
          "name": "factory",
          "type": "address"
        }
      ],
      "name": "initialize",
      "outputs": [],
      "payable": false,
      "stateMutability": "nonpayable",
      "type": "function"
    },
    {
      "constant": true,
      "inputs": [],
      "name": "initialized",
      "outputs": [
        {
          "internalType": "bool",
          "name": "",
          "type": "bool"
        }
      ],
      "payable": false,
      "stateMutability": "view",
      "type": "function"
    },
    {
      "constant": true,
      "inputs": [],
      "name": "selectFactory",
      "outputs": [
        {
          "internalType": "address payable",
          "name": "",
          "type": "address"
        }
      ],
      "payable": false,
      "stateMutability": "view",
      "type": "function"
    },
    {
      "constant": false,
      "inputs": [
        {
          "internalType": "address payable",
          "name": "_factory",
          "type": "address"
        }
      ],
      "name": "upgradeFactory",
      "outputs": [],
      "payable": false,
      "stateMutability": "nonpayable",
      "type": "function"
    },
    {
      "constant": true,
      "inputs": [],
      "name": "getVersion",
      "outputs": [
        {
          "internalType": "string",
          "name": "",
          "type": "string"
        }
      ],
      "payable": false,
      "stateMutability": "view",
      "type": "function"
    },
    {
      "constant": true,
      "inputs": [],
      "name": "getKeepFactory",
      "outputs": [
        {
          "internalType": "address",
          "name": "",
          "type": "address"
        }
      ],
      "payable": false,
      "stateMutability": "view",
      "type": "function"
    },
    {
      "constant": true,
      "inputs": [],
      "name": "getNewKeepFactory",
      "outputs": [
        {
          "internalType": "address",
          "name": "",
          "type": "address"
        }
      ],
      "payable": false,
      "stateMutability": "view",
      "type": "function"
    },
    {
      "constant": true,
      "inputs": [],
      "name": "getFactoryRegistrationInitiatedTimestamp",
      "outputs": [
        {
          "internalType": "uint256",
          "name": "",
          "type": "uint256"
        }
      ],
      "payable": false,
      "stateMutability": "view",
      "type": "function"
    }
  ],
  "bytecode": "0x60806040526001600060405180807f426f6e64656445434453414b65657056656e646f72496d706c56310000000000815250601b019050908152602001604051809103902060006101000a81548160ff0219169083151502179055506111448061006a6000396000f3fe608060405234801561001057600080fd5b506004361061009e5760003560e01c806360445ffc1161006657806360445ffc1461023a57806369e367b5146102845780636d0193871461028e578063b58006e3146102d8578063ef505921146102f65761009e565b80630d8e6e2c146100a3578063158ef93e146101265780633fd1919914610148578063485cc9551461019257806353d52a5f146101f6575b600080fd5b6100ab610314565b6040518080602001828103825283818151815260200191508051906020019080838360005b838110156100eb5780820151818401526020810190506100d0565b50505050905090810190601f1680156101185780820380516001836020036101000a031916815260200191505b509250505060405180910390f35b61012e610351565b604051808215151515815260200191505060405180910390f35b6101506103a3565b604051808273ffffffffffffffffffffffffffffffffffffffff1673ffffffffffffffffffffffffffffffffffffffff16815260200191505060405180910390f35b6101f4600480360360408110156101a857600080fd5b81019080803573ffffffffffffffffffffffffffffffffffffffff169060200190929190803573ffffffffffffffffffffffffffffffffffffffff169060200190929190505050610491565b005b6102386004803603602081101561020c57600080fd5b81019080803573ffffffffffffffffffffffffffffffffffffffff169060200190929190505050610739565b005b610242610d6d565b604051808273ffffffffffffffffffffffffffffffffffffffff1673ffffffffffffffffffffffffffffffffffffffff16815260200191505060405180910390f35b61028c610d97565b005b610296610fd1565b604051808273ffffffffffffffffffffffffffffffffffffffff1673ffffffffffffffffffffffffffffffffffffffff16815260200191505060405180910390f35b6102e0610ffb565b6040518082815260200191505060405180910390f35b6102fe611001565b6040518082815260200191505060405180910390f35b60606040518060400160405280600281526020017f5631000000000000000000000000000000000000000000000000000000000000815250905090565b60008060405180807f426f6e64656445434453414b65657056656e646f72496d706c56310000000000815250601b019050908152602001604051809103902060009054906101000a900460ff16905090565b60008073ffffffffffffffffffffffffffffffffffffffff16600360009054906101000a900473ffffffffffffffffffffffffffffffffffffffff1673ffffffffffffffffffffffffffffffffffffffff161415610469576040517f08c379a000000000000000000000000000000000000000000000000000000000815260040180806020018281038252601e8152602001807f4b65657020666163746f7279206973206e6f742072656769737465726564000081525060200191505060405180910390fd5b600360009054906101000a900473ffffffffffffffffffffffffffffffffffffffff16905090565b600073ffffffffffffffffffffffffffffffffffffffff168273ffffffffffffffffffffffffffffffffffffffff161415610534576040517f08c379a000000000000000000000000000000000000000000000000000000000815260040180806020018281038252601a8152602001807f496e636f7272656374207265676973747279206164647265737300000000000081525060200191505060405180910390fd5b600073ffffffffffffffffffffffffffffffffffffffff168173ffffffffffffffffffffffffffffffffffffffff1614156105d7576040517f08c379a00000000000000000000000000000000000000000000000000000000081526004018080602001828103825260198152602001807f496e636f727265637420666163746f727920616464726573730000000000000081525060200191505060405180910390fd5b6105df610351565b15610652576040517f08c379a00000000000000000000000000000000000000000000000000000000081526004018080602001828103825260208152602001807f436f6e747261637420697320616c726561647920696e697469616c697a65642e81525060200191505060405180910390fd5b6001600060405180807f426f6e64656445434453414b65657056656e646f72496d706c56310000000000815250601b019050908152602001604051809103902060006101000a81548160ff02191690831515021790555081600160006101000a81548173ffffffffffffffffffffffffffffffffffffffff021916908373ffffffffffffffffffffffffffffffffffffffff16021790555080600360006101000a81548173ffffffffffffffffffffffffffffffffffffffff021916908373ffffffffffffffffffffffffffffffffffffffff160217905550620151806002819055505050565b600073ffffffffffffffffffffffffffffffffffffffff16600160009054906101000a900473ffffffffffffffffffffffffffffffffffffffff1673ffffffffffffffffffffffffffffffffffffffff1614156107e1576040517f08c379a00000000000000000000000000000000000000000000000000000000081526004018080602001828103825260268152602001806110c96026913960400191505060405180910390fd5b6000600160009054906101000a900473ffffffffffffffffffffffffffffffffffffffff1673ffffffffffffffffffffffffffffffffffffffff166363dc5fcf306040518263ffffffff1660e01b8152600401808273ffffffffffffffffffffffffffffffffffffffff1673ffffffffffffffffffffffffffffffffffffffff16815260200191505060206040518083038186803b15801561088257600080fd5b505afa158015610896573d6000803e3d6000fd5b505050506040513d60208110156108ac57600080fd5b810190808051906020019092919050505090503373ffffffffffffffffffffffffffffffffffffffff168173ffffffffffffffffffffffffffffffffffffffff1614610943576040517f08c379a00000000000000000000000000000000000000000000000000000000081526004018080602001828103825260288152602001806110a16028913960400191505060405180910390fd5b600073ffffffffffffffffffffffffffffffffffffffff168273ffffffffffffffffffffffffffffffffffffffff1614156109e6576040517f08c379a00000000000000000000000000000000000000000000000000000000081526004018080602001828103825260198152602001807f496e636f727265637420666163746f727920616464726573730000000000000081525060200191505060405180910390fd5b6109ee61100b565b15610a9f578173ffffffffffffffffffffffffffffffffffffffff16600460009054906101000a900473ffffffffffffffffffffffffffffffffffffffff1673ffffffffffffffffffffffffffffffffffffffff161415610a9a576040517f08c379a00000000000000000000000000000000000000000000000000000000081526004018080602001828103825260218152602001806110ef6021913960400191505060405180910390fd5b610b64565b8173ffffffffffffffffffffffffffffffffffffffff16600360009054906101000a900473ffffffffffffffffffffffffffffffffffffffff1673ffffffffffffffffffffffffffffffffffffffff161415610b63576040517f08c379a000000000000000000000000000000000000000000000000000000000815260040180806020018281038252601a8152602001807f466163746f727920616c7265616479207265676973746572656400000000000081525060200191505060405180910390fd5b5b600160009054906101000a900473ffffffffffffffffffffffffffffffffffffffff1673ffffffffffffffffffffffffffffffffffffffff166384d57689836040518263ffffffff1660e01b8152600401808273ffffffffffffffffffffffffffffffffffffffff1673ffffffffffffffffffffffffffffffffffffffff16815260200191505060206040518083038186803b158015610c0357600080fd5b505afa158015610c17573d6000803e3d6000fd5b505050506040513d6020811015610c2d57600080fd5b8101908080519060200190929190505050610cb0576040517f08c379a00000000000000000000000000000000000000000000000000000000081526004018080602001828103825260208152602001807f466163746f727920636f6e7472616374206973206e6f7420617070726f76656481525060200191505060405180910390fd5b81600460006101000a81548173ffffffffffffffffffffffffffffffffffffffff021916908373ffffffffffffffffffffffffffffffffffffffff1602179055506000429050806005819055507f7ba46fad67d21f155bf83249e984870391cc0ae4a7c24b904d4cf3026d7949968382604051808373ffffffffffffffffffffffffffffffffffffffff1673ffffffffffffffffffffffffffffffffffffffff1681526020018281526020019250505060405180910390a1505050565b6000600460009054906101000a900473ffffffffffffffffffffffffffffffffffffffff16905090565b610d9f61100b565b610e11576040517f08c379a00000000000000000000000000000000000000000000000000000000081526004018080602001828103825260158152602001807f55706772616465206e6f7420696e69746961746564000000000000000000000081525060200191505060405180910390fd5b600254610e296005544261101790919063ffffffff16565b1015610e9d576040517f08c379a00000000000000000000000000000000000000000000000000000000081526004018080602001828103825260118152602001807f54696d6572206e6f7420656c617073656400000000000000000000000000000081525060200191505060405180910390fd5b600460009054906101000a900473ffffffffffffffffffffffffffffffffffffffff16600360006101000a81548173ffffffffffffffffffffffffffffffffffffffff021916908373ffffffffffffffffffffffffffffffffffffffff1602179055506000600460006101000a81548173ffffffffffffffffffffffffffffffffffffffff021916908373ffffffffffffffffffffffffffffffffffffffff16021790555060006005819055507ffdc9bc4a18331f66f4014c6040c30e2246393f7c34d95c1dfb6004d28dd659a5600360009054906101000a900473ffffffffffffffffffffffffffffffffffffffff16604051808273ffffffffffffffffffffffffffffffffffffffff1673ffffffffffffffffffffffffffffffffffffffff16815260200191505060405180910390a1565b6000600360009054906101000a900473ffffffffffffffffffffffffffffffffffffffff16905090565b60025481565b6000600554905090565b60008060055411905090565b60008282111561108f576040517f08c379a000000000000000000000000000000000000000000000000000000000815260040180806020018281038252601e8152602001807f536166654d6174683a207375627472616374696f6e206f766572666c6f77000081525060200191505060405180910390fd5b60008284039050809150509291505056fe43616c6c6572206973206e6f74206f70657261746f7220636f6e74726163742075706772616465724b65657052656769737472792061646472657373206973206e6f742072656769737465726564466163746f7279207570677261646520616c726561647920696e69746961746564a265627a7a72315820a3cc015d96eb3fe3e218a7f26d1653faec6d8adc0dd6513c8434612c6bd4795164736f6c63430005110032",
  "source": "pragma solidity 0.5.17;\n\nimport \"../../contracts/BondedECDSAKeepVendorImplV1.sol\";\n\n/// @title Bonded ECDSA Keep Vendor Implementation Stub\n/// @dev This contract is for testing purposes only.\ncontract BondedECDSAKeepVendorImplV1Stub is BondedECDSAKeepVendorImplV1 {\n    function getVersion() public view returns (string memory) {\n        return \"V1\";\n    }\n\n    function getKeepFactory() public view returns (address) {\n        return keepFactory;\n    }\n\n    function getNewKeepFactory() public view returns (address) {\n        return newKeepFactory;\n    }\n\n    function getFactoryRegistrationInitiatedTimestamp()\n        public\n        view\n        returns (uint256)\n    {\n        return factoryUpgradeInitiatedTimestamp;\n    }\n}\n",
  "sourcePath": "/Users/konrad/Desktop/rumble/fin/local-setup/keep-ecdsa/solidity/contracts/test/BondedECDSAKeepVendorImplV1Stub.sol",
  "compiler": {
    "name": "solc",
    "version": "0.5.17+commit.d19bba13.Emscripten.clang"
  },
  "schemaVersion": "3.3.4",
  "updatedAt": "2021-04-30T08:59:51.156Z",
  "devdoc": {
    "details": "This contract is for testing purposes only.",
    "methods": {
      "completeFactoryUpgrade()": {
        "details": "It is the second part of the two-step factory upgrade process. The function can be called after factory upgrade time delay period has passed since the new factory upgrade. It emits an event containing the new factory address."
      },
      "initialize(address,address)": {
        "params": {
          "factory": "Keep factory contract registered initially in the vendor contract.",
          "registryAddress": "Keep registry contract linked to this contract."
        }
      },
      "selectFactory()": {
        "return": "ECDSA keep factory address."
      },
      "upgradeFactory(address)": {
        "details": "Registers a new ECDSA keep factory. Address cannot be zero and cannot be the same that is currently registered. It is a first part of the two-step factory upgrade process. The function emits an event containing the new factory address and current block timestamp.",
        "params": {
          "_factory": "ECDSA keep factory address."
        }
      }
    },
    "title": "Bonded ECDSA Keep Vendor Implementation Stub"
  },
  "userdoc": {
    "methods": {
      "completeFactoryUpgrade()": {
        "notice": "Finalizes ECDSA keep factory upgrade."
      },
      "initialize(address,address)": {
        "notice": "Initializes Keep Vendor contract implementation."
      },
      "initialized()": {
        "notice": "Checks if this contract is initialized."
      },
      "selectFactory()": {
        "notice": "Selects the latest ECDSA keep factory."
      },
      "upgradeFactory(address)": {
        "notice": "Starts new ECDSA keep factory upgrade."
      }
    }
  }
}