{
  "contractName": "ECDSABackportRewards",
  "abi": [
    {
      "inputs": [
        {
          "internalType": "address",
          "name": "_token",
          "type": "address"
        },
        {
          "internalType": "address payable",
          "name": "_factoryAddress",
          "type": "address"
        }
      ],
      "payable": false,
      "stateMutability": "nonpayable",
      "type": "constructor"
    },
    {
      "anonymous": false,
      "inputs": [
        {
          "indexed": true,
          "internalType": "address",
          "name": "previousOwner",
          "type": "address"
        },
        {
          "indexed": true,
          "internalType": "address",
          "name": "newOwner",
          "type": "address"
        }
      ],
      "name": "OwnershipTransferred",
      "type": "event"
    },
    {
      "anonymous": false,
      "inputs": [
        {
          "indexed": false,
          "internalType": "bytes32",
          "name": "keep",
          "type": "bytes32"
        },
        {
          "indexed": false,
          "internalType": "uint256",
          "name": "amount",
          "type": "uint256"
        }
      ],
      "name": "RewardReceived",
      "type": "event"
    },
    {
      "anonymous": false,
      "inputs": [
        {
          "indexed": false,
          "internalType": "uint256",
          "name": "amountTransferred",
          "type": "uint256"
        }
      ],
      "name": "UpgradeFinalized",
      "type": "event"
    },
    {
      "anonymous": false,
      "inputs": [
        {
          "indexed": false,
          "internalType": "address",
          "name": "newRewardsContract",
          "type": "address"
        }
      ],
      "name": "UpgradeInitiated",
      "type": "event"
    },
    {
      "constant": false,
      "inputs": [
        {
          "internalType": "uint256",
          "name": "interval",
          "type": "uint256"
        }
      ],
      "name": "allocateRewards",
      "outputs": [],
      "payable": false,
      "stateMutability": "nonpayable",
      "type": "function"
    },
    {
      "constant": true,
      "inputs": [],
      "name": "dispensedRewards",
      "outputs": [
        {
          "internalType": "uint256",
          "name": "",
          "type": "uint256"
        }
      ],
      "payable": false,
      "stateMutability": "view",
      "type": "function"
    },
    {
      "constant": true,
      "inputs": [
        {
          "internalType": "bytes32",
          "name": "_keep",
          "type": "bytes32"
        }
      ],
      "name": "eligibleButTerminated",
      "outputs": [
        {
          "internalType": "bool",
          "name": "",
          "type": "bool"
        }
      ],
      "payable": false,
      "stateMutability": "view",
      "type": "function"
    },
    {
      "constant": true,
      "inputs": [
        {
          "internalType": "bytes32",
          "name": "_keep",
          "type": "bytes32"
        }
      ],
      "name": "eligibleForReward",
      "outputs": [
        {
          "internalType": "bool",
          "name": "",
          "type": "bool"
        }
      ],
      "payable": false,
      "stateMutability": "view",
      "type": "function"
    },
    {
      "constant": true,
      "inputs": [
        {
          "internalType": "uint256",
          "name": "interval",
          "type": "uint256"
        }
      ],
      "name": "endOf",
      "outputs": [
        {
          "internalType": "uint256",
          "name": "",
          "type": "uint256"
        }
      ],
      "payable": false,
      "stateMutability": "view",
      "type": "function"
    },
    {
      "constant": false,
      "inputs": [],
      "name": "finalizeRewardsUpgrade",
      "outputs": [],
      "payable": false,
      "stateMutability": "nonpayable",
      "type": "function"
    },
    {
      "constant": true,
      "inputs": [],
      "name": "firstIntervalStart",
      "outputs": [
        {
          "internalType": "uint256",
          "name": "",
          "type": "uint256"
        }
      ],
      "payable": false,
      "stateMutability": "view",
      "type": "function"
    },
    {
      "constant": true,
      "inputs": [],
      "name": "funded",
      "outputs": [
        {
          "internalType": "bool",
          "name": "",
          "type": "bool"
        }
      ],
      "payable": false,
      "stateMutability": "view",
      "type": "function"
    },
    {
      "constant": true,
      "inputs": [
        {
          "internalType": "uint256",
          "name": "interval",
          "type": "uint256"
        }
      ],
      "name": "getAllocatedRewards",
      "outputs": [
        {
          "internalType": "uint256",
          "name": "",
          "type": "uint256"
        }
      ],
      "payable": false,
      "stateMutability": "view",
      "type": "function"
    },
    {
      "constant": true,
      "inputs": [],
      "name": "getIntervalCount",
      "outputs": [
        {
          "internalType": "uint256",
          "name": "",
          "type": "uint256"
        }
      ],
      "payable": false,
      "stateMutability": "view",
      "type": "function"
    },
    {
      "constant": true,
      "inputs": [
        {
          "internalType": "uint256",
          "name": "interval",
          "type": "uint256"
        }
      ],
      "name": "getIntervalWeight",
      "outputs": [
        {
          "internalType": "uint256",
          "name": "",
          "type": "uint256"
        }
      ],
      "payable": false,
      "stateMutability": "view",
      "type": "function"
    },
    {
      "constant": false,
      "inputs": [
        {
          "internalType": "address",
          "name": "_newRewardsContract",
          "type": "address"
        }
      ],
      "name": "initiateRewardsUpgrade",
      "outputs": [],
      "payable": false,
      "stateMutability": "nonpayable",
      "type": "function"
    },
    {
      "constant": true,
      "inputs": [
        {
          "internalType": "uint256",
          "name": "",
          "type": "uint256"
        }
      ],
      "name": "intervalKeepsProcessed",
      "outputs": [
        {
          "internalType": "uint256",
          "name": "",
          "type": "uint256"
        }
      ],
      "payable": false,
      "stateMutability": "view",
      "type": "function"
    },
    {
      "constant": true,
      "inputs": [
        {
          "internalType": "uint256",
          "name": "timestamp",
          "type": "uint256"
        }
      ],
      "name": "intervalOf",
      "outputs": [
        {
          "internalType": "uint256",
          "name": "",
          "type": "uint256"
        }
      ],
      "payable": false,
      "stateMutability": "view",
      "type": "function"
    },
    {
      "constant": true,
      "inputs": [
        {
          "internalType": "uint256",
          "name": "",
          "type": "uint256"
        }
      ],
      "name": "intervalWeights",
      "outputs": [
        {
          "internalType": "uint256",
          "name": "",
          "type": "uint256"
        }
      ],
      "payable": false,
      "stateMutability": "view",
      "type": "function"
    },
    {
      "constant": true,
      "inputs": [
        {
          "internalType": "uint256",
          "name": "interval",
          "type": "uint256"
        }
      ],
      "name": "isAllocated",
      "outputs": [
        {
          "internalType": "bool",
          "name": "",
          "type": "bool"
        }
      ],
      "payable": false,
      "stateMutability": "view",
      "type": "function"
    },
    {
      "constant": true,
      "inputs": [
        {
          "internalType": "uint256",
          "name": "interval",
          "type": "uint256"
        }
      ],
      "name": "isFinished",
      "outputs": [
        {
          "internalType": "bool",
          "name": "",
          "type": "bool"
        }
      ],
      "payable": false,
      "stateMutability": "view",
      "type": "function"
    },
    {
      "constant": true,
      "inputs": [],
      "name": "isOwner",
      "outputs": [
        {
          "internalType": "bool",
          "name": "",
          "type": "bool"
        }
      ],
      "payable": false,
      "stateMutability": "view",
      "type": "function"
    },
    {
      "constant": false,
      "inputs": [
        {
          "internalType": "uint256",
          "name": "interval",
          "type": "uint256"
        }
      ],
      "name": "keepsInInterval",
      "outputs": [
        {
          "internalType": "uint256",
          "name": "",
          "type": "uint256"
        }
      ],
      "payable": false,
      "stateMutability": "nonpayable",
      "type": "function"
    },
    {
      "constant": false,
      "inputs": [],
      "name": "markAsFunded",
      "outputs": [],
      "payable": false,
      "stateMutability": "nonpayable",
      "type": "function"
    },
    {
      "constant": true,
      "inputs": [],
      "name": "minimumKeepsPerInterval",
      "outputs": [
        {
          "internalType": "uint256",
          "name": "",
          "type": "uint256"
        }
      ],
      "payable": false,
      "stateMutability": "view",
      "type": "function"
    },
    {
      "constant": true,
      "inputs": [],
      "name": "newRewardsContract",
      "outputs": [
        {
          "internalType": "address",
          "name": "",
          "type": "address"
        }
      ],
      "payable": false,
      "stateMutability": "view",
      "type": "function"
    },
    {
      "constant": true,
      "inputs": [],
      "name": "owner",
      "outputs": [
        {
          "internalType": "address",
          "name": "",
          "type": "address"
        }
      ],
      "payable": false,
      "stateMutability": "view",
      "type": "function"
    },
    {
      "constant": false,
      "inputs": [
        {
          "internalType": "address",
          "name": "_from",
          "type": "address"
        },
        {
          "internalType": "uint256",
          "name": "_value",
          "type": "uint256"
        },
        {
          "internalType": "address",
          "name": "_token",
          "type": "address"
        },
        {
          "internalType": "bytes",
          "name": "",
          "type": "bytes"
        }
      ],
      "name": "receiveApproval",
      "outputs": [],
      "payable": false,
      "stateMutability": "nonpayable",
      "type": "function"
    },
    {
      "constant": false,
      "inputs": [
        {
          "internalType": "bytes32",
          "name": "keepIdentifier",
          "type": "bytes32"
        }
      ],
      "name": "receiveReward",
      "outputs": [],
      "payable": false,
      "stateMutability": "nonpayable",
      "type": "function"
    },
    {
      "constant": false,
      "inputs": [
        {
          "internalType": "bytes32[]",
          "name": "keepIdentifiers",
          "type": "bytes32[]"
        }
      ],
      "name": "receiveRewards",
      "outputs": [],
      "payable": false,
      "stateMutability": "nonpayable",
      "type": "function"
    },
    {
      "constant": false,
      "inputs": [],
      "name": "renounceOwnership",
      "outputs": [],
      "payable": false,
      "stateMutability": "nonpayable",
      "type": "function"
    },
    {
      "constant": false,
      "inputs": [
        {
          "internalType": "bytes32",
          "name": "keepIdentifier",
          "type": "bytes32"
        }
      ],
      "name": "reportTermination",
      "outputs": [],
      "payable": false,
      "stateMutability": "nonpayable",
      "type": "function"
    },
    {
      "constant": false,
      "inputs": [
        {
          "internalType": "bytes32[]",
          "name": "keepIdentifiers",
          "type": "bytes32[]"
        }
      ],
      "name": "reportTerminations",
      "outputs": [],
      "payable": false,
      "stateMutability": "nonpayable",
      "type": "function"
    },
    {
      "constant": true,
      "inputs": [
        {
          "internalType": "bytes32",
          "name": "_keep",
          "type": "bytes32"
        }
      ],
      "name": "rewardClaimed",
      "outputs": [
        {
          "internalType": "bool",
          "name": "",
          "type": "bool"
        }
      ],
      "payable": false,
      "stateMutability": "view",
      "type": "function"
    },
    {
      "constant": true,
      "inputs": [
        {
          "internalType": "uint256",
          "name": "interval",
          "type": "uint256"
        }
      ],
      "name": "startOf",
      "outputs": [
        {
          "internalType": "uint256",
          "name": "",
          "type": "uint256"
        }
      ],
      "payable": false,
      "stateMutability": "view",
      "type": "function"
    },
    {
      "constant": true,
      "inputs": [],
      "name": "termLength",
      "outputs": [
        {
          "internalType": "uint256",
          "name": "",
          "type": "uint256"
        }
      ],
      "payable": false,
      "stateMutability": "view",
      "type": "function"
    },
    {
      "constant": true,
      "inputs": [],
      "name": "token",
      "outputs": [
        {
          "internalType": "contract KeepToken",
          "name": "",
          "type": "address"
        }
      ],
      "payable": false,
      "stateMutability": "view",
      "type": "function"
    },
    {
      "constant": true,
      "inputs": [],
      "name": "totalRewards",
      "outputs": [
        {
          "internalType": "uint256",
          "name": "",
          "type": "uint256"
        }
      ],
      "payable": false,
      "stateMutability": "view",
      "type": "function"
    },
    {
      "constant": false,
      "inputs": [
        {
          "internalType": "address",
          "name": "newOwner",
          "type": "address"
        }
      ],
      "name": "transferOwnership",
      "outputs": [],
      "payable": false,
      "stateMutability": "nonpayable",
      "type": "function"
    },
    {
      "constant": true,
      "inputs": [],
      "name": "unallocatedRewards",
      "outputs": [
        {
          "internalType": "uint256",
          "name": "",
          "type": "uint256"
        }
      ],
      "payable": false,
      "stateMutability": "view",
      "type": "function"
    },
    {
      "constant": true,
      "inputs": [],
      "name": "upgradeFinalizedTimestamp",
      "outputs": [
        {
          "internalType": "uint256",
          "name": "",
          "type": "uint256"
        }
      ],
      "payable": false,
      "stateMutability": "view",
      "type": "function"
    },
    {
      "constant": true,
      "inputs": [],
      "name": "upgradeInitiatedTimestamp",
      "outputs": [
        {
          "internalType": "uint256",
          "name": "",
          "type": "uint256"
        }
      ],
      "payable": false,
      "stateMutability": "view",
      "type": "function"
    }
  ],
  "bytecode": "0x60806040526000600d60006101000a81548160ff0219169083151502179055506040518060200160405280606460ff168152506011906001620000449291906200026b565b503480156200005257600080fd5b506040516200391d3803806200391d833981810160405260408110156200007857600080fd5b81019080805190602001909291908051906020019092919050505081635ebc725f6011805480602002602001604051908101604052809291908181526020018280548015620000e757602002820191906000526020600020905b815481526020019060010190808311620000d2575b505050505062a37a006028336000806101000a81548173ffffffffffffffffffffffffffffffffffffffff021916908373ffffffffffffffffffffffffffffffffffffffff1602179055506000809054906101000a900473ffffffffffffffffffffffffffffffffffffffff1673ffffffffffffffffffffffffffffffffffffffff16600073ffffffffffffffffffffffffffffffffffffffff167f8be0079c531659141344cd1fd0a4f28419497f9722a3daafe3b4186f6b6457e060405160405180910390a384600160006101000a81548173ffffffffffffffffffffffffffffffffffffffff021916908373ffffffffffffffffffffffffffffffffffffffff1602179055508360088190555082600290805190602001906200020e929190620002c2565b508160038190555080600481905550505050505080601260006101000a81548173ffffffffffffffffffffffffffffffffffffffff021916908373ffffffffffffffffffffffffffffffffffffffff16021790555050506200033c565b828054828255906000526020600020908101928215620002af579160200282015b82811115620002ae578251829060ff169055916020019190600101906200028c565b5b509050620002be919062000314565b5090565b82805482825590600052602060002090810192821562000301579160200282015b8281111562000300578251825591602001919060010190620002e3565b5b50905062000310919062000314565b5090565b6200033991905b80821115620003355760008160009055506001016200031b565b5090565b90565b6135d1806200034c6000396000f3fe608060405234801561001057600080fd5b50600436106102325760003560e01c806392672b3511610130578063c70cee6a116100b8578063e27000e71161007c578063e27000e714610a7a578063e8ba650914610a84578063f2fde38b14610aca578063f3a504f214610b0e578063fc0c546a14610b3057610232565b8063c70cee6a14610996578063ce21d8cf146109b4578063ce2830ad146109f8578063ce2b3e3c14610a3e578063e1fcd5e814610a5c57610232565b8063ab7239c0116100ff578063ab7239c0146107d6578063aeae364d1461088e578063b369af71146108d0578063b41e7f4714610912578063b965933e1461095457610232565b806392672b3514610712578063951315261461075457806395aeca481461077257806397a1e4341461079057610232565b806345016312116101be57806381b83c331161018257806381b83c331461052957806386d954c0146105735780638da5cb5b146105a15780638f32d59b146105eb5780638f4ffcb11461060d57610232565b806345016312146103d957806368ec9c42146104915780636a823878146104bf578063715018a61461050157806379b18cd11461050b57610232565b8063183affa111610205578063183affa1146102eb57806328fc33c7146103095780632b6fdc7e1461033757806335c9ef7114610355578063365449511461039757610232565b80630a1bb1b1146102375780630da8882f1461027d5780630e15561a1461028757806312f57063146102a5575b600080fd5b6102636004803603602081101561024d57600080fd5b8101908080359060200190929190505050610b7a565b604051808215151515815260200191505060405180910390f35b610285610b90565b005b61028f610c27565b6040518082815260200191505060405180910390f35b6102d1600480360360208110156102bb57600080fd5b8101908080359060200190929190505050610c2d565b604051808215151515815260200191505060405180910390f35b6102f3610c62565b6040518082815260200191505060405180910390f35b6103356004803603602081101561031f57600080fd5b8101908080359060200190929190505050610c6f565b005b61033f610e6c565b6040518082815260200191505060405180910390f35b6103816004803603602081101561036b57600080fd5b8101908080359060200190929190505050610e72565b6040518082815260200191505060405180910390f35b6103c3600480360360208110156103ad57600080fd5b8101908080359060200190929190505050610f0d565b6040518082815260200191505060405180910390f35b61048f600480360360208110156103ef57600080fd5b810190808035906020019064010000000081111561040c57600080fd5b82018360208201111561041e57600080fd5b8035906020019184602083028401116401000000008311171561044057600080fd5b919080806020026020016040519081016040528093929190818152602001838360200280828437600081840152601f19601f820116905080830192505050505050509192919290505050610f63565b005b6104bd600480360360208110156104a757600080fd5b8101908080359060200190929190505050610f9f565b005b6104eb600480360360208110156104d557600080fd5b8101908080359060200190929190505050611125565b6040518082815260200191505060405180910390f35b61050961113d565b005b610513611276565b6040518082815260200191505060405180910390f35b61053161127c565b604051808273ffffffffffffffffffffffffffffffffffffffff1673ffffffffffffffffffffffffffffffffffffffff16815260200191505060405180910390f35b61059f6004803603602081101561058957600080fd5b81019080803590602001909291905050506112a2565b005b6105a9611428565b604051808273ffffffffffffffffffffffffffffffffffffffff1673ffffffffffffffffffffffffffffffffffffffff16815260200191505060405180910390f35b6105f3611451565b604051808215151515815260200191505060405180910390f35b6107106004803603608081101561062357600080fd5b81019080803573ffffffffffffffffffffffffffffffffffffffff16906020019092919080359060200190929190803573ffffffffffffffffffffffffffffffffffffffff1690602001909291908035906020019064010000000081111561068a57600080fd5b82018360208201111561069c57600080fd5b803590602001918460018302840111640100000000831117156106be57600080fd5b91908080601f016020809104026020016040519081016040528093929190818152602001838380828437600081840152601f19601f8201169050808301925050505050505091929192905050506114a8565b005b61073e6004803603602081101561072857600080fd5b810190808035906020019092919050505061176d565b6040518082815260200191505060405180910390f35b61075c61178e565b6040518082815260200191505060405180910390f35b61077a611794565b6040518082815260200191505060405180910390f35b6107bc600480360360208110156107a657600080fd5b810190808035906020019092919050505061179a565b604051808215151515815260200191505060405180910390f35b61088c600480360360208110156107ec57600080fd5b810190808035906020019064010000000081111561080957600080fd5b82018360208201111561081b57600080fd5b8035906020019184602083028401116401000000008311171561083d57600080fd5b919080806020026020016040519081016040528093929190818152602001838360200280828437600081840152601f19601f8201169050808301925050505050505091929192905050506117bd565b005b6108ba600480360360208110156108a457600080fd5b81019080803590602001909291905050506117f9565b6040518082815260200191505060405180910390f35b6108fc600480360360208110156108e657600080fd5b8101908080359060200190929190505050611825565b6040518082815260200191505060405180910390f35b61093e6004803603602081101561092857600080fd5b8101908080359060200190929190505050611882565b6040518082815260200191505060405180910390f35b6109806004803603602081101561096a57600080fd5b81019080803590602001909291905050506118b4565b6040518082815260200191505060405180910390f35b61099e6118d9565b6040518082815260200191505060405180910390f35b6109f6600480360360208110156109ca57600080fd5b81019080803573ffffffffffffffffffffffffffffffffffffffff1690602001909291905050506118df565b005b610a2460048036036020811015610a0e57600080fd5b8101908080359060200190929190505050611a29565b604051808215151515815260200191505060405180910390f35b610a46611a53565b6040518082815260200191505060405180910390f35b610a64611a59565b6040518082815260200191505060405180910390f35b610a82611a5f565b005b610ab060048036036020811015610a9a57600080fd5b8101908080359060200190929190505050611e72565b604051808215151515815260200191505060405180910390f35b610b0c60048036036020811015610ae057600080fd5b81019080803573ffffffffffffffffffffffffffffffffffffffff169060200190929190505050611e87565b005b610b16611f0d565b604051808215151515815260200191505060405180910390f35b610b38611f20565b604051808273ffffffffffffffffffffffffffffffffffffffff1673ffffffffffffffffffffffffffffffffffffffff16815260200191505060405180910390f35b6000806009805490509050808310915050919050565b610b98611451565b610c0a576040517f08c379a00000000000000000000000000000000000000000000000000000000081526004018080602001828103825260208152602001807f4f776e61626c653a2063616c6c6572206973206e6f7420746865206f776e657281525060200191505060405180910390fd5b6001600d60006101000a81548160ff021916908315150217905550565b60055481565b6000610c3882611f46565b8015610c495750610c48826120b2565b5b8015610c5b5750610c5982611a29565b155b9050919050565b6000600280549050905090565b80610c7981611e72565b610ceb576040517f08c379a00000000000000000000000000000000000000000000000000000000081526004018080602001828103825260198152602001807f496e74657276616c206861736e277420656e646564207965740000000000000081525060200191505060405180910390fd5b600d60009054906101000a900460ff16610d6d576040517f08c379a00000000000000000000000000000000000000000000000000000000081526004018080602001828103825260208152602001807f436f6e747261637420686173206e6f74206265656e2066756e6465642079657481525060200191505060405180910390fd5b6000600980549050905080831015610ded576040517f08c379a000000000000000000000000000000000000000000000000000000000815260040180806020018281038252601a8152602001807f496e74657276616c20616c726561647920616c6c6f636174656400000000000081525060200191505060405180910390fd5b80831115610e1257610e11610e0c60018561213a90919063ffffffff16565b610c6f565b5b6000610e1d846121c3565b9050610e348160065461213a90919063ffffffff16565b600681905550600981908060018154018082558091505090600182039060005260206000200160009091929091909150555050505050565b60065481565b60006009805490508210610eee576040517f08c379a000000000000000000000000000000000000000000000000000000000815260040180806020018281038252601a8152602001807f496e74657276616c206e6f7420616c6c6f63617465642079657400000000000081525060200191505060405180910390fd5b60098281548110610efb57fe5b90600052602060002001549050919050565b6000600280549050821015610f3b5760028281548110610f2957fe5b90600052602060002001549050610f5e565b600260016002805490500381548110610f5057fe5b906000526020600020015490505b919050565b60008090505b8151811015610f9b57610f8e828281518110610f8157fe5b6020026020010151610f9f565b8080600101915050610f69565b5050565b80610fa981611f46565b61101b576040517f08c379a000000000000000000000000000000000000000000000000000000000815260040180806020018281038252601e8152602001807f4b656570206e6f74207265636f676e697a656420627920666163746f7279000081525060200191505060405180910390fd5b8161102581611a29565b15611098576040517f08c379a00000000000000000000000000000000000000000000000000000000081526004018080602001828103825260178152602001807f5265776172647320616c726561647920636c61696d656400000000000000000081525060200191505060405180910390fd5b826110a2816120b2565b611114576040517f08c379a00000000000000000000000000000000000000000000000000000000081526004018080602001828103825260128152602001807f4b656570206973206e6f7420636c6f736564000000000000000000000000000081525060200191505060405180910390fd5b61111f600185612246565b50505050565b600c6020528060005260406000206000915090505481565b611145611451565b6111b7576040517f08c379a00000000000000000000000000000000000000000000000000000000081526004018080602001828103825260208152602001807f4f776e61626c653a2063616c6c6572206973206e6f7420746865206f776e657281525060200191505060405180910390fd5b600073ffffffffffffffffffffffffffffffffffffffff166000809054906101000a900473ffffffffffffffffffffffffffffffffffffffff1673ffffffffffffffffffffffffffffffffffffffff167f8be0079c531659141344cd1fd0a4f28419497f9722a3daafe3b4186f6b6457e060405160405180910390a360008060006101000a81548173ffffffffffffffffffffffffffffffffffffffff021916908373ffffffffffffffffffffffffffffffffffffffff160217905550565b60035481565b601060009054906101000a900473ffffffffffffffffffffffffffffffffffffffff1681565b806112ac81611f46565b61131e576040517f08c379a000000000000000000000000000000000000000000000000000000000815260040180806020018281038252601e8152602001807f4b656570206e6f74207265636f676e697a656420627920666163746f7279000081525060200191505060405180910390fd5b8161132881611a29565b1561139b576040517f08c379a00000000000000000000000000000000000000000000000000000000081526004018080602001828103825260178152602001807f5265776172647320616c726561647920636c61696d656400000000000000000081525060200191505060405180910390fd5b826113a5816123a3565b611417576040517f08c379a00000000000000000000000000000000000000000000000000000000081526004018080602001828103825260168152602001807f4b656570206973206e6f74207465726d696e617465640000000000000000000081525060200191505060405180910390fd5b611422600085612246565b50505050565b60008060009054906101000a900473ffffffffffffffffffffffffffffffffffffffff16905090565b60008060009054906101000a900473ffffffffffffffffffffffffffffffffffffffff1673ffffffffffffffffffffffffffffffffffffffff163373ffffffffffffffffffffffffffffffffffffffff1614905090565b600160009054906101000a900473ffffffffffffffffffffffffffffffffffffffff1673ffffffffffffffffffffffffffffffffffffffff168273ffffffffffffffffffffffffffffffffffffffff161461156b576040517f08c379a00000000000000000000000000000000000000000000000000000000081526004018080602001828103825260118152602001807f556e737570706f7274656420746f6b656e00000000000000000000000000000081525060200191505060405180910390fd5b6115ba843085600160009054906101000a900473ffffffffffffffffffffffffffffffffffffffff1673ffffffffffffffffffffffffffffffffffffffff1661242b909392919063ffffffff16565b6000600160009054906101000a900473ffffffffffffffffffffffffffffffffffffffff1673ffffffffffffffffffffffffffffffffffffffff166370a08231306040518263ffffffff1660e01b8152600401808273ffffffffffffffffffffffffffffffffffffffff1673ffffffffffffffffffffffffffffffffffffffff16815260200191505060206040518083038186803b15801561165b57600080fd5b505afa15801561166f573d6000803e3d6000fd5b505050506040513d602081101561168557600080fd5b8101908080519060200190929190505050905060006116b160075460055461213a90919063ffffffff16565b905080821015611729576040517f08c379a000000000000000000000000000000000000000000000000000000000815260040180806020018281038252601f8152602001807f52657761726420636f6e747261637420686173206c6f737420746f6b656e730081525060200191505060405180910390fd5b600061173e828461213a90919063ffffffff16565b90506117558160055461253190919063ffffffff16565b600581905550611764816125b9565b50505050505050565b6002818154811061177a57fe5b906000526020600020016000915090505481565b600e5481565b60085481565b60006117a582611f46565b80156117b657506117b5826123a3565b5b9050919050565b60008090505b81518110156117f5576117e88282815181106117db57fe5b60200260200101516112a2565b80806001019150506117c3565b5050565b600061181e6118078361278f565b611810846127c6565b61213a90919063ffffffff16565b9050919050565b600080600854905060006003549050818410156118475760009250505061187d565b600061185c838661213a90919063ffffffff16565b9050600061187383836128b290919063ffffffff16565b9050809450505050505b919050565b60006118ad61189c6003548461294190919063ffffffff16565b60085461253190919063ffffffff16565b9050919050565b60006118d26118cd60018461253190919063ffffffff16565b611882565b9050919050565b60045481565b6118e7611451565b611959576040517f08c379a00000000000000000000000000000000000000000000000000000000081526004018080602001828103825260208152602001807f4f776e61626c653a2063616c6c6572206973206e6f7420746865206f776e657281525060200191505060405180910390fd5b42600e8190555080601060006101000a81548173ffffffffffffffffffffffffffffffffffffffff021916908373ffffffffffffffffffffffffffffffffffffffff1602179055507f4508cb0974b8dda93dec7c130aa186db2705fcee58bc00d1334726761835aca1601060009054906101000a900473ffffffffffffffffffffffffffffffffffffffff16604051808273ffffffffffffffffffffffffffffffffffffffff1673ffffffffffffffffffffffffffffffffffffffff16815260200191505060405180910390a150565b6000600a600083815260200190815260200160002060009054906101000a900460ff169050919050565b600f5481565b60075481565b611a67611451565b611ad9576040517f08c379a00000000000000000000000000000000000000000000000000000000081526004018080602001828103825260208152602001807f4f776e61626c653a2063616c6c6572206973206e6f7420746865206f776e657281525060200191505060405180910390fd5b6000600e541415611b52576040517f08c379a00000000000000000000000000000000000000000000000000000000081526004018080602001828103825260158152602001807f55706772616465206e6f7420696e69746961746564000000000000000000000081525060200191505060405180910390fd5b6000611b5d42611825565b90506000611b6c600e54611825565b9050808211611bc6576040517f08c379a000000000000000000000000000000000000000000000000000000000815260040180806020018281038252603c815260200180613561603c913960400191505060405180910390fd5b611be2611bdd60018461213a90919063ffffffff16565b610b7a565b611c0357611c02611bfd60018461213a90919063ffffffff16565b610c6f565b5b60006006549050611c1f8160055461213a90919063ffffffff16565b60058190555060006006819055507f89f5b857dbf5a32a4fa55162349dc1146850c9b76ff05bedf3a47b3f14095c0a816040518082815260200191505060405180910390a16000600160009054906101000a900473ffffffffffffffffffffffffffffffffffffffff1673ffffffffffffffffffffffffffffffffffffffff1663cae9ca51601060009054906101000a900473ffffffffffffffffffffffffffffffffffffffff1684604051806020016040528060008152506040518463ffffffff1660e01b8152600401808473ffffffffffffffffffffffffffffffffffffffff1673ffffffffffffffffffffffffffffffffffffffff16815260200183815260200180602001828103825283818151815260200191508051906020019080838360005b83811015611d5f578082015181840152602081019050611d44565b50505050905090810190601f168015611d8c5780820380516001836020036101000a031916815260200191505b50945050505050602060405180830381600087803b158015611dad57600080fd5b505af1158015611dc1573d6000803e3d6000fd5b505050506040513d6020811015611dd757600080fd5b8101908080519060200190929190505050905080611e5d576040517f08c379a000000000000000000000000000000000000000000000000000000000815260040180806020018281038252601b8152602001807f557067726164652066696e616c697a6174696f6e206661696c6564000000000081525060200191505060405180910390fd5b6000600e8190555042600f8190555050505050565b6000611e7d826118b4565b4210159050919050565b611e8f611451565b611f01576040517f08c379a00000000000000000000000000000000000000000000000000000000081526004018080602001828103825260208152602001807f4f776e61626c653a2063616c6c6572206973206e6f7420746865206f776e657281525060200191505060405180910390fd5b611f0a816129c7565b50565b600d60009054906101000a900460ff1681565b600160009054906101000a900473ffffffffffffffffffffffffffffffffffffffff1681565b600081611f5281612b0b565b611fc4576040517f08c379a00000000000000000000000000000000000000000000000000000000081526004018080602001828103825260148152602001807f496e76616c6964206b656570206164647265737300000000000000000000000081525060200191505060405180910390fd5b6000601260009054906101000a900473ffffffffffffffffffffffffffffffffffffffff1673ffffffffffffffffffffffffffffffffffffffff1663d14fede161200d86612b27565b6040518263ffffffff1660e01b8152600401808273ffffffffffffffffffffffffffffffffffffffff1673ffffffffffffffffffffffffffffffffffffffff16815260200191505060206040518083038186803b15801561206d57600080fd5b505afa158015612081573d6000803e3d6000fd5b505050506040513d602081101561209757600080fd5b81019080805190602001909291905050501415915050919050565b6000816120be81612b0b565b612130576040517f08c379a00000000000000000000000000000000000000000000000000000000081526004018080602001828103825260148152602001807f496e76616c6964206b656570206164647265737300000000000000000000000081525060200191505060405180910390fd5b6001915050919050565b6000828211156121b2576040517f08c379a000000000000000000000000000000000000000000000000000000000815260040180806020018281038252601e8152602001807f536166654d6174683a207375627472616374696f6e206f766572666c6f77000081525060200191505060405180910390fd5b600082840390508091505092915050565b6000806121cf83612b34565b905060008114156121e4576000915050612241565b60006121ef846117f9565b905060006121ff82600454612b78565b905060008114156122165760009350505050612241565b61223b8161222d848661294190919063ffffffff16565b6128b290919063ffffffff16565b93505050505b919050565b600061225182612b92565b9050600061225e82611825565b905061226981610b7a565b6122775761227681610c6f565b5b60006009828154811061228657fe5b90600052602060002001549050600061229e836117f9565b905060006122b582846128b290919063ffffffff16565b90506001600a600088815260200190815260200160002060006101000a81548160ff02191690831515021790555061230a6001600c60008781526020019081526020016000205461253190919063ffffffff16565b600c60008681526020019081526020016000208190555086156123905761233c8160075461253190919063ffffffff16565b60078190555061234c8682612cfa565b7ff8fcbb083cc485f0dc726d4235dbec7c9c5c03af58254f3536275035772161708682604051808381526020018281526020019250505060405180910390a161239a565b612399816125b9565b5b50505050505050565b6000816123af81612b0b565b612421576040517f08c379a00000000000000000000000000000000000000000000000000000000081526004018080602001828103825260148152602001807f496e76616c6964206b656570206164647265737300000000000000000000000081525060200191505060405180910390fd5b6000915050919050565b61252b848573ffffffffffffffffffffffffffffffffffffffff166323b872dd905060e01b858585604051602401808473ffffffffffffffffffffffffffffffffffffffff1673ffffffffffffffffffffffffffffffffffffffff1681526020018373ffffffffffffffffffffffffffffffffffffffff1673ffffffffffffffffffffffffffffffffffffffff1681526020018281526020019350505050604051602081830303815290604052907bffffffffffffffffffffffffffffffffffffffffffffffffffffffff19166020820180517bffffffffffffffffffffffffffffffffffffffffffffffffffffffff8381831617835250505050612f31565b50505050565b6000808284019050838110156125af576040517f08c379a000000000000000000000000000000000000000000000000000000000815260040180806020018281038252601b8152602001807f536166654d6174683a206164646974696f6e206f766572666c6f77000000000081525060200191505060405180910390fd5b8091505092915050565b6000600f5414612770576000600160009054906101000a900473ffffffffffffffffffffffffffffffffffffffff1673ffffffffffffffffffffffffffffffffffffffff1663cae9ca51601060009054906101000a900473ffffffffffffffffffffffffffffffffffffffff1684604051806020016040528060008152506040518463ffffffff1660e01b8152600401808473ffffffffffffffffffffffffffffffffffffffff1673ffffffffffffffffffffffffffffffffffffffff16815260200183815260200180602001828103825283818151815260200191508051906020019080838360005b838110156126be5780820151818401526020810190506126a3565b50505050905090810190601f1680156126eb5780820380516001836020036101000a031916815260200191505b50945050505050602060405180830381600087803b15801561270c57600080fd5b505af1158015612720573d6000803e3d6000fd5b505050506040513d602081101561273657600080fd5b810190808051906020019092919050505090508061276a576127638260065461253190919063ffffffff16565b6006819055505b5061278c565b6127858160065461253190919063ffffffff16565b6006819055505b50565b6000808214156127a257600090506127c1565b6127be6127b960018461213a90919063ffffffff16565b6127c6565b90505b919050565b6000816127d281611e72565b612844576040517f08c379a00000000000000000000000000000000000000000000000000000000081526004018080602001828103825260198152602001807f496e74657276616c206861736e277420656e646564207965740000000000000081525060200191505060405180910390fd5b6000600b600085815260200190815260200160002054905060008114156128a4576000612878612873866118b4565b61317c565b90506000811461289b5780600b6000878152602001908152602001600020819055505b809350506128a8565b8092505b8292505050919050565b6000808211612929576040517f08c379a000000000000000000000000000000000000000000000000000000000815260040180806020018281038252601a8152602001807f536166654d6174683a206469766973696f6e206279207a65726f00000000000081525060200191505060405180910390fd5b600082848161293457fe5b0490508091505092915050565b60008083141561295457600090506129c1565b600082840290508284828161296557fe5b04146129bc576040517f08c379a00000000000000000000000000000000000000000000000000000000081526004018080602001828103825260218152602001806135166021913960400191505060405180910390fd5b809150505b92915050565b600073ffffffffffffffffffffffffffffffffffffffff168173ffffffffffffffffffffffffffffffffffffffff161415612a4d576040517f08c379a00000000000000000000000000000000000000000000000000000000081526004018080602001828103825260268152602001806134f06026913960400191505060405180910390fd5b8073ffffffffffffffffffffffffffffffffffffffff166000809054906101000a900473ffffffffffffffffffffffffffffffffffffffff1673ffffffffffffffffffffffffffffffffffffffff167f8be0079c531659141344cd1fd0a4f28419497f9722a3daafe3b4186f6b6457e060405160405180910390a3806000806101000a81548173ffffffffffffffffffffffffffffffffffffffff021916908373ffffffffffffffffffffffffffffffffffffffff16021790555050565b600081612b1f612b1a84612b27565b61329c565b149050919050565b60008160601c9050919050565b60008060065490506000612b4784610f0d565b9050612b6f6064612b61838561294190919063ffffffff16565b6128b290919063ffffffff16565b92505050919050565b600081831015612b885781612b8a565b825b905092915050565b600081612b9e81612b0b565b612c10576040517f08c379a00000000000000000000000000000000000000000000000000000000081526004018080602001828103825260148152602001807f496e76616c6964206b656570206164647265737300000000000000000000000081525060200191505060405180910390fd5b601260009054906101000a900473ffffffffffffffffffffffffffffffffffffffff1673ffffffffffffffffffffffffffffffffffffffff1663d14fede1612c5785612b27565b6040518263ffffffff1660e01b8152600401808273ffffffffffffffffffffffffffffffffffffffff1673ffffffffffffffffffffffffffffffffffffffff16815260200191505060206040518083038186803b158015612cb757600080fd5b505afa158015612ccb573d6000803e3d6000fd5b505050506040513d6020811015612ce157600080fd5b8101908080519060200190929190505050915050919050565b81612d0481612b0b565b612d76576040517f08c379a00000000000000000000000000000000000000000000000000000000081526004018080602001828103825260148152602001807f496e76616c6964206b656570206164647265737300000000000000000000000081525060200191505060405180910390fd5b600160009054906101000a900473ffffffffffffffffffffffffffffffffffffffff1673ffffffffffffffffffffffffffffffffffffffff1663095ea7b3612dbd85612b27565b846040518363ffffffff1660e01b8152600401808373ffffffffffffffffffffffffffffffffffffffff1673ffffffffffffffffffffffffffffffffffffffff16815260200182815260200192505050602060405180830381600087803b158015612e2757600080fd5b505af1158015612e3b573d6000803e3d6000fd5b505050506040513d6020811015612e5157600080fd5b810190808051906020019092919050505050612e6c83612b27565b73ffffffffffffffffffffffffffffffffffffffff16635a89f810600160009054906101000a900473ffffffffffffffffffffffffffffffffffffffff16846040518363ffffffff1660e01b8152600401808373ffffffffffffffffffffffffffffffffffffffff1673ffffffffffffffffffffffffffffffffffffffff16815260200182815260200192505050600060405180830381600087803b158015612f1457600080fd5b505af1158015612f28573d6000803e3d6000fd5b50505050505050565b612f508273ffffffffffffffffffffffffffffffffffffffff166132b8565b612fc2576040517f08c379a000000000000000000000000000000000000000000000000000000000815260040180806020018281038252601f8152602001807f5361666545524332303a2063616c6c20746f206e6f6e2d636f6e74726163740081525060200191505060405180910390fd5b600060608373ffffffffffffffffffffffffffffffffffffffff16836040518082805190602001908083835b602083106130115780518252602082019150602081019050602083039250612fee565b6001836020036101000a0380198251168184511680821785525050505050509050019150506000604051808303816000865af19150503d8060008114613073576040519150601f19603f3d011682016040523d82523d6000602084013e613078565b606091505b5091509150816130f0576040517f08c379a00000000000000000000000000000000000000000000000000000000081526004018080602001828103825260208152602001807f5361666545524332303a206c6f772d6c6576656c2063616c6c206661696c656481525060200191505060405180910390fd5b6000815111156131765780806020019051602081101561310f57600080fd5b8101908080519060200190929190505050613175576040517f08c379a000000000000000000000000000000000000000000000000000000000815260040180806020018281038252602a815260200180613537602a913960400191505060405180910390fd5b5b50505050565b6000428211156131f4576040517f08c379a00000000000000000000000000000000000000000000000000000000081526004018080602001828103825260198152602001807f696e74657276616c206861736e277420656e646564207965740000000000000081525060200191505060405180910390fd5b60006131fe6132cb565b90506000811415613213576000915050613297565b6000809050600061322b61322683613375565b612b92565b90508481106132405760009350505050613297565b600061325660018561213a90919063ffffffff16565b9050600061326b61326683613375565b612b92565b905086811015613282578495505050505050613297565b61328f848484848b613434565b955050505050505b919050565b60008160601b6bffffffffffffffffffffffff19169050919050565b600080823b905060008111915050919050565b6000601260009054906101000a900473ffffffffffffffffffffffffffffffffffffffff1673ffffffffffffffffffffffffffffffffffffffff1663b2dc75936040518163ffffffff1660e01b815260040160206040518083038186803b15801561333557600080fd5b505afa158015613349573d6000803e3d6000fd5b505050506040513d602081101561335f57600080fd5b8101908080519060200190929190505050905090565b600061342d601260009054906101000a900473ffffffffffffffffffffffffffffffffffffffff1673ffffffffffffffffffffffffffffffffffffffff1663202bb9f0846040518263ffffffff1660e01b81526004018082815260200191505060206040518083038186803b1580156133ed57600080fd5b505afa158015613401573d6000803e3d6000fd5b505050506040513d602081101561341757600080fd5b810190808051906020019092919050505061329c565b9050919050565b600080869050600086905060008690506000869050600061345e858461213a90919063ffffffff16565b90505b60018111156134de5760006134926134836002846128b290919063ffffffff16565b8761253190919063ffffffff16565b905060006134a76134a283613375565b612b92565b90508881106134bb578194508093506134c2565b8196508095505b6134d5878661213a90919063ffffffff16565b92505050613461565b82955050505050509594505050505056fe4f776e61626c653a206e6577206f776e657220697320746865207a65726f2061646472657373536166654d6174683a206d756c7469706c69636174696f6e206f766572666c6f775361666545524332303a204552433230206f7065726174696f6e20646964206e6f742073756363656564496e74657276616c2061742077686963682074686520757067726164652077617320696e69746961746564206861736e277420656e64656420796574a265627a7a72315820e07b04bfa3ee5fad8ff5f13bfdc4aa4af289cf446a388f1eeaccaa0531979f3964736f6c63430005110032",
  "source": "/**\n     \n   \n                            \n                             \n                          \n                           \n                          \n     \n     \n\n                           Trust math, not hardware.\n*/\n\npragma solidity 0.5.17;\n\nimport \"@keep-network/keep-core/contracts/Rewards.sol\";\nimport \"./BondedECDSAKeepFactory.sol\";\nimport \"./api/IBondedECDSAKeep.sol\";\n\n/// @title KEEP Random ECDSA Signer Subsidy Rewards for the May release.\n/// @notice Contract distributes KEEP rewards to signers that were part of\n/// the keeps which were created by the BondedECDSAKeepFactory contract:\n/// https://etherscan.io/address/0x18758f16988E61Cd4B61E6B930694BD9fB07C22F\n///\n/// Keep signers from May release of BondedECDSAKeepFactory contract can claim\n/// their rewards at any time.\ncontract ECDSABackportRewards is Rewards {\n    // BondedECDSAKeepFactory deployment date, May-13-2020 interval started.\n    // https://etherscan.io/address/0x18758f16988E61Cd4B61E6B930694BD9fB07C22F\n    uint256 internal constant bondedECDSAKeepFactoryDeployment = 1589408351;\n\n    // We are going to have one interval, with a weight of 100%.\n    uint256[] internal backportECDSAIntervalWeight = [100];\n\n    // Interval is the difference in time of creation between older and newer\n    // versions of BondedECDSAKeepFactory.\n    // Older: https://etherscan.io/address/0x18758f16988E61Cd4B61E6B930694BD9fB07C22F\n    // Newer: https://etherscan.io/address/0xA7d9E842EFB252389d613dA88EDa3731512e40bD\n    // The actual value between these 2 contracts deployment time is a little less\n    // than 124 days.\n    uint256 internal constant backportECDSATermLength = 124 days;\n\n    uint256 internal constant minimumECDSAKeepsPerInterval = 40;\n\n    BondedECDSAKeepFactory factory;\n\n    constructor(address _token, address payable _factoryAddress)\n        public\n        Rewards(\n            _token,\n            bondedECDSAKeepFactoryDeployment,\n            backportECDSAIntervalWeight,\n            backportECDSATermLength,\n            minimumECDSAKeepsPerInterval\n        )\n    {\n        factory = BondedECDSAKeepFactory(_factoryAddress);\n    }\n\n    function _getKeepCount() internal view returns (uint256) {\n        return factory.getKeepCount();\n    }\n\n    function _getKeepAtIndex(uint256 index) internal view returns (bytes32) {\n        return fromAddress(factory.getKeepAtIndex(index));\n    }\n\n    function _getCreationTime(bytes32 _keep)\n        internal\n        view\n        isAddress(_keep)\n        returns (uint256)\n    {\n        return factory.getKeepOpenedTimestamp(toAddress(_keep));\n    }\n\n    function _isClosed(bytes32 _keep)\n        internal\n        view\n        isAddress(_keep)\n        returns (bool)\n    {\n        // Even though we still have some of the keeps opened, all the keeps\n        // created between May 13 2020 - Sep 14 2020 are considered closed.\n        // Because of the deposits pause\n        // https://tbtc.network/news/2020-05-21-details-of-the-tbtc-deposit-pause-on-may-18-2020/\n        // closing all the keeps is not easily achievable. However, we do not\n        // want to block rewards distribution for good stakers caused by the\n        // incident on May 18th.\n        return true;\n    }\n\n    function _isTerminated(bytes32 _keep)\n        internal\n        view\n        isAddress(_keep)\n        returns (bool)\n    {\n        return false;\n    }\n\n    // A keep is recognized if it was created by this factory.\n    function _recognizedByFactory(bytes32 _keep)\n        internal\n        view\n        isAddress(_keep)\n        returns (bool)\n    {\n        return factory.getKeepOpenedTimestamp(toAddress(_keep)) != 0;\n    }\n\n    function _distributeReward(bytes32 _keep, uint256 amount)\n        internal\n        isAddress(_keep)\n    {\n        token.approve(toAddress(_keep), amount);\n\n        IBondedECDSAKeep(toAddress(_keep)).distributeERC20Reward(\n            address(token),\n            amount\n        );\n    }\n\n    function toAddress(bytes32 keepBytes) internal pure returns (address) {\n        return address(bytes20(keepBytes));\n    }\n\n    function fromAddress(address keepAddress) internal pure returns (bytes32) {\n        return bytes32(bytes20(keepAddress));\n    }\n\n    function validAddressBytes(bytes32 keepBytes) internal pure returns (bool) {\n        return fromAddress(toAddress(keepBytes)) == keepBytes;\n    }\n\n    modifier isAddress(bytes32 _keep) {\n        require(validAddressBytes(_keep), \"Invalid keep address\");\n        _;\n    }\n}\n",
  "sourcePath": "/home/kowal/Projects/sovryn/keep-ecdsa/solidity/contracts/ECDSABackportRewards.sol",
  "compiler": {
    "name": "solc",
    "version": "0.5.17+commit.d19bba13.Emscripten.clang"
  },
  "schemaVersion": "3.0.22",
  "updatedAt": "2021-01-29T17:36:47.925Z",
  "devdoc": {
    "methods": {
      "allocateRewards(uint256)": {
        "details": "The given interval must be finished and unallocated. To allocate rewards correctly, any earlier intervals that are still unallocated will be allocated before the given interval. With reasonable interval lengths this should not pose a problem, and if allocating a later interval results in an out-of-gas issue, forcing the allocation of an earlier interval should fix it.",
        "params": {
          "interval": "The interval to allocate."
        }
      },
      "eligibleButTerminated(bytes32)": {
        "params": {
          "_keep": "The keep to check."
        },
        "return": "True if the keep is terminated, false otherwise"
      },
      "eligibleForReward(bytes32)": {
        "details": "Keeps that close dishonorably or early are not eligible for rewards.",
        "params": {
          "_keep": "The keep to check."
        },
        "return": "True if the keep is eligible, false otherwise"
      },
      "endOf(uint256)": {
        "details": "The end of an interval is exclusive; a keep created at the timestamp `endOf(i)` is in interval `i+1`.",
        "params": {
          "interval": "The interval whose end is queried."
        },
        "return": "The end timestamp of the interval."
      },
      "getAllocatedRewards(uint256)": {
        "details": "This function returns correct results for any allocated interval. Dividing the allocated rewards by the number of keeps in the interval will give the correct reward for a keep in the interval. However, if a keep in the interval is terminated its reward will be returned to the pool of unallocated tokens. This will not be reflected in the return value of this function.",
        "params": {
          "interval": "A previously allocated interval."
        },
        "return": "The total number of tokens allocated for keeps in the interval."
      },
      "getIntervalCount()": {
        "return": "The number of explicitly specified intervals."
      },
      "getIntervalWeight(uint256)": {
        "params": {
          "interval": "The interval."
        },
        "return": "The percentage weight of the interval."
      },
      "initiateRewardsUpgrade(address)": {
        "params": {
          "_newRewardsContract": "The address of a new rewards contract."
        }
      },
      "intervalOf(uint256)": {
        "details": "If the timestamp is before `firstIntervalStart`, the interval is 0.",
        "params": {
          "timestamp": "The timestamp whose interval is queried."
        },
        "return": "The interval of the timestamp."
      },
      "isAllocated(uint256)": {
        "params": {
          "interval": "The interval."
        },
        "return": "Whether the interval has been allocated yet."
      },
      "isFinished(uint256)": {
        "params": {
          "interval": "The interval."
        },
        "return": "Whether the interval is finished."
      },
      "isOwner()": {
        "details": "Returns true if the caller is the current owner."
      },
      "keepsInInterval(uint256)": {
        "params": {
          "interval": "The interval."
        },
        "return": "Number of keeps created in the interval."
      },
      "owner()": {
        "details": "Returns the address of the current owner."
      },
      "receiveApproval(address,uint256,address,bytes)": {
        "details": "Adds the received amount of tokens to `totalRewards` and `unallocatedRewards`. May be called at any time, even after allocating some intervals. If the contract has been upgraded, the funding will be transferred to the new contract instead. Changes to `unallocatedRewards` will take effect on subsequent interval allocations. Intended to be used with `approveAndCall`. If the reward contract has received tokens outside `approveAndCall`, this collects them as well. The following invariant should hold right after calling this function: token.balanceOf(address(this)) == totalRewards.sub(dispensedRewards).",
        "params": {
          "_from": "The original sender of the tokens. Must have approved at least `_value` tokens for the rewards contract.",
          "_token": "The token to fund the rewards in. Must match the one specified in the rewards contract.",
          "_value": "The amount of tokens to fund."
        }
      },
      "receiveReward(bytes32)": {
        "params": {
          "keepIdentifier": "A unique identifier for the keep, e.g. address or number converted to a `bytes32`."
        }
      },
      "receiveRewards(bytes32[])": {
        "params": {
          "keepIdentifiers": "An array of keep identifiers."
        }
      },
      "renounceOwnership()": {
        "details": "Leaves the contract without owner. It will not be possible to call `onlyOwner` functions anymore. Can only be called by the current owner.     * > Note: Renouncing ownership will leave the contract without an owner, thereby removing any functionality that is only available to the owner."
      },
      "reportTermination(bytes32)": {
        "params": {
          "keepIdentifier": "The terminated keep."
        }
      },
      "reportTerminations(bytes32[])": {
        "params": {
          "keepIdentifiers": "An array of keep identifiers."
        }
      },
      "rewardClaimed(bytes32)": {
        "params": {
          "_keep": "The identifier of the keep."
        },
        "return": "True if rewards have been paid out for the keep, or its termination has been reported. False otherwise."
      },
      "startOf(uint256)": {
        "details": "The start of an interval is inclusive; a keep created at the timestamp `startOf(i)` is in interval `i`.",
        "params": {
          "interval": "The interval whose start is queried."
        },
        "return": "The start timestamp of the interval."
      },
      "transferOwnership(address)": {
        "details": "Transfers ownership of the contract to a new account (`newOwner`). Can only be called by the current owner."
      }
    },
    "title": "KEEP Random ECDSA Signer Subsidy Rewards for the May release."
  },
  "userdoc": {
    "methods": {
      "allocateRewards(uint256)": {
        "notice": "Allocate rewards for unallocated intervals up to and including the given interval."
      },
      "eligibleButTerminated(bytes32)": {
        "notice": "Checks if a keep is terminated and thus its rewards can be returned to the unallocated pool."
      },
      "eligibleForReward(bytes32)": {
        "notice": "Checks if a keep is eligible to receive rewards."
      },
      "endOf(uint256)": {
        "notice": "Return the timestamp corresponding to the end of the interval."
      },
      "finalizeRewardsUpgrade()": {
        "notice": "Finalizes the process of upgrading to another rewards contract by allocating all past intervals and then, transferring the not-yet-allocated tokens to a new rewards contract. Can be called only when the interval during which the upgrade was initiated ended. Before finalizing the upgrade, make sure all terminated groups are reported."
      },
      "getAllocatedRewards(uint256)": {
        "notice": "Get the total amount of tokens allocated for all keeps in the specified interval."
      },
      "getIntervalCount()": {
        "notice": "Get the number of intervals with explicitly specified weights. All subsequent intervals will have an implicit weight of 100."
      },
      "getIntervalWeight(uint256)": {
        "notice": "Return the percentage of remaining unallocated rewards that is to be allocated to the specified interval."
      },
      "initiateRewardsUpgrade(address)": {
        "notice": "Initiates the process of upgrading to another rewards contract."
      },
      "intervalOf(uint256)": {
        "notice": "Return the interval number the provided timestamp falls within."
      },
      "isAllocated(uint256)": {
        "notice": "Return whether the specified interval has been allocated."
      },
      "isFinished(uint256)": {
        "notice": "Return whether the given interval is finished."
      },
      "keepsInInterval(uint256)": {
        "notice": "Return the number of keeps created in the specified interval."
      },
      "receiveApproval(address,uint256,address,bytes)": {
        "notice": "Funds the rewards contract."
      },
      "receiveReward(bytes32)": {
        "notice": "Sends the reward for a keep to the keep members."
      },
      "receiveRewards(bytes32[])": {
        "notice": "Stakers can receive KEEP rewards from multiple keeps of their choice in one transaction to reduce total cost comparing to single calls for rewards. It is a caller responsibility to determine the cost and consumed gas when receiving rewards from multiple keeps."
      },
      "reportTermination(bytes32)": {
        "notice": "Report that the keep was terminated, and return its allocated rewards to the unallocated pool."
      },
      "reportTerminations(bytes32[])": {
        "notice": "Report about the terminated keeps in batch. All the allocated rewards in these keeps will be returned to the unallocated pool."
      },
      "rewardClaimed(bytes32)": {
        "notice": "Return whether the given keep has already claimed rewards or had its rewards reallocated due to termination."
      },
      "startOf(uint256)": {
        "notice": "Return the timestamp corresponding to the start of the interval."
      }
    },
    "notice": "Contract distributes KEEP rewards to signers that were part of the keeps which were created by the BondedECDSAKeepFactory contract: https://etherscan.io/address/0x18758f16988E61Cd4B61E6B930694BD9fB07C22F  /// Keep signers from May release of BondedECDSAKeepFactory contract can claim their rewards at any time."
  }
}