{
  "contractName": "ECDSARewardsStub",
  "abi": [
    {
      "inputs": [
        {
          "internalType": "address",
          "name": "_token",
          "type": "address"
        },
        {
          "internalType": "address payable",
          "name": "_factoryAddress",
          "type": "address"
        },
        {
          "internalType": "address",
          "name": "_tokenStakingAddress",
          "type": "address"
        }
      ],
      "payable": false,
      "stateMutability": "nonpayable",
      "type": "constructor"
    },
    {
      "anonymous": false,
      "inputs": [
        {
          "indexed": true,
          "internalType": "address",
          "name": "previousOwner",
          "type": "address"
        },
        {
          "indexed": true,
          "internalType": "address",
          "name": "newOwner",
          "type": "address"
        }
      ],
      "name": "OwnershipTransferred",
      "type": "event"
    },
    {
      "anonymous": false,
      "inputs": [
        {
          "indexed": false,
          "internalType": "bytes32",
          "name": "keep",
          "type": "bytes32"
        },
        {
          "indexed": false,
          "internalType": "uint256",
          "name": "amount",
          "type": "uint256"
        }
      ],
      "name": "RewardReceived",
      "type": "event"
    },
    {
      "anonymous": false,
      "inputs": [
        {
          "indexed": false,
          "internalType": "uint256",
          "name": "amountTransferred",
          "type": "uint256"
        }
      ],
      "name": "UpgradeFinalized",
      "type": "event"
    },
    {
      "anonymous": false,
      "inputs": [
        {
          "indexed": false,
          "internalType": "address",
          "name": "newRewardsContract",
          "type": "address"
        }
      ],
      "name": "UpgradeInitiated",
      "type": "event"
    },
    {
      "constant": false,
      "inputs": [
        {
          "internalType": "uint256",
          "name": "interval",
          "type": "uint256"
        }
      ],
      "name": "allocateRewards",
      "outputs": [],
      "payable": false,
      "stateMutability": "nonpayable",
      "type": "function"
    },
    {
      "constant": true,
      "inputs": [],
      "name": "beneficiaryRewardCap",
      "outputs": [
        {
          "internalType": "uint256",
          "name": "",
          "type": "uint256"
        }
      ],
      "payable": false,
      "stateMutability": "view",
      "type": "function"
    },
    {
      "constant": true,
      "inputs": [],
      "name": "dispensedRewards",
      "outputs": [
        {
          "internalType": "uint256",
          "name": "",
          "type": "uint256"
        }
      ],
      "payable": false,
      "stateMutability": "view",
      "type": "function"
    },
    {
      "constant": true,
      "inputs": [
        {
          "internalType": "bytes32",
          "name": "_keep",
          "type": "bytes32"
        }
      ],
      "name": "eligibleButTerminated",
      "outputs": [
        {
          "internalType": "bool",
          "name": "",
          "type": "bool"
        }
      ],
      "payable": false,
      "stateMutability": "view",
      "type": "function"
    },
    {
      "constant": true,
      "inputs": [
        {
          "internalType": "bytes32",
          "name": "_keep",
          "type": "bytes32"
        }
      ],
      "name": "eligibleForReward",
      "outputs": [
        {
          "internalType": "bool",
          "name": "",
          "type": "bool"
        }
      ],
      "payable": false,
      "stateMutability": "view",
      "type": "function"
    },
    {
      "constant": true,
      "inputs": [
        {
          "internalType": "uint256",
          "name": "interval",
          "type": "uint256"
        }
      ],
      "name": "endOf",
      "outputs": [
        {
          "internalType": "uint256",
          "name": "",
          "type": "uint256"
        }
      ],
      "payable": false,
      "stateMutability": "view",
      "type": "function"
    },
    {
      "constant": false,
      "inputs": [],
      "name": "finalizeRewardsUpgrade",
      "outputs": [],
      "payable": false,
      "stateMutability": "nonpayable",
      "type": "function"
    },
    {
      "constant": true,
      "inputs": [],
      "name": "firstIntervalStart",
      "outputs": [
        {
          "internalType": "uint256",
          "name": "",
          "type": "uint256"
        }
      ],
      "payable": false,
      "stateMutability": "view",
      "type": "function"
    },
    {
      "constant": true,
      "inputs": [],
      "name": "funded",
      "outputs": [
        {
          "internalType": "bool",
          "name": "",
          "type": "bool"
        }
      ],
      "payable": false,
      "stateMutability": "view",
      "type": "function"
    },
    {
      "constant": true,
      "inputs": [
        {
          "internalType": "uint256",
          "name": "interval",
          "type": "uint256"
        },
        {
          "internalType": "address",
          "name": "operator",
          "type": "address"
        }
      ],
      "name": "getAllocatedRewards",
      "outputs": [
        {
          "internalType": "uint256",
          "name": "",
          "type": "uint256"
        }
      ],
      "payable": false,
      "stateMutability": "view",
      "type": "function"
    },
    {
      "constant": true,
      "inputs": [
        {
          "internalType": "uint256",
          "name": "interval",
          "type": "uint256"
        }
      ],
      "name": "getAllocatedRewards",
      "outputs": [
        {
          "internalType": "uint256",
          "name": "",
          "type": "uint256"
        }
      ],
      "payable": false,
      "stateMutability": "view",
      "type": "function"
    },
    {
      "constant": true,
      "inputs": [],
      "name": "getIntervalCount",
      "outputs": [
        {
          "internalType": "uint256",
          "name": "",
          "type": "uint256"
        }
      ],
      "payable": false,
      "stateMutability": "view",
      "type": "function"
    },
    {
      "constant": true,
      "inputs": [
        {
          "internalType": "uint256",
          "name": "interval",
          "type": "uint256"
        }
      ],
      "name": "getIntervalWeight",
      "outputs": [
        {
          "internalType": "uint256",
          "name": "",
          "type": "uint256"
        }
      ],
      "payable": false,
      "stateMutability": "view",
      "type": "function"
    },
    {
      "constant": true,
      "inputs": [
        {
          "internalType": "uint256",
          "name": "interval",
          "type": "uint256"
        },
        {
          "internalType": "address",
          "name": "operator",
          "type": "address"
        }
      ],
      "name": "getWithdrawableRewards",
      "outputs": [
        {
          "internalType": "uint256",
          "name": "",
          "type": "uint256"
        }
      ],
      "payable": false,
      "stateMutability": "view",
      "type": "function"
    },
    {
      "constant": true,
      "inputs": [
        {
          "internalType": "uint256",
          "name": "interval",
          "type": "uint256"
        },
        {
          "internalType": "address",
          "name": "operator",
          "type": "address"
        }
      ],
      "name": "getWithdrawnRewards",
      "outputs": [
        {
          "internalType": "uint256",
          "name": "",
          "type": "uint256"
        }
      ],
      "payable": false,
      "stateMutability": "view",
      "type": "function"
    },
    {
      "constant": false,
      "inputs": [
        {
          "internalType": "address",
          "name": "_newRewardsContract",
          "type": "address"
        }
      ],
      "name": "initiateRewardsUpgrade",
      "outputs": [],
      "payable": false,
      "stateMutability": "nonpayable",
      "type": "function"
    },
    {
      "constant": true,
      "inputs": [
        {
          "internalType": "uint256",
          "name": "",
          "type": "uint256"
        }
      ],
      "name": "intervalKeepsProcessed",
      "outputs": [
        {
          "internalType": "uint256",
          "name": "",
          "type": "uint256"
        }
      ],
      "payable": false,
      "stateMutability": "view",
      "type": "function"
    },
    {
      "constant": true,
      "inputs": [
        {
          "internalType": "uint256",
          "name": "timestamp",
          "type": "uint256"
        }
      ],
      "name": "intervalOf",
      "outputs": [
        {
          "internalType": "uint256",
          "name": "",
          "type": "uint256"
        }
      ],
      "payable": false,
      "stateMutability": "view",
      "type": "function"
    },
    {
      "constant": true,
      "inputs": [
        {
          "internalType": "uint256",
          "name": "",
          "type": "uint256"
        }
      ],
      "name": "intervalWeights",
      "outputs": [
        {
          "internalType": "uint256",
          "name": "",
          "type": "uint256"
        }
      ],
      "payable": false,
      "stateMutability": "view",
      "type": "function"
    },
    {
      "constant": true,
      "inputs": [
        {
          "internalType": "uint256",
          "name": "interval",
          "type": "uint256"
        }
      ],
      "name": "isAllocated",
      "outputs": [
        {
          "internalType": "bool",
          "name": "",
          "type": "bool"
        }
      ],
      "payable": false,
      "stateMutability": "view",
      "type": "function"
    },
    {
      "constant": true,
      "inputs": [
        {
          "internalType": "uint256",
          "name": "interval",
          "type": "uint256"
        }
      ],
      "name": "isFinished",
      "outputs": [
        {
          "internalType": "bool",
          "name": "",
          "type": "bool"
        }
      ],
      "payable": false,
      "stateMutability": "view",
      "type": "function"
    },
    {
      "constant": true,
      "inputs": [],
      "name": "isOwner",
      "outputs": [
        {
          "internalType": "bool",
          "name": "",
          "type": "bool"
        }
      ],
      "payable": false,
      "stateMutability": "view",
      "type": "function"
    },
    {
      "constant": false,
      "inputs": [
        {
          "internalType": "uint256",
          "name": "interval",
          "type": "uint256"
        }
      ],
      "name": "keepsInInterval",
      "outputs": [
        {
          "internalType": "uint256",
          "name": "",
          "type": "uint256"
        }
      ],
      "payable": false,
      "stateMutability": "nonpayable",
      "type": "function"
    },
    {
      "constant": false,
      "inputs": [],
      "name": "markAsFunded",
      "outputs": [],
      "payable": false,
      "stateMutability": "nonpayable",
      "type": "function"
    },
    {
      "constant": true,
      "inputs": [],
      "name": "minimumKeepsPerInterval",
      "outputs": [
        {
          "internalType": "uint256",
          "name": "",
          "type": "uint256"
        }
      ],
      "payable": false,
      "stateMutability": "view",
      "type": "function"
    },
    {
      "constant": true,
      "inputs": [],
      "name": "newRewardsContract",
      "outputs": [
        {
          "internalType": "address",
          "name": "",
          "type": "address"
        }
      ],
      "payable": false,
      "stateMutability": "view",
      "type": "function"
    },
    {
      "constant": true,
      "inputs": [],
      "name": "owner",
      "outputs": [
        {
          "internalType": "address",
          "name": "",
          "type": "address"
        }
      ],
      "payable": false,
      "stateMutability": "view",
      "type": "function"
    },
    {
      "constant": false,
      "inputs": [
        {
          "internalType": "address",
          "name": "_from",
          "type": "address"
        },
        {
          "internalType": "uint256",
          "name": "_value",
          "type": "uint256"
        },
        {
          "internalType": "address",
          "name": "_token",
          "type": "address"
        },
        {
          "internalType": "bytes",
          "name": "",
          "type": "bytes"
        }
      ],
      "name": "receiveApproval",
      "outputs": [],
      "payable": false,
      "stateMutability": "nonpayable",
      "type": "function"
    },
    {
      "constant": false,
      "inputs": [
        {
          "internalType": "bytes32",
          "name": "keepIdentifier",
          "type": "bytes32"
        }
      ],
      "name": "receiveReward",
      "outputs": [],
      "payable": false,
      "stateMutability": "nonpayable",
      "type": "function"
    },
    {
      "constant": false,
      "inputs": [
        {
          "internalType": "bytes32[]",
          "name": "keepIdentifiers",
          "type": "bytes32[]"
        }
      ],
      "name": "receiveRewards",
      "outputs": [],
      "payable": false,
      "stateMutability": "nonpayable",
      "type": "function"
    },
    {
      "constant": false,
      "inputs": [],
      "name": "renounceOwnership",
      "outputs": [],
      "payable": false,
      "stateMutability": "nonpayable",
      "type": "function"
    },
    {
      "constant": false,
      "inputs": [
        {
          "internalType": "bytes32",
          "name": "keepIdentifier",
          "type": "bytes32"
        }
      ],
      "name": "reportTermination",
      "outputs": [],
      "payable": false,
      "stateMutability": "nonpayable",
      "type": "function"
    },
    {
      "constant": false,
      "inputs": [
        {
          "internalType": "bytes32[]",
          "name": "keepIdentifiers",
          "type": "bytes32[]"
        }
      ],
      "name": "reportTerminations",
      "outputs": [],
      "payable": false,
      "stateMutability": "nonpayable",
      "type": "function"
    },
    {
      "constant": true,
      "inputs": [
        {
          "internalType": "bytes32",
          "name": "_keep",
          "type": "bytes32"
        }
      ],
      "name": "rewardClaimed",
      "outputs": [
        {
          "internalType": "bool",
          "name": "",
          "type": "bool"
        }
      ],
      "payable": false,
      "stateMutability": "view",
      "type": "function"
    },
    {
      "constant": true,
      "inputs": [
        {
          "internalType": "uint256",
          "name": "interval",
          "type": "uint256"
        }
      ],
      "name": "startOf",
      "outputs": [
        {
          "internalType": "uint256",
          "name": "",
          "type": "uint256"
        }
      ],
      "payable": false,
      "stateMutability": "view",
      "type": "function"
    },
    {
      "constant": true,
      "inputs": [],
      "name": "termLength",
      "outputs": [
        {
          "internalType": "uint256",
          "name": "",
          "type": "uint256"
        }
      ],
      "payable": false,
      "stateMutability": "view",
      "type": "function"
    },
    {
      "constant": true,
      "inputs": [],
      "name": "token",
      "outputs": [
        {
          "internalType": "contract KeepToken",
          "name": "",
          "type": "address"
        }
      ],
      "payable": false,
      "stateMutability": "view",
      "type": "function"
    },
    {
      "constant": true,
      "inputs": [],
      "name": "totalRewards",
      "outputs": [
        {
          "internalType": "uint256",
          "name": "",
          "type": "uint256"
        }
      ],
      "payable": false,
      "stateMutability": "view",
      "type": "function"
    },
    {
      "constant": false,
      "inputs": [
        {
          "internalType": "address",
          "name": "newOwner",
          "type": "address"
        }
      ],
      "name": "transferOwnership",
      "outputs": [],
      "payable": false,
      "stateMutability": "nonpayable",
      "type": "function"
    },
    {
      "constant": true,
      "inputs": [],
      "name": "unallocatedRewards",
      "outputs": [
        {
          "internalType": "uint256",
          "name": "",
          "type": "uint256"
        }
      ],
      "payable": false,
      "stateMutability": "view",
      "type": "function"
    },
    {
      "constant": true,
      "inputs": [],
      "name": "upgradeFinalizedTimestamp",
      "outputs": [
        {
          "internalType": "uint256",
          "name": "",
          "type": "uint256"
        }
      ],
      "payable": false,
      "stateMutability": "view",
      "type": "function"
    },
    {
      "constant": true,
      "inputs": [],
      "name": "upgradeInitiatedTimestamp",
      "outputs": [
        {
          "internalType": "uint256",
          "name": "",
          "type": "uint256"
        }
      ],
      "payable": false,
      "stateMutability": "view",
      "type": "function"
    },
    {
      "constant": false,
      "inputs": [
        {
          "internalType": "uint256",
          "name": "interval",
          "type": "uint256"
        },
        {
          "internalType": "address",
          "name": "operator",
          "type": "address"
        }
      ],
      "name": "withdrawRewards",
      "outputs": [],
      "payable": false,
      "stateMutability": "nonpayable",
      "type": "function"
    },
    {
      "constant": false,
      "inputs": [
        {
          "internalType": "uint256",
          "name": "_beneficiaryRewardCap",
          "type": "uint256"
        }
      ],
      "name": "setBeneficiaryRewardCap",
      "outputs": [],
      "payable": false,
      "stateMutability": "nonpayable",
      "type": "function"
    },
    {
      "constant": false,
      "inputs": [
        {
          "internalType": "address",
          "name": "operator",
          "type": "address"
        },
        {
          "internalType": "uint256",
          "name": "interval",
          "type": "uint256"
        },
        {
          "internalType": "uint256",
          "name": "amount",
          "type": "uint256"
        }
      ],
      "name": "allocateReward",
      "outputs": [],
      "payable": false,
      "stateMutability": "nonpayable",
      "type": "function"
    }
  ],
  "bytecode": "0x60806040526000600d60006101000a81548160ff0219169083151502179055506a027b46536c66c8e3000000601155604051806103000160405280600460ff168152602001600860ff168152602001600a60ff168152602001600c60ff168152602001600f60ff168152602001600f60ff168152602001600f60ff168152602001600f60ff168152602001600f60ff168152602001600f60ff168152602001600f60ff168152602001600f60ff168152602001600f60ff168152602001600f60ff168152602001600f60ff168152602001600f60ff168152602001600f60ff168152602001600f60ff168152602001600f60ff168152602001600f60ff168152602001600f60ff168152602001600f60ff168152602001600f60ff168152602001600f60ff1681525060129060186200013a929190620003b4565b503480156200014857600080fd5b50604051620049cb380380620049cb833981810160405260608110156200016e57600080fd5b8101908080519060200190929190805190602001909291908051906020019092919050505082828282635f5eb2806012805480602002602001604051908101604052809291908181526020018280548015620001ea57602002820191906000526020600020905b815481526020019060010190808311620001d5575b505050505062278d006103e8336000806101000a81548173ffffffffffffffffffffffffffffffffffffffff021916908373ffffffffffffffffffffffffffffffffffffffff1602179055506000809054906101000a900473ffffffffffffffffffffffffffffffffffffffff1673ffffffffffffffffffffffffffffffffffffffff16600073ffffffffffffffffffffffffffffffffffffffff167f8be0079c531659141344cd1fd0a4f28419497f9722a3daafe3b4186f6b6457e060405160405180910390a384600160006101000a81548173ffffffffffffffffffffffffffffffffffffffff021916908373ffffffffffffffffffffffffffffffffffffffff160217905550836008819055508260029080519060200190620003129291906200040b565b508160038190555080600481905550505050505081601560006101000a81548173ffffffffffffffffffffffffffffffffffffffff021916908373ffffffffffffffffffffffffffffffffffffffff16021790555080601660006101000a81548173ffffffffffffffffffffffffffffffffffffffff021916908373ffffffffffffffffffffffffffffffffffffffff16021790555050505050505062000485565b828054828255906000526020600020908101928215620003f8579160200282015b82811115620003f7578251829060ff16905591602001919060010190620003d5565b5b5090506200040791906200045d565b5090565b8280548282559060005260206000209081019282156200044a579160200282015b82811115620004495782518255916020019190600101906200042c565b5b5090506200045991906200045d565b5090565b6200048291905b808211156200047e57600081600090555060010162000464565b5090565b90565b61453680620004956000396000f3fe608060405234801561001057600080fd5b506004361061027f5760003560e01c80638f32d59b1161015c578063c70cee6a116100ce578063e8ba650911610087578063e8ba650914610c39578063f2fde38b14610c7f578063f3301f6b14610cc3578063f3a504f214610d11578063fbf7d0d514610d33578063fc0c546a14610d955761027f565b8063c70cee6a14610b4b578063ce21d8cf14610b69578063ce2830ad14610bad578063ce2b3e3c14610bf3578063e1fcd5e814610c11578063e27000e714610c2f5761027f565b806397a1e4341161012057806397a1e43414610945578063ab7239c01461098b578063aeae364d14610a43578063b369af7114610a85578063b41e7f4714610ac7578063b965933e14610b095761027f565b80638f32d59b146107a05780638f4ffcb1146107c257806392672b35146108c7578063951315261461090957806395aeca48146109275761027f565b806345016312116101f5578063725cf04e116101b9578063725cf04e1461064a57806379b18cd11461066857806381b83c331461068657806386d954c0146106d05780638c95a0d1146106fe5780638da5cb5b146107565761027f565b806345016312146104b6578063614851d81461056e57806368ec9c42146105d05780636a823878146105fe578063715018a6146106405761027f565b8063183affa111610247578063183affa11461039a578063246a51c2146103b857806328fc33c7146103e65780632b6fdc7e1461041457806335c9ef711461043257806336544951146104745761027f565b80630a1bb1b1146102845780630da8882f146102ca5780630e15561a146102d45780630e658abc146102f257806312f5706314610354575b600080fd5b6102b06004803603602081101561029a57600080fd5b8101908080359060200190929190505050610ddf565b604051808215151515815260200191505060405180910390f35b6102d2610df5565b005b6102dc610e8c565b6040518082815260200191505060405180910390f35b61033e6004803603604081101561030857600080fd5b8101908080359060200190929190803573ffffffffffffffffffffffffffffffffffffffff169060200190929190505050610e92565b6040518082815260200191505060405180910390f35b6103806004803603602081101561036a57600080fd5b8101908080359060200190929190505050610fcb565b604051808215151515815260200191505060405180910390f35b6103a2611000565b6040518082815260200191505060405180910390f35b6103e4600480360360208110156103ce57600080fd5b810190808035906020019092919050505061100d565b005b610412600480360360208110156103fc57600080fd5b8101908080359060200190929190505050611017565b005b61041c611214565b6040518082815260200191505060405180910390f35b61045e6004803603602081101561044857600080fd5b810190808035906020019092919050505061121a565b6040518082815260200191505060405180910390f35b6104a06004803603602081101561048a57600080fd5b81019080803590602001909291905050506112b5565b6040518082815260200191505060405180910390f35b61056c600480360360208110156104cc57600080fd5b81019080803590602001906401000000008111156104e957600080fd5b8201836020820111156104fb57600080fd5b8035906020019184602083028401116401000000008311171561051d57600080fd5b919080806020026020016040519081016040528093929190818152602001838360200280828437600081840152601f19601f82011690508083019250505050505050919291929050505061130b565b005b6105ba6004803603604081101561058457600080fd5b8101908080359060200190929190803573ffffffffffffffffffffffffffffffffffffffff169060200190929190505050611347565b6040518082815260200191505060405180910390f35b6105fc600480360360208110156105e657600080fd5b8101908080359060200190929190505050611480565b005b61062a6004803603602081101561061457600080fd5b8101908080359060200190929190505050611606565b6040518082815260200191505060405180910390f35b61064861161e565b005b610652611757565b6040518082815260200191505060405180910390f35b61067061175d565b6040518082815260200191505060405180910390f35b61068e611763565b604051808273ffffffffffffffffffffffffffffffffffffffff1673ffffffffffffffffffffffffffffffffffffffff16815260200191505060405180910390f35b6106fc600480360360208110156106e657600080fd5b8101908080359060200190929190505050611789565b005b6107546004803603606081101561071457600080fd5b81019080803573ffffffffffffffffffffffffffffffffffffffff169060200190929190803590602001909291908035906020019092919050505061190f565b005b61075e611a48565b604051808273ffffffffffffffffffffffffffffffffffffffff1673ffffffffffffffffffffffffffffffffffffffff16815260200191505060405180910390f35b6107a8611a71565b604051808215151515815260200191505060405180910390f35b6108c5600480360360808110156107d857600080fd5b81019080803573ffffffffffffffffffffffffffffffffffffffff16906020019092919080359060200190929190803573ffffffffffffffffffffffffffffffffffffffff1690602001909291908035906020019064010000000081111561083f57600080fd5b82018360208201111561085157600080fd5b8035906020019184600183028401116401000000008311171561087357600080fd5b91908080601f016020809104026020016040519081016040528093929190818152602001838380828437600081840152601f19601f820116905080830192505050505050509192919290505050611ac8565b005b6108f3600480360360208110156108dd57600080fd5b8101908080359060200190929190505050611d8d565b6040518082815260200191505060405180910390f35b610911611dae565b6040518082815260200191505060405180910390f35b61092f611db4565b6040518082815260200191505060405180910390f35b6109716004803603602081101561095b57600080fd5b8101908080359060200190929190505050611dba565b604051808215151515815260200191505060405180910390f35b610a41600480360360208110156109a157600080fd5b81019080803590602001906401000000008111156109be57600080fd5b8201836020820111156109d057600080fd5b803590602001918460208302840111640100000000831117156109f257600080fd5b919080806020026020016040519081016040528093929190818152602001838360200280828437600081840152601f19601f820116905080830192505050505050509192919290505050611ddd565b005b610a6f60048036036020811015610a5957600080fd5b8101908080359060200190929190505050611e19565b6040518082815260200191505060405180910390f35b610ab160048036036020811015610a9b57600080fd5b8101908080359060200190929190505050611e45565b6040518082815260200191505060405180910390f35b610af360048036036020811015610add57600080fd5b8101908080359060200190929190505050611ea2565b6040518082815260200191505060405180910390f35b610b3560048036036020811015610b1f57600080fd5b8101908080359060200190929190505050611ed4565b6040518082815260200191505060405180910390f35b610b53611ef9565b6040518082815260200191505060405180910390f35b610bab60048036036020811015610b7f57600080fd5b81019080803573ffffffffffffffffffffffffffffffffffffffff169060200190929190505050611eff565b005b610bd960048036036020811015610bc357600080fd5b8101908080359060200190929190505050612049565b604051808215151515815260200191505060405180910390f35b610bfb612073565b6040518082815260200191505060405180910390f35b610c19612079565b6040518082815260200191505060405180910390f35b610c3761207f565b005b610c6560048036036020811015610c4f57600080fd5b8101908080359060200190929190505050612492565b604051808215151515815260200191505060405180910390f35b610cc160048036036020811015610c9557600080fd5b81019080803573ffffffffffffffffffffffffffffffffffffffff1690602001909291905050506124a7565b005b610d0f60048036036040811015610cd957600080fd5b8101908080359060200190929190803573ffffffffffffffffffffffffffffffffffffffff16906020019092919050505061252d565b005b610d196127eb565b604051808215151515815260200191505060405180910390f35b610d7f60048036036040811015610d4957600080fd5b8101908080359060200190929190803573ffffffffffffffffffffffffffffffffffffffff1690602001909291905050506127fe565b6040518082815260200191505060405180910390f35b610d9d6129a5565b604051808273ffffffffffffffffffffffffffffffffffffffff1673ffffffffffffffffffffffffffffffffffffffff16815260200191505060405180910390f35b6000806009805490509050808310915050919050565b610dfd611a71565b610e6f576040517f08c379a00000000000000000000000000000000000000000000000000000000081526004018080602001828103825260208152602001807f4f776e61626c653a2063616c6c6572206973206e6f7420746865206f776e657281525060200191505060405180910390fd5b6001600d60006101000a81548160ff021916908315150217905550565b60055481565b600080601660009054906101000a900473ffffffffffffffffffffffffffffffffffffffff1673ffffffffffffffffffffffffffffffffffffffff1663ba7bffd3846040518263ffffffff1660e01b8152600401808273ffffffffffffffffffffffffffffffffffffffff1673ffffffffffffffffffffffffffffffffffffffff16815260200191505060206040518083038186803b158015610f3457600080fd5b505afa158015610f48573d6000803e3d6000fd5b505050506040513d6020811015610f5e57600080fd5b81019080805190602001909291905050509050601360008273ffffffffffffffffffffffffffffffffffffffff1673ffffffffffffffffffffffffffffffffffffffff16815260200190815260200160002060008581526020019081526020016000205491505092915050565b6000610fd6826129cb565b8015610fe75750610fe682612b37565b5b8015610ff95750610ff782612049565b155b9050919050565b6000600280549050905090565b8060118190555050565b8061102181612492565b611093576040517f08c379a00000000000000000000000000000000000000000000000000000000081526004018080602001828103825260198152602001807f496e74657276616c206861736e277420656e646564207965740000000000000081525060200191505060405180910390fd5b600d60009054906101000a900460ff16611115576040517f08c379a00000000000000000000000000000000000000000000000000000000081526004018080602001828103825260208152602001807f436f6e747261637420686173206e6f74206265656e2066756e6465642079657481525060200191505060405180910390fd5b6000600980549050905080831015611195576040517f08c379a000000000000000000000000000000000000000000000000000000000815260040180806020018281038252601a8152602001807f496e74657276616c20616c726561647920616c6c6f636174656400000000000081525060200191505060405180910390fd5b808311156111ba576111b96111b4600185612c4690919063ffffffff16565b611017565b5b60006111c584612ccf565b90506111dc81600654612c4690919063ffffffff16565b600681905550600981908060018154018082558091505090600182039060005260206000200160009091929091909150555050505050565b60065481565b60006009805490508210611296576040517f08c379a000000000000000000000000000000000000000000000000000000000815260040180806020018281038252601a8152602001807f496e74657276616c206e6f7420616c6c6f63617465642079657400000000000081525060200191505060405180910390fd5b600982815481106112a357fe5b90600052602060002001549050919050565b60006002805490508210156112e357600282815481106112d157fe5b90600052602060002001549050611306565b6002600160028054905003815481106112f857fe5b906000526020600020015490505b919050565b60008090505b81518110156113435761133682828151811061132957fe5b6020026020010151611480565b8080600101915050611311565b5050565b600080601660009054906101000a900473ffffffffffffffffffffffffffffffffffffffff1673ffffffffffffffffffffffffffffffffffffffff1663ba7bffd3846040518263ffffffff1660e01b8152600401808273ffffffffffffffffffffffffffffffffffffffff1673ffffffffffffffffffffffffffffffffffffffff16815260200191505060206040518083038186803b1580156113e957600080fd5b505afa1580156113fd573d6000803e3d6000fd5b505050506040513d602081101561141357600080fd5b81019080805190602001909291905050509050601460008273ffffffffffffffffffffffffffffffffffffffff1673ffffffffffffffffffffffffffffffffffffffff16815260200190815260200160002060008581526020019081526020016000205491505092915050565b8061148a816129cb565b6114fc576040517f08c379a000000000000000000000000000000000000000000000000000000000815260040180806020018281038252601e8152602001807f4b656570206e6f74207265636f676e697a656420627920666163746f7279000081525060200191505060405180910390fd5b8161150681612049565b15611579576040517f08c379a00000000000000000000000000000000000000000000000000000000081526004018080602001828103825260178152602001807f5265776172647320616c726561647920636c61696d656400000000000000000081525060200191505060405180910390fd5b8261158381612b37565b6115f5576040517f08c379a00000000000000000000000000000000000000000000000000000000081526004018080602001828103825260128152602001807f4b656570206973206e6f7420636c6f736564000000000000000000000000000081525060200191505060405180910390fd5b611600600185612d52565b50505050565b600c6020528060005260406000206000915090505481565b611626611a71565b611698576040517f08c379a00000000000000000000000000000000000000000000000000000000081526004018080602001828103825260208152602001807f4f776e61626c653a2063616c6c6572206973206e6f7420746865206f776e657281525060200191505060405180910390fd5b600073ffffffffffffffffffffffffffffffffffffffff166000809054906101000a900473ffffffffffffffffffffffffffffffffffffffff1673ffffffffffffffffffffffffffffffffffffffff167f8be0079c531659141344cd1fd0a4f28419497f9722a3daafe3b4186f6b6457e060405160405180910390a360008060006101000a81548173ffffffffffffffffffffffffffffffffffffffff021916908373ffffffffffffffffffffffffffffffffffffffff160217905550565b60115481565b60035481565b601060009054906101000a900473ffffffffffffffffffffffffffffffffffffffff1681565b80611793816129cb565b611805576040517f08c379a000000000000000000000000000000000000000000000000000000000815260040180806020018281038252601e8152602001807f4b656570206e6f74207265636f676e697a656420627920666163746f7279000081525060200191505060405180910390fd5b8161180f81612049565b15611882576040517f08c379a00000000000000000000000000000000000000000000000000000000081526004018080602001828103825260178152602001807f5265776172647320616c726561647920636c61696d656400000000000000000081525060200191505060405180910390fd5b8261188c81612eaf565b6118fe576040517f08c379a00000000000000000000000000000000000000000000000000000000081526004018080602001828103825260168152602001807f4b656570206973206e6f74207465726d696e617465640000000000000000000081525060200191505060405180910390fd5b611909600085612d52565b50505050565b6000601660009054906101000a900473ffffffffffffffffffffffffffffffffffffffff1673ffffffffffffffffffffffffffffffffffffffff1663ba7bffd3856040518263ffffffff1660e01b8152600401808273ffffffffffffffffffffffffffffffffffffffff1673ffffffffffffffffffffffffffffffffffffffff16815260200191505060206040518083038186803b1580156119b057600080fd5b505afa1580156119c4573d6000803e3d6000fd5b505050506040513d60208110156119da57600080fd5b8101908080519060200190929190505050905081601360008373ffffffffffffffffffffffffffffffffffffffff1673ffffffffffffffffffffffffffffffffffffffff16815260200190815260200160002060008581526020019081526020016000208190555050505050565b60008060009054906101000a900473ffffffffffffffffffffffffffffffffffffffff16905090565b60008060009054906101000a900473ffffffffffffffffffffffffffffffffffffffff1673ffffffffffffffffffffffffffffffffffffffff163373ffffffffffffffffffffffffffffffffffffffff1614905090565b600160009054906101000a900473ffffffffffffffffffffffffffffffffffffffff1673ffffffffffffffffffffffffffffffffffffffff168273ffffffffffffffffffffffffffffffffffffffff1614611b8b576040517f08c379a00000000000000000000000000000000000000000000000000000000081526004018080602001828103825260118152602001807f556e737570706f7274656420746f6b656e00000000000000000000000000000081525060200191505060405180910390fd5b611bda843085600160009054906101000a900473ffffffffffffffffffffffffffffffffffffffff1673ffffffffffffffffffffffffffffffffffffffff16612fbe909392919063ffffffff16565b6000600160009054906101000a900473ffffffffffffffffffffffffffffffffffffffff1673ffffffffffffffffffffffffffffffffffffffff166370a08231306040518263ffffffff1660e01b8152600401808273ffffffffffffffffffffffffffffffffffffffff1673ffffffffffffffffffffffffffffffffffffffff16815260200191505060206040518083038186803b158015611c7b57600080fd5b505afa158015611c8f573d6000803e3d6000fd5b505050506040513d6020811015611ca557600080fd5b810190808051906020019092919050505090506000611cd1600754600554612c4690919063ffffffff16565b905080821015611d49576040517f08c379a000000000000000000000000000000000000000000000000000000000815260040180806020018281038252601f8152602001807f52657761726420636f6e747261637420686173206c6f737420746f6b656e730081525060200191505060405180910390fd5b6000611d5e8284612c4690919063ffffffff16565b9050611d75816005546130c490919063ffffffff16565b600581905550611d848161314c565b50505050505050565b60028181548110611d9a57fe5b906000526020600020016000915090505481565b600e5481565b60085481565b6000611dc5826129cb565b8015611dd65750611dd582612eaf565b5b9050919050565b60008090505b8151811015611e1557611e08828281518110611dfb57fe5b6020026020010151611789565b8080600101915050611de3565b5050565b6000611e3e611e2783613322565b611e3084613359565b612c4690919063ffffffff16565b9050919050565b60008060085490506000600354905081841015611e6757600092505050611e9d565b6000611e7c8386612c4690919063ffffffff16565b90506000611e93838361344590919063ffffffff16565b9050809450505050505b919050565b6000611ecd611ebc600354846134d490919063ffffffff16565b6008546130c490919063ffffffff16565b9050919050565b6000611ef2611eed6001846130c490919063ffffffff16565b611ea2565b9050919050565b60045481565b611f07611a71565b611f79576040517f08c379a00000000000000000000000000000000000000000000000000000000081526004018080602001828103825260208152602001807f4f776e61626c653a2063616c6c6572206973206e6f7420746865206f776e657281525060200191505060405180910390fd5b42600e8190555080601060006101000a81548173ffffffffffffffffffffffffffffffffffffffff021916908373ffffffffffffffffffffffffffffffffffffffff1602179055507f4508cb0974b8dda93dec7c130aa186db2705fcee58bc00d1334726761835aca1601060009054906101000a900473ffffffffffffffffffffffffffffffffffffffff16604051808273ffffffffffffffffffffffffffffffffffffffff1673ffffffffffffffffffffffffffffffffffffffff16815260200191505060405180910390a150565b6000600a600083815260200190815260200160002060009054906101000a900460ff169050919050565b600f5481565b60075481565b612087611a71565b6120f9576040517f08c379a00000000000000000000000000000000000000000000000000000000081526004018080602001828103825260208152602001807f4f776e61626c653a2063616c6c6572206973206e6f7420746865206f776e657281525060200191505060405180910390fd5b6000600e541415612172576040517f08c379a00000000000000000000000000000000000000000000000000000000081526004018080602001828103825260158152602001807f55706772616465206e6f7420696e69746961746564000000000000000000000081525060200191505060405180910390fd5b600061217d42611e45565b9050600061218c600e54611e45565b90508082116121e6576040517f08c379a000000000000000000000000000000000000000000000000000000000815260040180806020018281038252603c8152602001806144c6603c913960400191505060405180910390fd5b6122026121fd600184612c4690919063ffffffff16565b610ddf565b6122235761222261221d600184612c4690919063ffffffff16565b611017565b5b6000600654905061223f81600554612c4690919063ffffffff16565b60058190555060006006819055507f89f5b857dbf5a32a4fa55162349dc1146850c9b76ff05bedf3a47b3f14095c0a816040518082815260200191505060405180910390a16000600160009054906101000a900473ffffffffffffffffffffffffffffffffffffffff1673ffffffffffffffffffffffffffffffffffffffff1663cae9ca51601060009054906101000a900473ffffffffffffffffffffffffffffffffffffffff1684604051806020016040528060008152506040518463ffffffff1660e01b8152600401808473ffffffffffffffffffffffffffffffffffffffff1673ffffffffffffffffffffffffffffffffffffffff16815260200183815260200180602001828103825283818151815260200191508051906020019080838360005b8381101561237f578082015181840152602081019050612364565b50505050905090810190601f1680156123ac5780820380516001836020036101000a031916815260200191505b50945050505050602060405180830381600087803b1580156123cd57600080fd5b505af11580156123e1573d6000803e3d6000fd5b505050506040513d60208110156123f757600080fd5b810190808051906020019092919050505090508061247d576040517f08c379a000000000000000000000000000000000000000000000000000000000815260040180806020018281038252601b8152602001807f557067726164652066696e616c697a6174696f6e206661696c6564000000000081525060200191505060405180910390fd5b6000600e8190555042600f8190555050505050565b600061249d82611ed4565b4210159050919050565b6124af611a71565b612521576040517f08c379a00000000000000000000000000000000000000000000000000000000081526004018080602001828103825260208152602001807f4f776e61626c653a2063616c6c6572206973206e6f7420746865206f776e657281525060200191505060405180910390fd5b61252a8161355a565b50565b6000601660009054906101000a900473ffffffffffffffffffffffffffffffffffffffff1673ffffffffffffffffffffffffffffffffffffffff1663ba7bffd3836040518263ffffffff1660e01b8152600401808273ffffffffffffffffffffffffffffffffffffffff1673ffffffffffffffffffffffffffffffffffffffff16815260200191505060206040518083038186803b1580156125ce57600080fd5b505afa1580156125e2573d6000803e3d6000fd5b505050506040513d60208110156125f857600080fd5b810190808051906020019092919050505090506000601360008373ffffffffffffffffffffffffffffffffffffffff1673ffffffffffffffffffffffffffffffffffffffff16815260200190815260200160002060008581526020019081526020016000205490506000601460008473ffffffffffffffffffffffffffffffffffffffff1673ffffffffffffffffffffffffffffffffffffffff168152602001908152602001600020600086815260200190815260200160002054905080821161272a576040517f08c379a00000000000000000000000000000000000000000000000000000000081526004018080602001828103825260168152602001807f4e6f207265776172647320746f2077697468647261770000000000000000000081525060200191505060405180910390fd5b600061273f8284612c4690919063ffffffff16565b905082601460008673ffffffffffffffffffffffffffffffffffffffff1673ffffffffffffffffffffffffffffffffffffffff1681526020019081526020016000206000888152602001908152602001600020819055506127e38482600160009054906101000a900473ffffffffffffffffffffffffffffffffffffffff1673ffffffffffffffffffffffffffffffffffffffff1661369e9092919063ffffffff16565b505050505050565b600d60009054906101000a900460ff1681565b600080601660009054906101000a900473ffffffffffffffffffffffffffffffffffffffff1673ffffffffffffffffffffffffffffffffffffffff1663ba7bffd3846040518263ffffffff1660e01b8152600401808273ffffffffffffffffffffffffffffffffffffffff1673ffffffffffffffffffffffffffffffffffffffff16815260200191505060206040518083038186803b1580156128a057600080fd5b505afa1580156128b4573d6000803e3d6000fd5b505050506040513d60208110156128ca57600080fd5b810190808051906020019092919050505090506000601360008373ffffffffffffffffffffffffffffffffffffffff1673ffffffffffffffffffffffffffffffffffffffff16815260200190815260200160002060008681526020019081526020016000205490506000601460008473ffffffffffffffffffffffffffffffffffffffff1673ffffffffffffffffffffffffffffffffffffffff168152602001908152602001600020600087815260200190815260200160002054905061299a8183612c4690919063ffffffff16565b935050505092915050565b600160009054906101000a900473ffffffffffffffffffffffffffffffffffffffff1681565b6000816129d78161376f565b612a49576040517f08c379a00000000000000000000000000000000000000000000000000000000081526004018080602001828103825260148152602001807f496e76616c6964206b656570206164647265737300000000000000000000000081525060200191505060405180910390fd5b6000601560009054906101000a900473ffffffffffffffffffffffffffffffffffffffff1673ffffffffffffffffffffffffffffffffffffffff1663d14fede1612a928661378b565b6040518263ffffffff1660e01b8152600401808273ffffffffffffffffffffffffffffffffffffffff1673ffffffffffffffffffffffffffffffffffffffff16815260200191505060206040518083038186803b158015612af257600080fd5b505afa158015612b06573d6000803e3d6000fd5b505050506040513d6020811015612b1c57600080fd5b81019080805190602001909291905050501415915050919050565b600081612b438161376f565b612bb5576040517f08c379a00000000000000000000000000000000000000000000000000000000081526004018080602001828103825260148152602001807f496e76616c6964206b656570206164647265737300000000000000000000000081525060200191505060405180910390fd5b612bbe8361378b565b73ffffffffffffffffffffffffffffffffffffffff1663c2b6b58c6040518163ffffffff1660e01b815260040160206040518083038186803b158015612c0357600080fd5b505afa158015612c17573d6000803e3d6000fd5b505050506040513d6020811015612c2d57600080fd5b8101908080519060200190929190505050915050919050565b600082821115612cbe576040517f08c379a000000000000000000000000000000000000000000000000000000000815260040180806020018281038252601e8152602001807f536166654d6174683a207375627472616374696f6e206f766572666c6f77000081525060200191505060405180910390fd5b600082840390508091505092915050565b600080612cdb83613798565b90506000811415612cf0576000915050612d4d565b6000612cfb84611e19565b90506000612d0b826004546137dc565b90506000811415612d225760009350505050612d4d565b612d4781612d3984866134d490919063ffffffff16565b61344590919063ffffffff16565b93505050505b919050565b6000612d5d826137f6565b90506000612d6a82611e45565b9050612d7581610ddf565b612d8357612d8281611017565b5b600060098281548110612d9257fe5b906000526020600020015490506000612daa83611e19565b90506000612dc1828461344590919063ffffffff16565b90506001600a600088815260200190815260200160002060006101000a81548160ff021916908315150217905550612e166001600c6000878152602001908152602001600020546130c490919063ffffffff16565b600c6000868152602001908152602001600020819055508615612e9c57612e48816007546130c490919063ffffffff16565b600781905550612e58868261395e565b7ff8fcbb083cc485f0dc726d4235dbec7c9c5c03af58254f3536275035772161708682604051808381526020018281526020019250505060405180910390a1612ea6565b612ea58161314c565b5b50505050505050565b600081612ebb8161376f565b612f2d576040517f08c379a00000000000000000000000000000000000000000000000000000000081526004018080602001828103825260148152602001807f496e76616c6964206b656570206164647265737300000000000000000000000081525060200191505060405180910390fd5b612f368361378b565b73ffffffffffffffffffffffffffffffffffffffff1663d1cc99766040518163ffffffff1660e01b815260040160206040518083038186803b158015612f7b57600080fd5b505afa158015612f8f573d6000803e3d6000fd5b505050506040513d6020811015612fa557600080fd5b8101908080519060200190929190505050915050919050565b6130be848573ffffffffffffffffffffffffffffffffffffffff166323b872dd905060e01b858585604051602401808473ffffffffffffffffffffffffffffffffffffffff1673ffffffffffffffffffffffffffffffffffffffff1681526020018373ffffffffffffffffffffffffffffffffffffffff1673ffffffffffffffffffffffffffffffffffffffff1681526020018281526020019350505050604051602081830303815290604052907bffffffffffffffffffffffffffffffffffffffffffffffffffffffff19166020820180517bffffffffffffffffffffffffffffffffffffffffffffffffffffffff8381831617835250505050613e0c565b50505050565b600080828401905083811015613142576040517f08c379a000000000000000000000000000000000000000000000000000000000815260040180806020018281038252601b8152602001807f536166654d6174683a206164646974696f6e206f766572666c6f77000000000081525060200191505060405180910390fd5b8091505092915050565b6000600f5414613303576000600160009054906101000a900473ffffffffffffffffffffffffffffffffffffffff1673ffffffffffffffffffffffffffffffffffffffff1663cae9ca51601060009054906101000a900473ffffffffffffffffffffffffffffffffffffffff1684604051806020016040528060008152506040518463ffffffff1660e01b8152600401808473ffffffffffffffffffffffffffffffffffffffff1673ffffffffffffffffffffffffffffffffffffffff16815260200183815260200180602001828103825283818151815260200191508051906020019080838360005b83811015613251578082015181840152602081019050613236565b50505050905090810190601f16801561327e5780820380516001836020036101000a031916815260200191505b50945050505050602060405180830381600087803b15801561329f57600080fd5b505af11580156132b3573d6000803e3d6000fd5b505050506040513d60208110156132c957600080fd5b81019080805190602001909291905050509050806132fd576132f6826006546130c490919063ffffffff16565b6006819055505b5061331f565b613318816006546130c490919063ffffffff16565b6006819055505b50565b6000808214156133355760009050613354565b61335161334c600184612c4690919063ffffffff16565b613359565b90505b919050565b60008161336581612492565b6133d7576040517f08c379a00000000000000000000000000000000000000000000000000000000081526004018080602001828103825260198152602001807f496e74657276616c206861736e277420656e646564207965740000000000000081525060200191505060405180910390fd5b6000600b6000858152602001908152602001600020549050600081141561343757600061340b61340686611ed4565b614057565b90506000811461342e5780600b6000878152602001908152602001600020819055505b8093505061343b565b8092505b8292505050919050565b60008082116134bc576040517f08c379a000000000000000000000000000000000000000000000000000000000815260040180806020018281038252601a8152602001807f536166654d6174683a206469766973696f6e206279207a65726f00000000000081525060200191505060405180910390fd5b60008284816134c757fe5b0490508091505092915050565b6000808314156134e75760009050613554565b60008284029050828482816134f857fe5b041461354f576040517f08c379a000000000000000000000000000000000000000000000000000000000815260040180806020018281038252602181526020018061447b6021913960400191505060405180910390fd5b809150505b92915050565b600073ffffffffffffffffffffffffffffffffffffffff168173ffffffffffffffffffffffffffffffffffffffff1614156135e0576040517f08c379a00000000000000000000000000000000000000000000000000000000081526004018080602001828103825260268152602001806144556026913960400191505060405180910390fd5b8073ffffffffffffffffffffffffffffffffffffffff166000809054906101000a900473ffffffffffffffffffffffffffffffffffffffff1673ffffffffffffffffffffffffffffffffffffffff167f8be0079c531659141344cd1fd0a4f28419497f9722a3daafe3b4186f6b6457e060405160405180910390a3806000806101000a81548173ffffffffffffffffffffffffffffffffffffffff021916908373ffffffffffffffffffffffffffffffffffffffff16021790555050565b61376a838473ffffffffffffffffffffffffffffffffffffffff1663a9059cbb905060e01b8484604051602401808373ffffffffffffffffffffffffffffffffffffffff1673ffffffffffffffffffffffffffffffffffffffff16815260200182815260200192505050604051602081830303815290604052907bffffffffffffffffffffffffffffffffffffffffffffffffffffffff19166020820180517bffffffffffffffffffffffffffffffffffffffffffffffffffffffff8381831617835250505050613e0c565b505050565b60008161378361377e8461378b565b614177565b149050919050565b60008160601c9050919050565b600080600654905060006137ab846112b5565b90506137d360646137c583856134d490919063ffffffff16565b61344590919063ffffffff16565b92505050919050565b6000818310156137ec57816137ee565b825b905092915050565b6000816138028161376f565b613874576040517f08c379a00000000000000000000000000000000000000000000000000000000081526004018080602001828103825260148152602001807f496e76616c6964206b656570206164647265737300000000000000000000000081525060200191505060405180910390fd5b601560009054906101000a900473ffffffffffffffffffffffffffffffffffffffff1673ffffffffffffffffffffffffffffffffffffffff1663d14fede16138bb8561378b565b6040518263ffffffff1660e01b8152600401808273ffffffffffffffffffffffffffffffffffffffff1673ffffffffffffffffffffffffffffffffffffffff16815260200191505060206040518083038186803b15801561391b57600080fd5b505afa15801561392f573d6000803e3d6000fd5b505050506040513d602081101561394557600080fd5b8101908080519060200190929190505050915050919050565b816139688161376f565b6139da576040517f08c379a00000000000000000000000000000000000000000000000000000000081526004018080602001828103825260148152602001807f496e76616c6964206b656570206164647265737300000000000000000000000081525060200191505060405180910390fd5b60606139e58461378b565b73ffffffffffffffffffffffffffffffffffffffff16639eab52536040518163ffffffff1660e01b815260040160006040518083038186803b158015613a2a57600080fd5b505afa158015613a3e573d6000803e3d6000fd5b505050506040513d6000823e3d601f19601f820116820180604052506020811015613a6857600080fd5b8101908080516040519392919084640100000000821115613a8857600080fd5b83820191506020820185811115613a9e57600080fd5b8251866020820283011164010000000082111715613abb57600080fd5b8083526020830192505050908051906020019060200280838360005b83811015613af2578082015181840152602081019050613ad7565b5050505090500160405250505090506000613b14613b0f866137f6565b611e45565b90506000825190506000613b31828761344590919063ffffffff16565b90506000613b48838861419390919063ffffffff16565b9050606083604051908082528060200260200182016040528015613b7b5781602001602082028038833980820191505090505b50905060008090505b60018503811015613bb55783828281518110613b9c57fe5b6020026020010181815250508080600101915050613b84565b50613bc982846130c490919063ffffffff16565b816001860381518110613bd857fe5b60200260200101818152505060008090505b84811015613e00576000601660009054906101000a900473ffffffffffffffffffffffffffffffffffffffff1673ffffffffffffffffffffffffffffffffffffffff1663ba7bffd3898481518110613c3e57fe5b60200260200101516040518263ffffffff1660e01b8152600401808273ffffffffffffffffffffffffffffffffffffffff1673ffffffffffffffffffffffffffffffffffffffff16815260200191505060206040518083038186803b158015613ca657600080fd5b505afa158015613cba573d6000803e3d6000fd5b505050506040513d6020811015613cd057600080fd5b810190808051906020019092919050505090506000838381518110613cf157fe5b602002602001015190506000601360008473ffffffffffffffffffffffffffffffffffffffff1673ffffffffffffffffffffffffffffffffffffffff16815260200190815260200160002060008a81526020019081526020016000205490506000613d6583836130c490919063ffffffff16565b9050601154811115613d9a576000613d8860115483612c4690919063ffffffff16565b90506011549150613d988161314c565b505b80601360008673ffffffffffffffffffffffffffffffffffffffff1673ffffffffffffffffffffffffffffffffffffffff16815260200190815260200160002060008c815260200190815260200160002081905550505050508080600101915050613bea565b50505050505050505050565b613e2b8273ffffffffffffffffffffffffffffffffffffffff1661421d565b613e9d576040517f08c379a000000000000000000000000000000000000000000000000000000000815260040180806020018281038252601f8152602001807f5361666545524332303a2063616c6c20746f206e6f6e2d636f6e74726163740081525060200191505060405180910390fd5b600060608373ffffffffffffffffffffffffffffffffffffffff16836040518082805190602001908083835b60208310613eec5780518252602082019150602081019050602083039250613ec9565b6001836020036101000a0380198251168184511680821785525050505050509050019150506000604051808303816000865af19150503d8060008114613f4e576040519150601f19603f3d011682016040523d82523d6000602084013e613f53565b606091505b509150915081613fcb576040517f08c379a00000000000000000000000000000000000000000000000000000000081526004018080602001828103825260208152602001807f5361666545524332303a206c6f772d6c6576656c2063616c6c206661696c656481525060200191505060405180910390fd5b60008151111561405157808060200190516020811015613fea57600080fd5b8101908080519060200190929190505050614050576040517f08c379a000000000000000000000000000000000000000000000000000000000815260040180806020018281038252602a81526020018061449c602a913960400191505060405180910390fd5b5b50505050565b6000428211156140cf576040517f08c379a00000000000000000000000000000000000000000000000000000000081526004018080602001828103825260198152602001807f696e74657276616c206861736e277420656e646564207965740000000000000081525060200191505060405180910390fd5b60006140d9614230565b905060008114156140ee576000915050614172565b60008090506000614106614101836142da565b6137f6565b905084811061411b5760009350505050614172565b6000614131600185612c4690919063ffffffff16565b90506000614146614141836142da565b6137f6565b90508681101561415d578495505050505050614172565b61416a848484848b614399565b955050505050505b919050565b60008160601b6bffffffffffffffffffffffff19169050919050565b60008082141561420b576040517f08c379a00000000000000000000000000000000000000000000000000000000081526004018080602001828103825260188152602001807f536166654d6174683a206d6f64756c6f206279207a65726f000000000000000081525060200191505060405180910390fd5b81838161421457fe5b06905092915050565b600080823b905060008111915050919050565b6000601560009054906101000a900473ffffffffffffffffffffffffffffffffffffffff1673ffffffffffffffffffffffffffffffffffffffff1663b2dc75936040518163ffffffff1660e01b815260040160206040518083038186803b15801561429a57600080fd5b505afa1580156142ae573d6000803e3d6000fd5b505050506040513d60208110156142c457600080fd5b8101908080519060200190929190505050905090565b6000614392601560009054906101000a900473ffffffffffffffffffffffffffffffffffffffff1673ffffffffffffffffffffffffffffffffffffffff1663202bb9f0846040518263ffffffff1660e01b81526004018082815260200191505060206040518083038186803b15801561435257600080fd5b505afa158015614366573d6000803e3d6000fd5b505050506040513d602081101561437c57600080fd5b8101908080519060200190929190505050614177565b9050919050565b60008086905060008690506000869050600086905060006143c38584612c4690919063ffffffff16565b90505b60018111156144435760006143f76143e860028461344590919063ffffffff16565b876130c490919063ffffffff16565b9050600061440c614407836142da565b6137f6565b905088811061442057819450809350614427565b8196508095505b61443a8786612c4690919063ffffffff16565b925050506143c6565b82955050505050509594505050505056fe4f776e61626c653a206e6577206f776e657220697320746865207a65726f2061646472657373536166654d6174683a206d756c7469706c69636174696f6e206f766572666c6f775361666545524332303a204552433230206f7065726174696f6e20646964206e6f742073756363656564496e74657276616c2061742077686963682074686520757067726164652077617320696e69746961746564206861736e277420656e64656420796574a265627a7a72315820be5106055945aaf46de10204e54850607d91fbcc5630a36a1e2acd78e1541a5c64736f6c63430005110032",
  "source": "pragma solidity 0.5.17;\n\nimport \"../../contracts/ECDSARewards.sol\";\n\n/// @title ECDSA Rewards Stub for ecdsa rewards testing\n/// @dev This contract is for testing purposes only.\ncontract ECDSARewardsStub is ECDSARewards {\n\n    constructor(\n        address _token,\n        address payable _factoryAddress,\n        address _tokenStakingAddress\n    )\n        public\n        ECDSARewards(\n            _token,\n            _factoryAddress,\n            _tokenStakingAddress\n        )\n    {}\n\n    function setBeneficiaryRewardCap(uint256 _beneficiaryRewardCap) public {\n        beneficiaryRewardCap = _beneficiaryRewardCap;\n    }\n\n    function allocateReward(address operator, uint256 interval, uint256 amount) public {\n        address beneficiary = tokenStaking.beneficiaryOf(operator);\n        allocatedRewards[beneficiary][interval] = amount;\n    }\n}\n",
  "sourcePath": "/home/kowal/Projects/sovryn/keep-ecdsa/solidity/contracts/test/ECDSARewardsStub.sol",
  "compiler": {
    "name": "solc",
    "version": "0.5.17+commit.d19bba13.Emscripten.clang"
  },
  "schemaVersion": "3.0.22",
  "updatedAt": "2021-01-29T17:36:47.968Z",
  "devdoc": {
    "details": "This contract is for testing purposes only.",
    "methods": {
      "allocateRewards(uint256)": {
        "details": "The given interval must be finished and unallocated. To allocate rewards correctly, any earlier intervals that are still unallocated will be allocated before the given interval. With reasonable interval lengths this should not pose a problem, and if allocating a later interval results in an out-of-gas issue, forcing the allocation of an earlier interval should fix it.",
        "params": {
          "interval": "The interval to allocate."
        }
      },
      "eligibleButTerminated(bytes32)": {
        "params": {
          "_keep": "The keep to check."
        },
        "return": "True if the keep is terminated, false otherwise"
      },
      "eligibleForReward(bytes32)": {
        "details": "Keeps that close dishonorably or early are not eligible for rewards.",
        "params": {
          "_keep": "The keep to check."
        },
        "return": "True if the keep is eligible, false otherwise"
      },
      "endOf(uint256)": {
        "details": "The end of an interval is exclusive; a keep created at the timestamp `endOf(i)` is in interval `i+1`.",
        "params": {
          "interval": "The interval whose end is queried."
        },
        "return": "The end timestamp of the interval."
      },
      "getAllocatedRewards(uint256)": {
        "details": "This function returns correct results for any allocated interval. Dividing the allocated rewards by the number of keeps in the interval will give the correct reward for a keep in the interval. However, if a keep in the interval is terminated its reward will be returned to the pool of unallocated tokens. This will not be reflected in the return value of this function.",
        "params": {
          "interval": "A previously allocated interval."
        },
        "return": "The total number of tokens allocated for keeps in the interval."
      },
      "getAllocatedRewards(uint256,address)": {
        "params": {
          "interval": "The interval",
          "operator": "The operator"
        },
        "return": "The amount allocated"
      },
      "getIntervalCount()": {
        "return": "The number of explicitly specified intervals."
      },
      "getIntervalWeight(uint256)": {
        "params": {
          "interval": "The interval."
        },
        "return": "The percentage weight of the interval."
      },
      "getWithdrawableRewards(uint256,address)": {
        "params": {
          "interval": "The interval",
          "operator": "The operator"
        },
        "return": "The amount withdrawable"
      },
      "getWithdrawnRewards(uint256,address)": {
        "params": {
          "interval": "The interval",
          "operator": "The operator"
        },
        "return": "The amount already withdrawn"
      },
      "initiateRewardsUpgrade(address)": {
        "params": {
          "_newRewardsContract": "The address of a new rewards contract."
        }
      },
      "intervalOf(uint256)": {
        "details": "If the timestamp is before `firstIntervalStart`, the interval is 0.",
        "params": {
          "timestamp": "The timestamp whose interval is queried."
        },
        "return": "The interval of the timestamp."
      },
      "isAllocated(uint256)": {
        "params": {
          "interval": "The interval."
        },
        "return": "Whether the interval has been allocated yet."
      },
      "isFinished(uint256)": {
        "params": {
          "interval": "The interval."
        },
        "return": "Whether the interval is finished."
      },
      "isOwner()": {
        "details": "Returns true if the caller is the current owner."
      },
      "keepsInInterval(uint256)": {
        "params": {
          "interval": "The interval."
        },
        "return": "Number of keeps created in the interval."
      },
      "owner()": {
        "details": "Returns the address of the current owner."
      },
      "receiveApproval(address,uint256,address,bytes)": {
        "details": "Adds the received amount of tokens to `totalRewards` and `unallocatedRewards`. May be called at any time, even after allocating some intervals. If the contract has been upgraded, the funding will be transferred to the new contract instead. Changes to `unallocatedRewards` will take effect on subsequent interval allocations. Intended to be used with `approveAndCall`. If the reward contract has received tokens outside `approveAndCall`, this collects them as well. The following invariant should hold right after calling this function: token.balanceOf(address(this)) == totalRewards.sub(dispensedRewards).",
        "params": {
          "_from": "The original sender of the tokens. Must have approved at least `_value` tokens for the rewards contract.",
          "_token": "The token to fund the rewards in. Must match the one specified in the rewards contract.",
          "_value": "The amount of tokens to fund."
        }
      },
      "receiveReward(bytes32)": {
        "params": {
          "keepIdentifier": "A unique identifier for the keep, e.g. address or number converted to a `bytes32`."
        }
      },
      "receiveRewards(bytes32[])": {
        "params": {
          "keepIdentifiers": "An array of keep identifiers."
        }
      },
      "renounceOwnership()": {
        "details": "Leaves the contract without owner. It will not be possible to call `onlyOwner` functions anymore. Can only be called by the current owner.     * > Note: Renouncing ownership will leave the contract without an owner, thereby removing any functionality that is only available to the owner."
      },
      "reportTermination(bytes32)": {
        "params": {
          "keepIdentifier": "The terminated keep."
        }
      },
      "reportTerminations(bytes32[])": {
        "params": {
          "keepIdentifiers": "An array of keep identifiers."
        }
      },
      "rewardClaimed(bytes32)": {
        "params": {
          "_keep": "The identifier of the keep."
        },
        "return": "True if rewards have been paid out for the keep, or its termination has been reported. False otherwise."
      },
      "startOf(uint256)": {
        "details": "The start of an interval is inclusive; a keep created at the timestamp `startOf(i)` is in interval `i`.",
        "params": {
          "interval": "The interval whose start is queried."
        },
        "return": "The start timestamp of the interval."
      },
      "transferOwnership(address)": {
        "details": "Transfers ownership of the contract to a new account (`newOwner`). Can only be called by the current owner."
      },
      "withdrawRewards(uint256,address)": {
        "params": {
          "interval": "The interval",
          "operator": "The operator"
        }
      }
    },
    "title": "ECDSA Rewards Stub for ecdsa rewards testing"
  },
  "userdoc": {
    "methods": {
      "allocateRewards(uint256)": {
        "notice": "Allocate rewards for unallocated intervals up to and including the given interval."
      },
      "eligibleButTerminated(bytes32)": {
        "notice": "Checks if a keep is terminated and thus its rewards can be returned to the unallocated pool."
      },
      "eligibleForReward(bytes32)": {
        "notice": "Checks if a keep is eligible to receive rewards."
      },
      "endOf(uint256)": {
        "notice": "Return the timestamp corresponding to the end of the interval."
      },
      "finalizeRewardsUpgrade()": {
        "notice": "Finalizes the process of upgrading to another rewards contract by allocating all past intervals and then, transferring the not-yet-allocated tokens to a new rewards contract. Can be called only when the interval during which the upgrade was initiated ended. Before finalizing the upgrade, make sure all terminated groups are reported."
      },
      "getAllocatedRewards(uint256)": {
        "notice": "Get the total amount of tokens allocated for all keeps in the specified interval."
      },
      "getAllocatedRewards(uint256,address)": {
        "notice": "Get the amount of rewards allocated for the specified operator's beneficiary in the specified interval."
      },
      "getIntervalCount()": {
        "notice": "Get the number of intervals with explicitly specified weights. All subsequent intervals will have an implicit weight of 100."
      },
      "getIntervalWeight(uint256)": {
        "notice": "Return the percentage of remaining unallocated rewards that is to be allocated to the specified interval."
      },
      "getWithdrawableRewards(uint256,address)": {
        "notice": "Get the amount of rewards withdrawable for the specified operator's beneficiary in the specified interval."
      },
      "getWithdrawnRewards(uint256,address)": {
        "notice": "Get the amount of rewards already withdrawn for the specified operator's beneficiary in the specified interval."
      },
      "initiateRewardsUpgrade(address)": {
        "notice": "Initiates the process of upgrading to another rewards contract."
      },
      "intervalOf(uint256)": {
        "notice": "Return the interval number the provided timestamp falls within."
      },
      "isAllocated(uint256)": {
        "notice": "Return whether the specified interval has been allocated."
      },
      "isFinished(uint256)": {
        "notice": "Return whether the given interval is finished."
      },
      "keepsInInterval(uint256)": {
        "notice": "Return the number of keeps created in the specified interval."
      },
      "receiveApproval(address,uint256,address,bytes)": {
        "notice": "Funds the rewards contract."
      },
      "receiveReward(bytes32)": {
        "notice": "Sends the reward for a keep to the keep members."
      },
      "receiveRewards(bytes32[])": {
        "notice": "Stakers can receive KEEP rewards from multiple keeps of their choice in one transaction to reduce total cost comparing to single calls for rewards. It is a caller responsibility to determine the cost and consumed gas when receiving rewards from multiple keeps."
      },
      "reportTermination(bytes32)": {
        "notice": "Report that the keep was terminated, and return its allocated rewards to the unallocated pool."
      },
      "reportTerminations(bytes32[])": {
        "notice": "Report about the terminated keeps in batch. All the allocated rewards in these keeps will be returned to the unallocated pool."
      },
      "rewardClaimed(bytes32)": {
        "notice": "Return whether the given keep has already claimed rewards or had its rewards reallocated due to termination."
      },
      "startOf(uint256)": {
        "notice": "Return the timestamp corresponding to the start of the interval."
      },
      "withdrawRewards(uint256,address)": {
        "notice": "Withdraw all available rewards for the given interval. The rewards will be paid to the beneficiary of the specified operator."
      }
    }
  }
}