{
  "contractName": "ECDSARewardsDistributor",
  "abi": [
    {
      "inputs": [
        {
          "internalType": "address",
          "name": "_token",
          "type": "address"
        },
        {
          "internalType": "address",
          "name": "_tokenStaking",
          "type": "address"
        }
      ],
      "payable": false,
      "stateMutability": "nonpayable",
      "type": "constructor"
    },
    {
      "anonymous": false,
      "inputs": [
        {
          "indexed": true,
          "internalType": "address",
          "name": "previousOwner",
          "type": "address"
        },
        {
          "indexed": true,
          "internalType": "address",
          "name": "newOwner",
          "type": "address"
        }
      ],
      "name": "OwnershipTransferred",
      "type": "event"
    },
    {
      "anonymous": false,
      "inputs": [
        {
          "indexed": false,
          "internalType": "bytes32",
          "name": "merkleRoot",
          "type": "bytes32"
        },
        {
          "indexed": false,
          "internalType": "uint256",
          "name": "amount",
          "type": "uint256"
        }
      ],
      "name": "RewardsAllocated",
      "type": "event"
    },
    {
      "anonymous": false,
      "inputs": [
        {
          "indexed": true,
          "internalType": "bytes32",
          "name": "merkleRoot",
          "type": "bytes32"
        },
        {
          "indexed": true,
          "internalType": "uint256",
          "name": "index",
          "type": "uint256"
        },
        {
          "indexed": true,
          "internalType": "address",
          "name": "operator",
          "type": "address"
        },
        {
          "indexed": false,
          "internalType": "address",
          "name": "beneficiary",
          "type": "address"
        },
        {
          "indexed": false,
          "internalType": "uint256",
          "name": "amount",
          "type": "uint256"
        }
      ],
      "name": "RewardsClaimed",
      "type": "event"
    },
    {
      "constant": true,
      "inputs": [],
      "name": "isOwner",
      "outputs": [
        {
          "internalType": "bool",
          "name": "",
          "type": "bool"
        }
      ],
      "payable": false,
      "stateMutability": "view",
      "type": "function"
    },
    {
      "constant": true,
      "inputs": [],
      "name": "owner",
      "outputs": [
        {
          "internalType": "address",
          "name": "",
          "type": "address"
        }
      ],
      "payable": false,
      "stateMutability": "view",
      "type": "function"
    },
    {
      "constant": false,
      "inputs": [],
      "name": "renounceOwnership",
      "outputs": [],
      "payable": false,
      "stateMutability": "nonpayable",
      "type": "function"
    },
    {
      "constant": true,
      "inputs": [],
      "name": "token",
      "outputs": [
        {
          "internalType": "contract KeepToken",
          "name": "",
          "type": "address"
        }
      ],
      "payable": false,
      "stateMutability": "view",
      "type": "function"
    },
    {
      "constant": true,
      "inputs": [],
      "name": "tokenStaking",
      "outputs": [
        {
          "internalType": "contract TokenStaking",
          "name": "",
          "type": "address"
        }
      ],
      "payable": false,
      "stateMutability": "view",
      "type": "function"
    },
    {
      "constant": false,
      "inputs": [
        {
          "internalType": "address",
          "name": "newOwner",
          "type": "address"
        }
      ],
      "name": "transferOwnership",
      "outputs": [],
      "payable": false,
      "stateMutability": "nonpayable",
      "type": "function"
    },
    {
      "constant": false,
      "inputs": [
        {
          "internalType": "bytes32",
          "name": "merkleRoot",
          "type": "bytes32"
        },
        {
          "internalType": "uint256",
          "name": "index",
          "type": "uint256"
        },
        {
          "internalType": "address",
          "name": "operator",
          "type": "address"
        },
        {
          "internalType": "uint256",
          "name": "amount",
          "type": "uint256"
        },
        {
          "internalType": "bytes32[]",
          "name": "merkleProof",
          "type": "bytes32[]"
        }
      ],
      "name": "claim",
      "outputs": [],
      "payable": false,
      "stateMutability": "nonpayable",
      "type": "function"
    },
    {
      "constant": false,
      "inputs": [
        {
          "internalType": "bytes32",
          "name": "merkleRoot",
          "type": "bytes32"
        },
        {
          "internalType": "uint256",
          "name": "amount",
          "type": "uint256"
        }
      ],
      "name": "allocate",
      "outputs": [],
      "payable": false,
      "stateMutability": "nonpayable",
      "type": "function"
    },
    {
      "constant": true,
      "inputs": [
        {
          "internalType": "bytes32",
          "name": "merkleRoot",
          "type": "bytes32"
        },
        {
          "internalType": "uint256",
          "name": "index",
          "type": "uint256"
        }
      ],
      "name": "isClaimed",
      "outputs": [
        {
          "internalType": "bool",
          "name": "",
          "type": "bool"
        }
      ],
      "payable": false,
      "stateMutability": "view",
      "type": "function"
    }
  ],
  "bytecode": "0x608060405234801561001057600080fd5b506040516114603803806114608339818101604052604081101561003357600080fd5b810190808051906020019092919080519060200190929190505050336000806101000a81548173ffffffffffffffffffffffffffffffffffffffff021916908373ffffffffffffffffffffffffffffffffffffffff1602179055506000809054906101000a900473ffffffffffffffffffffffffffffffffffffffff1673ffffffffffffffffffffffffffffffffffffffff16600073ffffffffffffffffffffffffffffffffffffffff167f8be0079c531659141344cd1fd0a4f28419497f9722a3daafe3b4186f6b6457e060405160405180910390a381600160006101000a81548173ffffffffffffffffffffffffffffffffffffffff021916908373ffffffffffffffffffffffffffffffffffffffff16021790555080600260006101000a81548173ffffffffffffffffffffffffffffffffffffffff021916908373ffffffffffffffffffffffffffffffffffffffff16021790555050506112c38061019d6000396000f3fe608060405234801561001057600080fd5b50600436106100935760003560e01c806385f5276f1161006657806385f5276f146101db5780638da5cb5b1461022b5780638f32d59b14610275578063f2fde38b14610297578063fc0c546a146102db57610093565b8063715018a6146100985780637dc30ede146100a25780637e22b75a146100ec5780637f7dccc1146101a3575b600080fd5b6100a0610325565b005b6100aa61045e565b604051808273ffffffffffffffffffffffffffffffffffffffff1673ffffffffffffffffffffffffffffffffffffffff16815260200191505060405180910390f35b6101a1600480360360a081101561010257600080fd5b810190808035906020019092919080359060200190929190803573ffffffffffffffffffffffffffffffffffffffff169060200190929190803590602001909291908035906020019064010000000081111561015d57600080fd5b82018360208201111561016f57600080fd5b8035906020019184602083028401116401000000008311171561019157600080fd5b9091929391929390505050610484565b005b6101d9600480360360408110156101b957600080fd5b81019080803590602001909291908035906020019092919050505061096b565b005b610211600480360360408110156101f157600080fd5b810190808035906020019092919080359060200190929190505050610aa3565b604051808215151515815260200191505060405180910390f35b610233610b07565b604051808273ffffffffffffffffffffffffffffffffffffffff1673ffffffffffffffffffffffffffffffffffffffff16815260200191505060405180910390f35b61027d610b30565b604051808215151515815260200191505060405180910390f35b6102d9600480360360208110156102ad57600080fd5b81019080803573ffffffffffffffffffffffffffffffffffffffff169060200190929190505050610b87565b005b6102e3610c0d565b604051808273ffffffffffffffffffffffffffffffffffffffff1673ffffffffffffffffffffffffffffffffffffffff16815260200191505060405180910390f35b61032d610b30565b61039f576040517f08c379a00000000000000000000000000000000000000000000000000000000081526004018080602001828103825260208152602001807f4f776e61626c653a2063616c6c6572206973206e6f7420746865206f776e657281525060200191505060405180910390fd5b600073ffffffffffffffffffffffffffffffffffffffff166000809054906101000a900473ffffffffffffffffffffffffffffffffffffffff1673ffffffffffffffffffffffffffffffffffffffff167f8be0079c531659141344cd1fd0a4f28419497f9722a3daafe3b4186f6b6457e060405160405180910390a360008060006101000a81548173ffffffffffffffffffffffffffffffffffffffff021916908373ffffffffffffffffffffffffffffffffffffffff160217905550565b600260009054906101000a900473ffffffffffffffffffffffffffffffffffffffff1681565b6003600087815260200190815260200160002060009054906101000a900460ff166104fa576040517f08c379a000000000000000000000000000000000000000000000000000000000815260040180806020018281038252603181526020018061125e6031913960400191505060405180910390fd5b6105048686610aa3565b15610577576040517f08c379a00000000000000000000000000000000000000000000000000000000081526004018080602001828103825260168152602001807f52657761726420616c726561647920636c61696d65640000000000000000000081525060200191505060405180910390fd5b6000858585604051602001808481526020018373ffffffffffffffffffffffffffffffffffffffff1673ffffffffffffffffffffffffffffffffffffffff1660601b8152601401828152602001935050505060405160208183030381529060405280519060200120905061062d838380806020026020016040519081016040528093929190818152602001838360200280828437600081840152601f19601f820116905080830192505050505050508883610c33565b61069f576040517f08c379a000000000000000000000000000000000000000000000000000000000815260040180806020018281038252600d8152602001807f496e76616c69642070726f6f660000000000000000000000000000000000000081525060200191505060405180910390fd5b6106a98787610cec565b6000600260009054906101000a900473ffffffffffffffffffffffffffffffffffffffff1673ffffffffffffffffffffffffffffffffffffffff1663ba7bffd3876040518263ffffffff1660e01b8152600401808273ffffffffffffffffffffffffffffffffffffffff1673ffffffffffffffffffffffffffffffffffffffff16815260200191505060206040518083038186803b15801561074a57600080fd5b505afa15801561075e573d6000803e3d6000fd5b505050506040513d602081101561077457600080fd5b81019080805190602001909291905050509050600160009054906101000a900473ffffffffffffffffffffffffffffffffffffffff1673ffffffffffffffffffffffffffffffffffffffff1663a9059cbb82876040518363ffffffff1660e01b8152600401808373ffffffffffffffffffffffffffffffffffffffff1673ffffffffffffffffffffffffffffffffffffffff16815260200182815260200192505050602060405180830381600087803b15801561083057600080fd5b505af1158015610844573d6000803e3d6000fd5b505050506040513d602081101561085a57600080fd5b81019080805190602001909291905050506108dd576040517f08c379a000000000000000000000000000000000000000000000000000000000815260040180806020018281038252600f8152602001807f5472616e73666572206661696c6564000000000000000000000000000000000081525060200191505060405180910390fd5b8573ffffffffffffffffffffffffffffffffffffffff1687897f8881d6a619783a0068f3c2538ba55df6bdab3cd3e5f7638284e0060b9898606e8489604051808373ffffffffffffffffffffffffffffffffffffffff1673ffffffffffffffffffffffffffffffffffffffff1681526020018281526020019250505060405180910390a45050505050505050565b610973610b30565b6109e5576040517f08c379a00000000000000000000000000000000000000000000000000000000081526004018080602001828103825260208152602001807f4f776e61626c653a2063616c6c6572206973206e6f7420746865206f776e657281525060200191505060405180910390fd5b610a34333083600160009054906101000a900473ffffffffffffffffffffffffffffffffffffffff1673ffffffffffffffffffffffffffffffffffffffff16610d65909392919063ffffffff16565b60016003600084815260200190815260200160002060006101000a81548160ff0219169083151502179055507f4de3c7a70ce44dfd5069ce529887394a41056faaa0ac6bcb60b54a4a76d064648282604051808381526020018281526020019250505060405180910390a15050565b6000806101008381610ab157fe5b04905060006101008481610ac157fe5b06905060006004600087815260200190815260200160002060008481526020019081526020016000205490506000826001901b9050808183161494505050505092915050565b60008060009054906101000a900473ffffffffffffffffffffffffffffffffffffffff16905090565b60008060009054906101000a900473ffffffffffffffffffffffffffffffffffffffff1673ffffffffffffffffffffffffffffffffffffffff163373ffffffffffffffffffffffffffffffffffffffff1614905090565b610b8f610b30565b610c01576040517f08c379a00000000000000000000000000000000000000000000000000000000081526004018080602001828103825260208152602001807f4f776e61626c653a2063616c6c6572206973206e6f7420746865206f776e657281525060200191505060405180910390fd5b610c0a81610e6b565b50565b600160009054906101000a900473ffffffffffffffffffffffffffffffffffffffff1681565b60008082905060008090505b8551811015610cde576000868281518110610c5657fe5b6020026020010151905080831015610c9e5782816040516020018083815260200182815260200192505050604051602081830303815290604052805190602001209250610cd0565b808360405160200180838152602001828152602001925050506040516020818303038152906040528051906020012092505b508080600101915050610c3f565b508381149150509392505050565b60006101008281610cf957fe5b04905060006101008381610d0957fe5b069050806001901b60046000868152602001908152602001600020600084815260200190815260200160002054176004600086815260200190815260200160002060008481526020019081526020016000208190555050505050565b610e65848573ffffffffffffffffffffffffffffffffffffffff166323b872dd905060e01b858585604051602401808473ffffffffffffffffffffffffffffffffffffffff1673ffffffffffffffffffffffffffffffffffffffff1681526020018373ffffffffffffffffffffffffffffffffffffffff1673ffffffffffffffffffffffffffffffffffffffff1681526020018281526020019350505050604051602081830303815290604052907bffffffffffffffffffffffffffffffffffffffffffffffffffffffff19166020820180517bffffffffffffffffffffffffffffffffffffffffffffffffffffffff8381831617835250505050610faf565b50505050565b600073ffffffffffffffffffffffffffffffffffffffff168173ffffffffffffffffffffffffffffffffffffffff161415610ef1576040517f08c379a000000000000000000000000000000000000000000000000000000000815260040180806020018281038252602681526020018061120e6026913960400191505060405180910390fd5b8073ffffffffffffffffffffffffffffffffffffffff166000809054906101000a900473ffffffffffffffffffffffffffffffffffffffff1673ffffffffffffffffffffffffffffffffffffffff167f8be0079c531659141344cd1fd0a4f28419497f9722a3daafe3b4186f6b6457e060405160405180910390a3806000806101000a81548173ffffffffffffffffffffffffffffffffffffffff021916908373ffffffffffffffffffffffffffffffffffffffff16021790555050565b610fce8273ffffffffffffffffffffffffffffffffffffffff166111fa565b611040576040517f08c379a000000000000000000000000000000000000000000000000000000000815260040180806020018281038252601f8152602001807f5361666545524332303a2063616c6c20746f206e6f6e2d636f6e74726163740081525060200191505060405180910390fd5b600060608373ffffffffffffffffffffffffffffffffffffffff16836040518082805190602001908083835b6020831061108f578051825260208201915060208101905060208303925061106c565b6001836020036101000a0380198251168184511680821785525050505050509050019150506000604051808303816000865af19150503d80600081146110f1576040519150601f19603f3d011682016040523d82523d6000602084013e6110f6565b606091505b50915091508161116e576040517f08c379a00000000000000000000000000000000000000000000000000000000081526004018080602001828103825260208152602001807f5361666545524332303a206c6f772d6c6576656c2063616c6c206661696c656481525060200191505060405180910390fd5b6000815111156111f45780806020019051602081101561118d57600080fd5b81019080805190602001909291905050506111f3576040517f08c379a000000000000000000000000000000000000000000000000000000000815260040180806020018281038252602a815260200180611234602a913960400191505060405180910390fd5b5b50505050565b600080823b90506000811191505091905056fe4f776e61626c653a206e6577206f776e657220697320746865207a65726f20616464726573735361666545524332303a204552433230206f7065726174696f6e20646964206e6f74207375636365656452657761726473206d75737420626520616c6c6f636174656420666f72206120676976656e206d65726b6c6520726f6f74a265627a7a72315820fe5cc7ea5cdd1cf34133b0512d6fecbe42ad01023d8d180a0fd5d2205578d3e064736f6c63430005110032",
  "source": "/**\n▓▓▌ ▓▓ ▐▓▓ ▓▓▓▓▓▓▓▓▓▓▌▐▓▓▓▓▓▓▓▓▓▓▓▓▓▓▓▓▓▓ ▓▓▓▓▓▓▓▓▓▓▓▓▓▓▓▓▓▓ ▓▓▓▓▓▓▓▓▓▓▓▓▓▓▓▓▓▄\n▓▓▓▓▓▓▓▓▓▓ ▓▓▓▓▓▓▓▓▓▓▌▐▓▓▓▓▓▓▓▓▓▓▓▓▓▓▓▓▓▓ ▓▓▓▓▓▓▓▓▓▓▓▓▓▓▓▓▓▓ ▓▓▓▓▓▓▓▓▓▓▓▓▓▓▓▓▓▓▓\n  ▓▓▓▓▓▓    ▓▓▓▓▓▓▓▀    ▐▓▓▓▓▓▓    ▐▓▓▓▓▓   ▓▓▓▓▓▓     ▓▓▓▓▓   ▐▓▓▓▓▓▌   ▐▓▓▓▓▓▓\n  ▓▓▓▓▓▓▄▄▓▓▓▓▓▓▓▀      ▐▓▓▓▓▓▓▄▄▄▄         ▓▓▓▓▓▓▄▄▄▄         ▐▓▓▓▓▓▌   ▐▓▓▓▓▓▓\n  ▓▓▓▓▓▓▓▓▓▓▓▓▓▀        ▐▓▓▓▓▓▓▓▓▓▓▌        ▓▓▓▓▓▓▓▓▓▓▌        ▐▓▓▓▓▓▓▓▓▓▓▓▓▓▓▓▓\n  ▓▓▓▓▓▓▀▀▓▓▓▓▓▓▄       ▐▓▓▓▓▓▓▀▀▀▀         ▓▓▓▓▓▓▀▀▀▀         ▐▓▓▓▓▓▓▓▓▓▓▓▓▓▓▀\n  ▓▓▓▓▓▓   ▀▓▓▓▓▓▓▄     ▐▓▓▓▓▓▓     ▓▓▓▓▓   ▓▓▓▓▓▓     ▓▓▓▓▓   ▐▓▓▓▓▓▌\n▓▓▓▓▓▓▓▓▓▓ █▓▓▓▓▓▓▓▓▓ ▐▓▓▓▓▓▓▓▓▓▓▓▓▓▓▓▓▓▓ ▓▓▓▓▓▓▓▓▓▓▓▓▓▓▓▓▓▓  ▓▓▓▓▓▓▓▓▓▓\n▓▓▓▓▓▓▓▓▓▓ ▓▓▓▓▓▓▓▓▓▓ ▐▓▓▓▓▓▓▓▓▓▓▓▓▓▓▓▓▓▓ ▓▓▓▓▓▓▓▓▓▓▓▓▓▓▓▓▓▓  ▓▓▓▓▓▓▓▓▓▓\n\n                           Trust math, not hardware.\n*/\n\npragma solidity 0.5.17;\n\nimport \"@keep-network/keep-core/contracts/KeepToken.sol\";\nimport \"@keep-network/keep-core/contracts/TokenStaking.sol\";\nimport \"openzeppelin-solidity/contracts/ownership/Ownable.sol\";\nimport \"openzeppelin-solidity/contracts/token/ERC20/SafeERC20.sol\";\nimport \"openzeppelin-solidity/contracts/cryptography/MerkleProof.sol\";\n\n/// @title ECDSA Rewards distributor\n/// @notice This contract can be used by stakers to claim their rewards for\n/// participation in the keep network for operating ECDSA nodes.\n/// @dev This contract is based on the Uniswap's Merkle Distributor\n/// https://github.com/Uniswap/merkle-distributor with some modifications:\n/// - added a map of merkle root keys. Whenever a new merkle root is put in the\n///   map, we assign 'true' value to this key\n/// - added 'allocate()' function that will be called each time to allocate\n///   new KEEP rewards for a given merkle root. Merkle root is going to be generated\n///   regulary (ex. every week) and it is also means that an interval for that\n///   merkle root has passed\n/// - changed code accordingly to process claimed rewards using a map of merkle\n///   roots\ncontract ECDSARewardsDistributor is Ownable {\n    using SafeERC20 for KeepToken;\n\n    KeepToken public token;\n    TokenStaking public tokenStaking;\n\n    // This event is triggered whenever a call to #claim succeeds.\n    event RewardsClaimed(\n        bytes32 indexed merkleRoot,\n        uint256 indexed index,\n        address indexed operator,\n        address beneficiary,\n        uint256 amount\n    );\n    // This event is triggered whenever rewards are allocated.\n    event RewardsAllocated(bytes32 merkleRoot, uint256 amount);\n\n    // Map of merkle roots indicating whether a given interval was allocated with\n    // KEEP token rewards. For each interval there is always created a new merkle\n    // tree including a root, rewarded operators along with their amounts and proofs.\n    mapping(bytes32 => bool) private merkleRoots;\n    // Bytes32 key is a merkle root and the value is a packed array of booleans.\n    mapping(bytes32 => mapping(uint256 => uint256)) private claimedBitMap;\n\n    constructor(address _token, address _tokenStaking) public {\n        token = KeepToken(_token);\n        tokenStaking = TokenStaking(_tokenStaking);\n    }\n\n    /// Claim KEEP rewards for a given merkle root (interval) and the given operator\n    /// address. Rewards will be sent to a beneficiary assigned to the operator.\n    /// @param merkleRoot Merkle root for a given interval.\n    /// @param index Index of the operator in the merkle tree.\n    /// @param operator Operator address that reward will be claimed.\n    /// @param amount The amount of KEEP reward to be claimed.\n    /// @param merkleProof Array of merkle proofs.\n    function claim(\n        bytes32 merkleRoot,\n        uint256 index,\n        address operator,\n        uint256 amount,\n        bytes32[] calldata merkleProof\n    ) external {\n        require(\n            merkleRoots[merkleRoot],\n            \"Rewards must be allocated for a given merkle root\"\n        );\n        require(!isClaimed(merkleRoot, index), \"Reward already claimed\");\n\n        // Verify the merkle proof.\n        bytes32 node = keccak256(abi.encodePacked(index, operator, amount));\n        require(\n            MerkleProof.verify(merkleProof, merkleRoot, node),\n            \"Invalid proof\"\n        );\n\n        // Mark it claimed and send the token.\n        _setClaimed(merkleRoot, index);\n\n        address beneficiary = tokenStaking.beneficiaryOf(operator);\n        require(IERC20(token).transfer(beneficiary, amount), \"Transfer failed\");\n\n        emit RewardsClaimed(merkleRoot, index, operator, beneficiary, amount);\n    }\n\n    /// Allocates amount of KEEP for a given merkle root.\n    /// @param merkleRoot Merkle root for a given interval.\n    /// @param amount The amount of KEEP tokens allocated for the merkle root.\n    function allocate(bytes32 merkleRoot, uint256 amount) public onlyOwner {\n        token.safeTransferFrom(msg.sender, address(this), amount);\n\n        merkleRoots[merkleRoot] = true;\n\n        emit RewardsAllocated(merkleRoot, amount);\n    }\n\n    function isClaimed(bytes32 merkleRoot, uint256 index)\n        public\n        view\n        returns (bool)\n    {\n        uint256 claimedWordIndex = index / 256;\n        uint256 claimedBitIndex = index % 256;\n        uint256 claimedWord = claimedBitMap[merkleRoot][claimedWordIndex];\n        uint256 mask = (1 << claimedBitIndex);\n        return claimedWord & mask == mask;\n    }\n\n    function _setClaimed(bytes32 merkleRoot, uint256 index) private {\n        uint256 claimedWordIndex = index / 256;\n        uint256 claimedBitIndex = index % 256;\n        claimedBitMap[merkleRoot][claimedWordIndex] =\n            claimedBitMap[merkleRoot][claimedWordIndex] |\n            (1 << claimedBitIndex);\n    }\n}\n",
  "sourcePath": "/home/kowal/Projects/sovryn/keep-ecdsa/solidity/contracts/ECDSARewardsDistributor.sol",
  "compiler": {
    "name": "solc",
    "version": "0.5.17+commit.d19bba13.Emscripten.clang"
  },
  "schemaVersion": "3.0.22",
  "updatedAt": "2021-02-01T13:33:05.615Z",
  "networkType": "ethereum",
  "devdoc": {
    "details": "This contract is based on the Uniswap's Merkle Distributor https://github.com/Uniswap/merkle-distributor with some modifications: - added a map of merkle root keys. Whenever a new merkle root is put in the   map, we assign 'true' value to this key - added 'allocate()' function that will be called each time to allocate   new KEEP rewards for a given merkle root. Merkle root is going to be generated   regulary (ex. every week) and it is also means that an interval for that   merkle root has passed - changed code accordingly to process claimed rewards using a map of merkle   roots",
    "methods": {
      "allocate(bytes32,uint256)": {
        "params": {
          "amount": "The amount of KEEP tokens allocated for the merkle root.",
          "merkleRoot": "Merkle root for a given interval."
        }
      },
      "claim(bytes32,uint256,address,uint256,bytes32[])": {
        "params": {
          "amount": "The amount of KEEP reward to be claimed.",
          "index": "Index of the operator in the merkle tree.",
          "merkleProof": "Array of merkle proofs.",
          "merkleRoot": "Merkle root for a given interval.",
          "operator": "Operator address that reward will be claimed."
        }
      },
      "isOwner()": {
        "details": "Returns true if the caller is the current owner."
      },
      "owner()": {
        "details": "Returns the address of the current owner."
      },
      "renounceOwnership()": {
        "details": "Leaves the contract without owner. It will not be possible to call `onlyOwner` functions anymore. Can only be called by the current owner.     * > Note: Renouncing ownership will leave the contract without an owner, thereby removing any functionality that is only available to the owner."
      },
      "transferOwnership(address)": {
        "details": "Transfers ownership of the contract to a new account (`newOwner`). Can only be called by the current owner."
      }
    },
    "title": "ECDSA Rewards distributor"
  },
  "userdoc": {
    "methods": {
      "allocate(bytes32,uint256)": {
        "notice": "Allocates amount of KEEP for a given merkle root."
      },
      "claim(bytes32,uint256,address,uint256,bytes32[])": {
        "notice": "Claim KEEP rewards for a given merkle root (interval) and the given operator address. Rewards will be sent to a beneficiary assigned to the operator."
      }
    },
    "notice": "This contract can be used by stakers to claim their rewards for participation in the keep network for operating ECDSA nodes."
  }
}