{
  "contractName": "ECDSARewards",
  "abi": [
    {
      "inputs": [
        {
          "internalType": "address",
          "name": "_token",
          "type": "address"
        },
        {
          "internalType": "address payable",
          "name": "_factoryAddress",
          "type": "address"
        },
        {
          "internalType": "address",
          "name": "_tokenStakingAddress",
          "type": "address"
        }
      ],
      "payable": false,
      "stateMutability": "nonpayable",
      "type": "constructor"
    },
    {
      "anonymous": false,
      "inputs": [
        {
          "indexed": true,
          "internalType": "address",
          "name": "previousOwner",
          "type": "address"
        },
        {
          "indexed": true,
          "internalType": "address",
          "name": "newOwner",
          "type": "address"
        }
      ],
      "name": "OwnershipTransferred",
      "type": "event"
    },
    {
      "anonymous": false,
      "inputs": [
        {
          "indexed": false,
          "internalType": "bytes32",
          "name": "keep",
          "type": "bytes32"
        },
        {
          "indexed": false,
          "internalType": "uint256",
          "name": "amount",
          "type": "uint256"
        }
      ],
      "name": "RewardReceived",
      "type": "event"
    },
    {
      "anonymous": false,
      "inputs": [
        {
          "indexed": false,
          "internalType": "uint256",
          "name": "amountTransferred",
          "type": "uint256"
        }
      ],
      "name": "UpgradeFinalized",
      "type": "event"
    },
    {
      "anonymous": false,
      "inputs": [
        {
          "indexed": false,
          "internalType": "address",
          "name": "newRewardsContract",
          "type": "address"
        }
      ],
      "name": "UpgradeInitiated",
      "type": "event"
    },
    {
      "constant": false,
      "inputs": [
        {
          "internalType": "uint256",
          "name": "interval",
          "type": "uint256"
        }
      ],
      "name": "allocateRewards",
      "outputs": [],
      "payable": false,
      "stateMutability": "nonpayable",
      "type": "function"
    },
    {
      "constant": true,
      "inputs": [],
      "name": "beneficiaryRewardCap",
      "outputs": [
        {
          "internalType": "uint256",
          "name": "",
          "type": "uint256"
        }
      ],
      "payable": false,
      "stateMutability": "view",
      "type": "function"
    },
    {
      "constant": true,
      "inputs": [],
      "name": "dispensedRewards",
      "outputs": [
        {
          "internalType": "uint256",
          "name": "",
          "type": "uint256"
        }
      ],
      "payable": false,
      "stateMutability": "view",
      "type": "function"
    },
    {
      "constant": true,
      "inputs": [
        {
          "internalType": "bytes32",
          "name": "_keep",
          "type": "bytes32"
        }
      ],
      "name": "eligibleButTerminated",
      "outputs": [
        {
          "internalType": "bool",
          "name": "",
          "type": "bool"
        }
      ],
      "payable": false,
      "stateMutability": "view",
      "type": "function"
    },
    {
      "constant": true,
      "inputs": [
        {
          "internalType": "bytes32",
          "name": "_keep",
          "type": "bytes32"
        }
      ],
      "name": "eligibleForReward",
      "outputs": [
        {
          "internalType": "bool",
          "name": "",
          "type": "bool"
        }
      ],
      "payable": false,
      "stateMutability": "view",
      "type": "function"
    },
    {
      "constant": true,
      "inputs": [
        {
          "internalType": "uint256",
          "name": "interval",
          "type": "uint256"
        }
      ],
      "name": "endOf",
      "outputs": [
        {
          "internalType": "uint256",
          "name": "",
          "type": "uint256"
        }
      ],
      "payable": false,
      "stateMutability": "view",
      "type": "function"
    },
    {
      "constant": false,
      "inputs": [],
      "name": "finalizeRewardsUpgrade",
      "outputs": [],
      "payable": false,
      "stateMutability": "nonpayable",
      "type": "function"
    },
    {
      "constant": true,
      "inputs": [],
      "name": "firstIntervalStart",
      "outputs": [
        {
          "internalType": "uint256",
          "name": "",
          "type": "uint256"
        }
      ],
      "payable": false,
      "stateMutability": "view",
      "type": "function"
    },
    {
      "constant": true,
      "inputs": [],
      "name": "funded",
      "outputs": [
        {
          "internalType": "bool",
          "name": "",
          "type": "bool"
        }
      ],
      "payable": false,
      "stateMutability": "view",
      "type": "function"
    },
    {
      "constant": true,
      "inputs": [],
      "name": "getIntervalCount",
      "outputs": [
        {
          "internalType": "uint256",
          "name": "",
          "type": "uint256"
        }
      ],
      "payable": false,
      "stateMutability": "view",
      "type": "function"
    },
    {
      "constant": true,
      "inputs": [
        {
          "internalType": "uint256",
          "name": "interval",
          "type": "uint256"
        }
      ],
      "name": "getIntervalWeight",
      "outputs": [
        {
          "internalType": "uint256",
          "name": "",
          "type": "uint256"
        }
      ],
      "payable": false,
      "stateMutability": "view",
      "type": "function"
    },
    {
      "constant": false,
      "inputs": [
        {
          "internalType": "address",
          "name": "_newRewardsContract",
          "type": "address"
        }
      ],
      "name": "initiateRewardsUpgrade",
      "outputs": [],
      "payable": false,
      "stateMutability": "nonpayable",
      "type": "function"
    },
    {
      "constant": true,
      "inputs": [
        {
          "internalType": "uint256",
          "name": "",
          "type": "uint256"
        }
      ],
      "name": "intervalKeepsProcessed",
      "outputs": [
        {
          "internalType": "uint256",
          "name": "",
          "type": "uint256"
        }
      ],
      "payable": false,
      "stateMutability": "view",
      "type": "function"
    },
    {
      "constant": true,
      "inputs": [
        {
          "internalType": "uint256",
          "name": "timestamp",
          "type": "uint256"
        }
      ],
      "name": "intervalOf",
      "outputs": [
        {
          "internalType": "uint256",
          "name": "",
          "type": "uint256"
        }
      ],
      "payable": false,
      "stateMutability": "view",
      "type": "function"
    },
    {
      "constant": true,
      "inputs": [
        {
          "internalType": "uint256",
          "name": "",
          "type": "uint256"
        }
      ],
      "name": "intervalWeights",
      "outputs": [
        {
          "internalType": "uint256",
          "name": "",
          "type": "uint256"
        }
      ],
      "payable": false,
      "stateMutability": "view",
      "type": "function"
    },
    {
      "constant": true,
      "inputs": [
        {
          "internalType": "uint256",
          "name": "interval",
          "type": "uint256"
        }
      ],
      "name": "isAllocated",
      "outputs": [
        {
          "internalType": "bool",
          "name": "",
          "type": "bool"
        }
      ],
      "payable": false,
      "stateMutability": "view",
      "type": "function"
    },
    {
      "constant": true,
      "inputs": [
        {
          "internalType": "uint256",
          "name": "interval",
          "type": "uint256"
        }
      ],
      "name": "isFinished",
      "outputs": [
        {
          "internalType": "bool",
          "name": "",
          "type": "bool"
        }
      ],
      "payable": false,
      "stateMutability": "view",
      "type": "function"
    },
    {
      "constant": true,
      "inputs": [],
      "name": "isOwner",
      "outputs": [
        {
          "internalType": "bool",
          "name": "",
          "type": "bool"
        }
      ],
      "payable": false,
      "stateMutability": "view",
      "type": "function"
    },
    {
      "constant": false,
      "inputs": [
        {
          "internalType": "uint256",
          "name": "interval",
          "type": "uint256"
        }
      ],
      "name": "keepsInInterval",
      "outputs": [
        {
          "internalType": "uint256",
          "name": "",
          "type": "uint256"
        }
      ],
      "payable": false,
      "stateMutability": "nonpayable",
      "type": "function"
    },
    {
      "constant": false,
      "inputs": [],
      "name": "markAsFunded",
      "outputs": [],
      "payable": false,
      "stateMutability": "nonpayable",
      "type": "function"
    },
    {
      "constant": true,
      "inputs": [],
      "name": "minimumKeepsPerInterval",
      "outputs": [
        {
          "internalType": "uint256",
          "name": "",
          "type": "uint256"
        }
      ],
      "payable": false,
      "stateMutability": "view",
      "type": "function"
    },
    {
      "constant": true,
      "inputs": [],
      "name": "newRewardsContract",
      "outputs": [
        {
          "internalType": "address",
          "name": "",
          "type": "address"
        }
      ],
      "payable": false,
      "stateMutability": "view",
      "type": "function"
    },
    {
      "constant": true,
      "inputs": [],
      "name": "owner",
      "outputs": [
        {
          "internalType": "address",
          "name": "",
          "type": "address"
        }
      ],
      "payable": false,
      "stateMutability": "view",
      "type": "function"
    },
    {
      "constant": false,
      "inputs": [
        {
          "internalType": "address",
          "name": "_from",
          "type": "address"
        },
        {
          "internalType": "uint256",
          "name": "_value",
          "type": "uint256"
        },
        {
          "internalType": "address",
          "name": "_token",
          "type": "address"
        },
        {
          "internalType": "bytes",
          "name": "",
          "type": "bytes"
        }
      ],
      "name": "receiveApproval",
      "outputs": [],
      "payable": false,
      "stateMutability": "nonpayable",
      "type": "function"
    },
    {
      "constant": false,
      "inputs": [
        {
          "internalType": "bytes32",
          "name": "keepIdentifier",
          "type": "bytes32"
        }
      ],
      "name": "receiveReward",
      "outputs": [],
      "payable": false,
      "stateMutability": "nonpayable",
      "type": "function"
    },
    {
      "constant": false,
      "inputs": [
        {
          "internalType": "bytes32[]",
          "name": "keepIdentifiers",
          "type": "bytes32[]"
        }
      ],
      "name": "receiveRewards",
      "outputs": [],
      "payable": false,
      "stateMutability": "nonpayable",
      "type": "function"
    },
    {
      "constant": false,
      "inputs": [],
      "name": "renounceOwnership",
      "outputs": [],
      "payable": false,
      "stateMutability": "nonpayable",
      "type": "function"
    },
    {
      "constant": false,
      "inputs": [
        {
          "internalType": "bytes32",
          "name": "keepIdentifier",
          "type": "bytes32"
        }
      ],
      "name": "reportTermination",
      "outputs": [],
      "payable": false,
      "stateMutability": "nonpayable",
      "type": "function"
    },
    {
      "constant": false,
      "inputs": [
        {
          "internalType": "bytes32[]",
          "name": "keepIdentifiers",
          "type": "bytes32[]"
        }
      ],
      "name": "reportTerminations",
      "outputs": [],
      "payable": false,
      "stateMutability": "nonpayable",
      "type": "function"
    },
    {
      "constant": true,
      "inputs": [
        {
          "internalType": "bytes32",
          "name": "_keep",
          "type": "bytes32"
        }
      ],
      "name": "rewardClaimed",
      "outputs": [
        {
          "internalType": "bool",
          "name": "",
          "type": "bool"
        }
      ],
      "payable": false,
      "stateMutability": "view",
      "type": "function"
    },
    {
      "constant": true,
      "inputs": [
        {
          "internalType": "uint256",
          "name": "interval",
          "type": "uint256"
        }
      ],
      "name": "startOf",
      "outputs": [
        {
          "internalType": "uint256",
          "name": "",
          "type": "uint256"
        }
      ],
      "payable": false,
      "stateMutability": "view",
      "type": "function"
    },
    {
      "constant": true,
      "inputs": [],
      "name": "termLength",
      "outputs": [
        {
          "internalType": "uint256",
          "name": "",
          "type": "uint256"
        }
      ],
      "payable": false,
      "stateMutability": "view",
      "type": "function"
    },
    {
      "constant": true,
      "inputs": [],
      "name": "token",
      "outputs": [
        {
          "internalType": "contract KeepToken",
          "name": "",
          "type": "address"
        }
      ],
      "payable": false,
      "stateMutability": "view",
      "type": "function"
    },
    {
      "constant": true,
      "inputs": [],
      "name": "totalRewards",
      "outputs": [
        {
          "internalType": "uint256",
          "name": "",
          "type": "uint256"
        }
      ],
      "payable": false,
      "stateMutability": "view",
      "type": "function"
    },
    {
      "constant": false,
      "inputs": [
        {
          "internalType": "address",
          "name": "newOwner",
          "type": "address"
        }
      ],
      "name": "transferOwnership",
      "outputs": [],
      "payable": false,
      "stateMutability": "nonpayable",
      "type": "function"
    },
    {
      "constant": true,
      "inputs": [],
      "name": "unallocatedRewards",
      "outputs": [
        {
          "internalType": "uint256",
          "name": "",
          "type": "uint256"
        }
      ],
      "payable": false,
      "stateMutability": "view",
      "type": "function"
    },
    {
      "constant": true,
      "inputs": [],
      "name": "upgradeFinalizedTimestamp",
      "outputs": [
        {
          "internalType": "uint256",
          "name": "",
          "type": "uint256"
        }
      ],
      "payable": false,
      "stateMutability": "view",
      "type": "function"
    },
    {
      "constant": true,
      "inputs": [],
      "name": "upgradeInitiatedTimestamp",
      "outputs": [
        {
          "internalType": "uint256",
          "name": "",
          "type": "uint256"
        }
      ],
      "payable": false,
      "stateMutability": "view",
      "type": "function"
    },
    {
      "constant": true,
      "inputs": [
        {
          "internalType": "uint256",
          "name": "interval",
          "type": "uint256"
        },
        {
          "internalType": "address",
          "name": "operator",
          "type": "address"
        }
      ],
      "name": "getAllocatedRewards",
      "outputs": [
        {
          "internalType": "uint256",
          "name": "",
          "type": "uint256"
        }
      ],
      "payable": false,
      "stateMutability": "view",
      "type": "function"
    },
    {
      "constant": true,
      "inputs": [
        {
          "internalType": "uint256",
          "name": "interval",
          "type": "uint256"
        }
      ],
      "name": "getAllocatedRewards",
      "outputs": [
        {
          "internalType": "uint256",
          "name": "",
          "type": "uint256"
        }
      ],
      "payable": false,
      "stateMutability": "view",
      "type": "function"
    },
    {
      "constant": true,
      "inputs": [
        {
          "internalType": "uint256",
          "name": "interval",
          "type": "uint256"
        },
        {
          "internalType": "address",
          "name": "operator",
          "type": "address"
        }
      ],
      "name": "getWithdrawnRewards",
      "outputs": [
        {
          "internalType": "uint256",
          "name": "",
          "type": "uint256"
        }
      ],
      "payable": false,
      "stateMutability": "view",
      "type": "function"
    },
    {
      "constant": true,
      "inputs": [
        {
          "internalType": "uint256",
          "name": "interval",
          "type": "uint256"
        },
        {
          "internalType": "address",
          "name": "operator",
          "type": "address"
        }
      ],
      "name": "getWithdrawableRewards",
      "outputs": [
        {
          "internalType": "uint256",
          "name": "",
          "type": "uint256"
        }
      ],
      "payable": false,
      "stateMutability": "view",
      "type": "function"
    },
    {
      "constant": false,
      "inputs": [
        {
          "internalType": "uint256",
          "name": "interval",
          "type": "uint256"
        },
        {
          "internalType": "address",
          "name": "operator",
          "type": "address"
        }
      ],
      "name": "withdrawRewards",
      "outputs": [],
      "payable": false,
      "stateMutability": "nonpayable",
      "type": "function"
    }
  ],
  "bytecode": "0x60806040526000600d60006101000a81548160ff0219169083151502179055506a027b46536c66c8e3000000601155604051806103000160405280600460ff168152602001600860ff168152602001600a60ff168152602001600c60ff168152602001600f60ff168152602001600f60ff168152602001600f60ff168152602001600f60ff168152602001600f60ff168152602001600f60ff168152602001600f60ff168152602001600f60ff168152602001600f60ff168152602001600f60ff168152602001600f60ff168152602001600f60ff168152602001600f60ff168152602001600f60ff168152602001600f60ff168152602001600f60ff168152602001600f60ff168152602001600f60ff168152602001600f60ff168152602001600f60ff1681525060129060186200013a929190620003ae565b503480156200014857600080fd5b50604051620047e6380380620047e6833981810160405260608110156200016e57600080fd5b8101908080519060200190929190805190602001909291908051906020019092919050505082635f5eb2806012805480602002602001604051908101604052809291908181526020018280548015620001e757602002820191906000526020600020905b815481526020019060010190808311620001d2575b505050505062278d006103e8336000806101000a81548173ffffffffffffffffffffffffffffffffffffffff021916908373ffffffffffffffffffffffffffffffffffffffff1602179055506000809054906101000a900473ffffffffffffffffffffffffffffffffffffffff1673ffffffffffffffffffffffffffffffffffffffff16600073ffffffffffffffffffffffffffffffffffffffff167f8be0079c531659141344cd1fd0a4f28419497f9722a3daafe3b4186f6b6457e060405160405180910390a384600160006101000a81548173ffffffffffffffffffffffffffffffffffffffff021916908373ffffffffffffffffffffffffffffffffffffffff1602179055508360088190555082600290805190602001906200030f92919062000405565b508160038190555080600481905550505050505081601560006101000a81548173ffffffffffffffffffffffffffffffffffffffff021916908373ffffffffffffffffffffffffffffffffffffffff16021790555080601660006101000a81548173ffffffffffffffffffffffffffffffffffffffff021916908373ffffffffffffffffffffffffffffffffffffffff1602179055505050506200047f565b828054828255906000526020600020908101928215620003f2579160200282015b82811115620003f1578251829060ff16905591602001919060010190620003cf565b5b50905062000401919062000457565b5090565b82805482825590600052602060002090810192821562000444579160200282015b828111156200044357825182559160200191906001019062000426565b5b50905062000453919062000457565b5090565b6200047c91905b80821115620004785760008160009055506001016200045e565b5090565b90565b614357806200048f6000396000f3fe608060405234801561001057600080fd5b50600436106102695760003560e01c80638f4ffcb111610151578063ce21d8cf116100c3578063e8ba650911610087578063e8ba650914610b9d578063f2fde38b14610be3578063f3301f6b14610c27578063f3a504f214610c75578063fbf7d0d514610c97578063fc0c546a14610cf957610269565b8063ce21d8cf14610acd578063ce2830ad14610b11578063ce2b3e3c14610b57578063e1fcd5e814610b75578063e27000e714610b9357610269565b8063ab7239c011610115578063ab7239c0146108ef578063aeae364d146109a7578063b369af71146109e9578063b41e7f4714610a2b578063b965933e14610a6d578063c70cee6a14610aaf57610269565b80638f4ffcb11461072657806392672b351461082b578063951315261461086d57806395aeca481461088b57806397a1e434146108a957610269565b806345016312116101ea578063725cf04e116101ae578063725cf04e1461060657806379b18cd11461062457806381b83c331461064257806386d954c01461068c5780638da5cb5b146106ba5780638f32d59b1461070457610269565b80634501631214610472578063614851d81461052a57806368ec9c421461058c5780636a823878146105ba578063715018a6146105fc57610269565b8063183affa111610231578063183affa11461038457806328fc33c7146103a25780632b6fdc7e146103d057806335c9ef71146103ee578063365449511461043057610269565b80630a1bb1b11461026e5780630da8882f146102b45780630e15561a146102be5780630e658abc146102dc57806312f570631461033e575b600080fd5b61029a6004803603602081101561028457600080fd5b8101908080359060200190929190505050610d43565b604051808215151515815260200191505060405180910390f35b6102bc610d59565b005b6102c6610df0565b6040518082815260200191505060405180910390f35b610328600480360360408110156102f257600080fd5b8101908080359060200190929190803573ffffffffffffffffffffffffffffffffffffffff169060200190929190505050610df6565b6040518082815260200191505060405180910390f35b61036a6004803603602081101561035457600080fd5b8101908080359060200190929190505050610f2f565b604051808215151515815260200191505060405180910390f35b61038c610f64565b6040518082815260200191505060405180910390f35b6103ce600480360360208110156103b857600080fd5b8101908080359060200190929190505050610f71565b005b6103d861116e565b6040518082815260200191505060405180910390f35b61041a6004803603602081101561040457600080fd5b8101908080359060200190929190505050611174565b6040518082815260200191505060405180910390f35b61045c6004803603602081101561044657600080fd5b810190808035906020019092919050505061120f565b6040518082815260200191505060405180910390f35b6105286004803603602081101561048857600080fd5b81019080803590602001906401000000008111156104a557600080fd5b8201836020820111156104b757600080fd5b803590602001918460208302840111640100000000831117156104d957600080fd5b919080806020026020016040519081016040528093929190818152602001838360200280828437600081840152601f19601f820116905080830192505050505050509192919290505050611265565b005b6105766004803603604081101561054057600080fd5b8101908080359060200190929190803573ffffffffffffffffffffffffffffffffffffffff1690602001909291905050506112a1565b6040518082815260200191505060405180910390f35b6105b8600480360360208110156105a257600080fd5b81019080803590602001909291905050506113da565b005b6105e6600480360360208110156105d057600080fd5b8101908080359060200190929190505050611560565b6040518082815260200191505060405180910390f35b610604611578565b005b61060e6116b1565b6040518082815260200191505060405180910390f35b61062c6116b7565b6040518082815260200191505060405180910390f35b61064a6116bd565b604051808273ffffffffffffffffffffffffffffffffffffffff1673ffffffffffffffffffffffffffffffffffffffff16815260200191505060405180910390f35b6106b8600480360360208110156106a257600080fd5b81019080803590602001909291905050506116e3565b005b6106c2611869565b604051808273ffffffffffffffffffffffffffffffffffffffff1673ffffffffffffffffffffffffffffffffffffffff16815260200191505060405180910390f35b61070c611892565b604051808215151515815260200191505060405180910390f35b6108296004803603608081101561073c57600080fd5b81019080803573ffffffffffffffffffffffffffffffffffffffff16906020019092919080359060200190929190803573ffffffffffffffffffffffffffffffffffffffff169060200190929190803590602001906401000000008111156107a357600080fd5b8201836020820111156107b557600080fd5b803590602001918460018302840111640100000000831117156107d757600080fd5b91908080601f016020809104026020016040519081016040528093929190818152602001838380828437600081840152601f19601f8201169050808301925050505050505091929192905050506118e9565b005b6108576004803603602081101561084157600080fd5b8101908080359060200190929190505050611bae565b6040518082815260200191505060405180910390f35b610875611bcf565b6040518082815260200191505060405180910390f35b610893611bd5565b6040518082815260200191505060405180910390f35b6108d5600480360360208110156108bf57600080fd5b8101908080359060200190929190505050611bdb565b604051808215151515815260200191505060405180910390f35b6109a56004803603602081101561090557600080fd5b810190808035906020019064010000000081111561092257600080fd5b82018360208201111561093457600080fd5b8035906020019184602083028401116401000000008311171561095657600080fd5b919080806020026020016040519081016040528093929190818152602001838360200280828437600081840152601f19601f820116905080830192505050505050509192919290505050611bfe565b005b6109d3600480360360208110156109bd57600080fd5b8101908080359060200190929190505050611c3a565b6040518082815260200191505060405180910390f35b610a15600480360360208110156109ff57600080fd5b8101908080359060200190929190505050611c66565b6040518082815260200191505060405180910390f35b610a5760048036036020811015610a4157600080fd5b8101908080359060200190929190505050611cc3565b6040518082815260200191505060405180910390f35b610a9960048036036020811015610a8357600080fd5b8101908080359060200190929190505050611cf5565b6040518082815260200191505060405180910390f35b610ab7611d1a565b6040518082815260200191505060405180910390f35b610b0f60048036036020811015610ae357600080fd5b81019080803573ffffffffffffffffffffffffffffffffffffffff169060200190929190505050611d20565b005b610b3d60048036036020811015610b2757600080fd5b8101908080359060200190929190505050611e6a565b604051808215151515815260200191505060405180910390f35b610b5f611e94565b6040518082815260200191505060405180910390f35b610b7d611e9a565b6040518082815260200191505060405180910390f35b610b9b611ea0565b005b610bc960048036036020811015610bb357600080fd5b81019080803590602001909291905050506122b3565b604051808215151515815260200191505060405180910390f35b610c2560048036036020811015610bf957600080fd5b81019080803573ffffffffffffffffffffffffffffffffffffffff1690602001909291905050506122c8565b005b610c7360048036036040811015610c3d57600080fd5b8101908080359060200190929190803573ffffffffffffffffffffffffffffffffffffffff16906020019092919050505061234e565b005b610c7d61260c565b604051808215151515815260200191505060405180910390f35b610ce360048036036040811015610cad57600080fd5b8101908080359060200190929190803573ffffffffffffffffffffffffffffffffffffffff16906020019092919050505061261f565b6040518082815260200191505060405180910390f35b610d016127c6565b604051808273ffffffffffffffffffffffffffffffffffffffff1673ffffffffffffffffffffffffffffffffffffffff16815260200191505060405180910390f35b6000806009805490509050808310915050919050565b610d61611892565b610dd3576040517f08c379a00000000000000000000000000000000000000000000000000000000081526004018080602001828103825260208152602001807f4f776e61626c653a2063616c6c6572206973206e6f7420746865206f776e657281525060200191505060405180910390fd5b6001600d60006101000a81548160ff021916908315150217905550565b60055481565b600080601660009054906101000a900473ffffffffffffffffffffffffffffffffffffffff1673ffffffffffffffffffffffffffffffffffffffff1663ba7bffd3846040518263ffffffff1660e01b8152600401808273ffffffffffffffffffffffffffffffffffffffff1673ffffffffffffffffffffffffffffffffffffffff16815260200191505060206040518083038186803b158015610e9857600080fd5b505afa158015610eac573d6000803e3d6000fd5b505050506040513d6020811015610ec257600080fd5b81019080805190602001909291905050509050601360008273ffffffffffffffffffffffffffffffffffffffff1673ffffffffffffffffffffffffffffffffffffffff16815260200190815260200160002060008581526020019081526020016000205491505092915050565b6000610f3a826127ec565b8015610f4b5750610f4a82612958565b5b8015610f5d5750610f5b82611e6a565b155b9050919050565b6000600280549050905090565b80610f7b816122b3565b610fed576040517f08c379a00000000000000000000000000000000000000000000000000000000081526004018080602001828103825260198152602001807f496e74657276616c206861736e277420656e646564207965740000000000000081525060200191505060405180910390fd5b600d60009054906101000a900460ff1661106f576040517f08c379a00000000000000000000000000000000000000000000000000000000081526004018080602001828103825260208152602001807f436f6e747261637420686173206e6f74206265656e2066756e6465642079657481525060200191505060405180910390fd5b60006009805490509050808310156110ef576040517f08c379a000000000000000000000000000000000000000000000000000000000815260040180806020018281038252601a8152602001807f496e74657276616c20616c726561647920616c6c6f636174656400000000000081525060200191505060405180910390fd5b808311156111145761111361110e600185612a6790919063ffffffff16565b610f71565b5b600061111f84612af0565b905061113681600654612a6790919063ffffffff16565b600681905550600981908060018154018082558091505090600182039060005260206000200160009091929091909150555050505050565b60065481565b600060098054905082106111f0576040517f08c379a000000000000000000000000000000000000000000000000000000000815260040180806020018281038252601a8152602001807f496e74657276616c206e6f7420616c6c6f63617465642079657400000000000081525060200191505060405180910390fd5b600982815481106111fd57fe5b90600052602060002001549050919050565b600060028054905082101561123d576002828154811061122b57fe5b90600052602060002001549050611260565b60026001600280549050038154811061125257fe5b906000526020600020015490505b919050565b60008090505b815181101561129d5761129082828151811061128357fe5b60200260200101516113da565b808060010191505061126b565b5050565b600080601660009054906101000a900473ffffffffffffffffffffffffffffffffffffffff1673ffffffffffffffffffffffffffffffffffffffff1663ba7bffd3846040518263ffffffff1660e01b8152600401808273ffffffffffffffffffffffffffffffffffffffff1673ffffffffffffffffffffffffffffffffffffffff16815260200191505060206040518083038186803b15801561134357600080fd5b505afa158015611357573d6000803e3d6000fd5b505050506040513d602081101561136d57600080fd5b81019080805190602001909291905050509050601460008273ffffffffffffffffffffffffffffffffffffffff1673ffffffffffffffffffffffffffffffffffffffff16815260200190815260200160002060008581526020019081526020016000205491505092915050565b806113e4816127ec565b611456576040517f08c379a000000000000000000000000000000000000000000000000000000000815260040180806020018281038252601e8152602001807f4b656570206e6f74207265636f676e697a656420627920666163746f7279000081525060200191505060405180910390fd5b8161146081611e6a565b156114d3576040517f08c379a00000000000000000000000000000000000000000000000000000000081526004018080602001828103825260178152602001807f5265776172647320616c726561647920636c61696d656400000000000000000081525060200191505060405180910390fd5b826114dd81612958565b61154f576040517f08c379a00000000000000000000000000000000000000000000000000000000081526004018080602001828103825260128152602001807f4b656570206973206e6f7420636c6f736564000000000000000000000000000081525060200191505060405180910390fd5b61155a600185612b73565b50505050565b600c6020528060005260406000206000915090505481565b611580611892565b6115f2576040517f08c379a00000000000000000000000000000000000000000000000000000000081526004018080602001828103825260208152602001807f4f776e61626c653a2063616c6c6572206973206e6f7420746865206f776e657281525060200191505060405180910390fd5b600073ffffffffffffffffffffffffffffffffffffffff166000809054906101000a900473ffffffffffffffffffffffffffffffffffffffff1673ffffffffffffffffffffffffffffffffffffffff167f8be0079c531659141344cd1fd0a4f28419497f9722a3daafe3b4186f6b6457e060405160405180910390a360008060006101000a81548173ffffffffffffffffffffffffffffffffffffffff021916908373ffffffffffffffffffffffffffffffffffffffff160217905550565b60115481565b60035481565b601060009054906101000a900473ffffffffffffffffffffffffffffffffffffffff1681565b806116ed816127ec565b61175f576040517f08c379a000000000000000000000000000000000000000000000000000000000815260040180806020018281038252601e8152602001807f4b656570206e6f74207265636f676e697a656420627920666163746f7279000081525060200191505060405180910390fd5b8161176981611e6a565b156117dc576040517f08c379a00000000000000000000000000000000000000000000000000000000081526004018080602001828103825260178152602001807f5265776172647320616c726561647920636c61696d656400000000000000000081525060200191505060405180910390fd5b826117e681612cd0565b611858576040517f08c379a00000000000000000000000000000000000000000000000000000000081526004018080602001828103825260168152602001807f4b656570206973206e6f74207465726d696e617465640000000000000000000081525060200191505060405180910390fd5b611863600085612b73565b50505050565b60008060009054906101000a900473ffffffffffffffffffffffffffffffffffffffff16905090565b60008060009054906101000a900473ffffffffffffffffffffffffffffffffffffffff1673ffffffffffffffffffffffffffffffffffffffff163373ffffffffffffffffffffffffffffffffffffffff1614905090565b600160009054906101000a900473ffffffffffffffffffffffffffffffffffffffff1673ffffffffffffffffffffffffffffffffffffffff168273ffffffffffffffffffffffffffffffffffffffff16146119ac576040517f08c379a00000000000000000000000000000000000000000000000000000000081526004018080602001828103825260118152602001807f556e737570706f7274656420746f6b656e00000000000000000000000000000081525060200191505060405180910390fd5b6119fb843085600160009054906101000a900473ffffffffffffffffffffffffffffffffffffffff1673ffffffffffffffffffffffffffffffffffffffff16612ddf909392919063ffffffff16565b6000600160009054906101000a900473ffffffffffffffffffffffffffffffffffffffff1673ffffffffffffffffffffffffffffffffffffffff166370a08231306040518263ffffffff1660e01b8152600401808273ffffffffffffffffffffffffffffffffffffffff1673ffffffffffffffffffffffffffffffffffffffff16815260200191505060206040518083038186803b158015611a9c57600080fd5b505afa158015611ab0573d6000803e3d6000fd5b505050506040513d6020811015611ac657600080fd5b810190808051906020019092919050505090506000611af2600754600554612a6790919063ffffffff16565b905080821015611b6a576040517f08c379a000000000000000000000000000000000000000000000000000000000815260040180806020018281038252601f8152602001807f52657761726420636f6e747261637420686173206c6f737420746f6b656e730081525060200191505060405180910390fd5b6000611b7f8284612a6790919063ffffffff16565b9050611b9681600554612ee590919063ffffffff16565b600581905550611ba581612f6d565b50505050505050565b60028181548110611bbb57fe5b906000526020600020016000915090505481565b600e5481565b60085481565b6000611be6826127ec565b8015611bf75750611bf682612cd0565b5b9050919050565b60008090505b8151811015611c3657611c29828281518110611c1c57fe5b60200260200101516116e3565b8080600101915050611c04565b5050565b6000611c5f611c4883613143565b611c518461317a565b612a6790919063ffffffff16565b9050919050565b60008060085490506000600354905081841015611c8857600092505050611cbe565b6000611c9d8386612a6790919063ffffffff16565b90506000611cb4838361326690919063ffffffff16565b9050809450505050505b919050565b6000611cee611cdd600354846132f590919063ffffffff16565b600854612ee590919063ffffffff16565b9050919050565b6000611d13611d0e600184612ee590919063ffffffff16565b611cc3565b9050919050565b60045481565b611d28611892565b611d9a576040517f08c379a00000000000000000000000000000000000000000000000000000000081526004018080602001828103825260208152602001807f4f776e61626c653a2063616c6c6572206973206e6f7420746865206f776e657281525060200191505060405180910390fd5b42600e8190555080601060006101000a81548173ffffffffffffffffffffffffffffffffffffffff021916908373ffffffffffffffffffffffffffffffffffffffff1602179055507f4508cb0974b8dda93dec7c130aa186db2705fcee58bc00d1334726761835aca1601060009054906101000a900473ffffffffffffffffffffffffffffffffffffffff16604051808273ffffffffffffffffffffffffffffffffffffffff1673ffffffffffffffffffffffffffffffffffffffff16815260200191505060405180910390a150565b6000600a600083815260200190815260200160002060009054906101000a900460ff169050919050565b600f5481565b60075481565b611ea8611892565b611f1a576040517f08c379a00000000000000000000000000000000000000000000000000000000081526004018080602001828103825260208152602001807f4f776e61626c653a2063616c6c6572206973206e6f7420746865206f776e657281525060200191505060405180910390fd5b6000600e541415611f93576040517f08c379a00000000000000000000000000000000000000000000000000000000081526004018080602001828103825260158152602001807f55706772616465206e6f7420696e69746961746564000000000000000000000081525060200191505060405180910390fd5b6000611f9e42611c66565b90506000611fad600e54611c66565b9050808211612007576040517f08c379a000000000000000000000000000000000000000000000000000000000815260040180806020018281038252603c8152602001806142e7603c913960400191505060405180910390fd5b61202361201e600184612a6790919063ffffffff16565b610d43565b6120445761204361203e600184612a6790919063ffffffff16565b610f71565b5b6000600654905061206081600554612a6790919063ffffffff16565b60058190555060006006819055507f89f5b857dbf5a32a4fa55162349dc1146850c9b76ff05bedf3a47b3f14095c0a816040518082815260200191505060405180910390a16000600160009054906101000a900473ffffffffffffffffffffffffffffffffffffffff1673ffffffffffffffffffffffffffffffffffffffff1663cae9ca51601060009054906101000a900473ffffffffffffffffffffffffffffffffffffffff1684604051806020016040528060008152506040518463ffffffff1660e01b8152600401808473ffffffffffffffffffffffffffffffffffffffff1673ffffffffffffffffffffffffffffffffffffffff16815260200183815260200180602001828103825283818151815260200191508051906020019080838360005b838110156121a0578082015181840152602081019050612185565b50505050905090810190601f1680156121cd5780820380516001836020036101000a031916815260200191505b50945050505050602060405180830381600087803b1580156121ee57600080fd5b505af1158015612202573d6000803e3d6000fd5b505050506040513d602081101561221857600080fd5b810190808051906020019092919050505090508061229e576040517f08c379a000000000000000000000000000000000000000000000000000000000815260040180806020018281038252601b8152602001807f557067726164652066696e616c697a6174696f6e206661696c6564000000000081525060200191505060405180910390fd5b6000600e8190555042600f8190555050505050565b60006122be82611cf5565b4210159050919050565b6122d0611892565b612342576040517f08c379a00000000000000000000000000000000000000000000000000000000081526004018080602001828103825260208152602001807f4f776e61626c653a2063616c6c6572206973206e6f7420746865206f776e657281525060200191505060405180910390fd5b61234b8161337b565b50565b6000601660009054906101000a900473ffffffffffffffffffffffffffffffffffffffff1673ffffffffffffffffffffffffffffffffffffffff1663ba7bffd3836040518263ffffffff1660e01b8152600401808273ffffffffffffffffffffffffffffffffffffffff1673ffffffffffffffffffffffffffffffffffffffff16815260200191505060206040518083038186803b1580156123ef57600080fd5b505afa158015612403573d6000803e3d6000fd5b505050506040513d602081101561241957600080fd5b810190808051906020019092919050505090506000601360008373ffffffffffffffffffffffffffffffffffffffff1673ffffffffffffffffffffffffffffffffffffffff16815260200190815260200160002060008581526020019081526020016000205490506000601460008473ffffffffffffffffffffffffffffffffffffffff1673ffffffffffffffffffffffffffffffffffffffff168152602001908152602001600020600086815260200190815260200160002054905080821161254b576040517f08c379a00000000000000000000000000000000000000000000000000000000081526004018080602001828103825260168152602001807f4e6f207265776172647320746f2077697468647261770000000000000000000081525060200191505060405180910390fd5b60006125608284612a6790919063ffffffff16565b905082601460008673ffffffffffffffffffffffffffffffffffffffff1673ffffffffffffffffffffffffffffffffffffffff1681526020019081526020016000206000888152602001908152602001600020819055506126048482600160009054906101000a900473ffffffffffffffffffffffffffffffffffffffff1673ffffffffffffffffffffffffffffffffffffffff166134bf9092919063ffffffff16565b505050505050565b600d60009054906101000a900460ff1681565b600080601660009054906101000a900473ffffffffffffffffffffffffffffffffffffffff1673ffffffffffffffffffffffffffffffffffffffff1663ba7bffd3846040518263ffffffff1660e01b8152600401808273ffffffffffffffffffffffffffffffffffffffff1673ffffffffffffffffffffffffffffffffffffffff16815260200191505060206040518083038186803b1580156126c157600080fd5b505afa1580156126d5573d6000803e3d6000fd5b505050506040513d60208110156126eb57600080fd5b810190808051906020019092919050505090506000601360008373ffffffffffffffffffffffffffffffffffffffff1673ffffffffffffffffffffffffffffffffffffffff16815260200190815260200160002060008681526020019081526020016000205490506000601460008473ffffffffffffffffffffffffffffffffffffffff1673ffffffffffffffffffffffffffffffffffffffff16815260200190815260200160002060008781526020019081526020016000205490506127bb8183612a6790919063ffffffff16565b935050505092915050565b600160009054906101000a900473ffffffffffffffffffffffffffffffffffffffff1681565b6000816127f881613590565b61286a576040517f08c379a00000000000000000000000000000000000000000000000000000000081526004018080602001828103825260148152602001807f496e76616c6964206b656570206164647265737300000000000000000000000081525060200191505060405180910390fd5b6000601560009054906101000a900473ffffffffffffffffffffffffffffffffffffffff1673ffffffffffffffffffffffffffffffffffffffff1663d14fede16128b3866135ac565b6040518263ffffffff1660e01b8152600401808273ffffffffffffffffffffffffffffffffffffffff1673ffffffffffffffffffffffffffffffffffffffff16815260200191505060206040518083038186803b15801561291357600080fd5b505afa158015612927573d6000803e3d6000fd5b505050506040513d602081101561293d57600080fd5b81019080805190602001909291905050501415915050919050565b60008161296481613590565b6129d6576040517f08c379a00000000000000000000000000000000000000000000000000000000081526004018080602001828103825260148152602001807f496e76616c6964206b656570206164647265737300000000000000000000000081525060200191505060405180910390fd5b6129df836135ac565b73ffffffffffffffffffffffffffffffffffffffff1663c2b6b58c6040518163ffffffff1660e01b815260040160206040518083038186803b158015612a2457600080fd5b505afa158015612a38573d6000803e3d6000fd5b505050506040513d6020811015612a4e57600080fd5b8101908080519060200190929190505050915050919050565b600082821115612adf576040517f08c379a000000000000000000000000000000000000000000000000000000000815260040180806020018281038252601e8152602001807f536166654d6174683a207375627472616374696f6e206f766572666c6f77000081525060200191505060405180910390fd5b600082840390508091505092915050565b600080612afc836135b9565b90506000811415612b11576000915050612b6e565b6000612b1c84611c3a565b90506000612b2c826004546135fd565b90506000811415612b435760009350505050612b6e565b612b6881612b5a84866132f590919063ffffffff16565b61326690919063ffffffff16565b93505050505b919050565b6000612b7e82613617565b90506000612b8b82611c66565b9050612b9681610d43565b612ba457612ba381610f71565b5b600060098281548110612bb357fe5b906000526020600020015490506000612bcb83611c3a565b90506000612be2828461326690919063ffffffff16565b90506001600a600088815260200190815260200160002060006101000a81548160ff021916908315150217905550612c376001600c600087815260200190815260200160002054612ee590919063ffffffff16565b600c6000868152602001908152602001600020819055508615612cbd57612c6981600754612ee590919063ffffffff16565b600781905550612c79868261377f565b7ff8fcbb083cc485f0dc726d4235dbec7c9c5c03af58254f3536275035772161708682604051808381526020018281526020019250505060405180910390a1612cc7565b612cc681612f6d565b5b50505050505050565b600081612cdc81613590565b612d4e576040517f08c379a00000000000000000000000000000000000000000000000000000000081526004018080602001828103825260148152602001807f496e76616c6964206b656570206164647265737300000000000000000000000081525060200191505060405180910390fd5b612d57836135ac565b73ffffffffffffffffffffffffffffffffffffffff1663d1cc99766040518163ffffffff1660e01b815260040160206040518083038186803b158015612d9c57600080fd5b505afa158015612db0573d6000803e3d6000fd5b505050506040513d6020811015612dc657600080fd5b8101908080519060200190929190505050915050919050565b612edf848573ffffffffffffffffffffffffffffffffffffffff166323b872dd905060e01b858585604051602401808473ffffffffffffffffffffffffffffffffffffffff1673ffffffffffffffffffffffffffffffffffffffff1681526020018373ffffffffffffffffffffffffffffffffffffffff1673ffffffffffffffffffffffffffffffffffffffff1681526020018281526020019350505050604051602081830303815290604052907bffffffffffffffffffffffffffffffffffffffffffffffffffffffff19166020820180517bffffffffffffffffffffffffffffffffffffffffffffffffffffffff8381831617835250505050613c2d565b50505050565b600080828401905083811015612f63576040517f08c379a000000000000000000000000000000000000000000000000000000000815260040180806020018281038252601b8152602001807f536166654d6174683a206164646974696f6e206f766572666c6f77000000000081525060200191505060405180910390fd5b8091505092915050565b6000600f5414613124576000600160009054906101000a900473ffffffffffffffffffffffffffffffffffffffff1673ffffffffffffffffffffffffffffffffffffffff1663cae9ca51601060009054906101000a900473ffffffffffffffffffffffffffffffffffffffff1684604051806020016040528060008152506040518463ffffffff1660e01b8152600401808473ffffffffffffffffffffffffffffffffffffffff1673ffffffffffffffffffffffffffffffffffffffff16815260200183815260200180602001828103825283818151815260200191508051906020019080838360005b83811015613072578082015181840152602081019050613057565b50505050905090810190601f16801561309f5780820380516001836020036101000a031916815260200191505b50945050505050602060405180830381600087803b1580156130c057600080fd5b505af11580156130d4573d6000803e3d6000fd5b505050506040513d60208110156130ea57600080fd5b810190808051906020019092919050505090508061311e5761311782600654612ee590919063ffffffff16565b6006819055505b50613140565b61313981600654612ee590919063ffffffff16565b6006819055505b50565b6000808214156131565760009050613175565b61317261316d600184612a6790919063ffffffff16565b61317a565b90505b919050565b600081613186816122b3565b6131f8576040517f08c379a00000000000000000000000000000000000000000000000000000000081526004018080602001828103825260198152602001807f496e74657276616c206861736e277420656e646564207965740000000000000081525060200191505060405180910390fd5b6000600b6000858152602001908152602001600020549050600081141561325857600061322c61322786611cf5565b613e78565b90506000811461324f5780600b6000878152602001908152602001600020819055505b8093505061325c565b8092505b8292505050919050565b60008082116132dd576040517f08c379a000000000000000000000000000000000000000000000000000000000815260040180806020018281038252601a8152602001807f536166654d6174683a206469766973696f6e206279207a65726f00000000000081525060200191505060405180910390fd5b60008284816132e857fe5b0490508091505092915050565b6000808314156133085760009050613375565b600082840290508284828161331957fe5b0414613370576040517f08c379a000000000000000000000000000000000000000000000000000000000815260040180806020018281038252602181526020018061429c6021913960400191505060405180910390fd5b809150505b92915050565b600073ffffffffffffffffffffffffffffffffffffffff168173ffffffffffffffffffffffffffffffffffffffff161415613401576040517f08c379a00000000000000000000000000000000000000000000000000000000081526004018080602001828103825260268152602001806142766026913960400191505060405180910390fd5b8073ffffffffffffffffffffffffffffffffffffffff166000809054906101000a900473ffffffffffffffffffffffffffffffffffffffff1673ffffffffffffffffffffffffffffffffffffffff167f8be0079c531659141344cd1fd0a4f28419497f9722a3daafe3b4186f6b6457e060405160405180910390a3806000806101000a81548173ffffffffffffffffffffffffffffffffffffffff021916908373ffffffffffffffffffffffffffffffffffffffff16021790555050565b61358b838473ffffffffffffffffffffffffffffffffffffffff1663a9059cbb905060e01b8484604051602401808373ffffffffffffffffffffffffffffffffffffffff1673ffffffffffffffffffffffffffffffffffffffff16815260200182815260200192505050604051602081830303815290604052907bffffffffffffffffffffffffffffffffffffffffffffffffffffffff19166020820180517bffffffffffffffffffffffffffffffffffffffffffffffffffffffff8381831617835250505050613c2d565b505050565b6000816135a461359f846135ac565b613f98565b149050919050565b60008160601c9050919050565b600080600654905060006135cc8461120f565b90506135f460646135e683856132f590919063ffffffff16565b61326690919063ffffffff16565b92505050919050565b60008183101561360d578161360f565b825b905092915050565b60008161362381613590565b613695576040517f08c379a00000000000000000000000000000000000000000000000000000000081526004018080602001828103825260148152602001807f496e76616c6964206b656570206164647265737300000000000000000000000081525060200191505060405180910390fd5b601560009054906101000a900473ffffffffffffffffffffffffffffffffffffffff1673ffffffffffffffffffffffffffffffffffffffff1663d14fede16136dc856135ac565b6040518263ffffffff1660e01b8152600401808273ffffffffffffffffffffffffffffffffffffffff1673ffffffffffffffffffffffffffffffffffffffff16815260200191505060206040518083038186803b15801561373c57600080fd5b505afa158015613750573d6000803e3d6000fd5b505050506040513d602081101561376657600080fd5b8101908080519060200190929190505050915050919050565b8161378981613590565b6137fb576040517f08c379a00000000000000000000000000000000000000000000000000000000081526004018080602001828103825260148152602001807f496e76616c6964206b656570206164647265737300000000000000000000000081525060200191505060405180910390fd5b6060613806846135ac565b73ffffffffffffffffffffffffffffffffffffffff16639eab52536040518163ffffffff1660e01b815260040160006040518083038186803b15801561384b57600080fd5b505afa15801561385f573d6000803e3d6000fd5b505050506040513d6000823e3d601f19601f82011682018060405250602081101561388957600080fd5b81019080805160405193929190846401000000008211156138a957600080fd5b838201915060208201858111156138bf57600080fd5b82518660208202830111640100000000821117156138dc57600080fd5b8083526020830192505050908051906020019060200280838360005b838110156139135780820151818401526020810190506138f8565b505050509050016040525050509050600061393561393086613617565b611c66565b90506000825190506000613952828761326690919063ffffffff16565b905060006139698388613fb490919063ffffffff16565b905060608360405190808252806020026020018201604052801561399c5781602001602082028038833980820191505090505b50905060008090505b600185038110156139d657838282815181106139bd57fe5b60200260200101818152505080806001019150506139a5565b506139ea8284612ee590919063ffffffff16565b8160018603815181106139f957fe5b60200260200101818152505060008090505b84811015613c21576000601660009054906101000a900473ffffffffffffffffffffffffffffffffffffffff1673ffffffffffffffffffffffffffffffffffffffff1663ba7bffd3898481518110613a5f57fe5b60200260200101516040518263ffffffff1660e01b8152600401808273ffffffffffffffffffffffffffffffffffffffff1673ffffffffffffffffffffffffffffffffffffffff16815260200191505060206040518083038186803b158015613ac757600080fd5b505afa158015613adb573d6000803e3d6000fd5b505050506040513d6020811015613af157600080fd5b810190808051906020019092919050505090506000838381518110613b1257fe5b602002602001015190506000601360008473ffffffffffffffffffffffffffffffffffffffff1673ffffffffffffffffffffffffffffffffffffffff16815260200190815260200160002060008a81526020019081526020016000205490506000613b868383612ee590919063ffffffff16565b9050601154811115613bbb576000613ba960115483612a6790919063ffffffff16565b90506011549150613bb981612f6d565b505b80601360008673ffffffffffffffffffffffffffffffffffffffff1673ffffffffffffffffffffffffffffffffffffffff16815260200190815260200160002060008c815260200190815260200160002081905550505050508080600101915050613a0b565b50505050505050505050565b613c4c8273ffffffffffffffffffffffffffffffffffffffff1661403e565b613cbe576040517f08c379a000000000000000000000000000000000000000000000000000000000815260040180806020018281038252601f8152602001807f5361666545524332303a2063616c6c20746f206e6f6e2d636f6e74726163740081525060200191505060405180910390fd5b600060608373ffffffffffffffffffffffffffffffffffffffff16836040518082805190602001908083835b60208310613d0d5780518252602082019150602081019050602083039250613cea565b6001836020036101000a0380198251168184511680821785525050505050509050019150506000604051808303816000865af19150503d8060008114613d6f576040519150601f19603f3d011682016040523d82523d6000602084013e613d74565b606091505b509150915081613dec576040517f08c379a00000000000000000000000000000000000000000000000000000000081526004018080602001828103825260208152602001807f5361666545524332303a206c6f772d6c6576656c2063616c6c206661696c656481525060200191505060405180910390fd5b600081511115613e7257808060200190516020811015613e0b57600080fd5b8101908080519060200190929190505050613e71576040517f08c379a000000000000000000000000000000000000000000000000000000000815260040180806020018281038252602a8152602001806142bd602a913960400191505060405180910390fd5b5b50505050565b600042821115613ef0576040517f08c379a00000000000000000000000000000000000000000000000000000000081526004018080602001828103825260198152602001807f696e74657276616c206861736e277420656e646564207965740000000000000081525060200191505060405180910390fd5b6000613efa614051565b90506000811415613f0f576000915050613f93565b60008090506000613f27613f22836140fb565b613617565b9050848110613f3c5760009350505050613f93565b6000613f52600185612a6790919063ffffffff16565b90506000613f67613f62836140fb565b613617565b905086811015613f7e578495505050505050613f93565b613f8b848484848b6141ba565b955050505050505b919050565b60008160601b6bffffffffffffffffffffffff19169050919050565b60008082141561402c576040517f08c379a00000000000000000000000000000000000000000000000000000000081526004018080602001828103825260188152602001807f536166654d6174683a206d6f64756c6f206279207a65726f000000000000000081525060200191505060405180910390fd5b81838161403557fe5b06905092915050565b600080823b905060008111915050919050565b6000601560009054906101000a900473ffffffffffffffffffffffffffffffffffffffff1673ffffffffffffffffffffffffffffffffffffffff1663b2dc75936040518163ffffffff1660e01b815260040160206040518083038186803b1580156140bb57600080fd5b505afa1580156140cf573d6000803e3d6000fd5b505050506040513d60208110156140e557600080fd5b8101908080519060200190929190505050905090565b60006141b3601560009054906101000a900473ffffffffffffffffffffffffffffffffffffffff1673ffffffffffffffffffffffffffffffffffffffff1663202bb9f0846040518263ffffffff1660e01b81526004018082815260200191505060206040518083038186803b15801561417357600080fd5b505afa158015614187573d6000803e3d6000fd5b505050506040513d602081101561419d57600080fd5b8101908080519060200190929190505050613f98565b9050919050565b60008086905060008690506000869050600086905060006141e48584612a6790919063ffffffff16565b90505b600181111561426457600061421861420960028461326690919063ffffffff16565b87612ee590919063ffffffff16565b9050600061422d614228836140fb565b613617565b905088811061424157819450809350614248565b8196508095505b61425b8786612a6790919063ffffffff16565b925050506141e7565b82955050505050509594505050505056fe4f776e61626c653a206e6577206f776e657220697320746865207a65726f2061646472657373536166654d6174683a206d756c7469706c69636174696f6e206f766572666c6f775361666545524332303a204552433230206f7065726174696f6e20646964206e6f742073756363656564496e74657276616c2061742077686963682074686520757067726164652077617320696e69746961746564206861736e277420656e64656420796574a265627a7a72315820da88832bb7f9d03d18a05356541d35bf157fcd324270d6dabf334e9b7c7922a564736f6c63430005110032",
  "source": "/**\n     \n   \n                            \n                             \n                          \n                           \n                          \n     \n     \n\n                           Trust math, not hardware.\n*/\n\npragma solidity 0.5.17;\n\nimport \"@keep-network/keep-core/contracts/Rewards.sol\";\nimport \"./BondedECDSAKeepFactory.sol\";\nimport \"./BondedECDSAKeep.sol\";\n\n/// @title KEEP ECDSA Signer Subsidy Rewards for the Sep 2020 release.\n/// @notice Contract distributes KEEP rewards to signers that were part of\n/// the keeps which were created by the BondedECDSAKeepFactory contract.\n///\n/// The amount of KEEP to be distributed is determined by funding the contract,\n/// and additional KEEP can be added at any time.\n///\n/// When an interval is over, it will be allocated a percentage of the remaining\n/// unallocated rewards based on its weight, and adjusted by the number of keeps\n/// created in the interval if the quota is not met.\n///\n/// The adjustment for not meeting the keep quota is a percentage that equals\n/// the percentage of the quota that was met; if the number of keeps created is\n/// 80% of the quota then 80% of the base reward will be allocated for the\n/// interval.\n///\n/// Any unallocated rewards will stay in the unallocated rewards pool,\n/// to be allocated for future intervals. Intervals past the initially defined\n/// schedule have a weight of the last scheduled interval.\n///\n/// Keeps can receive rewards once the interval they were created in is over,\n/// and the keep has been marked as closed.\n/// There is no time limit to receiving rewards, nor is there need to wait for\n/// all keeps from the interval to be marked as closed.\n/// Calling `receiveReward` automatically allocates the rewards for the interval\n/// the specified keep was created in and all previous intervals.\n///\n/// If a keep is terminated, that fact can be reported to the reward contract.\n/// Reporting a terminated keep returns its allocated reward to the pool of\n/// unallocated rewards.\ncontract ECDSARewards is Rewards {\n    // The amount of tokens each individual beneficiary address\n    // can receive in a single interval is capped to 3M tokens.\n    uint256 public beneficiaryRewardCap = 3000000 * 10**18;\n\n    // BondedECDSAKeepFactory deployment date, Sep-14-2020 interval started.\n    // https://etherscan.io/address/0xA7d9E842EFB252389d613dA88EDa3731512e40bD\n    uint256 internal constant ecdsaFirstIntervalStart = 1600041600;\n\n    /// Weights of the 24 reward intervals assigned over\n    // 24 * termLength days.\n    uint256[] internal intervalWeights = [\n        4,\n        8,\n        10,\n        12,\n        15,\n        15,\n        15,\n        15,\n        15,\n        15,\n        15,\n        15,\n        15,\n        15,\n        15,\n        15,\n        15,\n        15,\n        15,\n        15,\n        15,\n        15,\n        15,\n        15\n    ];\n\n    // Each interval is 30 days long.\n    uint256 internal constant termLength = 30 days;\n\n    uint256 internal constant minimumECDSAKeepsPerInterval = 1000;\n\n    // The total amount of rewards allocated to the given beneficiary address,\n    // in the given interval.\n    // `allocatedRewards[beneficiary][interval] -> amount`\n    mapping(address => mapping(uint256 => uint256)) internal allocatedRewards;\n    // The amount of interval rewards withdrawn to the given beneficiary.\n    mapping(address => mapping(uint256 => uint256)) internal withdrawnRewards;\n\n    BondedECDSAKeepFactory internal factory;\n    TokenStaking internal tokenStaking;\n\n    constructor(\n        address _token,\n        address payable _factoryAddress,\n        address _tokenStakingAddress\n    )\n        public\n        Rewards(\n            _token,\n            ecdsaFirstIntervalStart,\n            intervalWeights,\n            termLength,\n            minimumECDSAKeepsPerInterval\n        )\n    {\n        factory = BondedECDSAKeepFactory(_factoryAddress);\n        tokenStaking = TokenStaking(_tokenStakingAddress);\n    }\n\n    /// @notice Get the amount of rewards allocated\n    /// for the specified operator's beneficiary in the specified interval.\n    /// @param interval The interval\n    /// @param operator The operator\n    /// @return The amount allocated\n    function getAllocatedRewards(uint256 interval, address operator)\n        external\n        view\n        returns (uint256)\n    {\n        address beneficiary = tokenStaking.beneficiaryOf(operator);\n        return allocatedRewards[beneficiary][interval];\n    }\n\n    /// @notice Get the amount of rewards already withdrawn\n    /// for the specified operator's beneficiary in the specified interval.\n    /// @param interval The interval\n    /// @param operator The operator\n    /// @return The amount already withdrawn\n    function getWithdrawnRewards(uint256 interval, address operator)\n        external\n        view\n        returns (uint256)\n    {\n        address beneficiary = tokenStaking.beneficiaryOf(operator);\n        return withdrawnRewards[beneficiary][interval];\n    }\n\n    /// @notice Get the amount of rewards withdrawable\n    /// for the specified operator's beneficiary in the specified interval.\n    /// @param interval The interval\n    /// @param operator The operator\n    /// @return The amount withdrawable\n    function getWithdrawableRewards(uint256 interval, address operator)\n        external\n        view\n        returns (uint256)\n    {\n        address beneficiary = tokenStaking.beneficiaryOf(operator);\n        uint256 allocated = allocatedRewards[beneficiary][interval];\n        uint256 withdrawn = withdrawnRewards[beneficiary][interval];\n        return allocated.sub(withdrawn);\n    }\n\n    /// @notice Withdraw all available rewards for the given interval.\n    /// The rewards will be paid to the beneficiary of the specified operator.\n    /// @param interval The interval\n    /// @param operator The operator\n    function withdrawRewards(uint256 interval, address operator) external {\n        address beneficiary = tokenStaking.beneficiaryOf(operator);\n\n        uint256 allocated = allocatedRewards[beneficiary][interval];\n        uint256 alreadyWithdrawn = withdrawnRewards[beneficiary][interval];\n\n        require(allocated > alreadyWithdrawn, \"No rewards to withdraw\");\n\n        uint256 withdrawableRewards = allocated.sub(alreadyWithdrawn);\n\n        withdrawnRewards[beneficiary][interval] = allocated;\n\n        token.safeTransfer(beneficiary, withdrawableRewards);\n    }\n\n    function _getKeepCount() internal view returns (uint256) {\n        return factory.getKeepCount();\n    }\n\n    function _getKeepAtIndex(uint256 i) internal view returns (bytes32) {\n        return fromAddress(factory.getKeepAtIndex(i));\n    }\n\n    function _getCreationTime(bytes32 _keep)\n        internal\n        view\n        isAddress(_keep)\n        returns (uint256)\n    {\n        return factory.getKeepOpenedTimestamp(toAddress(_keep));\n    }\n\n    function _isClosed(bytes32 _keep)\n        internal\n        view\n        isAddress(_keep)\n        returns (bool)\n    {\n        return BondedECDSAKeep(toAddress(_keep)).isClosed();\n    }\n\n    function _isTerminated(bytes32 _keep)\n        internal\n        view\n        isAddress(_keep)\n        returns (bool)\n    {\n        return BondedECDSAKeep(toAddress(_keep)).isTerminated();\n    }\n\n    // A keep is recognized if it was opened by this factory.\n    function _recognizedByFactory(bytes32 _keep)\n        internal\n        view\n        isAddress(_keep)\n        returns (bool)\n    {\n        return factory.getKeepOpenedTimestamp(toAddress(_keep)) != 0;\n    }\n\n    /// @notice Get the members of the specified keep, and distribute the reward\n    /// amount between them. The reward isn't paid out immediately,\n    /// but is instead kept in the reward contract until each operator\n    /// individually requests to withdraw the rewards.\n    function _distributeReward(bytes32 _keep, uint256 amount)\n        internal\n        isAddress(_keep)\n    {\n        address[] memory members = BondedECDSAKeep(toAddress(_keep))\n            .getMembers();\n        uint256 interval = intervalOf(_getCreationTime(_keep));\n\n        uint256 memberCount = members.length;\n        uint256 dividend = amount.div(memberCount);\n        uint256 remainder = amount.mod(memberCount);\n\n        uint256[] memory allocations = new uint256[](memberCount);\n\n        for (uint256 i = 0; i < memberCount - 1; i++) {\n            allocations[i] = dividend;\n        }\n        allocations[memberCount - 1] = dividend.add(remainder);\n\n        for (uint256 i = 0; i < memberCount; i++) {\n            address beneficiary = tokenStaking.beneficiaryOf(members[i]);\n            uint256 addedAllocation = allocations[i];\n            uint256 prevAllocated = allocatedRewards[beneficiary][interval];\n            uint256 newAllocation = prevAllocated.add(addedAllocation);\n            if (newAllocation > beneficiaryRewardCap) {\n                uint256 deallocatedAmount = newAllocation.sub(\n                    beneficiaryRewardCap\n                );\n                newAllocation = beneficiaryRewardCap;\n                deallocate(deallocatedAmount);\n            }\n            allocatedRewards[beneficiary][interval] = newAllocation;\n        }\n    }\n\n    function toAddress(bytes32 keepBytes) internal pure returns (address) {\n        return address(bytes20(keepBytes));\n    }\n\n    function fromAddress(address keepAddress) internal pure returns (bytes32) {\n        return bytes32(bytes20(keepAddress));\n    }\n\n    function validAddressBytes(bytes32 keepBytes) internal pure returns (bool) {\n        return fromAddress(toAddress(keepBytes)) == keepBytes;\n    }\n\n    modifier isAddress(bytes32 _keep) {\n        require(validAddressBytes(_keep), \"Invalid keep address\");\n        _;\n    }\n}\n",
  "sourcePath": "/home/kowal/Projects/sovryn/keep-ecdsa/solidity/contracts/ECDSARewards.sol",
  "compiler": {
    "name": "solc",
    "version": "0.5.17+commit.d19bba13.Emscripten.clang"
  },
  "schemaVersion": "3.0.22",
  "updatedAt": "2021-02-01T13:33:05.609Z",
  "networkType": "ethereum",
  "devdoc": {
    "methods": {
      "allocateRewards(uint256)": {
        "details": "The given interval must be finished and unallocated. To allocate rewards correctly, any earlier intervals that are still unallocated will be allocated before the given interval. With reasonable interval lengths this should not pose a problem, and if allocating a later interval results in an out-of-gas issue, forcing the allocation of an earlier interval should fix it.",
        "params": {
          "interval": "The interval to allocate."
        }
      },
      "eligibleButTerminated(bytes32)": {
        "params": {
          "_keep": "The keep to check."
        },
        "return": "True if the keep is terminated, false otherwise"
      },
      "eligibleForReward(bytes32)": {
        "details": "Keeps that close dishonorably or early are not eligible for rewards.",
        "params": {
          "_keep": "The keep to check."
        },
        "return": "True if the keep is eligible, false otherwise"
      },
      "endOf(uint256)": {
        "details": "The end of an interval is exclusive; a keep created at the timestamp `endOf(i)` is in interval `i+1`.",
        "params": {
          "interval": "The interval whose end is queried."
        },
        "return": "The end timestamp of the interval."
      },
      "getAllocatedRewards(uint256)": {
        "details": "This function returns correct results for any allocated interval. Dividing the allocated rewards by the number of keeps in the interval will give the correct reward for a keep in the interval. However, if a keep in the interval is terminated its reward will be returned to the pool of unallocated tokens. This will not be reflected in the return value of this function.",
        "params": {
          "interval": "A previously allocated interval."
        },
        "return": "The total number of tokens allocated for keeps in the interval."
      },
      "getAllocatedRewards(uint256,address)": {
        "params": {
          "interval": "The interval",
          "operator": "The operator"
        },
        "return": "The amount allocated"
      },
      "getIntervalCount()": {
        "return": "The number of explicitly specified intervals."
      },
      "getIntervalWeight(uint256)": {
        "params": {
          "interval": "The interval."
        },
        "return": "The percentage weight of the interval."
      },
      "getWithdrawableRewards(uint256,address)": {
        "params": {
          "interval": "The interval",
          "operator": "The operator"
        },
        "return": "The amount withdrawable"
      },
      "getWithdrawnRewards(uint256,address)": {
        "params": {
          "interval": "The interval",
          "operator": "The operator"
        },
        "return": "The amount already withdrawn"
      },
      "initiateRewardsUpgrade(address)": {
        "params": {
          "_newRewardsContract": "The address of a new rewards contract."
        }
      },
      "intervalOf(uint256)": {
        "details": "If the timestamp is before `firstIntervalStart`, the interval is 0.",
        "params": {
          "timestamp": "The timestamp whose interval is queried."
        },
        "return": "The interval of the timestamp."
      },
      "isAllocated(uint256)": {
        "params": {
          "interval": "The interval."
        },
        "return": "Whether the interval has been allocated yet."
      },
      "isFinished(uint256)": {
        "params": {
          "interval": "The interval."
        },
        "return": "Whether the interval is finished."
      },
      "isOwner()": {
        "details": "Returns true if the caller is the current owner."
      },
      "keepsInInterval(uint256)": {
        "params": {
          "interval": "The interval."
        },
        "return": "Number of keeps created in the interval."
      },
      "owner()": {
        "details": "Returns the address of the current owner."
      },
      "receiveApproval(address,uint256,address,bytes)": {
        "details": "Adds the received amount of tokens to `totalRewards` and `unallocatedRewards`. May be called at any time, even after allocating some intervals. If the contract has been upgraded, the funding will be transferred to the new contract instead. Changes to `unallocatedRewards` will take effect on subsequent interval allocations. Intended to be used with `approveAndCall`. If the reward contract has received tokens outside `approveAndCall`, this collects them as well. The following invariant should hold right after calling this function: token.balanceOf(address(this)) == totalRewards.sub(dispensedRewards).",
        "params": {
          "_from": "The original sender of the tokens. Must have approved at least `_value` tokens for the rewards contract.",
          "_token": "The token to fund the rewards in. Must match the one specified in the rewards contract.",
          "_value": "The amount of tokens to fund."
        }
      },
      "receiveReward(bytes32)": {
        "params": {
          "keepIdentifier": "A unique identifier for the keep, e.g. address or number converted to a `bytes32`."
        }
      },
      "receiveRewards(bytes32[])": {
        "params": {
          "keepIdentifiers": "An array of keep identifiers."
        }
      },
      "renounceOwnership()": {
        "details": "Leaves the contract without owner. It will not be possible to call `onlyOwner` functions anymore. Can only be called by the current owner.     * > Note: Renouncing ownership will leave the contract without an owner, thereby removing any functionality that is only available to the owner."
      },
      "reportTermination(bytes32)": {
        "params": {
          "keepIdentifier": "The terminated keep."
        }
      },
      "reportTerminations(bytes32[])": {
        "params": {
          "keepIdentifiers": "An array of keep identifiers."
        }
      },
      "rewardClaimed(bytes32)": {
        "params": {
          "_keep": "The identifier of the keep."
        },
        "return": "True if rewards have been paid out for the keep, or its termination has been reported. False otherwise."
      },
      "startOf(uint256)": {
        "details": "The start of an interval is inclusive; a keep created at the timestamp `startOf(i)` is in interval `i`.",
        "params": {
          "interval": "The interval whose start is queried."
        },
        "return": "The start timestamp of the interval."
      },
      "transferOwnership(address)": {
        "details": "Transfers ownership of the contract to a new account (`newOwner`). Can only be called by the current owner."
      },
      "withdrawRewards(uint256,address)": {
        "params": {
          "interval": "The interval",
          "operator": "The operator"
        }
      }
    },
    "title": "KEEP ECDSA Signer Subsidy Rewards for the Sep 2020 release."
  },
  "userdoc": {
    "methods": {
      "allocateRewards(uint256)": {
        "notice": "Allocate rewards for unallocated intervals up to and including the given interval."
      },
      "eligibleButTerminated(bytes32)": {
        "notice": "Checks if a keep is terminated and thus its rewards can be returned to the unallocated pool."
      },
      "eligibleForReward(bytes32)": {
        "notice": "Checks if a keep is eligible to receive rewards."
      },
      "endOf(uint256)": {
        "notice": "Return the timestamp corresponding to the end of the interval."
      },
      "finalizeRewardsUpgrade()": {
        "notice": "Finalizes the process of upgrading to another rewards contract by allocating all past intervals and then, transferring the not-yet-allocated tokens to a new rewards contract. Can be called only when the interval during which the upgrade was initiated ended. Before finalizing the upgrade, make sure all terminated groups are reported."
      },
      "getAllocatedRewards(uint256)": {
        "notice": "Get the total amount of tokens allocated for all keeps in the specified interval."
      },
      "getAllocatedRewards(uint256,address)": {
        "notice": "Get the amount of rewards allocated for the specified operator's beneficiary in the specified interval."
      },
      "getIntervalCount()": {
        "notice": "Get the number of intervals with explicitly specified weights. All subsequent intervals will have an implicit weight of 100."
      },
      "getIntervalWeight(uint256)": {
        "notice": "Return the percentage of remaining unallocated rewards that is to be allocated to the specified interval."
      },
      "getWithdrawableRewards(uint256,address)": {
        "notice": "Get the amount of rewards withdrawable for the specified operator's beneficiary in the specified interval."
      },
      "getWithdrawnRewards(uint256,address)": {
        "notice": "Get the amount of rewards already withdrawn for the specified operator's beneficiary in the specified interval."
      },
      "initiateRewardsUpgrade(address)": {
        "notice": "Initiates the process of upgrading to another rewards contract."
      },
      "intervalOf(uint256)": {
        "notice": "Return the interval number the provided timestamp falls within."
      },
      "isAllocated(uint256)": {
        "notice": "Return whether the specified interval has been allocated."
      },
      "isFinished(uint256)": {
        "notice": "Return whether the given interval is finished."
      },
      "keepsInInterval(uint256)": {
        "notice": "Return the number of keeps created in the specified interval."
      },
      "receiveApproval(address,uint256,address,bytes)": {
        "notice": "Funds the rewards contract."
      },
      "receiveReward(bytes32)": {
        "notice": "Sends the reward for a keep to the keep members."
      },
      "receiveRewards(bytes32[])": {
        "notice": "Stakers can receive KEEP rewards from multiple keeps of their choice in one transaction to reduce total cost comparing to single calls for rewards. It is a caller responsibility to determine the cost and consumed gas when receiving rewards from multiple keeps."
      },
      "reportTermination(bytes32)": {
        "notice": "Report that the keep was terminated, and return its allocated rewards to the unallocated pool."
      },
      "reportTerminations(bytes32[])": {
        "notice": "Report about the terminated keeps in batch. All the allocated rewards in these keeps will be returned to the unallocated pool."
      },
      "rewardClaimed(bytes32)": {
        "notice": "Return whether the given keep has already claimed rewards or had its rewards reallocated due to termination."
      },
      "startOf(uint256)": {
        "notice": "Return the timestamp corresponding to the start of the interval."
      },
      "withdrawRewards(uint256,address)": {
        "notice": "Withdraw all available rewards for the given interval. The rewards will be paid to the beneficiary of the specified operator."
      }
    },
    "notice": "Contract distributes KEEP rewards to signers that were part of the keeps which were created by the BondedECDSAKeepFactory contract.  /// The amount of KEEP to be distributed is determined by funding the contract, and additional KEEP can be added at any time.  /// When an interval is over, it will be allocated a percentage of the remaining unallocated rewards based on its weight, and adjusted by the number of keeps created in the interval if the quota is not met.  /// The adjustment for not meeting the keep quota is a percentage that equals the percentage of the quota that was met; if the number of keeps created is 80% of the quota then 80% of the base reward will be allocated for the interval.  /// Any unallocated rewards will stay in the unallocated rewards pool, to be allocated for future intervals. Intervals past the initially defined schedule have a weight of the last scheduled interval.  /// Keeps can receive rewards once the interval they were created in is over, and the keep has been marked as closed. There is no time limit to receiving rewards, nor is there need to wait for all keeps from the interval to be marked as closed. Calling `receiveReward` automatically allocates the rewards for the interval the specified keep was created in and all previous intervals.  /// If a keep is terminated, that fact can be reported to the reward contract. Reporting a terminated keep returns its allocated reward to the pool of unallocated rewards."
  }
}