{
  "contractName": "FullyBackedECDSAKeepCloneFactoryStub",
  "abi": [
    {
      "inputs": [
        {
          "internalType": "address",
          "name": "_masterKeepAddress",
          "type": "address"
        }
      ],
      "payable": false,
      "stateMutability": "nonpayable",
      "type": "constructor"
    },
    {
      "anonymous": false,
      "inputs": [
        {
          "indexed": false,
          "internalType": "address",
          "name": "keepAddress",
          "type": "address"
        }
      ],
      "name": "FullyBackedECDSAKeepCreated",
      "type": "event"
    },
    {
      "constant": true,
      "inputs": [
        {
          "internalType": "address",
          "name": "",
          "type": "address"
        }
      ],
      "name": "banKeepMembersCalledCount",
      "outputs": [
        {
          "internalType": "uint256",
          "name": "",
          "type": "uint256"
        }
      ],
      "payable": false,
      "stateMutability": "view",
      "type": "function"
    },
    {
      "constant": true,
      "inputs": [],
      "name": "masterKeepAddress",
      "outputs": [
        {
          "internalType": "address",
          "name": "",
          "type": "address"
        }
      ],
      "payable": false,
      "stateMutability": "view",
      "type": "function"
    },
    {
      "constant": false,
      "inputs": [
        {
          "internalType": "address",
          "name": "_owner",
          "type": "address"
        },
        {
          "internalType": "address[]",
          "name": "_members",
          "type": "address[]"
        },
        {
          "internalType": "uint256",
          "name": "_honestThreshold",
          "type": "uint256"
        },
        {
          "internalType": "address",
          "name": "_keepBonding",
          "type": "address"
        },
        {
          "internalType": "address payable",
          "name": "_keepFactory",
          "type": "address"
        },
        {
          "internalType": "address",
          "name": "_bondTokenAddress",
          "type": "address"
        }
      ],
      "name": "newKeep",
      "outputs": [
        {
          "internalType": "address",
          "name": "keepAddress",
          "type": "address"
        }
      ],
      "payable": true,
      "stateMutability": "payable",
      "type": "function"
    },
    {
      "constant": false,
      "inputs": [
        {
          "internalType": "address",
          "name": "_delegatedAuthorityRecipient",
          "type": "address"
        }
      ],
      "name": "__isRecognized",
      "outputs": [
        {
          "internalType": "bool",
          "name": "",
          "type": "bool"
        }
      ],
      "payable": false,
      "stateMutability": "nonpayable",
      "type": "function"
    },
    {
      "constant": false,
      "inputs": [],
      "name": "banKeepMembers",
      "outputs": [],
      "payable": false,
      "stateMutability": "nonpayable",
      "type": "function"
    }
  ],
  "bytecode": "0x608060405234801561001057600080fd5b506040516107613803806107618339818101604052602081101561003357600080fd5b8101908080519060200190929190505050806000806101000a81548173ffffffffffffffffffffffffffffffffffffffff021916908373ffffffffffffffffffffffffffffffffffffffff160217905550506106cd806100946000396000f3fe60806040526004361061004a5760003560e01c8063567b5daa1461004f5780635cef841714610066578063bd89d169146100bd578063d870c03414610200578063d8be66cf14610269575b600080fd5b34801561005b57600080fd5b506100646102ce565b005b34801561007257600080fd5b5061007b61031f565b604051808273ffffffffffffffffffffffffffffffffffffffff1673ffffffffffffffffffffffffffffffffffffffff16815260200191505060405180910390f35b6101be600480360360c08110156100d357600080fd5b81019080803573ffffffffffffffffffffffffffffffffffffffff1690602001909291908035906020019064010000000081111561011057600080fd5b82018360208201111561012257600080fd5b8035906020019184602083028401116401000000008311171561014457600080fd5b909192939192939080359060200190929190803573ffffffffffffffffffffffffffffffffffffffff169060200190929190803573ffffffffffffffffffffffffffffffffffffffff169060200190929190803573ffffffffffffffffffffffffffffffffffffffff169060200190929190505050610344565b604051808273ffffffffffffffffffffffffffffffffffffffff1673ffffffffffffffffffffffffffffffffffffffff16815260200191505060405180910390f35b34801561020c57600080fd5b5061024f6004803603602081101561022357600080fd5b81019080803573ffffffffffffffffffffffffffffffffffffffff169060200190929190505050610589565b604051808215151515815260200191505060405180910390f35b34801561027557600080fd5b506102b86004803603602081101561028c57600080fd5b81019080803573ffffffffffffffffffffffffffffffffffffffff169060200190929190505050610594565b6040518082815260200191505060405180910390f35b600160003373ffffffffffffffffffffffffffffffffffffffff1673ffffffffffffffffffffffffffffffffffffffff16815260200190815260200160002060008154809291906001019190505550565b6000809054906101000a900473ffffffffffffffffffffffffffffffffffffffff1681565b60006103706000809054906101000a900473ffffffffffffffffffffffffffffffffffffffff166105ac565b905061039d6000809054906101000a900473ffffffffffffffffffffffffffffffffffffffff1682610616565b6103a357fe5b60008190508073ffffffffffffffffffffffffffffffffffffffff16638e7429b38a8a8a8a8a8a8a6040518863ffffffff1660e01b8152600401808873ffffffffffffffffffffffffffffffffffffffff1673ffffffffffffffffffffffffffffffffffffffff168152602001806020018681526020018573ffffffffffffffffffffffffffffffffffffffff1673ffffffffffffffffffffffffffffffffffffffff1681526020018473ffffffffffffffffffffffffffffffffffffffff1673ffffffffffffffffffffffffffffffffffffffff1681526020018373ffffffffffffffffffffffffffffffffffffffff1673ffffffffffffffffffffffffffffffffffffffff1681526020018281038252888882818152602001925060200280828437600081840152601f19601f82011690508083019250505098505050505050505050600060405180830381600087803b15801561050257600080fd5b505af1158015610516573d6000803e3d6000fd5b505050507fc733b2468dd65ff63a24c733d41c723d34730c5af299158ac6c4b75e1d3c07bb82604051808273ffffffffffffffffffffffffffffffffffffffff1673ffffffffffffffffffffffffffffffffffffffff16815260200191505060405180910390a150979650505050505050565b600060019050919050565b60016020528060005260406000206000915090505481565b6000808260601b90506040517f3d602d80600a3d3981f3363d3d373d3d3d363d7300000000000000000000000081528160148201527f5af43d82803e903d91602b57fd5bf3000000000000000000000000000000000060288201526037816000f092505050919050565b6000808360601b90506040517f363d3d373d3d3d363d7300000000000000000000000000000000000000000000815281600a8201527f5af43d82803e903d91602b57fd5bf30000000000000000000000000000000000601e82015260408101602d600082873c600d810151600d8301511481518351141693505050509291505056fea265627a7a7231582021bad98dcbe54eb615967db2ef8d85ad6f28094079863acf95db91779602704864736f6c63430005110032",
  "source": "pragma solidity 0.5.17;\n\nimport \"../../contracts/fully-backed/FullyBackedECDSAKeep.sol\";\nimport \"../../contracts/CloneFactory.sol\";\n\nimport {\n    AuthorityDelegator\n} from \"@keep-network/keep-core/contracts/Authorizations.sol\";\n\n/// @title Fully Backed Bonded ECDSA Keep Factory Stub using clone factory.\n/// @dev This contract is for testing purposes only.\ncontract FullyBackedECDSAKeepCloneFactoryStub is\n    CloneFactory,\n    AuthorityDelegator\n{\n    address public masterKeepAddress;\n\n    mapping(address => uint256) public banKeepMembersCalledCount;\n\n    constructor(address _masterKeepAddress) public {\n        masterKeepAddress = _masterKeepAddress;\n    }\n\n    event FullyBackedECDSAKeepCreated(address keepAddress);\n\n    function newKeep(\n        address _owner,\n        address[] calldata _members,\n        uint256 _honestThreshold,\n        address _keepBonding,\n        address payable _keepFactory,\n        address _bondTokenAddress\n    ) external payable returns (address keepAddress) {\n        keepAddress = createClone(masterKeepAddress);\n        assert(isClone(masterKeepAddress, keepAddress));\n\n        FullyBackedECDSAKeep keep = FullyBackedECDSAKeep(keepAddress);\n        keep.initialize(\n            _owner,\n            _members,\n            _honestThreshold,\n            _keepBonding,\n            _keepFactory,\n            _bondTokenAddress\n        );\n\n        emit FullyBackedECDSAKeepCreated(keepAddress);\n    }\n\n    function __isRecognized(address _delegatedAuthorityRecipient)\n        external\n        returns (bool)\n    {\n        return true;\n    }\n\n    function banKeepMembers() public {\n        banKeepMembersCalledCount[msg.sender]++;\n    }\n}\n",
  "sourcePath": "/home/kowal/Projects/sovryn/keep-ecdsa/solidity/contracts/test/FullyBackedECDSAKeepCloneFactoryStub.sol",
  "compiler": {
    "name": "solc",
    "version": "0.5.17+commit.d19bba13.Emscripten.clang"
  },
  "schemaVersion": "3.0.22",
  "updatedAt": "2021-01-29T17:36:47.971Z",
  "devdoc": {
    "details": "This contract is for testing purposes only.",
    "methods": {},
    "title": "Fully Backed Bonded ECDSA Keep Factory Stub using clone factory."
  },
  "userdoc": {
    "methods": {}
  }
}