{
  "contractName": "FullyBackedECDSAKeep",
  "abi": [
    {
      "anonymous": false,
      "inputs": [
        {
          "indexed": true,
          "internalType": "address",
          "name": "submittingMember",
          "type": "address"
        },
        {
          "indexed": false,
          "internalType": "bytes",
          "name": "conflictingPublicKey",
          "type": "bytes"
        }
      ],
      "name": "ConflictingPublicKeySubmitted",
      "type": "event"
    },
    {
      "anonymous": false,
      "inputs": [
        {
          "indexed": true,
          "internalType": "address",
          "name": "token",
          "type": "address"
        },
        {
          "indexed": false,
          "internalType": "uint256",
          "name": "amount",
          "type": "uint256"
        }
      ],
      "name": "ERC20RewardDistributed",
      "type": "event"
    },
    {
      "anonymous": false,
      "inputs": [
        {
          "indexed": false,
          "internalType": "uint256",
          "name": "amount",
          "type": "uint256"
        }
      ],
      "name": "ETHRewardDistributed",
      "type": "event"
    },
    {
      "anonymous": false,
      "inputs": [],
      "name": "KeepClosed",
      "type": "event"
    },
    {
      "anonymous": false,
      "inputs": [],
      "name": "KeepTerminated",
      "type": "event"
    },
    {
      "anonymous": false,
      "inputs": [
        {
          "indexed": false,
          "internalType": "bytes",
          "name": "publicKey",
          "type": "bytes"
        }
      ],
      "name": "PublicKeyPublished",
      "type": "event"
    },
    {
      "anonymous": false,
      "inputs": [
        {
          "indexed": true,
          "internalType": "bytes32",
          "name": "digest",
          "type": "bytes32"
        }
      ],
      "name": "SignatureRequested",
      "type": "event"
    },
    {
      "anonymous": false,
      "inputs": [
        {
          "indexed": true,
          "internalType": "bytes32",
          "name": "digest",
          "type": "bytes32"
        },
        {
          "indexed": false,
          "internalType": "bytes32",
          "name": "r",
          "type": "bytes32"
        },
        {
          "indexed": false,
          "internalType": "bytes32",
          "name": "s",
          "type": "bytes32"
        },
        {
          "indexed": false,
          "internalType": "uint8",
          "name": "recoveryID",
          "type": "uint8"
        }
      ],
      "name": "SignatureSubmitted",
      "type": "event"
    },
    {
      "constant": true,
      "inputs": [],
      "name": "bondTokenAddress",
      "outputs": [
        {
          "internalType": "address",
          "name": "",
          "type": "address"
        }
      ],
      "payable": false,
      "stateMutability": "view",
      "type": "function"
    },
    {
      "constant": true,
      "inputs": [],
      "name": "checkBondAmount",
      "outputs": [
        {
          "internalType": "uint256",
          "name": "",
          "type": "uint256"
        }
      ],
      "payable": false,
      "stateMutability": "view",
      "type": "function"
    },
    {
      "constant": true,
      "inputs": [
        {
          "internalType": "uint8",
          "name": "_v",
          "type": "uint8"
        },
        {
          "internalType": "bytes32",
          "name": "_r",
          "type": "bytes32"
        },
        {
          "internalType": "bytes32",
          "name": "_s",
          "type": "bytes32"
        },
        {
          "internalType": "bytes32",
          "name": "_signedDigest",
          "type": "bytes32"
        },
        {
          "internalType": "bytes",
          "name": "_preimage",
          "type": "bytes"
        }
      ],
      "name": "checkSignatureFraud",
      "outputs": [
        {
          "internalType": "bool",
          "name": "_isFraud",
          "type": "bool"
        }
      ],
      "payable": false,
      "stateMutability": "view",
      "type": "function"
    },
    {
      "constant": false,
      "inputs": [],
      "name": "closeKeep",
      "outputs": [],
      "payable": false,
      "stateMutability": "nonpayable",
      "type": "function"
    },
    {
      "constant": true,
      "inputs": [],
      "name": "digest",
      "outputs": [
        {
          "internalType": "bytes32",
          "name": "",
          "type": "bytes32"
        }
      ],
      "payable": false,
      "stateMutability": "view",
      "type": "function"
    },
    {
      "constant": true,
      "inputs": [
        {
          "internalType": "bytes32",
          "name": "",
          "type": "bytes32"
        }
      ],
      "name": "digests",
      "outputs": [
        {
          "internalType": "uint256",
          "name": "",
          "type": "uint256"
        }
      ],
      "payable": false,
      "stateMutability": "view",
      "type": "function"
    },
    {
      "constant": false,
      "inputs": [
        {
          "internalType": "address",
          "name": "_tokenAddress",
          "type": "address"
        },
        {
          "internalType": "uint256",
          "name": "_value",
          "type": "uint256"
        }
      ],
      "name": "distributeERC20Reward",
      "outputs": [],
      "payable": false,
      "stateMutability": "nonpayable",
      "type": "function"
    },
    {
      "constant": false,
      "inputs": [],
      "name": "distributeETHReward",
      "outputs": [],
      "payable": true,
      "stateMutability": "payable",
      "type": "function"
    },
    {
      "constant": true,
      "inputs": [
        {
          "internalType": "address",
          "name": "_member",
          "type": "address"
        }
      ],
      "name": "getMemberETHBalance",
      "outputs": [
        {
          "internalType": "uint256",
          "name": "",
          "type": "uint256"
        }
      ],
      "payable": false,
      "stateMutability": "view",
      "type": "function"
    },
    {
      "constant": true,
      "inputs": [],
      "name": "getMembers",
      "outputs": [
        {
          "internalType": "address[]",
          "name": "",
          "type": "address[]"
        }
      ],
      "payable": false,
      "stateMutability": "view",
      "type": "function"
    },
    {
      "constant": true,
      "inputs": [],
      "name": "getOpenedTimestamp",
      "outputs": [
        {
          "internalType": "uint256",
          "name": "",
          "type": "uint256"
        }
      ],
      "payable": false,
      "stateMutability": "view",
      "type": "function"
    },
    {
      "constant": true,
      "inputs": [],
      "name": "getOwner",
      "outputs": [
        {
          "internalType": "address",
          "name": "",
          "type": "address"
        }
      ],
      "payable": false,
      "stateMutability": "view",
      "type": "function"
    },
    {
      "constant": true,
      "inputs": [],
      "name": "getPublicKey",
      "outputs": [
        {
          "internalType": "bytes",
          "name": "",
          "type": "bytes"
        }
      ],
      "payable": false,
      "stateMutability": "view",
      "type": "function"
    },
    {
      "constant": true,
      "inputs": [],
      "name": "honestThreshold",
      "outputs": [
        {
          "internalType": "uint256",
          "name": "",
          "type": "uint256"
        }
      ],
      "payable": false,
      "stateMutability": "view",
      "type": "function"
    },
    {
      "constant": true,
      "inputs": [],
      "name": "isActive",
      "outputs": [
        {
          "internalType": "bool",
          "name": "",
          "type": "bool"
        }
      ],
      "payable": false,
      "stateMutability": "view",
      "type": "function"
    },
    {
      "constant": true,
      "inputs": [
        {
          "internalType": "bytes32",
          "name": "_digest",
          "type": "bytes32"
        }
      ],
      "name": "isAwaitingSignature",
      "outputs": [
        {
          "internalType": "bool",
          "name": "",
          "type": "bool"
        }
      ],
      "payable": false,
      "stateMutability": "view",
      "type": "function"
    },
    {
      "constant": true,
      "inputs": [],
      "name": "isClosed",
      "outputs": [
        {
          "internalType": "bool",
          "name": "",
          "type": "bool"
        }
      ],
      "payable": false,
      "stateMutability": "view",
      "type": "function"
    },
    {
      "constant": true,
      "inputs": [],
      "name": "isTerminated",
      "outputs": [
        {
          "internalType": "bool",
          "name": "",
          "type": "bool"
        }
      ],
      "payable": false,
      "stateMutability": "view",
      "type": "function"
    },
    {
      "constant": true,
      "inputs": [
        {
          "internalType": "uint256",
          "name": "",
          "type": "uint256"
        }
      ],
      "name": "members",
      "outputs": [
        {
          "internalType": "address",
          "name": "",
          "type": "address"
        }
      ],
      "payable": false,
      "stateMutability": "view",
      "type": "function"
    },
    {
      "constant": true,
      "inputs": [],
      "name": "owner",
      "outputs": [
        {
          "internalType": "address",
          "name": "",
          "type": "address"
        }
      ],
      "payable": false,
      "stateMutability": "view",
      "type": "function"
    },
    {
      "constant": true,
      "inputs": [],
      "name": "publicKey",
      "outputs": [
        {
          "internalType": "bytes",
          "name": "",
          "type": "bytes"
        }
      ],
      "payable": false,
      "stateMutability": "view",
      "type": "function"
    },
    {
      "constant": false,
      "inputs": [
        {
          "internalType": "uint256",
          "name": "_amount",
          "type": "uint256"
        }
      ],
      "name": "returnPartialSignerBonds",
      "outputs": [],
      "payable": false,
      "stateMutability": "nonpayable",
      "type": "function"
    },
    {
      "constant": false,
      "inputs": [],
      "name": "seizeSignerBonds",
      "outputs": [],
      "payable": false,
      "stateMutability": "nonpayable",
      "type": "function"
    },
    {
      "constant": false,
      "inputs": [
        {
          "internalType": "bytes32",
          "name": "_digest",
          "type": "bytes32"
        }
      ],
      "name": "sign",
      "outputs": [],
      "payable": false,
      "stateMutability": "nonpayable",
      "type": "function"
    },
    {
      "constant": false,
      "inputs": [
        {
          "internalType": "bytes",
          "name": "_publicKey",
          "type": "bytes"
        }
      ],
      "name": "submitPublicKey",
      "outputs": [],
      "payable": false,
      "stateMutability": "nonpayable",
      "type": "function"
    },
    {
      "constant": false,
      "inputs": [
        {
          "internalType": "bytes32",
          "name": "_r",
          "type": "bytes32"
        },
        {
          "internalType": "bytes32",
          "name": "_s",
          "type": "bytes32"
        },
        {
          "internalType": "uint8",
          "name": "_recoveryID",
          "type": "uint8"
        }
      ],
      "name": "submitSignature",
      "outputs": [],
      "payable": false,
      "stateMutability": "nonpayable",
      "type": "function"
    },
    {
      "constant": false,
      "inputs": [
        {
          "internalType": "uint8",
          "name": "_v",
          "type": "uint8"
        },
        {
          "internalType": "bytes32",
          "name": "_r",
          "type": "bytes32"
        },
        {
          "internalType": "bytes32",
          "name": "_s",
          "type": "bytes32"
        },
        {
          "internalType": "bytes32",
          "name": "_signedDigest",
          "type": "bytes32"
        },
        {
          "internalType": "bytes",
          "name": "_preimage",
          "type": "bytes"
        }
      ],
      "name": "submitSignatureFraud",
      "outputs": [
        {
          "internalType": "bool",
          "name": "_isFraud",
          "type": "bool"
        }
      ],
      "payable": false,
      "stateMutability": "nonpayable",
      "type": "function"
    },
    {
      "constant": false,
      "inputs": [
        {
          "internalType": "address",
          "name": "_member",
          "type": "address"
        }
      ],
      "name": "withdraw",
      "outputs": [],
      "payable": false,
      "stateMutability": "nonpayable",
      "type": "function"
    },
    {
      "constant": false,
      "inputs": [
        {
          "internalType": "address",
          "name": "_owner",
          "type": "address"
        },
        {
          "internalType": "address[]",
          "name": "_members",
          "type": "address[]"
        },
        {
          "internalType": "uint256",
          "name": "_honestThreshold",
          "type": "uint256"
        },
        {
          "internalType": "address",
          "name": "_bonding",
          "type": "address"
        },
        {
          "internalType": "address payable",
          "name": "_keepFactory",
          "type": "address"
        },
        {
          "internalType": "address",
          "name": "_bondTokenAddress",
          "type": "address"
        }
      ],
      "name": "initialize",
      "outputs": [],
      "payable": false,
      "stateMutability": "nonpayable",
      "type": "function"
    }
  ],
  "bytecode": "0x608060405234801561001057600080fd5b506140dd806100206000396000f3fe6080604052600436106101c25760003560e01c8063893d20e8116100f7578063c2b6b58c11610095578063d5cc8b0f11610064578063d5cc8b0f14610ae4578063dc3d6da814610b49578063f15d1a9014610b74578063f4c2b4c114610c3d576101c2565b8063c2b6b58c146109f8578063c36bc45614610a27578063cb7cf18714610a62578063d1cc997614610ab5576101c2565b80639eab5253116100d15780639eab5253146107e4578063a15c3bbb14610850578063abd14f3714610867578063bf9c8301146108ed576101c2565b8063893d20e8146105e75780638da5cb5b1461063e5780638e7429b314610695576101c2565b806352a82b651161016457806363ffab311161013e57806363ffab311461049f5780636806db1f1461052f578063799cd3331461055a5780637df2b35714610595576101c2565b806352a82b651461039e5780635a89f810146103c95780635daf08ca14610424576101c2565b806322f3e2d4116101a057806322f3e2d4146102845780632930e170146102b35780632e334452146102bd57806351cff8d91461034d576101c2565b806301ac4293146101c757806307acd5cb146102165780631133fd2c1461022d575b600080fd5b3480156101d357600080fd5b50610200600480360360208110156101ea57600080fd5b8101908080359060200190929190505050610c68565b6040518082815260200191505060405180910390f35b34801561022257600080fd5b5061022b610c80565b005b34801561023957600080fd5b506102426110ba565b604051808273ffffffffffffffffffffffffffffffffffffffff1673ffffffffffffffffffffffffffffffffffffffff16815260200191505060405180910390f35b34801561029057600080fd5b506102996110e0565b604051808215151515815260200191505060405180910390f35b6102bb61110f565b005b3480156102c957600080fd5b506102d261133d565b6040518080602001828103825283818151815260200191508051906020019080838360005b838110156103125780820151818401526020810190506102f7565b50505050905090810190601f16801561033f5780820380516001836020036101000a031916815260200191505b509250505060405180910390f35b34801561035957600080fd5b5061039c6004803603602081101561037057600080fd5b81019080803573ffffffffffffffffffffffffffffffffffffffff1690602001909291905050506113df565b005b3480156103aa57600080fd5b506103b36115c7565b6040518082815260200191505060405180910390f35b3480156103d557600080fd5b50610422600480360360408110156103ec57600080fd5b81019080803573ffffffffffffffffffffffffffffffffffffffff169060200190929190803590602001909291905050506115cd565b005b34801561043057600080fd5b5061045d6004803603602081101561044757600080fd5b81019080803590602001909291905050506117ea565b604051808273ffffffffffffffffffffffffffffffffffffffff1673ffffffffffffffffffffffffffffffffffffffff16815260200191505060405180910390f35b3480156104ab57600080fd5b506104b4611826565b6040518080602001828103825283818151815260200191508051906020019080838360005b838110156104f45780820151818401526020810190506104d9565b50505050905090810190601f1680156105215780820380516001836020036101000a031916815260200191505b509250505060405180910390f35b34801561053b57600080fd5b506105446118c4565b6040518082815260200191505060405180910390f35b34801561056657600080fd5b506105936004803603602081101561057d57600080fd5b81019080803590602001909291905050506118ca565b005b3480156105a157600080fd5b506105e5600480360360608110156105b857600080fd5b810190808035906020019092919080359060200190929190803560ff169060200190929190505050611b64565b005b3480156105f357600080fd5b506105fc611fd2565b604051808273ffffffffffffffffffffffffffffffffffffffff1673ffffffffffffffffffffffffffffffffffffffff16815260200191505060405180910390f35b34801561064a57600080fd5b50610653611ffb565b604051808273ffffffffffffffffffffffffffffffffffffffff1673ffffffffffffffffffffffffffffffffffffffff16815260200191505060405180910390f35b3480156106a157600080fd5b506107e2600480360360c08110156106b857600080fd5b81019080803573ffffffffffffffffffffffffffffffffffffffff169060200190929190803590602001906401000000008111156106f557600080fd5b82018360208201111561070757600080fd5b8035906020019184602083028401116401000000008311171561072957600080fd5b919080806020026020016040519081016040528093929190818152602001838360200280828437600081840152601f19601f82011690508083019250505050505050919291929080359060200190929190803573ffffffffffffffffffffffffffffffffffffffff169060200190929190803573ffffffffffffffffffffffffffffffffffffffff169060200190929190803573ffffffffffffffffffffffffffffffffffffffff169060200190929190505050612020565b005b3480156107f057600080fd5b506107f9612170565b6040518080602001828103825283818151815260200191508051906020019060200280838360005b8381101561083c578082015181840152602081019050610821565b505050509050019250505060405180910390f35b34801561085c57600080fd5b506108656121fe565b005b34801561087357600080fd5b506108eb6004803603602081101561088a57600080fd5b81019080803590602001906401000000008111156108a757600080fd5b8201836020820111156108b957600080fd5b803590602001918460018302840111640100000000831117156108db57600080fd5b909192939192939050505061234c565b005b3480156108f957600080fd5b506109de600480360360a081101561091057600080fd5b81019080803560ff1690602001909291908035906020019092919080359060200190929190803590602001909291908035906020019064010000000081111561095857600080fd5b82018360208201111561096a57600080fd5b8035906020019184600183028401116401000000008311171561098c57600080fd5b91908080601f016020809104026020016040519081016040528093929190818152602001838380828437600081840152601f19601f8201169050808301925050505050505091929192905050506128cc565b604051808215151515815260200191505060405180910390f35b348015610a0457600080fd5b50610a0d612bbc565b604051808215151515815260200191505060405180910390f35b348015610a3357600080fd5b50610a6060048036036020811015610a4a57600080fd5b8101908080359060200190929190505050612bec565b005b348015610a6e57600080fd5b50610a9b60048036036020811015610a8557600080fd5b8101908080359060200190929190505050612f17565b604051808215151515815260200191505060405180910390f35b348015610ac157600080fd5b50610aca612f35565b604051808215151515815260200191505060405180910390f35b348015610af057600080fd5b50610b3360048036036020811015610b0757600080fd5b81019080803573ffffffffffffffffffffffffffffffffffffffff169060200190929190505050612f64565b6040518082815260200191505060405180910390f35b348015610b5557600080fd5b50610b5e612fad565b6040518082815260200191505060405180910390f35b348015610b8057600080fd5b50610c23600480360360a0811015610b9757600080fd5b81019080803560ff16906020019092919080359060200190929190803590602001909291908035906020019092919080359060200190640100000000811115610bdf57600080fd5b820183602082011115610bf157600080fd5b80359060200191846001830284011164010000000083111715610c1357600080fd5b9091929391929390505050613143565b604051808215151515815260200191505060405180910390f35b348015610c4957600080fd5b50610c52613317565b6040518082815260200191505060405180910390f35b60066020528060005260406000206000915090505481565b3373ffffffffffffffffffffffffffffffffffffffff166000809054906101000a900473ffffffffffffffffffffffffffffffffffffffff1673ffffffffffffffffffffffffffffffffffffffff1614610d42576040517f08c379a000000000000000000000000000000000000000000000000000000000815260040180806020018281038252601c8152602001807f43616c6c6572206973206e6f7420746865206b656570206f776e65720000000081525060200191505060405180910390fd5b610d4a6110e0565b610dbc576040517f08c379a00000000000000000000000000000000000000000000000000000000081526004018080602001828103825260128152602001807f4b656570206973206e6f7420616374697665000000000000000000000000000081525060200191505060405180910390fd5b610dc4613321565b60008090505b6002805490508110156110b7576000600c60019054906101000a900473ffffffffffffffffffffffffffffffffffffffff1673ffffffffffffffffffffffffffffffffffffffff1663446f0f9e60028481548110610e2457fe5b9060005260206000200160009054906101000a900473ffffffffffffffffffffffffffffffffffffffff16303073ffffffffffffffffffffffffffffffffffffffff166040518463ffffffff1660e01b8152600401808473ffffffffffffffffffffffffffffffffffffffff1673ffffffffffffffffffffffffffffffffffffffff1681526020018373ffffffffffffffffffffffffffffffffffffffff1673ffffffffffffffffffffffffffffffffffffffff168152602001828152602001935050505060206040518083038186803b158015610f0157600080fd5b505afa158015610f15573d6000803e3d6000fd5b505050506040513d6020811015610f2b57600080fd5b81019080805190602001909291905050509050600c60019054906101000a900473ffffffffffffffffffffffffffffffffffffffff1673ffffffffffffffffffffffffffffffffffffffff16630cb0a67760028481548110610f8957fe5b9060005260206000200160009054906101000a900473ffffffffffffffffffffffffffffffffffffffff163073ffffffffffffffffffffffffffffffffffffffff16846000809054906101000a900473ffffffffffffffffffffffffffffffffffffffff166040518563ffffffff1660e01b8152600401808573ffffffffffffffffffffffffffffffffffffffff1673ffffffffffffffffffffffffffffffffffffffff1681526020018481526020018381526020018273ffffffffffffffffffffffffffffffffffffffff1673ffffffffffffffffffffffffffffffffffffffff168152602001945050505050600060405180830381600087803b15801561109157600080fd5b505af11580156110a5573d6000803e3d6000fd5b50505050508080600101915050610dca565b50565b600160009054906101000a900473ffffffffffffffffffffffffffffffffffffffff1681565b60008060028111156110ee57fe5b600c60009054906101000a900460ff16600281111561110957fe5b14905090565b60006002805490509050600061112e823461332b90919063ffffffff16565b9050600081116111a6576040517f08c379a000000000000000000000000000000000000000000000000000000000815260040180806020018281038252601f8152602001807f4469766964656e642076616c7565206d757374206265206e6f6e2d7a65726f0081525060200191505060405180910390fd5b60008090505b600183038161ffff1610156112505781600a600060028461ffff16815481106111d157fe5b9060005260206000200160009054906101000a900473ffffffffffffffffffffffffffffffffffffffff1673ffffffffffffffffffffffffffffffffffffffff1673ffffffffffffffffffffffffffffffffffffffff1681526020019081526020016000206000828254019250508190555080806001019150506111ac565b50600061126683346133ba90919063ffffffff16565b905061127b818361344490919063ffffffff16565b600a60006002600187038154811061128f57fe5b9060005260206000200160009054906101000a900473ffffffffffffffffffffffffffffffffffffffff1673ffffffffffffffffffffffffffffffffffffffff1673ffffffffffffffffffffffffffffffffffffffff168152602001908152602001600020600082825401925050819055507fa9e4160b29b5c7db7fa61c512c4b45e7c3451c3331537f065a3417778cea5096346040518082815260200191505060405180910390a1505050565b606060048054600181600116156101000203166002900480601f0160208091040260200160405190810160405280929190818152602001828054600181600116156101000203166002900480156113d55780601f106113aa576101008083540402835291602001916113d5565b820191906000526020600020905b8154815290600101906020018083116113b857829003601f168201915b5050505050905090565b6000600a60008373ffffffffffffffffffffffffffffffffffffffff1673ffffffffffffffffffffffffffffffffffffffff16815260200190815260200160002054905060008111611499576040517f08c379a00000000000000000000000000000000000000000000000000000000081526004018080602001828103825260148152602001807f4e6f2066756e647320746f20776974686472617700000000000000000000000081525060200191505060405180910390fd5b6000600a60008473ffffffffffffffffffffffffffffffffffffffff1673ffffffffffffffffffffffffffffffffffffffff1681526020019081526020016000208190555060006114e9836134cc565b73ffffffffffffffffffffffffffffffffffffffff168260405180600001905060006040518083038185875af1925050503d8060008114611546576040519150601f19603f3d011682016040523d82523d6000602084013e61154b565b606091505b50509050806115c2576040517f08c379a000000000000000000000000000000000000000000000000000000000815260040180806020018281038252600f8152602001807f5472616e73666572206661696c6564000000000000000000000000000000000081525060200191505060405180910390fd5b505050565b60055481565b60008290506000600280549050905060006115f1828561332b90919063ffffffff16565b905060008111611669576040517f08c379a000000000000000000000000000000000000000000000000000000000815260040180806020018281038252601f8152602001807f4469766964656e642076616c7565206d757374206265206e6f6e2d7a65726f0081525060200191505060405180910390fd5b60008090505b600183038161ffff1610156116fb576116ee336116c660028461ffff168154811061169657fe5b9060005260206000200160009054906101000a900473ffffffffffffffffffffffffffffffffffffffff166134cc565b848773ffffffffffffffffffffffffffffffffffffffff166135af909392919063ffffffff16565b808060010191505061166f565b50600061171183866133ba90919063ffffffff16565b90506117943361175a6002600187038154811061172a57fe5b9060005260206000200160009054906101000a900473ffffffffffffffffffffffffffffffffffffffff166134cc565b61176d848661344490919063ffffffff16565b8773ffffffffffffffffffffffffffffffffffffffff166135af909392919063ffffffff16565b8573ffffffffffffffffffffffffffffffffffffffff167fb69f5873bb2e9e1cc495d5c23d2995010c3b5cdd1756e3cada2bc3f2150902cc866040518082815260200191505060405180910390a2505050505050565b600281815481106117f757fe5b906000526020600020016000915054906101000a900473ffffffffffffffffffffffffffffffffffffffff1681565b60048054600181600116156101000203166002900480601f0160208091040260200160405190810160405280929190818152602001828054600181600116156101000203166002900480156118bc5780601f10611891576101008083540402835291602001916118bc565b820191906000526020600020905b81548152906001019060200180831161189f57829003601f168201915b505050505081565b60035481565b3373ffffffffffffffffffffffffffffffffffffffff166000809054906101000a900473ffffffffffffffffffffffffffffffffffffffff1673ffffffffffffffffffffffffffffffffffffffff161461198c576040517f08c379a000000000000000000000000000000000000000000000000000000000815260040180806020018281038252601c8152602001807f43616c6c6572206973206e6f7420746865206b656570206f776e65720000000081525060200191505060405180910390fd5b6119946110e0565b611a06576040517f08c379a00000000000000000000000000000000000000000000000000000000081526004018080602001828103825260128152602001807f4b656570206973206e6f7420616374697665000000000000000000000000000081525060200191505060405180910390fd5b600060048054600181600116156101000203166002900490501415611a93576040517f08c379a000000000000000000000000000000000000000000000000000000000815260040180806020018281038252601a8152602001807f5075626c6963206b657920776173206e6f74207365742079657400000000000081525060200191505060405180910390fd5b611a9b6136b5565b15611b0e576040517f08c379a000000000000000000000000000000000000000000000000000000000815260040180806020018281038252600e8152602001807f5369676e6572206973206275737900000000000000000000000000000000000081525060200191505060405180910390fd5b4260088190555043600660008381526020019081526020016000208190555080600581905550807f34f611bedd4f8c135323bbfc4921e3f6e4feb7eef591036eed6af5462e6cfab060405160405180910390a250565b611bfd336002805480602002602001604051908101604052809291908181526020018280548015611bea57602002820191906000526020600020905b8160009054906101000a900473ffffffffffffffffffffffffffffffffffffffff1673ffffffffffffffffffffffffffffffffffffffff1681526020019060010190808311611ba0575b50505050506136c290919063ffffffff16565b611c6f576040517f08c379a000000000000000000000000000000000000000000000000000000000815260040180806020018281038252601d8152602001807f43616c6c6572206973206e6f7420746865206b656570206d656d62657200000081525060200191505060405180910390fd5b611c776136b5565b611ce9576040517f08c379a00000000000000000000000000000000000000000000000000000000081526004018080602001828103825260188152602001807f4e6f74206177616974696e672061207369676e6174757265000000000000000081525060200191505060405180910390fd5b60048160ff1610611d45576040517f08c379a0000000000000000000000000000000000000000000000000000000008152600401808060200182810382526027815260200180613fe86027913960400191505060405180910390fd5b7f7fffffffffffffffffffffffffffffff5d576e7357a4501ddfe92f46681b20a08260001c1115611dc1576040517f08c379a000000000000000000000000000000000000000000000000000000000815260040180806020018281038252604c815260200180614033604c913960600191505060405180910390fd5b600081601b019050600160055482868660405160008152602001604052604051808581526020018460ff1660ff1681526020018381526020018281526020019450505050506020604051602081039080840390855afa158015611e28573d6000803e3d6000fd5b5050506020604051035173ffffffffffffffffffffffffffffffffffffffff16611eeb60048054600181600116156101000203166002900480601f016020809104026020016040519081016040528092919081815260200182805460018160011615610100020316600290048015611ee15780601f10611eb657610100808354040283529160200191611ee1565b820191906000526020600020905b815481529060010190602001808311611ec457829003601f168201915b505050505061373d565b73ffffffffffffffffffffffffffffffffffffffff1614611f74576040517f08c379a00000000000000000000000000000000000000000000000000000000081526004018080602001828103825260118152602001807f496e76616c6964207369676e617475726500000000000000000000000000000081525060200191505060405180910390fd5b60006008819055506005547fb19546e9e0b503d103dd4ae295f4d526e9115adf7c902ead329b1f2404efd35f858585604051808481526020018381526020018260ff1660ff168152602001935050505060405180910390a250505050565b60008060009054906101000a900473ffffffffffffffffffffffffffffffffffffffff16905090565b6000809054906101000a900473ffffffffffffffffffffffffffffffffffffffff1681565b61202d8686868685613751565b82600d60006101000a81548173ffffffffffffffffffffffffffffffffffffffff021916908373ffffffffffffffffffffffffffffffffffffffff16021790555081600e60006101000a81548173ffffffffffffffffffffffffffffffffffffffff021916908373ffffffffffffffffffffffffffffffffffffffff160217905550600d60009054906101000a900473ffffffffffffffffffffffffffffffffffffffff1673ffffffffffffffffffffffffffffffffffffffff1663a590ae36836040518263ffffffff1660e01b8152600401808273ffffffffffffffffffffffffffffffffffffffff1673ffffffffffffffffffffffffffffffffffffffff168152602001915050600060405180830381600087803b15801561215057600080fd5b505af1158015612164573d6000803e3d6000fd5b50505050505050505050565b606060028054806020026020016040519081016040528092919081815260200182805480156121f457602002820191906000526020600020905b8160009054906101000a900473ffffffffffffffffffffffffffffffffffffffff1673ffffffffffffffffffffffffffffffffffffffff16815260200190600101908083116121aa575b5050505050905090565b3373ffffffffffffffffffffffffffffffffffffffff166000809054906101000a900473ffffffffffffffffffffffffffffffffffffffff1673ffffffffffffffffffffffffffffffffffffffff16146122c0576040517f08c379a000000000000000000000000000000000000000000000000000000000815260040180806020018281038252601c8152602001807f43616c6c6572206973206e6f7420746865206b656570206f776e65720000000081525060200191505060405180910390fd5b6122c86110e0565b61233a576040517f08c379a00000000000000000000000000000000000000000000000000000000081526004018080602001828103825260128152602001807f4b656570206973206e6f7420616374697665000000000000000000000000000081525060200191505060405180910390fd5b612342613901565b61234a613953565b565b6123e53360028054806020026020016040519081016040528092919081815260200182805480156123d257602002820191906000526020600020905b8160009054906101000a900473ffffffffffffffffffffffffffffffffffffffff1673ffffffffffffffffffffffffffffffffffffffff1681526020019060010190808311612388575b50505050506136c290919063ffffffff16565b612457576040517f08c379a000000000000000000000000000000000000000000000000000000000815260040180806020018281038252601d8152602001807f43616c6c6572206973206e6f7420746865206b656570206d656d62657200000081525060200191505060405180910390fd5b61246033613a84565b156124b6576040517f08c379a0000000000000000000000000000000000000000000000000000000008152600401808060200182810382526025815260200180613fc36025913960400191505060405180910390fd5b6040828290501461252f576040517f08c379a00000000000000000000000000000000000000000000000000000000081526004018080602001828103825260208152602001807f5075626c6963206b6579206d757374206265203634206279746573206c6f6e6781525060200191505060405180910390fd5b8181600960003373ffffffffffffffffffffffffffffffffffffffff1673ffffffffffffffffffffffffffffffffffffffff168152602001908152602001600020919061257d929190613e18565b50600080905060008090505b60028054905081101561283e578383604051808383808284378083019250505092505050604051809103902060096000600284815481106125c657fe5b9060005260206000200160009054906101000a900473ffffffffffffffffffffffffffffffffffffffff1673ffffffffffffffffffffffffffffffffffffffff1673ffffffffffffffffffffffffffffffffffffffff16815260200190815260200160002060405180828054600181600116156101000203166002900480156126865780601f10612664576101008083540402835291820191612686565b820191906000526020600020905b815481529060010190602001808311612672575b5050915050604051809103902014612828576126d8600282815481106126a857fe5b9060005260206000200160009054906101000a900473ffffffffffffffffffffffffffffffffffffffff16613a84565b15612823573373ffffffffffffffffffffffffffffffffffffffff167f99d98e35ad6445ac964c46a75c7f748e8f390ebdca5a924cd8f92d674fa34ff7600960006002858154811061272657fe5b9060005260206000200160009054906101000a900473ffffffffffffffffffffffffffffffffffffffff1673ffffffffffffffffffffffffffffffffffffffff1673ffffffffffffffffffffffffffffffffffffffff16815260200190815260200160002060405180806020018281038252838181546001816001161561010002031660029004815260200191508054600181600116156101000203166002900480156128145780601f106127e957610100808354040283529160200191612814565b820191906000526020600020905b8154815290600101906020018083116127f757829003601f168201915b50509250505060405180910390a25b612831565b81806001019250505b8080600101915050612589565b50600280549050811461285157506128c8565b828260049190612862929190613e18565b507ff62bba8b270bef3e8d0fcebc1f86567664da8ccbd03e8509d6231cc8d63f4b31838360405180806020018281038252848482818152602001925080828437600081840152601f19601f820116905080830192505050935050505060405180910390a1505b5050565b6000806004805460018160011615610100020316600290049050141561295a576040517f08c379a000000000000000000000000000000000000000000000000000000000815260040180806020018281038252601a8152602001807f5075626c6963206b657920776173206e6f74207365742079657400000000000081525060200191505060405180910390fd5b60006002836040518082805190602001908083835b60208310612992578051825260208201915060208101905060208303925061296f565b6001836020036101000a038019825116818451168082178552505050505050905001915050602060405180830381855afa1580156129d4573d6000803e3d6000fd5b5050506040513d60208110156129e957600080fd5b81019080805190602001909291905050509050808414612a54576040517f08c379a0000000000000000000000000000000000000000000000000000000008152600401808060200182810382526038815260200180613f8b6038913960400191505060405180910390fd5b600060018589898960405160008152602001604052604051808581526020018460ff1660ff1681526020018381526020018281526020019450505050506020604051602081039080840390855afa158015612ab3573d6000803e3d6000fd5b5050506020604051035173ffffffffffffffffffffffffffffffffffffffff16612b7660048054600181600116156101000203166002900480601f016020809104026020016040519081016040528092919081815260200182805460018160011615610100020316600290048015612b6c5780601f10612b4157610100808354040283529160200191612b6c565b820191906000526020600020905b815481529060010190602001808311612b4f57829003601f168201915b505050505061373d565b73ffffffffffffffffffffffffffffffffffffffff16149050808015612baf575060006006600087815260200190815260200160002054145b9250505095945050505050565b600060016002811115612bcb57fe5b600c60009054906101000a900460ff166002811115612be657fe5b14905090565b600060028054905090506000612c0b828461332b90919063ffffffff16565b905060008111612c66576040517f08c379a000000000000000000000000000000000000000000000000000000000815260040180806020018281038252602481526020018061400f6024913960400191505060405180910390fd5b60008090505b600183038161ffff161015612db857600c60019054906101000a900473ffffffffffffffffffffffffffffffffffffffff1673ffffffffffffffffffffffffffffffffffffffff1663c8820f6c60028361ffff1681548110612cca57fe5b9060005260206000200160009054906101000a900473ffffffffffffffffffffffffffffffffffffffff1684336040518463ffffffff1660e01b8152600401808473ffffffffffffffffffffffffffffffffffffffff1673ffffffffffffffffffffffffffffffffffffffff1681526020018381526020018273ffffffffffffffffffffffffffffffffffffffff1673ffffffffffffffffffffffffffffffffffffffff1681526020019350505050600060405180830381600087803b158015612d9357600080fd5b505af1158015612da7573d6000803e3d6000fd5b505050508080600101915050612c6c565b506000612dce83856133ba90919063ffffffff16565b9050600c60019054906101000a900473ffffffffffffffffffffffffffffffffffffffff1673ffffffffffffffffffffffffffffffffffffffff1663c8820f6c60026001860381548110612e1e57fe5b9060005260206000200160009054906101000a900473ffffffffffffffffffffffffffffffffffffffff16612e5c848661344490919063ffffffff16565b336040518463ffffffff1660e01b8152600401808473ffffffffffffffffffffffffffffffffffffffff1673ffffffffffffffffffffffffffffffffffffffff1681526020018381526020018273ffffffffffffffffffffffffffffffffffffffff1673ffffffffffffffffffffffffffffffffffffffff1681526020019350505050600060405180830381600087803b158015612ef957600080fd5b505af1158015612f0d573d6000803e3d6000fd5b5050505050505050565b6000612f216136b5565b8015612f2e575081600554145b9050919050565b6000600280811115612f4357fe5b600c60009054906101000a900460ff166002811115612f5e57fe5b14905090565b6000600a60008373ffffffffffffffffffffffffffffffffffffffff1673ffffffffffffffffffffffffffffffffffffffff168152602001908152602001600020549050919050565b6000806000905060008090505b60028054905081101561313b57600c60019054906101000a900473ffffffffffffffffffffffffffffffffffffffff1673ffffffffffffffffffffffffffffffffffffffff1663446f0f9e6002838154811061301257fe5b9060005260206000200160009054906101000a900473ffffffffffffffffffffffffffffffffffffffff16303073ffffffffffffffffffffffffffffffffffffffff166040518463ffffffff1660e01b8152600401808473ffffffffffffffffffffffffffffffffffffffff1673ffffffffffffffffffffffffffffffffffffffff1681526020018373ffffffffffffffffffffffffffffffffffffffff1673ffffffffffffffffffffffffffffffffffffffff168152602001828152602001935050505060206040518083038186803b1580156130ef57600080fd5b505afa158015613103573d6000803e3d6000fd5b505050506040513d602081101561311957600080fd5b8101908080519060200190929190505050820191508080600101915050612fba565b508091505090565b600061314d6110e0565b6131bf576040517f08c379a00000000000000000000000000000000000000000000000000000000081526004018080602001828103825260128152602001807f4b656570206973206e6f7420616374697665000000000000000000000000000081525060200191505060405180910390fd5b60006132128888888888888080601f016020809104026020016040519081016040528093929190818152602001838380828437600081840152601f19601f820116905080830192505050505050506128cc565b905080613287576040517f08c379a000000000000000000000000000000000000000000000000000000000815260040180806020018281038252601b8152602001807f5369676e6174757265206973206e6f74206672617564756c656e74000000000081525060200191505060405180910390fd5b600b8484604051808383808284378083019250505092505050908152602001604051809103902060009054906101000a900460ff16613309576132c8613ae4565b6001600b8585604051808383808284378083019250505092505050908152602001604051809103902060006101000a81548160ff0219169083151502179055505b809150509695505050505050565b6000600754905090565b613329613b68565b565b60008082116133a2576040517f08c379a000000000000000000000000000000000000000000000000000000000815260040180806020018281038252601a8152602001807f536166654d6174683a206469766973696f6e206279207a65726f00000000000081525060200191505060405180910390fd5b60008284816133ad57fe5b0490508091505092915050565b600080821415613432576040517f08c379a00000000000000000000000000000000000000000000000000000000081526004018080602001828103825260188152602001807f536166654d6174683a206d6f64756c6f206279207a65726f000000000000000081525060200191505060405180910390fd5b81838161343b57fe5b06905092915050565b6000808284019050838110156134c2576040517f08c379a000000000000000000000000000000000000000000000000000000000815260040180806020018281038252601b8152602001807f536166654d6174683a206164646974696f6e206f766572666c6f77000000000081525060200191505060405180910390fd5b8091505092915050565b6000600d60009054906101000a900473ffffffffffffffffffffffffffffffffffffffff1673ffffffffffffffffffffffffffffffffffffffff1663ba7bffd3836040518263ffffffff1660e01b8152600401808273ffffffffffffffffffffffffffffffffffffffff1673ffffffffffffffffffffffffffffffffffffffff16815260200191505060206040518083038186803b15801561356d57600080fd5b505afa158015613581573d6000803e3d6000fd5b505050506040513d602081101561359757600080fd5b81019080805190602001909291905050509050919050565b6136af848573ffffffffffffffffffffffffffffffffffffffff166323b872dd905060e01b858585604051602401808473ffffffffffffffffffffffffffffffffffffffff1673ffffffffffffffffffffffffffffffffffffffff1681526020018373ffffffffffffffffffffffffffffffffffffffff1673ffffffffffffffffffffffffffffffffffffffff1681526020018281526020019350505050604051602081830303815290604052907bffffffffffffffffffffffffffffffffffffffffffffffffffffffff19166020820180517bffffffffffffffffffffffffffffffffffffffffffffffffffffffff8381831617835250505050613bba565b50505050565b6000806008541415905090565b600080600090505b8351811015613731578381815181106136df57fe5b602002602001015173ffffffffffffffffffffffffffffffffffffffff168373ffffffffffffffffffffffffffffffffffffffff161415613724576001915050613737565b80806001019150506136ca565b50600090505b92915050565b6000818051906020012060001c9050919050565b600c60159054906101000a900460ff16156137d4576040517f08c379a000000000000000000000000000000000000000000000000000000000815260040180806020018281038252601c8152602001807f436f6e747261637420616c726561647920696e697469616c697a65640000000081525060200191505060405180910390fd5b846000806101000a81548173ffffffffffffffffffffffffffffffffffffffff021916908373ffffffffffffffffffffffffffffffffffffffff160217905550836002908051906020019061382a929190613e98565b508260038190555080600160006101000a81548173ffffffffffffffffffffffffffffffffffffffff021916908373ffffffffffffffffffffffffffffffffffffffff1602179055506000600c60006101000a81548160ff0219169083600281111561389257fe5b02179055506001600c60156101000a81548160ff0219169083151502179055504260078190555081600c60016101000a81548173ffffffffffffffffffffffffffffffffffffffff021916908373ffffffffffffffffffffffffffffffffffffffff1602179055505050505050565b6001600c60006101000a81548160ff0219169083600281111561392057fe5b02179055507f400fd7ee62b209afddce9dfbca204b2124c135597dff0ac92e9844e2b08927f660405160405180910390a1565b60008090505b600280549050811015613a8157600c60019054906101000a900473ffffffffffffffffffffffffffffffffffffffff1673ffffffffffffffffffffffffffffffffffffffff16637ab3cf93600283815481106139b157fe5b9060005260206000200160009054906101000a900473ffffffffffffffffffffffffffffffffffffffff163073ffffffffffffffffffffffffffffffffffffffff166040518363ffffffff1660e01b8152600401808373ffffffffffffffffffffffffffffffffffffffff1673ffffffffffffffffffffffffffffffffffffffff16815260200182815260200192505050600060405180830381600087803b158015613a5c57600080fd5b505af1158015613a70573d6000803e3d6000fd5b505050508080600101915050613959565b50565b600080600960008473ffffffffffffffffffffffffffffffffffffffff1673ffffffffffffffffffffffffffffffffffffffff16815260200190815260200160002080546001816001161561010002031660029004905014159050919050565b600e60009054906101000a900473ffffffffffffffffffffffffffffffffffffffff1673ffffffffffffffffffffffffffffffffffffffff1663567b5daa6040518163ffffffff1660e01b8152600401600060405180830381600087803b158015613b4e57600080fd5b505af1158015613b62573d6000803e3d6000fd5b50505050565b6002600c60006101000a81548160ff02191690836002811115613b8757fe5b02179055507f39f530c1293a870138e53618b826819a76f1fe86b5d500ba4622f9e8354a846a60405160405180910390a1565b613bd98273ffffffffffffffffffffffffffffffffffffffff16613e05565b613c4b576040517f08c379a000000000000000000000000000000000000000000000000000000000815260040180806020018281038252601f8152602001807f5361666545524332303a2063616c6c20746f206e6f6e2d636f6e74726163740081525060200191505060405180910390fd5b600060608373ffffffffffffffffffffffffffffffffffffffff16836040518082805190602001908083835b60208310613c9a5780518252602082019150602081019050602083039250613c77565b6001836020036101000a0380198251168184511680821785525050505050509050019150506000604051808303816000865af19150503d8060008114613cfc576040519150601f19603f3d011682016040523d82523d6000602084013e613d01565b606091505b509150915081613d79576040517f08c379a00000000000000000000000000000000000000000000000000000000081526004018080602001828103825260208152602001807f5361666545524332303a206c6f772d6c6576656c2063616c6c206661696c656481525060200191505060405180910390fd5b600081511115613dff57808060200190516020811015613d9857600080fd5b8101908080519060200190929190505050613dfe576040517f08c379a000000000000000000000000000000000000000000000000000000000815260040180806020018281038252602a81526020018061407f602a913960400191505060405180910390fd5b5b50505050565b600080823b905060008111915050919050565b828054600181600116156101000203166002900490600052602060002090601f016020900481019282601f10613e5957803560ff1916838001178555613e87565b82800160010185558215613e87579182015b82811115613e86578235825591602001919060010190613e6b565b5b509050613e949190613f22565b5090565b828054828255906000526020600020908101928215613f11579160200282015b82811115613f105782518260006101000a81548173ffffffffffffffffffffffffffffffffffffffff021916908373ffffffffffffffffffffffffffffffffffffffff16021790555091602001919060010190613eb8565b5b509050613f1e9190613f47565b5090565b613f4491905b80821115613f40576000816000905550600101613f28565b5090565b90565b613f8791905b80821115613f8357600081816101000a81549073ffffffffffffffffffffffffffffffffffffffff021916905550600101613f4d565b5090565b9056fe5369676e65642064696765737420646f6573206e6f74206d61746368207368613235362068617368206f662074686520707265696d6167654d656d62657220616c7265616479207375626d69747465642061207075626c6963206b65795265636f76657279204944206d757374206265206f6e65206f66207b302c20312c20322c20337d5061727469616c207369676e657220626f6e64206d757374206265206e6f6e2d7a65726f4d616c6c6561626c65207369676e6174757265202d20732073686f756c6420626520696e20746865206c6f772068616c66206f6620736563703235366b312063757276652773206f726465725361666545524332303a204552433230206f7065726174696f6e20646964206e6f742073756363656564a265627a7a7231582094c5d636b2611a529f41244346be5b860ef06a2ba6d582e80c80f9bbdb9ba36464736f6c63430005110032",
  "source": "/**\n     \n   \n                            \n                             \n                           \n                           \n                          \n     \n     \n\n                           Trust math, not hardware.\n*/\n\npragma solidity 0.5.17;\n\nimport \"../AbstractBondedECDSAKeep.sol\";\nimport \"./FullyBackedBonding.sol\";\nimport \"./FullyBackedECDSAKeepFactory.sol\";\n\n/// @title Fully Backed Bonded ECDSA Keep\n/// @notice ECDSA keep with additional signer bond requirement that is fully backed\n/// by ETH only.\n/// @dev This contract is used as a master contract for clone factory in\n/// BondedECDSAKeepFactory as per EIP-1167.\ncontract FullyBackedECDSAKeep is AbstractBondedECDSAKeep {\n    FullyBackedBonding bonding;\n    FullyBackedECDSAKeepFactory keepFactory;\n\n    /// @notice Initialization function.\n    /// @dev We use clone factory to create new keep. That is why this contract\n    /// doesn't have a constructor. We provide keep parameters for each instance\n    /// function after cloning instances from the master contract.\n    /// @param _owner Address of the keep owner.\n    /// @param _members Addresses of the keep members.\n    /// @param _honestThreshold Minimum number of honest keep members.\n    /// @param _bonding Address of the Bonding contract.\n    /// @param _keepFactory Address of the BondedECDSAKeepFactory that created\n    /// this keep.\n    function initialize(\n        address _owner,\n        address[] memory _members,\n        uint256 _honestThreshold,\n        address _bonding,\n        address payable _keepFactory,\n        address _bondTokenAddress\n    ) public {\n        super.initialize(\n            _owner,\n            _members,\n            _honestThreshold,\n            _bonding,\n            _bondTokenAddress\n        );\n\n        bonding = FullyBackedBonding(_bonding);\n        keepFactory = FullyBackedECDSAKeepFactory(_keepFactory);\n\n        bonding.claimDelegatedAuthority(_keepFactory);\n    }\n\n    /// @notice Punishes keep members after proving a signature fraud.\n    /// @dev Calls the keep factory to ban members of the keep. The owner of the\n    /// keep is able to seize the members bonds, so no action is necessary to be\n    /// taken from perspective of this function.\n    function slashForSignatureFraud() internal {\n        keepFactory.banKeepMembers();\n    }\n\n    /// @notice Gets the beneficiary for the specified member address.\n    /// @param _member Member address.\n    /// @return Beneficiary address.\n    function beneficiaryOf(address _member)\n        internal\n        view\n        returns (address payable)\n    {\n        return bonding.beneficiaryOf(_member);\n    }\n}\n",
  "sourcePath": "/Users/konrad/Desktop/rumble/fin/local-setup/keep-ecdsa/solidity/contracts/fully-backed/FullyBackedECDSAKeep.sol",
  "compiler": {
    "name": "solc",
    "version": "0.5.17+commit.d19bba13.Emscripten.clang"
  },
  "schemaVersion": "3.3.4",
  "updatedAt": "2021-04-13T14:32:09.262Z",
  "networkType": "ethereum",
  "devdoc": {
    "details": "This contract is used as a master contract for clone factory in BondedECDSAKeepFactory as per EIP-1167.",
    "methods": {
      "checkBondAmount()": {
        "return": "The amount of the keep's ETH bond in wei."
      },
      "checkSignatureFraud(uint8,bytes32,bytes32,bytes32,bytes)": {
        "details": "The function expects the signed digest to be calculated as a sha256 hash of the preimage: `sha256(_preimage))`. The digest is verified against the preimage to ensure the security of the ECDSA protocol. Verifying just the signature and the digest is not enough and leaves the possibility of the the existential forgery. If digest and preimage verification fails the function reverts. Reverts if a public key has not been set for the keep yet.",
        "params": {
          "_preimage": "Preimage of the hashed message.",
          "_r": "R part of ECDSA signature.",
          "_s": "S part of ECDSA signature.",
          "_signedDigest": "Digest for the provided signature. Result of hashing the preimage with sha256.",
          "_v": "Signature's header byte: `27 + recoveryID`."
        },
        "return": "True if fraud, false otherwise."
      },
      "closeKeep()": {
        "details": "The function can be called only by the owner of the keep and only if the keep has not been already closed."
      },
      "distributeERC20Reward(address,uint256)": {
        "details": "This works with any ERC20 token that implements a transferFrom function similar to the interface imported here from OpenZeppelin. This function only has authority over pre-approved token amount. We don't explicitly check for allowance, SafeMath subtraction overflow is enough protection. If the value cannot be divided evenly across the signers, it submits the remainder to the last keep signer.",
        "params": {
          "_tokenAddress": "Address of the ERC20 token to distribute.",
          "_value": "Amount of ERC20 token to distribute."
        }
      },
      "distributeETHReward()": {
        "details": "Only the value passed to this function is distributed. This function does not transfer the value to beneficiaries accounts; instead it holds the value in the contract until withdraw function is called for the specific signer."
      },
      "getMemberETHBalance(address)": {
        "params": {
          "_member": "Keep member address."
        },
        "return": "Current balance in wei."
      },
      "getMembers()": {
        "return": "List of the keep members' addresses."
      },
      "getOpenedTimestamp()": {
        "return": "Timestamp the keep was opened at."
      },
      "getOwner()": {
        "return": "Address of the keep owner."
      },
      "getPublicKey()": {
        "return": "Keep's ECDSA public key."
      },
      "initialize(address,address[],uint256,address,address,address)": {
        "details": "We use clone factory to create new keep. That is why this contract doesn't have a constructor. We provide keep parameters for each instance function after cloning instances from the master contract.",
        "params": {
          "_bonding": "Address of the Bonding contract.",
          "_honestThreshold": "Minimum number of honest keep members.",
          "_keepFactory": "Address of the BondedECDSAKeepFactory that created this keep.",
          "_members": "Addresses of the keep members.",
          "_owner": "Address of the keep owner."
        }
      },
      "isActive()": {
        "return": "true if the keep is active, false otherwise."
      },
      "isAwaitingSignature(bytes32)": {
        "details": "Validates if the signing is currently in progress and compares provided digest with the one for which the latest signature was requested.",
        "params": {
          "_digest": "Digest for which to check if signature is being awaited."
        },
        "return": "True if the digest is currently expected to be signed, else false."
      },
      "isClosed()": {
        "return": "true if the keep is closed, false otherwise."
      },
      "isTerminated()": {
        "return": "true if the keep has been terminated, false otherwise."
      },
      "sign(bytes32)": {
        "details": "Only one signing process can be in progress at a time.",
        "params": {
          "_digest": "Digest to be signed."
        }
      },
      "submitPublicKey(bytes)": {
        "details": "Public key is published successfully if all members submit the same value. In case of conflicts with others members submissions it will emit `ConflictingPublicKeySubmitted` event. When all submitted keys match it will store the key as keep's public key and emit a `PublicKeyPublished` event.",
        "params": {
          "_publicKey": "Signer's public key."
        }
      },
      "submitSignature(bytes32,bytes32,uint8)": {
        "details": "Fails if signature has not been requested or a signature has already been submitted. Validates s value to ensure it's in the lower half of the secp256k1 curve's order.",
        "params": {
          "_r": "Calculated signature's R value.",
          "_recoveryID": "Calculated signature's recovery ID (one of {0, 1, 2, 3}).",
          "_s": "Calculated signature's S value."
        }
      },
      "submitSignatureFraud(uint8,bytes32,bytes32,bytes32,bytes)": {
        "details": "The function expects the signed digest to be calculated as a sha256 hash of the preimage: `sha256(_preimage))`. The function reverts if the signature is not fraudulent. The function does not revert if KEEP slashing failed but emits an event instead. In practice, KEEP slashing should never fail.",
        "params": {
          "_preimage": "Preimage of the hashed message.",
          "_r": "R part of ECDSA signature.",
          "_s": "S part of ECDSA signature.",
          "_signedDigest": "Digest for the provided signature. Result of hashing the preimage with sha256.",
          "_v": "Signature's header byte: `27 + recoveryID`."
        },
        "return": "True if fraud, error otherwise."
      },
      "withdraw(address)": {
        "params": {
          "_member": "Keep member address."
        }
      }
    },
    "title": "Fully Backed Bonded ECDSA Keep"
  },
  "userdoc": {
    "methods": {
      "checkBondAmount()": {
        "notice": "Returns the amount of the keep's ETH bond in wei."
      },
      "checkSignatureFraud(uint8,bytes32,bytes32,bytes32,bytes)": {
        "notice": "Checks a fraud proof for a valid signature from this keep that was not first approved via a call to sign."
      },
      "closeKeep()": {
        "notice": "Closes keep when owner decides that they no longer need it. Releases bonds to the keep members."
      },
      "distributeERC20Reward(address,uint256)": {
        "notice": "Distributes ERC20 reward evenly across all keep signer beneficiaries."
      },
      "distributeETHReward()": {
        "notice": "Distributes ETH reward evenly across all keep signer beneficiaries. If the value cannot be divided evenly across all signers, it sends the remainder to the last keep signer."
      },
      "getMemberETHBalance(address)": {
        "notice": "Gets current amount of ETH hold in the keep for the member."
      },
      "getMembers()": {
        "notice": "Returns members of the keep."
      },
      "getOpenedTimestamp()": {
        "notice": "Gets the timestamp the keep was opened at."
      },
      "getOwner()": {
        "notice": "Gets the owner of the keep."
      },
      "getPublicKey()": {
        "notice": "Returns keep's ECDSA public key."
      },
      "initialize(address,address[],uint256,address,address,address)": {
        "notice": "Initialization function."
      },
      "isActive()": {
        "notice": "Returns true if the keep is active."
      },
      "isAwaitingSignature(bytes32)": {
        "notice": "Checks if keep is currently awaiting a signature for the given digest."
      },
      "isClosed()": {
        "notice": "Returns true if the keep is closed and members no longer support this keep."
      },
      "isTerminated()": {
        "notice": "Returns true if the keep has been terminated. Keep is terminated when bonds are seized and members no longer support this keep."
      },
      "returnPartialSignerBonds(uint256)": {
        "notice": "Returns partial signer's ETH bonds to the pool as an unbounded value. This function is called after bonds have been seized and processed by the privileged application after calling seizeSignerBonds function. It is entirely up to the application if a part of signers' bonds is returned. The application may decide for that but may also decide to seize bonds and do not return anything."
      },
      "seizeSignerBonds()": {
        "notice": "Seizes the signers' ETH bonds. After seizing bonds keep is closed so it will no longer respond to signing requests. Bonds can be seized only when there is no signing in progress or requested signing process has timed out. This function seizes all of signers' bonds. The application may decide to return part of bonds later after they are processed using returnPartialSignerBonds function."
      },
      "sign(bytes32)": {
        "notice": "Calculates a signature over provided digest by the keep."
      },
      "submitPublicKey(bytes)": {
        "notice": "Submits a public key to the keep."
      },
      "submitSignature(bytes32,bytes32,uint8)": {
        "notice": "Submits a signature calculated for the given digest."
      },
      "submitSignatureFraud(uint8,bytes32,bytes32,bytes32,bytes)": {
        "notice": "Submits a fraud proof for a valid signature from this keep that was not first approved via a call to sign. If fraud is detected it tries to slash members' KEEP tokens. For each keep member tries slashing amount equal to the member stake set by the factory when keep was created."
      },
      "withdraw(address)": {
        "notice": "Withdraws amount of ether hold in the keep for the member. The value is sent to the beneficiary of the specific member."
      }
    },
    "notice": "ECDSA keep with additional signer bond requirement that is fully backed by ETH only."
  }
}