{
  "contractName": "FullyBackedECDSAKeepFactoryStub",
  "abi": [
    {
      "inputs": [
        {
          "internalType": "address",
          "name": "_masterKeepAddress",
          "type": "address"
        },
        {
          "internalType": "address",
          "name": "_sortitionPoolFactoryAddress",
          "type": "address"
        },
        {
          "internalType": "address",
          "name": "_bondingAddress",
          "type": "address"
        },
        {
          "internalType": "address",
          "name": "_randomBeaconAddress",
          "type": "address"
        },
        {
          "internalType": "address",
          "name": "_bondTokenAddress",
          "type": "address"
        }
      ],
      "payable": false,
      "stateMutability": "nonpayable",
      "type": "constructor"
    },
    {
      "anonymous": false,
      "inputs": [
        {
          "indexed": true,
          "internalType": "address",
          "name": "keepAddress",
          "type": "address"
        },
        {
          "indexed": false,
          "internalType": "address[]",
          "name": "members",
          "type": "address[]"
        },
        {
          "indexed": true,
          "internalType": "address",
          "name": "owner",
          "type": "address"
        },
        {
          "indexed": true,
          "internalType": "address",
          "name": "application",
          "type": "address"
        },
        {
          "indexed": false,
          "internalType": "uint256",
          "name": "honestThreshold",
          "type": "uint256"
        }
      ],
      "name": "FullyBackedECDSAKeepCreated",
      "type": "event"
    },
    {
      "anonymous": false,
      "inputs": [
        {
          "indexed": true,
          "internalType": "address",
          "name": "operator",
          "type": "address"
        },
        {
          "indexed": true,
          "internalType": "address",
          "name": "application",
          "type": "address"
        }
      ],
      "name": "OperatorBanned",
      "type": "event"
    },
    {
      "anonymous": false,
      "inputs": [
        {
          "indexed": true,
          "internalType": "address",
          "name": "application",
          "type": "address"
        },
        {
          "indexed": false,
          "internalType": "address",
          "name": "sortitionPool",
          "type": "address"
        }
      ],
      "name": "SortitionPoolCreated",
      "type": "event"
    },
    {
      "payable": true,
      "stateMutability": "payable",
      "type": "fallback"
    },
    {
      "constant": false,
      "inputs": [
        {
          "internalType": "uint256",
          "name": "_relayEntry",
          "type": "uint256"
        }
      ],
      "name": "__beaconCallback",
      "outputs": [],
      "payable": false,
      "stateMutability": "nonpayable",
      "type": "function"
    },
    {
      "constant": false,
      "inputs": [
        {
          "internalType": "address",
          "name": "_delegatedAuthorityRecipient",
          "type": "address"
        }
      ],
      "name": "__isRecognized",
      "outputs": [
        {
          "internalType": "bool",
          "name": "",
          "type": "bool"
        }
      ],
      "payable": false,
      "stateMutability": "nonpayable",
      "type": "function"
    },
    {
      "constant": false,
      "inputs": [],
      "name": "banKeepMembers",
      "outputs": [],
      "payable": false,
      "stateMutability": "nonpayable",
      "type": "function"
    },
    {
      "constant": true,
      "inputs": [],
      "name": "bondTokenAddress",
      "outputs": [
        {
          "internalType": "address",
          "name": "",
          "type": "address"
        }
      ],
      "payable": false,
      "stateMutability": "view",
      "type": "function"
    },
    {
      "constant": true,
      "inputs": [],
      "name": "bondWeightDivisor",
      "outputs": [
        {
          "internalType": "uint256",
          "name": "",
          "type": "uint256"
        }
      ],
      "payable": false,
      "stateMutability": "view",
      "type": "function"
    },
    {
      "constant": true,
      "inputs": [],
      "name": "callbackGas",
      "outputs": [
        {
          "internalType": "uint256",
          "name": "",
          "type": "uint256"
        }
      ],
      "payable": false,
      "stateMutability": "view",
      "type": "function"
    },
    {
      "constant": false,
      "inputs": [
        {
          "internalType": "address",
          "name": "_application",
          "type": "address"
        }
      ],
      "name": "createSortitionPool",
      "outputs": [
        {
          "internalType": "address",
          "name": "",
          "type": "address"
        }
      ],
      "payable": false,
      "stateMutability": "nonpayable",
      "type": "function"
    },
    {
      "constant": true,
      "inputs": [],
      "name": "defaultMinimumBond",
      "outputs": [
        {
          "internalType": "uint256",
          "name": "",
          "type": "uint256"
        }
      ],
      "payable": false,
      "stateMutability": "view",
      "type": "function"
    },
    {
      "constant": true,
      "inputs": [
        {
          "internalType": "uint256",
          "name": "index",
          "type": "uint256"
        }
      ],
      "name": "getKeepAtIndex",
      "outputs": [
        {
          "internalType": "address",
          "name": "",
          "type": "address"
        }
      ],
      "payable": false,
      "stateMutability": "view",
      "type": "function"
    },
    {
      "constant": true,
      "inputs": [],
      "name": "getKeepCount",
      "outputs": [
        {
          "internalType": "uint256",
          "name": "",
          "type": "uint256"
        }
      ],
      "payable": false,
      "stateMutability": "view",
      "type": "function"
    },
    {
      "constant": true,
      "inputs": [
        {
          "internalType": "address",
          "name": "_keep",
          "type": "address"
        }
      ],
      "name": "getKeepOpenedTimestamp",
      "outputs": [
        {
          "internalType": "uint256",
          "name": "",
          "type": "uint256"
        }
      ],
      "payable": false,
      "stateMutability": "view",
      "type": "function"
    },
    {
      "constant": true,
      "inputs": [
        {
          "internalType": "address",
          "name": "_application",
          "type": "address"
        }
      ],
      "name": "getSortitionPool",
      "outputs": [
        {
          "internalType": "address",
          "name": "",
          "type": "address"
        }
      ],
      "payable": false,
      "stateMutability": "view",
      "type": "function"
    },
    {
      "constant": true,
      "inputs": [
        {
          "internalType": "address",
          "name": "_application",
          "type": "address"
        }
      ],
      "name": "getSortitionPoolWeight",
      "outputs": [
        {
          "internalType": "uint256",
          "name": "",
          "type": "uint256"
        }
      ],
      "payable": false,
      "stateMutability": "view",
      "type": "function"
    },
    {
      "constant": true,
      "inputs": [],
      "name": "groupSelectionSeed",
      "outputs": [
        {
          "internalType": "uint256",
          "name": "",
          "type": "uint256"
        }
      ],
      "payable": false,
      "stateMutability": "view",
      "type": "function"
    },
    {
      "constant": true,
      "inputs": [
        {
          "internalType": "address",
          "name": "_operator",
          "type": "address"
        }
      ],
      "name": "isOperatorAuthorized",
      "outputs": [
        {
          "internalType": "bool",
          "name": "",
          "type": "bool"
        }
      ],
      "payable": false,
      "stateMutability": "view",
      "type": "function"
    },
    {
      "constant": true,
      "inputs": [
        {
          "internalType": "address",
          "name": "_operator",
          "type": "address"
        },
        {
          "internalType": "address",
          "name": "_application",
          "type": "address"
        }
      ],
      "name": "isOperatorEligible",
      "outputs": [
        {
          "internalType": "bool",
          "name": "",
          "type": "bool"
        }
      ],
      "payable": false,
      "stateMutability": "view",
      "type": "function"
    },
    {
      "constant": true,
      "inputs": [
        {
          "internalType": "address",
          "name": "_operator",
          "type": "address"
        },
        {
          "internalType": "address",
          "name": "_application",
          "type": "address"
        }
      ],
      "name": "isOperatorRegistered",
      "outputs": [
        {
          "internalType": "bool",
          "name": "",
          "type": "bool"
        }
      ],
      "payable": false,
      "stateMutability": "view",
      "type": "function"
    },
    {
      "constant": true,
      "inputs": [
        {
          "internalType": "address",
          "name": "_operator",
          "type": "address"
        },
        {
          "internalType": "address",
          "name": "_application",
          "type": "address"
        }
      ],
      "name": "isOperatorUpToDate",
      "outputs": [
        {
          "internalType": "bool",
          "name": "",
          "type": "bool"
        }
      ],
      "payable": false,
      "stateMutability": "view",
      "type": "function"
    },
    {
      "constant": true,
      "inputs": [
        {
          "internalType": "uint256",
          "name": "",
          "type": "uint256"
        }
      ],
      "name": "keeps",
      "outputs": [
        {
          "internalType": "address",
          "name": "",
          "type": "address"
        }
      ],
      "payable": false,
      "stateMutability": "view",
      "type": "function"
    },
    {
      "constant": true,
      "inputs": [],
      "name": "masterKeepAddress",
      "outputs": [
        {
          "internalType": "address",
          "name": "",
          "type": "address"
        }
      ],
      "payable": false,
      "stateMutability": "view",
      "type": "function"
    },
    {
      "constant": true,
      "inputs": [],
      "name": "newEntryFeeEstimate",
      "outputs": [
        {
          "internalType": "uint256",
          "name": "",
          "type": "uint256"
        }
      ],
      "payable": false,
      "stateMutability": "view",
      "type": "function"
    },
    {
      "constant": true,
      "inputs": [],
      "name": "newGroupSelectionSeedFee",
      "outputs": [
        {
          "internalType": "uint256",
          "name": "",
          "type": "uint256"
        }
      ],
      "payable": false,
      "stateMutability": "view",
      "type": "function"
    },
    {
      "constant": false,
      "inputs": [
        {
          "internalType": "uint256",
          "name": "_groupSize",
          "type": "uint256"
        },
        {
          "internalType": "uint256",
          "name": "_honestThreshold",
          "type": "uint256"
        },
        {
          "internalType": "address",
          "name": "_owner",
          "type": "address"
        },
        {
          "internalType": "uint256",
          "name": "_bond",
          "type": "uint256"
        },
        {
          "internalType": "uint256",
          "name": "_stakeLockDuration",
          "type": "uint256"
        }
      ],
      "name": "openKeep",
      "outputs": [
        {
          "internalType": "address",
          "name": "keepAddress",
          "type": "address"
        }
      ],
      "payable": true,
      "stateMutability": "payable",
      "type": "function"
    },
    {
      "constant": true,
      "inputs": [],
      "name": "openKeepFeeEstimate",
      "outputs": [
        {
          "internalType": "uint256",
          "name": "",
          "type": "uint256"
        }
      ],
      "payable": false,
      "stateMutability": "view",
      "type": "function"
    },
    {
      "constant": false,
      "inputs": [
        {
          "internalType": "address",
          "name": "_application",
          "type": "address"
        }
      ],
      "name": "registerMemberCandidate",
      "outputs": [],
      "payable": false,
      "stateMutability": "nonpayable",
      "type": "function"
    },
    {
      "constant": false,
      "inputs": [],
      "name": "requestNewGroupSelectionSeed",
      "outputs": [],
      "payable": true,
      "stateMutability": "payable",
      "type": "function"
    },
    {
      "constant": true,
      "inputs": [],
      "name": "reseedPool",
      "outputs": [
        {
          "internalType": "uint256",
          "name": "",
          "type": "uint256"
        }
      ],
      "payable": false,
      "stateMutability": "view",
      "type": "function"
    },
    {
      "constant": false,
      "inputs": [
        {
          "internalType": "uint256",
          "name": "_minimumBondableValue",
          "type": "uint256"
        },
        {
          "internalType": "uint256",
          "name": "_groupSize",
          "type": "uint256"
        },
        {
          "internalType": "uint256",
          "name": "_honestThreshold",
          "type": "uint256"
        }
      ],
      "name": "setMinimumBondableValue",
      "outputs": [],
      "payable": false,
      "stateMutability": "nonpayable",
      "type": "function"
    },
    {
      "constant": false,
      "inputs": [
        {
          "internalType": "address",
          "name": "_operator",
          "type": "address"
        },
        {
          "internalType": "address",
          "name": "_application",
          "type": "address"
        }
      ],
      "name": "updateOperatorStatus",
      "outputs": [],
      "payable": false,
      "stateMutability": "nonpayable",
      "type": "function"
    },
    {
      "constant": false,
      "inputs": [
        {
          "internalType": "uint256",
          "name": "_groupSelectionSeed",
          "type": "uint256"
        }
      ],
      "name": "initialGroupSelectionSeed",
      "outputs": [],
      "payable": false,
      "stateMutability": "nonpayable",
      "type": "function"
    },
    {
      "constant": true,
      "inputs": [],
      "name": "getGroupSelectionSeed",
      "outputs": [
        {
          "internalType": "uint256",
          "name": "",
          "type": "uint256"
        }
      ],
      "payable": false,
      "stateMutability": "view",
      "type": "function"
    }
  ],
  "bytecode": "0x608060405234801561001057600080fd5b50604051613672380380613672833981810160405260a081101561003357600080fd5b81019080805190602001909291908051906020019092919080519060200190929190805190602001909291908051906020019092919050505084848484848185806000806101000a81548173ffffffffffffffffffffffffffffffffffffffff021916908373ffffffffffffffffffffffffffffffffffffffff16021790555050600160038190555080600460006101000a81548173ffffffffffffffffffffffffffffffffffffffff021916908373ffffffffffffffffffffffffffffffffffffffff1602179055507f4574c8c75d6e88acd28f7e467dac97b5c60c3838d9dad993900bdf402152228e6006819055505080600b60006101000a81548173ffffffffffffffffffffffffffffffffffffffff021916908373ffffffffffffffffffffffffffffffffffffffff16021790555083600860006101000a81548173ffffffffffffffffffffffffffffffffffffffff021916908373ffffffffffffffffffffffffffffffffffffffff16021790555082600960006101000a81548173ffffffffffffffffffffffffffffffffffffffff021916908373ffffffffffffffffffffffffffffffffffffffff16021790555050505050505050505050613471806102016000396000f3fe6080604052600436106101d85760003560e01c806392ae584a11610102578063bc2c289f11610095578063d14fede111610064578063d14fede114610a45578063d870c03414610aaa578063ebcbb39f14610b13578063eca4a80d14610b78576101d8565b8063bc2c289f14610908578063c3cbd0ce14610933578063c534544a1461096e578063ca050cfd14610999576101d8565b8063a5b31055116100d1578063a5b31055146107da578063b2dc759314610805578063b7a6f48314610830578063b8ee9156146108b9576101d8565b806392ae584a14610644578063a10132ad14610695578063a23af330146106c0578063a3c28a1314610749576101d8565b8063514899851161017a5780635cef8417116101495780635cef84171461051c5780636b2b7ae21461057357806379a382e91461059e5780638701af42146105c9576101d8565b80635148998514610426578063567b5daa146104515780635b0d5b8e146104685780635b8c2d41146104f1576101d8565b806321f74e56116101b657806321f74e561461034d578063356e07281461035757806336c2a0001461039257806338400400146103fb576101d8565b806309211ceb146101ea5780631133fd2c1461027b578063202bb9f0146102d2575b34600560008282540192505081905550005b3480156101f657600080fd5b506102396004803603602081101561020d57600080fd5b81019080803573ffffffffffffffffffffffffffffffffffffffff169060200190929190505050610be9565b604051808273ffffffffffffffffffffffffffffffffffffffff1673ffffffffffffffffffffffffffffffffffffffff16815260200191505060405180910390f35b34801561028757600080fd5b50610290610d36565b604051808273ffffffffffffffffffffffffffffffffffffffff1673ffffffffffffffffffffffffffffffffffffffff16815260200191505060405180910390f35b3480156102de57600080fd5b5061030b600480360360208110156102f557600080fd5b8101908080359060200190929190505050610d5c565b604051808273ffffffffffffffffffffffffffffffffffffffff1673ffffffffffffffffffffffffffffffffffffffff16815260200191505060405180910390f35b610355610e17565b005b34801561036357600080fd5b506103906004803603602081101561037a57600080fd5b81019080803590602001909291905050506110a9565b005b34801561039e57600080fd5b506103e1600480360360208110156103b557600080fd5b81019080803573ffffffffffffffffffffffffffffffffffffffff169060200190929190505050611176565b604051808215151515815260200191505060405180910390f35b34801561040757600080fd5b5061041061128d565b6040518082815260200191505060405180910390f35b34801561043257600080fd5b5061043b61136f565b6040518082815260200191505060405180910390f35b34801561045d57600080fd5b50610466611426565b005b34801561047457600080fd5b506104d76004803603604081101561048b57600080fd5b81019080803573ffffffffffffffffffffffffffffffffffffffff169060200190929190803573ffffffffffffffffffffffffffffffffffffffff169060200190929190505050611780565b604051808215151515815260200191505060405180910390f35b3480156104fd57600080fd5b50610506611944565b6040518082815260200191505060405180910390f35b34801561052857600080fd5b5061053161194e565b604051808273ffffffffffffffffffffffffffffffffffffffff1673ffffffffffffffffffffffffffffffffffffffff16815260200191505060405180910390f35b34801561057f57600080fd5b50610588611973565b6040518082815260200191505060405180910390f35b3480156105aa57600080fd5b506105b361197f565b6040518082815260200191505060405180910390f35b3480156105d557600080fd5b50610602600480360360208110156105ec57600080fd5b8101908080359060200190929190505050611985565b604051808273ffffffffffffffffffffffffffffffffffffffff1673ffffffffffffffffffffffffffffffffffffffff16815260200191505060405180910390f35b34801561065057600080fd5b506106936004803603602081101561066757600080fd5b81019080803573ffffffffffffffffffffffffffffffffffffffff1690602001909291905050506119c1565b005b3480156106a157600080fd5b506106aa611b2c565b6040518082815260200191505060405180910390f35b3480156106cc57600080fd5b5061072f600480360360408110156106e357600080fd5b81019080803573ffffffffffffffffffffffffffffffffffffffff169060200190929190803573ffffffffffffffffffffffffffffffffffffffff169060200190929190505050611b32565b604051808215151515815260200191505060405180910390f35b34801561075557600080fd5b506107986004803603602081101561076c57600080fd5b81019080803573ffffffffffffffffffffffffffffffffffffffff169060200190929190505050611bfd565b604051808273ffffffffffffffffffffffffffffffffffffffff1673ffffffffffffffffffffffffffffffffffffffff16815260200191505060405180910390f35b3480156107e657600080fd5b506107ef611e6c565b6040518082815260200191505060405180910390f35b34801561081157600080fd5b5061081a611e72565b6040518082815260200191505060405180910390f35b34801561083c57600080fd5b5061089f6004803603604081101561085357600080fd5b81019080803573ffffffffffffffffffffffffffffffffffffffff169060200190929190803573ffffffffffffffffffffffffffffffffffffffff169060200190929190505050611e7f565b604051808215151515815260200191505060405180910390f35b3480156108c557600080fd5b50610906600480360360608110156108dc57600080fd5b81019080803590602001909291908035906020019092919080359060200190929190505050612043565b005b34801561091457600080fd5b5061091d6120ca565b6040518082815260200191505060405180910390f35b34801561093f57600080fd5b5061096c6004803603602081101561095657600080fd5b81019080803590602001909291905050506120d9565b005b34801561097a57600080fd5b506109836120e3565b6040518082815260200191505060405180910390f35b610a03600480360360a08110156109af57600080fd5b810190808035906020019092919080359060200190929190803573ffffffffffffffffffffffffffffffffffffffff16906020019092919080359060200190929190803590602001909291905050506120f0565b604051808273ffffffffffffffffffffffffffffffffffffffff1673ffffffffffffffffffffffffffffffffffffffff16815260200191505060405180910390f35b348015610a5157600080fd5b50610a9460048036036020811015610a6857600080fd5b81019080803573ffffffffffffffffffffffffffffffffffffffff1690602001909291905050506129db565b6040518082815260200191505060405180910390f35b348015610ab657600080fd5b50610af960048036036020811015610acd57600080fd5b81019080803573ffffffffffffffffffffffffffffffffffffffff169060200190929190505050612a24565b604051808215151515815260200191505060405180910390f35b348015610b1f57600080fd5b50610b6260048036036020811015610b3657600080fd5b81019080803573ffffffffffffffffffffffffffffffffffffffff169060200190929190505050612a6f565b6040518082815260200191505060405180910390f35b348015610b8457600080fd5b50610be760048036036040811015610b9b57600080fd5b81019080803573ffffffffffffffffffffffffffffffffffffffff169060200190929190803573ffffffffffffffffffffffffffffffffffffffff169060200190929190505050612b01565b005b60008073ffffffffffffffffffffffffffffffffffffffff16600760008473ffffffffffffffffffffffffffffffffffffffff1673ffffffffffffffffffffffffffffffffffffffff16815260200190815260200160002060009054906101000a900473ffffffffffffffffffffffffffffffffffffffff1673ffffffffffffffffffffffffffffffffffffffff161415610ccf576040517f08c379a00000000000000000000000000000000000000000000000000000000081526004018080602001828103825260218152602001806133cf6021913960400191505060405180910390fd5b600760008373ffffffffffffffffffffffffffffffffffffffff1673ffffffffffffffffffffffffffffffffffffffff16815260200190815260200160002060009054906101000a900473ffffffffffffffffffffffffffffffffffffffff169050919050565b600b60009054906101000a900473ffffffffffffffffffffffffffffffffffffffff1681565b60006001805490508210610dd8576040517f08c379a000000000000000000000000000000000000000000000000000000000815260040180806020018281038252600e8152602001807f4f7574206f6620626f756e64732e00000000000000000000000000000000000081525060200191505060405180910390fd5b60018281548110610de557fe5b9060005260206000200160009054906101000a900473ffffffffffffffffffffffffffffffffffffffff169050919050565b600160036000828254019250508190555060006003549050610e4434600554612ba590919063ffffffff16565b6005819055506000600460009054906101000a900473ffffffffffffffffffffffffffffffffffffffff1673ffffffffffffffffffffffffffffffffffffffff1663d13f13916175306040518263ffffffff1660e01b81526004018082815260200191505060206040518083038186803b158015610ec157600080fd5b505afa158015610ed5573d6000803e3d6000fd5b505050506040513d6020811015610eeb57600080fd5b81019080805190602001909291905050509050806005541015610f59576040517f08c379a000000000000000000000000000000000000000000000000000000000815260040180806020018281038252602281526020018061341b6022913960400191505060405180910390fd5b610f6e81600554612c2d90919063ffffffff16565b60058190555060006060610f8183612cb6565b915091508161102c57806040517f08c379a00000000000000000000000000000000000000000000000000000000081526004018080602001828103825283818151815260200191508051906020019080838360005b83811015610ff1578082015181840152602081019050610fd6565b50505050905090810190601f16801561101e5780820380516001836020036101000a031916815260200191505b509250505060405180910390fd5b50505060035481146110a6576040517f08c379a000000000000000000000000000000000000000000000000000000000815260040180806020018281038252601f8152602001807f5265656e7472616e637947756172643a207265656e7472616e742063616c6c0081525060200191505060405180910390fd5b50565b3373ffffffffffffffffffffffffffffffffffffffff16600460009054906101000a900473ffffffffffffffffffffffffffffffffffffffff1673ffffffffffffffffffffffffffffffffffffffff161461116c576040517f08c379a000000000000000000000000000000000000000000000000000000000815260040180806020018281038252601f8152602001807f43616c6c6572206973206e6f74207468652072616e646f6d20626561636f6e0081525060200191505060405180910390fd5b8060068190555050565b6000600960009054906101000a900473ffffffffffffffffffffffffffffffffffffffff1673ffffffffffffffffffffffffffffffffffffffff1663ef1f966183306040518363ffffffff1660e01b8152600401808373ffffffffffffffffffffffffffffffffffffffff1673ffffffffffffffffffffffffffffffffffffffff1681526020018273ffffffffffffffffffffffffffffffffffffffff1673ffffffffffffffffffffffffffffffffffffffff1681526020019250505060206040518083038186803b15801561124b57600080fd5b505afa15801561125f573d6000803e3d6000fd5b505050506040513d602081101561127557600080fd5b81019080805190602001909291905050509050919050565b600080600460009054906101000a900473ffffffffffffffffffffffffffffffffffffffff1673ffffffffffffffffffffffffffffffffffffffff1663d13f13916175306040518263ffffffff1660e01b81526004018082815260200191505060206040518083038186803b15801561130557600080fd5b505afa158015611319573d6000803e3d6000fd5b505050506040513d602081101561132f57600080fd5b810190808051906020019092919050505090506005548111156113665761136160055482612c2d90919063ffffffff16565b611369565b60005b91505090565b6000600460009054906101000a900473ffffffffffffffffffffffffffffffffffffffff1673ffffffffffffffffffffffffffffffffffffffff1663d13f13916175306040518263ffffffff1660e01b81526004018082815260200191505060206040518083038186803b1580156113e657600080fd5b505afa1580156113fa573d6000803e3d6000fd5b505050506040513d602081101561141057600080fd5b8101908080519060200190929190505050905090565b6000600260003373ffffffffffffffffffffffffffffffffffffffff1673ffffffffffffffffffffffffffffffffffffffff16815260200190815260200160002054116114be576040517f08c379a000000000000000000000000000000000000000000000000000000000815260040180806020018281038252602b815260200180613354602b913960400191505060405180910390fd5b600033905060608173ffffffffffffffffffffffffffffffffffffffff16639eab52536040518163ffffffff1660e01b815260040160006040518083038186803b15801561150b57600080fd5b505afa15801561151f573d6000803e3d6000fd5b505050506040513d6000823e3d601f19601f82011682018060405250602081101561154957600080fd5b810190808051604051939291908464010000000082111561156957600080fd5b8382019150602082018581111561157f57600080fd5b825186602082028301116401000000008211171561159c57600080fd5b8083526020830192505050908051906020019060200280838360005b838110156115d35780820151818401526020810190506115b8565b5050505090500160405250505090506000600a60008473ffffffffffffffffffffffffffffffffffffffff1673ffffffffffffffffffffffffffffffffffffffff16815260200190815260200160002060009054906101000a900473ffffffffffffffffffffffffffffffffffffffff169050600061165182610be9565b905060008090505b835181101561177957600084828151811061167057fe5b602002602001015190508273ffffffffffffffffffffffffffffffffffffffff166397c3ccd8826040518263ffffffff1660e01b8152600401808273ffffffffffffffffffffffffffffffffffffffff1673ffffffffffffffffffffffffffffffffffffffff168152602001915050600060405180830381600087803b1580156116f957600080fd5b505af115801561170d573d6000803e3d6000fd5b505050508373ffffffffffffffffffffffffffffffffffffffff168173ffffffffffffffffffffffffffffffffffffffff167f8303b66802d9f0f82b0299303b3f20d7f55815385a912b1b7fc79224e59fa12b60405160405180910390a3508080600101915050611659565b5050505050565b60008073ffffffffffffffffffffffffffffffffffffffff16600760008473ffffffffffffffffffffffffffffffffffffffff1673ffffffffffffffffffffffffffffffffffffffff16815260200190815260200160002060009054906101000a900473ffffffffffffffffffffffffffffffffffffffff1673ffffffffffffffffffffffffffffffffffffffff16141561181e576000905061193e565b6000600760008473ffffffffffffffffffffffffffffffffffffffff1673ffffffffffffffffffffffffffffffffffffffff16815260200190815260200160002060009054906101000a900473ffffffffffffffffffffffffffffffffffffffff1690508073ffffffffffffffffffffffffffffffffffffffff1663b4766856856040518263ffffffff1660e01b8152600401808273ffffffffffffffffffffffffffffffffffffffff1673ffffffffffffffffffffffffffffffffffffffff16815260200191505060206040518083038186803b1580156118ff57600080fd5b505afa158015611913573d6000803e3d6000fd5b505050506040513d602081101561192957600080fd5b81019080805190602001909291905050509150505b92915050565b6000600654905090565b6000809054906101000a900473ffffffffffffffffffffffffffffffffffffffff1681565b670de0b6b3a764000081565b60065481565b6001818154811061199257fe5b906000526020600020016000915054906101000a900473ffffffffffffffffffffffffffffffffffffffff1681565b60006119cc82610be9565b905060003390508173ffffffffffffffffffffffffffffffffffffffff1663f7186ce0826040518263ffffffff1660e01b8152600401808273ffffffffffffffffffffffffffffffffffffffff1673ffffffffffffffffffffffffffffffffffffffff16815260200191505060206040518083038186803b158015611a5057600080fd5b505afa158015611a64573d6000803e3d6000fd5b505050506040513d6020811015611a7a57600080fd5b8101908080519060200190929190505050611b27578173ffffffffffffffffffffffffffffffffffffffff16631ae0e73d826040518263ffffffff1660e01b8152600401808273ffffffffffffffffffffffffffffffffffffffff1673ffffffffffffffffffffffffffffffffffffffff168152602001915050600060405180830381600087803b158015611b0e57600080fd5b505af1158015611b22573d6000803e3d6000fd5b505050505b505050565b61753081565b6000611b3e8383612e5c565b73ffffffffffffffffffffffffffffffffffffffff1663e686440f846040518263ffffffff1660e01b8152600401808273ffffffffffffffffffffffffffffffffffffffff1673ffffffffffffffffffffffffffffffffffffffff16815260200191505060206040518083038186803b158015611bba57600080fd5b505afa158015611bce573d6000803e3d6000fd5b505050506040513d6020811015611be457600080fd5b8101908080519060200190929190505050905092915050565b60008073ffffffffffffffffffffffffffffffffffffffff16600760008473ffffffffffffffffffffffffffffffffffffffff1673ffffffffffffffffffffffffffffffffffffffff16815260200190815260200160002060009054906101000a900473ffffffffffffffffffffffffffffffffffffffff1673ffffffffffffffffffffffffffffffffffffffff1614611cff576040517f08c379a000000000000000000000000000000000000000000000000000000000815260040180806020018281038252601d8152602001807f536f72746974696f6e20706f6f6c20616c72656164792065786973747300000081525060200191505060405180910390fd5b6000611d0a83612f25565b905080600760008573ffffffffffffffffffffffffffffffffffffffff1673ffffffffffffffffffffffffffffffffffffffff16815260200190815260200160002060006101000a81548173ffffffffffffffffffffffffffffffffffffffff021916908373ffffffffffffffffffffffffffffffffffffffff1602179055508273ffffffffffffffffffffffffffffffffffffffff167f693c68cd964926544cbaee02b00d9352aa98c6de2484515e8bd74130c005e6af82604051808273ffffffffffffffffffffffffffffffffffffffff1673ffffffffffffffffffffffffffffffffffffffff16815260200191505060405180910390a2600760008473ffffffffffffffffffffffffffffffffffffffff1673ffffffffffffffffffffffffffffffffffffffff16815260200190815260200160002060009054906101000a900473ffffffffffffffffffffffffffffffffffffffff16915050919050565b60055481565b6000600180549050905090565b60008073ffffffffffffffffffffffffffffffffffffffff16600760008473ffffffffffffffffffffffffffffffffffffffff1673ffffffffffffffffffffffffffffffffffffffff16815260200190815260200160002060009054906101000a900473ffffffffffffffffffffffffffffffffffffffff1673ffffffffffffffffffffffffffffffffffffffff161415611f1d576000905061203d565b6000600760008473ffffffffffffffffffffffffffffffffffffffff1673ffffffffffffffffffffffffffffffffffffffff16815260200190815260200160002060009054906101000a900473ffffffffffffffffffffffffffffffffffffffff1690508073ffffffffffffffffffffffffffffffffffffffff16636b1906f8856040518263ffffffff1660e01b8152600401808273ffffffffffffffffffffffffffffffffffffffff1673ffffffffffffffffffffffffffffffffffffffff16815260200191505060206040518083038186803b158015611ffe57600080fd5b505afa158015612012573d6000803e3d6000fd5b505050506040513d602081101561202857600080fd5b81019080805190602001909291905050509150505b92915050565b600061204f848461304d565b905061205a33610be9565b73ffffffffffffffffffffffffffffffffffffffff166334ce30f0826040518263ffffffff1660e01b815260040180828152602001915050600060405180830381600087803b1580156120ac57600080fd5b505af11580156120c0573d6000803e3d6000fd5b5050505050505050565b60006120d461136f565b905090565b8060068190555050565b6801158e460913d0000081565b600060016003600082825401925050819055506000600354905060008711612180576040517f08c379a000000000000000000000000000000000000000000000000000000000815260040180806020018281038252601f8152602001807f4d696e696d756d207369676e696e672067726f75702073697a6520697320310081525060200191505060405180910390fd5b60108711156121f7576040517f08c379a00000000000000000000000000000000000000000000000000000000081526004018080602001828103825260208152602001807f4d6178696d756d207369676e696e672067726f75702073697a6520697320313681525060200191505060405180910390fd5b60008611612250576040517f08c379a00000000000000000000000000000000000000000000000000000000081526004018080602001828103825260278152602001806133a86027913960400191505060405180910390fd5b868611156122a9576040517f08c379a000000000000000000000000000000000000000000000000000000000815260040180806020018281038252603581526020018061331f6035913960400191505060405180910390fd5b600033905060006122b982610be9565b905060006122c7878b61304d565b905060008111612322576040517f08c379a000000000000000000000000000000000000000000000000000000000815260040180806020018281038252602981526020018061337f6029913960400191505060405180910390fd5b61232a6120ca565b341015612382576040517f08c379a000000000000000000000000000000000000000000000000000000000815260040180806020018281038252602b8152602001806132f4602b913960400191505060405180910390fd5b60608273ffffffffffffffffffffffffffffffffffffffff1663a56931e88c60065460001b856040518463ffffffff1660e01b8152600401808481526020018381526020018281526020019350505050600060405180830381600087803b1580156123ec57600080fd5b505af1158015612400573d6000803e3d6000fd5b505050506040513d6000823e3d601f19601f82011682018060405250602081101561242a57600080fd5b810190808051604051939291908464010000000082111561244a57600080fd5b8382019150602082018581111561246057600080fd5b825186602082028301116401000000008211171561247d57600080fd5b8083526020830192505050908051906020019060200280838360005b838110156124b4578082015181840152602081019050612499565b5050505090500160405250505090506124cb61308f565b6124d361311f565b95508573ffffffffffffffffffffffffffffffffffffffff16638e7429b38a838d600960009054906101000a900473ffffffffffffffffffffffffffffffffffffffff1630600b60009054906101000a900473ffffffffffffffffffffffffffffffffffffffff166040518763ffffffff1660e01b8152600401808773ffffffffffffffffffffffffffffffffffffffff1673ffffffffffffffffffffffffffffffffffffffff168152602001806020018681526020018573ffffffffffffffffffffffffffffffffffffffff1673ffffffffffffffffffffffffffffffffffffffff1681526020018473ffffffffffffffffffffffffffffffffffffffff1673ffffffffffffffffffffffffffffffffffffffff1681526020018373ffffffffffffffffffffffffffffffffffffffff1673ffffffffffffffffffffffffffffffffffffffff168152602001828103825287818151815260200191508051906020019060200280838360005b8381101561265b578082015181840152602081019050612640565b50505050905001975050505050505050600060405180830381600087803b15801561268557600080fd5b505af1158015612699573d6000803e3d6000fd5b5050505060008090505b8b81101561281257600960009054906101000a900473ffffffffffffffffffffffffffffffffffffffff1673ffffffffffffffffffffffffffffffffffffffff1663d20a62fc8383815181106126f557fe5b6020026020010151898a73ffffffffffffffffffffffffffffffffffffffff1687896040518663ffffffff1660e01b8152600401808673ffffffffffffffffffffffffffffffffffffffff1673ffffffffffffffffffffffffffffffffffffffff1681526020018573ffffffffffffffffffffffffffffffffffffffff1673ffffffffffffffffffffffffffffffffffffffff1681526020018481526020018381526020018273ffffffffffffffffffffffffffffffffffffffff1673ffffffffffffffffffffffffffffffffffffffff16815260200195505050505050600060405180830381600087803b1580156127ed57600080fd5b505af1158015612801573d6000803e3d6000fd5b5050505080806001019150506126a3565b5083600a60008873ffffffffffffffffffffffffffffffffffffffff1673ffffffffffffffffffffffffffffffffffffffff16815260200190815260200160002060006101000a81548173ffffffffffffffffffffffffffffffffffffffff021916908373ffffffffffffffffffffffffffffffffffffffff1602179055508373ffffffffffffffffffffffffffffffffffffffff168973ffffffffffffffffffffffffffffffffffffffff168773ffffffffffffffffffffffffffffffffffffffff167f41fba7b79d7eb1f0e327059c2cee8c915ec77ce5ee9ab36dec965d8181654917848e6040518080602001838152602001828103825284818151815260200191508051906020019060200280838360005b83811015612942578082015181840152602081019050612927565b50505050905001935050505060405180910390a45050505060035481146129d1576040517f08c379a000000000000000000000000000000000000000000000000000000000815260040180806020018281038252601f8152602001807f5265656e7472616e637947756172643a207265656e7472616e742063616c6c0081525060200191505060405180910390fd5b5095945050505050565b6000600260008373ffffffffffffffffffffffffffffffffffffffff1673ffffffffffffffffffffffffffffffffffffffff168152602001908152602001600020549050919050565b600080600260008473ffffffffffffffffffffffffffffffffffffffff1673ffffffffffffffffffffffffffffffffffffffff16815260200190815260200160002054119050919050565b6000612a7a82610be9565b73ffffffffffffffffffffffffffffffffffffffff166396c82e576040518163ffffffff1660e01b815260040160206040518083038186803b158015612abf57600080fd5b505afa158015612ad3573d6000803e3d6000fd5b505050506040513d6020811015612ae957600080fd5b81019080805190602001909291905050509050919050565b612b0b8282612e5c565b73ffffffffffffffffffffffffffffffffffffffff16631c5b0762836040518263ffffffff1660e01b8152600401808273ffffffffffffffffffffffffffffffffffffffff1673ffffffffffffffffffffffffffffffffffffffff168152602001915050600060405180830381600087803b158015612b8957600080fd5b505af1158015612b9d573d6000803e3d6000fd5b505050505050565b600080828401905083811015612c23576040517f08c379a000000000000000000000000000000000000000000000000000000000815260040180806020018281038252601b8152602001807f536166654d6174683a206164646974696f6e206f766572666c6f77000000000081525060200191505060405180910390fd5b8091505092915050565b600082821115612ca5576040517f08c379a000000000000000000000000000000000000000000000000000000000815260040180806020018281038252601e8152602001807f536166654d6174683a207375627472616374696f6e206f766572666c6f77000081525060200191505060405180910390fd5b600082840390508091505092915050565b60006060600460009054906101000a900473ffffffffffffffffffffffffffffffffffffffff1673ffffffffffffffffffffffffffffffffffffffff168330617530604051602401808373ffffffffffffffffffffffffffffffffffffffff1673ffffffffffffffffffffffffffffffffffffffff168152602001828152602001925050506040516020818303038152906040527fe1f95890000000000000000000000000000000000000000000000000000000007bffffffffffffffffffffffffffffffffffffffffffffffffffffffff19166020820180517bffffffffffffffffffffffffffffffffffffffffffffffffffffffff83818316178352505050506040518082805190602001908083835b60208310612deb5780518252602082019150602081019050602083039250612dc8565b6001836020036101000a03801982511681845116808217855250505050505090500191505060006040518083038185875af1925050503d8060008114612e4d576040519150601f19603f3d011682016040523d82523d6000602084013e612e52565b606091505b5091509150915091565b6000612e688383611e7f565b612ebd576040517f08c379a000000000000000000000000000000000000000000000000000000000815260040180806020018281038252602b8152602001806133f0602b913960400191505060405180910390fd5b600760008373ffffffffffffffffffffffffffffffffffffffff1673ffffffffffffffffffffffffffffffffffffffff16815260200190815260200160002060009054906101000a900473ffffffffffffffffffffffffffffffffffffffff16905092915050565b6000600860009054906101000a900473ffffffffffffffffffffffffffffffffffffffff1673ffffffffffffffffffffffffffffffffffffffff16634e582d6b600960009054906101000a900473ffffffffffffffffffffffffffffffffffffffff166801158e460913d00000670de0b6b3a76400006040518463ffffffff1660e01b8152600401808473ffffffffffffffffffffffffffffffffffffffff1673ffffffffffffffffffffffffffffffffffffffff1681526020018381526020018281526020019350505050602060405180830381600087803b15801561300b57600080fd5b505af115801561301f573d6000803e3d6000fd5b505050506040513d602081101561303557600080fd5b81019080805190602001909291905050509050919050565b600061308782613079600161306b8688612ba590919063ffffffff16565b612c2d90919063ffffffff16565b6131fa90919063ffffffff16565b905092915050565b60065430604051602001808381526020018273ffffffffffffffffffffffffffffffffffffffff1673ffffffffffffffffffffffffffffffffffffffff1660601b8152601401925050506040516020818303038152906040528051906020012060001c600681905550600061310334612cb6565b5090508061311c57346005600082825401925050819055505b50565b600061314b6000809054906101000a900473ffffffffffffffffffffffffffffffffffffffff16613289565b905060018190806001815401808255809150509060018203906000526020600020016000909192909190916101000a81548173ffffffffffffffffffffffffffffffffffffffff021916908373ffffffffffffffffffffffffffffffffffffffff1602179055505042600260008373ffffffffffffffffffffffffffffffffffffffff1673ffffffffffffffffffffffffffffffffffffffff1681526020019081526020016000208190555090565b6000808211613271576040517f08c379a000000000000000000000000000000000000000000000000000000000815260040180806020018281038252601a8152602001807f536166654d6174683a206469766973696f6e206279207a65726f00000000000081525060200191505060405180910390fd5b600082848161327c57fe5b0490508091505092915050565b6000808260601b90506040517f3d602d80600a3d3981f3363d3d373d3d3d363d7300000000000000000000000081528160148201527f5af43d82803e903d91602b57fd5bf3000000000000000000000000000000000060288201526037816000f09250505091905056fe496e73756666696369656e74207061796d656e7420666f72206f70656e696e672061206e6577206b656570486f6e657374207468726573686f6c64206d757374206265206c657373206f7220657175616c207468652067726f75702073697a6543616c6c6572206973206e6f742061206b65657020637265617465642062792074686520666163746f7279426f6e6420706572206d656d626572206d7573742062652067726561746572207468616e207a65726f486f6e657374207468726573686f6c64206d7573742062652067726561746572207468616e20304e6f20706f6f6c20666f756e6420666f7220746865206170706c69636174696f6e4f70657261746f72206e6f74207265676973746572656420666f7220746865206170706c69636174696f6e4e6f7420656e6f7567682066756e647320746f207472696767657220726573656564a265627a7a72315820f35f0f3ad95ccdd17b158b0fea2eac7f28e3f8fd4731051526b8ac6ff863dad664736f6c63430005110032",
  "source": "pragma solidity 0.5.17;\n\nimport \"../../contracts/fully-backed/FullyBackedECDSAKeepFactory.sol\";\n\n/// @title Fully Backed Bonded ECDSA Keep Factory Stub\n/// @dev This contract is for testing purposes only.\ncontract FullyBackedECDSAKeepFactoryStub is FullyBackedECDSAKeepFactory {\n    constructor(\n        address _masterKeepAddress,\n        address _sortitionPoolFactoryAddress,\n        address _bondingAddress,\n        address _randomBeaconAddress,\n        address _bondTokenAddress\n    )\n        public\n        FullyBackedECDSAKeepFactory(\n            _masterKeepAddress,\n            _sortitionPoolFactoryAddress,\n            _bondingAddress,\n            _randomBeaconAddress,\n            _bondTokenAddress\n        )\n    {}\n\n    function initialGroupSelectionSeed(uint256 _groupSelectionSeed) public {\n        groupSelectionSeed = _groupSelectionSeed;\n    }\n\n    function getGroupSelectionSeed() public view returns (uint256) {\n        return groupSelectionSeed;\n    }\n}\n",
  "sourcePath": "/Users/konrad/Desktop/rumble/fin/local-setup/keep-ecdsa/solidity/contracts/test/FullyBackedECDSAKeepFactoryStub.sol",
  "compiler": {
    "name": "solc",
    "version": "0.5.17+commit.d19bba13.Emscripten.clang"
  },
  "schemaVersion": "3.3.4",
  "updatedAt": "2021-04-30T08:59:51.165Z",
  "devdoc": {
    "details": "This contract is for testing purposes only.",
    "methods": {
      "__beaconCallback(uint256)": {
        "details": "The function is expected to be called in a callback by the random beacon.",
        "params": {
          "_relayEntry": "Beacon output."
        }
      },
      "__isRecognized(address)": {
        "params": {
          "_delegatedAuthorityRecipient": "Address of the delegated authority recipient."
        },
        "return": "True if provided address is recognized delegated token staking authority for this factory contract."
      },
      "banKeepMembers()": {
        "details": "The function can be called only by a keep created by this factory."
      },
      "createSortitionPool(address)": {
        "details": "Emits an event after sortition pool creation.",
        "params": {
          "_application": "Address of the application."
        },
        "return": "Address of the created sortition pool contract."
      },
      "getKeepAtIndex(uint256)": {
        "return": "The address of the keep at the given index."
      },
      "getKeepCount()": {
        "details": "Checks the size of the keeps array.",
        "return": "The number of keeps opened so far."
      },
      "getKeepOpenedTimestamp(address)": {
        "return": "Timestamp the given keep was opened at or 0 if this keep was not created by this factory."
      },
      "getSortitionPool(address)": {
        "details": "Reverts if sortition does not exist for the application.",
        "params": {
          "_application": "Address of the application."
        },
        "return": "Address of the sortition pool contract."
      },
      "getSortitionPoolWeight(address)": {
        "details": "Reverts if sortition does not exits for the application.",
        "params": {
          "_application": "Address of the application."
        },
        "return": "The sum of all registered operators' weights in the pool. Reverts if sortition pool for the application does not exist."
      },
      "isOperatorAuthorized(address)": {
        "params": {
          "_operator": "operator's address"
        },
        "return": "True if the factory has access to the staked token balance of the provided operator and can slash that stake. False otherwise."
      },
      "isOperatorEligible(address,address)": {
        "params": {
          "_application": "Customer application address.",
          "_operator": "Operator's address."
        }
      },
      "isOperatorRegistered(address,address)": {
        "params": {
          "_application": "Customer application address.",
          "_operator": "Operator's address."
        },
        "return": "True if operator is already registered in the candidates pool, false otherwise."
      },
      "isOperatorUpToDate(address,address)": {
        "params": {
          "_application": "Customer application address.",
          "_operator": "Operator's address."
        }
      },
      "newEntryFeeEstimate()": {
        "return": "Uint256 estimate."
      },
      "openKeep(uint256,uint256,address,uint256,uint256)": {
        "details": "Selects a list of signers for the keep based on provided parameters. A caller of this function is expected to be an application for which member candidates were registered in a pool.",
        "params": {
          "_bond": "Value of ETH bond required from the keep in wei.",
          "_groupSize": "Number of signers in the keep.",
          "_honestThreshold": "Minimum number of honest keep signers.",
          "_owner": "Address of the keep owner.",
          "_stakeLockDuration": "Stake lock duration in seconds. Ignored by this implementation."
        },
        "return": "Created keep address."
      },
      "openKeepFeeEstimate()": {
        "return": "Uint256 estimate."
      },
      "registerMemberCandidate(address)": {
        "details": "If caller is already registered it returns without any changes.",
        "params": {
          "_application": "Address of the application."
        }
      },
      "setMinimumBondableValue(uint256,uint256,uint256)": {
        "params": {
          "_groupSize": "Number of signers in the keep.",
          "_honestThreshold": "Minimum number of honest keep signers.",
          "_minimumBondableValue": "The minimum bond value the application requires from a single keep."
        }
      },
      "updateOperatorStatus(address,address)": {
        "params": {
          "_application": "Customer application address.",
          "_operator": "Operator's address."
        }
      }
    },
    "title": "Fully Backed Bonded ECDSA Keep Factory Stub"
  },
  "userdoc": {
    "methods": {
      "__beaconCallback(uint256)": {
        "notice": "Sets a new group selection seed value."
      },
      "__isRecognized(address)": {
        "notice": "Verifies if delegates authority recipient is valid address recognized by the factory for token staking authority delegation."
      },
      "banKeepMembers()": {
        "notice": "Bans members of a calling keep in a sortition pool associated with the application for which the keep was created."
      },
      "createSortitionPool(address)": {
        "notice": "Creates new sortition pool for the application."
      },
      "getKeepAtIndex(uint256)": {
        "notice": "Gets a specific keep address at a given index."
      },
      "getKeepCount()": {
        "notice": "Gets how many keeps have been opened by this contract."
      },
      "getKeepOpenedTimestamp(address)": {
        "notice": "Gets the opened timestamp of the given keep."
      },
      "getSortitionPool(address)": {
        "notice": "Gets the sortition pool address for the given application."
      },
      "getSortitionPoolWeight(address)": {
        "notice": "Gets the total weight of operators in the sortition pool for the given application."
      },
      "isOperatorAuthorized(address)": {
        "notice": "Checks if the factory has the authorization to operate on stake represented by the provided operator. "
      },
      "isOperatorEligible(address,address)": {
        "notice": "Checks if given operator is eligible for the given application."
      },
      "isOperatorRegistered(address,address)": {
        "notice": "Checks if operator is registered as a candidate for the given customer application."
      },
      "isOperatorUpToDate(address,address)": {
        "notice": "Checks if operator's details in the member candidates pool are up to date for the given application. If not update operator status function should be called by the one who is monitoring the status."
      },
      "newEntryFeeEstimate()": {
        "notice": "Gets a fee estimate for a new random entry."
      },
      "newGroupSelectionSeedFee()": {
        "notice": "Calculates the fee requestor has to pay to reseed the factory for signer selection. Depending on how much value is stored in the reseed pool and the price of a new relay entry, returned value may vary."
      },
      "openKeep(uint256,uint256,address,uint256,uint256)": {
        "notice": "Opens a new ECDSA keep."
      },
      "openKeepFeeEstimate()": {
        "notice": "Gets a fee estimate for opening a new keep."
      },
      "registerMemberCandidate(address)": {
        "notice": "Register caller as a candidate to be selected as keep member for the provided customer application."
      },
      "requestNewGroupSelectionSeed()": {
        "notice": "Reseeds the value used for a signer selection. Requires enough payment to be passed. The required payment can be calculated using reseedFee function. Factory is automatically triggering reseeding after opening a new keep but the reseed can be also triggered at any moment using this function."
      },
      "setMinimumBondableValue(uint256,uint256,uint256)": {
        "notice": "Sets the minimum bondable value required from the operator to join the sortition pool of the given application. It is up to the application to specify a reasonable minimum bond for operators trying to join the pool to prevent griefing by operators joining without enough bondable value."
      },
      "updateOperatorStatus(address,address)": {
        "notice": "Invokes update of operator's details in the member candidates pool for the given application"
      }
    }
  }
}