{
  "contractName": "FullyBackedECDSAKeepFactory",
  "abi": [
    {
      "inputs": [
        {
          "internalType": "address",
          "name": "_masterKeepAddress",
          "type": "address"
        },
        {
          "internalType": "address",
          "name": "_sortitionPoolFactoryAddress",
          "type": "address"
        },
        {
          "internalType": "address",
          "name": "_bondingAddress",
          "type": "address"
        },
        {
          "internalType": "address",
          "name": "_randomBeaconAddress",
          "type": "address"
        },
        {
          "internalType": "address",
          "name": "_bondTokenAddress",
          "type": "address"
        }
      ],
      "payable": false,
      "stateMutability": "nonpayable",
      "type": "constructor"
    },
    {
      "anonymous": false,
      "inputs": [
        {
          "indexed": true,
          "internalType": "address",
          "name": "keepAddress",
          "type": "address"
        },
        {
          "indexed": false,
          "internalType": "address[]",
          "name": "members",
          "type": "address[]"
        },
        {
          "indexed": true,
          "internalType": "address",
          "name": "owner",
          "type": "address"
        },
        {
          "indexed": true,
          "internalType": "address",
          "name": "application",
          "type": "address"
        },
        {
          "indexed": false,
          "internalType": "uint256",
          "name": "honestThreshold",
          "type": "uint256"
        }
      ],
      "name": "FullyBackedECDSAKeepCreated",
      "type": "event"
    },
    {
      "anonymous": false,
      "inputs": [
        {
          "indexed": true,
          "internalType": "address",
          "name": "operator",
          "type": "address"
        },
        {
          "indexed": true,
          "internalType": "address",
          "name": "application",
          "type": "address"
        }
      ],
      "name": "OperatorBanned",
      "type": "event"
    },
    {
      "anonymous": false,
      "inputs": [
        {
          "indexed": true,
          "internalType": "address",
          "name": "application",
          "type": "address"
        },
        {
          "indexed": false,
          "internalType": "address",
          "name": "sortitionPool",
          "type": "address"
        }
      ],
      "name": "SortitionPoolCreated",
      "type": "event"
    },
    {
      "payable": true,
      "stateMutability": "payable",
      "type": "fallback"
    },
    {
      "constant": false,
      "inputs": [
        {
          "internalType": "uint256",
          "name": "_relayEntry",
          "type": "uint256"
        }
      ],
      "name": "__beaconCallback",
      "outputs": [],
      "payable": false,
      "stateMutability": "nonpayable",
      "type": "function"
    },
    {
      "constant": true,
      "inputs": [],
      "name": "bondTokenAddress",
      "outputs": [
        {
          "internalType": "address",
          "name": "",
          "type": "address"
        }
      ],
      "payable": false,
      "stateMutability": "view",
      "type": "function"
    },
    {
      "constant": true,
      "inputs": [],
      "name": "bondWeightDivisor",
      "outputs": [
        {
          "internalType": "uint256",
          "name": "",
          "type": "uint256"
        }
      ],
      "payable": false,
      "stateMutability": "view",
      "type": "function"
    },
    {
      "constant": true,
      "inputs": [],
      "name": "callbackGas",
      "outputs": [
        {
          "internalType": "uint256",
          "name": "",
          "type": "uint256"
        }
      ],
      "payable": false,
      "stateMutability": "view",
      "type": "function"
    },
    {
      "constant": false,
      "inputs": [
        {
          "internalType": "address",
          "name": "_application",
          "type": "address"
        }
      ],
      "name": "createSortitionPool",
      "outputs": [
        {
          "internalType": "address",
          "name": "",
          "type": "address"
        }
      ],
      "payable": false,
      "stateMutability": "nonpayable",
      "type": "function"
    },
    {
      "constant": true,
      "inputs": [],
      "name": "defaultMinimumBond",
      "outputs": [
        {
          "internalType": "uint256",
          "name": "",
          "type": "uint256"
        }
      ],
      "payable": false,
      "stateMutability": "view",
      "type": "function"
    },
    {
      "constant": true,
      "inputs": [
        {
          "internalType": "uint256",
          "name": "index",
          "type": "uint256"
        }
      ],
      "name": "getKeepAtIndex",
      "outputs": [
        {
          "internalType": "address",
          "name": "",
          "type": "address"
        }
      ],
      "payable": false,
      "stateMutability": "view",
      "type": "function"
    },
    {
      "constant": true,
      "inputs": [],
      "name": "getKeepCount",
      "outputs": [
        {
          "internalType": "uint256",
          "name": "",
          "type": "uint256"
        }
      ],
      "payable": false,
      "stateMutability": "view",
      "type": "function"
    },
    {
      "constant": true,
      "inputs": [
        {
          "internalType": "address",
          "name": "_keep",
          "type": "address"
        }
      ],
      "name": "getKeepOpenedTimestamp",
      "outputs": [
        {
          "internalType": "uint256",
          "name": "",
          "type": "uint256"
        }
      ],
      "payable": false,
      "stateMutability": "view",
      "type": "function"
    },
    {
      "constant": true,
      "inputs": [
        {
          "internalType": "address",
          "name": "_application",
          "type": "address"
        }
      ],
      "name": "getSortitionPool",
      "outputs": [
        {
          "internalType": "address",
          "name": "",
          "type": "address"
        }
      ],
      "payable": false,
      "stateMutability": "view",
      "type": "function"
    },
    {
      "constant": true,
      "inputs": [
        {
          "internalType": "address",
          "name": "_application",
          "type": "address"
        }
      ],
      "name": "getSortitionPoolWeight",
      "outputs": [
        {
          "internalType": "uint256",
          "name": "",
          "type": "uint256"
        }
      ],
      "payable": false,
      "stateMutability": "view",
      "type": "function"
    },
    {
      "constant": true,
      "inputs": [],
      "name": "groupSelectionSeed",
      "outputs": [
        {
          "internalType": "uint256",
          "name": "",
          "type": "uint256"
        }
      ],
      "payable": false,
      "stateMutability": "view",
      "type": "function"
    },
    {
      "constant": true,
      "inputs": [
        {
          "internalType": "address",
          "name": "_operator",
          "type": "address"
        },
        {
          "internalType": "address",
          "name": "_application",
          "type": "address"
        }
      ],
      "name": "isOperatorEligible",
      "outputs": [
        {
          "internalType": "bool",
          "name": "",
          "type": "bool"
        }
      ],
      "payable": false,
      "stateMutability": "view",
      "type": "function"
    },
    {
      "constant": true,
      "inputs": [
        {
          "internalType": "address",
          "name": "_operator",
          "type": "address"
        },
        {
          "internalType": "address",
          "name": "_application",
          "type": "address"
        }
      ],
      "name": "isOperatorRegistered",
      "outputs": [
        {
          "internalType": "bool",
          "name": "",
          "type": "bool"
        }
      ],
      "payable": false,
      "stateMutability": "view",
      "type": "function"
    },
    {
      "constant": true,
      "inputs": [
        {
          "internalType": "address",
          "name": "_operator",
          "type": "address"
        },
        {
          "internalType": "address",
          "name": "_application",
          "type": "address"
        }
      ],
      "name": "isOperatorUpToDate",
      "outputs": [
        {
          "internalType": "bool",
          "name": "",
          "type": "bool"
        }
      ],
      "payable": false,
      "stateMutability": "view",
      "type": "function"
    },
    {
      "constant": true,
      "inputs": [
        {
          "internalType": "uint256",
          "name": "",
          "type": "uint256"
        }
      ],
      "name": "keeps",
      "outputs": [
        {
          "internalType": "address",
          "name": "",
          "type": "address"
        }
      ],
      "payable": false,
      "stateMutability": "view",
      "type": "function"
    },
    {
      "constant": true,
      "inputs": [],
      "name": "masterKeepAddress",
      "outputs": [
        {
          "internalType": "address",
          "name": "",
          "type": "address"
        }
      ],
      "payable": false,
      "stateMutability": "view",
      "type": "function"
    },
    {
      "constant": true,
      "inputs": [],
      "name": "newEntryFeeEstimate",
      "outputs": [
        {
          "internalType": "uint256",
          "name": "",
          "type": "uint256"
        }
      ],
      "payable": false,
      "stateMutability": "view",
      "type": "function"
    },
    {
      "constant": true,
      "inputs": [],
      "name": "newGroupSelectionSeedFee",
      "outputs": [
        {
          "internalType": "uint256",
          "name": "",
          "type": "uint256"
        }
      ],
      "payable": false,
      "stateMutability": "view",
      "type": "function"
    },
    {
      "constant": false,
      "inputs": [
        {
          "internalType": "address",
          "name": "_application",
          "type": "address"
        }
      ],
      "name": "registerMemberCandidate",
      "outputs": [],
      "payable": false,
      "stateMutability": "nonpayable",
      "type": "function"
    },
    {
      "constant": false,
      "inputs": [],
      "name": "requestNewGroupSelectionSeed",
      "outputs": [],
      "payable": true,
      "stateMutability": "payable",
      "type": "function"
    },
    {
      "constant": true,
      "inputs": [],
      "name": "reseedPool",
      "outputs": [
        {
          "internalType": "uint256",
          "name": "",
          "type": "uint256"
        }
      ],
      "payable": false,
      "stateMutability": "view",
      "type": "function"
    },
    {
      "constant": false,
      "inputs": [
        {
          "internalType": "address",
          "name": "_operator",
          "type": "address"
        },
        {
          "internalType": "address",
          "name": "_application",
          "type": "address"
        }
      ],
      "name": "updateOperatorStatus",
      "outputs": [],
      "payable": false,
      "stateMutability": "nonpayable",
      "type": "function"
    },
    {
      "constant": false,
      "inputs": [
        {
          "internalType": "uint256",
          "name": "_minimumBondableValue",
          "type": "uint256"
        },
        {
          "internalType": "uint256",
          "name": "_groupSize",
          "type": "uint256"
        },
        {
          "internalType": "uint256",
          "name": "_honestThreshold",
          "type": "uint256"
        }
      ],
      "name": "setMinimumBondableValue",
      "outputs": [],
      "payable": false,
      "stateMutability": "nonpayable",
      "type": "function"
    },
    {
      "constant": false,
      "inputs": [
        {
          "internalType": "uint256",
          "name": "_groupSize",
          "type": "uint256"
        },
        {
          "internalType": "uint256",
          "name": "_honestThreshold",
          "type": "uint256"
        },
        {
          "internalType": "address",
          "name": "_owner",
          "type": "address"
        },
        {
          "internalType": "uint256",
          "name": "_bond",
          "type": "uint256"
        },
        {
          "internalType": "uint256",
          "name": "_stakeLockDuration",
          "type": "uint256"
        }
      ],
      "name": "openKeep",
      "outputs": [
        {
          "internalType": "address",
          "name": "keepAddress",
          "type": "address"
        }
      ],
      "payable": true,
      "stateMutability": "payable",
      "type": "function"
    },
    {
      "constant": false,
      "inputs": [
        {
          "internalType": "address",
          "name": "_delegatedAuthorityRecipient",
          "type": "address"
        }
      ],
      "name": "__isRecognized",
      "outputs": [
        {
          "internalType": "bool",
          "name": "",
          "type": "bool"
        }
      ],
      "payable": false,
      "stateMutability": "nonpayable",
      "type": "function"
    },
    {
      "constant": true,
      "inputs": [],
      "name": "openKeepFeeEstimate",
      "outputs": [
        {
          "internalType": "uint256",
          "name": "",
          "type": "uint256"
        }
      ],
      "payable": false,
      "stateMutability": "view",
      "type": "function"
    },
    {
      "constant": true,
      "inputs": [
        {
          "internalType": "address",
          "name": "_operator",
          "type": "address"
        }
      ],
      "name": "isOperatorAuthorized",
      "outputs": [
        {
          "internalType": "bool",
          "name": "",
          "type": "bool"
        }
      ],
      "payable": false,
      "stateMutability": "view",
      "type": "function"
    },
    {
      "constant": false,
      "inputs": [],
      "name": "banKeepMembers",
      "outputs": [],
      "payable": false,
      "stateMutability": "nonpayable",
      "type": "function"
    }
  ],
  "bytecode": "0x608060405234801561001057600080fd5b506040516135d83803806135d8833981810160405260a081101561003357600080fd5b8101908080519060200190929190805190602001909291908051906020019092919080519060200190929190805190602001909291905050508185806000806101000a81548173ffffffffffffffffffffffffffffffffffffffff021916908373ffffffffffffffffffffffffffffffffffffffff16021790555050600160038190555080600460006101000a81548173ffffffffffffffffffffffffffffffffffffffff021916908373ffffffffffffffffffffffffffffffffffffffff1602179055507f4574c8c75d6e88acd28f7e467dac97b5c60c3838d9dad993900bdf402152228e6006819055505080600b60006101000a81548173ffffffffffffffffffffffffffffffffffffffff021916908373ffffffffffffffffffffffffffffffffffffffff16021790555083600860006101000a81548173ffffffffffffffffffffffffffffffffffffffff021916908373ffffffffffffffffffffffffffffffffffffffff16021790555082600960006101000a81548173ffffffffffffffffffffffffffffffffffffffff021916908373ffffffffffffffffffffffffffffffffffffffff16021790555050505050506133e1806101f76000396000f3fe6080604052600436106101c25760003560e01c806392ae584a116100f7578063b8ee915611610095578063d14fede111610064578063d14fede1146109c9578063d870c03414610a2e578063ebcbb39f14610a97578063eca4a80d14610afc576101c2565b8063b8ee915614610878578063bc2c289f146108c7578063c534544a146108f2578063ca050cfd1461091d576101c2565b8063a3c28a13116100d1578063a3c28a1314610708578063a5b3105514610799578063b2dc7593146107c4578063b7a6f483146107ef576101c2565b806392ae584a14610603578063a10132ad14610654578063a23af3301461067f576101c2565b806351489985116101645780635cef84171161013e5780635cef8417146104db5780636b2b7ae21461053257806379a382e91461055d5780638701af4214610588576101c2565b80635148998514610410578063567b5daa1461043b5780635b0d5b8e14610452576101c2565b806321f74e56116101a057806321f74e5614610337578063356e07281461034157806336c2a0001461037c57806338400400146103e5576101c2565b806309211ceb146101d45780631133fd2c14610265578063202bb9f0146102bc575b34600560008282540192505081905550005b3480156101e057600080fd5b50610223600480360360208110156101f757600080fd5b81019080803573ffffffffffffffffffffffffffffffffffffffff169060200190929190505050610b6d565b604051808273ffffffffffffffffffffffffffffffffffffffff1673ffffffffffffffffffffffffffffffffffffffff16815260200191505060405180910390f35b34801561027157600080fd5b5061027a610cba565b604051808273ffffffffffffffffffffffffffffffffffffffff1673ffffffffffffffffffffffffffffffffffffffff16815260200191505060405180910390f35b3480156102c857600080fd5b506102f5600480360360208110156102df57600080fd5b8101908080359060200190929190505050610ce0565b604051808273ffffffffffffffffffffffffffffffffffffffff1673ffffffffffffffffffffffffffffffffffffffff16815260200191505060405180910390f35b61033f610d9b565b005b34801561034d57600080fd5b5061037a6004803603602081101561036457600080fd5b810190808035906020019092919050505061102d565b005b34801561038857600080fd5b506103cb6004803603602081101561039f57600080fd5b81019080803573ffffffffffffffffffffffffffffffffffffffff1690602001909291905050506110fa565b604051808215151515815260200191505060405180910390f35b3480156103f157600080fd5b506103fa611211565b6040518082815260200191505060405180910390f35b34801561041c57600080fd5b506104256112f3565b6040518082815260200191505060405180910390f35b34801561044757600080fd5b506104506113aa565b005b34801561045e57600080fd5b506104c16004803603604081101561047557600080fd5b81019080803573ffffffffffffffffffffffffffffffffffffffff169060200190929190803573ffffffffffffffffffffffffffffffffffffffff169060200190929190505050611704565b604051808215151515815260200191505060405180910390f35b3480156104e757600080fd5b506104f06118c8565b604051808273ffffffffffffffffffffffffffffffffffffffff1673ffffffffffffffffffffffffffffffffffffffff16815260200191505060405180910390f35b34801561053e57600080fd5b506105476118ed565b6040518082815260200191505060405180910390f35b34801561056957600080fd5b506105726118f9565b6040518082815260200191505060405180910390f35b34801561059457600080fd5b506105c1600480360360208110156105ab57600080fd5b81019080803590602001909291905050506118ff565b604051808273ffffffffffffffffffffffffffffffffffffffff1673ffffffffffffffffffffffffffffffffffffffff16815260200191505060405180910390f35b34801561060f57600080fd5b506106526004803603602081101561062657600080fd5b81019080803573ffffffffffffffffffffffffffffffffffffffff16906020019092919050505061193b565b005b34801561066057600080fd5b50610669611aa6565b6040518082815260200191505060405180910390f35b34801561068b57600080fd5b506106ee600480360360408110156106a257600080fd5b81019080803573ffffffffffffffffffffffffffffffffffffffff169060200190929190803573ffffffffffffffffffffffffffffffffffffffff169060200190929190505050611aac565b604051808215151515815260200191505060405180910390f35b34801561071457600080fd5b506107576004803603602081101561072b57600080fd5b81019080803573ffffffffffffffffffffffffffffffffffffffff169060200190929190505050611b77565b604051808273ffffffffffffffffffffffffffffffffffffffff1673ffffffffffffffffffffffffffffffffffffffff16815260200191505060405180910390f35b3480156107a557600080fd5b506107ae611de6565b6040518082815260200191505060405180910390f35b3480156107d057600080fd5b506107d9611dec565b6040518082815260200191505060405180910390f35b3480156107fb57600080fd5b5061085e6004803603604081101561081257600080fd5b81019080803573ffffffffffffffffffffffffffffffffffffffff169060200190929190803573ffffffffffffffffffffffffffffffffffffffff169060200190929190505050611df9565b604051808215151515815260200191505060405180910390f35b34801561088457600080fd5b506108c56004803603606081101561089b57600080fd5b81019080803590602001909291908035906020019092919080359060200190929190505050611fbd565b005b3480156108d357600080fd5b506108dc612044565b6040518082815260200191505060405180910390f35b3480156108fe57600080fd5b50610907612053565b6040518082815260200191505060405180910390f35b610987600480360360a081101561093357600080fd5b810190808035906020019092919080359060200190929190803573ffffffffffffffffffffffffffffffffffffffff1690602001909291908035906020019092919080359060200190929190505050612060565b604051808273ffffffffffffffffffffffffffffffffffffffff1673ffffffffffffffffffffffffffffffffffffffff16815260200191505060405180910390f35b3480156109d557600080fd5b50610a18600480360360208110156109ec57600080fd5b81019080803573ffffffffffffffffffffffffffffffffffffffff16906020019092919050505061294b565b6040518082815260200191505060405180910390f35b348015610a3a57600080fd5b50610a7d60048036036020811015610a5157600080fd5b81019080803573ffffffffffffffffffffffffffffffffffffffff169060200190929190505050612994565b604051808215151515815260200191505060405180910390f35b348015610aa357600080fd5b50610ae660048036036020811015610aba57600080fd5b81019080803573ffffffffffffffffffffffffffffffffffffffff1690602001909291905050506129df565b6040518082815260200191505060405180910390f35b348015610b0857600080fd5b50610b6b60048036036040811015610b1f57600080fd5b81019080803573ffffffffffffffffffffffffffffffffffffffff169060200190929190803573ffffffffffffffffffffffffffffffffffffffff169060200190929190505050612a71565b005b60008073ffffffffffffffffffffffffffffffffffffffff16600760008473ffffffffffffffffffffffffffffffffffffffff1673ffffffffffffffffffffffffffffffffffffffff16815260200190815260200160002060009054906101000a900473ffffffffffffffffffffffffffffffffffffffff1673ffffffffffffffffffffffffffffffffffffffff161415610c53576040517f08c379a000000000000000000000000000000000000000000000000000000000815260040180806020018281038252602181526020018061333f6021913960400191505060405180910390fd5b600760008373ffffffffffffffffffffffffffffffffffffffff1673ffffffffffffffffffffffffffffffffffffffff16815260200190815260200160002060009054906101000a900473ffffffffffffffffffffffffffffffffffffffff169050919050565b600b60009054906101000a900473ffffffffffffffffffffffffffffffffffffffff1681565b60006001805490508210610d5c576040517f08c379a000000000000000000000000000000000000000000000000000000000815260040180806020018281038252600e8152602001807f4f7574206f6620626f756e64732e00000000000000000000000000000000000081525060200191505060405180910390fd5b60018281548110610d6957fe5b9060005260206000200160009054906101000a900473ffffffffffffffffffffffffffffffffffffffff169050919050565b600160036000828254019250508190555060006003549050610dc834600554612b1590919063ffffffff16565b6005819055506000600460009054906101000a900473ffffffffffffffffffffffffffffffffffffffff1673ffffffffffffffffffffffffffffffffffffffff1663d13f13916175306040518263ffffffff1660e01b81526004018082815260200191505060206040518083038186803b158015610e4557600080fd5b505afa158015610e59573d6000803e3d6000fd5b505050506040513d6020811015610e6f57600080fd5b81019080805190602001909291905050509050806005541015610edd576040517f08c379a000000000000000000000000000000000000000000000000000000000815260040180806020018281038252602281526020018061338b6022913960400191505060405180910390fd5b610ef281600554612b9d90919063ffffffff16565b60058190555060006060610f0583612c26565b9150915081610fb057806040517f08c379a00000000000000000000000000000000000000000000000000000000081526004018080602001828103825283818151815260200191508051906020019080838360005b83811015610f75578082015181840152602081019050610f5a565b50505050905090810190601f168015610fa25780820380516001836020036101000a031916815260200191505b509250505060405180910390fd5b505050600354811461102a576040517f08c379a000000000000000000000000000000000000000000000000000000000815260040180806020018281038252601f8152602001807f5265656e7472616e637947756172643a207265656e7472616e742063616c6c0081525060200191505060405180910390fd5b50565b3373ffffffffffffffffffffffffffffffffffffffff16600460009054906101000a900473ffffffffffffffffffffffffffffffffffffffff1673ffffffffffffffffffffffffffffffffffffffff16146110f0576040517f08c379a000000000000000000000000000000000000000000000000000000000815260040180806020018281038252601f8152602001807f43616c6c6572206973206e6f74207468652072616e646f6d20626561636f6e0081525060200191505060405180910390fd5b8060068190555050565b6000600960009054906101000a900473ffffffffffffffffffffffffffffffffffffffff1673ffffffffffffffffffffffffffffffffffffffff1663ef1f966183306040518363ffffffff1660e01b8152600401808373ffffffffffffffffffffffffffffffffffffffff1673ffffffffffffffffffffffffffffffffffffffff1681526020018273ffffffffffffffffffffffffffffffffffffffff1673ffffffffffffffffffffffffffffffffffffffff1681526020019250505060206040518083038186803b1580156111cf57600080fd5b505afa1580156111e3573d6000803e3d6000fd5b505050506040513d60208110156111f957600080fd5b81019080805190602001909291905050509050919050565b600080600460009054906101000a900473ffffffffffffffffffffffffffffffffffffffff1673ffffffffffffffffffffffffffffffffffffffff1663d13f13916175306040518263ffffffff1660e01b81526004018082815260200191505060206040518083038186803b15801561128957600080fd5b505afa15801561129d573d6000803e3d6000fd5b505050506040513d60208110156112b357600080fd5b810190808051906020019092919050505090506005548111156112ea576112e560055482612b9d90919063ffffffff16565b6112ed565b60005b91505090565b6000600460009054906101000a900473ffffffffffffffffffffffffffffffffffffffff1673ffffffffffffffffffffffffffffffffffffffff1663d13f13916175306040518263ffffffff1660e01b81526004018082815260200191505060206040518083038186803b15801561136a57600080fd5b505afa15801561137e573d6000803e3d6000fd5b505050506040513d602081101561139457600080fd5b8101908080519060200190929190505050905090565b6000600260003373ffffffffffffffffffffffffffffffffffffffff1673ffffffffffffffffffffffffffffffffffffffff1681526020019081526020016000205411611442576040517f08c379a000000000000000000000000000000000000000000000000000000000815260040180806020018281038252602b8152602001806132c4602b913960400191505060405180910390fd5b600033905060608173ffffffffffffffffffffffffffffffffffffffff16639eab52536040518163ffffffff1660e01b815260040160006040518083038186803b15801561148f57600080fd5b505afa1580156114a3573d6000803e3d6000fd5b505050506040513d6000823e3d601f19601f8201168201806040525060208110156114cd57600080fd5b81019080805160405193929190846401000000008211156114ed57600080fd5b8382019150602082018581111561150357600080fd5b825186602082028301116401000000008211171561152057600080fd5b8083526020830192505050908051906020019060200280838360005b8381101561155757808201518184015260208101905061153c565b5050505090500160405250505090506000600a60008473ffffffffffffffffffffffffffffffffffffffff1673ffffffffffffffffffffffffffffffffffffffff16815260200190815260200160002060009054906101000a900473ffffffffffffffffffffffffffffffffffffffff16905060006115d582610b6d565b905060008090505b83518110156116fd5760008482815181106115f457fe5b602002602001015190508273ffffffffffffffffffffffffffffffffffffffff166397c3ccd8826040518263ffffffff1660e01b8152600401808273ffffffffffffffffffffffffffffffffffffffff1673ffffffffffffffffffffffffffffffffffffffff168152602001915050600060405180830381600087803b15801561167d57600080fd5b505af1158015611691573d6000803e3d6000fd5b505050508373ffffffffffffffffffffffffffffffffffffffff168173ffffffffffffffffffffffffffffffffffffffff167f8303b66802d9f0f82b0299303b3f20d7f55815385a912b1b7fc79224e59fa12b60405160405180910390a35080806001019150506115dd565b5050505050565b60008073ffffffffffffffffffffffffffffffffffffffff16600760008473ffffffffffffffffffffffffffffffffffffffff1673ffffffffffffffffffffffffffffffffffffffff16815260200190815260200160002060009054906101000a900473ffffffffffffffffffffffffffffffffffffffff1673ffffffffffffffffffffffffffffffffffffffff1614156117a257600090506118c2565b6000600760008473ffffffffffffffffffffffffffffffffffffffff1673ffffffffffffffffffffffffffffffffffffffff16815260200190815260200160002060009054906101000a900473ffffffffffffffffffffffffffffffffffffffff1690508073ffffffffffffffffffffffffffffffffffffffff1663b4766856856040518263ffffffff1660e01b8152600401808273ffffffffffffffffffffffffffffffffffffffff1673ffffffffffffffffffffffffffffffffffffffff16815260200191505060206040518083038186803b15801561188357600080fd5b505afa158015611897573d6000803e3d6000fd5b505050506040513d60208110156118ad57600080fd5b81019080805190602001909291905050509150505b92915050565b6000809054906101000a900473ffffffffffffffffffffffffffffffffffffffff1681565b670de0b6b3a764000081565b60065481565b6001818154811061190c57fe5b906000526020600020016000915054906101000a900473ffffffffffffffffffffffffffffffffffffffff1681565b600061194682610b6d565b905060003390508173ffffffffffffffffffffffffffffffffffffffff1663f7186ce0826040518263ffffffff1660e01b8152600401808273ffffffffffffffffffffffffffffffffffffffff1673ffffffffffffffffffffffffffffffffffffffff16815260200191505060206040518083038186803b1580156119ca57600080fd5b505afa1580156119de573d6000803e3d6000fd5b505050506040513d60208110156119f457600080fd5b8101908080519060200190929190505050611aa1578173ffffffffffffffffffffffffffffffffffffffff16631ae0e73d826040518263ffffffff1660e01b8152600401808273ffffffffffffffffffffffffffffffffffffffff1673ffffffffffffffffffffffffffffffffffffffff168152602001915050600060405180830381600087803b158015611a8857600080fd5b505af1158015611a9c573d6000803e3d6000fd5b505050505b505050565b61753081565b6000611ab88383612dcc565b73ffffffffffffffffffffffffffffffffffffffff1663e686440f846040518263ffffffff1660e01b8152600401808273ffffffffffffffffffffffffffffffffffffffff1673ffffffffffffffffffffffffffffffffffffffff16815260200191505060206040518083038186803b158015611b3457600080fd5b505afa158015611b48573d6000803e3d6000fd5b505050506040513d6020811015611b5e57600080fd5b8101908080519060200190929190505050905092915050565b60008073ffffffffffffffffffffffffffffffffffffffff16600760008473ffffffffffffffffffffffffffffffffffffffff1673ffffffffffffffffffffffffffffffffffffffff16815260200190815260200160002060009054906101000a900473ffffffffffffffffffffffffffffffffffffffff1673ffffffffffffffffffffffffffffffffffffffff1614611c79576040517f08c379a000000000000000000000000000000000000000000000000000000000815260040180806020018281038252601d8152602001807f536f72746974696f6e20706f6f6c20616c72656164792065786973747300000081525060200191505060405180910390fd5b6000611c8483612e95565b905080600760008573ffffffffffffffffffffffffffffffffffffffff1673ffffffffffffffffffffffffffffffffffffffff16815260200190815260200160002060006101000a81548173ffffffffffffffffffffffffffffffffffffffff021916908373ffffffffffffffffffffffffffffffffffffffff1602179055508273ffffffffffffffffffffffffffffffffffffffff167f693c68cd964926544cbaee02b00d9352aa98c6de2484515e8bd74130c005e6af82604051808273ffffffffffffffffffffffffffffffffffffffff1673ffffffffffffffffffffffffffffffffffffffff16815260200191505060405180910390a2600760008473ffffffffffffffffffffffffffffffffffffffff1673ffffffffffffffffffffffffffffffffffffffff16815260200190815260200160002060009054906101000a900473ffffffffffffffffffffffffffffffffffffffff16915050919050565b60055481565b6000600180549050905090565b60008073ffffffffffffffffffffffffffffffffffffffff16600760008473ffffffffffffffffffffffffffffffffffffffff1673ffffffffffffffffffffffffffffffffffffffff16815260200190815260200160002060009054906101000a900473ffffffffffffffffffffffffffffffffffffffff1673ffffffffffffffffffffffffffffffffffffffff161415611e975760009050611fb7565b6000600760008473ffffffffffffffffffffffffffffffffffffffff1673ffffffffffffffffffffffffffffffffffffffff16815260200190815260200160002060009054906101000a900473ffffffffffffffffffffffffffffffffffffffff1690508073ffffffffffffffffffffffffffffffffffffffff16636b1906f8856040518263ffffffff1660e01b8152600401808273ffffffffffffffffffffffffffffffffffffffff1673ffffffffffffffffffffffffffffffffffffffff16815260200191505060206040518083038186803b158015611f7857600080fd5b505afa158015611f8c573d6000803e3d6000fd5b505050506040513d6020811015611fa257600080fd5b81019080805190602001909291905050509150505b92915050565b6000611fc98484612fbd565b9050611fd433610b6d565b73ffffffffffffffffffffffffffffffffffffffff166334ce30f0826040518263ffffffff1660e01b815260040180828152602001915050600060405180830381600087803b15801561202657600080fd5b505af115801561203a573d6000803e3d6000fd5b5050505050505050565b600061204e6112f3565b905090565b6801158e460913d0000081565b6000600160036000828254019250508190555060006003549050600087116120f0576040517f08c379a000000000000000000000000000000000000000000000000000000000815260040180806020018281038252601f8152602001807f4d696e696d756d207369676e696e672067726f75702073697a6520697320310081525060200191505060405180910390fd5b6010871115612167576040517f08c379a00000000000000000000000000000000000000000000000000000000081526004018080602001828103825260208152602001807f4d6178696d756d207369676e696e672067726f75702073697a6520697320313681525060200191505060405180910390fd5b600086116121c0576040517f08c379a00000000000000000000000000000000000000000000000000000000081526004018080602001828103825260278152602001806133186027913960400191505060405180910390fd5b86861115612219576040517f08c379a000000000000000000000000000000000000000000000000000000000815260040180806020018281038252603581526020018061328f6035913960400191505060405180910390fd5b6000339050600061222982610b6d565b90506000612237878b612fbd565b905060008111612292576040517f08c379a00000000000000000000000000000000000000000000000000000000081526004018080602001828103825260298152602001806132ef6029913960400191505060405180910390fd5b61229a612044565b3410156122f2576040517f08c379a000000000000000000000000000000000000000000000000000000000815260040180806020018281038252602b815260200180613264602b913960400191505060405180910390fd5b60608273ffffffffffffffffffffffffffffffffffffffff1663a56931e88c60065460001b856040518463ffffffff1660e01b8152600401808481526020018381526020018281526020019350505050600060405180830381600087803b15801561235c57600080fd5b505af1158015612370573d6000803e3d6000fd5b505050506040513d6000823e3d601f19601f82011682018060405250602081101561239a57600080fd5b81019080805160405193929190846401000000008211156123ba57600080fd5b838201915060208201858111156123d057600080fd5b82518660208202830111640100000000821117156123ed57600080fd5b8083526020830192505050908051906020019060200280838360005b83811015612424578082015181840152602081019050612409565b50505050905001604052505050905061243b612fff565b61244361308f565b95508573ffffffffffffffffffffffffffffffffffffffff16638e7429b38a838d600960009054906101000a900473ffffffffffffffffffffffffffffffffffffffff1630600b60009054906101000a900473ffffffffffffffffffffffffffffffffffffffff166040518763ffffffff1660e01b8152600401808773ffffffffffffffffffffffffffffffffffffffff1673ffffffffffffffffffffffffffffffffffffffff168152602001806020018681526020018573ffffffffffffffffffffffffffffffffffffffff1673ffffffffffffffffffffffffffffffffffffffff1681526020018473ffffffffffffffffffffffffffffffffffffffff1673ffffffffffffffffffffffffffffffffffffffff1681526020018373ffffffffffffffffffffffffffffffffffffffff1673ffffffffffffffffffffffffffffffffffffffff168152602001828103825287818151815260200191508051906020019060200280838360005b838110156125cb5780820151818401526020810190506125b0565b50505050905001975050505050505050600060405180830381600087803b1580156125f557600080fd5b505af1158015612609573d6000803e3d6000fd5b5050505060008090505b8b81101561278257600960009054906101000a900473ffffffffffffffffffffffffffffffffffffffff1673ffffffffffffffffffffffffffffffffffffffff1663d20a62fc83838151811061266557fe5b6020026020010151898a73ffffffffffffffffffffffffffffffffffffffff1687896040518663ffffffff1660e01b8152600401808673ffffffffffffffffffffffffffffffffffffffff1673ffffffffffffffffffffffffffffffffffffffff1681526020018573ffffffffffffffffffffffffffffffffffffffff1673ffffffffffffffffffffffffffffffffffffffff1681526020018481526020018381526020018273ffffffffffffffffffffffffffffffffffffffff1673ffffffffffffffffffffffffffffffffffffffff16815260200195505050505050600060405180830381600087803b15801561275d57600080fd5b505af1158015612771573d6000803e3d6000fd5b505050508080600101915050612613565b5083600a60008873ffffffffffffffffffffffffffffffffffffffff1673ffffffffffffffffffffffffffffffffffffffff16815260200190815260200160002060006101000a81548173ffffffffffffffffffffffffffffffffffffffff021916908373ffffffffffffffffffffffffffffffffffffffff1602179055508373ffffffffffffffffffffffffffffffffffffffff168973ffffffffffffffffffffffffffffffffffffffff168773ffffffffffffffffffffffffffffffffffffffff167f41fba7b79d7eb1f0e327059c2cee8c915ec77ce5ee9ab36dec965d8181654917848e6040518080602001838152602001828103825284818151815260200191508051906020019060200280838360005b838110156128b2578082015181840152602081019050612897565b50505050905001935050505060405180910390a4505050506003548114612941576040517f08c379a000000000000000000000000000000000000000000000000000000000815260040180806020018281038252601f8152602001807f5265656e7472616e637947756172643a207265656e7472616e742063616c6c0081525060200191505060405180910390fd5b5095945050505050565b6000600260008373ffffffffffffffffffffffffffffffffffffffff1673ffffffffffffffffffffffffffffffffffffffff168152602001908152602001600020549050919050565b600080600260008473ffffffffffffffffffffffffffffffffffffffff1673ffffffffffffffffffffffffffffffffffffffff16815260200190815260200160002054119050919050565b60006129ea82610b6d565b73ffffffffffffffffffffffffffffffffffffffff166396c82e576040518163ffffffff1660e01b815260040160206040518083038186803b158015612a2f57600080fd5b505afa158015612a43573d6000803e3d6000fd5b505050506040513d6020811015612a5957600080fd5b81019080805190602001909291905050509050919050565b612a7b8282612dcc565b73ffffffffffffffffffffffffffffffffffffffff16631c5b0762836040518263ffffffff1660e01b8152600401808273ffffffffffffffffffffffffffffffffffffffff1673ffffffffffffffffffffffffffffffffffffffff168152602001915050600060405180830381600087803b158015612af957600080fd5b505af1158015612b0d573d6000803e3d6000fd5b505050505050565b600080828401905083811015612b93576040517f08c379a000000000000000000000000000000000000000000000000000000000815260040180806020018281038252601b8152602001807f536166654d6174683a206164646974696f6e206f766572666c6f77000000000081525060200191505060405180910390fd5b8091505092915050565b600082821115612c15576040517f08c379a000000000000000000000000000000000000000000000000000000000815260040180806020018281038252601e8152602001807f536166654d6174683a207375627472616374696f6e206f766572666c6f77000081525060200191505060405180910390fd5b600082840390508091505092915050565b60006060600460009054906101000a900473ffffffffffffffffffffffffffffffffffffffff1673ffffffffffffffffffffffffffffffffffffffff168330617530604051602401808373ffffffffffffffffffffffffffffffffffffffff1673ffffffffffffffffffffffffffffffffffffffff168152602001828152602001925050506040516020818303038152906040527fe1f95890000000000000000000000000000000000000000000000000000000007bffffffffffffffffffffffffffffffffffffffffffffffffffffffff19166020820180517bffffffffffffffffffffffffffffffffffffffffffffffffffffffff83818316178352505050506040518082805190602001908083835b60208310612d5b5780518252602082019150602081019050602083039250612d38565b6001836020036101000a03801982511681845116808217855250505050505090500191505060006040518083038185875af1925050503d8060008114612dbd576040519150601f19603f3d011682016040523d82523d6000602084013e612dc2565b606091505b5091509150915091565b6000612dd88383611df9565b612e2d576040517f08c379a000000000000000000000000000000000000000000000000000000000815260040180806020018281038252602b815260200180613360602b913960400191505060405180910390fd5b600760008373ffffffffffffffffffffffffffffffffffffffff1673ffffffffffffffffffffffffffffffffffffffff16815260200190815260200160002060009054906101000a900473ffffffffffffffffffffffffffffffffffffffff16905092915050565b6000600860009054906101000a900473ffffffffffffffffffffffffffffffffffffffff1673ffffffffffffffffffffffffffffffffffffffff16634e582d6b600960009054906101000a900473ffffffffffffffffffffffffffffffffffffffff166801158e460913d00000670de0b6b3a76400006040518463ffffffff1660e01b8152600401808473ffffffffffffffffffffffffffffffffffffffff1673ffffffffffffffffffffffffffffffffffffffff1681526020018381526020018281526020019350505050602060405180830381600087803b158015612f7b57600080fd5b505af1158015612f8f573d6000803e3d6000fd5b505050506040513d6020811015612fa557600080fd5b81019080805190602001909291905050509050919050565b6000612ff782612fe96001612fdb8688612b1590919063ffffffff16565b612b9d90919063ffffffff16565b61316a90919063ffffffff16565b905092915050565b60065430604051602001808381526020018273ffffffffffffffffffffffffffffffffffffffff1673ffffffffffffffffffffffffffffffffffffffff1660601b8152601401925050506040516020818303038152906040528051906020012060001c600681905550600061307334612c26565b5090508061308c57346005600082825401925050819055505b50565b60006130bb6000809054906101000a900473ffffffffffffffffffffffffffffffffffffffff166131f9565b905060018190806001815401808255809150509060018203906000526020600020016000909192909190916101000a81548173ffffffffffffffffffffffffffffffffffffffff021916908373ffffffffffffffffffffffffffffffffffffffff1602179055505042600260008373ffffffffffffffffffffffffffffffffffffffff1673ffffffffffffffffffffffffffffffffffffffff1681526020019081526020016000208190555090565b60008082116131e1576040517f08c379a000000000000000000000000000000000000000000000000000000000815260040180806020018281038252601a8152602001807f536166654d6174683a206469766973696f6e206279207a65726f00000000000081525060200191505060405180910390fd5b60008284816131ec57fe5b0490508091505092915050565b6000808260601b90506040517f3d602d80600a3d3981f3363d3d373d3d3d363d7300000000000000000000000081528160148201527f5af43d82803e903d91602b57fd5bf3000000000000000000000000000000000060288201526037816000f09250505091905056fe496e73756666696369656e74207061796d656e7420666f72206f70656e696e672061206e6577206b656570486f6e657374207468726573686f6c64206d757374206265206c657373206f7220657175616c207468652067726f75702073697a6543616c6c6572206973206e6f742061206b65657020637265617465642062792074686520666163746f7279426f6e6420706572206d656d626572206d7573742062652067726561746572207468616e207a65726f486f6e657374207468726573686f6c64206d7573742062652067726561746572207468616e20304e6f20706f6f6c20666f756e6420666f7220746865206170706c69636174696f6e4f70657261746f72206e6f74207265676973746572656420666f7220746865206170706c69636174696f6e4e6f7420656e6f7567682066756e647320746f207472696767657220726573656564a265627a7a7231582000a9c590cec28e83c2bafbd267d47289e6a6205ad7dc62b27951f553b2b84da864736f6c63430005110032",
  "source": "/**\n     \n   \n                            \n                             \n                           \n                           \n                          \n     \n     \n\n                           Trust math, not hardware.\n*/\n\npragma solidity 0.5.17;\n\nimport \"./FullyBackedECDSAKeep.sol\";\n\nimport \"./FullyBackedBonding.sol\";\nimport \"../api/IBondedECDSAKeepFactory.sol\";\nimport \"../KeepCreator.sol\";\nimport \"../GroupSelectionSeed.sol\";\nimport \"../CandidatesPools.sol\";\n\nimport {\n    AuthorityDelegator\n} from \"@keep-network/keep-core/contracts/Authorizations.sol\";\n\nimport \"@keep-network/sortition-pools/contracts/api/IFullyBackedBonding.sol\";\nimport \"@keep-network/sortition-pools/contracts/FullyBackedSortitionPoolFactory.sol\";\nimport \"@keep-network/sortition-pools/contracts/FullyBackedSortitionPool.sol\";\n\nimport \"openzeppelin-solidity/contracts/math/SafeMath.sol\";\n\n/// @title Fully Backed Bonded ECDSA Keep Factory\n/// @notice Contract creating bonded ECDSA keeps that are fully backed by ETH.\n/// @dev We avoid redeployment of bonded ECDSA keep contract by using the clone factory.\n/// Proxy delegates calls to sortition pool and therefore does not affect contract's\n/// state. This means that we only need to deploy the bonded ECDSA keep contract\n/// once. The factory provides clean state for every new bonded ECDSA keep clone.\ncontract FullyBackedECDSAKeepFactory is\n    IBondedECDSAKeepFactory,\n    KeepCreator,\n    AuthorityDelegator,\n    GroupSelectionSeed,\n    CandidatesPools\n{\n    FullyBackedSortitionPoolFactory sortitionPoolFactory;\n    FullyBackedBonding bonding;\n\n    using SafeMath for uint256;\n\n    // Sortition pool is created with a minimum bond of 20 ETH to avoid\n    // small operators joining and griefing future selections before the\n    // minimum bond is set to the right value by the application.\n    //\n    // Anyone can create a sortition pool for an application with the default\n    // minimum bond value but the application can change this value later, at\n    // any point.\n    //\n    // The minimum bond value is a boundary value for an operator to remain\n    // in the sortition pool. Once operator's unbonded value drops below the\n    // minimum bond value the operator is removed from the sortition pool.\n    // Operator can top-up the unbonded value deposited in bonding contract\n    // and re-register to the sortition pool.\n    //\n    // This property is configured along with `MINIMUM_DELEGATION_DEPOSIT` defined\n    // in `FullyBackedBonding` contract. Minimum delegation deposit determines\n    // a minimum value of ether that should be transferred to the bonding contract\n    // by an owner when delegating to an operator.\n    uint256 public constant defaultMinimumBond = 20 ether;\n\n    // Signer candidates in bonded sortition pool are weighted by their eligible\n    // stake divided by a constant divisor. The divisor is set to 1 ETH so that\n    // all ETHs in available unbonded value matter when calculating operator's\n    // eligible weight for signer selection.\n    uint256 public constant bondWeightDivisor = 1 ether;\n\n    // Maps a keep to an application for which the keep was created.\n    // keep address -> application address\n    mapping(address => address) keepApplication;\n\n    address public bondTokenAddress;\n    // Notification that a new keep has been created.\n    event FullyBackedECDSAKeepCreated(\n        address indexed keepAddress,\n        address[] members,\n        address indexed owner,\n        address indexed application,\n        uint256 honestThreshold\n    );\n\n    // Notification when an operator gets banned in a sortition pool for\n    // an application.\n    event OperatorBanned(address indexed operator, address indexed application);\n\n    constructor(\n        address _masterKeepAddress,\n        address _sortitionPoolFactoryAddress,\n        address _bondingAddress,\n        address _randomBeaconAddress,\n        address _bondTokenAddress\n    )\n        public\n        KeepCreator(_masterKeepAddress)\n        GroupSelectionSeed(_randomBeaconAddress)\n    {\n        bondTokenAddress = _bondTokenAddress;\n        sortitionPoolFactory = FullyBackedSortitionPoolFactory(\n            _sortitionPoolFactoryAddress\n        );\n\n        bonding = FullyBackedBonding(_bondingAddress);\n    }\n\n    /// @notice Sets the minimum bondable value required from the operator to\n    /// join the sortition pool of the given application. It is up to the\n    /// application to specify a reasonable minimum bond for operators trying to\n    /// join the pool to prevent griefing by operators joining without enough\n    /// bondable value.\n    /// @param _minimumBondableValue The minimum bond value the application\n    /// requires from a single keep.\n    /// @param _groupSize Number of signers in the keep.\n    /// @param _honestThreshold Minimum number of honest keep signers.\n    function setMinimumBondableValue(\n        uint256 _minimumBondableValue,\n        uint256 _groupSize,\n        uint256 _honestThreshold\n    ) external {\n        uint256 memberBond = bondPerMember(_minimumBondableValue, _groupSize);\n        FullyBackedSortitionPool(getSortitionPool(msg.sender))\n            .setMinimumBondableValue(memberBond);\n    }\n\n    /// @notice Opens a new ECDSA keep.\n    /// @dev Selects a list of signers for the keep based on provided parameters.\n    /// A caller of this function is expected to be an application for which\n    /// member candidates were registered in a pool.\n    /// @param _groupSize Number of signers in the keep.\n    /// @param _honestThreshold Minimum number of honest keep signers.\n    /// @param _owner Address of the keep owner.\n    /// @param _bond Value of ETH bond required from the keep in wei.\n    /// @param _stakeLockDuration Stake lock duration in seconds. Ignored by\n    /// this implementation.\n    /// @return Created keep address.\n    function openKeep(\n        uint256 _groupSize,\n        uint256 _honestThreshold,\n        address _owner,\n        uint256 _bond,\n        uint256 _stakeLockDuration\n    ) external payable nonReentrant returns (address keepAddress) {\n        require(_groupSize > 0, \"Minimum signing group size is 1\");\n        require(_groupSize <= 16, \"Maximum signing group size is 16\");\n        require(\n            _honestThreshold > 0,\n            \"Honest threshold must be greater than 0\"\n        );\n        require(\n            _honestThreshold <= _groupSize,\n            \"Honest threshold must be less or equal the group size\"\n        );\n\n        address application = msg.sender;\n        address pool = getSortitionPool(application);\n\n        uint256 memberBond = bondPerMember(_bond, _groupSize);\n        require(memberBond > 0, \"Bond per member must be greater than zero\");\n\n        require(\n            msg.value >= openKeepFeeEstimate(),\n            \"Insufficient payment for opening a new keep\"\n        );\n\n        address[] memory members =\n            FullyBackedSortitionPool(pool).selectSetGroup(\n                _groupSize,\n                bytes32(groupSelectionSeed),\n                memberBond\n            );\n\n        newGroupSelectionSeed();\n\n        // createKeep sets keepOpenedTimestamp value for newly created keep which\n        // is required to be set before calling `keep.initialize` function as it\n        // is used to determine token staking delegation authority recognition\n        // in `__isRecognized` function.\n        keepAddress = createKeep();\n\n        FullyBackedECDSAKeep(keepAddress).initialize(\n            _owner,\n            members,\n            _honestThreshold,\n            address(bonding),\n            address(this),\n            bondTokenAddress\n        );\n\n        for (uint256 i = 0; i < _groupSize; i++) {\n            bonding.createBond(\n                members[i],\n                keepAddress,\n                uint256(keepAddress),\n                memberBond,\n                pool\n            );\n        }\n\n        keepApplication[keepAddress] = application;\n\n        emit FullyBackedECDSAKeepCreated(\n            keepAddress,\n            members,\n            _owner,\n            application,\n            _honestThreshold\n        );\n    }\n\n    /// @notice Verifies if delegates authority recipient is valid address recognized\n    /// by the factory for token staking authority delegation.\n    /// @param _delegatedAuthorityRecipient Address of the delegated authority\n    /// recipient.\n    /// @return True if provided address is recognized delegated token staking\n    /// authority for this factory contract.\n    function __isRecognized(address _delegatedAuthorityRecipient)\n        external\n        returns (bool)\n    {\n        return keepOpenedTimestamp[_delegatedAuthorityRecipient] > 0;\n    }\n\n    /// @notice Gets a fee estimate for opening a new keep.\n    /// @return Uint256 estimate.\n    function openKeepFeeEstimate() public view returns (uint256) {\n        return newEntryFeeEstimate();\n    }\n\n    /// @notice Checks if the factory has the authorization to operate on stake\n    /// represented by the provided operator.\n    ///\n    /// @param _operator operator's address\n    /// @return True if the factory has access to the staked token balance of\n    /// the provided operator and can slash that stake. False otherwise.\n    function isOperatorAuthorized(address _operator)\n        public\n        view\n        returns (bool)\n    {\n        return bonding.isAuthorizedForOperator(_operator, address(this));\n    }\n\n    /// @notice Bans members of a calling keep in a sortition pool associated\n    /// with the application for which the keep was created.\n    /// @dev The function can be called only by a keep created by this factory.\n    function banKeepMembers() public onlyKeep() {\n        FullyBackedECDSAKeep keep = FullyBackedECDSAKeep(msg.sender);\n\n        address[] memory members = keep.getMembers();\n\n        address application = keepApplication[address(keep)];\n\n        FullyBackedSortitionPool sortitionPool =\n            FullyBackedSortitionPool(getSortitionPool(application));\n\n        for (uint256 i = 0; i < members.length; i++) {\n            address operator = members[i];\n\n            sortitionPool.ban(operator);\n\n            emit OperatorBanned(operator, application);\n        }\n    }\n\n    function newSortitionPool(address _application) internal returns (address) {\n        return\n            sortitionPoolFactory.createSortitionPool(\n                IFullyBackedBonding(address(bonding)),\n                defaultMinimumBond,\n                bondWeightDivisor\n            );\n    }\n\n    /// @notice Calculates bond requirement per member performing the necessary\n    /// rounding.\n    /// @param _keepBond The bond required from a keep.\n    /// @param _groupSize Number of signers in the keep.\n    /// @return Bond value required from each keep member.\n    function bondPerMember(uint256 _keepBond, uint256 _groupSize)\n        internal\n        pure\n        returns (uint256)\n    {\n        // In Solidity, division rounds towards zero (down) and dividing\n        // '_bond' by '_groupSize' can leave a remainder. Even though, a remainder\n        // is very small, we want to avoid this from happening and memberBond is\n        // rounded up by: `(bond + groupSize - 1 ) / groupSize`\n        // Ex. (100 + 3 - 1) / 3 = 34\n        return (_keepBond.add(_groupSize).sub(1)).div(_groupSize);\n    }\n\n    /// @notice Checks if caller is a keep created by this factory.\n    modifier onlyKeep() {\n        require(\n            keepOpenedTimestamp[msg.sender] > 0,\n            \"Caller is not a keep created by the factory\"\n        );\n        _;\n    }\n}\n",
  "sourcePath": "/Users/konrad/Desktop/rumble/fin/local-setup/keep-ecdsa/solidity/contracts/fully-backed/FullyBackedECDSAKeepFactory.sol",
  "compiler": {
    "name": "solc",
    "version": "0.5.17+commit.d19bba13.Emscripten.clang"
  },
  "schemaVersion": "3.3.4",
  "updatedAt": "2021-04-30T09:26:06.795Z",
  "networkType": "ethereum",
  "devdoc": {
    "details": "We avoid redeployment of bonded ECDSA keep contract by using the clone factory. Proxy delegates calls to sortition pool and therefore does not affect contract's state. This means that we only need to deploy the bonded ECDSA keep contract once. The factory provides clean state for every new bonded ECDSA keep clone.",
    "methods": {
      "__beaconCallback(uint256)": {
        "details": "The function is expected to be called in a callback by the random beacon.",
        "params": {
          "_relayEntry": "Beacon output."
        }
      },
      "__isRecognized(address)": {
        "params": {
          "_delegatedAuthorityRecipient": "Address of the delegated authority recipient."
        },
        "return": "True if provided address is recognized delegated token staking authority for this factory contract."
      },
      "banKeepMembers()": {
        "details": "The function can be called only by a keep created by this factory."
      },
      "createSortitionPool(address)": {
        "details": "Emits an event after sortition pool creation.",
        "params": {
          "_application": "Address of the application."
        },
        "return": "Address of the created sortition pool contract."
      },
      "getKeepAtIndex(uint256)": {
        "return": "The address of the keep at the given index."
      },
      "getKeepCount()": {
        "details": "Checks the size of the keeps array.",
        "return": "The number of keeps opened so far."
      },
      "getKeepOpenedTimestamp(address)": {
        "return": "Timestamp the given keep was opened at or 0 if this keep was not created by this factory."
      },
      "getSortitionPool(address)": {
        "details": "Reverts if sortition does not exist for the application.",
        "params": {
          "_application": "Address of the application."
        },
        "return": "Address of the sortition pool contract."
      },
      "getSortitionPoolWeight(address)": {
        "details": "Reverts if sortition does not exits for the application.",
        "params": {
          "_application": "Address of the application."
        },
        "return": "The sum of all registered operators' weights in the pool. Reverts if sortition pool for the application does not exist."
      },
      "isOperatorAuthorized(address)": {
        "params": {
          "_operator": "operator's address"
        },
        "return": "True if the factory has access to the staked token balance of the provided operator and can slash that stake. False otherwise."
      },
      "isOperatorEligible(address,address)": {
        "params": {
          "_application": "Customer application address.",
          "_operator": "Operator's address."
        }
      },
      "isOperatorRegistered(address,address)": {
        "params": {
          "_application": "Customer application address.",
          "_operator": "Operator's address."
        },
        "return": "True if operator is already registered in the candidates pool, false otherwise."
      },
      "isOperatorUpToDate(address,address)": {
        "params": {
          "_application": "Customer application address.",
          "_operator": "Operator's address."
        }
      },
      "newEntryFeeEstimate()": {
        "return": "Uint256 estimate."
      },
      "openKeep(uint256,uint256,address,uint256,uint256)": {
        "details": "Selects a list of signers for the keep based on provided parameters. A caller of this function is expected to be an application for which member candidates were registered in a pool.",
        "params": {
          "_bond": "Value of ETH bond required from the keep in wei.",
          "_groupSize": "Number of signers in the keep.",
          "_honestThreshold": "Minimum number of honest keep signers.",
          "_owner": "Address of the keep owner.",
          "_stakeLockDuration": "Stake lock duration in seconds. Ignored by this implementation."
        },
        "return": "Created keep address."
      },
      "openKeepFeeEstimate()": {
        "return": "Uint256 estimate."
      },
      "registerMemberCandidate(address)": {
        "details": "If caller is already registered it returns without any changes.",
        "params": {
          "_application": "Address of the application."
        }
      },
      "setMinimumBondableValue(uint256,uint256,uint256)": {
        "params": {
          "_groupSize": "Number of signers in the keep.",
          "_honestThreshold": "Minimum number of honest keep signers.",
          "_minimumBondableValue": "The minimum bond value the application requires from a single keep."
        }
      },
      "updateOperatorStatus(address,address)": {
        "params": {
          "_application": "Customer application address.",
          "_operator": "Operator's address."
        }
      }
    },
    "title": "Fully Backed Bonded ECDSA Keep Factory"
  },
  "userdoc": {
    "methods": {
      "__beaconCallback(uint256)": {
        "notice": "Sets a new group selection seed value."
      },
      "__isRecognized(address)": {
        "notice": "Verifies if delegates authority recipient is valid address recognized by the factory for token staking authority delegation."
      },
      "banKeepMembers()": {
        "notice": "Bans members of a calling keep in a sortition pool associated with the application for which the keep was created."
      },
      "createSortitionPool(address)": {
        "notice": "Creates new sortition pool for the application."
      },
      "getKeepAtIndex(uint256)": {
        "notice": "Gets a specific keep address at a given index."
      },
      "getKeepCount()": {
        "notice": "Gets how many keeps have been opened by this contract."
      },
      "getKeepOpenedTimestamp(address)": {
        "notice": "Gets the opened timestamp of the given keep."
      },
      "getSortitionPool(address)": {
        "notice": "Gets the sortition pool address for the given application."
      },
      "getSortitionPoolWeight(address)": {
        "notice": "Gets the total weight of operators in the sortition pool for the given application."
      },
      "isOperatorAuthorized(address)": {
        "notice": "Checks if the factory has the authorization to operate on stake represented by the provided operator. "
      },
      "isOperatorEligible(address,address)": {
        "notice": "Checks if given operator is eligible for the given application."
      },
      "isOperatorRegistered(address,address)": {
        "notice": "Checks if operator is registered as a candidate for the given customer application."
      },
      "isOperatorUpToDate(address,address)": {
        "notice": "Checks if operator's details in the member candidates pool are up to date for the given application. If not update operator status function should be called by the one who is monitoring the status."
      },
      "newEntryFeeEstimate()": {
        "notice": "Gets a fee estimate for a new random entry."
      },
      "newGroupSelectionSeedFee()": {
        "notice": "Calculates the fee requestor has to pay to reseed the factory for signer selection. Depending on how much value is stored in the reseed pool and the price of a new relay entry, returned value may vary."
      },
      "openKeep(uint256,uint256,address,uint256,uint256)": {
        "notice": "Opens a new ECDSA keep."
      },
      "openKeepFeeEstimate()": {
        "notice": "Gets a fee estimate for opening a new keep."
      },
      "registerMemberCandidate(address)": {
        "notice": "Register caller as a candidate to be selected as keep member for the provided customer application."
      },
      "requestNewGroupSelectionSeed()": {
        "notice": "Reseeds the value used for a signer selection. Requires enough payment to be passed. The required payment can be calculated using reseedFee function. Factory is automatically triggering reseeding after opening a new keep but the reseed can be also triggered at any moment using this function."
      },
      "setMinimumBondableValue(uint256,uint256,uint256)": {
        "notice": "Sets the minimum bondable value required from the operator to join the sortition pool of the given application. It is up to the application to specify a reasonable minimum bond for operators trying to join the pool to prevent griefing by operators joining without enough bondable value."
      },
      "updateOperatorStatus(address,address)": {
        "notice": "Invokes update of operator's details in the member candidates pool for the given application"
      }
    },
    "notice": "Contract creating bonded ECDSA keeps that are fully backed by ETH."
  }
}