{
  "contractName": "FullyBackedBondingStub",
  "abi": [
    {
      "inputs": [
        {
          "internalType": "contract KeepRegistry",
          "name": "_keepRegistry",
          "type": "address"
        },
        {
          "internalType": "uint256",
          "name": "_initializationPeriod",
          "type": "uint256"
        },
        {
          "internalType": "address",
          "name": "_bondTokenAddress",
          "type": "address"
        }
      ],
      "payable": false,
      "stateMutability": "nonpayable",
      "type": "constructor"
    },
    {
      "anonymous": false,
      "inputs": [
        {
          "indexed": true,
          "internalType": "address",
          "name": "operator",
          "type": "address"
        },
        {
          "indexed": true,
          "internalType": "address",
          "name": "holder",
          "type": "address"
        },
        {
          "indexed": true,
          "internalType": "address",
          "name": "sortitionPool",
          "type": "address"
        },
        {
          "indexed": false,
          "internalType": "uint256",
          "name": "referenceID",
          "type": "uint256"
        },
        {
          "indexed": false,
          "internalType": "uint256",
          "name": "amount",
          "type": "uint256"
        }
      ],
      "name": "BondCreated",
      "type": "event"
    },
    {
      "anonymous": false,
      "inputs": [
        {
          "indexed": true,
          "internalType": "address",
          "name": "operator",
          "type": "address"
        },
        {
          "indexed": true,
          "internalType": "uint256",
          "name": "referenceID",
          "type": "uint256"
        },
        {
          "indexed": false,
          "internalType": "address",
          "name": "newHolder",
          "type": "address"
        },
        {
          "indexed": false,
          "internalType": "uint256",
          "name": "newReferenceID",
          "type": "uint256"
        }
      ],
      "name": "BondReassigned",
      "type": "event"
    },
    {
      "anonymous": false,
      "inputs": [
        {
          "indexed": true,
          "internalType": "address",
          "name": "operator",
          "type": "address"
        },
        {
          "indexed": true,
          "internalType": "uint256",
          "name": "referenceID",
          "type": "uint256"
        }
      ],
      "name": "BondReleased",
      "type": "event"
    },
    {
      "anonymous": false,
      "inputs": [
        {
          "indexed": true,
          "internalType": "address",
          "name": "operator",
          "type": "address"
        },
        {
          "indexed": true,
          "internalType": "uint256",
          "name": "referenceID",
          "type": "uint256"
        },
        {
          "indexed": false,
          "internalType": "address",
          "name": "destination",
          "type": "address"
        },
        {
          "indexed": false,
          "internalType": "uint256",
          "name": "amount",
          "type": "uint256"
        }
      ],
      "name": "BondSeized",
      "type": "event"
    },
    {
      "anonymous": false,
      "inputs": [
        {
          "indexed": true,
          "internalType": "address",
          "name": "owner",
          "type": "address"
        },
        {
          "indexed": true,
          "internalType": "address",
          "name": "operator",
          "type": "address"
        }
      ],
      "name": "Delegated",
      "type": "event"
    },
    {
      "anonymous": false,
      "inputs": [
        {
          "indexed": true,
          "internalType": "address",
          "name": "operator",
          "type": "address"
        },
        {
          "indexed": true,
          "internalType": "address",
          "name": "beneficiary",
          "type": "address"
        },
        {
          "indexed": true,
          "internalType": "address",
          "name": "authorizer",
          "type": "address"
        },
        {
          "indexed": false,
          "internalType": "uint256",
          "name": "value",
          "type": "uint256"
        }
      ],
      "name": "OperatorDelegated",
      "type": "event"
    },
    {
      "anonymous": false,
      "inputs": [
        {
          "indexed": true,
          "internalType": "address",
          "name": "operator",
          "type": "address"
        },
        {
          "indexed": false,
          "internalType": "uint256",
          "name": "value",
          "type": "uint256"
        }
      ],
      "name": "OperatorToppedUp",
      "type": "event"
    },
    {
      "anonymous": false,
      "inputs": [
        {
          "indexed": true,
          "internalType": "address",
          "name": "operator",
          "type": "address"
        },
        {
          "indexed": true,
          "internalType": "address",
          "name": "beneficiary",
          "type": "address"
        },
        {
          "indexed": false,
          "internalType": "uint256",
          "name": "amount",
          "type": "uint256"
        }
      ],
      "name": "UnbondedValueDeposited",
      "type": "event"
    },
    {
      "anonymous": false,
      "inputs": [
        {
          "indexed": true,
          "internalType": "address",
          "name": "operator",
          "type": "address"
        },
        {
          "indexed": true,
          "internalType": "address",
          "name": "beneficiary",
          "type": "address"
        },
        {
          "indexed": false,
          "internalType": "uint256",
          "name": "amount",
          "type": "uint256"
        }
      ],
      "name": "UnbondedValueWithdrawn",
      "type": "event"
    },
    {
      "constant": true,
      "inputs": [],
      "name": "DELEGATION_LOCK_PERIOD",
      "outputs": [
        {
          "internalType": "uint256",
          "name": "",
          "type": "uint256"
        }
      ],
      "payable": false,
      "stateMutability": "view",
      "type": "function"
    },
    {
      "constant": true,
      "inputs": [],
      "name": "MINIMUM_DELEGATION_DEPOSIT",
      "outputs": [
        {
          "internalType": "uint256",
          "name": "",
          "type": "uint256"
        }
      ],
      "payable": false,
      "stateMutability": "view",
      "type": "function"
    },
    {
      "constant": false,
      "inputs": [
        {
          "internalType": "address",
          "name": "_operator",
          "type": "address"
        },
        {
          "internalType": "address",
          "name": "_operatorContract",
          "type": "address"
        }
      ],
      "name": "authorizeOperatorContract",
      "outputs": [],
      "payable": false,
      "stateMutability": "nonpayable",
      "type": "function"
    },
    {
      "constant": false,
      "inputs": [
        {
          "internalType": "address",
          "name": "_operator",
          "type": "address"
        },
        {
          "internalType": "address",
          "name": "_poolAddress",
          "type": "address"
        }
      ],
      "name": "authorizeSortitionPoolContract",
      "outputs": [],
      "payable": false,
      "stateMutability": "nonpayable",
      "type": "function"
    },
    {
      "constant": true,
      "inputs": [
        {
          "internalType": "address",
          "name": "_operator",
          "type": "address"
        }
      ],
      "name": "authorizerOf",
      "outputs": [
        {
          "internalType": "address",
          "name": "",
          "type": "address"
        }
      ],
      "payable": false,
      "stateMutability": "view",
      "type": "function"
    },
    {
      "constant": true,
      "inputs": [
        {
          "internalType": "address",
          "name": "operator",
          "type": "address"
        },
        {
          "internalType": "address",
          "name": "bondCreator",
          "type": "address"
        },
        {
          "internalType": "address",
          "name": "authorizedSortitionPool",
          "type": "address"
        }
      ],
      "name": "availableUnbondedValue",
      "outputs": [
        {
          "internalType": "uint256",
          "name": "",
          "type": "uint256"
        }
      ],
      "payable": false,
      "stateMutability": "view",
      "type": "function"
    },
    {
      "constant": true,
      "inputs": [
        {
          "internalType": "address",
          "name": "_address",
          "type": "address"
        }
      ],
      "name": "balanceOf",
      "outputs": [
        {
          "internalType": "uint256",
          "name": "balance",
          "type": "uint256"
        }
      ],
      "payable": false,
      "stateMutability": "view",
      "type": "function"
    },
    {
      "constant": true,
      "inputs": [
        {
          "internalType": "address",
          "name": "_operator",
          "type": "address"
        }
      ],
      "name": "beneficiaryOf",
      "outputs": [
        {
          "internalType": "address payable",
          "name": "",
          "type": "address"
        }
      ],
      "payable": false,
      "stateMutability": "view",
      "type": "function"
    },
    {
      "constant": true,
      "inputs": [
        {
          "internalType": "address",
          "name": "operator",
          "type": "address"
        },
        {
          "internalType": "address",
          "name": "holder",
          "type": "address"
        },
        {
          "internalType": "uint256",
          "name": "referenceID",
          "type": "uint256"
        }
      ],
      "name": "bondAmount",
      "outputs": [
        {
          "internalType": "uint256",
          "name": "",
          "type": "uint256"
        }
      ],
      "payable": false,
      "stateMutability": "view",
      "type": "function"
    },
    {
      "constant": true,
      "inputs": [],
      "name": "bondTokenAddress",
      "outputs": [
        {
          "internalType": "address",
          "name": "",
          "type": "address"
        }
      ],
      "payable": false,
      "stateMutability": "view",
      "type": "function"
    },
    {
      "constant": false,
      "inputs": [
        {
          "internalType": "address",
          "name": "delegatedAuthoritySource",
          "type": "address"
        }
      ],
      "name": "claimDelegatedAuthority",
      "outputs": [],
      "payable": false,
      "stateMutability": "nonpayable",
      "type": "function"
    },
    {
      "constant": false,
      "inputs": [
        {
          "internalType": "address",
          "name": "operator",
          "type": "address"
        },
        {
          "internalType": "address",
          "name": "holder",
          "type": "address"
        },
        {
          "internalType": "uint256",
          "name": "referenceID",
          "type": "uint256"
        },
        {
          "internalType": "uint256",
          "name": "amount",
          "type": "uint256"
        },
        {
          "internalType": "address",
          "name": "authorizedSortitionPool",
          "type": "address"
        }
      ],
      "name": "createBond",
      "outputs": [],
      "payable": false,
      "stateMutability": "nonpayable",
      "type": "function"
    },
    {
      "constant": false,
      "inputs": [
        {
          "internalType": "address",
          "name": "_operator",
          "type": "address"
        },
        {
          "internalType": "address",
          "name": "_poolAddress",
          "type": "address"
        }
      ],
      "name": "deauthorizeSortitionPoolContract",
      "outputs": [],
      "payable": false,
      "stateMutability": "nonpayable",
      "type": "function"
    },
    {
      "constant": false,
      "inputs": [
        {
          "internalType": "address",
          "name": "operator",
          "type": "address"
        },
        {
          "internalType": "address payable",
          "name": "beneficiary",
          "type": "address"
        },
        {
          "internalType": "address",
          "name": "authorizer",
          "type": "address"
        },
        {
          "internalType": "uint256",
          "name": "_amount",
          "type": "uint256"
        }
      ],
      "name": "delegate",
      "outputs": [],
      "payable": false,
      "stateMutability": "nonpayable",
      "type": "function"
    },
    {
      "constant": false,
      "inputs": [
        {
          "internalType": "address",
          "name": "operator",
          "type": "address"
        },
        {
          "internalType": "uint256",
          "name": "_amount",
          "type": "uint256"
        }
      ],
      "name": "deposit",
      "outputs": [],
      "payable": false,
      "stateMutability": "nonpayable",
      "type": "function"
    },
    {
      "constant": false,
      "inputs": [
        {
          "internalType": "address",
          "name": "operator",
          "type": "address"
        },
        {
          "internalType": "uint256",
          "name": "_amount",
          "type": "uint256"
        },
        {
          "internalType": "address",
          "name": "_source",
          "type": "address"
        }
      ],
      "name": "depositFor",
      "outputs": [],
      "payable": false,
      "stateMutability": "nonpayable",
      "type": "function"
    },
    {
      "constant": false,
      "inputs": [
        {
          "internalType": "address",
          "name": "operator",
          "type": "address"
        },
        {
          "internalType": "uint256",
          "name": "referenceID",
          "type": "uint256"
        }
      ],
      "name": "freeBond",
      "outputs": [],
      "payable": false,
      "stateMutability": "nonpayable",
      "type": "function"
    },
    {
      "constant": true,
      "inputs": [
        {
          "internalType": "address",
          "name": "operatorContract",
          "type": "address"
        }
      ],
      "name": "getAuthoritySource",
      "outputs": [
        {
          "internalType": "address",
          "name": "",
          "type": "address"
        }
      ],
      "payable": false,
      "stateMutability": "view",
      "type": "function"
    },
    {
      "constant": true,
      "inputs": [
        {
          "internalType": "address",
          "name": "operator",
          "type": "address"
        }
      ],
      "name": "getDelegationInfo",
      "outputs": [
        {
          "internalType": "uint256",
          "name": "createdAt",
          "type": "uint256"
        },
        {
          "internalType": "uint256",
          "name": "undelegatedAt",
          "type": "uint256"
        }
      ],
      "payable": false,
      "stateMutability": "view",
      "type": "function"
    },
    {
      "constant": true,
      "inputs": [
        {
          "internalType": "address",
          "name": "_operator",
          "type": "address"
        },
        {
          "internalType": "address",
          "name": "_poolAddress",
          "type": "address"
        }
      ],
      "name": "hasSecondaryAuthorization",
      "outputs": [
        {
          "internalType": "bool",
          "name": "",
          "type": "bool"
        }
      ],
      "payable": false,
      "stateMutability": "view",
      "type": "function"
    },
    {
      "constant": true,
      "inputs": [],
      "name": "initializationPeriod",
      "outputs": [
        {
          "internalType": "uint256",
          "name": "",
          "type": "uint256"
        }
      ],
      "payable": false,
      "stateMutability": "view",
      "type": "function"
    },
    {
      "constant": true,
      "inputs": [
        {
          "internalType": "address",
          "name": "_operatorContract",
          "type": "address"
        }
      ],
      "name": "isApprovedOperatorContract",
      "outputs": [
        {
          "internalType": "bool",
          "name": "",
          "type": "bool"
        }
      ],
      "payable": false,
      "stateMutability": "view",
      "type": "function"
    },
    {
      "constant": true,
      "inputs": [
        {
          "internalType": "address",
          "name": "_operator",
          "type": "address"
        },
        {
          "internalType": "address",
          "name": "_operatorContract",
          "type": "address"
        }
      ],
      "name": "isAuthorizedForOperator",
      "outputs": [
        {
          "internalType": "bool",
          "name": "",
          "type": "bool"
        }
      ],
      "payable": false,
      "stateMutability": "view",
      "type": "function"
    },
    {
      "constant": true,
      "inputs": [
        {
          "internalType": "address",
          "name": "operator",
          "type": "address"
        },
        {
          "internalType": "address",
          "name": "bondCreator",
          "type": "address"
        }
      ],
      "name": "isInitialized",
      "outputs": [
        {
          "internalType": "bool",
          "name": "",
          "type": "bool"
        }
      ],
      "payable": false,
      "stateMutability": "view",
      "type": "function"
    },
    {
      "constant": true,
      "inputs": [
        {
          "internalType": "address",
          "name": "_operator",
          "type": "address"
        }
      ],
      "name": "ownerOf",
      "outputs": [
        {
          "internalType": "address",
          "name": "",
          "type": "address"
        }
      ],
      "payable": false,
      "stateMutability": "view",
      "type": "function"
    },
    {
      "constant": false,
      "inputs": [
        {
          "internalType": "address",
          "name": "operator",
          "type": "address"
        },
        {
          "internalType": "uint256",
          "name": "referenceID",
          "type": "uint256"
        },
        {
          "internalType": "address",
          "name": "newHolder",
          "type": "address"
        },
        {
          "internalType": "uint256",
          "name": "newReferenceID",
          "type": "uint256"
        }
      ],
      "name": "reassignBond",
      "outputs": [],
      "payable": false,
      "stateMutability": "nonpayable",
      "type": "function"
    },
    {
      "constant": false,
      "inputs": [
        {
          "internalType": "address",
          "name": "operator",
          "type": "address"
        },
        {
          "internalType": "uint256",
          "name": "referenceID",
          "type": "uint256"
        },
        {
          "internalType": "uint256",
          "name": "amount",
          "type": "uint256"
        },
        {
          "internalType": "address",
          "name": "destination",
          "type": "address"
        }
      ],
      "name": "seizeBond",
      "outputs": [],
      "payable": false,
      "stateMutability": "nonpayable",
      "type": "function"
    },
    {
      "constant": false,
      "inputs": [
        {
          "internalType": "address",
          "name": "operator",
          "type": "address"
        },
        {
          "internalType": "uint256",
          "name": "_amount",
          "type": "uint256"
        }
      ],
      "name": "topUp",
      "outputs": [],
      "payable": false,
      "stateMutability": "nonpayable",
      "type": "function"
    },
    {
      "constant": true,
      "inputs": [
        {
          "internalType": "address",
          "name": "",
          "type": "address"
        }
      ],
      "name": "unbondedValue",
      "outputs": [
        {
          "internalType": "uint256",
          "name": "",
          "type": "uint256"
        }
      ],
      "payable": false,
      "stateMutability": "view",
      "type": "function"
    },
    {
      "constant": false,
      "inputs": [
        {
          "internalType": "uint256",
          "name": "amount",
          "type": "uint256"
        },
        {
          "internalType": "address",
          "name": "operator",
          "type": "address"
        }
      ],
      "name": "withdraw",
      "outputs": [],
      "payable": false,
      "stateMutability": "nonpayable",
      "type": "function"
    },
    {
      "constant": false,
      "inputs": [
        {
          "internalType": "address",
          "name": "_operator",
          "type": "address"
        },
        {
          "internalType": "address payable",
          "name": "_beneficiary",
          "type": "address"
        }
      ],
      "name": "setBeneficiary",
      "outputs": [],
      "payable": false,
      "stateMutability": "nonpayable",
      "type": "function"
    }
  ],
  "bytecode": "0x608060405234801561001057600080fd5b506040516141073803806141078339818101604052606081101561003357600080fd5b8101908080519060200190929190805190602001909291908051906020019092919050505082828282838281600160006101000a81548173ffffffffffffffffffffffffffffffffffffffff021916908373ffffffffffffffffffffffffffffffffffffffff160217905550806000806101000a81548173ffffffffffffffffffffffffffffffffffffffff021916908373ffffffffffffffffffffffffffffffffffffffff160217905550505080600760006101000a81548173ffffffffffffffffffffffffffffffffffffffff021916908373ffffffffffffffffffffffffffffffffffffffff1602179055505081600981905550505050505050613fc88061013f6000396000f3fe608060405234801561001057600080fd5b50600436106101e45760003560e01c80637ab3cf931161010f578063cbe945dc116100a2578063f165478311610071578063f165478314610c7b578063f52564ec14610cdf578063fab46d6614610d43578063fb1677b114610da2576101e4565b8063cbe945dc14610a95578063d20a62fc14610b19578063d6f7ddf914610bb1578063ef1f966114610bff576101e4565b8063aed1ec72116100de578063aed1ec7214610921578063ba7bffd31461093f578063c5786174146109c3578063c8820f6c14610a27576101e4565b80637ab3cf93146107bb57806384d5768914610809578063972f245714610865578063a590ae36146108dd576101e4565b806342bcb965116101875780636258b75d116101565780636258b75d1461063b5780636741f9121461065957806370a08231146106e757806378f011c11461073f576101e4565b806342bcb9651461047b578063446f0f9e1461051357806347e7ef24146105955780635823cfad146105e3576101e4565b80630cb0a677116101c35780630cb0a677146102b95780631133fd2c1461033157806314afd79e1461037b57806330315f62146103ff576101e4565b8062f714ce146101e9578063063cb844146102375780630b10247114610255575b600080fd5b610235600480360360408110156101ff57600080fd5b8101908080359060200190929190803573ffffffffffffffffffffffffffffffffffffffff169060200190929190505050610e26565b005b61023f610f54565b6040518082815260200191505060405180910390f35b6102b76004803603604081101561026b57600080fd5b81019080803573ffffffffffffffffffffffffffffffffffffffff169060200190929190803573ffffffffffffffffffffffffffffffffffffffff169060200190929190505050610f61565b005b61032f600480360360808110156102cf57600080fd5b81019080803573ffffffffffffffffffffffffffffffffffffffff1690602001909291908035906020019092919080359060200190929190803573ffffffffffffffffffffffffffffffffffffffff1690602001909291905050506110a3565b005b61033961142f565b604051808273ffffffffffffffffffffffffffffffffffffffff1673ffffffffffffffffffffffffffffffffffffffff16815260200191505060405180910390f35b6103bd6004803603602081101561039157600080fd5b81019080803573ffffffffffffffffffffffffffffffffffffffff169060200190929190505050611454565b604051808273ffffffffffffffffffffffffffffffffffffffff1673ffffffffffffffffffffffffffffffffffffffff16815260200191505060405180910390f35b6104616004803603604081101561041557600080fd5b81019080803573ffffffffffffffffffffffffffffffffffffffff169060200190929190803573ffffffffffffffffffffffffffffffffffffffff1690602001909291905050506114c0565b604051808215151515815260200191505060405180910390f35b6104fd6004803603606081101561049157600080fd5b81019080803573ffffffffffffffffffffffffffffffffffffffff169060200190929190803573ffffffffffffffffffffffffffffffffffffffff169060200190929190803573ffffffffffffffffffffffffffffffffffffffff16906020019092919050505061152c565b6040518082815260200191505060405180910390f35b61057f6004803603606081101561052957600080fd5b81019080803573ffffffffffffffffffffffffffffffffffffffff169060200190929190803573ffffffffffffffffffffffffffffffffffffffff16906020019092919080359060200190929190505050611684565b6040518082815260200191505060405180910390f35b6105e1600480360360408110156105ab57600080fd5b81019080803573ffffffffffffffffffffffffffffffffffffffff1690602001909291908035906020019092919050505061173c565b005b610625600480360360208110156105f957600080fd5b81019080803573ffffffffffffffffffffffffffffffffffffffff169060200190929190505050611b4d565b6040518082815260200191505060405180910390f35b610643611b65565b6040518082815260200191505060405180910390f35b6106e56004803603608081101561066f57600080fd5b81019080803573ffffffffffffffffffffffffffffffffffffffff169060200190929190803573ffffffffffffffffffffffffffffffffffffffff169060200190929190803573ffffffffffffffffffffffffffffffffffffffff16906020019092919080359060200190929190505050611b6b565b005b610729600480360360208110156106fd57600080fd5b81019080803573ffffffffffffffffffffffffffffffffffffffff16906020019092919050505061209e565b6040518082815260200191505060405180910390f35b6107a16004803603604081101561075557600080fd5b81019080803573ffffffffffffffffffffffffffffffffffffffff169060200190929190803573ffffffffffffffffffffffffffffffffffffffff1690602001909291905050506120f2565b604051808215151515815260200191505060405180910390f35b610807600480360360408110156107d157600080fd5b81019080803573ffffffffffffffffffffffffffffffffffffffff16906020019092919080359060200190929190505050612186565b005b61084b6004803603602081101561081f57600080fd5b81019080803573ffffffffffffffffffffffffffffffffffffffff1690602001909291905050506123be565b604051808215151515815260200191505060405180910390f35b6108db6004803603608081101561087b57600080fd5b81019080803573ffffffffffffffffffffffffffffffffffffffff16906020019092919080359060200190929190803573ffffffffffffffffffffffffffffffffffffffff169060200190929190803590602001909291905050506124a9565b005b61091f600480360360208110156108f357600080fd5b81019080803573ffffffffffffffffffffffffffffffffffffffff1690602001909291905050506127a5565b005b6109296129cf565b6040518082815260200191505060405180910390f35b6109816004803603602081101561095557600080fd5b81019080803573ffffffffffffffffffffffffffffffffffffffff1690602001909291905050506129d5565b604051808273ffffffffffffffffffffffffffffffffffffffff1673ffffffffffffffffffffffffffffffffffffffff16815260200191505060405180910390f35b610a25600480360360408110156109d957600080fd5b81019080803573ffffffffffffffffffffffffffffffffffffffff169060200190929190803573ffffffffffffffffffffffffffffffffffffffff169060200190929190505050612a41565b005b610a9360048036036060811015610a3d57600080fd5b81019080803573ffffffffffffffffffffffffffffffffffffffff16906020019092919080359060200190929190803573ffffffffffffffffffffffffffffffffffffffff169060200190929190505050612b83565b005b610ad760048036036020811015610aab57600080fd5b81019080803573ffffffffffffffffffffffffffffffffffffffff169060200190929190505050612f95565b604051808273ffffffffffffffffffffffffffffffffffffffff1673ffffffffffffffffffffffffffffffffffffffff16815260200191505060405180910390f35b610baf600480360360a0811015610b2f57600080fd5b81019080803573ffffffffffffffffffffffffffffffffffffffff169060200190929190803573ffffffffffffffffffffffffffffffffffffffff1690602001909291908035906020019092919080359060200190929190803573ffffffffffffffffffffffffffffffffffffffff16906020019092919050505061304a565b005b610bfd60048036036040811015610bc757600080fd5b81019080803573ffffffffffffffffffffffffffffffffffffffff1690602001909291908035906020019092919050505061332d565b005b610c6160048036036040811015610c1557600080fd5b81019080803573ffffffffffffffffffffffffffffffffffffffff169060200190929190803573ffffffffffffffffffffffffffffffffffffffff1690602001909291905050506133b1565b604051808215151515815260200191505060405180910390f35b610cdd60048036036040811015610c9157600080fd5b81019080803573ffffffffffffffffffffffffffffffffffffffff169060200190929190803573ffffffffffffffffffffffffffffffffffffffff16906020019092919050505061344d565b005b610d4160048036036040811015610cf557600080fd5b81019080803573ffffffffffffffffffffffffffffffffffffffff169060200190929190803573ffffffffffffffffffffffffffffffffffffffff1690602001909291905050506136b5565b005b610d8560048036036020811015610d5957600080fd5b81019080803573ffffffffffffffffffffffffffffffffffffffff16906020019092919050505061373a565b604051808381526020018281526020019250505060405180910390f35b610de460048036036020811015610db857600080fd5b81019080803573ffffffffffffffffffffffffffffffffffffffff1690602001909291905050506137a0565b604051808273ffffffffffffffffffffffffffffffffffffffff1673ffffffffffffffffffffffffffffffffffffffff16815260200191505060405180910390f35b8073ffffffffffffffffffffffffffffffffffffffff163373ffffffffffffffffffffffffffffffffffffffff161480610e935750610e6481611454565b73ffffffffffffffffffffffffffffffffffffffff163373ffffffffffffffffffffffffffffffffffffffff16145b610ee8576040517f08c379a0000000000000000000000000000000000000000000000000000000008152600401808060200182810382526036815260200180613f5e6036913960400191505060405180910390fd5b610ef18161380c565b610f46576040517f08c379a0000000000000000000000000000000000000000000000000000000008152600401808060200182810382526029815260200180613ee06029913960400191505060405180910390fd5b610f508282613876565b5050565b68022b1c8c1227a0000081565b3373ffffffffffffffffffffffffffffffffffffffff16610f81836137a0565b73ffffffffffffffffffffffffffffffffffffffff161461100a576040517f08c379a000000000000000000000000000000000000000000000000000000000815260040180806020018281038252600e8152602001807f4e6f7420617574686f72697a656400000000000000000000000000000000000081525060200191505060405180910390fd5b6000600460008473ffffffffffffffffffffffffffffffffffffffff1673ffffffffffffffffffffffffffffffffffffffff16815260200190815260200160002060008373ffffffffffffffffffffffffffffffffffffffff1673ffffffffffffffffffffffffffffffffffffffff16815260200190815260200160002060006101000a81548160ff0219169083151502179055505050565b600082116110fc576040517f08c379a000000000000000000000000000000000000000000000000000000000815260040180806020018281038252602c815260200180613f32602c913960400191505060405180910390fd5b60003390506000858286604051602001808473ffffffffffffffffffffffffffffffffffffffff1673ffffffffffffffffffffffffffffffffffffffff1660601b81526014018373ffffffffffffffffffffffffffffffffffffffff1673ffffffffffffffffffffffffffffffffffffffff1660601b815260140182815260200193505050506040516020818303038152906040528051906020012090508360036000838152602001908152602001600020541015611206576040517f08c379a0000000000000000000000000000000000000000000000000000000008152600401808060200182810382526029815260200180613f096029913960400191505060405180910390fd5b60008060009054906101000a900473ffffffffffffffffffffffffffffffffffffffff169050611252856003600085815260200190815260200160002054613b9890919063ffffffff16565b600360008481526020019081526020016000208190555060008173ffffffffffffffffffffffffffffffffffffffff1663a9059cbb86886040518363ffffffff1660e01b8152600401808373ffffffffffffffffffffffffffffffffffffffff1673ffffffffffffffffffffffffffffffffffffffff16815260200182815260200192505050602060405180830381600087803b1580156112f257600080fd5b505af1158015611306573d6000803e3d6000fd5b505050506040513d602081101561131c57600080fd5b81019080805190602001909291905050509050806113a2576040517f08c379a000000000000000000000000000000000000000000000000000000000815260040180806020018281038252600f8152602001807f5472616e73666572206661696c6564000000000000000000000000000000000081525060200191505060405180910390fd5b868873ffffffffffffffffffffffffffffffffffffffff167ff8e947b47b515d01aa96426822ddcf23a08f42d8c2dbfd65e674ba824f5513828789604051808373ffffffffffffffffffffffffffffffffffffffff1673ffffffffffffffffffffffffffffffffffffffff1681526020018281526020019250505060405180910390a35050505050505050565b6000809054906101000a900473ffffffffffffffffffffffffffffffffffffffff1681565b6000600860008373ffffffffffffffffffffffffffffffffffffffff1673ffffffffffffffffffffffffffffffffffffffff16815260200190815260200160002060010160009054906101000a900473ffffffffffffffffffffffffffffffffffffffff169050919050565b600080600860008573ffffffffffffffffffffffffffffffffffffffff1673ffffffffffffffffffffffffffffffffffffffff16815260200190815260200160002060000154905061151284846133b1565b8015611523575061152281613c21565b5b91505092915050565b6000600160009054906101000a900473ffffffffffffffffffffffffffffffffffffffff1673ffffffffffffffffffffffffffffffffffffffff166384d57689846040518263ffffffff1660e01b8152600401808273ffffffffffffffffffffffffffffffffffffffff1673ffffffffffffffffffffffffffffffffffffffff16815260200191505060206040518083038186803b1580156115cd57600080fd5b505afa1580156115e1573d6000803e3d6000fd5b505050506040513d60208110156115f757600080fd5b8101908080519060200190929190505050801561161a575061161984846133b1565b5b801561162c575061162b84836120f2565b5b1561167857600260008573ffffffffffffffffffffffffffffffffffffffff1673ffffffffffffffffffffffffffffffffffffffff16815260200190815260200160002054905061167d565b600090505b9392505050565b600080848484604051602001808473ffffffffffffffffffffffffffffffffffffffff1673ffffffffffffffffffffffffffffffffffffffff1660601b81526014018373ffffffffffffffffffffffffffffffffffffffff1673ffffffffffffffffffffffffffffffffffffffff1660601b8152601401828152602001935050505060405160208183030381529060405280519060200120905060036000828152602001908152602001600020549150509392505050565b6000611747836129d5565b9050600073ffffffffffffffffffffffffffffffffffffffff168173ffffffffffffffffffffffffffffffffffffffff1614156117cf576040517f08c379a0000000000000000000000000000000000000000000000000000000008152600401808060200182810382526028815260200180613eb86028913960400191505060405180910390fd5b60008060009054906101000a900473ffffffffffffffffffffffffffffffffffffffff169050828173ffffffffffffffffffffffffffffffffffffffff1663dd62ed3e86306040518363ffffffff1660e01b8152600401808373ffffffffffffffffffffffffffffffffffffffff1673ffffffffffffffffffffffffffffffffffffffff1681526020018273ffffffffffffffffffffffffffffffffffffffff1673ffffffffffffffffffffffffffffffffffffffff1681526020019250505060206040518083038186803b1580156118a757600080fd5b505afa1580156118bb573d6000803e3d6000fd5b505050506040513d60208110156118d157600080fd5b81019080805190602001909291905050501015611956576040517f08c379a00000000000000000000000000000000000000000000000000000000081526004018080602001828103825260148152602001807f416c6c6f77616e636520697320746f6f206c6f7700000000000000000000000081525060200191505060405180910390fd5b8073ffffffffffffffffffffffffffffffffffffffff166323b872dd8530866040518463ffffffff1660e01b8152600401808473ffffffffffffffffffffffffffffffffffffffff1673ffffffffffffffffffffffffffffffffffffffff1681526020018373ffffffffffffffffffffffffffffffffffffffff1673ffffffffffffffffffffffffffffffffffffffff1681526020018281526020019350505050602060405180830381600087803b158015611a1157600080fd5b505af1158015611a25573d6000803e3d6000fd5b505050506040513d6020811015611a3b57600080fd5b810190808051906020019092919050505050611a9f83600260008773ffffffffffffffffffffffffffffffffffffffff1673ffffffffffffffffffffffffffffffffffffffff16815260200190815260200160002054613c4990919063ffffffff16565b600260008673ffffffffffffffffffffffffffffffffffffffff1673ffffffffffffffffffffffffffffffffffffffff168152602001908152602001600020819055508173ffffffffffffffffffffffffffffffffffffffff168473ffffffffffffffffffffffffffffffffffffffff167ffd586a32ad24d585b1f7b36ee48e66304ad7627b48b39a0ab1d8a3e84741ea2a856040518082815260200191505060405180910390a350505050565b60026020528060005260406000206000915090505481565b61a8c081565b6000339050600073ffffffffffffffffffffffffffffffffffffffff168573ffffffffffffffffffffffffffffffffffffffff161415611c13576040517f08c379a00000000000000000000000000000000000000000000000000000000081526004018080602001828103825260188152602001807f496e76616c6964206f70657261746f722061646472657373000000000000000081525060200191505060405180910390fd5b600073ffffffffffffffffffffffffffffffffffffffff168373ffffffffffffffffffffffffffffffffffffffff161415611cb6576040517f08c379a000000000000000000000000000000000000000000000000000000000815260040180806020018281038252601a8152602001807f496e76616c696420617574686f72697a6572206164647265737300000000000081525060200191505060405180910390fd5b60008060009054906101000a900473ffffffffffffffffffffffffffffffffffffffff169050600073ffffffffffffffffffffffffffffffffffffffff16600860008873ffffffffffffffffffffffffffffffffffffffff1673ffffffffffffffffffffffffffffffffffffffff16815260200190815260200160002060010160009054906101000a900473ffffffffffffffffffffffffffffffffffffffff1673ffffffffffffffffffffffffffffffffffffffff1614611dc3576040517f08c379a000000000000000000000000000000000000000000000000000000000815260040180806020018281038252602b815260200180613e2d602b913960400191505060405180910390fd5b68022b1c8c1227a00000831015611e25576040517f08c379a0000000000000000000000000000000000000000000000000000000008152600401808060200182810382526031815260200180613e876031913960400191505060405180910390fd5b6040518060800160405280611e3d6000426000613cd1565b81526020018373ffffffffffffffffffffffffffffffffffffffff1681526020018673ffffffffffffffffffffffffffffffffffffffff1681526020018573ffffffffffffffffffffffffffffffffffffffff16815250600860008873ffffffffffffffffffffffffffffffffffffffff1673ffffffffffffffffffffffffffffffffffffffff1681526020019081526020016000206000820151816000015560208201518160010160006101000a81548173ffffffffffffffffffffffffffffffffffffffff021916908373ffffffffffffffffffffffffffffffffffffffff16021790555060408201518160020160006101000a81548173ffffffffffffffffffffffffffffffffffffffff021916908373ffffffffffffffffffffffffffffffffffffffff16021790555060608201518160030160006101000a81548173ffffffffffffffffffffffffffffffffffffffff021916908373ffffffffffffffffffffffffffffffffffffffff160217905550905050611fc0868433612b83565b8573ffffffffffffffffffffffffffffffffffffffff168273ffffffffffffffffffffffffffffffffffffffff167f4bc154dd35d6a5cb9206482ecb473cdbf2473006d6bce728b9cc0741bcc59ea260405160405180910390a38373ffffffffffffffffffffffffffffffffffffffff168573ffffffffffffffffffffffffffffffffffffffff168773ffffffffffffffffffffffffffffffffffffffff167fa39bf252411ec873a14985aaddc5fc000c26cfa8001460a09b618e2e03c8f304866040518082815260200191505060405180910390a4505050505050565b60006120eb600860008473ffffffffffffffffffffffffffffffffffffffff1673ffffffffffffffffffffffffffffffffffffffff16815260200190815260200160002060000154613de8565b9050919050565b6000600460008473ffffffffffffffffffffffffffffffffffffffff1673ffffffffffffffffffffffffffffffffffffffff16815260200190815260200160002060008373ffffffffffffffffffffffffffffffffffffffff1673ffffffffffffffffffffffffffffffffffffffff16815260200190815260200160002060009054906101000a900460ff16905092915050565b60003390506000838284604051602001808473ffffffffffffffffffffffffffffffffffffffff1673ffffffffffffffffffffffffffffffffffffffff1660601b81526014018373ffffffffffffffffffffffffffffffffffffffff1673ffffffffffffffffffffffffffffffffffffffff1660601b8152601401828152602001935050505060405160208183030381529060405280519060200120905060006003600083815260200190815260200160002054116122ad576040517f08c379a000000000000000000000000000000000000000000000000000000000815260040180806020018281038252600e8152602001807f426f6e64206e6f7420666f756e6400000000000000000000000000000000000081525060200191505060405180910390fd5b6000600360008381526020019081526020016000205490506000600360008481526020019081526020016000208190555061233081600260008873ffffffffffffffffffffffffffffffffffffffff1673ffffffffffffffffffffffffffffffffffffffff16815260200190815260200160002054613c4990919063ffffffff16565b600260008773ffffffffffffffffffffffffffffffffffffffff1673ffffffffffffffffffffffffffffffffffffffff16815260200190815260200160002081905550838573ffffffffffffffffffffffffffffffffffffffff167f60b8ef4216791426b3d7acfb0b6d11a400872350afd70a3ce5ebf62bea7cb0d460405160405180910390a35050505050565b6000600760009054906101000a900473ffffffffffffffffffffffffffffffffffffffff1673ffffffffffffffffffffffffffffffffffffffff166384d5768961240784612f95565b6040518263ffffffff1660e01b8152600401808273ffffffffffffffffffffffffffffffffffffffff1673ffffffffffffffffffffffffffffffffffffffff16815260200191505060206040518083038186803b15801561246757600080fd5b505afa15801561247b573d6000803e3d6000fd5b505050506040513d602081101561249157600080fd5b81019080805190602001909291905050509050919050565b60003390506000858286604051602001808473ffffffffffffffffffffffffffffffffffffffff1673ffffffffffffffffffffffffffffffffffffffff1660601b81526014018373ffffffffffffffffffffffffffffffffffffffff1673ffffffffffffffffffffffffffffffffffffffff1660601b8152601401828152602001935050505060405160208183030381529060405280519060200120905060006003600083815260200190815260200160002054116125d0576040517f08c379a000000000000000000000000000000000000000000000000000000000815260040180806020018281038252600e8152602001807f426f6e64206e6f7420666f756e6400000000000000000000000000000000000081525060200191505060405180910390fd5b6000868585604051602001808473ffffffffffffffffffffffffffffffffffffffff1673ffffffffffffffffffffffffffffffffffffffff1660601b81526014018373ffffffffffffffffffffffffffffffffffffffff1673ffffffffffffffffffffffffffffffffffffffff1660601b8152601401828152602001935050505060405160208183030381529060405280519060200120905060006003600083815260200190815260200160002054146126d5576040517f08c379a000000000000000000000000000000000000000000000000000000000815260040180806020018281038252602f815260200180613e58602f913960400191505060405180910390fd5b6003600083815260200190815260200160002054600360008381526020019081526020016000208190555060006003600084815260200190815260200160002081905550858773ffffffffffffffffffffffffffffffffffffffff167fb1d917176802bfbc813f2d82e745526029a4ccf0ea98d14e7a09a08703595b1e8787604051808373ffffffffffffffffffffffffffffffffffffffff1673ffffffffffffffffffffffffffffffffffffffff1681526020018281526020019250505060405180910390a350505050505050565b806127af816123be565b612821576040517f08c379a000000000000000000000000000000000000000000000000000000000815260040180806020018281038252601c8152602001807f4f70657261746f7220636f6e747261637420756e617070726f7665640000000081525060200191505060405180910390fd5b8173ffffffffffffffffffffffffffffffffffffffff1663d870c034336040518263ffffffff1660e01b8152600401808273ffffffffffffffffffffffffffffffffffffffff1673ffffffffffffffffffffffffffffffffffffffff168152602001915050602060405180830381600087803b1580156128a057600080fd5b505af11580156128b4573d6000803e3d6000fd5b505050506040513d60208110156128ca57600080fd5b810190808051906020019092919050505061294d576040517f08c379a00000000000000000000000000000000000000000000000000000000081526004018080602001828103825260158152602001807f556e7265636f676e697a656420636c61696d616e74000000000000000000000081525060200191505060405180910390fd5b81600660003373ffffffffffffffffffffffffffffffffffffffff1673ffffffffffffffffffffffffffffffffffffffff16815260200190815260200160002060006101000a81548173ffffffffffffffffffffffffffffffffffffffff021916908373ffffffffffffffffffffffffffffffffffffffff1602179055505050565b60095481565b6000600860008373ffffffffffffffffffffffffffffffffffffffff1673ffffffffffffffffffffffffffffffffffffffff16815260200190815260200160002060020160009054906101000a900473ffffffffffffffffffffffffffffffffffffffff169050919050565b3373ffffffffffffffffffffffffffffffffffffffff16612a61836137a0565b73ffffffffffffffffffffffffffffffffffffffff1614612aea576040517f08c379a000000000000000000000000000000000000000000000000000000000815260040180806020018281038252600e8152602001807f4e6f7420617574686f72697a656400000000000000000000000000000000000081525060200191505060405180910390fd5b6001600460008473ffffffffffffffffffffffffffffffffffffffff1673ffffffffffffffffffffffffffffffffffffffff16815260200190815260200160002060008373ffffffffffffffffffffffffffffffffffffffff1673ffffffffffffffffffffffffffffffffffffffff16815260200190815260200160002060006101000a81548160ff0219169083151502179055505050565b6000612b8e846129d5565b9050600073ffffffffffffffffffffffffffffffffffffffff168173ffffffffffffffffffffffffffffffffffffffff161415612c16576040517f08c379a0000000000000000000000000000000000000000000000000000000008152600401808060200182810382526028815260200180613eb86028913960400191505060405180910390fd5b60008060009054906101000a900473ffffffffffffffffffffffffffffffffffffffff169050838173ffffffffffffffffffffffffffffffffffffffff1663dd62ed3e85306040518363ffffffff1660e01b8152600401808373ffffffffffffffffffffffffffffffffffffffff1673ffffffffffffffffffffffffffffffffffffffff1681526020018273ffffffffffffffffffffffffffffffffffffffff1673ffffffffffffffffffffffffffffffffffffffff1681526020019250505060206040518083038186803b158015612cee57600080fd5b505afa158015612d02573d6000803e3d6000fd5b505050506040513d6020811015612d1857600080fd5b81019080805190602001909291905050501015612d9d576040517f08c379a000000000000000000000000000000000000000000000000000000000815260040180806020018281038252601f8152602001807f416c6c6f77616e6365206f66205f736f7572636520697320746f6f206c6f770081525060200191505060405180910390fd5b8073ffffffffffffffffffffffffffffffffffffffff166323b872dd8430876040518463ffffffff1660e01b8152600401808473ffffffffffffffffffffffffffffffffffffffff1673ffffffffffffffffffffffffffffffffffffffff1681526020018373ffffffffffffffffffffffffffffffffffffffff1673ffffffffffffffffffffffffffffffffffffffff1681526020018281526020019350505050602060405180830381600087803b158015612e5857600080fd5b505af1158015612e6c573d6000803e3d6000fd5b505050506040513d6020811015612e8257600080fd5b810190808051906020019092919050505050612ee684600260008873ffffffffffffffffffffffffffffffffffffffff1673ffffffffffffffffffffffffffffffffffffffff16815260200190815260200160002054613c4990919063ffffffff16565b600260008773ffffffffffffffffffffffffffffffffffffffff1673ffffffffffffffffffffffffffffffffffffffff168152602001908152602001600020819055508173ffffffffffffffffffffffffffffffffffffffff168573ffffffffffffffffffffffffffffffffffffffff167ffd586a32ad24d585b1f7b36ee48e66304ad7627b48b39a0ab1d8a3e84741ea2a866040518082815260200191505060405180910390a35050505050565b600080600660008473ffffffffffffffffffffffffffffffffffffffff1673ffffffffffffffffffffffffffffffffffffffff16815260200190815260200160002060009054906101000a900473ffffffffffffffffffffffffffffffffffffffff169050600073ffffffffffffffffffffffffffffffffffffffff168173ffffffffffffffffffffffffffffffffffffffff1614156130385782915050613045565b61304181612f95565b9150505b919050565b8161305686338461152c565b10156130ca576040517f08c379a000000000000000000000000000000000000000000000000000000000815260040180806020018281038252601b8152602001807f496e73756666696369656e7420756e626f6e6465642076616c7565000000000081525060200191505060405180910390fd5b6000858585604051602001808473ffffffffffffffffffffffffffffffffffffffff1673ffffffffffffffffffffffffffffffffffffffff1660601b81526014018373ffffffffffffffffffffffffffffffffffffffff1673ffffffffffffffffffffffffffffffffffffffff1660601b8152601401828152602001935050505060405160208183030381529060405280519060200120905060006003600083815260200190815260200160002054146131cf576040517f08c379a000000000000000000000000000000000000000000000000000000000815260040180806020018281038252602f815260200180613e58602f913960400191505060405180910390fd5b61322183600260008973ffffffffffffffffffffffffffffffffffffffff1673ffffffffffffffffffffffffffffffffffffffff16815260200190815260200160002054613b9890919063ffffffff16565b600260008873ffffffffffffffffffffffffffffffffffffffff1673ffffffffffffffffffffffffffffffffffffffff1681526020019081526020016000208190555061328a836003600084815260200190815260200160002054613c4990919063ffffffff16565b60036000838152602001908152602001600020819055508173ffffffffffffffffffffffffffffffffffffffff168573ffffffffffffffffffffffffffffffffffffffff168773ffffffffffffffffffffffffffffffffffffffff167fa5543d8e139d9ab4342d5c4f6ec1bff5a97f9a52d71f7ffe9845b94f1449fc918787604051808381526020018281526020019250505060405180910390a4505050505050565b60008060009054906101000a900473ffffffffffffffffffffffffffffffffffffffff16905061335e838333612b83565b8273ffffffffffffffffffffffffffffffffffffffff167fee1e07016afd2b0494337cfa45092b70aaeadd1c5ec9c3a3d1a763761a1df49a836040518082815260200191505060405180910390a2505050565b6000600560006133c084612f95565b73ffffffffffffffffffffffffffffffffffffffff1673ffffffffffffffffffffffffffffffffffffffff16815260200190815260200160002060008473ffffffffffffffffffffffffffffffffffffffff1673ffffffffffffffffffffffffffffffffffffffff16815260200190815260200160002060009054906101000a900460ff16905092915050565b80613457816123be565b6134c9576040517f08c379a000000000000000000000000000000000000000000000000000000000815260040180806020018281038252601c8152602001807f4f70657261746f7220636f6e747261637420756e617070726f7665640000000081525060200191505060405180910390fd5b3373ffffffffffffffffffffffffffffffffffffffff166134e9846137a0565b73ffffffffffffffffffffffffffffffffffffffff1614613572576040517f08c379a00000000000000000000000000000000000000000000000000000000081526004018080602001828103825260178152602001807f4e6f74206f70657261746f7220617574686f72697a657200000000000000000081525060200191505060405180910390fd5b8173ffffffffffffffffffffffffffffffffffffffff1661359283612f95565b73ffffffffffffffffffffffffffffffffffffffff161461361b576040517f08c379a00000000000000000000000000000000000000000000000000000000081526004018080602001828103825260188152602001807f44656c65676174656420617574686f726974792075736564000000000000000081525060200191505060405180910390fd5b6001600560008473ffffffffffffffffffffffffffffffffffffffff1673ffffffffffffffffffffffffffffffffffffffff16815260200190815260200160002060008573ffffffffffffffffffffffffffffffffffffffff1673ffffffffffffffffffffffffffffffffffffffff16815260200190815260200160002060006101000a81548160ff021916908315150217905550505050565b80600860008473ffffffffffffffffffffffffffffffffffffffff1673ffffffffffffffffffffffffffffffffffffffff16815260200190815260200160002060020160006101000a81548173ffffffffffffffffffffffffffffffffffffffff021916908373ffffffffffffffffffffffffffffffffffffffff1602179055505050565b6000806000600860008573ffffffffffffffffffffffffffffffffffffffff1673ffffffffffffffffffffffffffffffffffffffff16815260200190815260200160002060000154905061378d81613e02565b61379682613e19565b9250925050915091565b6000600860008373ffffffffffffffffffffffffffffffffffffffff1673ffffffffffffffffffffffffffffffffffffffff16815260200190815260200160002060030160009054906101000a900473ffffffffffffffffffffffffffffffffffffffff169050919050565b600061386d61a8c061385f600860008673ffffffffffffffffffffffffffffffffffffffff1673ffffffffffffffffffffffffffffffffffffffff16815260200190815260200160002060000154613e02565b613c4990919063ffffffff16565b42119050919050565b81600260008373ffffffffffffffffffffffffffffffffffffffff1673ffffffffffffffffffffffffffffffffffffffff16815260200190815260200160002054101561392b576040517f08c379a000000000000000000000000000000000000000000000000000000000815260040180806020018281038252601b8152602001807f496e73756666696369656e7420756e626f6e6465642076616c7565000000000081525060200191505060405180910390fd5b61397d82600260008473ffffffffffffffffffffffffffffffffffffffff1673ffffffffffffffffffffffffffffffffffffffff16815260200190815260200160002054613b9890919063ffffffff16565b600260008373ffffffffffffffffffffffffffffffffffffffff1673ffffffffffffffffffffffffffffffffffffffff1681526020019081526020016000208190555060006139cb826129d5565b905060008060009054906101000a900473ffffffffffffffffffffffffffffffffffffffff16905060008173ffffffffffffffffffffffffffffffffffffffff1663a9059cbb84876040518363ffffffff1660e01b8152600401808373ffffffffffffffffffffffffffffffffffffffff1673ffffffffffffffffffffffffffffffffffffffff16815260200182815260200192505050602060405180830381600087803b158015613a7c57600080fd5b505af1158015613a90573d6000803e3d6000fd5b505050506040513d6020811015613aa657600080fd5b8101908080519060200190929190505050905080613b2c576040517f08c379a000000000000000000000000000000000000000000000000000000000815260040180806020018281038252600f8152602001807f5472616e73666572206661696c6564000000000000000000000000000000000081525060200191505060405180910390fd5b8273ffffffffffffffffffffffffffffffffffffffff168473ffffffffffffffffffffffffffffffffffffffff167f5ebf1d16423ab39117c0ca9327215b5bcd423aaf7042044c87248a4423d252d9876040518082815260200191505060405180910390a35050505050565b600082821115613c10576040517f08c379a000000000000000000000000000000000000000000000000000000000815260040180806020018281038252601e8152602001807f536166654d6174683a207375627472616374696f6e206f766572666c6f77000081525060200191505060405180910390fd5b600082840390508091505092915050565b6000613c40600954613c3284613e02565b613c4990919063ffffffff16565b42119050919050565b600080828401905083811015613cc7576040517f08c379a000000000000000000000000000000000000000000000000000000000815260040180806020018281038252601b8152602001807f536166654d6174683a206164646974696f6e206f766572666c6f77000000000081525060200191505060405180910390fd5b8091505092915050565b60006001608060020a03841115613d50576040517f08c379a00000000000000000000000000000000000000000000000000000000081526004018080602001828103825260108152602001807f75696e74313238206f766572666c6f770000000000000000000000000000000081525060200191505060405180910390fd5b6001604060020a038284171115613dcf576040517f08c379a000000000000000000000000000000000000000000000000000000000815260040180806020018281038252600f8152602001807f75696e743634206f766572666c6f77000000000000000000000000000000000081525060200191505060405180910390fd5b81604084901b604060020286901b171790509392505050565b60006001608060020a03604060020283901c169050919050565b60006001604060020a03604083901c169050919050565b60006001604060020a038216905091905056fe46756c6c794261636b6564426f6e64696e673a204f70657261746f7220616c726561647920696e207573655265666572656e6365204944206e6f7420756e6971756520666f7220686f6c64657220616e64206f70657261746f7246756c6c794261636b6564426f6e64696e673a20496e73756666696369656e742064656c65676174696f6e2076616c756542656e6566696369617279206e6f7420646566696e656420666f7220746865206f70657261746f7244656c65676174696f6e206c6f636b20706572696f6420686173206e6f74207061737365642079657452657175657374656420616d6f756e742069732067726561746572207468616e2074686520626f6e6452657175657374656420616d6f756e742073686f756c642062652067726561746572207468616e207a65726f4f6e6c79206f70657261746f72206f7220746865206f776e657220697320616c6c6f77656420746f20776974686472617720626f6e64a265627a7a723158206bb6482bb45389deda9eb7789fce68426cf8749501260f35fc3bb932d067d00e64736f6c63430005110032",
  "source": "pragma solidity 0.5.17;\n\nimport \"../fully-backed/FullyBackedBonding.sol\";\n\nimport \"openzeppelin-solidity/contracts/math/SafeMath.sol\";\n\n/// @title Fully Backed Bonding Stub\n/// @dev This contract is for testing purposes only.\ncontract FullyBackedBondingStub is FullyBackedBonding {\n    // using SafeMath for uint256;\n    // // address public delegatedAuthority;\n    // bool slashingShouldFail;\n    constructor(\n        KeepRegistry _keepRegistry,\n        uint256 _initializationPeriod,\n        address _bondTokenAddress\n    )\n        public\n        FullyBackedBonding(\n            _keepRegistry,\n            _initializationPeriod,\n            _bondTokenAddress\n        )\n    {}\n\n    function setBeneficiary(address _operator, address payable _beneficiary)\n        public\n    {\n        operators[_operator].beneficiary = _beneficiary;\n    }\n}\n",
  "sourcePath": "/home/kowal/Projects/sovryn/keep-ecdsa/solidity/contracts/test/FullyBackedBondingStub.sol",
  "compiler": {
    "name": "solc",
    "version": "0.5.17+commit.d19bba13.Emscripten.clang"
  },
  "schemaVersion": "3.0.22",
  "updatedAt": "2021-01-29T17:36:47.970Z",
  "devdoc": {
    "details": "This contract is for testing purposes only.",
    "methods": {
      "authorizeOperatorContract(address,address)": {
        "params": {
          "_operator": "address of stake operator.",
          "_operatorContract": "address of operator contract."
        }
      },
      "authorizeSortitionPoolContract(address,address)": {
        "details": "Only operator's authorizer can call this function."
      },
      "authorizerOf(address)": {
        "return": "Authorizer address."
      },
      "availableUnbondedValue(address,address,address)": {
        "details": "Implements function expected by sortition pools' IBonding interface.",
        "params": {
          "authorizedSortitionPool": "Address of authorized sortition pool.",
          "bondCreator": "Address authorized to create a bond.",
          "operator": "Address of the operator."
        },
        "return": "Amount of authorized wei deposit available for bonding."
      },
      "balanceOf(address)": {
        "params": {
          "_address": "The address to query the balance of."
        },
        "return": "An uint256 representing the amount staked by the passed address."
      },
      "beneficiaryOf(address)": {
        "return": "Beneficiary address."
      },
      "bondAmount(address,address,uint256)": {
        "params": {
          "holder": "Address of the holder of the bond.",
          "operator": "Address of the operator.",
          "referenceID": "Reference ID of the bond."
        },
        "return": "Amount of wei in the selected bond."
      },
      "claimDelegatedAuthority(address)": {
        "details": "If `delegatedAuthoritySource` is an approved operator contract and recognizes the claimant, this relationship will be recorded in `delegatedAuthority`. Later, the claimant can slash, seize, place locks etc. on operators that have authorized the `delegatedAuthoritySource`. If the `delegatedAuthoritySource` is disabled with the panic button, any recipients of delegated authority from it will also be disabled."
      },
      "createBond(address,address,uint256,uint256,address)": {
        "details": "Function can be executed only by authorized contract. Reference ID should be unique for holder and operator.",
        "params": {
          "amount": "Value to bond in wei.",
          "authorizedSortitionPool": "Address of authorized sortition pool.",
          "holder": "Address of the holder of the bond.",
          "operator": "Address of the operator to bond.",
          "referenceID": "Reference ID used to track the bond by holder."
        }
      },
      "deauthorizeSortitionPoolContract(address,address)": {
        "details": "Only operator's authorizer can call this function."
      },
      "delegate(address,address,address,uint256)": {
        "params": {
          "authorizer": "Address of the authorizer.",
          "beneficiary": "Address of the beneficiary.",
          "operator": "Address of the operator."
        }
      },
      "deposit(address,uint256)": {
        "params": {
          "operator": "Address of the operator."
        }
      },
      "freeBond(address,uint256)": {
        "details": "Function requires that caller is the holder of the bond which is being released.",
        "params": {
          "operator": "Address of the bonded operator.",
          "referenceID": "Reference ID of the bond."
        }
      },
      "getDelegationInfo(address)": {
        "params": {
          "operator": "Address of the operator."
        },
        "return": "createdAt The time when the delegation was created.undelegatedAt The time when undelegation has been requested. If undelegation has not been requested, 0 is returned."
      },
      "hasSecondaryAuthorization(address,address)": {
        "details": "See authorizeSortitionPoolContract."
      },
      "isApprovedOperatorContract(address)": {
        "params": {
          "_operatorContract": "address of operator contract."
        },
        "return": "True if operator contract is approved, false if operator contract has not been approved or if it was disabled by the panic button."
      },
      "isAuthorizedForOperator(address,address)": {
        "params": {
          "_operator": "address of stake operator.",
          "_operatorContract": "address of operator contract."
        }
      },
      "isInitialized(address,address)": {
        "params": {
          "bondCreator": "The bond creator contract address.",
          "operator": "The operator address."
        },
        "return": "True if operator has passed initialization period for given bond creator contract, false otherwise."
      },
      "ownerOf(address)": {
        "return": "Stake owner address."
      },
      "reassignBond(address,uint256,address,uint256)": {
        "details": "Function requires that a caller is the current holder of the bond which is being reassigned.",
        "params": {
          "newHolder": "Address of the new holder of the bond.",
          "newReferenceID": "New reference ID to register the bond.",
          "operator": "Address of the bonded operator.",
          "referenceID": "Reference ID of the bond."
        }
      },
      "seizeBond(address,uint256,uint256,address)": {
        "details": "Function requires that a caller is the holder of the bond which is being seized.",
        "params": {
          "amount": "Amount to be seized.",
          "destination": "Address to send the amount to.",
          "operator": "Address of the bonded operator.",
          "referenceID": "Reference ID of the bond."
        }
      },
      "topUp(address,uint256)": {
        "details": "This function should be used to add new unbonded value to the system for an operator. The `deposit` function defined in parent abstract contract should be called only by applications returning value that has been already initially deposited and seized later. As an application may seize bonds and return them to the bonding contract with `deposit` function it makes tracking the totally deposited value much more complicated. Functions `delegate` and `topUps` should be used to add fresh value to the contract and events emitted by these functions should be enough to determine total value deposited ever for an operator.",
        "params": {
          "operator": "Address of the operator."
        }
      },
      "withdraw(uint256,address)": {
        "params": {
          "amount": "Value to withdraw in wei.",
          "operator": "Address of the operator."
        }
      }
    },
    "title": "Fully Backed Bonding Stub"
  },
  "userdoc": {
    "methods": {
      "authorizeOperatorContract(address,address)": {
        "notice": "Authorizes operator contract to access staked token balance of the provided operator. Can only be executed by stake operator authorizer. Contracts using delegated authority cannot be authorized with `authorizeOperatorContract`. Instead, authorize `getAuthoritySource(_operatorContract)`."
      },
      "authorizeSortitionPoolContract(address,address)": {
        "notice": "Authorizes sortition pool for the provided operator. Operator's authorizers need to authorize individual sortition pools per application since they may be interested in participating only in a subset of keep types used by the given application."
      },
      "authorizerOf(address)": {
        "notice": "Gets the authorizer for the specified operator address."
      },
      "availableUnbondedValue(address,address,address)": {
        "notice": "Returns the amount of wei the operator has made available for bonding and that is still unbounded. If the operator doesn't exist or bond creator is not authorized as an operator contract or it is not authorized by the operator or there is no secondary authorization for the provided sortition pool, function returns 0."
      },
      "balanceOf(address)": {
        "notice": "Gets the stake balance of the specified address."
      },
      "beneficiaryOf(address)": {
        "notice": "Gets the beneficiary for the specified operator address."
      },
      "bondAmount(address,address,uint256)": {
        "notice": "Returns value of wei bonded for the operator."
      },
      "claimDelegatedAuthority(address)": {
        "notice": "Grant the sender the same authority as `delegatedAuthoritySource`"
      },
      "createBond(address,address,uint256,uint256,address)": {
        "notice": "Create bond for the given operator, holder, reference and amount."
      },
      "deauthorizeSortitionPoolContract(address,address)": {
        "notice": "Deauthorizes sortition pool for the provided operator. Authorizer may deauthorize individual sortition pool in case the operator should no longer be eligible for work selection and the application represented by the sortition pool should no longer be eligible to create bonds for the operator."
      },
      "delegate(address,address,address,uint256)": {
        "notice": "Registers delegation details. The function is used to register addresses of operator, beneficiary and authorizer for a delegation from the caller. The function requires ETH to be submitted in the call as a protection against attacks blocking operators. The value should be at least equal to the minimum delegation deposit. Whole amount is deposited as operator's unbonded value for the future bonding."
      },
      "deposit(address,uint256)": {
        "notice": "Add the provided value to operator's pool available for bonding."
      },
      "freeBond(address,uint256)": {
        "notice": "Releases the bond and moves the bond value to the operator's unbounded value pool."
      },
      "getAuthoritySource(address)": {
        "notice": "Get the source of the operator contract's authority. If the contract uses delegated authority, returns the original source of the delegated authority. If the contract doesn't use delegated authority, returns the contract itself. Authorize `getAuthoritySource(operatorContract)` to grant `operatorContract` the authority to penalize an operator."
      },
      "getDelegationInfo(address)": {
        "notice": "Gets delegation info for the given operator."
      },
      "hasSecondaryAuthorization(address,address)": {
        "notice": "Checks if the sortition pool has been authorized for the provided operator by its authorizer."
      },
      "isApprovedOperatorContract(address)": {
        "notice": "Checks if the operator contract is authorized in the registry. If the contract uses delegated authority it checks authorization of the source contract."
      },
      "isAuthorizedForOperator(address,address)": {
        "notice": "Checks if operator contract has access to the staked token balance of the provided operator."
      },
      "isInitialized(address,address)": {
        "notice": "Checks if the operator for the given bond creator contract has passed the initialization period."
      },
      "ownerOf(address)": {
        "notice": "Gets the stake owner for the specified operator address."
      },
      "reassignBond(address,uint256,address,uint256)": {
        "notice": "Reassigns a bond to a new holder under a new reference."
      },
      "seizeBond(address,uint256,uint256,address)": {
        "notice": "Seizes the bond by moving some or all of the locked bond to the provided destination address."
      },
      "topUp(address,uint256)": {
        "notice": "Top-ups operator's unbonded value."
      },
      "withdraw(uint256,address)": {
        "notice": "Withdraws amount from operator's value available for bonding. This function can be called only by: - operator, - owner of the stake. Withdraw cannot be performed immediately after delegation to protect from a griefing. It is required that delegator waits specific period of time before they can pull out the funds deposited on delegation."
      }
    }
  }
}