{
  "contractName": "FullyBackedSortitionPoolFactory",
  "abi": [
    {
      "constant": false,
      "inputs": [
        {
          "internalType": "contract IFullyBackedBonding",
          "name": "bondingContract",
          "type": "address"
        },
        {
          "internalType": "uint256",
          "name": "minimumBondableValue",
          "type": "uint256"
        },
        {
          "internalType": "uint256",
          "name": "bondWeightDivisor",
          "type": "uint256"
        }
      ],
      "name": "createSortitionPool",
      "outputs": [
        {
          "internalType": "address",
          "name": "",
          "type": "address"
        }
      ],
      "payable": false,
      "stateMutability": "nonpayable",
      "type": "function"
    }
  ],
  "bytecode": "0x608060405234801561001057600080fd5b50612f73806100206000396000f3fe608060405234801561001057600080fd5b506004361061002b5760003560e01c80634e582d6b14610030575b600080fd5b6100866004803603606081101561004657600080fd5b81019080803573ffffffffffffffffffffffffffffffffffffffff16906020019092919080359060200190929190803590602001909291905050506100c8565b604051808273ffffffffffffffffffffffffffffffffffffffff1673ffffffffffffffffffffffffffffffffffffffff16815260200191505060405180910390f35b6000838383336040516100da90610177565b808573ffffffffffffffffffffffffffffffffffffffff1673ffffffffffffffffffffffffffffffffffffffff1681526020018481526020018381526020018273ffffffffffffffffffffffffffffffffffffffff1673ffffffffffffffffffffffffffffffffffffffff168152602001945050505050604051809103906000f08015801561016d573d6000803e3d6000fd5b5090509392505050565b612dba806101858339019056fe608060405234801561001057600080fd5b50604051612dba380380612dba8339818101604052608081101561003357600080fd5b8101908080519060200190929190805190602001909291908051906020019092919080519060200190929190505050600080819055506000600481905550600082116100e7576040517f08c379a000000000000000000000000000000000000000000000000000000000815260040180806020018281038252601e8152602001807f5765696768742064697669736f72206d757374206265206e6f6e7a65726f000081525060200191505060405180910390fd5b6040518060a001604052808573ffffffffffffffffffffffffffffffffffffffff168152602001848152602001600081526020018381526020018273ffffffffffffffffffffffffffffffffffffffff16815250600760008201518160000160006101000a81548173ffffffffffffffffffffffffffffffffffffffff021916908373ffffffffffffffffffffffffffffffffffffffff16021790555060208201518160010155604082015181600201556060820151816003015560808201518160040160006101000a81548173ffffffffffffffffffffffffffffffffffffffff021916908373ffffffffffffffffffffffffffffffffffffffff16021790555090505050505050612bbb806101ff6000396000f3fe608060405234801561001057600080fd5b50600436106101005760003560e01c806397c3ccd811610097578063ce6fe19811610066578063ce6fe1981461049a578063e686440f146104b8578063e7bfd89914610514578063f7186ce01461053257610100565b806397c3ccd814610307578063a56931e81461034b578063a59489bc146103e2578063b47668561461043e57610100565b80635757ed5b116100d35780635757ed5b146101d95780636b1906f814610231578063811918c41461028d57806396c82e57146102e957610100565b80631ae0e73d146101055780631c5b07621461014957806334ce30f01461018d57806347a15f5a146101bb575b600080fd5b6101476004803603602081101561011b57600080fd5b81019080803573ffffffffffffffffffffffffffffffffffffffff16906020019092919050505061058e565b005b61018b6004803603602081101561015f57600080fd5b81019080803573ffffffffffffffffffffffffffffffffffffffff169060200190929190505050610628565b005b6101b9600480360360208110156101a357600080fd5b81019080803590602001909291905050506106e8565b005b6101c361079e565b6040518082815260200191505060405180910390f35b61021b600480360360208110156101ef57600080fd5b81019080803573ffffffffffffffffffffffffffffffffffffffff1690602001909291905050506107ab565b6040518082815260200191505060405180910390f35b6102736004803603602081101561024757600080fd5b81019080803573ffffffffffffffffffffffffffffffffffffffff169060200190929190505050610805565b604051808215151515815260200191505060405180910390f35b6102cf600480360360208110156102a357600080fd5b81019080803573ffffffffffffffffffffffffffffffffffffffff16906020019092919050505061081a565b604051808215151515815260200191505060405180910390f35b6102f16108dc565b6040518082815260200191505060405180910390f35b6103496004803603602081101561031d57600080fd5b81019080803573ffffffffffffffffffffffffffffffffffffffff1690602001909291905050506108ee565b005b61038b6004803603606081101561036157600080fd5b81019080803590602001909291908035906020019092919080359060200190929190505050610a27565b6040518080602001828103825283818151815260200191508051906020019060200280838360005b838110156103ce5780820151818401526020810190506103b3565b505050509050019250505060405180910390f35b610424600480360360208110156103f857600080fd5b81019080803573ffffffffffffffffffffffffffffffffffffffff169060200190929190505050610b1f565b604051808215151515815260200191505060405180910390f35b6104806004803603602081101561045457600080fd5b81019080803573ffffffffffffffffffffffffffffffffffffffff169060200190929190505050610b3f565b604051808215151515815260200191505060405180910390f35b6104a2610b53565b6040518082815260200191505060405180910390f35b6104fa600480360360208110156104ce57600080fd5b81019080803573ffffffffffffffffffffffffffffffffffffffff169060200190929190505050610b5c565b604051808215151515815260200191505060405180910390f35b61051c610b78565b6040518082815260200191505060405180910390f35b6105746004803603602081101561054857600080fd5b81019080803573ffffffffffffffffffffffffffffffffffffffff169060200190929190505050610b98565b604051808215151515815260200191505060405180910390f35b600061059982610bad565b905060008111610611576040517f08c379a00000000000000000000000000000000000000000000000000000000081526004018080602001828103825260158152602001807f4f70657261746f72206e6f7420656c696769626c65000000000000000000000081525060200191505060405180910390fd5b61061a82610ed5565b6106248282610ee3565b5050565b600061063382610bad565b90506000610640836107ab565b9050808214156106b8576040517f08c379a000000000000000000000000000000000000000000000000000000000815260040180806020018281038252601b8152602001807f4f70657261746f7220616c726561647920757020746f2064617465000000000081525060200191505060405180910390fd5b60008214156106d8576106ca83610fc2565b6106d383611056565b6106e3565b6106e28383611064565b5b505050565b600760040160009054906101000a900473ffffffffffffffffffffffffffffffffffffffff1673ffffffffffffffffffffffffffffffffffffffff163373ffffffffffffffffffffffffffffffffffffffff1614610791576040517f08c379a0000000000000000000000000000000000000000000000000000000008152600401808060200182810382526028815260200180612b0f6028913960400191505060405180910390fd5b8060076001018190555050565b6000600760010154905090565b6000806107b7836110ec565b905060008114156107cc576000915050610800565b60006107d782611135565b905060006107f76002600084815260200190815260200160002054611162565b90508093505050505b919050565b600080610811836110ec565b14159050919050565b600061082582610b98565b610897576040517f08c379a000000000000000000000000000000000000000000000000000000000815260040180806020018281038252601b8152602001807f4f70657261746f72206973206e6f7420696e2074686520706f6f6c000000000081525060200191505060405180910390fd5b60006108a2836110ec565b905060006108af82611135565b90506000600260008381526020019081526020016000205490506108d281611183565b9350505050919050565b60006108e96000546111a5565b905090565b600760040160009054906101000a900473ffffffffffffffffffffffffffffffffffffffff1673ffffffffffffffffffffffffffffffffffffffff163373ffffffffffffffffffffffffffffffffffffffff16146109b4576040517f08c379a00000000000000000000000000000000000000000000000000000000081526004018080602001828103825260178152602001807f43616c6c6572206973206e6f7420746865206f776e657200000000000000000081525060200191505060405180910390fd5b6001600c60008373ffffffffffffffffffffffffffffffffffffffff1673ffffffffffffffffffffffffffffffffffffffff16815260200190815260200160002060006101000a81548160ff021916908315150217905550610a1581610805565b15610a2457610a2381610fc2565b5b50565b6060600760040160009054906101000a900473ffffffffffffffffffffffffffffffffffffffff1673ffffffffffffffffffffffffffffffffffffffff163373ffffffffffffffffffffffffffffffffffffffff1614610aef576040517f08c379a00000000000000000000000000000000000000000000000000000000081526004018080602001828103825260178152602001807f43616c6c6572206973206e6f7420746865206f776e657200000000000000000081525060200191505060405180910390fd5b610af76129b0565b610b0083611221565b90506000819050610b148686836001611320565b925050509392505050565b600c6020528060005260406000206000915054906101000a900460ff1681565b600080610b4b83610bad565b119050919050565b6000600a905090565b6000610b67826107ab565b610b7083610bad565b149050919050565b60008060045490506000610b8c600561164a565b90508082039250505090565b600080610ba4836110ec565b14159050919050565b6000600c60008373ffffffffffffffffffffffffffffffffffffffff1673ffffffffffffffffffffffffffffffffffffffff16815260200190815260200160002060009054906101000a900460ff1615610c0a5760009050610ed0565b6000600760040160009054906101000a900473ffffffffffffffffffffffffffffffffffffffff1690506000600760000160009054906101000a900473ffffffffffffffffffffffffffffffffffffffff1673ffffffffffffffffffffffffffffffffffffffff166342bcb9658584306040518463ffffffff1660e01b8152600401808473ffffffffffffffffffffffffffffffffffffffff1673ffffffffffffffffffffffffffffffffffffffff1681526020018373ffffffffffffffffffffffffffffffffffffffff1673ffffffffffffffffffffffffffffffffffffffff1681526020018273ffffffffffffffffffffffffffffffffffffffff1673ffffffffffffffffffffffffffffffffffffffff168152602001935050505060206040518083038186803b158015610d4057600080fd5b505afa158015610d54573d6000803e3d6000fd5b505050506040513d6020811015610d6a57600080fd5b81019080805190602001909291905050509050600760010154811015610d9557600092505050610ed0565b6000600760000160009054906101000a900473ffffffffffffffffffffffffffffffffffffffff1673ffffffffffffffffffffffffffffffffffffffff166330315f6286856040518363ffffffff1660e01b8152600401808373ffffffffffffffffffffffffffffffffffffffff1673ffffffffffffffffffffffffffffffffffffffff1681526020018273ffffffffffffffffffffffffffffffffffffffff1673ffffffffffffffffffffffffffffffffffffffff1681526020019250505060206040518083038186803b158015610e6d57600080fd5b505afa158015610e81573d6000803e3d6000fd5b505050506040513d6020811015610e9757600080fd5b8101908080519060200190929190505050905080610ebb5760009350505050610ed0565b6007600301548281610ec957fe5b0493505050505b919050565b610ee0816001611658565b50565b610eec82610805565b15610f42576040517f08c379a000000000000000000000000000000000000000000000000000000000815260040180806020018281038252602a815260200180612b5d602a913960400191505060405180910390fd5b6000610f4c6116d4565b90506000610f5b844385611799565b9050610f6a8282600054611812565b600081905550610f7982611916565b600360008673ffffffffffffffffffffffffffffffffffffffff1673ffffffffffffffffffffffffffffffffffffffff1681526020019081526020016000208190555050505050565b6000610fcd826110ec565b90506000811415611029576040517f08c379a0000000000000000000000000000000000000000000000000000000008152600401808060200182810382526026815260200180612b376026913960400191505060405180910390fd5b600061103482611135565b905061104281600054611942565b600081905550611051836119f5565b505050565b611061816000611658565b50565b61106d82610805565b6110c2576040517f08c379a0000000000000000000000000000000000000000000000000000000008152600401808060200182810382526026815260200180612b376026913960400191505060405180910390fd5b60006110cd836110ec565b905060006110da82611135565b90506110e68184611a3d565b50505050565b6000600360008373ffffffffffffffffffffffffffffffffffffffff1673ffffffffffffffffffffffffffffffffffffffff168152602001908152602001600020549050919050565b60007f80000000000000000000000000000000000000000000000000000000000000001982169050919050565b60006001600360020a6101008161117557fe5b0460020a0382169050919050565b60008061118f83611a95565b9050611199610b53565b81014311915050919050565b60006001600360020a610100816111b857fe5b0460020a03821690506000600360020a610100816111d257fe5b0483901c90505b6000811115611218576001600360020a610100816111f357fe5b0460020a03811682019150600360020a6101008161120d57fe5b0481901c90506111d9565b81915050919050565b6112296129b0565b60076040518060a00160405290816000820160009054906101000a900473ffffffffffffffffffffffffffffffffffffffff1673ffffffffffffffffffffffffffffffffffffffff1673ffffffffffffffffffffffffffffffffffffffff1681526020016001820154815260200160028201548152602001600382015481526020016004820160009054906101000a900473ffffffffffffffffffffffffffffffffffffffff1673ffffffffffffffffffffffffffffffffffffffff1673ffffffffffffffffffffffffffffffffffffffff168152505090508181604001511461131857818160400181815250505b809050919050565b60606000805490506000809050611335612a0b565b61133e88611acb565b9050611348612a25565b61135b88611355866111a5565b8b611afd565b90505b8882602001515110156116295761137481611b54565b600080611385836000015187611ccf565b9150915060006002600084815260200190815260200160002054905060006113ac82611e14565b905060006113b983611162565b90506113c3612a64565b6113ce84898f611e24565b9050600060048111156113dd57fe5b816000015160048111156113ed57fe5b14156114475761140683896120c790919063ffffffff16565b8b15611422576114218583896121a39092919063ffffffff16565b5b61143c8e896020015151896121cf9092919063ffffffff16565b50505050505061135e565b6001600481111561145457fe5b8160000151600481111561146457fe5b141561148a5761147f8583896121a39092919063ffffffff16565b50505050505061135e565b6002600481111561149757fe5b816000015160048111156114a757fe5b14156114f2576114c5858360008a61226b909392919063ffffffff16565b6114cf868b611942565b9950600198506114de836119f5565b6114e783611056565b50505050505061135e565b600360048111156114ff57fe5b8160000151600481111561150f57fe5b141561156257611536866115308360200151876122b090919063ffffffff16565b8c611812565b995060019850611557858383602001518a61226b909392919063ffffffff16565b50505050505061135e565b60048081111561156e57fe5b8160000151600481111561157e57fe5b141561161e576115a58661159f8360200151876122b090919063ffffffff16565b8c611812565b9950600198506115be83896120c790919063ffffffff16565b6115d9858383602001518a61226b909392919063ffffffff16565b8b156115f9576115f8858260200151896121a39092919063ffffffff16565b5b6116138e896020015151896121cf9092919063ffffffff16565b50505050505061135e565b50505050505061135e565b821561163757836000819055505b8160200151945050505050949350505050565b600081805490509050919050565b60008090505b6116666122ec565b8110156116cf5781600660008573ffffffffffffffffffffffffffffffffffffffff1673ffffffffffffffffffffffffffffffffffffffff168152602001908152602001600020600083815260200190815260200160002081905550808060010191505061165e565b505050565b600080600454905060006007600360020a0a60018301109050801561170757600182016004819055508192505050611796565b60006117116122f5565b905080611786576040517f08c379a000000000000000000000000000000000000000000000000000000000815260040180806020018281038252600c8152602001807f506f6f6c2069732066756c6c000000000000000000000000000000000000000081525060200191505060405180910390fd5b6117906005612308565b93505050505b90565b6000808460601b6bffffffffffffffffffffffff191660001c905060006001600360020a610100816117c757fe5b0460020a03841690506000600360020a610100816117e157fe5b046001600360020a610100816117f357fe5b0460600360020a038716901b9050818184171793505050509392505050565b600080600080600061182387611162565b905086600260008a81526020019081526020016000208190555060008890506000600790505b600281106118e75761185a826123c6565b9550611865826123d9565b91506001600082815260200190815260200160002060008381526020019081526020016000205494506118a38684876123e79092919063ffffffff16565b935083600160008381526020019081526020016000206000848152602001908152602001600020819055506118d7846111a5565b9250808060019003915050611849565b506118f1816123c6565b94506119088583896123e79092919063ffffffff16565b955050505050509392505050565b60007f800000000000000000000000000000000000000000000000000000000000000082179050919050565b600080600160045403905060008185149050600061196286600087611812565b9050811561197657826004819055506119e9565b600573__StackLib______________________________63d2c5b1239091886040518363ffffffff1660e01b8152600401808381526020018281526020019250505060006040518083038186803b1580156119d057600080fd5b505af41580156119e4573d6000803e3d6000fd5b505050505b80935050505092915050565b6000600360008373ffffffffffffffffffffffffffffffffffffffff1673ffffffffffffffffffffffffffffffffffffffff1681526020019081526020016000208190555050565b60006002600084815260200190815260200160002054905081611a5f82611162565b14611a90576000611a7983836122b090919063ffffffff16565b9050611a888482600054611812565b600081905550505b505050565b60006001600360020a61010081611aa857fe5b0460600360020a03600360020a61010081611abf57fe5b0483901c169050919050565b611ad3612a0b565b6060611ade8361244c565b9050604051806040016040528084815260200182815250915050919050565b611b05612a25565b6040518060c001604052806000815260200160008152602001858152602001848152602001848152602001611b3984612471565b8152509050611b4a818560006121cf565b8090509392505050565b60008160800151905060008111611bd3576040517f08c379a000000000000000000000000000000000000000000000000000000000815260040180806020018281038252601c8152602001807f4e6f7420656e6f756768206f70657261746f727320696e20706f6f6c0000000081525060200191505060405180910390fd5b6000611bde826124a3565b90506000611bf382856040015160001c6124e1565b90505b828110611ca857836040015130604051602001808381526020018273ffffffffffffffffffffffffffffffffffffffff1673ffffffffffffffffffffffffffffffffffffffff1660601b8152601401807f67656e65726174650000000000000000000000000000000000000000000000008152506008019250505060405160208183030381529060405280519060200120846040018181525050611ca182856040015160001c6124e1565b9050611bf6565b80846020018181525050611cc0818560a001516124f5565b84600001818152505050505050565b6000806000849050600084905060008090506000611cec836111a5565b8810611d60576040517f08c379a00000000000000000000000000000000000000000000000000000000081526004018080602001828103825260148152602001807f496e64657820657863656564732077656967687400000000000000000000000081525060200191505060405180910390fd5b611d73848461256890919063ffffffff16565b80955081925050506000600290505b60078111611dee57611d9d82846125e790919063ffffffff16565b9250600160008281526020019081526020016000206000848152602001908152602001600020549350611dd9858561256890919063ffffffff16565b80965081935050508080600101915050611d82565b50611e0281836125e790919063ffffffff16565b95508388039450505050509250929050565b60008160001b60601c9050919050565b611e2c612a64565b611e346129b0565b8290506000611e4286611e14565b90506000611e4f87611162565b9050611e5a87611183565b611e8a57604051806040016040528060016004811115611e7657fe5b8152602001600081525093505050506120c0565b6000836080015190506000846000015173ffffffffffffffffffffffffffffffffffffffff166342bcb9658584306040518463ffffffff1660e01b8152600401808473ffffffffffffffffffffffffffffffffffffffff1673ffffffffffffffffffffffffffffffffffffffff1681526020018373ffffffffffffffffffffffffffffffffffffffff1673ffffffffffffffffffffffffffffffffffffffff1681526020018273ffffffffffffffffffffffffffffffffffffffff1673ffffffffffffffffffffffffffffffffffffffff168152602001935050505060206040518083038186803b158015611f7e57600080fd5b505afa158015611f92573d6000803e3d6000fd5b505050506040513d6020811015611fa857600080fd5b810190808051906020019092919050505090508460200151811015611ff557604051806040016040528060026004811115611fdf57fe5b81526020016000815250955050505050506120c0565b846040015181101561202f5760405180604001604052806001600481111561201957fe5b81526020016000815250955050505050506120c0565b600085602001518203905060008660600151838161204957fe5b049050848110156120835760405180604001604052806003600481111561206c57fe5b8152602001828152509750505050505050506120c0565b60008760600151838161209257fe5b04905060405180604001604052806004808111156120ac57fe5b815260200182815250985050505050505050505b9392505050565b6000826020015151905060008360000151905080821061218f57808214612156576040517f08c379a000000000000000000000000000000000000000000000000000000000815260040180806020018281038252601f8152602001807f4172726179206c656e677468206578636565647320616c6c6f636174696f6e0081525060200191505060405180910390fd5b600060028302905060606121698261244c565b9050612179818760200151612601565b8086602001819052508186600001818152505050505b61219d84602001518461263c565b50505050565b808360800181815103915081815250506121ca8360a001516121c58484612657565b6126af565b505050565b818130604051602001808481526020018381526020018273ffffffffffffffffffffffffffffffffffffffff1673ffffffffffffffffffffffffffffffffffffffff1660601b8152601401807f7265736565640000000000000000000000000000000000000000000000000000815250600601935050505060405160208183030381529060405280519060200120836040018181525050505050565b600082820390506000828501905081866080015101866080018181525050818660600151018660600181815250506122a881838860a00151612733565b505050505050565b60006001600360020a610100816122c357fe5b0460020a0382166001600360020a610100816122db57fe5b0460020a0319841617905092915050565b60006001905090565b600080612302600561164a565b11905090565b600080828054905011612383576040517f08c379a000000000000000000000000000000000000000000000000000000000815260040180806020018281038252601f8152602001807f4e6f2076616c756520746f20706f702c20617272617920697320656d7074790081525060200191505060405180910390fd5b60008260018480549050038154811061239857fe5b90600052602060002001549050600183818180549050039150816123bc9190612a89565b5080915050919050565b60006001600360020a0382169050919050565b6000600382901c9050919050565b600080600360020a610100816123f957fe5b04840290506000816001600360020a6101008161241257fe5b0460020a03901b19861690506000826001600360020a6101008161243257fe5b0460020a038616901b905080821793505050509392505050565b6060600060206001840102905060405191506000825280820160405281915050919050565b612479612ab5565b6060612484836127c1565b9050604051806040016040528084815260200182815250915050919050565b6000806001600360020a610100816124b757fe5b040390505b82816001901b106124d5578080600190039150506124bc565b60018101915050919050565b60006001836001901b038216905092915050565b600082905060008090505b82602001515181101561255e5760008360200151828151811061251f57fe5b60200260200101519050612532816127e6565b831061254a5761254181611162565b83019250612550565b5061255e565b508080600101915050612500565b5080905092915050565b600080829050600084905060006001600360020a6101008161258657fe5b0460020a03821690505b8083106125d85780830392508380600101945050600360020a610100816125b357fe5b0482901c91506001600360020a610100816125ca57fe5b0460020a0382169050612590565b83839350935050509250929050565b60006001600360020a038216600384901b17905092915050565b80516020810281845260208401818101602085015b818310156126335780518352602083019250602081019050612616565b50505050505050565b81516001810180602002808501848152828652505050505050565b600080600360020a6101008161266957fe5b046001600360020a6101008161267b57fe5b0460020a038516901b905060006001600360020a6101008161269957fe5b0460020a03841690508082179250505092915050565b600081905060008090505b83602001515181101561271a576000846020015182815181106126d957fe5b602002602001015190508083101561270c5782856020015183815181106126fc57fe5b6020026020010181815250508092505b5080806001019150506126ba565b5061272e818461281990919063ffffffff16565b505050565b6000816020015151905060008090505b818110156127ba5760008360200151828151811061275d57fe5b602002602001015190506000612772826127e6565b9050868111156127ab576000868201905061278d83826128f5565b8660200151858151811061279d57fe5b602002602001018181525050505b50508080600101915050612743565b5050505050565b6060600060206001840102905060405191506000825280820160405281915050919050565b60006001600360020a610100816127f957fe5b0460020a03600360020a6101008161280d57fe5b0483901c169050919050565b600082602001515190506000836000015190508082106128e1578082146128a8576040517f08c379a000000000000000000000000000000000000000000000000000000000815260040180806020018281038252601f8152602001807f4172726179206c656e677468206578636565647320616c6c6f636174696f6e0081525060200191505060405180910390fd5b600060028302905060606128bb826127c1565b90506128cb81876020015161295a565b8086602001819052508186600001818152505050505b6128ef846020015184612995565b50505050565b600080600360020a6101008161290757fe5b046001600360020a6101008161291957fe5b0460020a038416901b905080600360020a6101008161293457fe5b046001600360020a6101008161294657fe5b0460020a03901b1985161791505092915050565b80516020810281845260208401818101602085015b8183101561298c578051835260208301925060208101905061296f565b50505050505050565b81516001810180602002808501848152828652505050505050565b6040518060a00160405280600073ffffffffffffffffffffffffffffffffffffffff168152602001600081526020016000815260200160008152602001600073ffffffffffffffffffffffffffffffffffffffff1681525090565b604051806040016040528060008152602001606081525090565b6040518060c001604052806000815260200160008152602001600080191681526020016000815260200160008152602001612a5e612acf565b81525090565b604051806040016040528060006004811115612a7c57fe5b8152602001600081525090565b815481835581811115612ab057818360005260206000209182019101612aaf9190612ae9565b5b505050565b604051806040016040528060008152602001606081525090565b604051806040016040528060008152602001606081525090565b612b0b91905b80821115612b07576000816000905550600101612aef565b5090565b9056fe4f6e6c79206f776e6572206d617920757064617465206d696e696d756d20626f6e642076616c75654f70657261746f72206973206e6f74207265676973746572656420696e2074686520706f6f6c4f70657261746f7220697320616c7265616479207265676973746572656420696e2074686520706f6f6ca265627a7a72315820c0793b5132ed1646bac396555f50740744f55a7a7e3f325d43894b0bda5478c664736f6c63430005110032a265627a7a7231582067d7de387c542df2612d18c84c87a8dd7ce58f3d1ada304a11ad096be9398ef364736f6c63430005110032",
  "source": "pragma solidity 0.5.17;\n\nimport \"./FullyBackedSortitionPool.sol\";\nimport \"./api/IFullyBackedBonding.sol\";\nimport \"./api/IStaking.sol\";\n\n/// @title Fully-Backed Sortition Pool Factory\n/// @notice Factory for the creation of fully-backed sortition pools.\ncontract FullyBackedSortitionPoolFactory {\n  /// @notice Creates a new fully-backed sortition pool instance.\n  /// @param bondingContract Fully Backed Bonding contract reference.\n  /// @param minimumBondableValue Minimum unbonded value making the operator\n  /// eligible to join the network.\n  /// @param bondWeightDivisor Constant divisor for the available bond used to\n  /// evalate the applicable weight.\n  /// @return Address of the new fully-backed sortition pool contract instance.\n  function createSortitionPool(\n    IFullyBackedBonding bondingContract,\n    uint256 minimumBondableValue,\n    uint256 bondWeightDivisor\n  ) public returns (address) {\n    return\n      address(\n        new FullyBackedSortitionPool(\n          bondingContract,\n          minimumBondableValue,\n          bondWeightDivisor,\n          msg.sender\n        )\n      );\n  }\n}\n",
  "sourcePath": "@keep-network/sortition-pools/contracts/FullyBackedSortitionPoolFactory.sol",
  "compiler": {
    "name": "solc",
    "version": "0.5.17+commit.d19bba13.Emscripten.clang"
  },
  "schemaVersion": "3.3.4",
  "updatedAt": "2021-04-30T09:22:53.707Z",
  "networkType": "ethereum",
  "devdoc": {
    "methods": {
      "createSortitionPool(address,uint256,uint256)": {
        "params": {
          "bondWeightDivisor": "Constant divisor for the available bond used to evalate the applicable weight.",
          "bondingContract": "Fully Backed Bonding contract reference.",
          "minimumBondableValue": "Minimum unbonded value making the operator eligible to join the network."
        },
        "return": "Address of the new fully-backed sortition pool contract instance."
      }
    },
    "title": "Fully-Backed Sortition Pool Factory"
  },
  "userdoc": {
    "methods": {
      "createSortitionPool(address,uint256,uint256)": {
        "notice": "Creates a new fully-backed sortition pool instance."
      }
    },
    "notice": "Factory for the creation of fully-backed sortition pools."
  }
}