{
  "contractName": "GroupSelectionSeed",
  "abi": [
    {
      "inputs": [
        {
          "internalType": "address",
          "name": "_randomBeacon",
          "type": "address"
        }
      ],
      "payable": false,
      "stateMutability": "nonpayable",
      "type": "constructor"
    },
    {
      "payable": true,
      "stateMutability": "payable",
      "type": "fallback"
    },
    {
      "constant": true,
      "inputs": [],
      "name": "callbackGas",
      "outputs": [
        {
          "internalType": "uint256",
          "name": "",
          "type": "uint256"
        }
      ],
      "payable": false,
      "stateMutability": "view",
      "type": "function"
    },
    {
      "constant": true,
      "inputs": [],
      "name": "groupSelectionSeed",
      "outputs": [
        {
          "internalType": "uint256",
          "name": "",
          "type": "uint256"
        }
      ],
      "payable": false,
      "stateMutability": "view",
      "type": "function"
    },
    {
      "constant": true,
      "inputs": [],
      "name": "reseedPool",
      "outputs": [
        {
          "internalType": "uint256",
          "name": "",
          "type": "uint256"
        }
      ],
      "payable": false,
      "stateMutability": "view",
      "type": "function"
    },
    {
      "constant": false,
      "inputs": [
        {
          "internalType": "uint256",
          "name": "_relayEntry",
          "type": "uint256"
        }
      ],
      "name": "__beaconCallback",
      "outputs": [],
      "payable": false,
      "stateMutability": "nonpayable",
      "type": "function"
    },
    {
      "constant": true,
      "inputs": [],
      "name": "newEntryFeeEstimate",
      "outputs": [
        {
          "internalType": "uint256",
          "name": "",
          "type": "uint256"
        }
      ],
      "payable": false,
      "stateMutability": "view",
      "type": "function"
    },
    {
      "constant": true,
      "inputs": [],
      "name": "newGroupSelectionSeedFee",
      "outputs": [
        {
          "internalType": "uint256",
          "name": "",
          "type": "uint256"
        }
      ],
      "payable": false,
      "stateMutability": "view",
      "type": "function"
    },
    {
      "constant": false,
      "inputs": [],
      "name": "requestNewGroupSelectionSeed",
      "outputs": [],
      "payable": true,
      "stateMutability": "payable",
      "type": "function"
    }
  ],
  "bytecode": "0x608060405234801561001057600080fd5b50604051610a78380380610a788339818101604052602081101561003357600080fd5b8101908080519060200190929190505050600160008190555080600160006101000a81548173ffffffffffffffffffffffffffffffffffffffff021916908373ffffffffffffffffffffffffffffffffffffffff1602179055507f4574c8c75d6e88acd28f7e467dac97b5c60c3838d9dad993900bdf402152228e600381905550506109b4806100c46000396000f3fe6080604052600436106100705760003560e01c8063514899851161004e57806351489985146100f257806379a382e91461011d578063a10132ad14610148578063a5b310551461017357610070565b806321f74e5614610082578063356e07281461008c57806338400400146100c7575b34600260008282540192505081905550005b61008a61019e565b005b34801561009857600080fd5b506100c5600480360360208110156100af57600080fd5b810190808035906020019092919050505061042e565b005b3480156100d357600080fd5b506100dc6104fb565b6040518082815260200191505060405180910390f35b3480156100fe57600080fd5b506101076105dd565b6040518082815260200191505060405180910390f35b34801561012957600080fd5b50610132610694565b6040518082815260200191505060405180910390f35b34801561015457600080fd5b5061015d61069a565b6040518082815260200191505060405180910390f35b34801561017f57600080fd5b506101886106a0565b6040518082815260200191505060405180910390f35b600160008082825401925050819055506000805490506101c9346002546106a690919063ffffffff16565b6002819055506000600160009054906101000a900473ffffffffffffffffffffffffffffffffffffffff1673ffffffffffffffffffffffffffffffffffffffff1663d13f13916175306040518263ffffffff1660e01b81526004018082815260200191505060206040518083038186803b15801561024657600080fd5b505afa15801561025a573d6000803e3d6000fd5b505050506040513d602081101561027057600080fd5b810190808051906020019092919050505090508060025410156102de576040517f08c379a000000000000000000000000000000000000000000000000000000000815260040180806020018281038252602281526020018061095e6022913960400191505060405180910390fd5b6102f38160025461072e90919063ffffffff16565b60028190555060006060610306836107b7565b91509150816103b157806040517f08c379a00000000000000000000000000000000000000000000000000000000081526004018080602001828103825283818151815260200191508051906020019080838360005b8381101561037657808201518184015260208101905061035b565b50505050905090810190601f1680156103a35780820380516001836020036101000a031916815260200191505b509250505060405180910390fd5b505050600054811461042b576040517f08c379a000000000000000000000000000000000000000000000000000000000815260040180806020018281038252601f8152602001807f5265656e7472616e637947756172643a207265656e7472616e742063616c6c0081525060200191505060405180910390fd5b50565b3373ffffffffffffffffffffffffffffffffffffffff16600160009054906101000a900473ffffffffffffffffffffffffffffffffffffffff1673ffffffffffffffffffffffffffffffffffffffff16146104f1576040517f08c379a000000000000000000000000000000000000000000000000000000000815260040180806020018281038252601f8152602001807f43616c6c6572206973206e6f74207468652072616e646f6d20626561636f6e0081525060200191505060405180910390fd5b8060038190555050565b600080600160009054906101000a900473ffffffffffffffffffffffffffffffffffffffff1673ffffffffffffffffffffffffffffffffffffffff1663d13f13916175306040518263ffffffff1660e01b81526004018082815260200191505060206040518083038186803b15801561057357600080fd5b505afa158015610587573d6000803e3d6000fd5b505050506040513d602081101561059d57600080fd5b810190808051906020019092919050505090506002548111156105d4576105cf6002548261072e90919063ffffffff16565b6105d7565b60005b91505090565b6000600160009054906101000a900473ffffffffffffffffffffffffffffffffffffffff1673ffffffffffffffffffffffffffffffffffffffff1663d13f13916175306040518263ffffffff1660e01b81526004018082815260200191505060206040518083038186803b15801561065457600080fd5b505afa158015610668573d6000803e3d6000fd5b505050506040513d602081101561067e57600080fd5b8101908080519060200190929190505050905090565b60035481565b61753081565b60025481565b600080828401905083811015610724576040517f08c379a000000000000000000000000000000000000000000000000000000000815260040180806020018281038252601b8152602001807f536166654d6174683a206164646974696f6e206f766572666c6f77000000000081525060200191505060405180910390fd5b8091505092915050565b6000828211156107a6576040517f08c379a000000000000000000000000000000000000000000000000000000000815260040180806020018281038252601e8152602001807f536166654d6174683a207375627472616374696f6e206f766572666c6f77000081525060200191505060405180910390fd5b600082840390508091505092915050565b60006060600160009054906101000a900473ffffffffffffffffffffffffffffffffffffffff1673ffffffffffffffffffffffffffffffffffffffff168330617530604051602401808373ffffffffffffffffffffffffffffffffffffffff1673ffffffffffffffffffffffffffffffffffffffff168152602001828152602001925050506040516020818303038152906040527fe1f95890000000000000000000000000000000000000000000000000000000007bffffffffffffffffffffffffffffffffffffffffffffffffffffffff19166020820180517bffffffffffffffffffffffffffffffffffffffffffffffffffffffff83818316178352505050506040518082805190602001908083835b602083106108ec57805182526020820191506020810190506020830392506108c9565b6001836020036101000a03801982511681845116808217855250505050505090500191505060006040518083038185875af1925050503d806000811461094e576040519150601f19603f3d011682016040523d82523d6000602084013e610953565b606091505b509150915091509156fe4e6f7420656e6f7567682066756e647320746f207472696767657220726573656564a265627a7a723158209349484bf403f51dc864afc24c3d906da557cb1741a7f8c88139608c5b9b2e6564736f6c63430005110032",
  "source": "/**\n▓▓▌ ▓▓ ▐▓▓ ▓▓▓▓▓▓▓▓▓▓▌▐▓▓▓▓▓▓▓▓▓▓▓▓▓▓▓▓▓▓ ▓▓▓▓▓▓▓▓▓▓▓▓▓▓▓▓▓▓ ▓▓▓▓▓▓▓▓▓▓▓▓▓▓▓▓▓▄\n▓▓▓▓▓▓▓▓▓▓ ▓▓▓▓▓▓▓▓▓▓▌▐▓▓▓▓▓▓▓▓▓▓▓▓▓▓▓▓▓▓ ▓▓▓▓▓▓▓▓▓▓▓▓▓▓▓▓▓▓ ▓▓▓▓▓▓▓▓▓▓▓▓▓▓▓▓▓▓▓\n  ▓▓▓▓▓▓    ▓▓▓▓▓▓▓▀    ▐▓▓▓▓▓▓    ▐▓▓▓▓▓   ▓▓▓▓▓▓     ▓▓▓▓▓   ▐▓▓▓▓▓▌   ▐▓▓▓▓▓▓\n  ▓▓▓▓▓▓▄▄▓▓▓▓▓▓▓▀      ▐▓▓▓▓▓▓▄▄▄▄         ▓▓▓▓▓▓▄▄▄▄         ▐▓▓▓▓▓▌   ▐▓▓▓▓▓▓\n  ▓▓▓▓▓▓▓▓▓▓▓▓▓▀        ▐▓▓▓▓▓▓▓▓▓▓         ▓▓▓▓▓▓▓▓▓▓▌        ▐▓▓▓▓▓▓▓▓▓▓▓▓▓▓▓▓\n  ▓▓▓▓▓▓▀▀▓▓▓▓▓▓▄       ▐▓▓▓▓▓▓▀▀▀▀         ▓▓▓▓▓▓▀▀▀▀         ▐▓▓▓▓▓▓▓▓▓▓▓▓▓▓▀\n  ▓▓▓▓▓▓   ▀▓▓▓▓▓▓▄     ▐▓▓▓▓▓▓     ▓▓▓▓▓   ▓▓▓▓▓▓     ▓▓▓▓▓   ▐▓▓▓▓▓▌\n▓▓▓▓▓▓▓▓▓▓ █▓▓▓▓▓▓▓▓▓ ▐▓▓▓▓▓▓▓▓▓▓▓▓▓▓▓▓▓▓ ▓▓▓▓▓▓▓▓▓▓▓▓▓▓▓▓▓▓  ▓▓▓▓▓▓▓▓▓▓\n▓▓▓▓▓▓▓▓▓▓ ▓▓▓▓▓▓▓▓▓▓ ▐▓▓▓▓▓▓▓▓▓▓▓▓▓▓▓▓▓▓ ▓▓▓▓▓▓▓▓▓▓▓▓▓▓▓▓▓▓  ▓▓▓▓▓▓▓▓▓▓\n\n                           Trust math, not hardware.\n*/\n\npragma solidity 0.5.17;\n\nimport \"@keep-network/keep-core/contracts/IRandomBeacon.sol\";\n\nimport \"openzeppelin-solidity/contracts/math/SafeMath.sol\";\nimport \"openzeppelin-solidity/contracts/utils/ReentrancyGuard.sol\";\n\ncontract GroupSelectionSeed is IRandomBeaconConsumer, ReentrancyGuard {\n    using SafeMath for uint256;\n\n    IRandomBeacon randomBeacon;\n\n    // Gas required for a callback from the random beacon. The value specifies\n    // gas required to call `__beaconCallback` function in the worst-case\n    // scenario with all the checks and maximum allowed uint256 relay entry as\n    // a callback parameter.\n    uint256 public constant callbackGas = 30000;\n\n    // Random beacon sends back callback surplus to the requestor. It may also\n    // decide to send additional request subsidy fee. What's more, it may happen\n    // that the beacon is busy and we will not refresh group selection seed from\n    // the beacon. We accumulate all funds received from the beacon in the\n    // reseed pool and later use this pool to reseed using a public reseed\n    // function on a manual request at any moment.\n    uint256 public reseedPool;\n\n    uint256 public groupSelectionSeed;\n\n    constructor(address _randomBeacon) public {\n        randomBeacon = IRandomBeacon(_randomBeacon);\n\n        // Initial value before the random beacon updates the seed.\n        // https://www.wolframalpha.com/input/?i=pi+to+78+digits\n        groupSelectionSeed = 31415926535897932384626433832795028841971693993751058209749445923078164062862;\n    }\n\n    /// @notice Adds any received funds to the reseed pool.\n    function() external payable {\n        reseedPool += msg.value;\n    }\n\n    /// @notice Sets a new group selection seed value.\n    /// @dev The function is expected to be called in a callback by the random\n    /// beacon.\n    /// @param _relayEntry Beacon output.\n    function __beaconCallback(uint256 _relayEntry) external onlyRandomBeacon {\n        groupSelectionSeed = _relayEntry;\n    }\n\n    /// @notice Gets a fee estimate for a new random entry.\n    /// @return Uint256 estimate.\n    function newEntryFeeEstimate() public view returns (uint256) {\n        return randomBeacon.entryFeeEstimate(callbackGas);\n    }\n\n    /// @notice Calculates the fee requestor has to pay to reseed the factory\n    /// for signer selection. Depending on how much value is stored in the\n    /// reseed pool and the price of a new relay entry, returned value may vary.\n    function newGroupSelectionSeedFee() public view returns (uint256) {\n        uint256 beaconFee = randomBeacon.entryFeeEstimate(callbackGas);\n        return beaconFee <= reseedPool ? 0 : beaconFee.sub(reseedPool);\n    }\n\n    /// @notice Reseeds the value used for a signer selection. Requires enough\n    /// payment to be passed. The required payment can be calculated using\n    /// reseedFee function. Factory is automatically triggering reseeding after\n    /// opening a new keep but the reseed can be also triggered at any moment\n    /// using this function.\n    function requestNewGroupSelectionSeed() public payable nonReentrant {\n        reseedPool = reseedPool.add(msg.value);\n\n        uint256 beaconFee = randomBeacon.entryFeeEstimate(callbackGas);\n        require(reseedPool >= beaconFee, \"Not enough funds to trigger reseed\");\n        reseedPool = reseedPool.sub(beaconFee);\n\n        (bool success, bytes memory returnData) = requestRelayEntry(beaconFee);\n        if (!success) {\n            revert(string(returnData));\n        }\n    }\n\n    /// @notice Updates group selection seed.\n    /// @dev The main goal of this function is to request the random beacon to\n    /// generate a new random number. The beacon generates the number asynchronously\n    /// and will call a callback function when the number is ready. In the meantime\n    /// we update current group selection seed to a new value using a hash function.\n    /// In case of the random beacon request failure this function won't revert\n    /// but add beacon payment to factory's reseed pool.\n    function newGroupSelectionSeed() internal {\n        // Calculate new group selection seed based on the current seed.\n        // We added address of the factory as a key to calculate value different\n        // than sortition pool RNG will, so we don't end up selecting almost\n        // identical group.\n        groupSelectionSeed = uint256(\n            keccak256(abi.encodePacked(groupSelectionSeed, address(this)))\n        );\n\n        // Call the random beacon to get a random group selection seed.\n        (bool success, ) = requestRelayEntry(msg.value);\n        if (!success) {\n            reseedPool += msg.value;\n        }\n    }\n\n    /// @notice Requests for a relay entry using the beacon payment provided as\n    /// the parameter.\n    function requestRelayEntry(uint256 payment)\n        internal\n        returns (bool, bytes memory)\n    {\n        return\n            address(randomBeacon).call.value(payment)(\n                abi.encodeWithSignature(\n                    \"requestRelayEntry(address,uint256)\",\n                    address(this),\n                    callbackGas\n                )\n            );\n    }\n\n    /// @notice Checks if the caller is the random beacon.\n    /// @dev Throws an error if called by any account other than the random beacon.\n    modifier onlyRandomBeacon() {\n        require(\n            address(randomBeacon) == msg.sender,\n            \"Caller is not the random beacon\"\n        );\n        _;\n    }\n}\n",
  "sourcePath": "/Users/konrad/Desktop/rumble/fin/local-setup/keep-ecdsa/solidity/contracts/GroupSelectionSeed.sol",
  "compiler": {
    "name": "solc",
    "version": "0.5.17+commit.d19bba13.Emscripten.clang"
  },
  "schemaVersion": "3.3.4",
  "updatedAt": "2021-04-30T08:59:51.077Z",
  "devdoc": {
    "methods": {
      "__beaconCallback(uint256)": {
        "details": "The function is expected to be called in a callback by the random beacon.",
        "params": {
          "_relayEntry": "Beacon output."
        }
      },
      "newEntryFeeEstimate()": {
        "return": "Uint256 estimate."
      }
    }
  },
  "userdoc": {
    "methods": {
      "__beaconCallback(uint256)": {
        "notice": "Sets a new group selection seed value."
      },
      "newEntryFeeEstimate()": {
        "notice": "Gets a fee estimate for a new random entry."
      },
      "newGroupSelectionSeedFee()": {
        "notice": "Calculates the fee requestor has to pay to reseed the factory for signer selection. Depending on how much value is stored in the reseed pool and the price of a new relay entry, returned value may vary."
      },
      "requestNewGroupSelectionSeed()": {
        "notice": "Reseeds the value used for a signer selection. Requires enough payment to be passed. The required payment can be calculated using reseedFee function. Factory is automatically triggering reseeding after opening a new keep but the reseed can be also triggered at any moment using this function."
      }
    }
  }
}