{
  "contractName": "KeepBonding",
  "abi": [
    {
      "inputs": [
        {
          "internalType": "address",
          "name": "registryAddress",
          "type": "address"
        },
        {
          "internalType": "address",
          "name": "tokenStakingAddress",
          "type": "address"
        },
        {
          "internalType": "address",
          "name": "tokenGrantAddress",
          "type": "address"
        },
        {
          "internalType": "address",
          "name": "_bondTokenAddress",
          "type": "address"
        }
      ],
      "payable": false,
      "stateMutability": "nonpayable",
      "type": "constructor"
    },
    {
      "anonymous": false,
      "inputs": [
        {
          "indexed": true,
          "internalType": "address",
          "name": "operator",
          "type": "address"
        },
        {
          "indexed": true,
          "internalType": "address",
          "name": "holder",
          "type": "address"
        },
        {
          "indexed": true,
          "internalType": "address",
          "name": "sortitionPool",
          "type": "address"
        },
        {
          "indexed": false,
          "internalType": "uint256",
          "name": "referenceID",
          "type": "uint256"
        },
        {
          "indexed": false,
          "internalType": "uint256",
          "name": "amount",
          "type": "uint256"
        }
      ],
      "name": "BondCreated",
      "type": "event"
    },
    {
      "anonymous": false,
      "inputs": [
        {
          "indexed": true,
          "internalType": "address",
          "name": "operator",
          "type": "address"
        },
        {
          "indexed": true,
          "internalType": "uint256",
          "name": "referenceID",
          "type": "uint256"
        },
        {
          "indexed": false,
          "internalType": "address",
          "name": "newHolder",
          "type": "address"
        },
        {
          "indexed": false,
          "internalType": "uint256",
          "name": "newReferenceID",
          "type": "uint256"
        }
      ],
      "name": "BondReassigned",
      "type": "event"
    },
    {
      "anonymous": false,
      "inputs": [
        {
          "indexed": true,
          "internalType": "address",
          "name": "operator",
          "type": "address"
        },
        {
          "indexed": true,
          "internalType": "uint256",
          "name": "referenceID",
          "type": "uint256"
        }
      ],
      "name": "BondReleased",
      "type": "event"
    },
    {
      "anonymous": false,
      "inputs": [
        {
          "indexed": true,
          "internalType": "address",
          "name": "operator",
          "type": "address"
        },
        {
          "indexed": true,
          "internalType": "uint256",
          "name": "referenceID",
          "type": "uint256"
        },
        {
          "indexed": false,
          "internalType": "address",
          "name": "destination",
          "type": "address"
        },
        {
          "indexed": false,
          "internalType": "uint256",
          "name": "amount",
          "type": "uint256"
        }
      ],
      "name": "BondSeized",
      "type": "event"
    },
    {
      "anonymous": false,
      "inputs": [
        {
          "indexed": true,
          "internalType": "address",
          "name": "operator",
          "type": "address"
        },
        {
          "indexed": true,
          "internalType": "address",
          "name": "beneficiary",
          "type": "address"
        },
        {
          "indexed": false,
          "internalType": "uint256",
          "name": "amount",
          "type": "uint256"
        }
      ],
      "name": "UnbondedValueDeposited",
      "type": "event"
    },
    {
      "anonymous": false,
      "inputs": [
        {
          "indexed": true,
          "internalType": "address",
          "name": "operator",
          "type": "address"
        },
        {
          "indexed": true,
          "internalType": "address",
          "name": "beneficiary",
          "type": "address"
        },
        {
          "indexed": false,
          "internalType": "uint256",
          "name": "amount",
          "type": "uint256"
        }
      ],
      "name": "UnbondedValueWithdrawn",
      "type": "event"
    },
    {
      "constant": false,
      "inputs": [
        {
          "internalType": "address",
          "name": "_operator",
          "type": "address"
        },
        {
          "internalType": "address",
          "name": "_poolAddress",
          "type": "address"
        }
      ],
      "name": "authorizeSortitionPoolContract",
      "outputs": [],
      "payable": false,
      "stateMutability": "nonpayable",
      "type": "function"
    },
    {
      "constant": true,
      "inputs": [
        {
          "internalType": "address",
          "name": "operator",
          "type": "address"
        },
        {
          "internalType": "address",
          "name": "bondCreator",
          "type": "address"
        },
        {
          "internalType": "address",
          "name": "authorizedSortitionPool",
          "type": "address"
        }
      ],
      "name": "availableUnbondedValue",
      "outputs": [
        {
          "internalType": "uint256",
          "name": "",
          "type": "uint256"
        }
      ],
      "payable": false,
      "stateMutability": "view",
      "type": "function"
    },
    {
      "constant": true,
      "inputs": [
        {
          "internalType": "address",
          "name": "operator",
          "type": "address"
        },
        {
          "internalType": "address",
          "name": "holder",
          "type": "address"
        },
        {
          "internalType": "uint256",
          "name": "referenceID",
          "type": "uint256"
        }
      ],
      "name": "bondAmount",
      "outputs": [
        {
          "internalType": "uint256",
          "name": "",
          "type": "uint256"
        }
      ],
      "payable": false,
      "stateMutability": "view",
      "type": "function"
    },
    {
      "constant": true,
      "inputs": [],
      "name": "bondTokenAddress",
      "outputs": [
        {
          "internalType": "address",
          "name": "",
          "type": "address"
        }
      ],
      "payable": false,
      "stateMutability": "view",
      "type": "function"
    },
    {
      "constant": false,
      "inputs": [
        {
          "internalType": "address",
          "name": "operator",
          "type": "address"
        },
        {
          "internalType": "address",
          "name": "holder",
          "type": "address"
        },
        {
          "internalType": "uint256",
          "name": "referenceID",
          "type": "uint256"
        },
        {
          "internalType": "uint256",
          "name": "amount",
          "type": "uint256"
        },
        {
          "internalType": "address",
          "name": "authorizedSortitionPool",
          "type": "address"
        }
      ],
      "name": "createBond",
      "outputs": [],
      "payable": false,
      "stateMutability": "nonpayable",
      "type": "function"
    },
    {
      "constant": false,
      "inputs": [
        {
          "internalType": "address",
          "name": "_operator",
          "type": "address"
        },
        {
          "internalType": "address",
          "name": "_poolAddress",
          "type": "address"
        }
      ],
      "name": "deauthorizeSortitionPoolContract",
      "outputs": [],
      "payable": false,
      "stateMutability": "nonpayable",
      "type": "function"
    },
    {
      "constant": false,
      "inputs": [
        {
          "internalType": "address",
          "name": "operator",
          "type": "address"
        },
        {
          "internalType": "uint256",
          "name": "_amount",
          "type": "uint256"
        }
      ],
      "name": "deposit",
      "outputs": [],
      "payable": false,
      "stateMutability": "nonpayable",
      "type": "function"
    },
    {
      "constant": false,
      "inputs": [
        {
          "internalType": "address",
          "name": "operator",
          "type": "address"
        },
        {
          "internalType": "uint256",
          "name": "_amount",
          "type": "uint256"
        },
        {
          "internalType": "address",
          "name": "_source",
          "type": "address"
        }
      ],
      "name": "depositFor",
      "outputs": [],
      "payable": false,
      "stateMutability": "nonpayable",
      "type": "function"
    },
    {
      "constant": false,
      "inputs": [
        {
          "internalType": "address",
          "name": "operator",
          "type": "address"
        },
        {
          "internalType": "uint256",
          "name": "referenceID",
          "type": "uint256"
        }
      ],
      "name": "freeBond",
      "outputs": [],
      "payable": false,
      "stateMutability": "nonpayable",
      "type": "function"
    },
    {
      "constant": true,
      "inputs": [
        {
          "internalType": "address",
          "name": "_operator",
          "type": "address"
        },
        {
          "internalType": "address",
          "name": "_poolAddress",
          "type": "address"
        }
      ],
      "name": "hasSecondaryAuthorization",
      "outputs": [
        {
          "internalType": "bool",
          "name": "",
          "type": "bool"
        }
      ],
      "payable": false,
      "stateMutability": "view",
      "type": "function"
    },
    {
      "constant": false,
      "inputs": [
        {
          "internalType": "address",
          "name": "operator",
          "type": "address"
        },
        {
          "internalType": "uint256",
          "name": "referenceID",
          "type": "uint256"
        },
        {
          "internalType": "address",
          "name": "newHolder",
          "type": "address"
        },
        {
          "internalType": "uint256",
          "name": "newReferenceID",
          "type": "uint256"
        }
      ],
      "name": "reassignBond",
      "outputs": [],
      "payable": false,
      "stateMutability": "nonpayable",
      "type": "function"
    },
    {
      "constant": false,
      "inputs": [
        {
          "internalType": "address",
          "name": "operator",
          "type": "address"
        },
        {
          "internalType": "uint256",
          "name": "referenceID",
          "type": "uint256"
        },
        {
          "internalType": "uint256",
          "name": "amount",
          "type": "uint256"
        },
        {
          "internalType": "address",
          "name": "destination",
          "type": "address"
        }
      ],
      "name": "seizeBond",
      "outputs": [],
      "payable": false,
      "stateMutability": "nonpayable",
      "type": "function"
    },
    {
      "constant": true,
      "inputs": [
        {
          "internalType": "address",
          "name": "",
          "type": "address"
        }
      ],
      "name": "unbondedValue",
      "outputs": [
        {
          "internalType": "uint256",
          "name": "",
          "type": "uint256"
        }
      ],
      "payable": false,
      "stateMutability": "view",
      "type": "function"
    },
    {
      "constant": false,
      "inputs": [
        {
          "internalType": "uint256",
          "name": "amount",
          "type": "uint256"
        },
        {
          "internalType": "address",
          "name": "operator",
          "type": "address"
        }
      ],
      "name": "withdraw",
      "outputs": [],
      "payable": false,
      "stateMutability": "nonpayable",
      "type": "function"
    },
    {
      "constant": false,
      "inputs": [
        {
          "internalType": "uint256",
          "name": "amount",
          "type": "uint256"
        },
        {
          "internalType": "address",
          "name": "operator",
          "type": "address"
        },
        {
          "internalType": "address",
          "name": "managedGrant",
          "type": "address"
        }
      ],
      "name": "withdrawAsManagedGrantee",
      "outputs": [],
      "payable": false,
      "stateMutability": "nonpayable",
      "type": "function"
    },
    {
      "constant": true,
      "inputs": [
        {
          "internalType": "address",
          "name": "_operator",
          "type": "address"
        },
        {
          "internalType": "address",
          "name": "_operatorContract",
          "type": "address"
        }
      ],
      "name": "isAuthorizedForOperator",
      "outputs": [
        {
          "internalType": "bool",
          "name": "",
          "type": "bool"
        }
      ],
      "payable": false,
      "stateMutability": "view",
      "type": "function"
    },
    {
      "constant": true,
      "inputs": [
        {
          "internalType": "address",
          "name": "_operator",
          "type": "address"
        }
      ],
      "name": "authorizerOf",
      "outputs": [
        {
          "internalType": "address",
          "name": "",
          "type": "address"
        }
      ],
      "payable": false,
      "stateMutability": "view",
      "type": "function"
    },
    {
      "constant": true,
      "inputs": [
        {
          "internalType": "address",
          "name": "_operator",
          "type": "address"
        }
      ],
      "name": "beneficiaryOf",
      "outputs": [
        {
          "internalType": "address payable",
          "name": "",
          "type": "address"
        }
      ],
      "payable": false,
      "stateMutability": "view",
      "type": "function"
    }
  ],
  "bytecode": "0x608060405234801561001057600080fd5b506040516134333803806134338339818101604052608081101561003357600080fd5b8101908080519060200190929190805190602001909291908051906020019092919080519060200190929190505050838181600160006101000a81548173ffffffffffffffffffffffffffffffffffffffff021916908373ffffffffffffffffffffffffffffffffffffffff160217905550806000806101000a81548173ffffffffffffffffffffffffffffffffffffffff021916908373ffffffffffffffffffffffffffffffffffffffff160217905550505082600560006101000a81548173ffffffffffffffffffffffffffffffffffffffff021916908373ffffffffffffffffffffffffffffffffffffffff16021790555081600660006101000a81548173ffffffffffffffffffffffffffffffffffffffff021916908373ffffffffffffffffffffffffffffffffffffffff160217905550505050506132b78061017c6000396000f3fe608060405234801561001057600080fd5b50600436106101155760003560e01c806378f011c1116100a2578063c578617411610071578063c578617414610682578063c8820f6c146106e6578063d20a62fc14610754578063ef1f9661146107ec578063fb1677b11461086857610115565b806378f011c1146104bc5780637ab3cf9314610538578063972f245714610586578063ba7bffd3146105fe57610115565b806342bcb965116100e957806342bcb9651461028e578063446f0f9e1461032657806347e7ef24146103a85780635823cfad146103f65780635fcac8ff1461044e57610115565b8062f714ce1461011a5780630b102471146101685780630cb0a677146101cc5780631133fd2c14610244575b600080fd5b6101666004803603604081101561013057600080fd5b8101908080359060200190929190803573ffffffffffffffffffffffffffffffffffffffff1690602001909291905050506108ec565b005b6101ca6004803603604081101561017e57600080fd5b81019080803573ffffffffffffffffffffffffffffffffffffffff169060200190929190803573ffffffffffffffffffffffffffffffffffffffff169060200190929190505050610a26565b005b610242600480360360808110156101e257600080fd5b81019080803573ffffffffffffffffffffffffffffffffffffffff1690602001909291908035906020019092919080359060200190929190803573ffffffffffffffffffffffffffffffffffffffff169060200190929190505050610b68565b005b61024c610ef4565b604051808273ffffffffffffffffffffffffffffffffffffffff1673ffffffffffffffffffffffffffffffffffffffff16815260200191505060405180910390f35b610310600480360360608110156102a457600080fd5b81019080803573ffffffffffffffffffffffffffffffffffffffff169060200190929190803573ffffffffffffffffffffffffffffffffffffffff169060200190929190803573ffffffffffffffffffffffffffffffffffffffff169060200190929190505050610f19565b6040518082815260200191505060405180910390f35b6103926004803603606081101561033c57600080fd5b81019080803573ffffffffffffffffffffffffffffffffffffffff169060200190929190803573ffffffffffffffffffffffffffffffffffffffff16906020019092919080359060200190929190505050611071565b6040518082815260200191505060405180910390f35b6103f4600480360360408110156103be57600080fd5b81019080803573ffffffffffffffffffffffffffffffffffffffff16906020019092919080359060200190929190505050611129565b005b6104386004803603602081101561040c57600080fd5b81019080803573ffffffffffffffffffffffffffffffffffffffff1690602001909291905050506115ab565b6040518082815260200191505060405180910390f35b6104ba6004803603606081101561046457600080fd5b8101908080359060200190929190803573ffffffffffffffffffffffffffffffffffffffff169060200190929190803573ffffffffffffffffffffffffffffffffffffffff1690602001909291905050506115c3565b005b61051e600480360360408110156104d257600080fd5b81019080803573ffffffffffffffffffffffffffffffffffffffff169060200190929190803573ffffffffffffffffffffffffffffffffffffffff169060200190929190505050611676565b604051808215151515815260200191505060405180910390f35b6105846004803603604081101561054e57600080fd5b81019080803573ffffffffffffffffffffffffffffffffffffffff1690602001909291908035906020019092919050505061170a565b005b6105fc6004803603608081101561059c57600080fd5b81019080803573ffffffffffffffffffffffffffffffffffffffff16906020019092919080359060200190929190803573ffffffffffffffffffffffffffffffffffffffff16906020019092919080359060200190929190505050611942565b005b6106406004803603602081101561061457600080fd5b81019080803573ffffffffffffffffffffffffffffffffffffffff169060200190929190505050611c3e565b604051808273ffffffffffffffffffffffffffffffffffffffff1673ffffffffffffffffffffffffffffffffffffffff16815260200191505060405180910390f35b6106e46004803603604081101561069857600080fd5b81019080803573ffffffffffffffffffffffffffffffffffffffff169060200190929190803573ffffffffffffffffffffffffffffffffffffffff169060200190929190505050611d21565b005b610752600480360360608110156106fc57600080fd5b81019080803573ffffffffffffffffffffffffffffffffffffffff16906020019092919080359060200190929190803573ffffffffffffffffffffffffffffffffffffffff169060200190929190505050611e63565b005b6107ea600480360360a081101561076a57600080fd5b81019080803573ffffffffffffffffffffffffffffffffffffffff169060200190929190803573ffffffffffffffffffffffffffffffffffffffff1690602001909291908035906020019092919080359060200190929190803573ffffffffffffffffffffffffffffffffffffffff1690602001909291905050506122e6565b005b61084e6004803603604081101561080257600080fd5b81019080803573ffffffffffffffffffffffffffffffffffffffff169060200190929190803573ffffffffffffffffffffffffffffffffffffffff1690602001909291905050506125c9565b604051808215151515815260200191505060405180910390f35b6108aa6004803603602081101561087e57600080fd5b81019080803573ffffffffffffffffffffffffffffffffffffffff1690602001909291905050506126e1565b604051808273ffffffffffffffffffffffffffffffffffffffff1673ffffffffffffffffffffffffffffffffffffffff16815260200191505060405180910390f35b8073ffffffffffffffffffffffffffffffffffffffff163373ffffffffffffffffffffffffffffffffffffffff16148061096f575061096e81600560009054906101000a900473ffffffffffffffffffffffffffffffffffffffff163373ffffffffffffffffffffffffffffffffffffffff166127c49092919063ffffffff16565b5b806109c357506109c281600660009054906101000a900473ffffffffffffffffffffffffffffffffffffffff163373ffffffffffffffffffffffffffffffffffffffff166128b59092919063ffffffff16565b5b610a18576040517f08c379a00000000000000000000000000000000000000000000000000000000081526004018080602001828103825260368152602001806132276036913960400191505060405180910390fd5b610a228282612a2a565b5050565b3373ffffffffffffffffffffffffffffffffffffffff16610a46836126e1565b73ffffffffffffffffffffffffffffffffffffffff1614610acf576040517f08c379a000000000000000000000000000000000000000000000000000000000815260040180806020018281038252600e8152602001807f4e6f7420617574686f72697a656400000000000000000000000000000000000081525060200191505060405180910390fd5b6000600460008473ffffffffffffffffffffffffffffffffffffffff1673ffffffffffffffffffffffffffffffffffffffff16815260200190815260200160002060008373ffffffffffffffffffffffffffffffffffffffff1673ffffffffffffffffffffffffffffffffffffffff16815260200190815260200160002060006101000a81548160ff0219169083151502179055505050565b60008211610bc1576040517f08c379a000000000000000000000000000000000000000000000000000000000815260040180806020018281038252602c8152602001806131fb602c913960400191505060405180910390fd5b60003390506000858286604051602001808473ffffffffffffffffffffffffffffffffffffffff1673ffffffffffffffffffffffffffffffffffffffff1660601b81526014018373ffffffffffffffffffffffffffffffffffffffff1673ffffffffffffffffffffffffffffffffffffffff1660601b815260140182815260200193505050506040516020818303038152906040528051906020012090508360036000838152602001908152602001600020541015610ccb576040517f08c379a00000000000000000000000000000000000000000000000000000000081526004018080602001828103825260298152602001806131aa6029913960400191505060405180910390fd5b60008060009054906101000a900473ffffffffffffffffffffffffffffffffffffffff169050610d17856003600085815260200190815260200160002054612d4c90919063ffffffff16565b600360008481526020019081526020016000208190555060008173ffffffffffffffffffffffffffffffffffffffff1663a9059cbb86886040518363ffffffff1660e01b8152600401808373ffffffffffffffffffffffffffffffffffffffff1673ffffffffffffffffffffffffffffffffffffffff16815260200182815260200192505050602060405180830381600087803b158015610db757600080fd5b505af1158015610dcb573d6000803e3d6000fd5b505050506040513d6020811015610de157600080fd5b8101908080519060200190929190505050905080610e67576040517f08c379a000000000000000000000000000000000000000000000000000000000815260040180806020018281038252600f8152602001807f5472616e73666572206661696c6564000000000000000000000000000000000081525060200191505060405180910390fd5b868873ffffffffffffffffffffffffffffffffffffffff167ff8e947b47b515d01aa96426822ddcf23a08f42d8c2dbfd65e674ba824f5513828789604051808373ffffffffffffffffffffffffffffffffffffffff1673ffffffffffffffffffffffffffffffffffffffff1681526020018281526020019250505060405180910390a35050505050505050565b6000809054906101000a900473ffffffffffffffffffffffffffffffffffffffff1681565b6000600160009054906101000a900473ffffffffffffffffffffffffffffffffffffffff1673ffffffffffffffffffffffffffffffffffffffff166384d57689846040518263ffffffff1660e01b8152600401808273ffffffffffffffffffffffffffffffffffffffff1673ffffffffffffffffffffffffffffffffffffffff16815260200191505060206040518083038186803b158015610fba57600080fd5b505afa158015610fce573d6000803e3d6000fd5b505050506040513d6020811015610fe457600080fd5b81019080805190602001909291905050508015611007575061100684846125c9565b5b801561101957506110188483611676565b5b1561106557600260008573ffffffffffffffffffffffffffffffffffffffff1673ffffffffffffffffffffffffffffffffffffffff16815260200190815260200160002054905061106a565b600090505b9392505050565b600080848484604051602001808473ffffffffffffffffffffffffffffffffffffffff1673ffffffffffffffffffffffffffffffffffffffff1660601b81526014018373ffffffffffffffffffffffffffffffffffffffff1673ffffffffffffffffffffffffffffffffffffffff1660601b8152601401828152602001935050505060405160208183030381529060405280519060200120905060036000828152602001908152602001600020549150509392505050565b600061113483611c3e565b9050600073ffffffffffffffffffffffffffffffffffffffff168173ffffffffffffffffffffffffffffffffffffffff1614156111bc576040517f08c379a00000000000000000000000000000000000000000000000000000000081526004018080602001828103825260288152602001806131826028913960400191505060405180910390fd5b60008060009054906101000a900473ffffffffffffffffffffffffffffffffffffffff169050828173ffffffffffffffffffffffffffffffffffffffff1663dd62ed3e86306040518363ffffffff1660e01b8152600401808373ffffffffffffffffffffffffffffffffffffffff1673ffffffffffffffffffffffffffffffffffffffff1681526020018273ffffffffffffffffffffffffffffffffffffffff1673ffffffffffffffffffffffffffffffffffffffff1681526020019250505060206040518083038186803b15801561129457600080fd5b505afa1580156112a8573d6000803e3d6000fd5b505050506040513d60208110156112be57600080fd5b81019080805190602001909291905050501015611343576040517f08c379a00000000000000000000000000000000000000000000000000000000081526004018080602001828103825260148152602001807f416c6c6f77616e636520697320746f6f206c6f7700000000000000000000000081525060200191505060405180910390fd5b8073ffffffffffffffffffffffffffffffffffffffff166323b872dd8530866040518463ffffffff1660e01b8152600401808473ffffffffffffffffffffffffffffffffffffffff1673ffffffffffffffffffffffffffffffffffffffff1681526020018373ffffffffffffffffffffffffffffffffffffffff1673ffffffffffffffffffffffffffffffffffffffff1681526020018281526020019350505050602060405180830381600087803b1580156113fe57600080fd5b505af1158015611412573d6000803e3d6000fd5b505050506040513d602081101561142857600080fd5b81019080805190602001909291905050506114ab576040517f08c379a000000000000000000000000000000000000000000000000000000000815260040180806020018281038252600f8152602001807f5472616e73666572206661696c6564000000000000000000000000000000000081525060200191505060405180910390fd5b6114fd83600260008773ffffffffffffffffffffffffffffffffffffffff1673ffffffffffffffffffffffffffffffffffffffff16815260200190815260200160002054612dd590919063ffffffff16565b600260008673ffffffffffffffffffffffffffffffffffffffff1673ffffffffffffffffffffffffffffffffffffffff168152602001908152602001600020819055508173ffffffffffffffffffffffffffffffffffffffff168473ffffffffffffffffffffffffffffffffffffffff167ffd586a32ad24d585b1f7b36ee48e66304ad7627b48b39a0ab1d8a3e84741ea2a856040518082815260200191505060405180910390a350505050565b60026020528060005260406000206000915090505481565b6116128282600660009054906101000a900473ffffffffffffffffffffffffffffffffffffffff163373ffffffffffffffffffffffffffffffffffffffff16612e5d909392919063ffffffff16565b611667576040517f08c379a00000000000000000000000000000000000000000000000000000000081526004018080602001828103825260288152602001806131d36028913960400191505060405180910390fd5b6116718383612a2a565b505050565b6000600460008473ffffffffffffffffffffffffffffffffffffffff1673ffffffffffffffffffffffffffffffffffffffff16815260200190815260200160002060008373ffffffffffffffffffffffffffffffffffffffff1673ffffffffffffffffffffffffffffffffffffffff16815260200190815260200160002060009054906101000a900460ff16905092915050565b60003390506000838284604051602001808473ffffffffffffffffffffffffffffffffffffffff1673ffffffffffffffffffffffffffffffffffffffff1660601b81526014018373ffffffffffffffffffffffffffffffffffffffff1673ffffffffffffffffffffffffffffffffffffffff1660601b815260140182815260200193505050506040516020818303038152906040528051906020012090506000600360008381526020019081526020016000205411611831576040517f08c379a000000000000000000000000000000000000000000000000000000000815260040180806020018281038252600e8152602001807f426f6e64206e6f7420666f756e6400000000000000000000000000000000000081525060200191505060405180910390fd5b600060036000838152602001908152602001600020549050600060036000848152602001908152602001600020819055506118b481600260008873ffffffffffffffffffffffffffffffffffffffff1673ffffffffffffffffffffffffffffffffffffffff16815260200190815260200160002054612dd590919063ffffffff16565b600260008773ffffffffffffffffffffffffffffffffffffffff1673ffffffffffffffffffffffffffffffffffffffff16815260200190815260200160002081905550838573ffffffffffffffffffffffffffffffffffffffff167f60b8ef4216791426b3d7acfb0b6d11a400872350afd70a3ce5ebf62bea7cb0d460405160405180910390a35050505050565b60003390506000858286604051602001808473ffffffffffffffffffffffffffffffffffffffff1673ffffffffffffffffffffffffffffffffffffffff1660601b81526014018373ffffffffffffffffffffffffffffffffffffffff1673ffffffffffffffffffffffffffffffffffffffff1660601b815260140182815260200193505050506040516020818303038152906040528051906020012090506000600360008381526020019081526020016000205411611a69576040517f08c379a000000000000000000000000000000000000000000000000000000000815260040180806020018281038252600e8152602001807f426f6e64206e6f7420666f756e6400000000000000000000000000000000000081525060200191505060405180910390fd5b6000868585604051602001808473ffffffffffffffffffffffffffffffffffffffff1673ffffffffffffffffffffffffffffffffffffffff1660601b81526014018373ffffffffffffffffffffffffffffffffffffffff1673ffffffffffffffffffffffffffffffffffffffff1660601b815260140182815260200193505050506040516020818303038152906040528051906020012090506000600360008381526020019081526020016000205414611b6e576040517f08c379a000000000000000000000000000000000000000000000000000000000815260040180806020018281038252602f815260200180613153602f913960400191505060405180910390fd5b6003600083815260200190815260200160002054600360008381526020019081526020016000208190555060006003600084815260200190815260200160002081905550858773ffffffffffffffffffffffffffffffffffffffff167fb1d917176802bfbc813f2d82e745526029a4ccf0ea98d14e7a09a08703595b1e8787604051808373ffffffffffffffffffffffffffffffffffffffff1673ffffffffffffffffffffffffffffffffffffffff1681526020018281526020019250505060405180910390a350505050505050565b6000600560009054906101000a900473ffffffffffffffffffffffffffffffffffffffff1673ffffffffffffffffffffffffffffffffffffffff1663ba7bffd3836040518263ffffffff1660e01b8152600401808273ffffffffffffffffffffffffffffffffffffffff1673ffffffffffffffffffffffffffffffffffffffff16815260200191505060206040518083038186803b158015611cdf57600080fd5b505afa158015611cf3573d6000803e3d6000fd5b505050506040513d6020811015611d0957600080fd5b81019080805190602001909291905050509050919050565b3373ffffffffffffffffffffffffffffffffffffffff16611d41836126e1565b73ffffffffffffffffffffffffffffffffffffffff1614611dca576040517f08c379a000000000000000000000000000000000000000000000000000000000815260040180806020018281038252600e8152602001807f4e6f7420617574686f72697a656400000000000000000000000000000000000081525060200191505060405180910390fd5b6001600460008473ffffffffffffffffffffffffffffffffffffffff1673ffffffffffffffffffffffffffffffffffffffff16815260200190815260200160002060008373ffffffffffffffffffffffffffffffffffffffff1673ffffffffffffffffffffffffffffffffffffffff16815260200190815260200160002060006101000a81548160ff0219169083151502179055505050565b6000611e6e84611c3e565b9050600073ffffffffffffffffffffffffffffffffffffffff168173ffffffffffffffffffffffffffffffffffffffff161415611ef6576040517f08c379a00000000000000000000000000000000000000000000000000000000081526004018080602001828103825260288152602001806131826028913960400191505060405180910390fd5b60008060009054906101000a900473ffffffffffffffffffffffffffffffffffffffff169050838173ffffffffffffffffffffffffffffffffffffffff1663dd62ed3e85306040518363ffffffff1660e01b8152600401808373ffffffffffffffffffffffffffffffffffffffff1673ffffffffffffffffffffffffffffffffffffffff1681526020018273ffffffffffffffffffffffffffffffffffffffff1673ffffffffffffffffffffffffffffffffffffffff1681526020019250505060206040518083038186803b158015611fce57600080fd5b505afa158015611fe2573d6000803e3d6000fd5b505050506040513d6020811015611ff857600080fd5b8101908080519060200190929190505050101561207d576040517f08c379a000000000000000000000000000000000000000000000000000000000815260040180806020018281038252601f8152602001807f416c6c6f77616e6365206f66205f736f7572636520697320746f6f206c6f770081525060200191505060405180910390fd5b8073ffffffffffffffffffffffffffffffffffffffff166323b872dd8430876040518463ffffffff1660e01b8152600401808473ffffffffffffffffffffffffffffffffffffffff1673ffffffffffffffffffffffffffffffffffffffff1681526020018373ffffffffffffffffffffffffffffffffffffffff1673ffffffffffffffffffffffffffffffffffffffff1681526020018281526020019350505050602060405180830381600087803b15801561213857600080fd5b505af115801561214c573d6000803e3d6000fd5b505050506040513d602081101561216257600080fd5b81019080805190602001909291905050506121e5576040517f08c379a000000000000000000000000000000000000000000000000000000000815260040180806020018281038252600f8152602001807f5472616e73666572206661696c6564000000000000000000000000000000000081525060200191505060405180910390fd5b61223784600260008873ffffffffffffffffffffffffffffffffffffffff1673ffffffffffffffffffffffffffffffffffffffff16815260200190815260200160002054612dd590919063ffffffff16565b600260008773ffffffffffffffffffffffffffffffffffffffff1673ffffffffffffffffffffffffffffffffffffffff168152602001908152602001600020819055508173ffffffffffffffffffffffffffffffffffffffff168573ffffffffffffffffffffffffffffffffffffffff167ffd586a32ad24d585b1f7b36ee48e66304ad7627b48b39a0ab1d8a3e84741ea2a866040518082815260200191505060405180910390a35050505050565b816122f2863384610f19565b1015612366576040517f08c379a000000000000000000000000000000000000000000000000000000000815260040180806020018281038252601b8152602001807f496e73756666696369656e7420756e626f6e6465642076616c7565000000000081525060200191505060405180910390fd5b6000858585604051602001808473ffffffffffffffffffffffffffffffffffffffff1673ffffffffffffffffffffffffffffffffffffffff1660601b81526014018373ffffffffffffffffffffffffffffffffffffffff1673ffffffffffffffffffffffffffffffffffffffff1660601b81526014018281526020019350505050604051602081830303815290604052805190602001209050600060036000838152602001908152602001600020541461246b576040517f08c379a000000000000000000000000000000000000000000000000000000000815260040180806020018281038252602f815260200180613153602f913960400191505060405180910390fd5b6124bd83600260008973ffffffffffffffffffffffffffffffffffffffff1673ffffffffffffffffffffffffffffffffffffffff16815260200190815260200160002054612d4c90919063ffffffff16565b600260008873ffffffffffffffffffffffffffffffffffffffff1673ffffffffffffffffffffffffffffffffffffffff16815260200190815260200160002081905550612526836003600084815260200190815260200160002054612dd590919063ffffffff16565b60036000838152602001908152602001600020819055508173ffffffffffffffffffffffffffffffffffffffff168573ffffffffffffffffffffffffffffffffffffffff168773ffffffffffffffffffffffffffffffffffffffff167fa5543d8e139d9ab4342d5c4f6ec1bff5a97f9a52d71f7ffe9845b94f1449fc918787604051808381526020018281526020019250505060405180910390a4505050505050565b6000600560009054906101000a900473ffffffffffffffffffffffffffffffffffffffff1673ffffffffffffffffffffffffffffffffffffffff1663ef1f966184846040518363ffffffff1660e01b8152600401808373ffffffffffffffffffffffffffffffffffffffff1673ffffffffffffffffffffffffffffffffffffffff1681526020018273ffffffffffffffffffffffffffffffffffffffff1673ffffffffffffffffffffffffffffffffffffffff1681526020019250505060206040518083038186803b15801561269e57600080fd5b505afa1580156126b2573d6000803e3d6000fd5b505050506040513d60208110156126c857600080fd5b8101908080519060200190929190505050905092915050565b6000600560009054906101000a900473ffffffffffffffffffffffffffffffffffffffff1673ffffffffffffffffffffffffffffffffffffffff1663fb1677b1836040518263ffffffff1660e01b8152600401808273ffffffffffffffffffffffffffffffffffffffff1673ffffffffffffffffffffffffffffffffffffffff16815260200191505060206040518083038186803b15801561278257600080fd5b505afa158015612796573d6000803e3d6000fd5b505050506040513d60208110156127ac57600080fd5b81019080805190602001909291905050509050919050565b60008373ffffffffffffffffffffffffffffffffffffffff168273ffffffffffffffffffffffffffffffffffffffff166314afd79e856040518263ffffffff1660e01b8152600401808273ffffffffffffffffffffffffffffffffffffffff1673ffffffffffffffffffffffffffffffffffffffff16815260200191505060206040518083038186803b15801561285a57600080fd5b505afa15801561286e573d6000803e3d6000fd5b505050506040513d602081101561288457600080fd5b810190808051906020019092919050505073ffffffffffffffffffffffffffffffffffffffff161490509392505050565b600060608273ffffffffffffffffffffffffffffffffffffffff1663ca9a33ce866040518263ffffffff1660e01b8152600401808273ffffffffffffffffffffffffffffffffffffffff1673ffffffffffffffffffffffffffffffffffffffff16815260200191505060006040518083038186803b15801561293657600080fd5b505afa15801561294a573d6000803e3d6000fd5b505050506040513d6000823e3d601f19601f82011682018060405250602081101561297457600080fd5b810190808051604051939291908464010000000082111561299457600080fd5b838201915060208201858111156129aa57600080fd5b82518660208202830111640100000000821117156129c757600080fd5b8083526020830192505050908051906020019060200280838360005b838110156129fe5780820151818401526020810190506129e3565b505050509050016040525050509050612a2084826130d790919063ffffffff16565b9150509392505050565b81600260008373ffffffffffffffffffffffffffffffffffffffff1673ffffffffffffffffffffffffffffffffffffffff168152602001908152602001600020541015612adf576040517f08c379a000000000000000000000000000000000000000000000000000000000815260040180806020018281038252601b8152602001807f496e73756666696369656e7420756e626f6e6465642076616c7565000000000081525060200191505060405180910390fd5b612b3182600260008473ffffffffffffffffffffffffffffffffffffffff1673ffffffffffffffffffffffffffffffffffffffff16815260200190815260200160002054612d4c90919063ffffffff16565b600260008373ffffffffffffffffffffffffffffffffffffffff1673ffffffffffffffffffffffffffffffffffffffff168152602001908152602001600020819055506000612b7f82611c3e565b905060008060009054906101000a900473ffffffffffffffffffffffffffffffffffffffff16905060008173ffffffffffffffffffffffffffffffffffffffff1663a9059cbb84876040518363ffffffff1660e01b8152600401808373ffffffffffffffffffffffffffffffffffffffff1673ffffffffffffffffffffffffffffffffffffffff16815260200182815260200192505050602060405180830381600087803b158015612c3057600080fd5b505af1158015612c44573d6000803e3d6000fd5b505050506040513d6020811015612c5a57600080fd5b8101908080519060200190929190505050905080612ce0576040517f08c379a000000000000000000000000000000000000000000000000000000000815260040180806020018281038252600f8152602001807f5472616e73666572206661696c6564000000000000000000000000000000000081525060200191505060405180910390fd5b8273ffffffffffffffffffffffffffffffffffffffff168473ffffffffffffffffffffffffffffffffffffffff167f5ebf1d16423ab39117c0ca9327215b5bcd423aaf7042044c87248a4423d252d9876040518082815260200191505060405180910390a35050505050565b600082821115612dc4576040517f08c379a000000000000000000000000000000000000000000000000000000000815260040180806020018281038252601e8152602001807f536166654d6174683a207375627472616374696f6e206f766572666c6f77000081525060200191505060405180910390fd5b600082840390508091505092915050565b600080828401905083811015612e53576040517f08c379a000000000000000000000000000000000000000000000000000000000815260040180806020018281038252601b8152602001807f536166654d6174683a206164646974696f6e206f766572666c6f77000000000081525060200191505060405180910390fd5b8091505092915050565b60008473ffffffffffffffffffffffffffffffffffffffff168373ffffffffffffffffffffffffffffffffffffffff1663d5f520766040518163ffffffff1660e01b815260040160206040518083038186803b158015612ebc57600080fd5b505afa158015612ed0573d6000803e3d6000fd5b505050506040513d6020811015612ee657600080fd5b810190808051906020019092919050505073ffffffffffffffffffffffffffffffffffffffff1614612f63576040517f08c379a000000000000000000000000000000000000000000000000000000000815260040180806020018281038252602681526020018061325d6026913960400191505060405180910390fd5b60608273ffffffffffffffffffffffffffffffffffffffff1663ca9a33ce856040518263ffffffff1660e01b8152600401808273ffffffffffffffffffffffffffffffffffffffff1673ffffffffffffffffffffffffffffffffffffffff16815260200191505060006040518083038186803b158015612fe257600080fd5b505afa158015612ff6573d6000803e3d6000fd5b505050506040513d6000823e3d601f19601f82011682018060405250602081101561302057600080fd5b810190808051604051939291908464010000000082111561304057600080fd5b8382019150602082018581111561305657600080fd5b825186602082028301116401000000008211171561307357600080fd5b8083526020830192505050908051906020019060200280838360005b838110156130aa57808201518184015260208101905061308f565b5050505090500160405250505090506130cc85826130d790919063ffffffff16565b915050949350505050565b600080600090505b8351811015613146578381815181106130f457fe5b602002602001015173ffffffffffffffffffffffffffffffffffffffff168373ffffffffffffffffffffffffffffffffffffffff16141561313957600191505061314c565b80806001019150506130df565b50600090505b9291505056fe5265666572656e6365204944206e6f7420756e6971756520666f7220686f6c64657220616e64206f70657261746f7242656e6566696369617279206e6f7420646566696e656420666f7220746865206f70657261746f7252657175657374656420616d6f756e742069732067726561746572207468616e2074686520626f6e644f6e6c79206772616e74656520697320616c6c6f77656420746f20776974686472617720626f6e6452657175657374656420616d6f756e742073686f756c642062652067726561746572207468616e207a65726f4f6e6c79206f70657261746f72206f7220746865206f776e657220697320616c6c6f77656420746f20776974686472617720626f6e644e6f742061206772616e746565206f66207468652070726f766964656420636f6e7472616374a265627a7a72315820bc6949f235fe8954c3f931b9feae1a8fb903b314e7fd8a46f277a6d65ea6e94c64736f6c63430005110032",
  "source": "/**\n     \n   \n                            \n                             \n                           \n                           \n                          \n     \n     \n\n                           Trust math, not hardware.\n*/\n\npragma solidity 0.5.17;\n\nimport \"./AbstractBonding.sol\";\n\nimport \"@keep-network/keep-core/contracts/TokenGrant.sol\";\nimport \"@keep-network/keep-core/contracts/libraries/RolesLookup.sol\";\n\n/// @title Keep Bonding\n/// @notice Contract holding deposits from keeps' operators.\ncontract KeepBonding is AbstractBonding {\n    using RolesLookup for address payable;\n\n    // KEEP Token Staking contract.\n    TokenStaking internal tokenStaking;\n\n    // KEEP token grant contract.\n    TokenGrant internal tokenGrant;\n\n    /// @notice Initializes Keep Bonding contract.\n    /// @param registryAddress Keep registry contract address.\n    /// @param tokenStakingAddress KEEP token staking contract address.\n    /// @param tokenGrantAddress KEEP token grant contract address.\n    constructor(\n        address registryAddress,\n        address tokenStakingAddress,\n        address tokenGrantAddress,\n        address _bondTokenAddress\n    ) public AbstractBonding(registryAddress, _bondTokenAddress) {\n        tokenStaking = TokenStaking(tokenStakingAddress);\n        tokenGrant = TokenGrant(tokenGrantAddress);\n    }\n\n    /// @notice Withdraws amount from operator's value available for bonding.\n    /// Should not be used by grantee of managed grants. For this case,\n    /// please use `withdrawAsManagedGrantee`.\n    ///\n    /// This function can be called only by:\n    /// - operator,\n    /// - liquid, staked tokens owner (not a grant),\n    /// - direct staked tokens grantee (not a managed grant).\n    ///\n    /// @param amount Value to withdraw in wei.\n    /// @param operator Address of the operator.\n    function withdraw(uint256 amount, address operator) public {\n        require(\n            msg.sender == operator ||\n                msg.sender.isTokenOwnerForOperator(operator, tokenStaking) ||\n                msg.sender.isGranteeForOperator(operator, tokenGrant),\n            \"Only operator or the owner is allowed to withdraw bond\"\n        );\n\n        withdrawBond(amount, operator);\n    }\n\n    /// @notice Withdraws amount from operator's value available for bonding.\n    /// Can be called only by staked tokens managed grantee.\n    /// @param amount Value to withdraw in wei.\n    /// @param operator Address of the operator.\n    /// @param managedGrant Address of the managed grant contract.\n    function withdrawAsManagedGrantee(\n        uint256 amount,\n        address operator,\n        address managedGrant\n    ) public {\n        require(\n            msg.sender.isManagedGranteeForOperator(\n                operator,\n                managedGrant,\n                tokenGrant\n            ),\n            \"Only grantee is allowed to withdraw bond\"\n        );\n\n        withdrawBond(amount, operator);\n    }\n\n    function isAuthorizedForOperator(\n        address _operator,\n        address _operatorContract\n    ) public view returns (bool) {\n        return\n            tokenStaking.isAuthorizedForOperator(_operator, _operatorContract);\n    }\n\n    function authorizerOf(address _operator) public view returns (address) {\n        return tokenStaking.authorizerOf(_operator);\n    }\n\n    function beneficiaryOf(address _operator)\n        public\n        view\n        returns (address payable)\n    {\n        return tokenStaking.beneficiaryOf(_operator);\n    }\n}\n",
  "sourcePath": "/Users/konrad/Desktop/rumble/fin/local-setup/keep-ecdsa/solidity/contracts/KeepBonding.sol",
  "compiler": {
    "name": "solc",
    "version": "0.5.17+commit.d19bba13.Emscripten.clang"
  },
  "schemaVersion": "3.3.4",
  "updatedAt": "2021-04-13T14:32:09.201Z",
  "networkType": "ethereum",
  "devdoc": {
    "methods": {
      "authorizeSortitionPoolContract(address,address)": {
        "details": "Only operator's authorizer can call this function."
      },
      "availableUnbondedValue(address,address,address)": {
        "details": "Implements function expected by sortition pools' IBonding interface.",
        "params": {
          "authorizedSortitionPool": "Address of authorized sortition pool.",
          "bondCreator": "Address authorized to create a bond.",
          "operator": "Address of the operator."
        },
        "return": "Amount of authorized wei deposit available for bonding."
      },
      "bondAmount(address,address,uint256)": {
        "params": {
          "holder": "Address of the holder of the bond.",
          "operator": "Address of the operator.",
          "referenceID": "Reference ID of the bond."
        },
        "return": "Amount of wei in the selected bond."
      },
      "constructor": {
        "params": {
          "registryAddress": "Keep registry contract address.",
          "tokenGrantAddress": "KEEP token grant contract address.",
          "tokenStakingAddress": "KEEP token staking contract address."
        }
      },
      "createBond(address,address,uint256,uint256,address)": {
        "details": "Function can be executed only by authorized contract. Reference ID should be unique for holder and operator.",
        "params": {
          "amount": "Value to bond in wei.",
          "authorizedSortitionPool": "Address of authorized sortition pool.",
          "holder": "Address of the holder of the bond.",
          "operator": "Address of the operator to bond.",
          "referenceID": "Reference ID used to track the bond by holder."
        }
      },
      "deauthorizeSortitionPoolContract(address,address)": {
        "details": "Only operator's authorizer can call this function."
      },
      "deposit(address,uint256)": {
        "params": {
          "operator": "Address of the operator."
        }
      },
      "freeBond(address,uint256)": {
        "details": "Function requires that caller is the holder of the bond which is being released.",
        "params": {
          "operator": "Address of the bonded operator.",
          "referenceID": "Reference ID of the bond."
        }
      },
      "hasSecondaryAuthorization(address,address)": {
        "details": "See authorizeSortitionPoolContract."
      },
      "reassignBond(address,uint256,address,uint256)": {
        "details": "Function requires that a caller is the current holder of the bond which is being reassigned.",
        "params": {
          "newHolder": "Address of the new holder of the bond.",
          "newReferenceID": "New reference ID to register the bond.",
          "operator": "Address of the bonded operator.",
          "referenceID": "Reference ID of the bond."
        }
      },
      "seizeBond(address,uint256,uint256,address)": {
        "details": "Function requires that a caller is the holder of the bond which is being seized.",
        "params": {
          "amount": "Amount to be seized.",
          "destination": "Address to send the amount to.",
          "operator": "Address of the bonded operator.",
          "referenceID": "Reference ID of the bond."
        }
      },
      "withdraw(uint256,address)": {
        "params": {
          "amount": "Value to withdraw in wei.",
          "operator": "Address of the operator."
        }
      },
      "withdrawAsManagedGrantee(uint256,address,address)": {
        "params": {
          "amount": "Value to withdraw in wei.",
          "managedGrant": "Address of the managed grant contract.",
          "operator": "Address of the operator."
        }
      }
    },
    "title": "Keep Bonding"
  },
  "userdoc": {
    "methods": {
      "authorizeSortitionPoolContract(address,address)": {
        "notice": "Authorizes sortition pool for the provided operator. Operator's authorizers need to authorize individual sortition pools per application since they may be interested in participating only in a subset of keep types used by the given application."
      },
      "availableUnbondedValue(address,address,address)": {
        "notice": "Returns the amount of wei the operator has made available for bonding and that is still unbounded. If the operator doesn't exist or bond creator is not authorized as an operator contract or it is not authorized by the operator or there is no secondary authorization for the provided sortition pool, function returns 0."
      },
      "bondAmount(address,address,uint256)": {
        "notice": "Returns value of wei bonded for the operator."
      },
      "constructor": "Initializes Keep Bonding contract.",
      "createBond(address,address,uint256,uint256,address)": {
        "notice": "Create bond for the given operator, holder, reference and amount."
      },
      "deauthorizeSortitionPoolContract(address,address)": {
        "notice": "Deauthorizes sortition pool for the provided operator. Authorizer may deauthorize individual sortition pool in case the operator should no longer be eligible for work selection and the application represented by the sortition pool should no longer be eligible to create bonds for the operator."
      },
      "deposit(address,uint256)": {
        "notice": "Add the provided value to operator's pool available for bonding."
      },
      "freeBond(address,uint256)": {
        "notice": "Releases the bond and moves the bond value to the operator's unbounded value pool."
      },
      "hasSecondaryAuthorization(address,address)": {
        "notice": "Checks if the sortition pool has been authorized for the provided operator by its authorizer."
      },
      "reassignBond(address,uint256,address,uint256)": {
        "notice": "Reassigns a bond to a new holder under a new reference."
      },
      "seizeBond(address,uint256,uint256,address)": {
        "notice": "Seizes the bond by moving some or all of the locked bond to the provided destination address."
      },
      "withdraw(uint256,address)": {
        "notice": "Withdraws amount from operator's value available for bonding. Should not be used by grantee of managed grants. For this case, please use `withdrawAsManagedGrantee`.     /// This function can be called only by: - operator, - liquid, staked tokens owner (not a grant), - direct staked tokens grantee (not a managed grant). "
      },
      "withdrawAsManagedGrantee(uint256,address,address)": {
        "notice": "Withdraws amount from operator's value available for bonding. Can be called only by staked tokens managed grantee."
      }
    },
    "notice": "Contract holding deposits from keeps' operators."
  }
}