{
  "contractName": "KeepRegistry",
  "abi": [
    {
      "inputs": [],
      "payable": false,
      "stateMutability": "nonpayable",
      "type": "constructor"
    },
    {
      "anonymous": false,
      "inputs": [
        {
          "indexed": false,
          "internalType": "address",
          "name": "defaultPanicButton",
          "type": "address"
        }
      ],
      "name": "DefaultPanicButtonUpdated",
      "type": "event"
    },
    {
      "anonymous": false,
      "inputs": [
        {
          "indexed": false,
          "internalType": "address",
          "name": "governance",
          "type": "address"
        }
      ],
      "name": "GovernanceUpdated",
      "type": "event"
    },
    {
      "anonymous": false,
      "inputs": [
        {
          "indexed": false,
          "internalType": "address",
          "name": "operatorContract",
          "type": "address"
        }
      ],
      "name": "OperatorContractApproved",
      "type": "event"
    },
    {
      "anonymous": false,
      "inputs": [
        {
          "indexed": false,
          "internalType": "address",
          "name": "operatorContract",
          "type": "address"
        }
      ],
      "name": "OperatorContractDisabled",
      "type": "event"
    },
    {
      "anonymous": false,
      "inputs": [
        {
          "indexed": false,
          "internalType": "address",
          "name": "operatorContract",
          "type": "address"
        }
      ],
      "name": "OperatorContractPanicButtonDisabled",
      "type": "event"
    },
    {
      "anonymous": false,
      "inputs": [
        {
          "indexed": false,
          "internalType": "address",
          "name": "operatorContract",
          "type": "address"
        },
        {
          "indexed": false,
          "internalType": "address",
          "name": "panicButton",
          "type": "address"
        }
      ],
      "name": "OperatorContractPanicButtonUpdated",
      "type": "event"
    },
    {
      "anonymous": false,
      "inputs": [
        {
          "indexed": false,
          "internalType": "address",
          "name": "serviceContract",
          "type": "address"
        },
        {
          "indexed": false,
          "internalType": "address",
          "name": "upgrader",
          "type": "address"
        }
      ],
      "name": "OperatorContractUpgraderUpdated",
      "type": "event"
    },
    {
      "anonymous": false,
      "inputs": [
        {
          "indexed": false,
          "internalType": "address",
          "name": "registryKeeper",
          "type": "address"
        }
      ],
      "name": "RegistryKeeperUpdated",
      "type": "event"
    },
    {
      "anonymous": false,
      "inputs": [
        {
          "indexed": false,
          "internalType": "address",
          "name": "operatorContract",
          "type": "address"
        },
        {
          "indexed": false,
          "internalType": "address",
          "name": "keeper",
          "type": "address"
        }
      ],
      "name": "ServiceContractUpgraderUpdated",
      "type": "event"
    },
    {
      "constant": true,
      "inputs": [],
      "name": "defaultPanicButton",
      "outputs": [
        {
          "internalType": "address",
          "name": "",
          "type": "address"
        }
      ],
      "payable": false,
      "stateMutability": "view",
      "type": "function"
    },
    {
      "constant": true,
      "inputs": [],
      "name": "governance",
      "outputs": [
        {
          "internalType": "address",
          "name": "",
          "type": "address"
        }
      ],
      "payable": false,
      "stateMutability": "view",
      "type": "function"
    },
    {
      "constant": true,
      "inputs": [
        {
          "internalType": "address",
          "name": "",
          "type": "address"
        }
      ],
      "name": "operatorContractUpgraders",
      "outputs": [
        {
          "internalType": "address",
          "name": "",
          "type": "address"
        }
      ],
      "payable": false,
      "stateMutability": "view",
      "type": "function"
    },
    {
      "constant": true,
      "inputs": [
        {
          "internalType": "address",
          "name": "",
          "type": "address"
        }
      ],
      "name": "operatorContracts",
      "outputs": [
        {
          "internalType": "enum KeepRegistry.ContractStatus",
          "name": "",
          "type": "uint8"
        }
      ],
      "payable": false,
      "stateMutability": "view",
      "type": "function"
    },
    {
      "constant": true,
      "inputs": [
        {
          "internalType": "address",
          "name": "",
          "type": "address"
        }
      ],
      "name": "panicButtons",
      "outputs": [
        {
          "internalType": "address",
          "name": "",
          "type": "address"
        }
      ],
      "payable": false,
      "stateMutability": "view",
      "type": "function"
    },
    {
      "constant": true,
      "inputs": [],
      "name": "registryKeeper",
      "outputs": [
        {
          "internalType": "address",
          "name": "",
          "type": "address"
        }
      ],
      "payable": false,
      "stateMutability": "view",
      "type": "function"
    },
    {
      "constant": true,
      "inputs": [
        {
          "internalType": "address",
          "name": "",
          "type": "address"
        }
      ],
      "name": "serviceContractUpgraders",
      "outputs": [
        {
          "internalType": "address",
          "name": "",
          "type": "address"
        }
      ],
      "payable": false,
      "stateMutability": "view",
      "type": "function"
    },
    {
      "constant": false,
      "inputs": [
        {
          "internalType": "address",
          "name": "_governance",
          "type": "address"
        }
      ],
      "name": "setGovernance",
      "outputs": [],
      "payable": false,
      "stateMutability": "nonpayable",
      "type": "function"
    },
    {
      "constant": false,
      "inputs": [
        {
          "internalType": "address",
          "name": "_registryKeeper",
          "type": "address"
        }
      ],
      "name": "setRegistryKeeper",
      "outputs": [],
      "payable": false,
      "stateMutability": "nonpayable",
      "type": "function"
    },
    {
      "constant": false,
      "inputs": [
        {
          "internalType": "address",
          "name": "_panicButton",
          "type": "address"
        }
      ],
      "name": "setDefaultPanicButton",
      "outputs": [],
      "payable": false,
      "stateMutability": "nonpayable",
      "type": "function"
    },
    {
      "constant": false,
      "inputs": [
        {
          "internalType": "address",
          "name": "_operatorContract",
          "type": "address"
        },
        {
          "internalType": "address",
          "name": "_panicButton",
          "type": "address"
        }
      ],
      "name": "setOperatorContractPanicButton",
      "outputs": [],
      "payable": false,
      "stateMutability": "nonpayable",
      "type": "function"
    },
    {
      "constant": false,
      "inputs": [
        {
          "internalType": "address",
          "name": "_operatorContract",
          "type": "address"
        }
      ],
      "name": "disableOperatorContractPanicButton",
      "outputs": [],
      "payable": false,
      "stateMutability": "nonpayable",
      "type": "function"
    },
    {
      "constant": false,
      "inputs": [
        {
          "internalType": "address",
          "name": "_serviceContract",
          "type": "address"
        },
        {
          "internalType": "address",
          "name": "_operatorContractUpgrader",
          "type": "address"
        }
      ],
      "name": "setOperatorContractUpgrader",
      "outputs": [],
      "payable": false,
      "stateMutability": "nonpayable",
      "type": "function"
    },
    {
      "constant": false,
      "inputs": [
        {
          "internalType": "address",
          "name": "_operatorContract",
          "type": "address"
        },
        {
          "internalType": "address",
          "name": "_serviceContractUpgrader",
          "type": "address"
        }
      ],
      "name": "setServiceContractUpgrader",
      "outputs": [],
      "payable": false,
      "stateMutability": "nonpayable",
      "type": "function"
    },
    {
      "constant": false,
      "inputs": [
        {
          "internalType": "address",
          "name": "operatorContract",
          "type": "address"
        }
      ],
      "name": "approveOperatorContract",
      "outputs": [],
      "payable": false,
      "stateMutability": "nonpayable",
      "type": "function"
    },
    {
      "constant": false,
      "inputs": [
        {
          "internalType": "address",
          "name": "operatorContract",
          "type": "address"
        }
      ],
      "name": "disableOperatorContract",
      "outputs": [],
      "payable": false,
      "stateMutability": "nonpayable",
      "type": "function"
    },
    {
      "constant": true,
      "inputs": [
        {
          "internalType": "address",
          "name": "operatorContract",
          "type": "address"
        }
      ],
      "name": "isNewOperatorContract",
      "outputs": [
        {
          "internalType": "bool",
          "name": "",
          "type": "bool"
        }
      ],
      "payable": false,
      "stateMutability": "view",
      "type": "function"
    },
    {
      "constant": true,
      "inputs": [
        {
          "internalType": "address",
          "name": "operatorContract",
          "type": "address"
        }
      ],
      "name": "isApprovedOperatorContract",
      "outputs": [
        {
          "internalType": "bool",
          "name": "",
          "type": "bool"
        }
      ],
      "payable": false,
      "stateMutability": "view",
      "type": "function"
    },
    {
      "constant": true,
      "inputs": [
        {
          "internalType": "address",
          "name": "_serviceContract",
          "type": "address"
        }
      ],
      "name": "operatorContractUpgraderFor",
      "outputs": [
        {
          "internalType": "address",
          "name": "",
          "type": "address"
        }
      ],
      "payable": false,
      "stateMutability": "view",
      "type": "function"
    },
    {
      "constant": true,
      "inputs": [
        {
          "internalType": "address",
          "name": "_operatorContract",
          "type": "address"
        }
      ],
      "name": "serviceContractUpgraderFor",
      "outputs": [
        {
          "internalType": "address",
          "name": "",
          "type": "address"
        }
      ],
      "payable": false,
      "stateMutability": "view",
      "type": "function"
    }
  ],
  "bytecode": "0x608060405234801561001057600080fd5b50336000806101000a81548173ffffffffffffffffffffffffffffffffffffffff021916908373ffffffffffffffffffffffffffffffffffffffff16021790555033600160006101000a81548173ffffffffffffffffffffffffffffffffffffffff021916908373ffffffffffffffffffffffffffffffffffffffff16021790555033600360006101000a81548173ffffffffffffffffffffffffffffffffffffffff021916908373ffffffffffffffffffffffffffffffffffffffff16021790555061207d806100e26000396000f3fe608060405234801561001057600080fd5b506004361061012c5760003560e01c80636557eccf116100ad578063ab033ea911610071578063ab033ea914610691578063d82437f4146106d5578063d858008a14610739578063db816b62146107bd578063ff111e3b146108015761012c565b80636557eccf1461047f578063716d6061146105035780637b4df9381461056757806384c07bd2146105eb57806384d57689146106355761012c565b80635a9671f5116100f45780635a9671f5146102cd5780635aa6e67514610329578063618dae2014610373578063637e9dbe146103b757806363dc5fcf146103fb5761012c565b806302db580b1461013157806309a6f73f146101755780632afb015e146101b95780633ae70f46146102035780633dbcab4514610267575b600080fd5b6101736004803603602081101561014757600080fd5b81019080803573ffffffffffffffffffffffffffffffffffffffff169060200190929190505050610885565b005b6101b76004803603602081101561018b57600080fd5b81019080803573ffffffffffffffffffffffffffffffffffffffff169060200190929190505050610b2c565b005b6101c1610dfe565b604051808273ffffffffffffffffffffffffffffffffffffffff1673ffffffffffffffffffffffffffffffffffffffff16815260200191505060405180910390f35b6102656004803603604081101561021957600080fd5b81019080803573ffffffffffffffffffffffffffffffffffffffff169060200190929190803573ffffffffffffffffffffffffffffffffffffffff169060200190929190505050610e24565b005b6102a96004803603602081101561027d57600080fd5b81019080803573ffffffffffffffffffffffffffffffffffffffff169060200190929190505050610fff565b604051808260028111156102b957fe5b60ff16815260200191505060405180910390f35b61030f600480360360208110156102e357600080fd5b81019080803573ffffffffffffffffffffffffffffffffffffffff16906020019092919050505061101f565b604051808215151515815260200191505060405180910390f35b61033161108d565b604051808273ffffffffffffffffffffffffffffffffffffffff1673ffffffffffffffffffffffffffffffffffffffff16815260200191505060405180910390f35b6103b56004803603602081101561038957600080fd5b81019080803573ffffffffffffffffffffffffffffffffffffffff1690602001909291905050506110b2565b005b6103f9600480360360208110156103cd57600080fd5b81019080803573ffffffffffffffffffffffffffffffffffffffff16906020019092919050505061123d565b005b61043d6004803603602081101561041157600080fd5b81019080803573ffffffffffffffffffffffffffffffffffffffff169060200190929190505050611546565b604051808273ffffffffffffffffffffffffffffffffffffffff1673ffffffffffffffffffffffffffffffffffffffff16815260200191505060405180910390f35b6104c16004803603602081101561049557600080fd5b81019080803573ffffffffffffffffffffffffffffffffffffffff1690602001909291905050506115af565b604051808273ffffffffffffffffffffffffffffffffffffffff1673ffffffffffffffffffffffffffffffffffffffff16815260200191505060405180910390f35b6105656004803603604081101561051957600080fd5b81019080803573ffffffffffffffffffffffffffffffffffffffff169060200190929190803573ffffffffffffffffffffffffffffffffffffffff169060200190929190505050611618565b005b6105a96004803603602081101561057d57600080fd5b81019080803573ffffffffffffffffffffffffffffffffffffffff1690602001909291905050506117f3565b604051808273ffffffffffffffffffffffffffffffffffffffff1673ffffffffffffffffffffffffffffffffffffffff16815260200191505060405180910390f35b6105f3611826565b604051808273ffffffffffffffffffffffffffffffffffffffff1673ffffffffffffffffffffffffffffffffffffffff16815260200191505060405180910390f35b6106776004803603602081101561064b57600080fd5b81019080803573ffffffffffffffffffffffffffffffffffffffff16906020019092919050505061184c565b604051808215151515815260200191505060405180910390f35b6106d3600480360360208110156106a757600080fd5b81019080803573ffffffffffffffffffffffffffffffffffffffff1690602001909291905050506118bb565b005b610737600480360360408110156106eb57600080fd5b81019080803573ffffffffffffffffffffffffffffffffffffffff169060200190929190803573ffffffffffffffffffffffffffffffffffffffff169060200190929190505050611a44565b005b61077b6004803603602081101561074f57600080fd5b81019080803573ffffffffffffffffffffffffffffffffffffffff169060200190929190505050611dea565b604051808273ffffffffffffffffffffffffffffffffffffffff1673ffffffffffffffffffffffffffffffffffffffff16815260200191505060405180910390f35b6107ff600480360360208110156107d357600080fd5b81019080803573ffffffffffffffffffffffffffffffffffffffff169060200190929190505050611e1d565b005b6108436004803603602081101561081757600080fd5b81019080803573ffffffffffffffffffffffffffffffffffffffff169060200190929190505050611fa8565b604051808273ffffffffffffffffffffffffffffffffffffffff1673ffffffffffffffffffffffffffffffffffffffff16815260200191505060405180910390f35b8061088f8161101f565b610901576040517f08c379a000000000000000000000000000000000000000000000000000000000815260040180806020018281038252601b8152602001807f4e6f742061206e6577206f70657261746f7220636f6e7472616374000000000081525060200191505060405180910390fd5b3373ffffffffffffffffffffffffffffffffffffffff16600160009054906101000a900473ffffffffffffffffffffffffffffffffffffffff1673ffffffffffffffffffffffffffffffffffffffff16146109c4576040517f08c379a000000000000000000000000000000000000000000000000000000000815260040180806020018281038252600e8152602001807f4e6f7420617574686f72697a656400000000000000000000000000000000000081525060200191505060405180910390fd5b6001600660008473ffffffffffffffffffffffffffffffffffffffff1673ffffffffffffffffffffffffffffffffffffffff16815260200190815260200160002060006101000a81548160ff02191690836002811115610a2057fe5b0217905550600360009054906101000a900473ffffffffffffffffffffffffffffffffffffffff16600260008473ffffffffffffffffffffffffffffffffffffffff1673ffffffffffffffffffffffffffffffffffffffff16815260200190815260200160002060006101000a81548173ffffffffffffffffffffffffffffffffffffffff021916908373ffffffffffffffffffffffffffffffffffffffff1602179055507fb5d7fbd1d67a09be2dd3ba169be0ebfb43f1d3fd31b12e9dc9e5bd98517bfafb82604051808273ffffffffffffffffffffffffffffffffffffffff1673ffffffffffffffffffffffffffffffffffffffff16815260200191505060405180910390a15050565b80610b368161184c565b610b8b576040517f08c379a00000000000000000000000000000000000000000000000000000000081526004018080602001828103825260218152602001806120036021913960400191505060405180910390fd5b816000600260008373ffffffffffffffffffffffffffffffffffffffff1673ffffffffffffffffffffffffffffffffffffffff16815260200190815260200160002060009054906101000a900473ffffffffffffffffffffffffffffffffffffffff169050600073ffffffffffffffffffffffffffffffffffffffff168173ffffffffffffffffffffffffffffffffffffffff161415610c93576040517f08c379a00000000000000000000000000000000000000000000000000000000081526004018080602001828103825260158152602001807f50616e696320627574746f6e2064697361626c6564000000000000000000000081525060200191505060405180910390fd5b3373ffffffffffffffffffffffffffffffffffffffff168173ffffffffffffffffffffffffffffffffffffffff1614610d34576040517f08c379a000000000000000000000000000000000000000000000000000000000815260040180806020018281038252600e8152602001807f4e6f7420617574686f72697a656400000000000000000000000000000000000081525060200191505060405180910390fd5b6002600660008673ffffffffffffffffffffffffffffffffffffffff1673ffffffffffffffffffffffffffffffffffffffff16815260200190815260200160002060006101000a81548160ff02191690836002811115610d9057fe5b02179055507f61e8cab67fc6f073d7e3bbd8d936b519daf95f5655e8b22563c63eaba75f8fa384604051808273ffffffffffffffffffffffffffffffffffffffff1673ffffffffffffffffffffffffffffffffffffffff16815260200191505060405180910390a150505050565b600360009054906101000a900473ffffffffffffffffffffffffffffffffffffffff1681565b3373ffffffffffffffffffffffffffffffffffffffff166000809054906101000a900473ffffffffffffffffffffffffffffffffffffffff1673ffffffffffffffffffffffffffffffffffffffff1614610ee6576040517f08c379a000000000000000000000000000000000000000000000000000000000815260040180806020018281038252600e8152602001807f4e6f7420617574686f72697a656400000000000000000000000000000000000081525060200191505060405180910390fd5b80600560008473ffffffffffffffffffffffffffffffffffffffff1673ffffffffffffffffffffffffffffffffffffffff16815260200190815260200160002060006101000a81548173ffffffffffffffffffffffffffffffffffffffff021916908373ffffffffffffffffffffffffffffffffffffffff1602179055507f067d7db72df8e5428d719a48ef14b072cdb3942706bfc6becc7198a316d73b788282604051808373ffffffffffffffffffffffffffffffffffffffff1673ffffffffffffffffffffffffffffffffffffffff1681526020018273ffffffffffffffffffffffffffffffffffffffff1673ffffffffffffffffffffffffffffffffffffffff1681526020019250505060405180910390a15050565b60066020528060005260406000206000915054906101000a900460ff1681565b600080600281111561102d57fe5b600660008473ffffffffffffffffffffffffffffffffffffffff1673ffffffffffffffffffffffffffffffffffffffff16815260200190815260200160002060009054906101000a900460ff16600281111561108557fe5b149050919050565b6000809054906101000a900473ffffffffffffffffffffffffffffffffffffffff1681565b3373ffffffffffffffffffffffffffffffffffffffff166000809054906101000a900473ffffffffffffffffffffffffffffffffffffffff1673ffffffffffffffffffffffffffffffffffffffff1614611174576040517f08c379a000000000000000000000000000000000000000000000000000000000815260040180806020018281038252600e8152602001807f4e6f7420617574686f72697a656400000000000000000000000000000000000081525060200191505060405180910390fd5b80600360006101000a81548173ffffffffffffffffffffffffffffffffffffffff021916908373ffffffffffffffffffffffffffffffffffffffff1602179055507f06f6f3a56d213caa17abfd21597ab6f8660771e05f9d430505ce755a2fdbb551600360009054906101000a900473ffffffffffffffffffffffffffffffffffffffff16604051808273ffffffffffffffffffffffffffffffffffffffff1673ffffffffffffffffffffffffffffffffffffffff16815260200191505060405180910390a150565b806112478161184c565b61129c576040517f08c379a00000000000000000000000000000000000000000000000000000000081526004018080602001828103825260218152602001806120036021913960400191505060405180910390fd5b3373ffffffffffffffffffffffffffffffffffffffff166000809054906101000a900473ffffffffffffffffffffffffffffffffffffffff1673ffffffffffffffffffffffffffffffffffffffff161461135e576040517f08c379a000000000000000000000000000000000000000000000000000000000815260040180806020018281038252600e8152602001807f4e6f7420617574686f72697a656400000000000000000000000000000000000081525060200191505060405180910390fd5b600073ffffffffffffffffffffffffffffffffffffffff16600260008473ffffffffffffffffffffffffffffffffffffffff1673ffffffffffffffffffffffffffffffffffffffff16815260200190815260200160002060009054906101000a900473ffffffffffffffffffffffffffffffffffffffff1673ffffffffffffffffffffffffffffffffffffffff161415611460576040517f08c379a000000000000000000000000000000000000000000000000000000000815260040180806020018281038252601d8152602001807f50616e696320627574746f6e20616c72656164792064697361626c656400000081525060200191505060405180910390fd5b6000600260008473ffffffffffffffffffffffffffffffffffffffff1673ffffffffffffffffffffffffffffffffffffffff16815260200190815260200160002060006101000a81548173ffffffffffffffffffffffffffffffffffffffff021916908373ffffffffffffffffffffffffffffffffffffffff1602179055507f825c13d61db27b3c0dae8523f70310e87c2dfd99ea7023664547208322ff679c82604051808273ffffffffffffffffffffffffffffffffffffffff1673ffffffffffffffffffffffffffffffffffffffff16815260200191505060405180910390a15050565b6000600460008373ffffffffffffffffffffffffffffffffffffffff1673ffffffffffffffffffffffffffffffffffffffff16815260200190815260200160002060009054906101000a900473ffffffffffffffffffffffffffffffffffffffff169050919050565b6000600560008373ffffffffffffffffffffffffffffffffffffffff1673ffffffffffffffffffffffffffffffffffffffff16815260200190815260200160002060009054906101000a900473ffffffffffffffffffffffffffffffffffffffff169050919050565b3373ffffffffffffffffffffffffffffffffffffffff166000809054906101000a900473ffffffffffffffffffffffffffffffffffffffff1673ffffffffffffffffffffffffffffffffffffffff16146116da576040517f08c379a000000000000000000000000000000000000000000000000000000000815260040180806020018281038252600e8152602001807f4e6f7420617574686f72697a656400000000000000000000000000000000000081525060200191505060405180910390fd5b80600460008473ffffffffffffffffffffffffffffffffffffffff1673ffffffffffffffffffffffffffffffffffffffff16815260200190815260200160002060006101000a81548173ffffffffffffffffffffffffffffffffffffffff021916908373ffffffffffffffffffffffffffffffffffffffff1602179055507f6f5a686a46a4dd38461a6a5ce54c3b8dd7b989914b5a0748c8d6669c794778528282604051808373ffffffffffffffffffffffffffffffffffffffff1673ffffffffffffffffffffffffffffffffffffffff1681526020018273ffffffffffffffffffffffffffffffffffffffff1673ffffffffffffffffffffffffffffffffffffffff1681526020019250505060405180910390a15050565b60026020528060005260406000206000915054906101000a900473ffffffffffffffffffffffffffffffffffffffff1681565b600160009054906101000a900473ffffffffffffffffffffffffffffffffffffffff1681565b60006001600281111561185b57fe5b600660008473ffffffffffffffffffffffffffffffffffffffff1673ffffffffffffffffffffffffffffffffffffffff16815260200190815260200160002060009054906101000a900460ff1660028111156118b357fe5b149050919050565b3373ffffffffffffffffffffffffffffffffffffffff166000809054906101000a900473ffffffffffffffffffffffffffffffffffffffff1673ffffffffffffffffffffffffffffffffffffffff161461197d576040517f08c379a000000000000000000000000000000000000000000000000000000000815260040180806020018281038252600e8152602001807f4e6f7420617574686f72697a656400000000000000000000000000000000000081525060200191505060405180910390fd5b806000806101000a81548173ffffffffffffffffffffffffffffffffffffffff021916908373ffffffffffffffffffffffffffffffffffffffff1602179055507f9d3e522e1e47a2f6009739342b9cc7b252a1888154e843ab55ee1c81745795ab6000809054906101000a900473ffffffffffffffffffffffffffffffffffffffff16604051808273ffffffffffffffffffffffffffffffffffffffff1673ffffffffffffffffffffffffffffffffffffffff16815260200191505060405180910390a150565b81611a4e8161184c565b611aa3576040517f08c379a00000000000000000000000000000000000000000000000000000000081526004018080602001828103825260218152602001806120036021913960400191505060405180910390fd5b3373ffffffffffffffffffffffffffffffffffffffff166000809054906101000a900473ffffffffffffffffffffffffffffffffffffffff1673ffffffffffffffffffffffffffffffffffffffff1614611b65576040517f08c379a000000000000000000000000000000000000000000000000000000000815260040180806020018281038252600e8152602001807f4e6f7420617574686f72697a656400000000000000000000000000000000000081525060200191505060405180910390fd5b600073ffffffffffffffffffffffffffffffffffffffff16600260008573ffffffffffffffffffffffffffffffffffffffff1673ffffffffffffffffffffffffffffffffffffffff16815260200190815260200160002060009054906101000a900473ffffffffffffffffffffffffffffffffffffffff1673ffffffffffffffffffffffffffffffffffffffff161415611c4a576040517f08c379a0000000000000000000000000000000000000000000000000000000008152600401808060200182810382526027815260200180611fdc6027913960400191505060405180910390fd5b600073ffffffffffffffffffffffffffffffffffffffff168273ffffffffffffffffffffffffffffffffffffffff161415611cd0576040517f08c379a00000000000000000000000000000000000000000000000000000000081526004018080602001828103825260258152602001806120246025913960400191505060405180910390fd5b81600260008573ffffffffffffffffffffffffffffffffffffffff1673ffffffffffffffffffffffffffffffffffffffff16815260200190815260200160002060006101000a81548173ffffffffffffffffffffffffffffffffffffffff021916908373ffffffffffffffffffffffffffffffffffffffff1602179055507f5f94d794a8a48b75e2ca89133a5b8748d14217648260c5247e57e3d314fd52a78383604051808373ffffffffffffffffffffffffffffffffffffffff1673ffffffffffffffffffffffffffffffffffffffff1681526020018273ffffffffffffffffffffffffffffffffffffffff1673ffffffffffffffffffffffffffffffffffffffff1681526020019250505060405180910390a1505050565b60046020528060005260406000206000915054906101000a900473ffffffffffffffffffffffffffffffffffffffff1681565b3373ffffffffffffffffffffffffffffffffffffffff166000809054906101000a900473ffffffffffffffffffffffffffffffffffffffff1673ffffffffffffffffffffffffffffffffffffffff1614611edf576040517f08c379a000000000000000000000000000000000000000000000000000000000815260040180806020018281038252600e8152602001807f4e6f7420617574686f72697a656400000000000000000000000000000000000081525060200191505060405180910390fd5b80600160006101000a81548173ffffffffffffffffffffffffffffffffffffffff021916908373ffffffffffffffffffffffffffffffffffffffff1602179055507fe5ecd8c922f03a416959a48c633d1bfdd1615ea46923a0a3e5d65ec90a38e038600160009054906101000a900473ffffffffffffffffffffffffffffffffffffffff16604051808273ffffffffffffffffffffffffffffffffffffffff1673ffffffffffffffffffffffffffffffffffffffff16815260200191505060405180910390a150565b60056020528060005260406000206000915054906101000a900473ffffffffffffffffffffffffffffffffffffffff168156fe44697361626c65642070616e696320627574746f6e2063616e6e6f7420626520757064617465644e6f7420616e20617070726f766564206f70657261746f7220636f6e747261637450616e696320627574746f6e206d757374206265206e6f6e2d7a65726f2061646472657373a265627a7a723158200c5e5dae8471ac31b13f93dda7fd90757718a3fca0b4ab8d17a2d20e209d31db64736f6c63430005110032",
  "source": "pragma solidity 0.5.17;\n\n/// @title KeepRegistry\n/// @notice Governance owned registry of approved contracts and roles.\ncontract KeepRegistry {\n    enum ContractStatus {New, Approved, Disabled}\n\n    // Governance role is to enable recovery from key compromise by rekeying\n    // other roles. Also, it can disable operator contract panic buttons\n    // permanently.\n    address public governance;\n\n    // Registry Keeper maintains approved operator contracts. Each operator\n    // contract must be approved before it can be authorized by a staker or\n    // used by a service contract.\n    address public registryKeeper;\n\n    // Each operator contract has a Panic Button which can disable malicious\n    // or malfunctioning contract that have been previously approved by the\n    // Registry Keeper.\n    //\n    // New operator contract added to the registry has a default panic button\n    // value assigned (defaultPanicButton). Panic button for each operator\n    // contract can be later updated by Governance to individual value.\n    //\n    // It is possible to disable panic button for individual contract by\n    // setting the panic button to zero address. In such case, operator contract\n    // can not be disabled and is permanently approved in the registry.\n    mapping(address => address) public panicButtons;\n\n    // Default panic button for each new operator contract added to the\n    // registry. Can be later updated for each contract.\n    address public defaultPanicButton;\n\n    // Each service contract has a Operator Contract Upgrader whose purpose\n    // is to manage operator contracts for that specific service contract.\n    // The Operator Contract Upgrader can add new operator contracts to the\n    // service contracts operator contract list, and deprecate old ones.\n    mapping(address => address) public operatorContractUpgraders;\n\n    // Operator contract may have a Service Contract Upgrader whose purpose is\n    // to manage service contracts for that specific operator contract.\n    // Service Contract Upgrader can add and remove service contracts\n    // from the list of service contracts approved to work with the operator\n    // contract. List of service contracts is maintained in the operator\n    // contract and is optional - not every operator contract needs to have\n    // a list of service contracts it wants to cooperate with.\n    mapping(address => address) public serviceContractUpgraders;\n\n    // The registry of operator contracts\n    mapping(address => ContractStatus) public operatorContracts;\n\n    event OperatorContractApproved(address operatorContract);\n    event OperatorContractDisabled(address operatorContract);\n\n    event GovernanceUpdated(address governance);\n    event RegistryKeeperUpdated(address registryKeeper);\n    event DefaultPanicButtonUpdated(address defaultPanicButton);\n    event OperatorContractPanicButtonDisabled(address operatorContract);\n    event OperatorContractPanicButtonUpdated(\n        address operatorContract,\n        address panicButton\n    );\n    event OperatorContractUpgraderUpdated(\n        address serviceContract,\n        address upgrader\n    );\n    event ServiceContractUpgraderUpdated(\n        address operatorContract,\n        address keeper\n    );\n\n    modifier onlyGovernance() {\n        require(governance == msg.sender, \"Not authorized\");\n        _;\n    }\n\n    modifier onlyRegistryKeeper() {\n        require(registryKeeper == msg.sender, \"Not authorized\");\n        _;\n    }\n\n    modifier onlyPanicButton(address _operatorContract) {\n        address panicButton = panicButtons[_operatorContract];\n        require(panicButton != address(0), \"Panic button disabled\");\n        require(panicButton == msg.sender, \"Not authorized\");\n        _;\n    }\n\n    modifier onlyForNewContract(address _operatorContract) {\n        require(\n            isNewOperatorContract(_operatorContract),\n            \"Not a new operator contract\"\n        );\n        _;\n    }\n\n    modifier onlyForApprovedContract(address _operatorContract) {\n        require(\n            isApprovedOperatorContract(_operatorContract),\n            \"Not an approved operator contract\"\n        );\n        _;\n    }\n\n    constructor() public {\n        governance = msg.sender;\n        registryKeeper = msg.sender;\n        defaultPanicButton = msg.sender;\n    }\n\n    function setGovernance(address _governance) public onlyGovernance {\n        governance = _governance;\n        emit GovernanceUpdated(governance);\n    }\n\n    function setRegistryKeeper(address _registryKeeper) public onlyGovernance {\n        registryKeeper = _registryKeeper;\n        emit RegistryKeeperUpdated(registryKeeper);\n    }\n\n    function setDefaultPanicButton(address _panicButton) public onlyGovernance {\n        defaultPanicButton = _panicButton;\n        emit DefaultPanicButtonUpdated(defaultPanicButton);\n    }\n\n    function setOperatorContractPanicButton(\n        address _operatorContract,\n        address _panicButton\n    ) public onlyForApprovedContract(_operatorContract) onlyGovernance {\n        require(\n            panicButtons[_operatorContract] != address(0),\n            \"Disabled panic button cannot be updated\"\n        );\n        require(\n            _panicButton != address(0),\n            \"Panic button must be non-zero address\"\n        );\n\n        panicButtons[_operatorContract] = _panicButton;\n\n        emit OperatorContractPanicButtonUpdated(\n            _operatorContract,\n            _panicButton\n        );\n    }\n\n    function disableOperatorContractPanicButton(address _operatorContract)\n        public\n        onlyForApprovedContract(_operatorContract)\n        onlyGovernance\n    {\n        require(\n            panicButtons[_operatorContract] != address(0),\n            \"Panic button already disabled\"\n        );\n\n        panicButtons[_operatorContract] = address(0);\n\n        emit OperatorContractPanicButtonDisabled(_operatorContract);\n    }\n\n    function setOperatorContractUpgrader(\n        address _serviceContract,\n        address _operatorContractUpgrader\n    ) public onlyGovernance {\n        operatorContractUpgraders[_serviceContract] = _operatorContractUpgrader;\n        emit OperatorContractUpgraderUpdated(\n            _serviceContract,\n            _operatorContractUpgrader\n        );\n    }\n\n    function setServiceContractUpgrader(\n        address _operatorContract,\n        address _serviceContractUpgrader\n    ) public onlyGovernance {\n        serviceContractUpgraders[_operatorContract] = _serviceContractUpgrader;\n        emit ServiceContractUpgraderUpdated(\n            _operatorContract,\n            _serviceContractUpgrader\n        );\n    }\n\n    function approveOperatorContract(address operatorContract)\n        public\n        onlyForNewContract(operatorContract)\n        onlyRegistryKeeper\n    {\n        operatorContracts[operatorContract] = ContractStatus.Approved;\n        panicButtons[operatorContract] = defaultPanicButton;\n        emit OperatorContractApproved(operatorContract);\n    }\n\n    function disableOperatorContract(address operatorContract)\n        public\n        onlyForApprovedContract(operatorContract)\n        onlyPanicButton(operatorContract)\n    {\n        operatorContracts[operatorContract] = ContractStatus.Disabled;\n        emit OperatorContractDisabled(operatorContract);\n    }\n\n    function isNewOperatorContract(address operatorContract)\n        public\n        view\n        returns (bool)\n    {\n        return operatorContracts[operatorContract] == ContractStatus.New;\n    }\n\n    function isApprovedOperatorContract(address operatorContract)\n        public\n        view\n        returns (bool)\n    {\n        return operatorContracts[operatorContract] == ContractStatus.Approved;\n    }\n\n    function operatorContractUpgraderFor(address _serviceContract)\n        public\n        view\n        returns (address)\n    {\n        return operatorContractUpgraders[_serviceContract];\n    }\n\n    function serviceContractUpgraderFor(address _operatorContract)\n        public\n        view\n        returns (address)\n    {\n        return serviceContractUpgraders[_operatorContract];\n    }\n}\n",
  "sourcePath": "@keep-network/keep-core/contracts/KeepRegistry.sol",
  "compiler": {
    "name": "solc",
    "version": "0.5.17+commit.d19bba13.Emscripten.clang"
  },
  "schemaVersion": "3.3.4",
  "updatedAt": "2021-04-30T09:26:06.809Z",
  "networkType": "ethereum",
  "devdoc": {
    "methods": {},
    "title": "KeepRegistry"
  },
  "userdoc": {
    "methods": {},
    "notice": "Governance owned registry of approved contracts and roles."
  }
}