{
  "contractName": "ManagedGrantStub",
  "abi": [
    {
      "inputs": [
        {
          "internalType": "address",
          "name": "_grantee",
          "type": "address"
        }
      ],
      "payable": false,
      "stateMutability": "nonpayable",
      "type": "constructor"
    },
    {
      "constant": true,
      "inputs": [],
      "name": "grantee",
      "outputs": [
        {
          "internalType": "address",
          "name": "",
          "type": "address"
        }
      ],
      "payable": false,
      "stateMutability": "view",
      "type": "function"
    }
  ],
  "bytecode": "0x608060405234801561001057600080fd5b506040516101623803806101628339818101604052602081101561003357600080fd5b8101908080519060200190929190505050806000806101000a81548173ffffffffffffffffffffffffffffffffffffffff021916908373ffffffffffffffffffffffffffffffffffffffff1602179055505060cf806100936000396000f3fe6080604052348015600f57600080fd5b506004361060285760003560e01c8063d5f5207614602d575b600080fd5b60336075565b604051808273ffffffffffffffffffffffffffffffffffffffff1673ffffffffffffffffffffffffffffffffffffffff16815260200191505060405180910390f35b6000809054906101000a900473ffffffffffffffffffffffffffffffffffffffff168156fea265627a7a72315820307e9eacafeb89b4bc148d2afe252e1cb3f14f3da0146198973482e14674701064736f6c63430005110032",
  "source": "pragma solidity 0.5.17;\n\ncontract ManagedGrantStub {\n    address public grantee;\n\n    constructor(address _grantee) public {\n        grantee = _grantee;\n    }\n}",
  "sourcePath": "/home/kowal/Projects/sovryn/keep-ecdsa/solidity/contracts/test/ManagedGrantStub.sol",
  "compiler": {
    "name": "solc",
    "version": "0.5.17+commit.d19bba13.Emscripten.clang"
  },
  "schemaVersion": "3.0.22",
  "updatedAt": "2021-01-29T17:35:44.334Z",
  "devdoc": {
    "methods": {}
  },
  "userdoc": {
    "methods": {}
  }
}