{
  "contractName": "RandomBeaconStub",
  "abi": [
    {
      "anonymous": false,
      "inputs": [
        {
          "indexed": false,
          "internalType": "uint256",
          "name": "requestId",
          "type": "uint256"
        },
        {
          "indexed": false,
          "internalType": "uint256",
          "name": "entry",
          "type": "uint256"
        }
      ],
      "name": "RelayEntryGenerated",
      "type": "event"
    },
    {
      "constant": true,
      "inputs": [],
      "name": "requestCount",
      "outputs": [
        {
          "internalType": "uint256",
          "name": "",
          "type": "uint256"
        }
      ],
      "payable": false,
      "stateMutability": "view",
      "type": "function"
    },
    {
      "constant": true,
      "inputs": [
        {
          "internalType": "uint256",
          "name": "callbackGas",
          "type": "uint256"
        }
      ],
      "name": "entryFeeEstimate",
      "outputs": [
        {
          "internalType": "uint256",
          "name": "",
          "type": "uint256"
        }
      ],
      "payable": false,
      "stateMutability": "view",
      "type": "function"
    },
    {
      "constant": false,
      "inputs": [],
      "name": "requestRelayEntry",
      "outputs": [
        {
          "internalType": "uint256",
          "name": "",
          "type": "uint256"
        }
      ],
      "payable": true,
      "stateMutability": "payable",
      "type": "function"
    },
    {
      "constant": false,
      "inputs": [
        {
          "internalType": "address",
          "name": "callbackContract",
          "type": "address"
        },
        {
          "internalType": "uint256",
          "name": "callbackGas",
          "type": "uint256"
        }
      ],
      "name": "requestRelayEntry",
      "outputs": [
        {
          "internalType": "uint256",
          "name": "",
          "type": "uint256"
        }
      ],
      "payable": true,
      "stateMutability": "payable",
      "type": "function"
    },
    {
      "constant": false,
      "inputs": [
        {
          "internalType": "uint256",
          "name": "newEntry",
          "type": "uint256"
        }
      ],
      "name": "setEntry",
      "outputs": [],
      "payable": false,
      "stateMutability": "nonpayable",
      "type": "function"
    },
    {
      "constant": false,
      "inputs": [
        {
          "internalType": "bool",
          "name": "value",
          "type": "bool"
        }
      ],
      "name": "setShouldFail",
      "outputs": [],
      "payable": false,
      "stateMutability": "nonpayable",
      "type": "function"
    }
  ],
  "bytecode": "0x6080604052603a6000556000600155600060025534801561001f57600080fd5b5061043c8061002f6000396000f3fe6080604052600436106100555760003560e01c80632d53fe8b1461005a5780635badbe4c1461007857806370fdb314146100a3578063a5aa5c12146100de578063d13f13911461011b578063e1f958901461016a575b600080fd5b6100626101cc565b6040518082815260200191505060405180910390f35b34801561008457600080fd5b5061008d6101de565b6040518082815260200191505060405180910390f35b3480156100af57600080fd5b506100dc600480360360208110156100c657600080fd5b81019080803590602001909291905050506101e4565b005b3480156100ea57600080fd5b506101196004803603602081101561010157600080fd5b810190808035151590602001909291905050506101ee565b005b34801561012757600080fd5b506101546004803603602081101561013e57600080fd5b810190808035906020019092919050505061020b565b6040518082815260200191505060405180910390f35b6101b66004803603604081101561018057600080fd5b81019080803573ffffffffffffffffffffffffffffffffffffffff16906020019092919080359060200190929190505050610216565b6040518082815260200191505060405180910390f35b60006101d9600080610216565b905090565b60025481565b8060018190555050565b80600360006101000a81548160ff02191690831515021790555050565b600080549050919050565b6000600260008154809291906001019190505550600360009054906101000a900460ff16156102ad576040517f08c379a000000000000000000000000000000000000000000000000000000000815260040180806020018281038252601a8152602001807f726571756573742072656c617920656e747279206661696c656400000000000081525060200191505060405180910390fd5b6000600154146103fc578273ffffffffffffffffffffffffffffffffffffffff16600154604051602401808281526020019150506040516020818303038152906040527f356e0728000000000000000000000000000000000000000000000000000000007bffffffffffffffffffffffffffffffffffffffffffffffffffffffff19166020820180517bffffffffffffffffffffffffffffffffffffffffffffffffffffffff83818316178352505050506040518082805190602001908083835b60208310610391578051825260208201915060208101905060208303925061036e565b6001836020036101000a0380198251168184511680821785525050505050509050019150506000604051808303816000865af19150503d80600081146103f3576040519150601f19603f3d011682016040523d82523d6000602084013e6103f8565b606091505b5050505b60025490509291505056fea265627a7a72315820fea97d983d9817417a24a289559b5b86756a2f130a965463123edcc13209a64764736f6c63430005110032",
  "source": "pragma solidity 0.5.17;\n\nimport \"@keep-network/keep-core/contracts/IRandomBeacon.sol\";\n\n/// @title Random Beacon Service Stub\n/// @dev This contract is for testing purposes only.\ncontract RandomBeaconStub is IRandomBeacon {\n    uint256 feeEstimate = 58;\n    uint256 entry = 0;\n    uint256 public requestCount = 0;\n    bool shouldFail;\n\n    function requestRelayEntry() external payable returns (uint256) {\n        return requestRelayEntry(address(0), 0);\n    }\n\n    /// @dev Get the entry fee estimate in wei for relay entry request.\n    /// @param callbackGas Gas required for the callback.\n    function entryFeeEstimate(uint256 callbackGas)\n        public\n        view\n        returns (uint256)\n    {\n        return feeEstimate;\n    }\n\n    function requestRelayEntry(\n        address callbackContract,\n        uint256 callbackGas\n    ) public payable returns (uint256) {\n        requestCount++;\n\n        if (shouldFail) {\n            revert(\"request relay entry failed\");\n        }\n\n        if (entry != 0) {\n            callbackContract.call(\n                abi.encodeWithSignature(\"__beaconCallback(uint256)\", entry)\n            );\n        }\n\n        return requestCount;\n    }\n\n    function setEntry(uint256 newEntry) public {\n        entry = newEntry;\n    }\n\n    function setShouldFail(bool value) public {\n        shouldFail = value;\n    }\n}\n",
  "sourcePath": "/home/kowal/Projects/sovryn/keep-ecdsa/solidity/contracts/test/RandomBeaconStub.sol",
  "compiler": {
    "name": "solc",
    "version": "0.5.17+commit.d19bba13.Emscripten.clang"
  },
  "schemaVersion": "3.0.22",
  "updatedAt": "2021-01-29T17:35:44.334Z",
  "devdoc": {
    "details": "This contract is for testing purposes only.",
    "methods": {
      "entryFeeEstimate(uint256)": {
        "details": "Get the entry fee estimate in wei for relay entry request.",
        "params": {
          "callbackGas": "Gas required for the callback."
        }
      }
    },
    "title": "Random Beacon Service Stub"
  },
  "userdoc": {
    "methods": {}
  }
}