{
  "contractName": "SortitionTree",
  "abi": [
    {
      "inputs": [],
      "payable": false,
      "stateMutability": "nonpayable",
      "type": "constructor"
    },
    {
      "constant": true,
      "inputs": [
        {
          "internalType": "address",
          "name": "operator",
          "type": "address"
        }
      ],
      "name": "isOperatorRegistered",
      "outputs": [
        {
          "internalType": "bool",
          "name": "",
          "type": "bool"
        }
      ],
      "payable": false,
      "stateMutability": "view",
      "type": "function"
    },
    {
      "constant": true,
      "inputs": [],
      "name": "operatorsInPool",
      "outputs": [
        {
          "internalType": "uint256",
          "name": "",
          "type": "uint256"
        }
      ],
      "payable": false,
      "stateMutability": "view",
      "type": "function"
    },
    {
      "constant": true,
      "inputs": [],
      "name": "totalWeight",
      "outputs": [
        {
          "internalType": "uint256",
          "name": "",
          "type": "uint256"
        }
      ],
      "payable": false,
      "stateMutability": "view",
      "type": "function"
    }
  ],
  "bytecode": "0x608060405234801561001057600080fd5b5060008081905550600060048190555061022d8061002f6000396000f3fe608060405234801561001057600080fd5b50600436106100415760003560e01c80636b1906f81461004657806396c82e57146100a2578063e7bfd899146100c0575b600080fd5b6100886004803603602081101561005c57600080fd5b81019080803573ffffffffffffffffffffffffffffffffffffffff1690602001909291905050506100de565b604051808215151515815260200191505060405180910390f35b6100aa6100f3565b6040518082815260200191505060405180910390f35b6100c8610105565b6040518082815260200191505060405180910390f35b6000806100ea83610125565b14159050919050565b600061010060005461016e565b905090565b6000806004549050600061011960056101ea565b90508082039250505090565b6000600360008373ffffffffffffffffffffffffffffffffffffffff1673ffffffffffffffffffffffffffffffffffffffff168152602001908152602001600020549050919050565b60006001600360020a6101008161018157fe5b0460020a03821690506000600360020a6101008161019b57fe5b0483901c90505b60008111156101e1576001600360020a610100816101bc57fe5b0460020a03811682019150600360020a610100816101d657fe5b0481901c90506101a2565b81915050919050565b60008180549050905091905056fea265627a7a72315820baa305bb96a43ab8c2e367c0c63d315b028eb9b4584e06921c5851f2c63434cb64736f6c63430005110032",
  "source": "pragma solidity 0.5.17;\n\nimport \"./StackLib.sol\";\nimport \"./Branch.sol\";\nimport \"./Position.sol\";\nimport \"./Leaf.sol\";\n\ncontract SortitionTree {\n  using StackLib for uint256[];\n  using Branch for uint256;\n  using Position for uint256;\n  using Leaf for uint256;\n\n  ////////////////////////////////////////////////////////////////////////////\n  // Parameters for configuration\n\n  // How many bits a position uses per level of the tree;\n  // each branch of the tree contains 2**SLOT_BITS slots.\n  uint256 constant SLOT_BITS = 3;\n  uint256 constant LEVELS = 7;\n  ////////////////////////////////////////////////////////////////////////////\n\n  ////////////////////////////////////////////////////////////////////////////\n  // Derived constants, do not touch\n  uint256 constant SLOT_COUNT = 2**SLOT_BITS;\n  uint256 constant SLOT_WIDTH = 256 / SLOT_COUNT;\n  uint256 constant SLOT_MAX = (2**SLOT_WIDTH) - 1;\n  uint256 constant POOL_CAPACITY = SLOT_COUNT**LEVELS;\n  ////////////////////////////////////////////////////////////////////////////\n\n  // implicit tree\n  // root 8\n  // level2 64\n  // level3 512\n  // level4 4k\n  // level5 32k\n  // level6 256k\n  // level7 2M\n  uint256 root;\n  mapping(uint256 => mapping(uint256 => uint256)) branches;\n  mapping(uint256 => uint256) leaves;\n\n  // the flagged (see setFlag() and unsetFlag() in Position.sol) positions\n  // of all operators present in the pool\n  mapping(address => uint256) flaggedLeafPosition;\n\n  // the leaf after the rightmost occupied leaf of each stack\n  uint256 rightmostLeaf;\n  // the empty leaves in each stack\n  // between 0 and the rightmost occupied leaf\n  uint256[] emptyLeaves;\n\n  constructor() public {\n    root = 0;\n    rightmostLeaf = 0;\n  }\n\n  // checks if operator is already registered in the pool\n  function isOperatorRegistered(address operator) public view returns (bool) {\n    return getFlaggedLeafPosition(operator) != 0;\n  }\n\n  // Sum the number of operators in each trunk\n  function operatorsInPool() public view returns (uint256) {\n    // Get the number of leaves that might be occupied;\n    // if `rightmostLeaf` equals `firstLeaf()` the tree must be empty,\n    // otherwise the difference between these numbers\n    // gives the number of leaves that may be occupied.\n    uint256 nPossiblyUsedLeaves = rightmostLeaf;\n    // Get the number of empty leaves\n    // not accounted for by the `rightmostLeaf`\n    uint256 nEmptyLeaves = emptyLeaves.getSize();\n\n    return (nPossiblyUsedLeaves - nEmptyLeaves);\n  }\n\n  function totalWeight() public view returns (uint256) {\n    return root.sumWeight();\n  }\n\n  function insertOperator(address operator, uint256 weight) internal {\n    require(\n      !isOperatorRegistered(operator),\n      \"Operator is already registered in the pool\"\n    );\n\n    uint256 position = getEmptyLeafPosition();\n    // Record the block the operator was inserted in\n    uint256 theLeaf = Leaf.make(operator, block.number, weight);\n\n    root = setLeaf(position, theLeaf, root);\n\n    // Without position flags,\n    // the position 0x000000 would be treated as empty\n    flaggedLeafPosition[operator] = position.setFlag();\n  }\n\n  function removeOperator(address operator) internal {\n    uint256 flaggedPosition = getFlaggedLeafPosition(operator);\n    require(flaggedPosition != 0, \"Operator is not registered in the pool\");\n    uint256 unflaggedPosition = flaggedPosition.unsetFlag();\n    root = removeLeaf(unflaggedPosition, root);\n    removeLeafPositionRecord(operator);\n  }\n\n  function updateOperator(address operator, uint256 weight) internal {\n    require(\n      isOperatorRegistered(operator),\n      \"Operator is not registered in the pool\"\n    );\n\n    uint256 flaggedPosition = getFlaggedLeafPosition(operator);\n    uint256 unflaggedPosition = flaggedPosition.unsetFlag();\n    updateLeaf(unflaggedPosition, weight);\n  }\n\n  function removeLeafPositionRecord(address operator) internal {\n    flaggedLeafPosition[operator] = 0;\n  }\n\n  function getFlaggedLeafPosition(address operator)\n    internal\n    view\n    returns (uint256)\n  {\n    return flaggedLeafPosition[operator];\n  }\n\n  function removeLeaf(uint256 position, uint256 _root)\n    internal\n    returns (uint256)\n  {\n    uint256 rightmostSubOne = rightmostLeaf - 1;\n    bool isRightmost = position == rightmostSubOne;\n\n    uint256 newRoot = setLeaf(position, 0, _root);\n\n    if (isRightmost) {\n      rightmostLeaf = rightmostSubOne;\n    } else {\n      emptyLeaves.stackPush(position);\n    }\n    return newRoot;\n  }\n\n  function updateLeaf(uint256 position, uint256 weight) internal {\n    uint256 oldLeaf = leaves[position];\n    if (oldLeaf.weight() != weight) {\n      uint256 newLeaf = oldLeaf.setWeight(weight);\n      root = setLeaf(position, newLeaf, root);\n    }\n  }\n\n  function setLeaf(\n    uint256 position,\n    uint256 theLeaf,\n    uint256 _root\n  ) internal returns (uint256) {\n    uint256 childSlot;\n    uint256 treeNode;\n    uint256 newNode;\n    uint256 nodeWeight = theLeaf.weight();\n\n    // set leaf\n    leaves[position] = theLeaf;\n\n    uint256 parent = position;\n    // set levels 7 to 2\n    for (uint256 level = LEVELS; level >= 2; level--) {\n      childSlot = parent.slot();\n      parent = parent.parent();\n      treeNode = branches[level][parent];\n      newNode = treeNode.setSlot(childSlot, nodeWeight);\n      branches[level][parent] = newNode;\n      nodeWeight = newNode.sumWeight();\n    }\n\n    // set level Root\n    childSlot = parent.slot();\n    return _root.setSlot(childSlot, nodeWeight);\n  }\n\n  function pickWeightedLeaf(uint256 index, uint256 _root)\n    internal\n    view\n    returns (uint256 leafPosition, uint256 leafFirstIndex)\n  {\n    uint256 currentIndex = index;\n    uint256 currentNode = _root;\n    uint256 currentPosition = 0;\n    uint256 currentSlot;\n\n    require(index < currentNode.sumWeight(), \"Index exceeds weight\");\n\n    // get root slot\n    (currentSlot, currentIndex) = currentNode.pickWeightedSlot(currentIndex);\n\n    // get slots from levels 2 to 7\n    for (uint256 level = 2; level <= LEVELS; level++) {\n      currentPosition = currentPosition.child(currentSlot);\n      currentNode = branches[level][currentPosition];\n      (currentSlot, currentIndex) = currentNode.pickWeightedSlot(currentIndex);\n    }\n\n    // get leaf position\n    leafPosition = currentPosition.child(currentSlot);\n    // get the first index of the leaf\n    // This works because the last weight returned from `pickWeightedSlot()`\n    // equals the \"overflow\" from getting the current slot.\n    leafFirstIndex = index - currentIndex;\n  }\n\n  function getEmptyLeafPosition() internal returns (uint256) {\n    uint256 rLeaf = rightmostLeaf;\n    bool spaceOnRight = (rLeaf + 1) < POOL_CAPACITY;\n    if (spaceOnRight) {\n      rightmostLeaf = rLeaf + 1;\n      return rLeaf;\n    } else {\n      bool emptyLeavesInStack = leavesInStack();\n      require(emptyLeavesInStack, \"Pool is full\");\n      return emptyLeaves.stackPop();\n    }\n  }\n\n  function leavesInStack() internal view returns (bool) {\n    return emptyLeaves.getSize() > 0;\n  }\n}\n",
  "sourcePath": "@keep-network/sortition-pools/contracts/SortitionTree.sol",
  "compiler": {
    "name": "solc",
    "version": "0.5.17+commit.d19bba13.Emscripten.clang"
  },
  "schemaVersion": "3.0.22",
  "updatedAt": "2021-01-29T17:35:44.463Z",
  "devdoc": {
    "methods": {}
  },
  "userdoc": {
    "methods": {}
  }
}