{
  "contractName": "StakingPoolRewardsEscrowBeneficiary",
  "abi": [
    {
      "inputs": [
        {
          "internalType": "contract IERC20",
          "name": "_token",
          "type": "address"
        },
        {
          "internalType": "contract IStakingPoolRewards",
          "name": "_rewards",
          "type": "address"
        }
      ],
      "payable": false,
      "stateMutability": "nonpayable",
      "type": "constructor"
    },
    {
      "anonymous": false,
      "inputs": [
        {
          "indexed": true,
          "internalType": "address",
          "name": "previousOwner",
          "type": "address"
        },
        {
          "indexed": true,
          "internalType": "address",
          "name": "newOwner",
          "type": "address"
        }
      ],
      "name": "OwnershipTransferred",
      "type": "event"
    },
    {
      "constant": true,
      "inputs": [],
      "name": "isOwner",
      "outputs": [
        {
          "internalType": "bool",
          "name": "",
          "type": "bool"
        }
      ],
      "payable": false,
      "stateMutability": "view",
      "type": "function"
    },
    {
      "constant": true,
      "inputs": [],
      "name": "owner",
      "outputs": [
        {
          "internalType": "address",
          "name": "",
          "type": "address"
        }
      ],
      "payable": false,
      "stateMutability": "view",
      "type": "function"
    },
    {
      "constant": false,
      "inputs": [],
      "name": "renounceOwnership",
      "outputs": [],
      "payable": false,
      "stateMutability": "nonpayable",
      "type": "function"
    },
    {
      "constant": true,
      "inputs": [],
      "name": "rewards",
      "outputs": [
        {
          "internalType": "contract IStakingPoolRewards",
          "name": "",
          "type": "address"
        }
      ],
      "payable": false,
      "stateMutability": "view",
      "type": "function"
    },
    {
      "constant": true,
      "inputs": [],
      "name": "token",
      "outputs": [
        {
          "internalType": "contract IERC20",
          "name": "",
          "type": "address"
        }
      ],
      "payable": false,
      "stateMutability": "view",
      "type": "function"
    },
    {
      "constant": false,
      "inputs": [
        {
          "internalType": "address",
          "name": "newOwner",
          "type": "address"
        }
      ],
      "name": "transferOwnership",
      "outputs": [],
      "payable": false,
      "stateMutability": "nonpayable",
      "type": "function"
    },
    {
      "constant": false,
      "inputs": [
        {
          "internalType": "uint256",
          "name": "amount",
          "type": "uint256"
        }
      ],
      "name": "__escrowSentTokens",
      "outputs": [],
      "payable": false,
      "stateMutability": "nonpayable",
      "type": "function"
    }
  ],
  "bytecode": "0x608060405234801561001057600080fd5b506040516109d63803806109d68339818101604052604081101561003357600080fd5b810190808051906020019092919080519060200190929190505050336000806101000a81548173ffffffffffffffffffffffffffffffffffffffff021916908373ffffffffffffffffffffffffffffffffffffffff1602179055506000809054906101000a900473ffffffffffffffffffffffffffffffffffffffff1673ffffffffffffffffffffffffffffffffffffffff16600073ffffffffffffffffffffffffffffffffffffffff167f8be0079c531659141344cd1fd0a4f28419497f9722a3daafe3b4186f6b6457e060405160405180910390a381600160006101000a81548173ffffffffffffffffffffffffffffffffffffffff021916908373ffffffffffffffffffffffffffffffffffffffff16021790555080600260006101000a81548173ffffffffffffffffffffffffffffffffffffffff021916908373ffffffffffffffffffffffffffffffffffffffff16021790555050506108398061019d6000396000f3fe608060405234801561001057600080fd5b506004361061007d5760003560e01c80638f32d59b1161005b5780638f32d59b146101045780639ec5a89414610126578063f2fde38b14610170578063fc0c546a146101b45761007d565b80634a5f545614610082578063715018a6146100b05780638da5cb5b146100ba575b600080fd5b6100ae6004803603602081101561009857600080fd5b81019080803590602001909291905050506101fe565b005b6100b861040f565b005b6100c2610548565b604051808273ffffffffffffffffffffffffffffffffffffffff1673ffffffffffffffffffffffffffffffffffffffff16815260200191505060405180910390f35b61010c610571565b604051808215151515815260200191505060405180910390f35b61012e6105c8565b604051808273ffffffffffffffffffffffffffffffffffffffff1673ffffffffffffffffffffffffffffffffffffffff16815260200191505060405180910390f35b6101b26004803603602081101561018657600080fd5b81019080803573ffffffffffffffffffffffffffffffffffffffff1690602001909291905050506105ee565b005b6101bc610674565b604051808273ffffffffffffffffffffffffffffffffffffffff1673ffffffffffffffffffffffffffffffffffffffff16815260200191505060405180910390f35b610206610571565b610278576040517f08c379a00000000000000000000000000000000000000000000000000000000081526004018080602001828103825260208152602001807f4f776e61626c653a2063616c6c6572206973206e6f7420746865206f776e657281525060200191505060405180910390fd5b600160009054906101000a900473ffffffffffffffffffffffffffffffffffffffff1673ffffffffffffffffffffffffffffffffffffffff1663095ea7b3600260009054906101000a900473ffffffffffffffffffffffffffffffffffffffff16836040518363ffffffff1660e01b8152600401808373ffffffffffffffffffffffffffffffffffffffff1673ffffffffffffffffffffffffffffffffffffffff16815260200182815260200192505050602060405180830381600087803b15801561034357600080fd5b505af1158015610357573d6000803e3d6000fd5b505050506040513d602081101561036d57600080fd5b810190808051906020019092919050505050600260009054906101000a900473ffffffffffffffffffffffffffffffffffffffff1673ffffffffffffffffffffffffffffffffffffffff16633c6b16ab826040518263ffffffff1660e01b815260040180828152602001915050600060405180830381600087803b1580156103f457600080fd5b505af1158015610408573d6000803e3d6000fd5b5050505050565b610417610571565b610489576040517f08c379a00000000000000000000000000000000000000000000000000000000081526004018080602001828103825260208152602001807f4f776e61626c653a2063616c6c6572206973206e6f7420746865206f776e657281525060200191505060405180910390fd5b600073ffffffffffffffffffffffffffffffffffffffff166000809054906101000a900473ffffffffffffffffffffffffffffffffffffffff1673ffffffffffffffffffffffffffffffffffffffff167f8be0079c531659141344cd1fd0a4f28419497f9722a3daafe3b4186f6b6457e060405160405180910390a360008060006101000a81548173ffffffffffffffffffffffffffffffffffffffff021916908373ffffffffffffffffffffffffffffffffffffffff160217905550565b60008060009054906101000a900473ffffffffffffffffffffffffffffffffffffffff16905090565b60008060009054906101000a900473ffffffffffffffffffffffffffffffffffffffff1673ffffffffffffffffffffffffffffffffffffffff163373ffffffffffffffffffffffffffffffffffffffff1614905090565b600260009054906101000a900473ffffffffffffffffffffffffffffffffffffffff1681565b6105f6610571565b610668576040517f08c379a00000000000000000000000000000000000000000000000000000000081526004018080602001828103825260208152602001807f4f776e61626c653a2063616c6c6572206973206e6f7420746865206f776e657281525060200191505060405180910390fd5b6106718161069a565b50565b600160009054906101000a900473ffffffffffffffffffffffffffffffffffffffff1681565b600073ffffffffffffffffffffffffffffffffffffffff168173ffffffffffffffffffffffffffffffffffffffff161415610720576040517f08c379a00000000000000000000000000000000000000000000000000000000081526004018080602001828103825260268152602001806107df6026913960400191505060405180910390fd5b8073ffffffffffffffffffffffffffffffffffffffff166000809054906101000a900473ffffffffffffffffffffffffffffffffffffffff1673ffffffffffffffffffffffffffffffffffffffff167f8be0079c531659141344cd1fd0a4f28419497f9722a3daafe3b4186f6b6457e060405160405180910390a3806000806101000a81548173ffffffffffffffffffffffffffffffffffffffff021916908373ffffffffffffffffffffffffffffffffffffffff1602179055505056fe4f776e61626c653a206e6577206f776e657220697320746865207a65726f2061646472657373a265627a7a723158206d17a4b675c32c7531edf7d3aa7eff8700174da4066aff532eab6f5f54ded73f64736f6c63430005110032",
  "source": "pragma solidity 0.5.17;\n\nimport \"openzeppelin-solidity/contracts/ownership/Ownable.sol\";\nimport \"openzeppelin-solidity/contracts/token/ERC20/IERC20.sol\";\nimport \"openzeppelin-solidity/contracts/token/ERC20/SafeERC20.sol\";\n\nimport \"./Escrow.sol\";\n\ninterface IBeneficiaryContract {\n    function __escrowSentTokens(uint256 amount) external;\n}\n\n/// @title PhasedEscrow\n/// @notice A token holder contract allowing contract owner to set beneficiary of\n///         tokens held by the contract and allowing the owner to withdraw the\n///         tokens to that beneficiary in phases.\ncontract PhasedEscrow is Ownable {\n    using SafeERC20 for IERC20;\n\n    event BeneficiaryUpdated(address beneficiary);\n    event TokensWithdrawn(address beneficiary, uint256 amount);\n\n    IERC20 public token;\n    IBeneficiaryContract public beneficiary;\n\n    constructor(IERC20 _token) public {\n        token = _token;\n    }\n\n    /// @notice Sets the provided address as a beneficiary allowing it to\n    ///         withdraw all tokens from escrow. This function can be called only\n    ///         by escrow owner.\n    function setBeneficiary(IBeneficiaryContract _beneficiary)\n        external\n        onlyOwner\n    {\n        beneficiary = _beneficiary;\n        emit BeneficiaryUpdated(address(beneficiary));\n    }\n\n    /// @notice Withdraws the specified number of tokens from escrow to the\n    ///         beneficiary. If the beneficiary is not set, or there are\n    ///         insufficient tokens in escrow, the function fails.\n    function withdraw(uint256 amount) external onlyOwner {\n        require(address(beneficiary) != address(0), \"Beneficiary not assigned\");\n\n        uint256 balance = token.balanceOf(address(this));\n        require(amount <= balance, \"Not enough tokens for withdrawal\");\n\n        token.safeTransfer(address(beneficiary), amount);\n        emit TokensWithdrawn(address(beneficiary), amount);\n\n        beneficiary.__escrowSentTokens(amount);\n    }\n\n    /// @notice Funds the escrow by transferring all of the approved tokens\n    ///         to the escrow.\n    function receiveApproval(\n        address _from,\n        uint256 _value,\n        address _token,\n        bytes memory\n    ) public {\n        require(IERC20(_token) == token, \"Unsupported token\");\n        token.safeTransferFrom(_from, address(this), _value);\n    }\n\n    /// @notice Withdraws all funds from a non-phased Escrow passed as\n    ///         a parameter. For this function to succeed, this PhasedEscrow\n    ///         has to be set as a beneficiary of the non-phased Escrow.\n    function withdrawFromEscrow(Escrow _escrow) public {\n        _escrow.withdraw();\n    }\n}\n\n/// @title BatchedPhasedEscrow\n/// @notice A token holder contract allowing contract owner to approve a set of\n///         beneficiaries of tokens held by the contract, to appoint a separate\n///         drawee role, and allowing that drawee to withdraw tokens to approved\n///         beneficiaries in phases.\ncontract BatchedPhasedEscrow is Ownable {\n    using SafeERC20 for IERC20;\n\n    event BeneficiaryApproved(address beneficiary);\n    event TokensWithdrawn(address beneficiary, uint256 amount);\n    event DraweeRoleTransferred(address oldDrawee, address newDrawee);\n\n    IERC20 public token;\n    address public drawee;\n    mapping(address => bool) private approvedBeneficiaries;\n\n    modifier onlyDrawee() {\n        require(drawee == msg.sender, \"Caller is not the drawee\");\n        _;\n    }\n\n    constructor(IERC20 _token) public {\n        token = _token;\n        drawee = msg.sender;\n    }\n\n    /// @notice Approves the provided address as a beneficiary of tokens held by\n    ///         the escrow. Can be called only by escrow owner.\n    function approveBeneficiary(IBeneficiaryContract _beneficiary)\n        external\n        onlyOwner\n    {\n        address beneficiaryAddress = address(_beneficiary);\n        require(\n            beneficiaryAddress != address(0),\n            \"Beneficiary can not be zero address\"\n        );\n        approvedBeneficiaries[beneficiaryAddress] = true;\n        emit BeneficiaryApproved(beneficiaryAddress);\n    }\n\n    /// @notice Returns `true` if the given address has been approved as a\n    ///         beneficiary of the escrow, `false` otherwise.\n    function isBeneficiaryApproved(IBeneficiaryContract _beneficiary)\n        public\n        view\n        returns (bool)\n    {\n        return approvedBeneficiaries[address(_beneficiary)];\n    }\n\n    /// @notice Transfers the role of drawee to another address. Can be called\n    ///         only by the contract owner.\n    function setDrawee(address newDrawee) public onlyOwner {\n        require(newDrawee != address(0), \"New drawee can not be zero address\");\n        emit DraweeRoleTransferred(drawee, newDrawee);\n        drawee = newDrawee;\n    }\n\n    /// @notice Funds the escrow by transferring all of the approved tokens\n    ///         to the escrow.\n    function receiveApproval(\n        address _from,\n        uint256 _value,\n        address _token,\n        bytes memory\n    ) public {\n        require(IERC20(_token) == token, \"Unsupported token\");\n        token.safeTransferFrom(_from, address(this), _value);\n    }\n\n    /// @notice Withdraws tokens from escrow to selected beneficiaries,\n    ///         transferring to each beneficiary the amount of tokens specified\n    ///         as a parameter. Only beneficiaries previously approved by escrow\n    ///         owner can receive funds.\n    function batchedWithdraw(\n        IBeneficiaryContract[] memory beneficiaries,\n        uint256[] memory amounts\n    ) public onlyDrawee {\n        require(\n            beneficiaries.length == amounts.length,\n            \"Mismatched arrays length\"\n        );\n\n        for (uint256 i = 0; i < beneficiaries.length; i++) {\n            IBeneficiaryContract beneficiary = beneficiaries[i];\n            require(\n                isBeneficiaryApproved(beneficiary),\n                \"Beneficiary was not approved\"\n            );\n            withdraw(beneficiary, amounts[i]);\n        }\n    }\n\n    function withdraw(IBeneficiaryContract beneficiary, uint256 amount)\n        private\n    {\n        token.safeTransfer(address(beneficiary), amount);\n        emit TokensWithdrawn(address(beneficiary), amount);\n        beneficiary.__escrowSentTokens(amount);\n    }\n}\n\n// Interface representing staking pool rewards contract such as CurveRewards\n// contract deployed for Keep (0xAF379f0228ad0d46bB7B4f38f9dc9bCC1ad0360c) or\n// LPRewards contract from keep-ecdsa repository deployed for Uniswap.\ninterface IStakingPoolRewards {\n    function notifyRewardAmount(uint256 amount) external;\n}\n\n/// @title StakingPoolRewardsEscrowBeneficiary\n/// @notice A beneficiary contract that can receive a withdrawal phase from a\n///         PhasedEscrow contract. Immediately stakes the received tokens on a\n///         designated IStakingPoolRewards contract.\ncontract StakingPoolRewardsEscrowBeneficiary is Ownable, IBeneficiaryContract {\n    IERC20 public token;\n    IStakingPoolRewards public rewards;\n\n    constructor(IERC20 _token, IStakingPoolRewards _rewards) public {\n        token = _token;\n        rewards = _rewards;\n    }\n\n    function __escrowSentTokens(uint256 amount) external onlyOwner {\n        token.approve(address(rewards), amount);\n        rewards.notifyRewardAmount(amount);\n    }\n}\n\n/// @dev Interface of recipient contract for approveAndCall pattern.\ninterface IStakerRewards {\n    function receiveApproval(\n        address _from,\n        uint256 _value,\n        address _token,\n        bytes calldata _extraData\n    ) external;\n}\n\n/// @title StakerRewardsBeneficiary\n/// @notice An abstract beneficiary contract that can receive a withdrawal phase\n///         from a PhasedEscrow contract. The received tokens are immediately\n///         funded for a designated rewards escrow beneficiary contract.\ncontract StakerRewardsBeneficiary is Ownable {\n    IERC20 public token;\n    IStakerRewards public stakerRewards;\n\n    constructor(IERC20 _token, IStakerRewards _stakerRewards) public {\n        token = _token;\n        stakerRewards = _stakerRewards;\n    }\n\n    function __escrowSentTokens(uint256 amount) external onlyOwner {\n        bool success = token.approve(address(stakerRewards), amount);\n        require(success, \"Token transfer approval failed\");\n\n        stakerRewards.receiveApproval(\n            address(this),\n            amount,\n            address(token),\n            \"\"\n        );\n    }\n}\n\n/// @title BeaconBackportRewardsEscrowBeneficiary\n/// @notice Transfer the received tokens to a designated\n///         BeaconBackportRewardsEscrowBeneficiary contract.\ncontract BeaconBackportRewardsEscrowBeneficiary is StakerRewardsBeneficiary {\n    constructor(IERC20 _token, IStakerRewards _stakerRewards)\n        public\n        StakerRewardsBeneficiary(_token, _stakerRewards)\n    {}\n}\n\n/// @title BeaconRewardsEscrowBeneficiary\n/// @notice Transfer the received tokens to a designated\n///         BeaconRewardsEscrowBeneficiary contract.\ncontract BeaconRewardsEscrowBeneficiary is StakerRewardsBeneficiary {\n    constructor(IERC20 _token, IStakerRewards _stakerRewards)\n        public\n        StakerRewardsBeneficiary(_token, _stakerRewards)\n    {}\n}\n",
  "sourcePath": "@keep-network/keep-core/contracts/PhasedEscrow.sol",
  "compiler": {
    "name": "solc",
    "version": "0.5.17+commit.d19bba13.Emscripten.clang"
  },
  "schemaVersion": "3.3.4",
  "updatedAt": "2021-04-13T14:08:44.415Z",
  "devdoc": {
    "methods": {
      "isOwner()": {
        "details": "Returns true if the caller is the current owner."
      },
      "owner()": {
        "details": "Returns the address of the current owner."
      },
      "renounceOwnership()": {
        "details": "Leaves the contract without owner. It will not be possible to call `onlyOwner` functions anymore. Can only be called by the current owner.     * > Note: Renouncing ownership will leave the contract without an owner, thereby removing any functionality that is only available to the owner."
      },
      "transferOwnership(address)": {
        "details": "Transfers ownership of the contract to a new account (`newOwner`). Can only be called by the current owner."
      }
    },
    "title": "StakingPoolRewardsEscrowBeneficiary"
  },
  "userdoc": {
    "methods": {},
    "notice": "A beneficiary contract that can receive a withdrawal phase from a         PhasedEscrow contract. Immediately stakes the received tokens on a         designated IStakingPoolRewards contract."
  }
}