{
  "contractName": "TestEtherReceiver",
  "abi": [
    {
      "payable": true,
      "stateMutability": "payable",
      "type": "fallback"
    },
    {
      "constant": false,
      "inputs": [
        {
          "internalType": "bool",
          "name": "_value",
          "type": "bool"
        }
      ],
      "name": "setShouldFail",
      "outputs": [],
      "payable": false,
      "stateMutability": "nonpayable",
      "type": "function"
    }
  ],
  "bytecode": "0x608060405234801561001057600080fd5b50610129806100206000396000f3fe608060405260043610601c5760003560e01c8063a5aa5c1214609f575b6000809054906101000a900460ff1615609d576040517f08c379a00000000000000000000000000000000000000000000000000000000081526004018080602001828103825260108152602001807f5061796d656e742072656a65637465640000000000000000000000000000000081525060200191505060405180910390fd5b005b34801560aa57600080fd5b5060d66004803603602081101560bf57600080fd5b8101908080351515906020019092919050505060d8565b005b806000806101000a81548160ff0219169083151502179055505056fea265627a7a723158205b944d25f248a790c3e16e8c2990ea4acbd5813ef2308159fed67d868aa47e1564736f6c63430005110032",
  "source": "pragma solidity 0.5.17;\n\n/// @title Ether Transfer Receiver.\n/// @dev This contract is for testing purposes only.\ncontract TestEtherReceiver {\n    bool shouldFail;\n\n    /// @notice Rejects ether transfers sent to this contract if the shouldFail\n    /// flag is set to true.\n    function() external payable {\n        require(!shouldFail, \"Payment rejected\");\n    }\n\n    function setShouldFail(bool _value) public {\n        shouldFail = _value;\n    }\n}\n",
  "sourcePath": "/Users/konrad/Desktop/rumble/fin/local-setup/keep-ecdsa/solidity/contracts/test/TestEtherReceiver.sol",
  "compiler": {
    "name": "solc",
    "version": "0.5.17+commit.d19bba13.Emscripten.clang"
  },
  "schemaVersion": "3.3.4",
  "updatedAt": "2021-04-30T08:59:51.173Z",
  "devdoc": {
    "details": "This contract is for testing purposes only.",
    "methods": {},
    "title": "Ether Transfer Receiver."
  },
  "userdoc": {
    "methods": {}
  }
}