{
  "contractName": "TokenGrantStub",
  "abi": [
    {
      "constant": true,
      "inputs": [
        {
          "internalType": "address",
          "name": "grantee",
          "type": "address"
        }
      ],
      "name": "getGranteeOperators",
      "outputs": [
        {
          "internalType": "address[]",
          "name": "",
          "type": "address[]"
        }
      ],
      "payable": false,
      "stateMutability": "view",
      "type": "function"
    },
    {
      "constant": false,
      "inputs": [
        {
          "internalType": "address",
          "name": "grantee",
          "type": "address"
        },
        {
          "internalType": "address",
          "name": "operator",
          "type": "address"
        }
      ],
      "name": "setGranteeOperator",
      "outputs": [],
      "payable": false,
      "stateMutability": "nonpayable",
      "type": "function"
    }
  ],
  "bytecode": "0x608060405234801561001057600080fd5b506103db806100206000396000f3fe608060405234801561001057600080fd5b50600436106100365760003560e01c80631ab67a7c1461003b578063ca9a33ce1461009f575b600080fd5b61009d6004803603604081101561005157600080fd5b81019080803573ffffffffffffffffffffffffffffffffffffffff169060200190929190803573ffffffffffffffffffffffffffffffffffffffff169060200190929190505050610138565b005b6100e1600480360360208110156100b557600080fd5b81019080803573ffffffffffffffffffffffffffffffffffffffff16906020019092919050505061020d565b6040518080602001828103825283818151815260200191508051906020019060200280838360005b83811015610124578082015181840152602081019050610109565b505050509050019250505060405180910390f35b6060600160405190808252806020026020018201604052801561016a5781602001602082028038833980820191505090505b509050818160008151811061017b57fe5b602002602001019073ffffffffffffffffffffffffffffffffffffffff16908173ffffffffffffffffffffffffffffffffffffffff1681525050806000808573ffffffffffffffffffffffffffffffffffffffff1673ffffffffffffffffffffffffffffffffffffffff16815260200190815260200160002090805190602001906102079291906102d9565b50505050565b60606000808373ffffffffffffffffffffffffffffffffffffffff1673ffffffffffffffffffffffffffffffffffffffff1681526020019081526020016000208054806020026020016040519081016040528092919081815260200182805480156102cd57602002820191906000526020600020905b8160009054906101000a900473ffffffffffffffffffffffffffffffffffffffff1673ffffffffffffffffffffffffffffffffffffffff1681526020019060010190808311610283575b50505050509050919050565b828054828255906000526020600020908101928215610352579160200282015b828111156103515782518260006101000a81548173ffffffffffffffffffffffffffffffffffffffff021916908373ffffffffffffffffffffffffffffffffffffffff160217905550916020019190600101906102f9565b5b50905061035f9190610363565b5090565b6103a391905b8082111561039f57600081816101000a81549073ffffffffffffffffffffffffffffffffffffffff021916905550600101610369565b5090565b9056fea265627a7a72315820fd84173225da088d2b1d5ea674f0c62b7aede35e682de9ba3a5f6ec216f3490864736f6c63430005110032",
  "source": "pragma solidity 0.5.17;\n\ncontract TokenGrantStub {\n    mapping(address => address[]) granteeOperators;\n\n    function getGranteeOperators(\n        address grantee\n    ) public view returns(address[] memory) {\n        return granteeOperators[grantee];\n    }\n\n    function setGranteeOperator(address grantee, address operator) public {\n        address[] memory operators = new address[](1);\n        operators[0] = operator;\n        granteeOperators[grantee] = operators;\n    }\n}",
  "sourcePath": "/home/kowal/Projects/sovryn/keep-ecdsa/solidity/contracts/test/TokenGrantStub.sol",
  "compiler": {
    "name": "solc",
    "version": "0.5.17+commit.d19bba13.Emscripten.clang"
  },
  "schemaVersion": "3.0.22",
  "updatedAt": "2021-01-29T17:35:44.336Z",
  "devdoc": {
    "methods": {}
  },
  "userdoc": {
    "methods": {}
  }
}