{
  "contractName": "TokenGrantStake",
  "abi": [
    {
      "inputs": [
        {
          "internalType": "address",
          "name": "_tokenAddress",
          "type": "address"
        },
        {
          "internalType": "uint256",
          "name": "_grantId",
          "type": "uint256"
        },
        {
          "internalType": "address",
          "name": "_tokenStaking",
          "type": "address"
        }
      ],
      "payable": false,
      "stateMutability": "nonpayable",
      "type": "constructor"
    },
    {
      "constant": false,
      "inputs": [
        {
          "internalType": "uint256",
          "name": "_amount",
          "type": "uint256"
        },
        {
          "internalType": "bytes",
          "name": "_extraData",
          "type": "bytes"
        }
      ],
      "name": "stake",
      "outputs": [],
      "payable": false,
      "stateMutability": "nonpayable",
      "type": "function"
    },
    {
      "constant": true,
      "inputs": [],
      "name": "getGrantId",
      "outputs": [
        {
          "internalType": "uint256",
          "name": "",
          "type": "uint256"
        }
      ],
      "payable": false,
      "stateMutability": "view",
      "type": "function"
    },
    {
      "constant": true,
      "inputs": [],
      "name": "getAmount",
      "outputs": [
        {
          "internalType": "uint256",
          "name": "",
          "type": "uint256"
        }
      ],
      "payable": false,
      "stateMutability": "view",
      "type": "function"
    },
    {
      "constant": true,
      "inputs": [],
      "name": "getStakingContract",
      "outputs": [
        {
          "internalType": "address",
          "name": "",
          "type": "address"
        }
      ],
      "payable": false,
      "stateMutability": "view",
      "type": "function"
    },
    {
      "constant": true,
      "inputs": [],
      "name": "getDetails",
      "outputs": [
        {
          "internalType": "uint256",
          "name": "_grantId",
          "type": "uint256"
        },
        {
          "internalType": "uint256",
          "name": "_amount",
          "type": "uint256"
        },
        {
          "internalType": "address",
          "name": "_tokenStaking",
          "type": "address"
        }
      ],
      "payable": false,
      "stateMutability": "view",
      "type": "function"
    },
    {
      "constant": false,
      "inputs": [],
      "name": "cancelStake",
      "outputs": [
        {
          "internalType": "uint256",
          "name": "",
          "type": "uint256"
        }
      ],
      "payable": false,
      "stateMutability": "nonpayable",
      "type": "function"
    },
    {
      "constant": false,
      "inputs": [],
      "name": "undelegate",
      "outputs": [],
      "payable": false,
      "stateMutability": "nonpayable",
      "type": "function"
    },
    {
      "constant": false,
      "inputs": [],
      "name": "recoverStake",
      "outputs": [
        {
          "internalType": "uint256",
          "name": "",
          "type": "uint256"
        }
      ],
      "payable": false,
      "stateMutability": "nonpayable",
      "type": "function"
    }
  ],
  "bytecode": "0x608060405234801561001057600080fd5b506040516112cb3803806112cb8339818101604052606081101561003357600080fd5b81019080805190602001909291908051906020019092919080519060200190929190505050600073ffffffffffffffffffffffffffffffffffffffff168373ffffffffffffffffffffffffffffffffffffffff1614156100fb576040517f08c379a000000000000000000000000000000000000000000000000000000000815260040180806020018281038252601c8152602001807f546f6b656e20616464726573732063616e2774206265207a65726f2e0000000081525060200191505060405180910390fd5b600073ffffffffffffffffffffffffffffffffffffffff168173ffffffffffffffffffffffffffffffffffffffff161415610181576040517f08c379a00000000000000000000000000000000000000000000000000000000081526004018080602001828103825260278152602001806112a46027913960400191505060405180910390fd5b826000806101000a81548173ffffffffffffffffffffffffffffffffffffffff021916908373ffffffffffffffffffffffffffffffffffffffff16021790555033600260006101000a81548173ffffffffffffffffffffffffffffffffffffffff021916908373ffffffffffffffffffffffffffffffffffffffff1602179055508160038190555080600160006101000a81548173ffffffffffffffffffffffffffffffffffffffff021916908373ffffffffffffffffffffffffffffffffffffffff1602179055505050506110488061025c6000396000f3fe608060405234801561001057600080fd5b50600436106100885760003560e01c806392ab89bb1161005b57806392ab89bb146101d8578063ca9ce291146101e2578063d321fe2914610200578063fbbf93a01461021e57610088565b80630e89439b1461008d5780632a9a347a146101525780635c8fb3cf146101705780638e68dce41461018e575b600080fd5b610150600480360360408110156100a357600080fd5b8101908080359060200190929190803590602001906401000000008111156100ca57600080fd5b8201836020820111156100dc57600080fd5b803590602001918460018302840111640100000000831117156100fe57600080fd5b91908080601f016020809104026020016040519081016040528093929190818152602001838380828437600081840152601f19601f820116905080830192505050505050509192919290505050610276565b005b61015a6104e7565b6040518082815260200191505060405180910390f35b610178610694565b6040518082815260200191505060405180910390f35b610196610761565b604051808273ffffffffffffffffffffffffffffffffffffffff1673ffffffffffffffffffffffffffffffffffffffff16815260200191505060405180910390f35b6101e061084e565b005b6101ea6109ee565b6040518082815260200191505060405180910390f35b610208610b9b565b6040518082815260200191505060405180910390f35b610226610c68565b604051808481526020018381526020018273ffffffffffffffffffffffffffffffffffffffff1673ffffffffffffffffffffffffffffffffffffffff168152602001935050505060405180910390f35b600260009054906101000a900473ffffffffffffffffffffffffffffffffffffffff1673ffffffffffffffffffffffffffffffffffffffff163373ffffffffffffffffffffffffffffffffffffffff1614610339576040517f08c379a000000000000000000000000000000000000000000000000000000000815260040180806020018281038252601d8152602001807f466f7220746f6b656e206772616e7420636f6e7472616374206f6e6c7900000081525060200191505060405180910390fd5b81600481905550610354601482610d6490919063ffffffff16565b600560006101000a81548173ffffffffffffffffffffffffffffffffffffffff021916908373ffffffffffffffffffffffffffffffffffffffff1602179055506000809054906101000a900473ffffffffffffffffffffffffffffffffffffffff1673ffffffffffffffffffffffffffffffffffffffff1663cae9ca51600160009054906101000a900473ffffffffffffffffffffffffffffffffffffffff1684846040518463ffffffff1660e01b8152600401808473ffffffffffffffffffffffffffffffffffffffff1673ffffffffffffffffffffffffffffffffffffffff16815260200183815260200180602001828103825283818151815260200191508051906020019080838360005b8381101561047d578082015181840152602081019050610462565b50505050905090810190601f1680156104aa5780820380516001836020036101000a031916815260200191505b50945050505050600060405180830381600087803b1580156104cb57600080fd5b505af11580156104df573d6000803e3d6000fd5b505050505050565b6000600260009054906101000a900473ffffffffffffffffffffffffffffffffffffffff1673ffffffffffffffffffffffffffffffffffffffff163373ffffffffffffffffffffffffffffffffffffffff16146105ac576040517f08c379a000000000000000000000000000000000000000000000000000000000815260040180806020018281038252601d8152602001807f466f7220746f6b656e206772616e7420636f6e7472616374206f6e6c7900000081525060200191505060405180910390fd5b600160009054906101000a900473ffffffffffffffffffffffffffffffffffffffff1673ffffffffffffffffffffffffffffffffffffffff1663525835f9600560009054906101000a900473ffffffffffffffffffffffffffffffffffffffff166040518263ffffffff1660e01b8152600401808273ffffffffffffffffffffffffffffffffffffffff1673ffffffffffffffffffffffffffffffffffffffff168152602001915050600060405180830381600087803b15801561066f57600080fd5b505af1158015610683573d6000803e3d6000fd5b5050505061068f610df7565b905090565b6000600260009054906101000a900473ffffffffffffffffffffffffffffffffffffffff1673ffffffffffffffffffffffffffffffffffffffff163373ffffffffffffffffffffffffffffffffffffffff1614610759576040517f08c379a000000000000000000000000000000000000000000000000000000000815260040180806020018281038252601d8152602001807f466f7220746f6b656e206772616e7420636f6e7472616374206f6e6c7900000081525060200191505060405180910390fd5b600354905090565b6000600260009054906101000a900473ffffffffffffffffffffffffffffffffffffffff1673ffffffffffffffffffffffffffffffffffffffff163373ffffffffffffffffffffffffffffffffffffffff1614610826576040517f08c379a000000000000000000000000000000000000000000000000000000000815260040180806020018281038252601d8152602001807f466f7220746f6b656e206772616e7420636f6e7472616374206f6e6c7900000081525060200191505060405180910390fd5b600160009054906101000a900473ffffffffffffffffffffffffffffffffffffffff16905090565b600260009054906101000a900473ffffffffffffffffffffffffffffffffffffffff1673ffffffffffffffffffffffffffffffffffffffff163373ffffffffffffffffffffffffffffffffffffffff1614610911576040517f08c379a000000000000000000000000000000000000000000000000000000000815260040180806020018281038252601d8152602001807f466f7220746f6b656e206772616e7420636f6e7472616374206f6e6c7900000081525060200191505060405180910390fd5b600160009054906101000a900473ffffffffffffffffffffffffffffffffffffffff1673ffffffffffffffffffffffffffffffffffffffff1663da8be864600560009054906101000a900473ffffffffffffffffffffffffffffffffffffffff166040518263ffffffff1660e01b8152600401808273ffffffffffffffffffffffffffffffffffffffff1673ffffffffffffffffffffffffffffffffffffffff168152602001915050600060405180830381600087803b1580156109d457600080fd5b505af11580156109e8573d6000803e3d6000fd5b50505050565b6000600260009054906101000a900473ffffffffffffffffffffffffffffffffffffffff1673ffffffffffffffffffffffffffffffffffffffff163373ffffffffffffffffffffffffffffffffffffffff1614610ab3576040517f08c379a000000000000000000000000000000000000000000000000000000000815260040180806020018281038252601d8152602001807f466f7220746f6b656e206772616e7420636f6e7472616374206f6e6c7900000081525060200191505060405180910390fd5b600160009054906101000a900473ffffffffffffffffffffffffffffffffffffffff1673ffffffffffffffffffffffffffffffffffffffff1663e064172e600560009054906101000a900473ffffffffffffffffffffffffffffffffffffffff166040518263ffffffff1660e01b8152600401808273ffffffffffffffffffffffffffffffffffffffff1673ffffffffffffffffffffffffffffffffffffffff168152602001915050600060405180830381600087803b158015610b7657600080fd5b505af1158015610b8a573d6000803e3d6000fd5b50505050610b96610df7565b905090565b6000600260009054906101000a900473ffffffffffffffffffffffffffffffffffffffff1673ffffffffffffffffffffffffffffffffffffffff163373ffffffffffffffffffffffffffffffffffffffff1614610c60576040517f08c379a000000000000000000000000000000000000000000000000000000000815260040180806020018281038252601d8152602001807f466f7220746f6b656e206772616e7420636f6e7472616374206f6e6c7900000081525060200191505060405180910390fd5b600454905090565b6000806000600260009054906101000a900473ffffffffffffffffffffffffffffffffffffffff1673ffffffffffffffffffffffffffffffffffffffff163373ffffffffffffffffffffffffffffffffffffffff1614610d30576040517f08c379a000000000000000000000000000000000000000000000000000000000815260040180806020018281038252601d8152602001807f466f7220746f6b656e206772616e7420636f6e7472616374206f6e6c7900000081525060200191505060405180910390fd5b600354600454600160009054906101000a900473ffffffffffffffffffffffffffffffffffffffff16925092509250909192565b6000806014830190508281118015610d7d575080845110155b610dd2576040517f08c379a0000000000000000000000000000000000000000000000000000000008152600401808060200182810382526021815260200180610ff36021913960400191505060405180910390fd5b60006c0100000000000000000000000084602087010151049050809250505092915050565b6000806000809054906101000a900473ffffffffffffffffffffffffffffffffffffffff1673ffffffffffffffffffffffffffffffffffffffff166370a08231306040518263ffffffff1660e01b8152600401808273ffffffffffffffffffffffffffffffffffffffff1673ffffffffffffffffffffffffffffffffffffffff16815260200191505060206040518083038186803b158015610e9857600080fd5b505afa158015610eac573d6000803e3d6000fd5b505050506040513d6020811015610ec257600080fd5b81019080805190602001909291905050509050806004600082825403925050819055506000809054906101000a900473ffffffffffffffffffffffffffffffffffffffff1673ffffffffffffffffffffffffffffffffffffffff1663a9059cbb600260009054906101000a900473ffffffffffffffffffffffffffffffffffffffff16836040518363ffffffff1660e01b8152600401808373ffffffffffffffffffffffffffffffffffffffff1673ffffffffffffffffffffffffffffffffffffffff16815260200182815260200192505050602060405180830381600087803b158015610faf57600080fd5b505af1158015610fc3573d6000803e3d6000fd5b505050506040513d6020811015610fd957600080fd5b810190808051906020019092919050505050809150509056fe4164647265737320636f6e76657273696f6e206f7574206f6620626f756e64732ea265627a7a72315820f91f6cc5ce8b8fd532ed828050c2f23ff0c50a104c2831b8b678a2a36cfc161064736f6c634300051100325374616b696e6720636f6e747261637420616464726573732063616e2774206265207a65726f2e",
  "source": "pragma solidity 0.5.17;\n\nimport \"openzeppelin-solidity/contracts/token/ERC20/ERC20Burnable.sol\";\nimport \"openzeppelin-solidity/contracts/token/ERC20/SafeERC20.sol\";\nimport \"openzeppelin-solidity/contracts/math/SafeMath.sol\";\nimport \"./TokenStaking.sol\";\nimport \"./TokenSender.sol\";\nimport \"./utils/BytesLib.sol\";\n\n/// @dev Interface of sender contract for approveAndCall pattern.\ninterface tokenSender {\n    function approveAndCall(address _spender, uint256 _value, bytes calldata _extraData) external;\n}\n\ncontract TokenGrantStake {\n    using SafeMath for uint256;\n    using BytesLib for bytes;\n\n    ERC20Burnable token;\n    TokenStaking tokenStaking;\n\n    address tokenGrant; // Address of the master grant contract.\n\n    uint256 grantId; // ID of the grant for this stake.\n    uint256 amount; // Amount of staked tokens.\n    address operator; // Operator of the stake.\n\n    constructor(\n        address _tokenAddress,\n        uint256 _grantId,\n        address _tokenStaking\n    ) public {\n        require(\n            _tokenAddress != address(0x0),\n            \"Token address can't be zero.\"\n        );\n        require(\n            _tokenStaking != address(0x0),\n            \"Staking contract address can't be zero.\"\n        );\n\n        token = ERC20Burnable(_tokenAddress);\n        tokenGrant = msg.sender;\n        grantId = _grantId;\n        tokenStaking = TokenStaking(_tokenStaking);\n    }\n\n    function stake(\n        uint256 _amount,\n        bytes memory _extraData\n    ) public onlyGrant {\n        amount = _amount;\n        operator = _extraData.toAddress(20);\n        tokenSender(address(token)).approveAndCall(\n            address(tokenStaking),\n            _amount,\n            _extraData\n        );\n    }\n\n    function getGrantId() public view onlyGrant returns (uint256) {\n        return grantId;\n    }\n\n    function getAmount() public view onlyGrant returns (uint256) {\n        return amount;\n    }\n\n    function getStakingContract() public view onlyGrant returns (address) {\n        return address(tokenStaking);\n    }\n\n    function getDetails() public view onlyGrant returns (\n        uint256 _grantId,\n        uint256 _amount,\n        address _tokenStaking\n    ) {\n        return (\n            grantId,\n            amount,\n            address(tokenStaking)\n        );\n    }\n\n    function cancelStake() public onlyGrant returns (uint256) {\n        tokenStaking.cancelStake(operator);\n        return returnTokens();\n    }\n\n    function undelegate() public onlyGrant {\n        tokenStaking.undelegate(operator);\n    }\n\n    function recoverStake() public onlyGrant returns (uint256) {\n        tokenStaking.recoverStake(operator);\n        return returnTokens();\n    }\n\n    function returnTokens() internal returns (uint256) {\n        uint256 returnedAmount = token.balanceOf(address(this));\n        amount -= returnedAmount;\n        token.transfer(tokenGrant, returnedAmount);\n        return returnedAmount;\n    }\n\n    modifier onlyGrant {\n        require(\n            msg.sender == tokenGrant,\n            \"For token grant contract only\"\n        );\n        _;\n    }\n}\n",
  "sourcePath": "@keep-network/keep-core/contracts/TokenGrantStake.sol",
  "compiler": {
    "name": "solc",
    "version": "0.5.17+commit.d19bba13.Emscripten.clang"
  },
  "schemaVersion": "3.0.22",
  "updatedAt": "2021-01-29T17:35:44.403Z",
  "devdoc": {
    "methods": {}
  },
  "userdoc": {
    "methods": {}
  }
}